:100000000C945B180C9494180C9494180C949418F9
:100010000C9494180C9494180C9494180C949418B0
:100020000C9494180C9494180C9494180C949418A0
:100030000C9494180C94C82C0C9494180C94941848
:100040000C94F6280C9494180C94D1AC0C9494183D
:100050000C94A08A0C94968A0C9494180C9494187E
:100060000C9494180C9494180C9494180C94941860
:100070000C9494180C9494180C9494180C94941850
:100080000C9494180C9494180C94941807634236AA
:10009000B79BD8A71A39685618AEBAAB558C1D3C19
:1000A000B7CC5763BD6DEDFD753EF6177231BF00DD
:1000B0000000803F08000000BE922449123EABAA17
:1000C000AA2ABECDCCCC4C3E00000080BEABAAAA72
:1000D000AA3E00000000BF000000803F00000000BA
:1000E00000084178D3BB4387D1133D190E3CC3BDF3
:1000F0004282AD2B3E68EC8276BED98FE1A93E4CA0
:1001000080EFFFBE01C4FF7F3F00000000004E41B2
:100110004E494E495459494E46CDCCCC3D0AD72381
:100120003C17B7D13877CC2B329595E6241FB14FC9
:100130000A000020410000C84200401C4620BCBE0E
:100140004CCA1B0E5AAEC59D745045544700504CC6
:1001500041004572723A20454550524F4D20436F41
:100160007272757074004572723A20454550524F54
:100170004D20435243004572723A20454550524F3C
:100180004D2054616D61C3B16F004572723A2056C3
:1001900065727369C3B36E20454550524F4D004997
:1001A0006D7072657369C3B36E2063616E63656C55
:1001B000616461004D32350050617573696E672E60
:1001C0002E2E004D3234003F0049676E6F7265007D
:1001D0005265696E696369617200496E696369613C
:1001E0006C697A617220454550524F4D004469C395
:1001F000A16D6574726F2046696C2E004520656E96
:10020000206D6DC2B300200820466163746F7200D8
:100210002008204D6178002008204D696E00417053
:100220006700456E630054656D702E204175746FD4
:100230006D2E0040207061736F732F6D6D00416AE9
:100240007573746573206176616E7A61646F730093
:1002500046696C616D656E746F0054656D70657292
:100260006174757261005061736F732F6D6D00431F
:100270006F6E6669677572616369C3B36E00C2A110
:100280004E6976656C616369C3B36E206C69737483
:100290006121004D6F766572205A00473239533222
:1002A000005369677569656E74652070756E746F4B
:1002B000002569202F20257500473239533100472A
:1002C000323953320050756C736172207061726103
:1002D00020636F6D656E7A6172004F726967656E3B
:1002E0002058595A00477561726461722045455023
:1002F000524F4D0043617267617220454550524F25
:100300004D0043616D61205A00436F6D70656E2E24
:1003100020416C747572610041706700456E630026
:100320004E6976656C616E646F2043616D61004E4D
:100330006976656C61722043616D61004D6F76690D
:100340006D69656E746F00526573742E2066C3A16B
:100350006272696361004361726761722045455052
:10036000524F4D004775617264617220454550528D
:100370004F4D00416A7573746573206176616E7AC2
:1003800061646F73004D656EC3BA207072696E63ED
:100390006970616C003F00417472C3A173005061C9
:1003A000726172004D323200496E69636961722078
:1003B00053442F4644004D323100496D7072696DCF
:1003C0002E2064657364652053442F4644004C61BD
:1003D0006E7A61722053442F464400436F6E666903
:1003E000677572616369C3B36E0054656D70657241
:1003F0006174757261004D6F76696D69656E746FB9
:10040000005265616E7564617220696D707265730A
:1004100069C3B36E00416A75737461720044657498
:10042000656E657220696D7072657369C3B36E0025
:1004300050617573617220696D7072657369C3B3C1
:100440006E0050616E74616C6C6120646520496E51
:10045000662E003F00496E696369617220696D70A4
:1004600072657369C3B36E0043616E63656C6172DC
:1004700000496D7072696D69720043616E6E6F74D0
:1004800020656E746572207375626469723A20002B
:1004900002202E2E00015265636172676172004D69
:1004A000656EC3BA207072696E636970616C0021F9
:1004B00000486F74656E64206D7579206672696F8F
:1004C00000417472C3A1730050726F6365646572FA
:1004D000004578747275736F72004D6F76696D693F
:1004E000656E746F00417061676172206D6F746F2B
:1004F000726573004D3834004E6976656C616E64C8
:100500006F2043616D61004C6C6576617220616C97
:10051000206F726967656E00473238004D656EC3A3
:10052000BA207072696E636970616C0050726563A5
:10053000616C2E20242043616D61005072656361FF
:100540006C2E2024204675736F720054656D7065A3
:10055000726174757261004E014901456E6672697F
:1005600061720050726563616C2E20240056656EC6
:1005700074696C61646F720043616D6100426F71F8
:1005800075696C6C61004D656EC3BA207072696EDE
:10059000636970616C00466C756A6F0056656E74B5
:1005A000696C61646F720043616D6100426F7175C7
:1005B000696C6C610043616D61205A0056656C6F17
:1005C0006369646164004D656EC3BA207072696EC0
:1005D000636970616C006F70656E005452494747E3
:1005E00045524544003A20007A5F6D696E00795F9C
:1005F0006D696E00785F6D696E005265706F727420
:10060000696E6720656E6473746F702073746174B3
:1006100075730A0020746F6F206C6F6E67206578A9
:1006200074727573696F6E2070726576656E74652D
:10063000640A0020636F6C64206578747275736956
:100640006F6E2070726576656E7465640A000000D6
:1006500010C10000A0C0CDCCBCC05761726E696EE5
:10066000673A20486F6D696E672042756D7020444F
:10067000697669736F72203C20310A00020204001F
:100680000028430000244366E64D430000A04000DC
:1006900000A0400000004000001F4300001F430076
:1006A000004843000010C10000A0C0CDCCBCC05326
:1006B000657474696E67732053746F726564002982
:1006C0000A002062797465733B20637263200053D3
:1006D000657474696E67732053746F726564202843
:1006E0000048617264636F64656420446566617587
:1006F0006C742053657474696E6773204C6F616409
:1007000065640020286D6D2900203B204C657665CE
:100710006C696E67200020204D3432302053004D2C
:1007200065736820426564204C6576656C696E6708
:100730000020460020420020480020204D31343562
:100740002053004D6174657269616C206865617445
:10075000757020706172616D657465727300202020
:10076000473239205334205A00204A002020473293
:100770003920533320490020204D31343920432083
:100780003B20556E69747320696E2043656C7369F4
:1007900075730A0054656D706572617475726520B9
:1007A000556E697473002020473231203B004C693C
:1007B0006E65617220556E69747300454550524FE5
:1007C0004D206461746173697A65206572726F721D
:1007D0002E0A00202863616C63756C61746564295E
:1007E000210A0020213D2000454550524F4D204315
:1007F0005243206D69736D61746368202D202873E6
:10080000746F726564292000454550524F4D204356
:100810006F72727570740A002053697A653A20000D
:10082000496E6465783A2000290A0020627974656F
:10083000733B2063726320002073746F72656420C1
:1008400073657474696E6773207265747269657616
:10085000656420280000009643000096430000A035
:1008600040000020410000A0420000A0420000C85B
:10087000430000BF42B80B0000B80B00006400004A
:100880000010270000204D61726C696E3D563838AB
:10089000290A00454550524F4D2076657273696FA5
:1008A0006E206D69736D61746368202845455052F0
:1008B0004F4D3D0020436F756E7420583A004361E0
:1008C0006D61004531004500626564002C2073793C
:1008D0007374656D2073746F707065642120486552
:1008E000617465725F49443A20004572723A54451A
:1008F0004D502E204DC38158004D415854454D5008
:10090000207472696767657265640043616C656E27
:10091000742E2066616C6C69646F0048656174694F
:100920006E67206661696C6564004572723A544571
:100930004D502E204D494E004D494E54454D5020AE
:100940007472696767657265640046554741205453
:10095000C389524D49434100546865726D616C20F2
:1009600052756E6177617900202F002042403A0075
:1009700020403A0000002100240027002A007C3C8F
:100980003E5E2B3D3F2F5B5D3B2C2A225C00434F9C
:100990004D4D554E49434154494F4E0044525952D2
:1009A000554E004552524F525300494E464F004556
:1009B00043484F00506F72206661766F722C207230
:1009C00065696E6963696500494D505245534F52E0
:1009D0004120444554454E4944410025533A202581
:1009E00053004D5545525441005072696E74657202
:1009F0002068616C7465642E206B696C6C282920FA
:100A000063616C6C6564210A006563686F3A004538
:100A100072726F723A004F4646004F4E000A4D65A3
:100A200061737572656420706F696E74733A0A0041
:100A3000337833206D6573682E205A206F66667395
:100A400065743A20004F46460A00466164652048B6
:100A500065696768742000426564204C6576656C42
:100A6000696E6720004661696C656420746F20655B
:100A70006E61626C6520426564204C6576656C69C8
:100A80006E670A004D65736820426564204C657688
:100A9000656C20646174613A0A00496E76616C6924
:100AA00064206D6573682E0A00206E6F7420656E79
:100AB00074657265642E0A0020440020204D323097
:100AC00030205300202844697361626C6564293AC0
:100AD0000046696C616D656E742073657474696E2F
:100AE00067730020204D3230312058004D6178204E
:100AF000416363656C65726174696F6E2028756E01
:100B00006974732F7332290020204D3230332058FE
:100B1000004D617820666565647261746573202894
:100B2000756E6974732F73290020520020204D3296
:100B30003034205000416363656C65726174696F85
:100B40006E2028756E6974732F7332292028503CEB
:100B50007072696E742D616363656C3E20523C72E5
:100B60006574726163742D616363656C3E20543CEF
:100B700074726176656C2D616363656C3E2900203B
:100B80004A0020540020530020204D3230352042AE
:100B900000416476616E6365642028423C6D696E35
:100BA0005F7365676D656E745F74696D655F75739E
:100BB0003E20533C6D696E5F666565647261746565
:100BC0003E20543C6D696E5F74726176656C5F6641
:100BD000656564726174653E204A3C6A756E635F48
:100BE0006465763E290020440020490020204D33D2
:100BF0003031205000486F74656E642050494400C5
:100C000020440020490020204D3330342050004241
:100C1000656420504944002E0A009C11642D612D0A
:100C20005E2D206E6F742064697361626C65642E42
:100C3000205368617265642077697468003B200006
:100C400020496E76616C696420657874727564659C
:100C50007220005265706F736F2E2E2E00536F6ED0
:100C6000646561722050756E746F0025532025698C
:100C70002F256900206F6620004D424C20473239F5
:100C800020706F696E742000290A004A206F757405
:100C9000206F662072616E67652028302D00290A5A
:100CA0000049206F7574206F662072616E67652041
:100CB00028302D004D6573682070726F62696E6711
:100CC00020646F6E65004D6573682070726F626995
:100CD0006E6720646F6E652E0A0053746172742013
:100CE0006D6573682070726F62696E6720776974D2
:100CF000682022473239205331222066697273748A
:100D00002E0A00473239533200686173206E6F201B
:100D1000646174612E0A004D657368204265642029
:100D20004C6576656C696E67200053206F75742082
:100D30006F662072616E67652028302D35292E0A76
:100D4000004D65736820706F696E74206F75742034
:100D50006F662072616E67650A0050756C73617210
:100D60002070617261205265616E7564617200610C
:100D70006C736F20656E61626C6564290A0053694B
:100D80006E206D6F76696D69656E746F00456E6477
:100D90002066696C65206C6973740A004265676936
:100DA0006E2066696C65206C6973740A004E6F2052
:100DB0006D656469610A0053442063617264207246
:100DC000656C65617365640A00286E6F2066696CE6
:100DD00065290043757272656E742066696C653AA8
:100DE00020004E6F74205344207072696E74696ED7
:100DF000670A005344207072696E74696E672062DE
:100E000079746520002E0A0044656C6574696F6E04
:100E1000206661696C65642C2046696C653A200027
:100E200046696C652064656C657465643A00256983
:100E3000730025696D20256973002569682025697F
:100E40006D2025697300256964202569682025695E
:100E50006D2025697300256979202569642025693D
:100E6000682025696D20256973005072696E7420B1
:100E700074696D653A20006F6B006F666600AF099C
:100E8000AA09A3099C098E0944454255473A004DD9
:100E9000313133205300416E6574204139204F4673
:100EA000462E00434F4E4649475F4558504F5254D7
:100EB000004D4541545041434B00434F4F4C455228
:100EC0005F54454D504552415455524500434841A9
:100ED0004D4245525F54454D50455241545552453F
:100EE00000424142595354455050494E47004152E7
:100EF0004353004D4F54494F4E5F4D4F44455300AF
:100F0000544845524D414C5F50524F54454354490B
:100F10004F4E00455854454E4445445F4D323000D5
:100F2000435553544F4D5F4649524D574152455FCB
:100F300055504C4F4144004C464E5F575249544522
:100F4000004C4F4E475F46494C454E414D45004190
:100F500055544F5245504F52545F53445F53544180
:100F60005455530053445F5752495445005245501D
:100F7000454154004D554C54495F564F4C554D45D5
:100F8000005344434152440050524F4D50545F531C
:100F90005550504F525400484F53545F41435449A9
:100FA0004F4E5F434F4D4D414E445300454D4552CA
:100FB00047454E43595F50415253455200434153B8
:100FC000455F4C494748545F4252494748544E4553
:100FD000535300544F47474C455F4C49474854537F
:100FE00000534F4654574152455F504F57455200AA
:100FF0004255494C445F50455243454E54004C4580
:1010000056454C494E475F44415441005A5F505247
:101010004F42450052554E4F5554004155544F4C88
:101020004556454C005052494E545F4A4F4200507D
:10103000524F4752455353004155544F5245504F1C
:1010400052545F54454D50004155544F5245504FF6
:1010500052545F504F5300564F4C554D45545249D2
:101060004300454550524F4D0042494E4152595F51
:1010700046494C455F5452414E53464552005345F4
:101080005249414C5F584F4E5F584F4646004649C3
:10109000524D574152455F4E414D453A4D61726C3C
:1010A000696E20322E312E322E3720284D61792064
:1010B000323820323032362030383A33363A303611
:1010C0002920534F555243455F434F44455F555286
:1010D0004C3A6769746875622E636F6D2F4D61724B
:1010E0006C696E4669726D776172652F4D61726CC5
:1010F000696E2050524F544F434F4C5F56455253E8
:10110000494F4E3A312E30204D414348494E455FBC
:10111000545950453A416E65742041392045585420
:1011200052554445525F434F554E543A3120555520
:1011300049443A63656465326132662D3431613207
:101140002D343734382D396231322D6335356336DD
:1011500032663336376666002F2F004D3134352026
:10116000533C696E6465783E206F7574206F66200D
:1011700072616E67652028302D31290A003F4A20B0
:101180006F7574206F662072616E67652028302E3F
:10119000303120746F20302E33290A00205800206F
:1011A000204D61783A2000200020204D696E3A20C1
:1011B00000203B200020204D323131205300536F5E
:1011C000667420656E6473746F707300250A004640
:1011D000523A0020466C6F773A20006469730065CC
:1011E0006E0043290A0061626C656420286D696E97
:1011F0002074656D702000436F6C64206578747294
:10120000756465732061726520004D657368207098
:101210006F696E74206F7574206F662072616E67DF
:10122000650A004D34323120696E636F72726563F6
:101230007420706172616D65746572207573616789
:10124000650A004F726967656E20257320507269C8
:101250006D2E00486F6D652025732046697273748A
:1012600000446573666173652061706C69636164D5
:1012700061004D494E2F4D415820546F6F204661FB
:101280007200546F6F206661722066726F6D204D20
:10129000494E2F4D41580A00454550524F4D204F61
:1012A0004B0A004D383400446F6E65207072696ED1
:1012B00074696E672066696C650A004D3737004DAA
:1012C000333100496E76616C69642065787472759B
:1012D0006465720A0020204D323036205800486F75
:1012E0006D65206F6666736574004361703A002017
:1012F000573A00456E667269616E646F2E2E2E003D
:1013000045312025530020573A00456E66726961C9
:101310006E646F2043616D612E2E2E0043616C65FB
:101320006E74616E646F2043616D612E2E2E0023FA
:10133000646566696E652044454641554C545F00BE
:10134000004245445F004B4420004B4920004B5075
:1013500020002066696E6973686564212050757489
:1013600020746865206C617374204B702C204B696D
:1013700020616E64204B6420636F6E7374616E74C1
:10138000732066726F6D2062656C6F7720696E7472
:101390006F20436F6E66696775726174696F6E2E38
:1013A000680A00504944204175746F74756E650079
:1013B000206661696C6564212074696D656F757460
:1013C0000A00504944204175746F74756E650020A1
:1013D0006661696C6564212054656D706572617425
:1013E00075726520746F6F20686967680A005049DC
:1013F00044204175746F74756E65005049442043F4
:1014000079636C65730025532025692F25690020B9
:101410004B643A2000204B693A2000204B703A2060
:101420000020436C617373696320504944200A00B3
:10143000204E6F206F76657273686F6F740A00209C
:1014400054753A2000204B753A2000206D61783A9F
:101450002000206D696E3A200020643A200020624E
:101460006961733A200043616C656E74616E646FEC
:101470002E2E2E002073746172740A00504944208D
:101480004175746F74756E6500206661696C656482
:10149000212054656D706572617475726520746F7A
:1014A0006F20686967680A00504944204175746F6D
:1014B00074756E6500504944204175746F2D616AE2
:1014C0007573746500206661696C656421204261F2
:1014D00064206865617465722069640A005049443B
:1014E000204175746F74756E65004572723A20758F
:1014F00074663820666F6E74206E6F7420696E6932
:101500007469616C697A65642E004572723A20755F
:1015100074663820666F6E74206E6F7420696E6911
:101520007469616C697A65642E004572723A20753F
:1015300074663820666F6E74206E6F7420696E69F1
:101540007469616C697A65642E0020003A003A0083
:101550002568753A25303268750025303268753A4D
:10156000253032687500253032687527253032689D
:101570007500256875642025303268753A2530324B
:1015800068750043616D6100526563696E746F0038
:1015900045002000250020202020202020002020A1
:1015A000202000657272001FE02010201020101013
:1015B0002010202010201030300840048003001F2D
:1015C000E03FF03FF03FF01FE01FE03FF03FF03F13
:1015D000F00FC0078003003FFFF038007030FC3090
:1015E00020FC102078102030102C00D02E31D02F6D
:1015F0007BD02F7BD02E31D02C00D0203010207803
:101600001020FC1030FC303800703FFFF03FFFF03E
:101610003800703186302387102787902F87D02F8E
:1016200003D02030102078102078102030102F03A5
:10163000D02F87D0278790238710318630380070CD
:101640003FFFF01FFFF81FFFF804104002082002C0
:10165000082004104008208010410010410008209C
:10166000800410400000001FFFF81FFFF8000C0F5F
:1016700000FE07022503BB01FFFE0AFE08FE050867
:101680000806000040F0C888889878100508080609
:101690000000C0F88888888888F8050505060001DC
:1016A0002030F830200508080600002070F82020BF
:1016B0002020E00509090600FF2070A8A8B8888846
:1016C0007020070505070001D86C366CD80509099C
:1016D0000600FFF8A88888888888A8F8050A0A06FE
:1016E00000FE205050505088A8A8887003030306BD
:1016F000000340A040FFFFFFFFFFFFFFFFFFFFFFD2
:10170000FFFFFFFFFFFFFFFFFFFFFF0000000605D9
:10171000FF010707060200808080808000800303AD
:1017200003060105A0A0A005060606000050F8501B
:1017300050F8500509090600FF2070A8A07028A8DD
:101740007020050707060000C8C8102040989805BB
:10175000070706000040A0A040A890680103030608
:1017600002058080800309090601FF204040808037
:10177000804040200309090601FF804040202020CE
:1017800040408005070706000020A8702070A820B0
:101790000505050600012020F820200203030601AC
:1017A000FFC04080050101060003F80202020601A5
:1017B00000C0C00507070600000810102040408048
:1017C000050707060000708898A8C88870030707F7
:1017D00006010040C040404040E005070706000009
:1017E000708808102040F8050707060000F8081068
:1017F0003008887005070706000010305090F81078
:1018000010050707060000F880F008088870050733
:1018100007060000304080F0888870050707060042
:1018200000F8081010202020050707060000708827
:101830008870888870050707060000708888780817
:101840001060020505060100C0C000C0C002060607
:101850000601FFC0C000C04080030505060101204D
:1018600040804020050303060002F800F803050548
:1018700006010180402040800507070600007088AF
:1018800010202000200507070600007088B8A8B8BF
:101890008070050707060000708888F8888888052A
:1018A0000707060000F04848704848F0050707069B
:1018B000000070888080808870050707060000F0AF
:1018C0004848484848F0050707060000F88080F0BF
:1018D0008080F8050707060000F88080F08080808F
:1018E0000507070600007088808098887005070744
:1018F000060000888888F8888888030707060100A2
:10190000E04040404040E005070706000038101066
:10191000101090600507070600008890A0C0A090F6
:1019200088050707060000808080808080F8050712
:101930000706000088D8A888888888050707060059
:10194000008888C8A898888805070706000070885E
:101950008888888870050707060000F08888F0806E
:10196000808005070706000070888888A8906805B1
:101970000707060000F08888F0A090880507070692
:10198000000070888070088870050707060000F85E
:10199000202020202020050707060000888888884E
:1019A00088887005070706000088888888505020BE
:1019B00005070706000088888888A8A8500507073B
:1019C0000600008888502050888805070706000018
:1019D00088885020202020050707060000F80810FE
:1019E000204080F80309090601FFE08080808080A4
:1019F0008080E005070706000080404020101008A6
:101A00000309090601FFE020202020202020E00516
:101A100003030600052050880501010600FEF803B7
:101A20000303060105804020050505060000700837
:101A30007888780507070600008080F0888888F09D
:101A40000505050600007080808870050707060000
:101A500000080878888888780505050600007088E1
:101A6000F08070050707060000304840E040404025
:101A70000507070600FE7088888878087005070744
:101A80000600008080F08888888803070706010028
:101A90004000C0404040E00409090601FE1000304B
:101AA00010101010906005070706000080808890D5
:101AB000E09088030707060100C04040404040E036
:101AC000050505060000D0A8A8A8A805050506007C
:101AD00000B0C888888805050506000070888888D9
:101AE000700507070600FEF0888888F080800507EB
:101AF000070600FE7888888878080805050506002E
:101B000000B0C88080800505050600007880700858
:101B1000F00507070600002020F820202018050502
:101B20000506000088888898680505050600008875
:101B3000888850200505050600008888A8A850055B
:101B4000050506000088502050880507070600FE9E
:101B500088888850204080050505060000F8102080
:101B600040F80309090601FF204040408040404002
:101B7000200109090602FF808080808080808080AB
:101B80000309090601FF8040404020404040800595
:101B9000030306000248A890FFFFFFFFFFFFFFFFBF
:101BA000FFFFFFFFFFFFFFFFFFFFFFFFFFFFFFFF45
:101BB000FFFFFFFFFFFFFFFFFF0000000605FF0123
:101BC00007070602008000808080808005070706E6
:101BD00000FF2070A8A0A8702005070706000030AD
:101BE0004840E04048B0050505060000A850885070
:101BF000A80507070600008850F820F820200107F4
:101C000007060200808080008080800408080601AA
:101C10000070806090906010E0030101060107A051
:101C20000607070600007884B4A4B4847803050589
:101C300006010460A06000E00505050600002850CC
:101C4000A05028050303060001F808080301010657
:101C50000103E00607070600007884B4A4A4847892
:101C6000050101060007F8040404060105609090D0
:101C7000600507070600002020F8202000F8030573
:101C80000506010440A02040E0030505060104C04C
:101C9000204020C0030303060105204080050707FC
:101CA0000600FE88888898E88080050808060000FD
:101CB00078E8E8E868282828020202060203C0C083
:101CC0000302020601FE20C003050506010440C010
:101CD0004040E003050506010540A04000E0050581
:101CE00005060000A0502850A0050A0A0600004082
:101CF000C048506050B0507810050A0A06000040F5
:101D0000C048506050A8081038050A0A060000C0F4
:101D1000204830E050B0507810050707060000203A
:101D2000002020408870050A0A060000402000704C
:101D30008888F8888888050A0A0600001020007044
:101D40008888F8888888050A0A06000020500070F4
:101D50008888F8888888050A0A06000068B000703C
:101D60008888F8888888050909060000500070886E
:101D700088F8888888050A0A0600002050207088A4
:101D800088F888888805070706000078A0A0F0A0DA
:101D9000A0B80509090600FE708880808088701050
:101DA00060050A0A060000402000F88080F080806C
:101DB000F8050A0A060000102000F88080F08080F4
:101DC000F8050A0A060000205000F88080F08080A4
:101DD000F80509090600005000F88080F08080F8BE
:101DE000030A0A060100804000E04040404040E015
:101DF000030A0A060100204000E04040404040E065
:101E0000030A0A06010040A000E04040404040E0D4
:101E1000030909060100A000E04040404040E00501
:101E20000707060000704848E8484870050A0A0697
:101E3000000068B0008888C8A8988888050A0A0643
:101E4000000040200070888888888870050A0A068B
:101E5000000010200070888888888870050A0A06AB
:101E6000000020500070888888888870050A0A065B
:101E7000000068B0007088888888887005090906A5
:101E80000000500070888888888870050505060065
:101E90000188502050880509090600FF087098A89D
:101EA000A8A8C87080050A0A06000040200088889B
:101EB0008888888870050A0A060000102000888833
:101EC0008888888870050A0A0600002050008888E3
:101ED000888888887005090906000050008888886D
:101EE00088888870050A0A0600001020008888503B
:101EF0002020202004070706010080E0909090E059
:101F000080050707060000708890A09088B005083B
:101F10000806000040200070087888780508080648
:101F20000000102000700878887805080806000076
:101F3000205000700878887805080806000068B00E
:101F400000700878887805070706000050007008C0
:101F500078887805080806000020502070087888E6
:101F600078050505060000702870A07805070706AB
:101F700000FE708880887010600508080600004028
:101F800020007088F080700508080600001020000E
:101F90007088F080700508080600002050007088E6
:101FA000F0807005070706000050007088F0807010
:101FB000030808060100804000C0404040E00308DC
:101FC00008060100204000C0404040E00308080629
:101FD000010040A000C0404040E0030707060100A8
:101FE000A000C0404040E005090906000050205014
:101FF00008788888887005080806000068B000B076
:10200000C888888805080806000040200070888875
:102010008870050808060000102000708888887005
:1020200005080806000020500070888888700508A0
:102030000806000068B000708888887005070706E9
:102040000000500070888888700505050600012092
:1020500000F800200505050600007898A8C8F005DE
:102060000808060000402000888888887005080855
:10207000060000102000888888887005080806007F
:1020800000205000888888887005070706000050E7
:10209000008888888870050A0A0600FE10200088DB
:1020A0008888502040800509090600FE8080F0885D
:1020B0008888F080800509090600FE50008888881D
:1020C0005020408053442063617264206F6B0A008B
:1020D0006F70656E526F6F74206661696C65640A1B
:1020E00000766F6C756D652E696E69742066616926
:1020F0006C65640A004E6F20534420636172640A69
:10210000000A4D3234004D3233202573002E0A0070
:102110006F70656E206661696C65642C2046696C21
:10212000653A200046696C652073656C656374656B
:10213000640A002053697A653A200046696C65207C
:102140006F70656E65643A2000454E4420535542D9
:10215000524F5554494E450A002220706F73002299
:1021600020706172656E743A2200535542524F5589
:1021700054494E452043414C4C207461726765744C
:102180003A2200446573626F7264616D69656E74B2
:102190006F206465207375626C6C616D61646100B1
:1021A0004578636565646564206D617820535542A8
:1021B000524F5554494E452064657074683A005733
:1021C000726974696E6720746F2066696C653A2065
:1021D00000667265736800646F696E6700206669E7
:1021E0006C653A20004E6F7720002F6175746F2563
:1021F000632E67006D61726C696E66772E6F726711
:1022000000322E312E322E37001FFFFFFFFFFFFF5F
:10221000600000000001FF400000000000FF80009F
:10222000000000007F83CF00000C303F87FF80005C
:102230000C301F867980000C000F8C30C7838C30E7
:10224000E78C30CFC7CC31F38C30DCECEC33B98C7D
:1022500030D86C6C33198C30D06C0C33198C30D86E
:102260006C0C33198C30DC6C0E3B198C30CF7C0736
:102270009F198C30C77C038F1940000000000002BA
:10228000600000000000061FFFFFFFFFFFF81000C6
:10229000C90210012C014001220170011801B00196
:1022A0000E01F00104015002FA00B002F000300308
:1022B000E600D003DC009004D2007005C800A00640
:1022C000BE000008B400B009AA00D00BA000600E48
:1022D000960060118C000015820020197800C01D46
:1022E0006E00A0226400B0275A00902C50000031EC
:1022F0004600E0343C0010383200903A2800603C40
:102300001E00A03D1400803E0A00203F0000202057
:10231000506C616E6E657242756666657242797464
:1023200065733A20002046726565204D656D6F72B9
:10233000793A200020436F6D70696C65643A204DD6
:10234000617920323820323032360A00204C6173F5
:102350007420557064617465643A20323032362DD1
:1023600030312D3232207C20417574686F723A20F2
:10237000283344776F726B2C2068747470733A0A38
:10238000004D61726C696E20322E312E322E370A6A
:102390000020536F667477617265205265736574AF
:1023A0000A00205761746368646F67205265736523
:1023B000740A002042726F776E206F757420526528
:1023C0007365740A002045787465726E616C2052E2
:1023D000657365740A00506F77657255700A0073F3
:1023E000746172740A004732385859004D313030E8
:1023F00031006F6B006572726F7220777269746959
:102400006E6720746F2066696C650A00446F6E65A4
:1024100020736176696E672066696C652E0A0045D7
:102420006E6473746F7073002553202563202563D9
:1024300020256320256300656E6473746F707320BC
:102440006869743A200000002200250028002B0053
:10245000020202020202020204040404040404044C
:10246000030303030303030301010101010101014C
:10247000010204081020408001020408102040805E
:10248000010204081020408080402010080402014E
:1024900024F404D9201BC40C5C0E9804C4095F0208
:1024A00065077101F405F900FB04B30048048700D7
:1024B000C10369005803550003034500BE023A00FA
:1024C0008402310053022A00290225000402200060
:1024D000E4011C00C8011900AF01170098011400A5
:1024E00084011300710110006101100051010E0000
:1024F00043010D0036010B002B010B0020010B00E6
:10250000150109000C01090003010800FB00080087
:10251000F3000800EB000700E4000600DE00060000
:10252000D8000600D2000600CC000500C700050058
:10253000C2000500BD000400B9000400B50004009D
:10254000B1000400AD000400A9000400A5000300D0
:10255000A20003009F0004009B00030098000300FA
:102560009500020093000300900003008D0002001C
:102570008B00030088000200860002008400030034
:10258000810002007F0002007D0002007B0002004B
:10259000790002007700010076000200740002005A
:1025A00072000100710002006F0002006D00010066
:1025B0006C0002006A00010069000200670001006F
:1025C0006600010065000100640002006200010075
:1025D00061000100600001005F0002005D00010079
:1025E0005C0001005B0001005A000100590001007D
:1025F000580001005700010056000100550001007D
:10260000540001005300000053000100520001007B
:1026100051000100500001004F0001004E00000079
:102620004E0001004D0001004C0001004B00000075
:102630004B0001004A000100490001004800000071
:10264000480001004700010046000000460001006C
:102650004500000045000100440001004300000067
:102660004300010042000000420001004100000060
:1026700041000100400001003F0000003F00010058
:102680003E0000003E0001003D0000003D00010052
:102690003C0000003C0000003C0001003B0000004A
:1026A0003B0001003A0000003A0001003900000040
:1026B0003900010038000000380000003800010037
:1026C000370000003700010036000000360000002F
:1026D0003600010035000000350000003500010023
:1026E000340000003400000034000100330000001A
:1026F000330000003300010032000000320000000F
:102700003200010031000000310000003100010002
:102710003000000030000000300001002F000000F9
:102720002F0000002F0000002F0001002E000000ED
:102730002E0000002E0001002D0000002D000000E2
:102740002D0000002D0001002C0000002C000000D6
:102750002C0000002C0001002B0000002B000000CA
:102760002B0000002B0001002A0000002A000000BE
:102770002A0000002A0001002900000029000000B2
:1027800029000000290000002900010028000000A5
:102790002800000028000000280000002800010098
:1027A000270000002700000027000000270000008D
:1027B000270001002600000026000000260000007F
:1027C0002600000026000100250000002500000072
:1027D0002500000025000000250000002500010064
:1027E0002400000024000000240000002400000059
:1027F000240001002300000023000000230000004B
:10280000230000002300000023000000230001003B
:102810002200000022000000220000002200000030
:102820002200000022000100210000002100000021
:102830002100000021000000210000002100000014
:102840002100010020000000200000002000000006
:1028500020000000200000002000000020000000F8
:10286000200001001F0000001F0000001F000000EA
:102870001F0000001F0000001F0000001F000100DB
:102880001E0000001E0000001E0000001E000000D0
:1028900024F4D43050C38E20C2A24017828B701112
:1028A000127A910D816CD90AA861E108C7586607B0
:1028B000615143061E4B5D05C145A7041A41110431
:1028C000093D9803713931034036DB0265339102CB
:1028D000D4305402802E1D02632CEE01752AC501EE
:1028E000B028A001102781018F2564012B244B0102
:1028F000E0223401AC211F018D200D01801FFC005E
:10290000841EED00971DDF00B81CD200E61BC60038
:10291000201BBC00641AB200B219A8000A19A0005A
:102920006A189900D117910040178B00B5168400E2
:1029300031167E00B31579003A157300C7146F0085
:1029400058146A00EE1366008813630025135E00B6
:10295000C7125B006C12570015125400C1115100D0
:1029600070114F0021114B00D61049008D10470007
:102970004610440002104200C00F4000800F3E008D
:10298000420F3C00060F3B00CB0E3800930E370081
:102990005C0E3500270E3400F30D3200C10D3100FE
:1029A000900D3000600D2E00320D2D00050D2C0015
:1029B000D90C2B00AE0C2900850C29005C0C2700DB
:1029C000350C27000E0C2600E80B2400C40B240055
:1029D000A00B23007D0B23005A0B2100390B210093
:1029E000180B2000F80A1F00D90A1E00BB0A1E009F
:1029F0009D0A1D00800A1D00630A1C00470A1B0077
:102A00002C0A1B00110A1A00F7091A00DD09190027
:102A1000C4091900AB091900920917007B091800B5
:102A2000630917004C091600360916002009160024
:102A30000A091500F5081500E0081400CC08140078
:102A4000B8081400A4081400900813007D081200B0
:102A50006B081300580812004608120034081100D1
:102A6000230811001208110001081100F0071000DE
:102A7000E0071000D0071000C0071000B0070F00DB
:102A8000A107100091070E0083070F0074070F00C5
:102A900065070E0057070E0049070E003B070D00A3
:102AA0002E070E0020070D0013070D0006070D006E
:102AB000F9060C00ED060D00E0060C00D4060C0033
:102AC000C8060C00BC060C00B0060C00A4060B00E7
:102AD00099060C008D060B0082060B0077060B0092
:102AE0006C060B0061060A0057060B004C060A0034
:102AF00042060A0038060A002E060A0024060A00CA
:102B00001A060A001006090007060A00FD0509005A
:102B1000F4050900EB050900E2050900D9050900E3
:102B2000D0050900C7050900BE050900B505080064
:102B3000AD050800A50509009C05080094050800DE
:102B40008C050800840508007C0508007405080051
:102B50006C050700650508005D05070056050800BF
:102B60004E05070047050700400508003805070027
:102B7000310507002A050700230507001C0506008C
:102B8000160507000F0507000805060002050700E7
:102B9000FB040600F5040700EE040600E804060046
:102BA000E2040700DB040600D5040600CF0406009B
:102BB000C9040600C3040600BD040600B7040600ED
:102BC000B1040500AC040600A6040600A00405003C
:102BD0009B04060095040500900406008A04050085
:102BE00085040500800406007A04050075040500CC
:102BF000700405006B04050066040500610405000F
:102C00005C04050057040500520405004D0405004E
:102C100048040500430405003E0404003A0405008E
:102C200035040500300404002C04050027040400CA
:102C3000230405001E0404001A0404001604050001
:102C4000110404000D040400090405000404040038
:102C500000040400FC030400F8030400F40304006F
:102C6000F0030400EC030400E8030400E4030400A0
:102C7000E0030400DC030400D8030400D4030400D0
:102C8000D0030400CC030400C8030300C503030001
:102C90005D2E00006E23000013180000AF0E000030
:102CA0003D08000063040000450200002701000009
:102CB0004D6F76657220246D6D00302E30323500F8
:102CC0004D6F76657220302E316D6D004D6F7665DB
:102CD0007220316D6D004D6F7665722031306D6DF3
:102CE000004D6F76657220656A6573004578747271
:102CF00075736F72202A004D6F7665722040002038
:102D000000496D7072696D2E20646573646520538F
:102D1000442F46440020002000200020004972205B
:102D200061206F726967656E2046616C6C61646FCB
:102D300000FFFFFF43616E6E6F74206F70656E2041
:102D40007375626469722000220A00556E6B6E6FA3
:102D5000776E20636F6D6D616E643A2022002045AE
:102D600000205A0020590020204D393220580053AD
:102D7000746570732070657220756E697400627579
:102D800073793A2070617573656420666F7220698B
:102D90006E7075740A00627573793A20706175738C
:102DA000656420666F7220757365720A00627573C0
:102DB000793A2070726F63657373696E670A0053A6
:102DC000442F464420696E7365727461646F00001D
:102DD0000000010200090A000000000403080700C7
:102DE000000000000000000000000000000000746F
:102DF0006F6F206D75636820696E616374697665B5
:102E00002074696D65202D2063757272656E742063
:102E1000636F6D6D616E643A20002121204B494C37
:102E20004C2063617573656420627920004D3131F7
:102E3000322053687574646F776E00444554454E74
:102E4000494441005072696E7465722073746F70EA
:102E50007065642064756520746F206572726F728E
:102E6000732E2046697820746865206572726F72CF
:102E700020616E6420757365204D39393920746F77
:102E800020726573746172742E202854656D7065AC
:102E90007261747572652069732072657365742E32
:102EA00020536574206974206166746572207265B0
:102EB0007374617274696E67290A004E6F204368EB
:102EC00065636B73756D2077697468206C696E65D6
:102ED000206E756D6265722C204C617374204C6994
:102EE0006E653A20004D3239004E6F2043686563AD
:102EF0006B73756D2077697468206C696E65206EE0
:102F0000756D6265722C204C617374204C696E651E
:102F10003A2000636865636B73756D206D69736D2E
:102F2000617463682C204C617374204C696E653A3F
:102F300020004C696E65204E756D62657220697364
:102F4000206E6F74204C617374204C696E65204E46
:102F5000756D6265722B312C204C617374204C6945
:102F60006E653A20004D3131300053657269616CF5
:102F700020737461747573206D69736D6174636817
:102F80000A0053442072656164206572726F720A90
:102F900000DB0FC93F45BCDA3F8FB30240FCF0278E
:102FA0004056946140FE4B9B4084A5D840E02318D6
:102FB00041346A5641E859974164DBD5416E271781
:102FC00042B4B75542CE1A9742C8AED542B5885AD8
:102FD00043D40684BFA65FA7BF7443E0BF10B11AF5
:102FE000C01C2C58C0E8F697C0B849D6C04E4E1742
:102FF000C124D355C1802497C1A0B5D5C1121A17D9
:10300000C244AE55C2781797C26CACD5C267885A15
:10301000C320746F6F206C6F6E6720657874727553
:1030200073696F6E2070726576656E7465640A00F0
:1030300020636F6C6420657874727573696F6E209D
:1030400070726576656E7465640A006F6B0A005273
:103050006573656E643A200020453A00205A3A00B4
:1030600020593A00583A004572726F72207772699F
:1030700074696E6720746F20454550524F4D210A88
:1030800000416E6574204139204C697374610049B8
:103090006D7072696D69656E646F2E2E2E00496DBC
:1030A0007072657369C3B36E20506175736164613A
:1030B0000000CFCD23D511241FBECFEFD0E4DEBF5B
:1030C000CDBF84B78093491314BE0FB6F894A8956A
:1030D00080916000886180936000109260000FBE54
:1030E00012E0A0E0B1E0E2E4F4EC01E00BBF02C0CA
:1030F00007900D92A436B107D9F723E1A4E6B2E018
:1031000001C01D92A934B207E1F718E1CAE5D8E180
:1031100004C02197FE010E9409DEC935D107C9F715
:103120000E944ECF0C9415E20C940000A0E1B0E098
:10313000ECE9F8E10C9432DE8C01DC01ED91FC91BC
:103140000280F381E02DBE016F5F7F4F09958823D8
:1031500009F45DC08981807C91F56F81637070E0B6
:10316000762F6627770F770F8885B4E08B9FC00195
:103170001124682B792B8985829586958695837095
:10318000682B6F5F7F4F90E080E02A852370220FCD
:103190003B8537FB332730F9232B3E813F70230FCC
:1031A0003327331F2750310904C0660F771F881F4C
:1031B000991F2A95D2F76096E4E00C944EDE803495
:1031C00019F568856695669570E090E080E0CB0122
:1031D000772766272A85622B098510E0102F0027A4
:1031E000012E000C220B330B602B712B822B932BA7
:1031F0006F5F7F4F8F4F9F4F4AE0660F771F881F8B
:10320000991F4A95D1F7D7CF8BE0F801848360E00E
:1032100070E0CB01D0CF0895FC01828108954F92D8
:103220005F926F927F928F929F92AF92BF92CF9256
:10323000DF92EF92FF92CF93DF93CDB7DEB72A975D
:103240000FB6F894DEBF0FBECDBFDC010D90BC9170
:10325000A02DBA87A98718966D917C91072E000C36
:10326000880B990B0E94A3D96B017C0120E030E010
:10327000A9010E949DD98823E1F0A985BA851496F9
:103280008D919D910D90BC91A02D89839A83AB83E4
:10329000BC839C01AD01C701B6010E9467DE4B01F2
:1032A0005C0120E030E040E251EC0E949DD987FFB4
:1032B00008C081E0E985FA858387C12CD12C76018D
:1032C000E2C020E030E040E251E4C501B4010E94D8
:1032D000CBDF181664F481E0A985BA851B968C9320
:1032E000C12CD12C8FE7E82E83E4F82ECCC0E985E1
:1032F000FA858385882349F01386148615861686F9
:103300001786148E158E168E178EA985BA859496FB
:103310008D919D910D90BC91A02D8D839E83AF8347
:10332000B887E985FA852485358546855785C501A1
:10333000B4010E9468DE6B017C0120E030E0A9014D
:103340000E949DD987FDB6C02D813E814F81588551
:1033500060E070E08FE793E40E94DFDE2B013C0128
:10336000A70196010E949DD987FF02C073016201E7
:10337000A985BA851C96CD92DD92ED92FC921F979D
:1033800090962D913D914D915C919397C501B4011B
:103390000E9402DA4B015C01E985FA85848A958AEC
:1033A000A68AB78AA70196016D817E818F81988553
:1033B0000E9402DA2B013C01A985BA8558964D92EC
:1033C0005D926D927C925B975C96CD90DD90ED90D6
:1033D000FC905F9729813A814B815C8150966D9179
:1033E0007D918D919C9153970E9467DEE985FA85C6
:1033F00020A531A542A553A50E9402DAA701960196
:103400000E9467DE20ED3CEC4CE45DE30E9402DAB2
:10341000A70196010E9468DE6B017C01A985BA852F
:103420005C96CD92DD92ED92FC925F9789819A81B4
:10343000AB81BC81E985FA85808B918BA28BB38BA4
:10344000A3019201C501B4010E9468DEA7019601A3
:103450000E9468DE20E030E0A9010E9468DE6B0176
:103460007C0120E030E0A9010E949DD987FD25CF95
:1034700020E030E04FE753E4C701B6010E94CBDF04
:1034800018160CF42DCFC701B6012A960FB6F89482
:10349000DEBF0FBECDBFDF91CF91FF90EF90DF90E9
:1034A000CF90BF90AF909F908F907F906F905F90E4
:1034B0004F900895C12CD12C76015ACFCF93DF9332
:1034C000C0913910D0913A1081E0CE31D105E4F0AD
:1034D00020E030E040E05FE36091351070913610FD
:1034E00080913710909138100E9468DE0E9447DF6B
:1034F0006C1B7D0B77FF03C071956195710981E0AD
:10350000633071050CF080E0DF91CF910895FC01EC
:1035100090E1A4E8B3E001900D929A95E1F7089547
:10352000CF92DF92EF92FF928091A602882309F456
:1035300057C0C090A202D090A302E090A402F090E5
:10354000A50220E030E0A901C701B6010E949DD983
:10355000882309F445C020E030E040E05FE3C70184
:10356000B6010E9402DA9B01AC010E9402DA2BED47
:103570003FE049E450E40E9402DA9B01AC0160E0C4
:1035800070E080E89FE30E94DFDE6B017C01C09267
:103590009002D0929102E0929202F0929302609196
:1035A0000A0170910B01072E000C880B990B0E94E9
:1035B000A3D92AE037ED43E25CE30E9402DAA701D7
:1035C00096010E9402DA6093650170936601809310
:1035D000670190936801FF90EF90DF90CF9008957E
:1035E000C12CD12C80E8E82E8FE3F82ED0CFA4E1B7
:1035F000B0E0EDEFFAE10C9424DEDC01CD90DD903B
:10360000ED90FC90139714962D913D914D915C9106
:10361000179729873A874B875C8720E030E040E2A4
:1036200051E4C701B6010E9467DE23EB3DEB4BE698
:103630005CE30E9402DA0E9447DF67FD0EC16D83E2
:10364000161614F4E1E0ED8320E030E040E251E4AE
:1036500069857A858B859C850E9467DE23EB3DEB2F
:103660004BE65CE30E9402DA0E9447DF67FDF7C089
:103670006983161614F421E029833D81632F70E0DD
:10368000FB01EE0FFF1FEE0FFF1FED52FF4E80807C
:103690009180A280B3808B010F5F1F4F5981452F0E
:1036A00050E05C8B4B8BFA01EE0FFF1FEE0FFF1FFC
:1036B000E953FF4E80819181A281B38189839A83EE
:1036C000AB83BC831A019FEF291A390ACB01880FFB
:1036D000991FDC01A60FB71FBE87AD87FD01E40F60
:1036E000F51FEE0FFF1FEE0FFF1FE955FD4F208165
:1036F0003181428153812D833E834F835887F80166
:10370000EE0FFF1FEE0FFF1FED52FF4EA5019401BC
:1037100060817181828193810E9467DE6F87788BDF
:10372000898B9A8BA5019401C701B6010E9467DEBF
:103730002B013C01C801880F991F080F191F4B89E5
:103740005C89400F511F440F551F440F551F4955A9
:103750005D4F5C8B4B8B2D813E814F815885AB89B2
:10376000BC896D917D918D919C910E9467DE2F8522
:10377000388949895A890E94DFDEA30192010E949B
:1037800002DA2D813E814F8158850E9468DE6B01EF
:103790007C01ED85FE85E20DF31DEE0FFF1FEE0FA0
:1037A000FF1FE955FD4F80809180A280B380020DFC
:1037B000131DF801EE0FFF1FEE0FFF1FE955FD4F20
:1037C000A501940160817181828193810E9467DEED
:1037D0002F85388949895A890E94DFDEA301920129
:1037E0000E9402DAA50194010E9468DEA7019601F9
:1037F0000E9467DE4B015C01F101EE0FFF1FEE0F2F
:10380000FF1FE953FF4E29813A814B815C81608122
:103810007181828193810E9467DE9B01AC01C501A9
:10382000B4010E94DFDE4B015C0129813A814B81AA
:103830005C8169857A858B859C850E9467DE9B010A
:10384000AC01C501B4010E9402DAA70196010E94F1
:1038500068DE6496E2E10C9440DE1D82F5CE1982AA
:103860000CCF90E2843609F491E390936B02282FF9
:1038700030E08A30D8F0EAE0F0E0C901BF010E94F0
:10388000F6DDCB01BF010E94F6DD805D80936C0206
:10389000C9016AE070E00E94F6DD805D80936D02F0
:1038A00085E280936E028BE692E0089580E2EECF8F
:1038B000FC0184910895FC018081089560910A01C2
:1038C00070910B01072E000C880B990B0E94A3D955
:1038D0002AE037ED43E25CE30E9402DA2091900295
:1038E0003091910240919202509193020E9402DA2B
:1038F00060936501709366018093670190936801FE
:103900000895CF93DF93EC01642F70E090E080E0A6
:103910000E94A3D929EC38EC48EC5EE30E94DFDE7C
:1039200020E030E040E05FE30E9468DE0E944CDF70
:103930006883DF91CF91089570E090E080E00E946D
:10394000A3D929EC38EC48EC5EE30E94DFDE20E0EE
:1039500030E040E05FE30E9468DE0E944CDF24E636
:10396000629FC001112481589F4F6FEF70E00E9449
:10397000F6DD862F76CF80917605811104C0809187
:1039800041058093B00508958091ED118823F1F0F1
:103990002FEF3FEF309349012093480181508093EE
:1039A000ED11E8EDFFE0882351F08150990B2BE1F8
:1039B000289FF001299FF00D1124E152FF4E8BE169
:1039C000ADEBBFE001900D928A95E1F72091ED11EA
:1039D000211105C08091F71180648093F71181E077
:1039E00090E0A0E0B0E0211103C080E090E0DC01B5
:1039F00080936C0590936D05A0936E05B0936F0551
:103A00001092670581E08093690583E080935501FA
:103A1000089584EA93E090933F0580933E050895CE
:103A2000CF93DF93EC01CB01BA010E94A3D9688345
:103A300079838A839B83DF91CF910895CF93DF931E
:103A4000EC01CB01BA010E94A3D920E030E048ECA0
:103A500052E40E94DFDE2FE632E143E85AE30E949F
:103A600068DE688379838A839B83DF91CF91089591
:103A7000CF93DF93EC01CB01BA010E94A3D920E0E0
:103A800030E048EC52E40E94DFDE2FE632E143E80A
:103A90005AE30E9468DE688379838A839B83DF917F
:103AA000CF910895FC01518340830895CF93DF9314
:103AB000EC01CB01BA010E94A3D920E030E04AE733
:103AC00054E40E94DFDE27E137EB41ED58E30E942A
:103AD00068DE688379838A839B83DF91CF91089521
:103AE0004F925F926F927F92AF92BF92CF92DF928E
:103AF000EF92FF920F931F93CF93DF9300D000D0EC
:103B0000CDB7DEB78C0149835A836B837C8359011F
:103B1000C12CD12C7601412C82E0582E612C712CC5
:103B200049815A816B817C819E012F5F3F4FC80183
:103B30000E9420B2882319F1F8018585A301920122
:103B400004C0220F331F441F551F8A95D2F7DA0194
:103B5000C901C80ED91EEA1EFB1E49815A816B811C
:103B60007C8187898031F1F481E0483F5F4F6105B6
:103B70007105B0F2F501C082D182E282F3820F902A
:103B80000F900F900F90DF91CF911F910F91FF90A9
:103B9000EF90DF90CF90BF90AF907F906F905F904D
:103BA0004F90089581E0483F5F4F6F4F7F4008F48A
:103BB000B7CFE0CFCF93DF93C0913910D0913A10B7
:103BC000209729F16091351070913610809137104F
:103BD000909138100E9447DF6E5F7F4F24976C17DB
:103BE0007D07ACF47093AF036093AE030E94A5AC65
:103BF000605C73468F4F9F4F6093B0037093B10327
:103C00008093B2039093B303DF91CF910895109204
:103C1000B0031092B1031092B2031092B303F4CF29
:103C2000C9CFCF93DF93C0913910D0913A1020972C
:103C300029F1609135107091361080913710909174
:103C400038100E9447DF6E5F7F4F24976C177D0707
:103C5000ACF47093AF036093AE030E94A5AC605CBC
:103C600073468F4F9F4F6093B0037093B10380935F
:103C7000B2039093B303DF91CF9108951092B003F4
:103C80001092B1031092B2031092B303F4CFCF930A
:103C9000DF93EC018D810E94D68A60E08B810E94C7
:103CA000C0ABDF91CF910895CF92DF92EF92FF9258
:103CB0000F931F93CF938C01C62F69017A01E7DF21
:103CC0000E94B1AC8C2F80640E94CA8A8F2D0E9402
:103CD000CA8A8E2D0E94CA8A8D2D0E94CA8A8C2D76
:103CE0000E94CA8A87E8C11101C085E90E94CA8A78
:103CF000CC3011F40E94CF8AC0E00E94CF8AF80134
:103D0000868387FF04C0CF3F11F0CF5FF6CFCF91FE
:103D10001F910F91FF90EF90DF90CF90089561E099
:103D2000FC0183810E94C0AB8FEF0C94CA8A0F9371
:103D30001F93CF938C01ABDF0E94B1ACC82F8111D0
:103D40000AC082E1F8018483C801E9DF8C2FCF919A
:103D50001F910F9108958DEF0E94CA8A0E94B1AC05
:103D6000C82FF2CFB0E0A0E0E8EBFEE10C942ADE31
:103D7000EC016A017B014801590120E030E0A90112
:103D800067E392DFA501980167E1CE018DDF811124
:103D90001DC08F81833039F089E0CC0CDD1CEE1C16
:103DA000FF1C8A95D1F7A701960169E1CE017CDF5E
:103DB00011E0882319F010E087E08C83CE01AFDF9B
:103DC000812FCDB7DEB7ECE00C9446DE89E08C8322
:103DD00010E0F4CFCF93DF93EC016EBDFA01CA017E
:103DE0009E5F0DB407FEFDCF20812EBD0DB407FEF2
:103DF000FDCF21812EBD3296E817F90791F70DB45A
:103E000007FEFDCF8FEF0E94CA8A8FEF0E94CA8AF9
:103E10000E94CF8A8E838F71853041F083E18C833D
:103E2000CE017DDF80E0DF91CF91089581E0FBCF6F
:103E3000EF92FF921F93CF93DF93EC017B0127DF7B
:103E40000E94B1AC182F81110BC085E18C83CE018B
:103E500066DF812FDF91CF911F91FF90EF90089542
:103E6000A7016CEFCE01B6DF182FF1CF0F931F9390
:103E7000CF93DF93EC0189018F81833039F089E0A2
:103E8000440F551F661F771F8A95D1F79A01AB0122
:103E900068E1CE0109DF882321F086E08C8310E001
:103EA00007C0A8016EEFCE0195DF811109C011E0B6
:103EB000CE0135DF812FDF91CF911F910F910895B2
:103EC0000E94B1AC182F811103C087E18C83F0CF21
:103ED00020E030E0A9016DE0CE01E6DE811104C0F2
:103EE0000E94CF8A882319F386E1D8CF1F93CF93FE
:103EF000DF93EC01CCDE20E030E0A9016CE0CE01E4
:103F0000D3DE11E0882319F010E083E08C83CE012A
:103F100006DF812FDF91CF911F9108951F93CF93DB
:103F2000DF93EC018F81833039F089E0440F551F16
:103F3000661F771F8A95D1F79A01AB0162E1CE0126
:103F4000B3DE11E0882319F010E085E08C83CE0108
:103F5000E6DE812FDF91CF911F9108958F929F927E
:103F6000AF92BF92EF92FF920F931F93CF93DF9385
:103F70008C01EB017A010E94A5AC4B015C012CE2A3
:103F8000820E21E0921EA11CB11C0E94CF8AF80172
:103F900086838F3F69F40E94A5AC681979098A0964
:103FA0009B0997FDF2CF81E1F8018483C0E021C035
:103FB0008E3F69F5F1E0EF1AF1088FEF8EBDFE013B
:103FC0002FEF0DB407FEFDCF8EB581932EBDCF012F
:103FD0008C1B9D0B8E159F05A0F30DB407FEFDCF26
:103FE0008EB5CE0DDF1D88830E94CF8A0E94CF8AB6
:103FF000C1E0C80194DE8C2FDF91CF911F910F910A
:10400000FF90EF90BF90AF909F908F9008958FE0BA
:10401000CBCF0F931F93CF93DF93EC018B0137DE50
:1040200040E052E0B801CE0199DFDF91CF911F91BE
:104030000F9108950F931F93CF93DF93EC018901A4
:104040008F81833039F089E0440F551F661F771F39
:104050008A95D1F79A01AB0161E1CE0125DE882373
:1040600051F084E08C83CE015ADE80E0DF91CF9165
:104070001F910F91089540E052E0B801CE016EDF2C
:10408000F5CFB0E0A0E0E7E4F0E20C942ADEEC012A
:10409000162F1F821C824B830E94A5AC6B017C01F2
:1040A00020EDC20E27E0D21EE11CF11CA89561E0B4
:1040B0008B810E94C0AB8B8190E0FC01E059FB4DED
:1040C0002491805B9B4DFC018491882399F090E0C2
:1040D000880F991FFC01EC58F64FA591B491FC0193
:1040E000EA5BFB4D859194918FB7F894EC912E2B60
:1040F0002C938FBF249A279A2698259A81E00E94B4
:10410000D68A85E08D830E94D68A0AE08FEF0E94CE
:10411000CA8A0150D9F7A89520E030E0A90160E0F3
:10412000CE01C2DD8E83813079F00E94A5AC6C197E
:104130007D098E099F0997FDEFCF81E08C83CE0129
:10414000EEDD1A8280E065C0A8952AEA31E040E001
:1041500050E068E0CE01A8DD853031F581E08F8345
:10416000A8958F81812C912C5401823029F4812CC7
:10417000912CA12C80E4B82E20E030E0A90167E367
:10418000CE0192DDA501940169E2CE018DDD8E8321
:104190008823F1F00E94A5AC6C197D098E099F0956
:1041A00097FDEACF8AE0CACF04E00E94CF8A8E83CF
:1041B0000150D9F78A3A11F482E0D1CF0E94A5AC20
:1041C0006C197D098E099F0997FDBFCF82E0B6CF9C
:1041D0008F818230B9F420E030E0A9016AE3CE019A
:1041E00063DD882311F088E0A9CF0E94CF8A807C0C
:1041F000803C11F483E08F830E94CF8A0E94CF8A93
:104200000E94CF8ACE018BDD81E08A83173030F4A3
:104210001D83CDB7DEB7ECE00C9446DE88E18C83DD
:1042200091CF0F931F93CF93DF93EC018B0120E08D
:1042300030E0A90169E038DD882351F080E18C830A
:10424000CE016DDD80E0DF91CF911F910F91089538
:1042500040E150E0B801CE0181DEF5CF4091370357
:1042600021E0422764E070E00C941AA740913703E4
:1042700021E0422761E070E00C941AA740913703D7
:1042800021E042276CE070E00C941AA740913703BC
:1042900021E0422761E070E00C941AA740913703B7
:1042A00021E0422768E070E00C941AA740913703A0
:1042B00021E042276CE070E00C941AA741E061E035
:1042C00070E00C941AA741E062E070E00C941AA729
:1042D0004091370321E042270C941AA764E070E074
:1042E0000C944FAC62E070E00C944FAC61E070E075
:1042F0000C944FAC61E070E00C944FAC6CE070E05B
:104300000C944FACCF93C82FCB010E94BC7E85EE9E
:1043100095E00E94BC7E86ED95E0CC2311F08BEDFC
:1043200095E00E94FB89CF9108959091A10281E0D0
:1043300089270C94207761E081E495E00C9439772B
:10434000B0E0A0E0E6EAF1E20C9434DE20E24F8136
:1043500058856E818D810E947BA9E2E00C9450DE2D
:10436000609141058FEF0C94D0CB80914105682F6F
:104370000C94D0CB6FEF809141050C94D0CB61E2CF
:1043800073E582E00C941ACC63E273E581E00C944F
:104390001ACC65E273E580E00C941ACC62E271E518
:1043A00083E00C941ACC109267050C948FB0809126
:1043B0005501882341F0609116037091170341E085
:1043C00081E00C941BA90895CF938091340FC1E034
:1043D0008823C9F08091350F9091360F40912C0FB2
:1043E00050912D0F60912E0F70912F0FDC01ED91E8
:1043F000FC910288F389E02D2CE23DE00995C82F5D
:10440000811104C0C0E08C2FCF9108954091300FEE
:104410005091310F6091320F7091330F411551055A
:1044200061057105B9F08091350F9091360FDC016F
:10443000ED91FC910288F389E02D2CE23DE0099595
:10444000882301F31092300F1092310F1092320F27
:104450001092330F1092340FD6CFCF92DF92EF929B
:10446000FF92CF936B017C01C42F80912C0F909110
:104470002D0FA0912E0FB0912F0F8C159D05AE051D
:10448000BF0519F1A1DF811107C080E0CF91FF9036
:10449000EF90DF90CF9008958091350F9091360F77
:1044A000DC01ED91FC910088F189E02D2CE23DE0EA
:1044B000B701A6010995882341F3C0922C0FD09231
:1044C0002D0FE0922E0FF0922F0F81E0CC23F1F20E
:1044D0008093340FDBCFB0E0A0E0E1E7F2E20C9490
:1044E0002ADEEC018B81811106C080E0CDB7DEB7FA
:1044F000ECE00C9446DE09891A892B893C89041763
:1045000015072607370788F34A015B01823031F42B
:1045100088869986AA86BB8681E0E8CF81149104BB
:10452000A104B10449F4188619861A861B861C82D8
:104530001D821E821F82F0CF088519852A853B8542
:10454000E98DFA8D858590E00996B901A801415061
:10455000510961097109082E04C076956795579530
:1045600047950A94D2F775016401E1E0CE1AD108AB
:10457000E108F10804C0F694E794D794C7948A95AB
:10458000D2F7C416D506E606F70620F0012B022B5B
:10459000032B11F58D899E89AF89B88D8C839D83FE
:1045A000AE83BF838E010C5F1F4FC114D104E104A1
:1045B000F10409F4ADCF4C815D816E817F8198015A
:1045C000898D9A8D0E9420B291E0C91AD108E10824
:1045D000F1088111EACF89CFC41AD50AE60AF70A91
:1045E000E1CFB0E0A0E0E7EFF2E20C9424DEEC01D2
:1045F0004B018A018B81811107C08FEF9FEFCDB7EF
:10460000DEB7E2E10C9440DE898180FFF6CF898934
:104610009A89AB89BC89488559856A857B85841BC5
:10462000950BA60BB70BA80170E060E08417950707
:10463000A607B70708F48C0168011E0124E0220ECA
:10464000311CC114D10409F4A9C0488559856A8573
:104650007B855A0181E0B822898D9A8D2A013B0120
:1046600039E076946794579447943A95D1F72B8123
:10467000FC01223081F5628D738D848D958D640DE2
:10468000751D861D971DE12C22E0F22EEA18FB080D
:10469000CE14DF0408F47601E114E2E0FE0671F4C2
:1046A00040902C0F50902D0F60902E0F70902F0F78
:1046B000641575058605970509F04DC040E0CDDE0F
:1046C000882309F49ACFB501645D724FA701C40134
:1046D0000E94B8E152C0F480FA94F420A114B1040D
:1046E00071F4F1100CC0452B462B472B51F58D89E9
:1046F0009E89AF89B88D8C839D83AE83BF83E98DFE
:10470000FA8D4C805D806E807F8022E0421A5108D5
:1047100061087108858504C0440C551C661C771C13
:104720008A95D2F786859785A089B189480E591E4A
:104730006A1E7B1EC301B2016F0D711D811D911D8B
:10474000A2CF4C815D816E817F8191010E9420B258
:104750008111D5CF52CFA091350FB091360FED9189
:10476000FC9111970088F189E02D9401AB01BC0107
:10477000CD010995882309F440CF8E0C9F1C8885B4
:104780009985AA85BB858E0D9F1DA11DB11D8887AA
:104790009987AA87BB87CE18DF0853CFC8012FCFD0
:1047A0000F931F93CF93DF93FC012381222331F0DA
:1047B00080E0DF91CF911F910F9108958B01EC0163
:1047C000FB018789803139F582E08B831D8A1E8A3F
:1047D0001F8A188E808D918DB0E0A0E025E0880FB3
:1047E000991FAA1FBB1F2A95D1F7898B9A8BAB8B78
:1047F000BC8B1A8F098F81E08983188619861A86E7
:104800001B861C821D821E821F82188A1C861D86A2
:104810001E861F86CECF803259F683E08B83428D71
:10482000538D648D758D4D8B5E8B6F8B788F9E0154
:104830002F5E3F4FC80154D98111DBCFB9CFCF9341
:10484000DF93EC01462F41706C857D858E859F85B9
:1048500004DE882351F0888920E2829FC001112460
:10486000845D924FDF91CF91089590E080E0FACF80
:10487000CF93DF93EC018B81882341F1898187FFFE
:1048800021C061E0CE01DBDFFC01892BF9F08081E2
:10489000853EE1F08B81823040F489899A89AB8929
:1048A000BC89848F958FA68FB78F8D899E89938FB2
:1048B000828F8D899E89AF89B88DB58BA48B8981B4
:1048C0008F77898381DDDF91CF91089581E088839F
:1048D00080E0F9CFCF93DF93EC01CADF1B82DF9139
:1048E000CF910895CF93DF93EB01FC012381211138
:1048F00004C080E0DF91CF9108952250223028F447
:104900008FE28883198281E0F5CF60E098DF00971D
:1049100081F3DC0160E080E09EE22D91203299F08D
:10492000883031F49E01260F311DF90190836F5FAD
:104930009E01260F311DAD0141505109FA01408100
:10494000F90140836F5F8F5F8B3039F7FE01E60F0F
:10495000F11D1082D8CFACE0B0E0E1EBF4E20C94B2
:1049600025DE5C01DC0159968D909C90F4018185D7
:104970009285A385B4859C01AD012F5F3F4F4F4FBA
:104980005F4F29873A874B875C87D50114964D90F6
:104990005D906D907C9017974114510461047104EF
:1049A00009F459C0BFEF4B1A5B0A6B0A7B0A312C22
:1049B000730162011D821E821F821886F4018185A7
:1049C0009285A385B4852D813E814F815885281716
:1049D00039074A075B0708F056C089859A85AB8579
:1049E000BC858C159D05AE05BF0550F482E0C82E30
:1049F000D12CE12CF12C92E0492E512C612C712C00
:104A00009E012F5F3F4FB701A601C4010E9420B253
:104A10008823C9F189819A81AB81BC81892B8A2B3A
:104A20008B2B01F1260137019FEF491A590A690AB8
:104A3000790A2D813E814F8158852F5F3F4F4F4F1F
:104A40005F4F2D833E834F8358873FEFC31AD30AAE
:104A5000E30AF30AB3CF408051806280738033242D
:104A60003394A6CFC414D504E604F70411F70FEF6E
:104A70001FEF2FEF3FE0B701A601C4010E94A5B1CF
:104A8000782E811106C0712C872D2C96E1E10C94B3
:104A900041DEF501448155816681778141155105DB
:104AA0006105710539F097018601C4010E94A5B125
:104AB000882349F3D5011496CD92DD92ED92FC92B4
:104AC0001797332051F0D701C6010196A11DB11DE2
:104AD000F40180839183A283B383F501858996894C
:104AE000A789B08D892B8A2B8B2B71F6C58AD68A24
:104AF000E78AF08E818180688183C6CF40E050E0F4
:104B0000BA01E9CCFC0123812111E4CE0895A2E48D
:104B1000B0E0EDE8F5E20C9424DE7C015B016A0173
:104B2000322E19821C821C8E1F8E6115710511F4A4
:104B300010E0A2C1DC0113968C918111F9CFFA012A
:104B400080818F3209F044C0DB0113968C9113975A
:104B500082508230D8F159966D917C91CE014C965D
:104B60001FDE882329F38E01045E1F4FC6016C01EE
:104B70000196F60120812F32D1F39E012F5F3F4F26
:104B80004901390130E2232E240122962FAE2297CB
:104B900021962FAE21972FAE2EAE2DAE2CAE2BAE82
:104BA0002AAE29AE28AE2FAA960190E047E0D9019F
:104BB0008D91882381F18F3271F18E3259F44A3010
:104BC00009F4B6CF98E04AE09D01F1CF8B01CECF3A
:104BD0008B01D3CFEEE7F9E02491222321F0319627
:104BE0008213FACFA5CF491708F4A2CF813208F477
:104BF0009FCF8F3709F49CCF3FE9380F3A3108F443
:104C000020EEE7E3F0E0EC0FFD1FE90FF11D820F4E
:104C100080839F5FD9CF8FA9803209F489CF690142
:104C2000D9018C912F5F3F4F8F32C9F3882371F0E8
:104C30000A151B0511F0C8014DDEC2016814790484
:104C400011F4CE014C9684014C019FCFF801818D67
:104C5000928DD7015A969C938E935997C8014EDF37
:104C6000C12CF80180859185A285B385418952893F
:104C70006389748984179507A607B70708F052C09F
:104C800025E0B695A795979587952A95D1F7F82FA2
:104C9000FF70DF2ED80113968C91823008F448CF34
:104CA00041E050E0BE016E5B7F4FC8019ADC019786
:104CB00009F03ECFF80180859185A285B3854F9696
:104CC000A11DB11D80879187A287B387F0E2DF9E87
:104CD000B0011124645D724F6115710509F428CF8C
:104CE000DB018C91882341F0853E09F04BC0CC203C
:104CF00029F0CC24C394B5CFC1100EC080912C0FE5
:104D000090912D0FA0912E0FB0912F0FF701848756
:104D10009587A687B787D08ADB018C918111E9CF6F
:104D2000CC24C394832D8274823409F001CFCC202B
:104D300009F4AEC0F701D08861E0C70180DD0097BB
:104D400009F4F6CE20E2DC011D922A95E9F72BE06A
:104D5000FE01F796DC0101900D922A95E1F721E220
:104D600038E2FC01318B208B40E058E057874687C2
:104D7000338B228B318F208F578B468B25DB811114
:104D80000AC0D6CE4BE050E0CE01C7960E94ABE100
:104D9000892B09F066CF2D2D30E0F901B5E0EE0F3B
:104DA000FF1FBA95E1F7DF01A45DB24F1B968C910E
:104DB000817121F0832D827109F007C1D7015996C5
:104DC0008D919C915A9740912C0F50912D0F60918D
:104DD0002E0F70912F0F1C964D935D936D937C93C6
:104DE0001F975096DC925097E45DF24F8488958827
:104DF000B12CA12C54019924882455968D929D9212
:104E0000AD92BC925897428D538D70E060E0482976
:104E100059296A297B2955964D935D936D937C930F
:104E20005897A5E0220F331FAA95E1F7D901A45D99
:104E3000B24F1B962C91287109F0B9C0848D958DC5
:104E4000A68DB78DF701818B928BA38BB48B81E0FC
:104E50008383832D8F70F7018183148215821682DC
:104E60001782108611861286138611E034FE04C064
:104E7000C7010E949DB2182FCE014C9643DECE0191
:104E8000019640DE812FCE5BDF4FE2E10C9440DEE5
:104E9000D80113968C911397823009F449CE51961C
:104EA0008D919D910D90BC91A02D803E9F4FAF4163
:104EB000B10508F03DCEC8014EDD882309F438CE97
:104EC00083DA882309F434CED8015996ED91FC9108
:104ED0005A9714968D909D90AD90BC901797B2E024
:104EE0008B1A9108A108B108858504C0880C991C0B
:104EF000AA1CBB1C8A95D2F786859785A089B189A3
:104F0000880E991EAA1EBB1E81E08093340F8092EA
:104F10002C0F90922D0FA0922E0FB0922F0FECE23B
:104F2000FDE080E092E0DF019C011D9221503040C5
:104F3000E1F7DD24D394D8015996ED91FC91848159
:104F4000D816C0F48091350F9091360FDC01ED91A9
:104F5000FC910288F389E02D2CE23DE0B501A4012B
:104F60004D0D511D611D711D0995882309F4E0CD7A
:104F7000D394E1CF258580E092E0A0E0B0E004C0CA
:104F8000880F991FAA1FBB1F2A95D2F7F8014189E4
:104F9000528963897489840F951FA61FB71F818B5F
:104FA000928BA38BB48B8CE29DE0D12CCBCE2031A5
:104FB00061F497012F5E3F4F0E94701D882329F0F6
:104FC00084E0D70113968C9344CFD70113961C929B
:104FD000AFCD682F70E090E080E00C941FA68F9218
:104FE0009F92AF92BF92CF92DF92EF92FF92CF93B8
:104FF0006B017C01B42E20E030E0A9010E949DD914
:1050000087FF07C08DE20E94B57EF7FAF094F7F8AB
:10501000F094C0E060E070E080E09FE3CB1541F0E9
:105020002DEC3CEC4CEC5DE30E9402DACF5FF6CF56
:10503000A70196010E9468DE6B017C010E944CDF93
:105040004B015C010E941FA6CC2371F1C501B40184
:105050000E94A1D99B01AC01C701B6010E9467DE85
:105060006B017C018EE20E94B57EC150E8F020E029
:1050700030E040E251E4C701B6010E9402DA6B0160
:105080007C010E944CDF4B015C010E941FA6C50100
:10509000B4010E94A1D99B01AC01C701B6010E94D5
:1050A00067DE6B017C01E1CFCF91FF90EF90DF9045
:1050B000CF90BF90AF909F908F900895EF92FF9206
:1050C0000F931F93CF937B018A01C2E48F3F09F0B6
:1050D000C4E580E20E94B57E8C2F0E94B57E8AE3F3
:1050E0000E94B57EF701608171818281938142E0E7
:1050F00076DF88E699E00E94BC7EF80160817181CC
:105100008281938142E06BDF62E070E080E090E0BA
:105110000E941CACCF911F910F91FF90EF900895CA
:10512000A8E0B0E0E6E9F8E20C9433DE182F6091D5
:10513000391070913A10072E000C880B990B0E94C1
:10514000A3D96D837E838F8398878091351090914A
:105150003610A0913710B091381089839A83AB83B1
:10516000BC83AE014B5F5F4FBE016F5F7F4F80E836
:10517000A5DF60910D1070910E10072E000C880BAA
:10518000990B0E94A3D96D837E838F83988780912A
:10519000091090910A10A0910B10B0910C10898306
:1051A0009A83AB83BC83AE014B5F5F4FBE016F5FE1
:1051B0007F4F8FEF83DF60910F101F3F39F08CE23C
:1051C0001802F0011124EF5CFF4E628570E080E769
:1051D00099E00E94DD8960910F1070E08BE699E004
:1051E0000E94DD892896E3E00C944FDE0F930FB701
:1051F0000F9300916E000D7F00936E0078940F93D3
:105200000BB70F930CB70F921F922F933F934F93AF
:105210005F936F937F938F939F93AF93BF93EF931E
:10522000FF9311240E940435FF91EF91BF91AF913C
:105230009F918F917F916F915F914F913F912F91AE
:105240001F900F900CBF0F910BBF0F910260F8944D
:1052500000936E000F910FBF0F911895CF93DF93BE
:1052600010928705C1E3D0E1198618860E94111EAD
:105270001A865D98C5E0D0E1198618860E9460699B
:105280001A865C98DF91CF910895B0E0A0E0EBE43E
:10529000F9E20C942ADEB0E2A0E06A2F70E0AB01E4
:1052A0004B0F511D55954795411111C0E0E9F2E2B0
:1052B00065917491072E000C880B990B0E94A3D95D
:1052C000CDB7DEB7ECE00C9446DEB42FE8CFA417E0
:1052D00011F0B41303C0ECE0F3E2EACF9A012150DD
:1052E0003109220F331F220F331FF901E257FD4D01
:1052F000E590F490F901EE56FD4DC591D4918E15CF
:105300009F0518F3A42FC817D90708F4C6CFF901D1
:10531000E057FD4D05911491F901EC56FD4DC590F6
:10532000D4908E199F09BC0190E080E00E94A1D921
:105330004B015C01B601601B710B072E000C880B42
:10534000990B0E94A3D99B01AC01C501B4010E9435
:1053500002DA4B015C01CE19DF09BE0190E080E06A
:105360000E94A1D99B01AC01C501B4010E94DFDEFE
:105370006B017C01B801012E000C880B990B0E9477
:10538000A3D99B01AC01C701B6010E9468DE98CF8A
:10539000EF92FF920F931F93CF93DF93C82F7B0160
:1053A0008A0180919305833090F00E94DA80C701D2
:1053B0000E94BC7E8CEC98E00E94BC7ECF3F41F501
:1053C00088EC98E00E94BC7E8AE00E94B57E46DFB1
:1053D000A89580919403811138C081E08093940353
:1053E00082E0809393053ADFD5E1D15019F1A89579
:1053F000419A69E170E080E090E00E941CAC419825
:1054000060E570E080E090E00E941CACA895EDCFD4
:10541000C7FDDACF86EC98E00E94BC7E6C2F0C2E84
:10542000000C770B880B990B0E947CA68AE00E94E7
:10543000B57ECACF419A6EEB78E0CF3F11F063ECB6
:1054400078E040E0C8010E94008ACDB7DEB7E6E010
:105450000C944CDEB0E0A0E0E0E3FAE20C9425DE30
:10546000EC015B014A01322EFA01408051806280DA
:105470007380A30192016D817E818F8198850E9446
:105480009DD98823A1F04D825E826F827886772431
:10549000739420E030E0A901F40160817181828180
:1054A00093810E94CBDF18160CF0712C7C828C81CA
:1054B0008230A1F0833009F448C08130A9F52D81F4
:1054C0003E814F815885F501608171818281938190
:1054D0000E949DD987FD28C082E08C83F501208140
:1054E0003181428153816D817E818F8198850E94B7
:1054F00067DE2B013C010E94A5AC4B015C01A701BA
:105500009601C301B2010E949DD9181694F098012A
:10551000A8EEB3E00E94C6DD860E971EA81EB91E37
:1055200088829982AA82BB82CDB7DEB7E1E10C9472
:1055300041DE88819981AA81BB81881A990AAA0AC9
:10554000BB0AB7FCF1CF83E08C834AE459E068E5FD
:1055500079E0832D1DDFE8CF4AEE58E069EF78E06F
:1055600017CFCF93DF93A89580913310909134108B
:105570000E9497A660933510709336108093371071
:105580009093381080910710909108107EDE609300
:10559000091070930A1080930B1090930C10C09117
:1055A0003310D091341080914E0190914F01C81763
:1055B000D90710F480E0D0DF8091391090913A1033
:1055C000181619066CF480914C0190914D018C17BE
:1055D0009D0730F44AE259E068E379E080E0D8DEE4
:1055E00020912B0530912C05809107109091081087
:1055F0008217930710F48FEFAFDF80910D10909119
:105600000E10181619068CF420914A0130914B01A6
:1056100080910710909108102817390730F44AE25A
:1056200059E068E379E08FEFB3DEDF91CF91089521
:10563000A4E0B0E0EEE1FBE20C942ADE8091930559
:10564000811105C0A8952496ECE00C9446DE80916B
:10565000A9038111F8CF81E08093A9038091D6023C
:10566000811103C01092A903EECF7BDF1092D60206
:105670000E94A5AC4B015C016091520170915301F5
:10568000072E000C880B990B0E94A3D99B01AC013B
:1056900060913510709136108091371090913810CC
:1056A0000E94CBDF181614F480E056DF60913910A9
:1056B00070913A10072E000C880B990B0E94A3D909
:1056C00069837A838B839C83C12CD12C30E8E32EB1
:1056D00030E4F32E08E210E020E0AE014F5F5F4FB0
:1056E00065E370E183EF9FE0B5DEC0903510D090A8
:1056F0003610E0903710F0903810609150017091A2
:105700005101072E000C880B990B0E94A3D99B0115
:10571000AC01C701B6010E94CBDF18160CF0DDC04A
:105720006091520170915301072E000C880B990B68
:105730000E94A3D99B01AC01C701B6010E949DD96B
:1057400087FFCBC08091A103811109C081E390E163
:105750009093A00380939F0381E08093A1038FE93E
:1057600093E00E940F190E9447DF7595679560933B
:105770003B108091B0039091B103A091B203B0911E
:10578000B3030097A105B105F1F0A5019401281B11
:10579000390B4A0B5B0BDA01C901B7FD14C06091EC
:1057A00035107091361080913710909138100E940A
:1057B00047DF2091AE033091AF03621773070CF4FB
:1057C0008EC00E94111E20E030E040EA52E4609159
:1057D000091070910A1080910B1090910C100E948A
:1057E000CBDF181614F48FEFB7DE8091D2029091C0
:1057F000D302A091D402B091D5020097A105B105C2
:10580000D1F0881A990AAA0ABB0AB7FC14C06091A1
:10581000091070910A1080910B1090910C100E9449
:1058200047DF2091D0023091D102621773070CF448
:105830005DC00E94606960910D1070910E10072E7E
:10584000000C880B990B0E94A3D969837A838B8300
:105850009C83C12CD12CE12C90E4F92E04E110E0C2
:105860002FEFAE014F5F5F4F69E070E18CEF9FE07B
:10587000F1DDC0900910D0900A10E0900B10F0906C
:105880000C1020E030E040EA50E4C701B6010E946D
:10589000CBDF87FD32C020E030E040EA52E4C701B0
:1058A000B6010E949DD9181644F180919703811189
:1058B00009C085E090E1909396038093950381E081
:1058C0008093970385E993E00E940F190E9447DFB8
:1058D0007595679560930F10C5CE60E048CF4BE09B
:1058E00059E06BE179E080E053DD6DCF4BE059E0AA
:1058F0006BE179E08FEF4CDD9ECF60E0EBCFCF9294
:10590000DF92EF92FF92CF93DF93EC01C880D980B2
:10591000EA80FB8084EB98E00E94BC7EC701B60160
:105920000E945E75CC80DD80EE80FF8080E690E393
:105930000E94BC7EC701B6010E945E75C884D984EE
:10594000EA84FB848CE590E30E94BC7EC701B6012B
:105950000E945E758AE00E94B57EDF91CF91FF9034
:10596000EF90DF90CF900895BC012091810330919A
:10597000820340918103509182032417350731F44B
:1059800081E02617370709F080E008959A01F1CFEA
:105990000F930FB70F9300916E000F930D7F00933D
:1059A0006E0000916F000D7F00936F000F930BB797
:1059B0000F930CB70F921F922F933F934F935F93C8
:1059C0006F937F938F939F93AF93BF93EF93FF93C7
:1059D00011240E943136FF91EF91BF91AF919F91B9
:1059E0008F917F916F915F914F913F912F911F9078
:1059F0000F900CBF0F910BBF0F910260F8940093B2
:105A00006F000F9100936E000F910FBF0F911895CB
:105A100000C000C08091300580FF1FC045988FEF07
:105A2000809338038091300581FF1AC0479A8FEF29
:105A3000809339038091300582FF15C02A9A8FEF39
:105A400080933A038091300583FF10C0289A8FEF2E
:105A500080933B0300C000C00895459A81E0E0CFE9
:105A6000479881E0E5CF2A9881E0EACF289881E045
:105A7000EFCF8091CF02982F977F9093CF02982FEE
:105A8000937081E011F080E008955E9A08955E9829
:105A90008091CF0288608093CF020895E82FF0E0D4
:105AA00021E030E0082E02C0220F331F0A94E2F7F3
:105AB000209530959091CF0292239093CF02E2529D
:105AC000FE4F2081922321E019F020E0822F0895DB
:105AD000813079F038F08230C9F7159A90912F050E
