:100000000C9455160C948E160C948E160C948E1619
:100010000C948E160C948E160C948E160C948E16D0
:100020000C948E160C942CAE0C948E160C948E168A
:100030000C948E160C94D3290C948E160C948E1658
:100040000C94C2240C948E160C94E2AD0C948E1673
:100050000C94528B0C94488B0C948E160C948E1628
:100060000C948E160C948E160C948E160C948E1680
:100070000C948E160C948E160C948E160C948E1670
:100080000C948E160C948E160C948E16084AD73B40
:100090003BCE016E84BCBFFDC12F3D6C74319ABD57
:1000A00056833DDA3D00C77F11BED9E4BB4C3E917B
:1000B0006BAAAABE000000803F05A84CCDB2D44E6A
:1000C000B93836A9020C50B9918688083CA6AAAA6C
:1000D0002ABE000000803F004E414E494E4954590F
:1000E000494E46CDCCCC3D0AD7233C17B7D1387703
:1000F000CC2B329595E6241FB14F0A000020410019
:1001000000C84200401C4620BCBE4CCA1B0E5AAE62
:10011000C59D7441425300504C41004572723A20D3
:10012000454550524F4D20436F72727570740045B3
:1001300072723A20454550524F4D2043524300457C
:1001400072723A20454550524F4D2053697A6500EE
:100150004572723A20454550524F4D205665727394
:10016000696F6E005072696E742041626F727465BF
:1001700064004D32350050617573696E672E2E2E06
:10018000004D3234003F0049676E6F726500526562
:1001900073657400496E697469616C697A6520459C
:1001A0004550524F4D0046696C2E204469612E0027
:1001B0004520696E206D6D5E33004D333033205520
:1001C0003120452569205325690050494420417557
:1001D000746F74756E65202A005049442D44202A9E
:1001E000005049442D49202A005049442D50202ACE
:1001F0000020082046616374002008204D617800CB
:100200002008204D696E004F6666004F6E004175F4
:10021000746F74656D70004D696E205472617665FF
:100220006C205370656564004D696E2056656C6F77
:1002300063697479004D617820402053706565646E
:10024000004D6178204520416363656C004D617805
:10025000204020416363656C0054726176656C20B8
:10026000416363656C00526574726163742041631D
:1002700063656C00416363656C0040207374657056
:10028000732F6D6D00416476616E63656420536504
:100290007474696E6773003F0043616E63656C0040
:1002A000496E6974004D34323800496E6974696171
:1002B0006C697A6520454550524F4D0046696C6126
:1002C0006D656E740054656D7065726174757265EC
:1002D0000053746570732F6D6D004A756E63746999
:1002E0006F6E2044657600416363656C657261746E
:1002F000696F6E004D617820537065656420286DCC
:100300006D2F73290053657420486F6D65204F660B
:10031000667365747300436F6E66696775726174A6
:10032000696F6E00426564004E6F7A7A6C650046B4
:10033000616E20537065656400436F6E6669677512
:10034000726174696F6E00526573746F72652044D8
:10035000656661756C7473004C6F616420536574DD
:1003600074696E67730053746F726520536574749B
:10037000696E67730050726568656174202420435C
:100380006F6E6600416476616E63656420536574C8
:1003900074696E6773004D61696E003132350035E6
:1003A000004245443A204550434F53203130304BB2
:1003B0000052756E617761792057617463683A20E5
:1003C0004F4E004D61782054656D70003237350016
:1003D0004D696E2054656D7000350045313A2045F9
:1003E00050434F53203130304B0050535500476538
:1003F0006E657269630050726F746F636F6C003169
:100400002E30004261756400313135323030004D9C
:10041000656C7A692028437265616C69747929007A
:100420004578747275646572730031006D61726C29
:10043000696E66772E6F726700456E6465722D3344
:1004400000323032332D30352D313600322E312E00
:10045000322E31004D61726C696E00546865726DA8
:100460006973746F727300426F61726420496E66C3
:100470006F005072696E74657220496E666F004D30
:1004800061696E003F004261636B0053746F7000DE
:100490004D323200417474616368204D6564696156
:1004A000004D3231005072696E742066726F6D209B
:1004B0004D656469610052656C65617365204D65C9
:1004C0006469610041626F7574205072696E746571
:1004D0007200436F6E66696775726174696F6E0052
:1004E00054656D7065726174757265004D6F7469E5
:1004F0006F6E00526573756D65205072696E740081
:1005000054756E650053746F70205072696E74007C
:100510005061757365205072696E7400496E666F24
:100520002053637265656E003F00537461727420DE
:100530005072696E740043616E63656C005072693D
:100540006E740043616E6E6F7420656E7465722008
:100550007375626469723A200002202E2E000152E7
:10056000656672657368004D61696E002100486FB1
:1005700074656E6420746F6F20636F6C64004261F9
:10058000636B0050726F63656564004D6F76652024
:100590004578747275646572004D6F74696F6E0092
:1005A00044697361626C6520537465707065727321
:1005B000004D3834004175746F20486F6D650047F9
:1005C0003238004D61696E00507265686561742053
:1005D000242042656400507265686561742024209F
:1005E000456E640054656D70657261747572650066
:1005F00017011301436F6F6C646F776E0050726563
:100600006865617420240046616E205370656564DE
:1006100000426564004E6F7A7A6C65004D61696EC8
:10062000004261627973746570205A004261627998
:1006300073746570204000466C6F770046616E20D1
:10064000537065656400426564004E6F7A7A6C652C
:10065000005370656564004D61696E00486F6D6997
:100660006E67204661696C6564006F70656E00544A
:100670005249474745524544003A20007A5F6D6928
:100680006E00795F6D696E00785F6D696E0052650E
:10069000706F7274696E6720656E6473746F70201A
:1006A0007374617475730A0000000000000000009C
:1006B000000000005761726E696E673A20486F6DE6
:1006C000696E672042756D702044697669736F7238
:1006D000203C20310A0002020400006B4300006B42
:1006E0004300007A430000A0400000A0400000004A
:1006F0004000006B4300006B4300007A43000000A1
:1007000000000000000000000053657474696E670B
:10071000732053746F72656400290A002062797433
:1007200065733B20637263200053657474696E6760
:10073000732053746F72656420280048617264638B
:100740006F6465642044656661756C7420536574DC
:1007500074696E6773204C6F616465640020286D56
:100760006D290020460020420020480020204D3105
:1007700034352053004D6174657269616C20686581
:100780006174757020706172616D6574657273005B
:1007900020204D3134392043203B20556E6974733D
:1007A00020696E2043656C736975730A0054656D2A
:1007B000706572617475726520556E69747300207E
:1007C00020473231203B004C696E65617220556EC6
:1007D00069747300454550524F4D206461746173D4
:1007E000697A65206572726F722E0A002028636133
:1007F0006C63756C6174656429210A0020213D20B9
:1008000000454550524F4D20435243206D69736D52
:1008100061746368202D202873746F7265642920C9
:1008200000454550524F4D20436F72727570740AE7
:10083000002053697A653A2000496E6465783A2051
:1008400000290A002062797465733B20637263207B
:10085000002073746F7265642073657474696E67C9
:1008600073207265747269657665642028000000E3
:10087000FA430000FA430000A0400000C841000015
:10088000A0420000A0420000C8430000BA42F401A8
:100890000000F40100006400000088130000204DF7
:1008A00061726C696E3D563838290A0045455052D0
:1008B0004F4D2076657273696F6E206D69736D613F
:1008C0007463682028454550524F4D3D0020436FCA
:1008D000756E7420583A0042656400453100450049
:1008E000626564002C2073797374656D2073746F76
:1008F0007070656421204865617465725F49443A8F
:1009000020004572723A204D415854454D50004DDB
:10091000415854454D50207472696767657265642B
:100920000048656174696E67204661696C656400A2
:1009300048656174696E67206661696C656400452D
:1009400072723A204D494E54454D50004D494E5417
:10095000454D50207472696767657265640054483C
:1009600045524D414C2052554E4157415900546813
:1009700065726D616C2052756E6177617900202F10
:10098000002042403A0020403A00434F4D4D554E22
:1009900049434154494F4E0044525952554E004527
:1009A00052524F525300494E464F004543484F0064
:1009B000506C6561736520526573657400505249CF
:1009C0004E5445522048414C5445440025533A204A
:1009D0002553004B494C4C45442E20005072696E03
:1009E0007465722068616C7465642E206B696C6C30
:1009F00028292063616C6C6564210A0000656368C6
:100A00006F3A004572726F723A0020440020204D08
:100A1000323030205300202844697361626C656471
:100A2000293A0046696C616D656E74207365747453
:100A3000696E67730020204D3230312058004D61BF
:100A40007820416363656C65726174696F6E2028FC
:100A5000756E6974732F7332290020204D32303344
:100A60002058004D61782066656564726174657315
:100A70002028756E6974732F73290020520020207E
:100A80004D323034205000416363656C657261748F
:100A9000696F6E2028756E6974732F733229202850
:100AA000503C7072696E742D616363656C3E2052B8
:100AB0003C726574726163742D616363656C3E2082
:100AC000543C74726176656C2D616363656C3E297C
:100AD00000204A0020540020530020204D323035A1
:100AE000204200416476616E6365642028423C6D5B
:100AF000696E5F7365676D656E745F74696D655F60
:100B000075733E20533C6D696E5F66656564726106
:100B100074653E20543C6D696E5F74726176656CDD
:100B20005F66656564726174653E204A3C6A756EF5
:100B3000635F6465763E2900204400204900202040
:100B40004D333031205000486F74656E6420504939
:100B500044002E0A001C10FD28FA28F728206E6F8A
:100B6000742064697361626C65642E2053686172DD
:100B7000656420776974680020496E76616C6964E9
:100B8000206578747275646572200020746F6F2020
:100B90006C6F6E6720657874727573696F6E207004
:100BA000726576656E7465640A0020636F6C6420FC
:100BB000657874727573696F6E2070726576656E94
:100BC0007465640A0047322F4733206261642070E5
:100BD0006172616D65746572730A00536C6565704E
:100BE0002E2E2E00436C69636B20746F2052657348
:100BF000756D652E2E2E00616C736F20656E6162BF
:100C00006C6564290A004E6F204D6F76652E004595
:100C10006E642066696C65206C6973740A004265B5
:100C200067696E2066696C65206C6973740A004E92
:100C30006F206D656469610A0053442063617264CA
:100C40002072656C65617365640A00286E6F2066AA
:100C5000696C65290043757272656E742066696CF3
:100C6000653A20004E6F74205344207072696E7490
:100C7000696E670A005344207072696E74696E670A
:100C8000206279746520002E0A0044656C657469E1
:100C90006F6E206661696C65642028726561642DE1
:100CA0006F6E6C79292C2046696C653A20002569A5
:100CB000730025696D202569730025696820256901
:100CC0006D202569730025696420256968202569E0
:100CD0006D202569730025697920256964202569BF
:100CE000682025696D20256973005072696E742033
:100CF00074696D653A20006F6B006F666600AB0922
:100D0000A6099F0998098A0944454255473A004D6A
:100D1000313133205300456E6465722D33204F46C8
:100D2000462E00434F4E4649475F4558504F525458
:100D3000004D4541545041434B00434F4F4C4552A9
:100D40005F54454D5045524154555245004348412A
:100D50004D4245525F54454D5045524154555245C0
:100D600000424142595354455050494E4700415268
:100D70004353004D4F54494F4E5F4D4F4445530030
:100D8000544845524D414C5F50524F54454354498D
:100D90004F4E00455854454E4445445F4D32300057
:100DA000435553544F4D5F4649524D574152455F4D
:100DB00055504C4F4144004C464E5F5752495445A4
:100DC000004C4F4E475F46494C454E414D45004112
:100DD00055544F5245504F52545F53445F53544102
:100DE0005455530053445F5752495445005245509F
:100DF000454154004D554C54495F564F4C554D4557
:100E0000005344434152440050524F4D50545F539D
:100E10005550504F525400484F53545F414354492A
:100E20004F4E5F434F4D4D414E445300454D45524B
:100E300047454E43595F5041525345520043415339
:100E4000455F4C494748545F4252494748544E45D4
:100E5000535300544F47474C455F4C494748545300
:100E600000534F4654574152455F504F574552002B
:100E70004255494C445F50455243454E54004C4501
:100E800056454C494E475F44415441005A5F5052C9
:100E90004F42450052554E4F5554004155544F4C0A
:100EA0004556454C005052494E545F4A4F420050FF
:100EB000524F4752455353004155544F5245504F9E
:100EC00052545F54454D50004155544F5245504F78
:100ED00052545F504F5300564F4C554D4554524954
:100EE0004300454550524F4D0042494E4152595FD3
:100EF00046494C455F5452414E5346455200534576
:100F00005249414C5F584F4E5F584F464600464944
:100F1000524D574152455F4E414D453A4D61726CBD
:100F2000696E20322E312E322E31202841756720F5
:100F3000203820323032332030373A33373A3534A4
:100F40002920534F555243455F434F44455F555207
:100F50004C3A6769746875622E636F6D2F4D6172CC
:100F60006C696E4669726D776172652F4D61726C46
:100F7000696E2050524F544F434F4C5F5645525369
:100F8000494F4E3A312E30204D414348494E455F3E
:100F9000545950453A456E6465722D332045585476
:100FA00052554445525F434F554E543A31205555A2
:100FB00049443A63656465326132662D3431613289
:100FC0002D343734382D396231322D63353563365F
:100FD00032663336376666002F2F004D31343520A8
:100FE000533C696E6465783E206F7574206F66208F
:100FF00072616E67652028302D31290A003F4A2032
:101000006F7574206F662072616E67652028302EC0
:10101000303120746F20302E33290A002058004FC1
:101020004646004F4E003B200020204D61783A207C
:1010300000200020204D696E3A2000203B20002037
:10104000204D323131205300250A0046523A00200B
:10105000466C6F773A200064697300656E0043291F
:101060000A0061626C656420286D696E2074656D8C
:10107000702000436F6C64206578747275646573CA
:10108000206172652000486F6D65202573204669D8
:10109000727374004F666673657473204170706C70
:1010A000696564004572723A20546F6F2066617200
:1010B0002100546F6F206661722066726F6D20721E
:1010C00065666572656E636520706F696E740A008F
:1010D000454550524F4D204F4B0A004D3834004487
:1010E0006F6E65207072696E74696E672066696CD8
:1010F000650A004D3737004D333100496E76616C1B
:1011000069642065787472756465720A0020204DE8
:10111000323036205800486F6D65206F6666736503
:1011200074004361703A0020573A00436F6F6C6956
:101130006E672E2E2E0045312025530020573A0091
:1011400042656420436F6F6C696E672E2E2E0042DD
:1011500065642048656174696E672E2E2E002066D6
:1011600061696C6564212042616420686561746511
:10117000722069640A00504944204175746F747587
:101180006E650023646566696E6520444546415579
:101190004C545F004B6420004B6920004B702000D2
:1011A0002066696E697368656421205075742074C7
:1011B0006865206C617374204B702C204B69206132
:1011C0006E64204B6420636F6E7374616E74732061
:1011D00066726F6D2062656C6F7720696E746F2028
:1011E000436F6E66696775726174696F6E2E680A07
:1011F00000504944204175746F74756E6500206617
:1012000061696C6564212074696D656F75740A008D
:10121000504944204175746F74756E650020666195
:10122000696C6564212054656D70657261747572B6
:101230006520746F6F20686967680A005049442010
:101240004175746F74756E6500504944204379632D
:101250006C65730025532025692F256900204B6498
:101260003A2000204B693A2000204B703A200020A1
:10127000436C617373696320504944200A00205411
:10128000753A2000204B753A2000206D61783A2095
:1012900000206D696E3A200020643A2000206269C7
:1012A00061733A200048656174696E672E2E2E00C6
:1012B0002073746172740A00504944204175746F40
:1012C00074756E6500206661696C656421205465E3
:1012D0006D706572617475726520746F6F206869D6
:1012E00067680A00504944204175746F74756E65D3
:1012F00000504944204175746F74756E65004572E5
:10130000723A207574663820666F6E74206E6F7442
:1013100020696E697469616C697A65642E00457232
:10132000723A207574663820666F6E74206E6F7422
:1013300020696E697469616C697A65642E00457212
:10134000723A207574663820666F6E74206E6F7402
:1013500020696E697469616C697A65642E00200089
:10136000200020003A003A002568753A253032689E
:10137000750025303268753A2530326875002530A1
:101380003268752725303268750025687564202518
:10139000303268753A253032687500426564004520
:1013A0006E636C6F7375726500450020002000202D
:1013B00000200020002500202020202020200020C8
:1013C00020202000657272001FE0201020102010E5
:1013D000102010202010201030300840048003001E
:1013E0001FE03FF03FF03FF01FE01FE03FF03FF015
:1013F0003FF00FC0078003003FFFF038007030FC63
:101400003020FC102078102030102C00D02E31D04D
:101410002F7BD02F7BD02E31D02C00D0203010202D
:10142000781020FC1030FC303800703FFFF03FFF98
:10143000F03800703186302387102787902F87D0AF
:101440002F03D02030102078102078102030102F5B
:1014500003D02F87D027879023871031863038001C
:10146000703FFFF01FFFF81FFFF804104002082034
:10147000020820041040082080104100104100089C
:1014800020800410400000001FFFF81FFFF8F80143
:1014900080000C480080001243C38CD0027124925B
:1014A00067CC41249E40024924904012FBB3CEE019
:1014B0000C000C0F00FE07022503BB017FFE08FE97
:1014C00008FE05080806000040F0C88888987810D3
:1014D000050808060000C0F88888888888F805058F
:1014E000050600012030F83020050808060000201D
:1014F00070F820202020E00509090600FF2070A8D0
:10150000A8B888887020070505070001D86C366CDC
:10151000D80509090600FFF8A88888888888A8F8EF
:10152000050A0A0600FE205050505088A8A888706E
:1015300003030306000340A040FFFFFFFFFFFFFF80
:10154000FFFFFFFFFFFFFFFFFFFFFFFFFFFFFF00AA
:1015500000000605FF0107070602008080808080EA
:101560000080030303060105A0A0A00506060600EF
:101570000050F85050F8500509090600FF2070A8E7
:10158000A07028A87020050707060000C8C8102012
:1015900040989805070706000040A0A040A8906862
:1015A0000103030602058080800309090601FF206C
:1015B00040408080804040200309090601FF8040B0
:1015C0004020202040408005070706000020A8702A
:1015D0002070A8200505050600012020F820200223
:1015E00003030601FFC04080050101060003F80265
:1015F0000202060100C0C00507070600000810101F
:1016000020404080050707060000708898A8C88819
:101610007003070706010040C040404040E0050756
:1016200007060000708808102040F805070706002C
:1016300000F8081030088870050707060000103011
:101640005090F81010050707060000F880F0080811
:101650008870050707060000304080F08888700514
:101660000707060000F808101020202005070706CD
:101670000000708888708888700507070600007071
:10168000888878081060020505060100C0C000C007
:10169000C00206060601FFC0C000C0408003050569
:1016A0000601012040804020050303060002F800E7
:1016B000F803050506010180402040800507070664
:1016C0000000708810202000200507070600007029
:1016D00088B8A8B88070050707060000708888F8E9
:1016E000888888050707060000F04848704848F0D9
:1016F000050707060000708880808088700507074E
:10170000060000F04848484848F005070706000072
:10171000F88080F08080F8050707060000F88080D8
:10172000F080808005070706000070888080988818
:1017300070050707060000888888F88888880307EE
:1017400007060100E04040404040E0050707060072
:1017500000381010101090600507070600008890F0
:10176000A0C0A090880507070600008080808080C8
:1017700080F805070706000088D8A88888888805AB
:1017800007070600008888C8A89888880507070604
:10179000000070888888888870050707060000F0B8
:1017A0008888F08080800507070600007088888898
:1017B000A89068050707060000F08888F0A09088C8
:1017C0000507070600007088807008887005070705
:1017D000060000F820202020202005070706000032
:1017E00088888888888870050707060000888888A8
:1017F0008850502005070706000088888888A8A818
:101800005005070706000088885020508888050783
:1018100007060000888850202020200507070600C2
:1018200000F80810204080F80309090601FFE08055
:10183000808080808080E0050707060000804040AF
:10184000201010080309090601FFE02020202020B5
:101850002020E0050303060005205088050101064D
:1018600000FEF80303030601058040200505050678
:10187000000070087888780507070600008080F06F
:10188000888888F00505050600007080808870054E
:101890000707060000080878888888780505050687
:1018A00000007088F080700507070600003048408F
:1018B000E04040400507070600FE708888887808E9
:1018C000700507070600008080F088888888030775
:1018D000070601004000C0404040E004090906013D
:1018E000FE10003010101010906005070706000071
:1018F00080808890E09088030707060100C0404080
:10190000404040E0050505060000D0A8A8A8A805AD
:101910000505060000B0C888888805050506000092
:1019200070888888700507070600FEF0888888F0B0
:1019300080800507070600FE7888888878080805F3
:101940000505060000B0C88080800505050600007A
:1019500078807008F00507070600002020F8202096
:101960002018050505060000888888986805050583
:101970000600008888885020050505060000888834
:10198000A8A85005050506000088502050880507C6
:10199000070600FE8888885020408005050506005F
:1019A00000F8102040F80309090601FF20404040DC
:1019B00080404040200109090602FF80808080802D
:1019C000808080800309090601FF8040404020405C
:1019D00040408005030306000248A890FF534420BE
:1019E00063617264206F6B0A006F70656E526F6F77
:1019F00074206661696C65640A00766F6C756D654C
:101A00002E696E6974206661696C65640A004E6FA8
:101A100020534420636172640A000A4D3234004D41
:101A20003233202573002E0A006F70656E206661C8
:101A3000696C65642C2046696C653A200046696CC7
:101A4000652073656C65637465640A002053697A68
:101A5000653A200046696C65206F70656E65643A72
:101A60002000454E4420535542524F5554494E454F
:101A70000A002220706F73002220706172656E74FC
:101A80003A2200535542524F5554494E4520434146
:101A90004C4C207461726765743A2200537562631E
:101AA000616C6C204F766572666C6F770045786369
:101AB0006565646564206D617820535542524F55C9
:101AC00054494E452064657074683A0066726573C7
:101AD0006800646F696E67002066696C653A200073
:101AE0004E6F7720002F6175746F25632E6700029B
:101AF000FFFFFFFFEFFFFFFFFFFFFFFFFFFFFFEF16
:101B0000EFFFFFFFFFFFFFFFFFFFE7DFFFFFFFFF2D
:101B1000FFFFFFFFFFE7DFFFFFFFFFFFFFFFFFFF0D
:101B2000E3DFFFFFFFFFFFFFFFFFFFF3CFFFFFFF3D
:101B3000FFFFFFFFFFE1E1CFFFFFFFFFFFFFFE78A9
:101B4000000003DDFFFFFFFFFEFF807E0001EEFFD0
:101B5000FFFFFFFE7DCFFC0000F77FFFFFFFFF8E42
:101B6000060000007BBFFFFFFFFFC0000000007DFC
:101B7000DFFFFFFFFFFC01FE00003EE7FFFFFFFF6E
:101B8000FFFFFC00031F73FFFFFFFFFFFFF80001D3
:101B90008F81FFFFFFFFFFFFE0000083F9FFFFFFE2
:101BA000FFFFFF00FC0000F0FFFFFFFFFFE00FFF63
:101BB000C00000FFFFFFFFFE03FFFFC00000FFFFAC
:101BC000FFFFFFFFFFF9000000FFFFFFFFFFFFFF28
:101BD000FC0007C0FFFFFFFFFFFFFFFF0007E0FF64
:101BE000FFFFFFFFFFFFFFE007F1FFFFFFFFFFFF2A
:101BF000FFFFFC07F9FFFFFFFFFFFFFFFFFF03F9F8
:101C0000FFFFFFFFFFFFFFFFFF83F9FFFFFFFFFF66
:101C1000FFFFFFFFC3FFFFFFFFFFFFFFFFFFFFE12E
:101C2000FFFFFFFFFFFFFFFFFFFFF0BFFFFFFFFF13
:101C3000FFFFFFFFFBF83FFFFFFFFFFFFFFFFFF985
:101C4000F83FFFFFFFFFFFFFFFFF7EF0FFFFFFFFFB
:101C5000FFFFFFFFFF8E03FFFFFFFFFFFFFFFFFF01
:101C6000E01FFFFFFFFFFFFFFFFFFFFFFFFFFFFF83
:101C7000FFFFFFFFFFFFFFFFFFFFFFFFFFFFFFFF74
:101C8000FFFFFF7FFFFFFFFF00007FFFFFF87FFFE9
:101C9000FFFFFF80007FFFFFE07FFFFFFFFFC3FC30
:101CA000FFFFFFF8FFFFFFFFFFC3FCFFFFFFF8FF91
:101CB000FFFFFFFF87FDFFFFFFF1FFFFFFFFFF8734
:101CC000FFFFFFFFF1FFFFFFFFFF0FE7F30FFC2315
:101CD000FC3FFFFFFF0FEF8007F003F01E007FFEC9
:101CE0001FCF8187C787C70C007FFE001FC7C78F24
:101CF000C79F0F0CFFFE001F878F1F8F1F0F1FFF37
:101D0000FC3F9F8F8F1F8E001E3FFFFC7F3F0F1EEB
:101D10003F1E3FFE3FFFF87FFF1F1C3F1C7FFC7FE5
:101D2000FFF8FFFF1E1C7E1C7FFC7FFFF0FFCE3EF6
:101D30003C7E3C7FB8FFFFF0FF9E3C387C387E78CD
:101D4000FFFFE1FF3C7C787C783CF1FFFFE1F83855
:101D50007878101801F1FFFF000060203C007C073C
:101D6000807FFFFFFFFFFFFE1FFE1FFFFFFF6D6174
:101D7000726C696E66772E6F726700322E312E326A
:101D80002E31001FFFFFFFFFFFFF6000000000017A
:101D9000FF400000000000FF8000000000007F8383
:101DA000CF00000C303F87FF80000C301F86798009
:101DB000000C000F8C30C7838C30E78C30CFC7CC41
:101DC00031F38C30DCECEC33B98C30D86C6C3319DB
:101DD0008C30D06C0C33198C30D86C0C33198C309F
:101DE000DC6C0E3B198C30CF7C079F198C30C77C84
:101DF000038F194000000000000260000000000096
:101E0000061FFFFFFFFFFFF870012C019001270163
:101E1000B0012201C0011D01F001180110021301DF
:101E200030020E016002090190020401C002FF00AD
:101E30000003FA004003F5008003F000D003EB003C
:101E40002004E6007004E100E004DC004005D70057
:101E5000C005D2004006CD00D006C8008007C300F0
:101E60003008BE00F008B900C009B400B00AAF00E5
:101E7000B00BAA00D00CA500000EA000500F9B00D4
:101E8000C01096005012910000148C00C0158700FD
:101E9000B0178200B0197D00D01B7800001E7300BF
:101EA00040206E0090226900F024640040275F000B
:101EB00090295A00E02B5500102E500020304B0086
:101EC00010324600E033410090353C0010373700B7
:101ED00070383200A0392D00B03A2800A03B230012
:101EE000603C1E00103D1900903D1400103E0F0094
:101EF000703E0A00C03E0500003F0000403FFBFF6F
:101F0000803FF6FFC03FF1FF2020506C616E6E6590
:101F10007242756666657242797465733A20002074
:101F200046726565204D656D6F72793A20002043D9
:101F30006F6D70696C65643A2041756720203820A8
:101F4000323032330A00204C617374205570646162
:101F50007465643A20323032332D30352D313620DD
:101F60007C20417574686F723A20283344776F7211
:101F70006B2C20456E6465722D33290A004D617209
:101F80006C696E20322E312E322E310A0020536FB2
:101F90006674776172652052657365740A00205714
:101FA00061746368646F672052657365740A00200A
:101FB00042726F776E206F75742052657365740A74
:101FC000002045787465726E616C2052657365748B
:101FD0000A00506F77657255700A007374617274ED
:101FE0000A004732385859004D31303031006F6B9C
:101FF000006572726F722077726974696E672074FF
:102000006F2066696C650A00446F6E6520736176A7
:10201000696E672066696C652E0A00456E6473748C
:102020006F707300255320256320256320256320CE
:10203000256300205A3A0020593A0020583A00659A
:102040006E6473746F7073206869743A200024F4AE
:1020500004D9201BC40C5C0E9804C4095F026507F8
:102060007101F405F900FB04B30048048700C103C3
:1020700069005803550003034500BE023A0084027C
:10208000310053022A002902250004022000E40145
:102090001C00C8011900AF01170098011400840149
:1020A0001300710110006101100051010E00430185
:1020B0000D0036010B002B010B0020010B00150158
:1020C00009000C01090003010800FB000800F300EF
:1020D0000800EB000700E4000600DE000600D80060
:1020E0000600D2000600CC000500C7000500C200B3
:1020F0000500BD000400B9000400B5000400B100F3
:102100000400AD000400A9000400A5000300A20023
:1021100003009F0004009B0003009800030095004B
:10212000020093000300900003008D0002008B006A
:102130000300880002008600020084000300810082
:1021400002007F0002007D0002007B000200790097
:1021500002007700010076000200740002007200A5
:102160000100710002006F0002006D0001006C00B0
:1021700002006A00010069000200670001006600B9
:1021800001006500010064000200620001006100BE
:102190000100600001005F0002005D0001005C00C2
:1021A00001005B0001005A000100590001005800C5
:1021B00001005700010056000100550001005400C5
:1021C00001005300000053000100520001005100C3
:1021D0000100500001004F0001004E0000004E00C1
:1021E00001004D0001004C0001004B0000004B00BD
:1021F00001004A00010049000100480000004800B9
:1022000001004700010046000000460001004500B3
:1022100000004500010044000100430000004300AD
:1022200001004200000042000100410000004100A6
:102230000100400001003F0000003F0001003E009F
:1022400000003E0001003D0000003D0001003C0098
:1022500000003C0000003C0001003B0000003B008F
:1022600001003A0000003A00010039000000390086
:10227000010038000000380000003800010037007D
:102280000000370001003600000036000000360074
:102290000100350000003500000035000100340069
:1022A000000034000000340001003300000033005F
:1022B0000000330001003200000032000000320054
:1022C0000100310000003100000031000100300049
:1022D000000030000000300001002F0000002F003F
:1022E00000002F0000002F0001002E0000002E0033
:1022F00000002E0001002D0000002D0000002D0028
:1023000000002D0001002C0000002C0000002C001B
:1023100000002C0001002B0000002B0000002B000F
:1023200000002B0001002A0000002A0000002A0003
:1023300000002A00010029000000290000002900F7
:1023400000002900000029000100280000002800EA
:1023500000002800000028000000280001002700DD
:1023600000002700000027000000270000002700D1
:1023700001002600000026000000260000002600C4
:1023800000002600010025000000250000002500B7
:1023900000002500000025000000250001002400A9
:1023A000000024000000240000002400000024009D
:1023B0000100230000002300000023000000230090
:1023C0000000230000002300000023000100220081
:1023D0000000220000002200000022000000220075
:1023E0000000220001002100000021000000210067
:1023F0000000210000002100000021000000210059
:10240000010020000000200000002000000020004B
:10241000000020000000200000002000000020003C
:1024200001001F0000001F0000001F0000001F002F
:1024300000001F0000001F0000001F0001001E0020
:1024400000001E0000001E0000001E00000024F41A
:10245000D43050C38E20C2A24017828B7011127AE2
:10246000910D816CD90AA861E108C75866076151CE
:1024700043061E4B5D05C145A7041A411104093DE1
:102480009803713931034036DB0265339102D43051
:102490005402802E1D02632CEE01752AC501B0285E
:1024A000A001102781018F2564012B244B01E0221C
:1024B0003401AC211F018D200D01801FFC00841E02
:1024C000ED00971DDF00B81CD200E61BC600201BE4
:1024D000BC00641AB200B219A8000A19A0006A1858
:1024E0009900D117910040178B00B5168400311662
:1024F0007E00B31579003A157300C7146F005814A5
:102500006A00EE1366008813630025135E00C7128D
:102510005B006C12570015125400C111510070116C
:102520004F0021114B00D61049008D104700461076
:10253000440002104200C00F4000800F3E00420FD6
:102540003C00060F3B00CB0E3800930E37005C0EAC
:102550003500270E3400F30D3200C10D3100900D0F
:102560003000600D2E00320D2D00050D2C00D90C11
:102570002B00AE0C2900850C29005C0C2700350CC3
:1025800027000E0C2600E80B2400C40B2400A00B2F
:1025900023007D0B23005A0B2100390B2100180B5F
:1025A0002000F80A1F00D90A1E00BB0A1E009D0A5F
:1025B0001D00800A1D00630A1C00470A1B002C0A2C
:1025C0001B00110A1A00F7091A00DD091900C409D5
:1025D0001900AB091900920917007B09180063095B
:1025E00017004C09160036091600200916000A09C2
:1025F0001500F5081500E0081400CC081400B80810
:102600001400A4081400900813007D0812006B0841
:10261000130058081200460812003408110023085D
:1026200011001208110001081100F0071000E00766
:102630001000D0071000C0071000B0070F00A1075E
:10264000100091070E0083070F0074070F00650745
:102650000E0057070E0049070E003B070D002E071E
:102660000E0020070D0013070D0006070D00F906E8
:102670000C00ED060D00E0060C00D4060C00C806A8
:102680000C00BC060C00B0060C00A4060B0099065A
:102690000C008D060B0082060B0077060B006C0603
:1026A0000B0061060A0057060B004C060A004206A2
:1026B0000A0038060A002E060A0024060A001A0636
:1026C0000A001006090007060A00FD050900F405C6
:1026D0000900EB050900E2050900D9050900D0054C
:1026E0000900C7050900BE050900B5050800AD05CC
:1026F0000800A50509009C050800940508008C0544
:102700000800840508007C050800740508006C05B5
:102710000700650508005D050700560508004E0521
:102720000700470507004005080038050700310588
:1027300007002A050700230507001C0506001605EB
:1027400007000F0507000805060002050700FB0447
:102750000600F5040700EE040600E8040600E204A3
:102760000700DB040600D5040600CF040600C904F8
:102770000600C3040600BD040600B7040600B10449
:102780000500AC040600A6040600A00405009B0496
:10279000060095040500900406008A0405008504DF
:1027A0000500800406007A04050075040500700425
:1027B00005006B04050066040500610405005C0467
:1027C000050057040500520405004D0405004804A7
:1027D0000500430405003E0404003A0405003504E6
:1027E0000500300404002C04050027040400230421
:1027F00005001E0404001A04040016040500110458
:1028000004000D040400090405000404040000048D
:102810000400FC030400F8030400F4030400F003C4
:102820000400EC030400E8030400E4030400E003F4
:102830000400DC030400D8030400D4030400D00324
:102840000400CC030400C8030300C50303005D2E8D
:1028500000006E23000013180000AF0E00003D08BA
:1028600000006304000045020000270100004D6FD6
:10287000766520246D6D00302E303235004D6F7638
:102880006520302E316D6D004D6F766520316D6D98
:10289000004D6F76652031306D6D004D6F7665208F
:1028A00041786973004D6F7665202A004D6F76651B
:1028B00020400020005072696E742066726F6D2097
:1028C0004D656469610020002000FFFFFF43616ED9
:1028D0006E6F74206F70656E20737562646972200C
:1028E00000220A00556E6B6E6F776E20636F6D6D00
:1028F000616E643A202200204500205A00205900D1
:1029000020204D3932205800537465707320706553
:102910007220756E697400627573793A2070617502
:1029200073656420666F7220696E7075740A006248
:102930007573793A2070617573656420666F7220D3
:10294000757365720A00627573793A2070726F63ED
:10295000657373696E670A004D6564696120496E2D
:1029600073657274656400000000010200090A00CA
:102970000000000403080700000000000000000041
:1029800000000000000000746F6F206D7563682008
:10299000696E6163746976652074696D65202D20A8
:1029A00063757272656E7420636F6D6D616E643AEB
:1029B00020002121204B494C4C20636175736564D4
:1029C00020627920004D3131322053687574646F74
:1029D000776E0053544F505045442E20005072697A
:1029E0006E7465722073746F7070656420647565B1
:1029F00020746F206572726F72732E204669782082
:102A0000746865206572726F7220616E64207573E0
:102A100065204D39393920746F2072657374617285
:102A2000742E202854656D7065726174757265200E
:102A300069732072657365742E2053657420697400
:102A40002061667465722072657374617274696E58
:102A500067290A004E6F20436865636B73756D20AC
:102A600077697468206C696E65206E756D62657239
:102A70002C204C617374204C696E653A20004D32F5
:102A800039004E6F20436865636B73756D207769FD
:102A90007468206C696E65206E756D6265722C209D
:102AA0004C617374204C696E653A200063686563FD
:102AB0006B73756D206D69736D617463682C204C48
:102AC000617374204C696E653A20004C696E652014
:102AD0004E756D626572206973206E6F74204C6153
:102AE0007374204C696E65204E756D6265722B3172
:102AF0002C204C617374204C696E653A20004D3176
:102B000031300053657269616C2073746174757340
:102B1000206D69736D617463680A005344207265A7
:102B20006164206572726F720A00DB0FC93F45BC99
:102B3000DA3F8FB30240FCF0274056946140FE4BD1
:102B40009B4084A5D840E0231841346A5641E85997
:102B5000974164DBD5416E271742B4B75542CE1A70
:102B60009742C8AED542B5885A43D40684BFA65F03
:102B7000A7BF7443E0BF10B11AC01C2C58C0E8F6C0
:102B800097C0B849D6C04E4E17C124D355C1802432
:102B900097C1A0B5D5C1121A17C244AE55C2781755
:102BA00097C26CACD5C267885AC320746F6F206C13
:102BB0006F6E6720657874727573696F6E207072BE
:102BC0006576656E7465640A0020636F6C642065C9
:102BD0007874727573696F6E2070726576656E7445
:102BE00065640A006F6B0A00526573656E643A2073
:102BF0000000002200250028002B000000210024F6
:102C00000027002A00020202020202020204040457
:102C10000404040404030303030303030301010185
:102C20000101010101010204081020408001020499
:102C300008102040800102040810204080804020BD
:102C400010080402017C3C3E5E2B3D3F2F5B5D3B48
:102C50002C2A225C0020453A00205A3A0020593A9A
:102C600000583A004572726F722077726974696E0B
:102C70006720746F20454550524F4D210A00456E24
:102C80006465722D332052656164792E005072693B
:102C90006E74696E672E2E2E005072696E7420500D
:102CA000617573656400B8D15CD711241FBECFEF86
:102CB000D0E4DEBFCDBF84B780935B1314BE0FB6E4
:102CC000F894A895809160008861809360001092CC
:102CD00060000FBE12E0A0E0B1E0EEECF7EC01E026
:102CE0000BBF02C007900D92AE34B107D9F723E1B4
:102CF000AEE4B2E001C01D92AB35B207E1F716E1D8
:102D0000C4E5D6E104C02197FE010E944EE0C33520
:102D1000D107C9F70E94ACD20C94DBE30C940000FD
:102D200080E0089580E0089580E0089580E00895AF
:102D3000A0E1B0E0EEE9F6E10C9477E08C01DC0173
:102D4000ED91FC910280F381E02DBE016F5F7F4F1A
:102D50000995882309F45DC08981807C91F56F8194
:102D6000637070E0762F6627770F770F8885B4E061
:102D70008B9FC0011124682B792B898582958695BC
:102D800086958370682B6F5F7F4F90E080E02A8587
:102D90002370220F3B8537FB332730F9232B3E81ED
:102DA0003F70230F3327331F2750310904C0660FAC
:102DB000771F881F991F2A95D2F76096E4E00C943C
:102DC00093E0803419F568856695669570E090E02B
:102DD00080E0CB01772766272A85622B098510E0E2
:102DE000102F0027012E000C220B330B602B712BB0
:102DF000822B932B6F5F7F4F8F4F9F4F4AE0660F61
:102E0000771F881F991F4A95D1F7D7CF8BE0F8011C
:102E1000848360E070E0CB01D0CF0895FC01828113
:102E20000895CF93DF93C091A410D091A51081E0B5
:102E3000CE31D105E4F020E030E040E05FE3609186
:102E4000A0107091A1108091A2109091A3100E94E7
:102E5000A1E00E94E5E16C1B7D0B77FF03C071953B
:102E60006195710981E0633071050CF080E0DF91BC
:102E7000CF910895FC0190E1AFE6B3E001900D928F
:102E80009A95E1F70895CF92DF92EF92FF928091A9
:102E90008502882309F457C0C0908102D090820235
:102EA000E0908302F090840220E030E0A901C701A5
:102EB000B6010E94D6DB882309F445C020E030E04B
:102EC00040E05FE3C701B6010E943BDC9B01AC011F
:102ED0000E943BDC2BED3FE049E450E40E943BDCE8
:102EE0009B01AC0160E070E080E89FE30E947DE11F
:102EF0006B017C01C0927C02D0927D02E0927E0246
:102F0000F0927F026091080170910901072E000C78
:102F1000880B990B0E94DCDB2AE037ED43E25CE38F
:102F20000E943BDCA70196010E943BDC609360019C
:102F3000709361018093620190936301FF90EF9021
:102F4000DF90CF900895C12CD12C80E8E82E8FE33C
:102F5000F82ED0CFFC017081472F50E0062E02C022
:102F6000559547950A94E2F740FF14C04091080335
:102F700050E0062E02C0559547950A94E2F740FFAF
:102F800009C021E030E001C0220F6A95EAF72095E0
:102F90002723208308958F929F92AF92BF92CF9262
:102FA000DF92EF92FF92FC01C080D180E280F3803B
:102FB00020E030E040E251E4C701B6010E943BDC72
:102FC00020E030E048EC52E40E943BDC4B015C0125
:102FD00020E030E0A901C701B6010E94D6DB20E065
:102FE00030E040EA50E487FF04C020E030E040EAEF
:102FF00050ECC501B4010E94A1E020E030E040E2C5
:1030000051E40E947DE10E94E5E16B017C018BE2CD
:10301000F7FE09C0F094E094D094C094C11CD11C78
:10302000E11CF11C8DE280935402C701B60120E13E
:1030300037E240E050E00E94D3DF8AE0882E912CF6
:10304000A12CB12CCA01B901A50194010E94D3DFC2
:10305000605D60935502C701B60128EE33E040E0A1
:1030600050E00E94D3DFCA01B901A50194010E947A
:10307000D3DF605D60935602C701B60124E630E0FD
:1030800040E050E00E94D3DFCA01B901A5019401DC
:103090000E94D3DF605D609357028EE280935802F6
:1030A000C701B601A50194010E94D3DF6B01CA01DB
:1030B000B901A50194010E94D3DF605D60935902BC
:1030C000F0E3CF0EC0925A0284E592E0FF90EF90B9
:1030D000DF90CF90BF90AF909F908F900895CF9248
:1030E000DF92EF92FF92FC01C080D180E280F380FA
:1030F00020E030E0A901C701B6010E94D6DB87FFBE
:1031000068C0C701B601905820E030E040E251E4C9
:103110000E943BDC20E030E040EA50E40E94A1E065
:1031200020E030E040E251E40E947DE10E94E5E1D0
:103130009B0160E22031F7E23F0730F0C90160E116
:1031400077E20E9427E0605D60935602283E83E0AC
:10315000380708F445C0C90168EE73E00E9427E013
:10316000CB016AE070E00E9427E0805D8093570207
:1031700080E22436310558F0C90164E670E00E940F
:1031800027E0CB016AE070E00E9427E0805D809339
:10319000580280E22A30310558F0EAE0F0E0C90137
:1031A000BF010E9427E0CB01BF010E9427E0805DA4
:1031B00080935902C9016AE070E00E9427E0805DB7
:1031C00080935A0286E592E0FF90EF90DF90CF90D7
:1031D000089520E030E040E251E4C701B60198CF05
:1031E00080E2C4CF8F929F92AF92BF92CF92DF9234
:1031F000EF92FF92FC01C080D180E280F38020E05A
:1032000030E040E251E4C701B6010E943BDC20E01F
:1032100030E040E251E40E943BDC4B015C0120E0E5
:1032200030E0A901C701B6010E94D6DB20E030E002
:1032300040EA50E487FF04C020E030E040EA50EC70
:10324000C501B4010E94A1E020E030E040E251E479
:103250000E947DE10E94E5E19B018BE237FF05C002
:1032600022273327261B370B8DE280935502C90195
:1032700068EE73E00E943BE0CB01EAE0F0E0BF01C2
:103280000E943BE0805D80935602C90164E670E0D5
:103290000E943BE0CB01BF010E943BE0805D809338
:1032A0005702C901BF010E943BE09C01CB01BF0155
:1032B0000E943BE0805D809358028EE28093590229
:1032C000205D20935A0285E592E0FF90EF90DF9019
:1032D000CF90BF90AF909F908F9008954F925F9244
:1032E0006F927F928F929F92AF92BF92CF92DF9216
:1032F000EF92FF92FC01C080D180E280F38020E059
:1033000030E040E251E4C701B6010E943BDC20E01E
:1033100030E048EC52E40E943BDC4B015C0120E0D1
:1033200030E040E251ECC701B6010E94D6DB18162E
:1033300054F420E030E048EC52E4C701B6010E94AA
:10334000C7E287FD8AC020E030E0A901C701B601CD
:103350000E94D6DB87FF72C060E070E080EA90ECEC
:10336000A50194010E94A1E020E030E040E251E498
:103370000E947DE10E94E5E16B017C01F7FC63C0E6
:1033800020E137E240E050E00E94D3DFCA01B901FA
:103390002AE030E040E050E00E94D3DF605D6093BF
:1033A0005502C701B60128EE33E040E050E00E942C
:1033B000D3DF9AE0892E912CA12CB12CCA01B9013E
:1033C000A50194010E94D3DF605D60935602C7019E
:1033D000B60124E630E040E050E00E94D3DFCA01AD
:1033E000B901A50194010E94D3DF605D609357028B
:1033F0008EE280935802C701B601A50194010E9494
:10340000D3DF6B01CA01B901A50194010E94D3DF8A
:10341000605D60935902F0E3CF0EC0925A0285E5D9
:1034200092E0FF90EF90DF90CF90BF90AF909F9091
:103430008F907F906F905F904F90089560E070E064
:1034400080EA90E48DCFF094E094D094C094C11CB5
:10345000D11CE11CF11C6DE2A2CF20E030E0A901FB
:10346000C701B6010E94D6DB87FF6BC060E070E049
:1034700080EA90ECA50194010E94A1E020E030E0F8
:1034800040E251E40E947DE10E94E5E14B015C01D4
:1034900020E030E0A901C701B6010E94C7E287FD24
:1034A0000BC020E030E040E251E4C701B6010E94C9
:1034B000D6DB60E287FD13C0B7FC48C0C501B4018C
:1034C00028EE33E040E050E00E94D3DFCA01B901AA
:1034D0002AE030E040E050E00E94D3DF605D60937E
:1034E0005602C501B40124E630E040E050E00E94FD
:1034F000D3DF8AE0482E512C612C712CCA01B9010E
:10350000A30192010E94D3DF605D609357028EE2B7
:1035100080935802C501B401A30192010E94D3DF38
:103520006B01CA01B901A30192010E94D3DF605D62
:103530006093590280E3C80EC0925A0286E592E079
:1035400070CF60E070E080EA90E494CFB094A094F3
:1035500090948094811C911CA11CB11C6DE2BFCF82
:1035600024E6829FC001112481589F4F6FEF70E0C5
:103570000E943BE0262F81E3643609F080E28093CD
:10358000570290E22A3040F03AE0822F632F0E94E7
:103590000EE00E940EE0905D90935802822F6AE048
:1035A0000E940EE0905D9093590285E280935A024A
:1035B00087E592E008956091080170910901072E56
:1035C000000C880B990B0E94DCDB2AE037ED43E20C
:1035D0005CE30E943BDC20917C0230917D024091B3
:1035E0007E0250917F020E943BDC609360017093E9
:1035F0006101809362019093630108958091B00509
:10360000811104C0809190058093E905089580910F
:103610003F128823C1F0815080933F12EFE6F0E122
:10362000882351F08150990B2BE1289FF001299FAD
:10363000F00D1124EF5CFE4E8BE1A4E5B0E10190AA
:103640000D928A95E1F720913F12211105C08091DA
:103650004A12806480934A1281E090E0A0E0B0E0DA
:10366000211103C080E090E0DC01809397059093E6
:103670009805A0939905B0939A0510928D0581E065
:103680008093A70583E080935001089580E994E03A
:1036900090932C0580932B050895CF93DF93EC0135
:1036A000642F70E090E080E00E94DCDB29EC38ECD5
:1036B00048EC5EE30E947DE120E030E040E05FE323
:1036C0000E94A1E00E94EAE16883DF91CF91089512
:1036D00070E090E080E00E94DCDB29EC38EC48EC04
:1036E0005EE30E947DE120E030E040E05FE30E9485
:1036F000A1E00E94EAE1862F33CFE091B00586E099
:10370000E802F0011124E658FA4F8091900590E00C
:10371000958384830895A4E0B0E0E1E9FBE10C9493
:1037200079E00E94DADB69837A838B839C83CE0104
:103730000196D5DC2496E2E00C9495E0CF92DF92DE
:10374000EF92FF92CF93DF9300D000D0CDB7DEB7DA
:103750006B017C0120E030E0A9010E94D6DB87FDEF
:103760001AC06DEB77E386E095E3A70196010E940E
:10377000A1E069837A838B839C83CE01019632DD3D
:103780000F900F900F900F90DF91CF91FF90EF90DF
:10379000DF90CF9008956DEB77E386E095EBE5CF72
:1037A0008F929F92AF92BF92CF92DF92EF92FF9251
:1037B0006B017C0120E030E0A9010E94D6DB87FD8F
:1037C000D6C06DEB77E386E095E3A70196010E94F2
:1037D000A1E06B017C0120E030E0A9010E94D6DB72
:1037E00087FFCAC0C701B601905820E030E040E230
:1037F00051E40E943BDC20E030E048EC52E40E94BF
:103800003BDC20E030E040EA50E40E94A1E020E010
:1038100030E040E251E40E947DE10E94E5E16B016D
:103820007C0160E280E4C81682E4D8068FE0E806F6
:10383000F1048CF0C701B60120E432E44FE050E01F
:103840000E94D3DFCA01B9012AE030E040E050E035
:103850000E94D3DF605D6093530260E280EAC81685
:1038600086E8D80681E0E806F1048CF0C701B601CD
:1038700020EA36E841E050E00E94D3DFCA01B901F6
:103880002AE030E040E050E00E94D3DF605D6093CA
:10389000540260E280E1C81687E2D806E104F10430
:1038A0008CF0C701B60120E137E240E050E00E9411
:1038B000D3DFCA01B9012AE030E040E050E00E94C5
:1038C000D3DF605D6093550260E288EEC81683E046
:1038D000D806E104F1048CF0C701B60128EE33E00C
:1038E00040E050E00E94D3DFCA01B9012AE030E095
:1038F00040E050E00E94D3DF605D60935602C70154
:10390000B60124E630E040E050E00E94D3DF8AE0D8
:10391000882E912CA12CB12CCA01B901A5019401CA
:103920000E94D3DF605D609357028EE2809358025D
:10393000C701B601A50194010E94D3DF6B01CA0142
:10394000B901A50194010E94D3DF605D6093590223
:1039500080E3C80EC0925A0283E592E0FF90EF9098
:10396000DF90CF90BF90AF909F908F9008956DEBB8
:1039700077E386E095EB29CF20E030E040E251E4A8
:10398000C701B60136CFCF92DF92EF92FF92CF936D
:10399000DF9300D000D0CDB7DEB76B017C0120E013
:1039A00030E0A9010E94D6DB87FD1AC06DEB77E3FA
:1039B00086E095E3A70196010E94A1E069837A83DE
:1039C0008B839C83CE0101968ADB0F900F900F9022
:1039D0000F90DF91CF91FF90EF90DF90CF900895FF
:1039E0006DEB77E386E095EBE5CF8F929F92AF92F8
:1039F000BF92CF92DF92EF92FF926B017C0120E0A9
:103A000030E0A9010E94D6DB87FD93C06DEB77E320
:103A100086E095E3A70196010E94A1E06B017C017D
:103A200020E030E040E251E40E943BDC20E030E066
:103A30004AE754E40E943BDC4B015C0120E030E0AB
:103A4000A901C701B6010E94D6DB20E030E040EAC0
:103A500050E487FF04C020E030E040EA50ECC501AC
:103A6000B4010E94A1E020E030E040E251E40E9475
:103A70007DE10E94E5E16B017C01C114D104E10408
:103A8000F10409F45BC0F7FE59C0F094E094D094BF
:103A9000C094C11CD11CE11CF11C8DE28093550225
:103AA000C701B60128EE33E040E050E00E94D3DFCA
:103AB0008AE0882E912CA12CB12CCA01B901A50154
:103AC00094010E94D3DF605D609356028EE2809382
:103AD0005702C701B60124E630E040E050E00E9402
:103AE000D3DFCA01B901A50194010E94D3DF605D53
:103AF00060935802C701B601A50194010E94D3DF6B
:103B00006B01CA01B901A50194010E94D3DF605D78
:103B10006093590280E3C80EC0925A0285E592E094
:103B2000FF90EF90DF90CF90BF90AF909F908F90DD
:103B300008956DEB77E386E095EB6CCF80E2AECF36
:103B4000CF93DF93EC01CB01BA010E94DCDB20E0D4
:103B500030E048EC52E40E947DE12FE632E143E898
:103B60005AE30E94A1E0688379838A839B83DF9173
:103B7000CF910895CF93DF93EC01CB01BA010E945E
:103B8000DCDB20E030E048EC52E40E947DE12FE6EF
:103B900032E143E85AE30E94A1E0688379838A8393
:103BA0009B83DF91CF9108950E94DCDB20E030E021
:103BB00048EC52E40E947DE12FE632E143E85AE30B
:103BC0000E94A1E0EDCDCF93DF93EC01CB01BA01D0
:103BD0000E94DADB2AE037ED43E25DE30E947DE1FB
:103BE0000E94EAE1688379838A839B83DF91CF9186
:103BF00008950E94DADB2AE037ED43E25DE30E949C
:103C00007DE10E94EAE187CDCF93DF93EC01CB0108
:103C1000BA010E94DCDB2AE037ED43E25DE30E945B
:103C20007DE1688379838A839B83DF91CF910895B7
:103C30000E94DCDB2AE037ED43E25DE30E947DE198
:103C4000A2CECF93DF93EC01CB01BA010E94DCDB63
:103C5000688379838A839B83DF91CF9108950E9443
:103C6000DCDB91CECF93DF93EC01CB01BA010E9454
:103C7000DCDB20E030E048EC52E40E947DE12FE6FE
:103C800032E143E85AE30E94A1E0688379838A83A2
:103C90009B83DF91CF910895CF92DF92EF92FF92B5
:103CA000CF93DF9300D000D0CDB7DEB70E94DCDB2E
:103CB00020E030E048EC52E40E947DE12FE632E162
:103CC00043E85AE30E94A1E06B017C0120E030E070
:103CD000A9010E94D6DB2DEB37E346E055E387FFD1
:103CE00004C02DEB37E346E055EBC701B6010E9457
:103CF000A1E069837A838B839C83CE0101964BD9A3
:103D00000F900F900F900F90DF91CF91FF90EF9059
:103D1000DF90CF900895CF93DF93EC01CB01BA01F0
:103D20000E94DCDB20E030E040E251E40E947DE1D3
:103D30002AE037ED43E25CE30E94A1E068837983E7
:103D40008A839B83DF91CF9108950E94DCDB20E082
:103D500030E040E251E40E947DE12AE037ED43E2A9
:103D60005CE30E94A1E0EACCCF92DF92EF92FF9257
:103D7000CF93DF9300D000D0CDB7DEB70E94DCDB5D
:103D800020E030E048EC52E40E947DE12FE632E191
:103D900043E85AE30E94A1E06B017C0120E030E09F
:103DA000A9010E94D6DB2DEB37E346E055E387FF00
:103DB00004C02DEB37E346E055EBC701B6010E9486
:103DC000A1E069837A838B839C83CE01019686DA96
:103DD0000F900F900F900F90DF91CF91FF90EF9089
:103DE000DF90CF900895FC01518340830895CF93D5
:103DF000DF93EC01CB01BA010E94DCDB20E030E074
:103E00004AE754E40E947DE127E137EB41ED58E3B6
:103E10000E94A1E0688379838A839B83DF91CF919D
:103E200008950E94DCDB20E030E04AE754E40E9481
:103E30007DE127E137EB41ED58E30E94A1E0D5CDCC
:103E4000CF93DF93C091A410D091A510209729F1B2
:103E50006091A0107091A1108091A2109091A31078
:103E60000E94E5E16E5F7F4F24976C177D07ACF4ED
:103E700070939403609393030E94D6AD605C734685
:103E80008F4F9F4F60939503709396038093970392
:103E900090939803DF91CF9108951092950310921B
:103EA00096031092970310929803F4CFC9CFCF9343
:103EB000DF93C091A410D091A510209729F16091B3
:103EC000A0107091A1108091A2109091A3100E9457
:103ED000E5E16E5F7F4F24976C177D07ACF470931C
:103EE0009403609393030E94D6AD605C73468F4F3A
:103EF0009F4F6093950370939603809397039093DD
:103F00009803DF91CF910895109295031092960334
:103F10001092970310929803F4CFCF93DF93EC01A4
:103F20008D810E94888B60E08B810E94F1ACDF91D3
:103F3000CF9108958F929F92AF92BF92CF92DF92CE
:103F4000EF92FF920F931F93CF938C01C62F6901BD
:103F50007A01E3DF0E94D6AD4B015C0128E5820EB9
:103F600022E0921EA11CB11C0E94818B8F3F41F068
:103F70000E94D6AD681979098A099B0997FDF4CF8B
:103F80008C2F80640E947C8B8F2D0E947C8B8E2DC9
:103F90000E947C8B8D2D0E947C8B8C2D0E947C8BB3
:103FA00087E8C11101C085E90E947C8BCC3011F4F7
:103FB0000E94818BC0E00E94818BF801868387FF7D
:103FC00004C0CF3F11F0CF5FF6CFCF911F910F917B
:103FD000FF90EF90DF90CF90BF90AF909F908F9029
:103FE000089561E0FC0183810E94F1AC8FEF0C9495
:103FF0007C8B1F93CF93DF93EC018FDF20E030E0C9
:10400000A9016CE0CE0196DF11E0882319F010E0E1
:1040100083E08C83CE01E5DF812FDF91CF911F916B
:1040200008951F93CF93DF93EC018F81833039F094
:1040300089E0440F551F661F771F8A95D1F79A01B3
:10404000AB0162E1CE0176DF11E0882319F010E0C8
:1040500085E08C83CE01C5DF812FDF91CF911F9149
:1040600008958F929F92AF92BF92EF92FF920F931B
:104070001F93CF93DF938C01EB017A010E94D6ADA1
:104080004B015C012CE2820E21E0921EA11CB11CAE
:104090000E94818BF80186838F3F69F40E94D6AD20
:1040A000681979098A099B0997FDF2CF81E1F80126
:1040B0008483C0E021C08E3F69F5F1E0EF1AF1087A
:1040C0008FEF8EBDFE012FEF0DB407FEFDCF8EB535
:1040D00081932EBDCF018C1B9D0B8E159F05A0F3E8
:1040E0000DB407FEFDCF8EB5CE0DDF1D88830E9477
:1040F000818B0E94818BC1E0C80173DF8C2FDF911F
:10410000CF911F910F91FF90EF90BF90AF909F9034
:104110008F9008958FE0CBCF0F931F93CF93DF93B2
:10412000EC018B01FADE40E052E0B801CE0199DFEC
:10413000DF91CF911F910F9108950F931F93CF930C
:10414000DF93EC0189018F81833039F089E0440FDE
:10415000551F661F771F8A95D1F79A01AB0161E160
:10416000CE01E8DE882351F084E08C83CE0139DF74
:1041700080E0DF91CF911F910F91089540E052E0D0
:10418000B801CE016EDFF5CFB0E0A0E0EAECF0E2DE
:104190000C946FE0EC01162F1F821C824B830E944F
:1041A000D6AD6B017C0120EDC20E27E0D21EE11CD2
:1041B000F11CA89561E08B810E94F1AC8B810E947B
:1041C000EEA8249A279A2698259A81E00E94888B47
:1041D00085E08D830E94888B0AE08FEF0E947C8BA4
:1041E0000150D9F7A89520E030E0A90160E0CE01A8
:1041F000A1DE8E83813079F00E94D6AD6C197D09E5
:104200008E099F0997FDEFCF81E08C83CE01E9DE17
:104210001A8280E065C0A8952AEA31E040E050E0CB
:1042200068E0CE0187DE853031F581E08F83A89587
:104230008F81812C912C5401823029F4812C912C76
:10424000A12C80E4B82E20E030E0A90167E3CE0184
:1042500071DEA501940169E2CE016CDE8E838823B4
:10426000F1F00E94D6AD6C197D098E099F0997FD6A
:10427000EACF8AE0CACF04E00E94818B8E8301508E
:10428000D9F78A3A11F482E0D1CF0E94D6AD6C19E9
:104290007D098E099F0997FDBFCF82E0B6CF8F8140
:1042A0008230B9F420E030E0A9016AE3CE0142DEB9
:1042B000882311F088E0A9CF0E94818B807C803C0C
:1042C00011F483E08F830E94818B0E94818B0E9476
:1042D000818BCE0186DE81E08A83173030F41D8326
:1042E000CDB7DEB7ECE00C948BE088E18C8391CF06
:1042F0000F931F93CF93DF93EC018B0120E030E00D
:10430000A90169E017DE882351F080E18C83CE019A
:1043100068DE80E0DF91CF911F910F91089540E119
:1043200050E0B801CE019DDEF5CFEF92FF920F93E2
:104330001F93CF937B018A01C2E48F3F09F0C4E54C
:1043400080E20E9499808C2F0E9499808AE30E94CB
:104350009980F701608171818281938142E00E949E
:1043600031A88EE799E00E94A080F80160817181F8
:104370008281938142E00E9431A862E070E080E097
:1043800090E00E944DADCF911F910F91FF90EF9063
:1043900008954091160321E042276CE070E00C94F0
:1043A00005A84091160321E0422764E070E00C94D8
:1043B00005A84091160321E0422761E070E00C94CB
:1043C00005A84091160321E0422761E070E00C94BB
:1043D00005A84091160321E0422768E070E00C94A4
:1043E00005A84091160321E042276CE070E00C9490
:1043F00005A841E061E070E00C9405A841E062E0AE
:1044000070E00C9405A84091160321E042270C941B
:1044100005A86CE070E00C9480AD64E070E00C9452
:1044200080AD62E070E00C9480AD61E070E00C94CF
:1044300080AD61E070E00C9480AD6CE070E00C94B5
:1044400080ADCF93C82FCB010E94A08089E796E072
:104450000E94A0808AE696E0CC2311F08FE696E0D9
:104460000E94AD8ACF91089521E732EB47E25EE3E7
:104470006091D6027091D7028091D8029091D902B2
:104480000E947DE16093C4107093C5108093C610A4
:104490009093C7100C947F7921E732EB47E25EE3FB
:1044A0006091DA027091DB028091DC029091DD0272
:1044B0000E943BDC6093C0107093C1108093C210C7
:1044C0009093C3100C947F798091DE029091DF026B
:1044D000A091E002B091E1028093BC109093BD10D6
:1044E000A093BE10B093BF100C947F79ACE0B0E005
:1044F000ECE7F2E20C9479E019821A821B821C82AA
:104500001D821E821F82188619861A861B861C86AB
:10451000AE014F5F5F4FBC018BE69FE00E9494CFDE
:104520002C96E2E00C9495E0B0E0A0E0EAE9F2E23B
:104530000C9479E020E24F8158856E818D810E9434
:1045400070AAE2E00C9495E0609190058FEF0C94D6
:10455000B2CF80919005682F0C94B2CF6FEF80910D
:1045600090050C94B2CF67ED7AE482E00C94FDCF15
:1045700069ED7AE481E00C94FDCF6BED7AE480E0A4
:104580000C94FDCF64EB76E483E00C94FDCF1092A5
:104590008D050C94D6B380915001882351F0609121
:1045A000D3027091D40230E020E041E081E00C942D
:1045B0004F760895B0E0A0E0E0EEF2E20C9469E0FE
:1045C000EC014B018A018B81811107C08FEF9FEFB6
:1045D000CDB7DEB7E2E10C9485E0898180FFF6CFAC
:1045E00089899A89AB89BC89488559856A857B8583
:1045F000841B950BA60BB70BA80170E060E0841735
:104600009507A607B70708F48C0168011E0124E08E
:10461000220E311CC114D10409F4AAC04885598561
:104620006A857B855A0181E0B822898D9A8D2A019D
:104630003B0139E076946794579447943A95D1F7C3
:104640002B81FC01223089F5628D738D848D958DCF
:10465000640D751D861D971DE12C22E0F22EEA18CF
:10466000FB08CE14DF0408F47601E114E2E0FE0654
:1046700071F44090650F5090660F6090670F7090D6
:10468000680F641575058605970509F04EC040E072
:104690000E945EB2882309F499CFB5016B59724F1D
:1046A000A701C4010E947EE352C0F480FA94F42072
:1046B000A114B10471F4F1100CC0452B462B472B0B
:1046C00051F58D899E89AF89B88D8C839D83AE838A
:1046D000BF83E98DFA8D4C805D806E807F8022E003
:1046E000421A510861087108858504C0440C551CA4
:1046F000661C771C8A95D2F786859785A089B18933
:10470000480E591E6A1E7B1EC301B2016F0D711D3A
:10471000811D911DA1CF4C815D816E817F819101B1
:104720000E9430B48111D5CF51CFA091690FB091C3
:104730006A0FED91FC9111970088F189E02D9401A9
:10474000AB01BC01CD010995882309F43FCF8E0C44
:104750009F1C88859985AA85BB858E0D9F1DA11DEF
:10476000B11D88879987AA87BB87CE18DF0852CFEB
:10477000C8012ECF0F931F93CF93DF93FC012381AA
:10478000222331F080E0DF91CF911F910F910895A6
:104790008B01EC01FB018789803139F582E08B8345
:1047A0001D8A1E8A1F8A188E808D918DB0E0A0E030
:1047B00025E0880F991FAA1FBB1F2A95D1F7898B67
:1047C0009A8BAB8BBC8B1A8F098F81E089831886FB
:1047D00019861A861B861C821D821E821F82188AD9
:1047E0001C861D861E861F86CECF803259F683E03A
:1047F0008B83428D538D648D758D4D8B5E8B6F8B4E
:10480000788F9E012F5E3F4FC8010E94ACB481118A
:10481000DACFB8CF0F931F93CF93DF93EB01DC0177
:1048200013962C91211106C080E0DF91CF911F914A
:104830000F9108952250223028F48FE28883198244
:1048400081E0F3CF8C01FC016485758586859785B1
:1048500040E00E945EB2882339F3D8015096EC9173
:10486000B0E2EB9FF0011124EB59F24F3097E1F2E7
:1048700090E020E03EE24191403291F0283029F46E
:10488000DE01A90FB11D3C939F5FBE01690F711D31
:10489000AF0141505109DA014C91DB014C939F5F0C
:1048A0002F5F2B3041F7C90FD11D1882BECF40E0DA
:1048B00050E0BA010C9415B5A8E0B0E0E2E6F4E2ED
:1048C0000C9478E0182F6091A4107091A510072E19
:1048D000000C880B990B0E94DCDB6D837E838F8339
:1048E00098878091A0109091A110A091A210B091F2
:1048F000A31089839A83AB83BC83AE014B5F5F4F68
:10490000BE016F5F7F4F80E810DD60917705709189
:104910007805072E000C880B990B0E94DCDB6D8359
:104920007E838F8398878091730590917405A09101
:104930007505B091760589839A83AB83BC83AE01FC
:104940004B5F5F4FBE016F5F7F4F8FEFEEDC60917B
:1049500079051F3F39F08CE21802F0011124E4566A
:10496000FF4E628570E086E899E00E948F8A609130
:10497000790570E081E899E00E948F8A2896E3E04B
:104980000C9494E00F930FB70F9300916E000D7F7E
:1049900000936E0078940F930BB70F930CB70F92A0
:1049A0001F922F933F934F935F936F937F938F93B8
:1049B0009F93AF93BF93EF93FF9311240E945D30B9
:1049C000FF91EF91BF91AF919F918F917F916F91E7
:1049D0005F914F913F912F911F900F900CBF0F91BE
:1049E0000BBF0F910260F89400936E000F910FBF00
:1049F0000F911895CF93DF931092C005CCE9D0E1C9
:104A00001986188654DA1A865D98CFE6D5E019869D
:104A100018860E94AD691A865C98DF91CF9108953F
:104A2000B0E0A0E0E6E1F5E20C946FE0B0E4A0E0D5
:104A30006A2F70E0AB014B0F511D55954795411101
:104A400011C0EAE0FEE165917491072E000C880B1D
:104A5000990B0E94DCDBCDB7DEB7ECE00C948BE069
:104A6000B42FE8CFA41711F0B41303C0E6E0FFE1C0
:104A7000EACF9A0121503109220F331F220F331F31
:104A8000F901E85FF14EE590F490F901E45FF14E31
:104A9000C591D4918E159F0518F3A42FC817D90777
:104AA00008F4C6CFF901E65FF14E05911491F901C2
:104AB000E25FF14EC590D4908E199F09BC0190E041
:104AC00080E00E94DADB4B015C01B601601B710BD8
:104AD000072E000C880B990B0E94DCDB9B01AC01BC
:104AE000C501B4010E943BDC4B015C01CE19DF091A
:104AF000BE0190E080E00E94DADB9B01AC01C501C1
:104B0000B4010E947DE16B017C01B801012E000C13
:104B1000880B990B0E94DCDB9B01AC01C701B6013D
:104B20000E94A1E098CFEF92FF920F931F93CF9333
:104B3000DF93C82F7B018A018091CC05833090F0F0
:104B40000E94B082C7010E94A08084EE98E00E947B
:104B5000A080CF3F41F580EE98E00E94A0808AE0DF
:104B60000E94998047DFA89580917F03811138C00A
:104B700081E080937F0382E08093CC053BDFD5E129
:104B8000D15019F1A895149A69E170E080E090E0A5
:104B90000E944DAD149860E570E080E090E00E94C6
:104BA0004DADA895EDCFC7FDDACF8EED98E00E9410
:104BB000A0806C2F0C2E000C770B880B990B0E9499
:104BC00067A78AE00E949980CACF149A67ED78E0BF
:104BD000CF3F11F06BED78E040E0C8010E94B28A4F
:104BE000CDB7DEB7E6E00C9491E0B0E0A0E0EBEFEB
:104BF000F5E20C946AE0EC015B014A01322EFA0105
:104C00004080518062807380A30192016D817E811A
:104C10008F8198850E94D6DB8823A1F04D825E8229
:104C20006F8278867724739420E030E0A901F40144
:104C300060817181828193810E94C7E218160CF015
:104C4000712C7C828C818230A1F0833009F448C0C1
:104C50008130A9F52D813E814F815885F501608114
:104C60007181828193810E94D6DB87FD28C082E01A
:104C70008C83F50120813181428153816D817E8158
:104C80008F8198850E94A0E02B013C010E94D6AD47
:104C90004B015C01A7019601C301B2010E94D6DB62
:104CA000181694F09801A8EEB3E00E94FFDF860E7C
:104CB000971EA81EB91E88829982AA82BB82CDB790
:104CC000DEB7E1E10C9486E088819981AA81BB81FD
:104CD000881A990AAA0ABB0AB7FCF1CF83E08C8331
:104CE0004EE559E06EE679E0832D1DDFE8CF42E026
:104CF00059E06FE079E017CFCF93DF93A8958091CB
:104D00009E1090919F100E9482A76093A0107093B4
:104D1000A1108093A2109093A3108091710590919F
:104D200072057EDE6093730570937405809375053C
:104D300090937605C0919E10D0919F10809148016C
:104D400090914901C817D90710F480E0D0DF809115
:104D5000A4109091A510181619066CF480914601C4
:104D6000909147018C179D0730F44FE359E06CE4B4
:104D700079E080E0D8DE2091190530911A05809104
:104D80007105909172058217930710F48FEFAFDFD2
:104D90008091770590917805181619068CF420916A
:104DA0004401309145018091710590917205281759
:104DB000390730F44FE359E06CE479E08FEFB3DE6C
:104DC000DF91CF910895A4E1B0E0E9EEF6E20C9412
:104DD0006BE08091CC05811105C0A8956496E0E157
:104DE0000C9487E080918E038111F8CF81E080934D
:104DF0008E0380918D02811103C010928E03EECF3D
:104E00007BDF10928D020E94D6AD6D837E838F83EF
:104E1000988760914C0170914D01072E000C880B12
:104E2000990B0E94DCDB9B01AC016091A01070919A
:104E3000A1108091A2109091A3100E94C7E21816B1
:104E400014F480E054DF6091A4107091A510072E37
:104E5000000C880B990B0E94DCDB69837A838B83BF
:104E60009C83C12CD12C30E8E32E30E4F32E08E2F1
:104E700010E020E0AE014F5F5F4F60EA70E18AE82A
:104E800090E1B3DE2091A0103091A1104091A210CA
:104E90005091A31029873A874B875C8760914A011C
:104EA00070914B01072E000C880B990B0E94DCDBE4
:104EB0009B01AC0169857A858B859C850E94C7E240
:104EC00018160CF011C260914C0170914D01072E23
:104ED000000C880B990B0E94DCDB9B01AC016985FF
:104EE0007A858B859C850E94D6DB87FFFDC18091EA
:104EF0008603811109C08CE990E19093850380932A
:104F0000840381E0809386030091840310918503DC
:104F1000D80118966D917C91072E000C880B990B87
:104F20000E94DCDB6B017C0120E030E0A9010E94E3
:104F3000D6DB8823C9F0D80114962D913D914D916F
:104F40005C9117972D873E874F87588BC701B60115
:104F50000E94A0E04B015C0120E030E040E251EC17
:104F60000E94D6DB87FF07C081E0F8018387C12C50
:104F7000D12C7601D0C020E030E040E251E4C50100
:104F8000B4010E94C7E218165CF481E0D8011B96B8
:104F90008C93C12CD12C2FE7E22E23E4F22EBBC040
:104FA000F8018385882349F01386148615861686B2
:104FB0001786148E158E168E178ED80194962D9105
:104FC0003D914D915C919797298B3A8B4B8B5C8BE4
:104FD0001C962D913D914D915C911F97C501B40197
:104FE0000E94A1E06B017C0120E030E0A9010E9459
:104FF000D6DB87FD75C129893A894B895C8960E0D8
:1050000070E08FE793E40E947DE12B013C01A70152
:1050100096010E94D6DB87FF02C073016201F8018E
:10502000C486D586E686F78620A131A142A153A188
:10503000C501B4010E943BDC4B015C01D8015496D0
:105040008D929D92AD92BC925797A7019601698966
:105050007A898B899C890E943BDC2B013C01F801F9
:10506000408E518E628E738EC48CD58CE68CF78CFC
:105070002D853E854F8558896089718982899389FC
:105080000E94A0E0D80198962D913D914D915C91A0
:105090009B970E943BDCA70196010E94A0E020EDB7
:1050A0003CEC4CE45DE30E943BDCA70196010E94CE
:1050B000A1E06B017C01F801C48ED58EE68EF78EDF
:1050C0002D853E854F855889208B318B428B538BA4
:1050D000A3019201C501B4010E94A1E0A7019601BC
:1050E0000E94A1E020E030E0A9010E94A1E06B0154
:1050F0007C0120E030E0A9010E94D6DB87FD37CF9C
:1051000020E030E04FE753E4C701B6010E94C7E258
:1051100018160CF43ECFC701B6010E94E5E1759563
:1051200067956093A6108091950390919603A09146
:105130009703B09198030097A105B105E1F02D8187
:105140003E814F815885281B390B4A0B5B0BDA01D6
:10515000C901B7FD10C069857A858B859C850E9441
:10516000E5E12091930330919403621773070CF4E7
:10517000BDC00E94571F20E030E04AEF52E460912A
:1051800073057091740580917505909176050E9464
:10519000C7E2181614F48FEFAADD8091890290916E
:1051A0008A02A0918B02B0918C020097A105B105F3
:1051B00001F12D813E814F815885281B390B4A0B07
:1051C0005B0BDA01C901B7FD14C0609173057091E2
:1051D000740580917505909176050E94E5E1209116
:1051E000870230918802621773070CF486C00E9410
:1051F000AD698091800390918103A0918203B09169
:1052000083032D813E814F815885281B390B4A0B22
:105210005B0BDA01C901B7FDF0CD8D819E81AF81B5
:10522000B88588579C4EAF4FBF4F809380039093B3
:105230008103A0938203B0938303609177057091FB
:105240007805072E000C880B990B0E94DCDB698324
:105250007A838B839C83C12CD12CE12C80E4F82EA3
:1052600004E110E02FEFAE014F5F5F4F63E775E0A1
:1052700083E990E1BADCC0907305D0907405E090AA
:105280007505F090760520E030E040EA50E4C70173
:10529000B6010E94C7E287FD39C020E030E04AEF46
:1052A00052E4C701B6010E94D6DB18167CF160916A
:1052B000770570917805072E000C880B990B0E94DA
:1052C000DCDBA70196010E94A0E020E030E0A9010C
:1052D0000E94C7E21816C4F48FE7809379058DCD3C
:1052E000C12CD12C76019BCE60E01BCF41E259E06E
:1052F00060E379E080E017DC3ECF41E259E060E313
:1053000079E08FEF10DC75CF80E0E7CF1092790560
:105310005C9873CDCF92DF92EF92FF92CF93DF93A1
:10532000EC01C880D980EA80FB808DEC98E00E9477
:10533000A080C701B6010E94CD77CC80DD80EE80D1
:10534000FF808DE59CE20E94A080C701B6010E940B
:10535000CD77C884D984EA84FB8489E59CE20E94E5
:10536000A080C701B6010E94CD778AE00E94998093
:10537000DF91CF91FF90EF90DF90CF900895BC0127
:10538000209160033091610340916003509161036B
:105390002417350731F481E02617370709F080E03C
:1053A00008959A01F1CF0F930FB70F9300916E00FC
:1053B0000F930D7F00936E0000916F000D7F00939F
:1053C0006F000F930BB70F930CB70F921F922F9391
:1053D0003F934F935F936F937F938F939F93AF937D
:1053E000BF93EF93FF931124D7D7FF91EF91BF9114
:1053F000AF919F918F917F916F915F914F913F916D
:105400002F911F900F900CBF0F910BBF0F91026057
:10541000F89400936F000F9100936E000F910FBFEF
:105420000F91189500C000C080911E0580FF1FC01D
:10543000459A8FEF8093170380911E0581FF1AC054
:10544000479A8FEF8093180380911E0582FF15C045
:105450002A988FEF8093190380911E0583FF10C057
:10546000289A8FEF80931A0300C000C008954598D2
:1054700081E0E0CF479881E0E5CF2A9A81E0EACF4A
:10548000289881E0EFCF80918602982F977F9093A4
:105490008602982F937081E011F080E008955E9A63
:1054A00008955E98809186028860809386020895B0
:1054B000E82FF0E021E030E0082E02C0220F331F79
:1054C0000A94E2F72095309590918602922390936A
:1054D0008602E752FE4F2081922321E019F020E05E
:1054E000822F0895813079F038F08230C9F7159A0B
:1054F00090911D059B7F04C05E9A90911D059E7F33
:1055000090931D05EDCF5E9A90911D059D7FF8CF7C
:1055100080E0CEDF81E0CCDF82E0CADFB4CF813033
:1055200079F070F0823071F021E030E001C0220F9C
:105530008A95EAF780918602822B809386020895ED
:105540005E98F2CF1598F0CFCF92DF92EF92FF9254
:105550000F931F93CF93C82F41E067EC77E00E9431
:10556000B682C11102C00E94B3828FEB97E00E9405
:10557000A0808DE597E00E94AD8A41E06DEA77E07A
:105580008C2F0E94B682C11102C00E94B38280E9B2
:1055900097E00E94A0808C2F0E94A4898C2F0E94EB
:1055A0002FAA8C2F0E94248A8C2F0E944B8A8C2F2A
:1055B0000E94048A8C2F0E94D0898C2F0E9484899B
:1055C00041E065E777E08C2F0E94B6820AE715E09C
:1055D000C12CD12C7601C11102C00E94B3828CE68D
:1055E00097E00E94A080C701B6010E940AA7F801B7
:1055F00060817181072E000C880B990B0E94DCDB07
:10560000AB01BC0189E697E00E943D85F80162810B
:105610007381072E000C880B990B0E94DCDBAB0119
:10562000BC0186E697E00E943D85F80164817581A2
:1056300083E697E00E949D8A0A5F1F4FCA94CD2897
:10564000CE28CF2859F48C2F0E944E85CF911F91E0
:105650000F91FF90EF90DF90CF900895C12CD12C47
:105660007601C394B8CFA9E8B0E0E9E3FBE20C947B
:1056700073E0C358DF4F188219821A821B82CD57FC
:10568000D0408091450290914602A0914702B0918E
:105690004802CF57DF4F88839983AA83BB83C158C1
:1056A000D04084E690E09093890F8093880F109209
:1056B00038101092371064E070E0CE018F579F4F82
:1056C0000E9480AD8091880F9091890F02969093EF
:1056D000890F8093880F10923810109237108BE743
:1056E00092E0CB57DF4F99838883C558D040CE01D5
:1056F0008B579F4F0E94112281E0C757DF4F88834D
:10570000C958D040CE0187579F4F0E94192268E4A4
:1057100070E08DEF95E00E9480AD80E1E4E6F1E07D
:105720008E010F5F1F4FD80101900D928A95E1F70E
:1057300060E170E0C8010E9480AD8DEC95E00E94B0
:105740000D228FE195E00E941D227E018DE6E80E7C
:10575000F11C8FEFF7018083C7010E941922198283
:105760001A821B821C82C8010E940D2219821A8291
:105770001B821C82C8010E940D22C358DF4F188271
:1057800019821A821B82CD57D04083E0EA968FAFF0
:10579000EA97F7018083CE0183589F4F0E940D2224
:1057A000CE0187589F4F0E941922C7010E941922DB
:1057B00080E09CE09A838983C8010E9411223AE02C
:1057C000D32EDA94DD2031F0CE0183589F4F0E9412
:1057D0000D22F7CF8CE0F80111928A95E9F7C80104
:1057E0000E941D22C358DF4F188219821A821B8221
:1057F000CD57D0402AE0D22EDA94DD2031F0CE0110
:1058000083589F4F0E940D22F7CF83E0C857DF4F88
:105810008883C858D040C957DF4F8883C758D040C5
:10582000CE0188579F4F0E941922CE0189579F4F62
:105830000E94192280E09CE0EB969FAF8EAFEB9721
:10584000CE0187589F4F0E94112288E0F701982FC0
:1058500011929A95E9F7F80111928A95E9F768E0B3
:1058600070E0C7010E9480AD68E070E0C8010E944E
:1058700080ADC358DF4F188219821A821B82CD5720
:10588000D0409AE0C92ED12CF1E0CF1AD10831F0E6
:10589000CE0183589F4F0E940D22F6CF1982CC244F
:1058A000CA94F701C082C8010E941522C7010E9454
:1058B000192280E1D82EF8018D2D11928A95E9F7F1
:1058C00060E170E0C8010E9480AD1982C8010E94A9
:1058D00015226CE070E08AE795E00E9480AD80912F
:1058E000BC109091BD10A091BE10B091BF108983E3
:1058F0009A83AB83BC8321E732EB47E25EE360919E
:10590000C0107091C1108091C2109091C3100E947C
:105910007DE16D837E838F83988721E732EB47E2B9
:105920005EE36091C4107091C5108091C610909193
:10593000C7100E943BDC69877A878B879C8780E051
:1059400090E0A0E8BFE38D879E87AF87B88B198A68
:105950001A8A1B8A1C8A64E170E0C8010E9480AD2B
:1059600084E190E09A838983C8010E9411228CE02F
:10597000E4E7F1E0D80101900D928A95E1F7C801C2
:105980000E9409228CE0E4E7F1E0D80101900D9239
:105990008A95E1F7C8010E9409221982C8010E9474
:1059A00019228FE78983C8010E941922C982C80180
:1059B0000E94192285E0E0E8F1E0D80101900D9203
:1059C0008A95E1F765E070E0C8010E9480AD198218
:1059D000C8010E94152280E2E5E8F1E0D8010190BB
:1059E0000D928A95E1F760E270E0C8010E9480ADF7
:1059F000F7011082C7010E94152285E892E00E94FB
:105A0000152281E892E00E940D22C358DF4F1882D0
:105A100019821A821B82CD57D040CE0183589F4FE6
:105A20000E940D2282E1F80111928A95E9F762E164
:105A300070E0C8010E9480AD84E2E5EAF1E0D8019F
:105A400001900D928A95E1F764E270E0C8010E942E
:105A500080ADF8018D2D11928A95E9F760E170E033
:105A6000C8010E9480AD1A82198262E070E0C8010C
:105A70000E9480ADC358DF4F188219821A821B82A0
:105A8000CD57D040CE0183589F4F0E940D22F80180
:105A90001192DA94E9F760E170E0C8010E9480ADEC
:105AA0008CE6F80111928A95E9F76CE670E0C8017E
:105AB0000E9480AD8AE093E00E940922F7011082E3
:105AC000118212821382148215821682178268E074
:105AD00070E0C7010E9480AD8CE0F70111928A95B9
