:100000000C948D160C94C6160C94C6160C94C61639
:100010000C94C6160C94C6160C94C6160C94C616F0
:100020000C94C6160C94BDB00C94C6160C94C6164F
:100030000C94C6160C9402770C94C6160C94C61633
:100040000C94EB710C94C6160C9473B00C94C616F9
:100050000C94A44C0C949A4C0C94C6160C94C61692
:100060000C94C6160C94C6160C94C6160C94C616A0
:100070000C94C6160C94C6160C94C6160C94C61690
:100080000C94C6160C94C6160C94C616084AD73B98
:100090003BCE016E84BCBFFDC12F3D6C74319ABD57
:1000A00056833DDA3D00C77F11BED9E4BB4C3E917B
:1000B0006BAAAABE000000803F05A84CCDB2D44E6A
:1000C000B93836A9020C50B9918688083CA6AAAA6C
:1000D0002ABE000000803F07634236B79BD8A71AAC
:1000E00039685618AEBAAB558C1D3CB7CC5763BDBA
:1000F0006DEDFD753EF6177231BF000000803F08C0
:10010000000000BE922449123EABAAAA2ABECDCC62
:10011000CC4C3E00000080BEABAAAAAA3E00000064
:1001200000BF000000803F0000000000084178D3BD
:10013000BB4387D1133D190E3CC3BD4282AD2B3E5C
:1001400068EC8276BED98FE1A93E4C80EFFFBE01FC
:10015000C4FF7F3F0000000000004E414E494E4961
:100160005459494E46CDCCCC3D0AD7233C17B7D184
:100170003877CC2B329595E6241FB14F0A0000202A
:10018000410000C84200401C4620BCBE4CCA1B0EA9
:100190005AAEC59D74434F4D4D554E494341544948
:1001A0004F4E0044525952554E004552524F5253F1
:1001B00000494E464F004543484F00506C656173FF
:1001C00065205265736574005052494E5445522063
:1001D00048414C5445440025533A202553004B498F
:1001E0004C4C45442E20005072696E746572206834
:1001F000616C7465642E206B696C6C2829206361C6
:100200006C6C6564210A00006563686F3A00457292
:10021000726F723A0020440020204D32303020535B
:1002200000202844697361626C6564293A0046695C
:100230006C616D656E742073657474696E677300AC
:1002400020204D3230312058004D617820416363C9
:10025000656C65726174696F6E2028756E69747360
:100260002F7332290020204D3230332058004D6149
:1002700078206665656472617465732028756E699F
:1002800074732F73290020520020204D3230342007
:100290005000416363656C65726174696F6E2028FC
:1002A000756E6974732F7332292028503C707269FF
:1002B0006E742D616363656C3E20523C726574728E
:1002C0006163742D616363656C3E20543C7472619C
:1002D00076656C2D616363656C3E2900204A0020C1
:1002E000540020530020204D32303520420041641C
:1002F00076616E6365642028423C6D696E5F73654C
:10030000676D656E745F74696D655F75733E2053CC
:100310003C6D696E5F66656564726174653E20540C
:100320003C6D696E5F74726176656C5F666565646D
:10033000726174653E204A3C6A756E635F646576DF
:100340003E290020440020490020204D3330312038
:100350005000486F74656E6420504944002E0A00B6
:1003600011086D296A296729206E6F7420646973EA
:1003700061626C65642E20536861726564207769E0
:1003800074680020496E76616C69642065787472C7
:1003900075646572200020746F6F206C6F6E67202B
:1003A000657874727573696F6E2070726576656EAC
:1003B0007465640A0020636F6C64206578747275DC
:1003C00073696F6E2070726576656E7465640A007D
:1003D000536C6565702E2E2E00436C69636B207420
:1003E0006F20526573756D652E2E2E00616C736FD4
:1003F00020656E61626C6564290A004E6F204D6F46
:1004000076652E00456E642066696C65206C6973A4
:10041000740A00426567696E2066696C65206C69C4
:1004200073740A004E6F206D656469610A0053445D
:1004300020636172642072656C65617365640A0093
:10044000286E6F2066696C65290043757272656E4F
:10045000742066696C653A20004E6F742053442006
:100460007072696E74696E670A0053442070726915
:100470006E74696E67206279746520002E0A0044EC
:10048000656C6574696F6E206661696C65642028AF
:10049000726561642D6F6E6C79292C2046696C65DC
:1004A0003A20002569730025696D202569730025B0
:1004B00069682025696D20256973002569642025F8
:1004C00069682025696D20256973002569792025D3
:1004D0006964202569682025696D202569730050AD
:1004E00072696E742074696D653A20006F6B006FDD
:1004F000666600B601B101AA01A301950144454217
:1005000055473A004D313133205300456E646572D2
:100510002D33204F46462E00434F4E4649475F45F8
:1005200058504F5254004D4541545041434B0043A5
:100530004F4F4C45525F54454D50455241545552D2
:1005400045004348414D4245525F54454D50455248
:100550004154555245004241425953544550504927
:100560004E470041524353004D4F54494F4E5F4D4B
:100570004F44455300544845524D414C5F50524FF3
:1005800054454354494F4E00455854454E44454404
:100590005F4D323000435553544F4D5F4649524DE5
:1005A000574152455F55504C4F4144004C464E5FB9
:1005B0005752495445004C4F4E475F46494C454EB3
:1005C000414D45004155544F5245504F52545F5391
:1005D000445F5354415455530053445F5752495458
:1005E0004500524550454154004D554C54495F56C5
:1005F0004F4C554D45005344434152440050524FD7
:100600004D50545F535550504F525400484F53541F
:100610005F414354494F4E5F434F4D4D414E44530C
:1006200000454D455247454E43595F504152534551
:100630005200434153455F4C494748545F42524939
:100640004748544E45535300544F47474C455F4C21
:10065000494748545300534F4654574152455F5001
:100660004F574552004255494C445F50455243450F
:100670004E54004C4556454C494E475F4441544109
:10068000005A5F50524F42450052554E4F5554004C
:100690004155544F4C4556454C005052494E545FBD
:1006A0004A4F420050524F47524553530041555410
:1006B0004F5245504F52545F54454D500041555490
:1006C0004F5245504F52545F504F5300564F4C5568
:1006D0004D455452494300454550524F4D00424903
:1006E0004E4152595F46494C455F5452414E534624
:1006F00045520053455249414C5F584F4E5F584F49
:100700004646004649524D574152455F4E414D4580
:100710003A4D61726C696E20322E312E322E3220AB
:100720002846656220313020323032342030383A69
:1007300031373A34362920534F555243455F434FA2
:1007400044455F55524C3A6769746875622E636F11
:100750006D2F4D61726C696E4669726D776172655D
:100760002F4D61726C696E2050524F544F434F4C65
:100770005F56455253494F4E3A312E30204D41433A
:1007800048494E455F545950453A456E6465722D4F
:10079000332045585452554445525F434F554E54AB
:1007A0003A3120555549443A636564653261326691
:1007B0002D343161322D343734382D396231322DB8
:1007C000633535633632663336376666002F2F0061
:1007D0004D31343520533C696E6465783E206F7529
:1007E00074206F662072616E67652028302D312974
:1007F0000A003F4A206F7574206F662072616E6731
:10080000652028302E303120746F20302E33290A95
:10081000002058004F4646004F4E003B200020204D
:100820004D61783A2000200020204D696E3A20006A
:10083000203B200020204D323131205300250A007A
:1008400046523A0020466C6F773A20006469730084
:10085000656E0043290A0061626C656420286D6939
:100860006E2074656D702000436F6C642065787431
:100870007275646573206172652000486F6D652034
:100880002573204669727374004F666673657473CE
:10089000204170706C696564004D494E2F4D415880
:1008A00020546F6F2046617200546F6F2066617232
:1008B0002066726F6D204D494E2F4D41580A0045FC
:1008C0004550524F4D204F4B0A004D383400446F75
:1008D0006E65207072696E74696E672066696C65FA
:1008E0000A004D3737004D333100496E76616C692F
:1008F000642065787472756465720A0020204D3238
:100900003036205800486F6D65206F6666736574D9
:10091000004361703A0020573A00436F6F6C696E74
:10092000672E2E2E0045312025530020573A0042D5
:10093000656420436F6F6C696E672E2E2E004265D2
:10094000642048656174696E672E2E2E00206661F2
:10095000696C656421204261642068656174657218
:100960002069640A00504944204175746F74756EA3
:10097000650023646566696E652044454641554CB3
:10098000545F004B6420004B6920004B7020002016
:1009900066696E6973686564212050757420746897
:1009A00065206C617374204B702C204B6920616E44
:1009B00064204B6420636F6E7374616E7473206681
:1009C000726F6D2062656C6F7720696E746F204363
:1009D0006F6E66696775726174696F6E2E680A0062
:1009E000504944204175746F74756E6500206661CE
:1009F000696C6564212074696D656F75740A0050B7
:100A00004944204175746F74756E65002066616994
:100A10006C6564212054656D7065726174757265D2
:100A200020746F6F20686967680A0050494420414C
:100A300075746F74756E6500504944204379636C1A
:100A400065730025532025692F256900204B643AE2
:100A50002000204B693A2000204B703A20002043B0
:100A60006C617373696320504944200A00205475F7
:100A70003A2000204B753A2000206D61783A200022
:100A8000206D696E3A200020643A2000206269617E
:100A9000733A200048656174696E672E2E2E00201F
:100AA00073746172740A00504944204175746F7404
:100AB000756E6500206661696C6564212054656D02
:100AC000706572617475726520746F6F20686967F4
:100AD000680A00504944204175746F74756E650052
:100AE000504944204175746F74756E65004572728B
:100AF0003A207574663820666F6E74206E6F7420AD
:100B0000696E697469616C697A65642E00457272F8
:100B10003A207574663820666F6E74206E6F74208C
:100B2000696E697469616C697A65642E00457272D8
:100B30003A207574663820666F6E74206E6F74206C
:100B4000696E697469616C697A65642E00200020A1
:100B50000020003A003A002568753A253032687561
:100B60000025303268753A253032687500253032FC
:100B70006875272530326875002568756420253032
:100B80003268753A25303268750042656400456EFA
:100B9000636C6F73757265004500200020002000B3
:100BA00020002000250020202020202020002020C0
:100BB000202000657272001FE0201020102010100D
:100BC0002010202010201030300840048003001F27
:100BD000E03FF03FF03FF01FE01FE03FF03FF03F0D
:100BE000F00FC0078003003FFFF038007030FC308A
:100BF00020FC102078102030102C00D02E31D02F67
:100C00007BD02F7BD02E31D02C00D02030102078FC
:100C10001020FC1030FC303800703FFFF03FFFF038
:100C20003800703186302387102787902F87D02F88
:100C300003D02030102078102078102030102F039F
:100C4000D02F87D0278790238710318630380070C7
:100C50003FFFF01FFFF81FFFF804104002082002BA
:100C60000820041040082080104100104100082096
:100C7000800410400000001FFFF81FFFF8F80180FB
:100C8000000C480080001243C38CD002712492678C
:100C9000CC41249E40024924904012FBB3CEE00C8C
:100CA0005072696E742041626F72746564004D32D7
:100CB000350050617573696E672E2E2E004D3234EB
:100CC000003F0049676E6F7265005265736574007E
:100CD000496E697469616C697A6520454550524F67
:100CE0004D0046696C2E204469612E004520696ED6
:100CF000206D6D5E33004D33303320553120452556
:100D00006920532569004175746F74756E65202ADA
:100D100020504944005049442D44202A0050494461
:100D20002D49202A005049442D50202A0020082017
:100D300046616374002008204D6178002008204D32
:100D4000696E004F6666004F6E004175746F746582
:100D50006D70004D696E2054726176656C20537021
:100D6000656564004D696E2056656C6F63697479C2
:100D7000004D61782040205370656564004D6178B6
:100D8000204520416363656C004D6178204020411F
:100D90006363656C0054726176656C2041636365C2
:100DA0006C005265747261637420416363656C000A
:100DB000416363656C00402073746570732F6D6DC3
:100DC00000416476616E6365642053657474696E76
:100DD0006773003F0043616E63656C00496E697420
:100DE000004D34323800496E697469616C697A6506
:100DF00020454550524F4D0046696C616D656E74DB
:100E00000054656D70657261747572650053746528
:100E100070732F6D6D004A756E6374696F6E204438
:100E2000657600416363656C65726174696F6E001D
:100E30004D617820537065656420286D6D2F73298E
:100E40000053657420486F6D65204F666673657446
:100E50007300436F6E66696775726174696F6E00C7
:100E6000000C0F00FE07022503BB017FFE08FE08F1
:100E7000FE05080806000040F0C88888987810052C
:100E80000808060000C0F88888888888F8050505E5
:100E90000600012030F83020050808060000207008
:100EA000F820202020E00509090600FF2070A8A8EE
:100EB000B888887020070505070001D86C366CD803
:100EC0000509090600FFF8A88888888888A8F80519
:100ED0000A0A0600FE205050505088A8A8887003C7
:100EE000030306000340A040FFFFFFFFFFFFFFFFDB
:100EF000FFFFFFFFFFFFFFFFFFFFFFFFFFFF000000
:100F0000000605FF01070706020080808080800040
:100F100080030303060105A0A0A005060606000045
:100F200050F85050F8500509090600FF2070A8A09D
:100F30007028A87020050707060000C8C8102040C8
:100F4000989805070706000040A0A040A8906801F7
:100F500003030602058080800309090601FF204083
:100F6000408080804040200309090601FF80404006
:100F700020202040408005070706000020A87020A0
:100F800070A8200505050600012020F82020020396
:100F9000030601FFC04080050101060003F80202BC
:100FA00002060100C0C00507070600000810102057
:100FB000404080050707060000708898A8C8887020
:100FC00003070706010040C040404040E005070716
:100FD000060000708808102040F80507070600008A
:100FE000F808103008887005070706000010305018
:100FF00090F81010050707060000F880F008088830
:1010000070050707060000304080F08888700507EB
:1010100007060000F808101020202005070706002A
:10102000007088887088887005070706000070883F
:101030008878081060020505060100C0C000C0C025
:101040000206060601FFC0C000C040800305050679
:1010500001012040804020050303060002F800F84B
:1010600003050506010180402040800507070600B2
:1010700000708810202000200507070600007088F7
:10108000B8A8B88070050707060000708888F8883F
:101090008888050707060000F04848704848F005B2
:1010A00007070600007088808080887005070706A3
:1010B0000000F04848484848F0050707060000F8D7
:1010C0008080F08080F8050707060000F88080F037
:1010D00080808005070706000070888080988870EF
:1010E000050707060000888888F8888888030707AE
:1010F000060100E04040404040E0050707060000D0
:10110000381010101090600507070600008890A0A6
:10111000C0A090880507070600008080808080803E
:10112000F805070706000088D8A88888888805077A
:10113000070600008888C8A8988888050707060061
:101140000070888888888870050707060000F08886
:1011500088F080808005070706000070888888A8CE
:101160009068050707060000F08888F0A0908805C1
:10117000070706000070888070088870050707065A
:101180000000F82020202020200507070600008806
:1011900088888888887005070706000088888888FE
:1011A00050502005070706000088888888A8A850A6
:1011B0000507070600008888502050888805070723
:1011C0000600008888502020202005070706000020
:1011D000F80810204080F80309090601FFE080802C
:1011E0008080808080E00507070600008040402066
:1011F0001010080309090601FFE02020202020200C
:1012000020E00503030600052050880501010600C3
:10121000FEF80303030601058040200505050600CE
:101220000070087888780507070600008080F0883D
:101230008888F00505050600007080808870050725
:1012400007060000080878888888780505050600E4
:10125000007088F08070050707060000304840E005
:101260004040400507070600FE70888888780870AF
:101270000507070600008080F08888888803070734
:101280000601004000C0404040E00409090601FE9C
:101290001000301010101090600507070600008045
:1012A000808890E09088030707060100C040404016
:1012B0004040E0050505060000D0A8A8A8A805053F
:1012C00005060000B0C8888888050505060000707E
:1012D000888888700507070600FEF0888888F080F7
:1012E000800507070600FE788888887808080505C5
:1012F00005060000B0C8808080050505060000785E
:10130000807008F00507070600002020F820202044
:1013100018050505060000888888986805050506F3
:10132000000088888850200505050600008888A8E8
:10133000A8500505050600008850205088050707BD
:101340000600FE88888850204080050505060000BC
:10135000F8102040F80309090601FF2040404080B2
:10136000404040200109090602FF80808080808083
:101370008080800309090601FF80404040204040F2
:10138000408005030306000248A890FF4142530035
:10139000504C41004572723A20454550524F4D2005
:1013A000436F7272757074004572723A20454550F1
:1013B000524F4D20435243004572723A20454550EA
:1013C000524F4D2053697A65004572723A20454567
:1013D00050524F4D2056657273696F6E00426564BE
:1013E000004E6F7A7A6C650046616E2053706565B9
:1013F0006400436F6E66696775726174696F6E0031
:10140000526573746F72652044656661756C7473A0
:10141000004C6F61642053657474696E6773005388
:10142000746F72652053657474696E6773005072CF
:101430006568656174202420436F6E6600416476A0
:10144000616E6365642053657474696E6773004DE3
:1014500061696E003132350035004245443A20451D
:1014600050434F53203130304B0052756E617761DD
:10147000792057617463683A204F4E004D6178209F
:1014800054656D7000323735004D696E2054656DBE
:101490007000350045313A204550434F53203130DC
:1014A000304B005053550047656E657269630050BC
:1014B000726F746F636F6C00312E3000426175641F
:1014C00000313135323030004D656C7A6920284367
:1014D0007265616C69747929004578747275646508
:1014E00072730031006D61726C696E66772E6F7277
:1014F0006700456E6465722D3300323032342D3012
:10150000322D303800322E312E322E32004D6172A3
:101510006C696E00546865726D6973746F727300E4
:10152000426F61726420496E666F005072696E741A
:10153000657220496E666F004D61696E003F004222
:1015400061636B0053746F70004D323200417474EC
:10155000616368204D65646961004D3231005072ED
:10156000696E742066726F6D204D6564696100520A
:10157000656C65617365204D656469610041626FEA
:101580007574205072696E74657200436F6E66697F
:101590006775726174696F6E0054656D7065726114
:1015A00074757265004D6F74696F6E005265737566
:1015B0006D65205072696E740054756E65005374C9
:1015C0006F70205072696E740050617573652050A1
:1015D00072696E7400496E666F2053637265656E42
:1015E000003F005374617274205072696E7400433E
:1015F000616E63656C005072696E740043616E6E5B
:101600006F7420656E746572207375626469723AD6
:10161000200002202E2E000152656672657368005C
:101620004D61696E002100486F74656E6420746FAF
:101630006F20636F6C64004261636B0050726F6374
:10164000656564004D6F76652045787472756465D4
:1016500072004D6F74696F6E0044697361626C65EE
:10166000205374657070657273004D383400417595
:10167000746F20486F6D6500473238004D61696EA8
:1016800000507265686561742024204265640050D2
:10169000726568656174202420456E640054656D30
:1016A00070657261747572650090138C13436F6F6F
:1016B0006C646F776E0050726568656174202400F9
:1016C00046616E20537065656400426564004E6F2C
:1016D0007A7A6C65004D61696E004261627973745B
:1016E0006570205A00426162797374657020400011
:1016F000466C6F770046616E2053706565640042EA
:101700006564004E6F7A7A6C65005370656564009D
:101710004D61696E00486F6D696E67204661696C46
:101720006564006F70656E005452494747455245E5
:1017300044003A20007A5F6D696E00795F6D696ED2
:1017400000785F6D696E005265706F7274696E67C4
:1017500020656E6473746F70207374617475730A9E
:10176000000000000000000000000000005761724F
:101770006E696E673A20486F6D696E672042756DBD
:10178000702044697669736F72203C20310A000230
:10179000020400006B4300006B4300007A4300002A
:1017A000A0400000A0400000004000006B4300008B
:1017B0006B4300007A4300000000000000000000BE
:1017C000000053657474696E67732053746F72659B
:1017D0006400290A002062797465733B2063726398
:1017E000200053657474696E67732053746F72655B
:1017F0006420280048617264636F646564204465F6
:101800006661756C742053657474696E6773204CDF
:101810006F616465640020286D6D290020460020FA
:10182000420020480020204D3134352053004D61C6
:1018300074657269616C206865617475702070618F
:1018400072616D65746572730020204D31343920EA
:1018500043203B20556E69747320696E2043656C8C
:10186000736975730A0054656D7065726174757281
:101870006520556E697473002020473231203B008B
:101880004C696E65617220556E69747300454550F0
:10189000524F4D206461746173697A65206572727C
:1018A0006F722E0A00202863616C63756C61746529
:1018B0006429210A0020213D2000454550524F4D0A
:1018C00020435243206D69736D61746368202D203D
:1018D0002873746F726564292000454550524F4D3E
:1018E00020436F72727570740A002053697A653AEA
:1018F0002000496E6465783A2000290A0020627948
:101900007465733B2063726320002073746F72658B
:10191000642073657474696E67732072657472698C
:10192000657665642028000000FA430000FA430051
:1019300000A0400000C8410000A0420000A04200FA
:1019400000C8430000BA42F4010000F40100006442
:1019500000000088130000204D61726C696E3D56D6
:101960003838290A00454550524F4D20766572732C
:10197000696F6E206D69736D6174636820284545D9
:1019800050524F4D3D0020436F756E7420583A0001
:10199000426564004531004500626564002C207397
:1019A000797374656D2073746F707065642120485D
:1019B00065617465725F49443A20004572723A204D
:1019C0004D415854454D50004D415854454D5020BF
:1019D0007472696767657265640048656174696EF1
:1019E00067204661696C65640048656174696E676B
:1019F000206661696C6564004572723A204D494EFB
:101A000054454D50004D494E54454D502074726917
:101A100067676572656400544845524D414C2052D9
:101A2000554E4157415900546865726D616C2052A2
:101A3000756E6177617900202F002042403A0020C6
:101A4000403A0053442063617264206F6B0A006F58
:101A500070656E526F6F74206661696C65640A0010
:101A6000766F6C756D652E696E6974206661696C40
:101A700065640A004E6F20534420636172640A005B
:101A80000A4D3234004D3233202573002E0A006F88
:101A900070656E206661696C65642C2046696C65B2
:101AA0003A200046696C652073656C6563746564F3
:101AB0000A002053697A653A200046696C65206FF8
:101AC00070656E65643A2000454E4420535542527D
:101AD0004F5554494E450A002220706F7300222052
:101AE000706172656E743A2200535542524F5554DC
:101AF000494E452043414C4C207461726765743AED
:101B0000220053756263616C6C204F766572666C5F
:101B10006F77004578636565646564206D61782042
:101B2000535542524F5554494E4520646570746870
:101B30003A00667265736800646F696E67002066BC
:101B4000696C653A20004E6F7720002F6175746FC5
:101B500025632E670002FFFFFFFFEFFFFFFFFFFF80
:101B6000FFFFFFFFFFEFEFFFFFFFFFFFFFFFFFFFA5
:101B7000E7DFFFFFFFFFFFFFFFFFFFE7DFFFFFFFE5
:101B8000FFFFFFFFFFFFE3DFFFFFFFFFFFFFFFFFA1
:101B9000FFF3CFFFFFFFFFFFFFFFFFE1E1CFFFFFFD
:101BA000FFFFFFFFFE78000003DDFFFFFFFFFEFFEA
:101BB000807E0001EEFFFFFFFFFE7DCFFC0000F7FF
:101BC0007FFFFFFFFF8E060000007BBFFFFFFFFFD0
:101BD000C0000000007DDFFFFFFFFFFC01FE0000F2
:101BE0003EE7FFFFFFFFFFFFFC00031F73FFFFFF48
:101BF000FFFFFFF800018F81FFFFFFFFFFFFE00005
:101C00000083F9FFFFFFFFFFFF00FC0000F0FFFF74
:101C1000FFFFFFE00FFFC00000FFFFFFFFFE03FF1D
:101C2000FFC00000FFFFFFFFFFFFFFF9000000FF04
:101C3000FFFFFFFFFFFFFC0007C0FFFFFFFFFFFFED
:101C4000FFFF0007E0FFFFFFFFFFFFFFFFE007F1DF
:101C5000FFFFFFFFFFFFFFFFFC07F9FFFFFFFFFF95
:101C6000FFFFFFFF03F9FFFFFFFFFFFFFFFFFF8302
:101C7000F9FFFFFFFFFFFFFFFFFFC3FFFFFFFFFFB6
:101C8000FFFFFFFFFFE1FFFFFFFFFFFFFFFFFFFF82
:101C9000F0BFFFFFFFFFFFFFFFFFFBF83FFFFFFF6E
:101CA000FFFFFFFFFFF9F83FFFFFFFFFFFFFFFFF11
:101CB0007EF0FFFFFFFFFFFFFFFFFF8E03FFFFFF31
:101CC000FFFFFFFFFFFFE01FFFFFFFFFFFFFFFFF23
:101CD000FFFFFFFFFFFFFFFFFFFFFFFFFFFFFFFF14
:101CE000FFFFFFFFFFFFFFFFFF7FFFFFFFFF000082
:101CF0007FFFFFF87FFFFFFFFF80007FFFFFE07F98
:101D0000FFFFFFFFC3FCFFFFFFF8FFFFFFFFFFC365
:101D1000FCFFFFFFF8FFFFFFFFFF87FDFFFFFFF165
:101D2000FFFFFFFFFF87FFFFFFFFF1FFFFFFFFFF49
:101D30000FE7F30FFC23FC3FFFFFFF0FEF8007F0DF
:101D400003F01E007FFE1FCF8187C787C70C007F6F
:101D5000FE001FC7C78FC79F0F0CFFFE001F878F96
:101D60001F8F1F0F1FFFFC3F9F8F8F1F8E001E3F77
:101D7000FFFC7F3F0F1E3F1E3FFE3FFFF87FFF1F10
:101D80001C3F1C7FFC7FFFF8FFFF1E1C7E1C7FFC9E
:101D90007FFFF0FFCE3E3C7E3C7FB8FFFFF0FF9E12
:101DA0003C387C387E78FFFFE1FF3C7C787C783CD7
:101DB000F1FFFFE1F8387878101801F1FFFF00001B
:101DC00060203C007C07807FFFFFFFFFFFFE1FFEBF
:101DD0001FFFFFFF6D61726C696E66772E6F726711
:101DE00000322E312E322E32001FFFFFFFFFFFFF89
:101DF000600000000001FF400000000000FF8000C4
:101E0000000000007F83CF00000C303F87FF800080
:101E10000C301F867980000C000F8C30C7838C300B
:101E2000E78C30CFC7CC31F38C30DCECEC33B98CA1
:101E300030D86C6C33198C30D06C0C33198C30D892
:101E40006C0C33198C30DC6C0E3B198C30CF7C075A
:101E50009F198C30C77C038F1940000000000002DE
:101E6000600000000000061FFFFFFFFFFFF82001D9
:101E7000400130013B014001360160013101700138
:101E80002C0190012701B0012201C0011D01F001C8
:101E900018011002130130020E01600209019002C4
:101EA0000401C002FF000003FA004003F5008003B4
:101EB000F000D003EB002004E6007004E100E00431
:101EC000DC004005D700C005D2004006CD00D0069A
:101ED000C8008007C3003008BE00F008B900C00980
:101EE000B400B00AAF00B00BAA00D00CA500000EE1
:101EF000A000500F9B00C0109600501291000014DB
:101F00008C00C0158700B0178200B0197D00D01B6F
:101F10007800001E730040206E0090226900F024BB
:101F2000640040275F0090295A00E02B5500102ED6
:101F3000500020304B0010324600E0334100903515
:101F40003C001037370070383200A0392D00B03A0D
:101F50002800A03B2300603C1E00103D1900903D6E
:101F60001400103E0F00703E0A00C03E0500003F06
:101F70000000403FFBFF803FF6FFC03FF1FF202005
:101F8000506C616E6E6572427566666572427974F8
:101F900065733A20002046726565204D656D6F724D
:101FA000793A200020436F6D70696C65643A204671
:101FB000656220313020323032340A00204C6173A7
:101FC0007420557064617465643A20323032342D67
:101FD00030322D3038207C20417574686F723A2081
:101FE000287468697369736B65697468622C20452D
:101FF0006E6465722D33290A004D61726C696E2022
:10200000322E312E322E320A0020536F66747761E1
:1020100072652052657365740A00205761746368A5
:10202000646F672052657365740A002042726F778F
:102030006E206F75742052657365740A00204578B0
:102040007465726E616C2052657365740A00506F1E
:1020500077657255700A0073746172740A004732B2
:10206000385859004D31303031006F6B0065727255
:102070006F722077726974696E6720746F20666969
:102080006C650A00446F6E6520736176696E672027
:1020900066696C652E0A00456E6473746F70730018
:1020A00025532025632025632025632025630065B3
:1020B0006E6473746F7073206869743A200024F43E
:1020C00004D9201BC40C5C0E9804C4095F02650788
:1020D0007101F405F900FB04B30048048700C10353
:1020E00069005803550003034500BE023A0084020C
:1020F000310053022A002902250004022000E401D5
:102100001C00C8011900AF011700980114008401D8
:102110001300710110006101100051010E00430114
:102120000D0036010B002B010B0020010B001501E7
:1021300009000C01090003010800FB000800F3007E
:102140000800EB000700E4000600DE000600D800EF
:102150000600D2000600CC000500C7000500C20042
:102160000500BD000400B9000400B5000400B10082
:102170000400AD000400A9000400A5000300A200B3
:1021800003009F0004009B000300980003009500DB
:10219000020093000300900003008D0002008B00FA
:1021A0000300880002008600020084000300810012
:1021B00002007F0002007D0002007B000200790027
:1021C0000200770001007600020074000200720035
:1021D0000100710002006F0002006D0001006C0040
:1021E00002006A0001006900020067000100660049
:1021F000010065000100640002006200010061004E
:102200000100600001005F0002005D0001005C0051
:1022100001005B0001005A00010059000100580054
:102220000100570001005600010055000100540054
:102230000100530000005300010052000100510052
:102240000100500001004F0001004E0000004E0050
:1022500001004D0001004C0001004B0000004B004C
:1022600001004A0001004900010048000000480048
:102270000100470001004600000046000100450043
:10228000000045000100440001004300000043003D
:102290000100420000004200010041000000410036
:1022A0000100400001003F0000003F0001003E002F
:1022B00000003E0001003D0000003D0001003C0028
:1022C00000003C0000003C0001003B0000003B001F
:1022D00001003A0000003A00010039000000390016
:1022E000010038000000380000003800010037000D
:1022F0000000370001003600000036000000360004
:1023000001003500000035000000350001003400F8
:1023100000003400000034000100330000003300EE
:1023200000003300010032000000320000003200E3
:1023300001003100000031000000310001003000D8
:10234000000030000000300001002F0000002F00CE
:1023500000002F0000002F0001002E0000002E00C2
:1023600000002E0001002D0000002D0000002D00B7
:1023700000002D0001002C0000002C0000002C00AB
:1023800000002C0001002B0000002B0000002B009F
:1023900000002B0001002A0000002A0000002A0093
:1023A00000002A0001002900000029000000290087
:1023B000000029000000290001002800000028007A
:1023C000000028000000280000002800010027006D
:1023D0000000270000002700000027000000270061
:1023E0000100260000002600000026000000260054
:1023F0000000260001002500000025000000250047
:102400000000250000002500000025000100240038
:10241000000024000000240000002400000024002C
:10242000010023000000230000002300000023001F
:102430000000230000002300000023000100220010
:102440000000220000002200000022000000220004
:1024500000002200010021000000210000002100F6
:1024600000002100000021000000210000002100E8
:1024700001002000000020000000200000002000DB
:1024800000002000000020000000200000002000CC
:1024900001001F0000001F0000001F0000001F00BF
:1024A00000001F0000001F0000001F0001001E00B0
:1024B00000001E0000001E0000001E00000024F4AA
:1024C000D43050C38E20C2A24017828B7011127A72
:1024D000910D816CD90AA861E108C758660761515E
:1024E00043061E4B5D05C145A7041A411104093D71
:1024F0009803713931034036DB0265339102D430E1
:102500005402802E1D02632CEE01752AC501B028ED
:10251000A001102781018F2564012B244B01E022AB
:102520003401AC211F018D200D01801FFC00841E91
:10253000ED00971DDF00B81CD200E61BC600201B73
:10254000BC00641AB200B219A8000A19A0006A18E7
:102550009900D117910040178B00B51684003116F1
:102560007E00B31579003A157300C7146F00581434
:102570006A00EE1366008813630025135E00C7121D
:102580005B006C12570015125400C11151007011FC
:102590004F0021114B00D61049008D104700461006
:1025A000440002104200C00F4000800F3E00420F66
:1025B0003C00060F3B00CB0E3800930E37005C0E3C
:1025C0003500270E3400F30D3200C10D3100900D9F
:1025D0003000600D2E00320D2D00050D2C00D90CA1
:1025E0002B00AE0C2900850C29005C0C2700350C53
:1025F00027000E0C2600E80B2400C40B2400A00BBF
:1026000023007D0B23005A0B2100390B2100180BEE
:102610002000F80A1F00D90A1E00BB0A1E009D0AEE
:102620001D00800A1D00630A1C00470A1B002C0ABB
:102630001B00110A1A00F7091A00DD091900C40964
:102640001900AB091900920917007B0918006309EA
:1026500017004C09160036091600200916000A0951
:102660001500F5081500E0081400CC081400B8089F
:102670001400A4081400900813007D0812006B08D1
:1026800013005808120046081200340811002308ED
:1026900011001208110001081100F0071000E007F6
:1026A0001000D0071000C0071000B0070F00A107EE
:1026B000100091070E0083070F0074070F006507D5
:1026C0000E0057070E0049070E003B070D002E07AE
:1026D0000E0020070D0013070D0006070D00F90678
:1026E0000C00ED060D00E0060C00D4060C00C80638
:1026F0000C00BC060C00B0060C00A4060B009906EA
:102700000C008D060B0082060B0077060B006C0692
:102710000B0061060A0057060B004C060A00420631
:102720000A0038060A002E060A0024060A001A06C5
:102730000A001006090007060A00FD050900F40555
:102740000900EB050900E2050900D9050900D005DB
:102750000900C7050900BE050900B5050800AD055B
:102760000800A50509009C050800940508008C05D3
:102770000800840508007C050800740508006C0545
:102780000700650508005D050700560508004E05B1
:102790000700470507004005080038050700310518
:1027A00007002A050700230507001C05060016057B
:1027B00007000F0507000805060002050700FB04D7
:1027C0000600F5040700EE040600E8040600E20433
:1027D0000700DB040600D5040600CF040600C90488
:1027E0000600C3040600BD040600B7040600B104D9
:1027F0000500AC040600A6040600A00405009B0426
:10280000060095040500900406008A04050085046E
:102810000500800406007A040500750405007004B4
:1028200005006B04050066040500610405005C04F6
:10283000050057040500520405004D040500480436
:102840000500430405003E0404003A040500350475
:102850000500300404002C040500270404002304B0
:1028600005001E0404001A040400160405001104E7
:1028700004000D040400090405000404040000041D
:102880000400FC030400F8030400F4030400F00354
:102890000400EC030400E8030400E4030400E00384
:1028A0000400DC030400D8030400D4030400D003B4
:1028B0000400CC030400C8030300C50303005D2E1D
:1028C00000006E23000013180000AF0E00003D084A
:1028D00000006304000045020000270100004D6F66
:1028E000766520246D6D00302E303235004D6F76C8
:1028F0006520302E316D6D004D6F766520316D6D28
:10290000004D6F76652031306D6D004D6F7665201E
:1029100041786973004D6F7665202A004D6F7665AA
:1029200020400020005072696E742066726F6D2026
:102930004D656469610020002000FFFFFF43616E68
:102940006E6F74206F70656E20737562646972209B
:1029500000220A00556E6B6E6F776E20636F6D6D8F
:10296000616E643A202200204500205A0020590060
:1029700020204D39322058005374657073207065E3
:102980007220756E697400627573793A2070617592
:1029900073656420666F7220696E7075740A0062D8
:1029A0007573793A2070617573656420666F722063
:1029B000757365720A00627573793A2070726F637D
:1029C000657373696E670A004D6564696120496EBD
:1029D00073657274656400000000010200090A005A
:1029E00000000004030807000000000000000000D1
:1029F00000000000000000746F6F206D7563682098
:102A0000696E6163746976652074696D65202D2037
:102A100063757272656E7420636F6D6D616E643A7A
:102A200020002121204B494C4C2063617573656463
:102A300020627920004D3131322053687574646F03
:102A4000776E0053544F505045442E200050726909
:102A50006E7465722073746F707065642064756540
:102A600020746F206572726F72732E204669782011
:102A7000746865206572726F7220616E6420757370
:102A800065204D39393920746F2072657374617215
:102A9000742E202854656D7065726174757265209E
:102AA00069732072657365742E2053657420697490
:102AB0002061667465722072657374617274696EE8
:102AC00067290A004E6F20436865636B73756D203C
:102AD00077697468206C696E65206E756D626572C9
:102AE0002C204C617374204C696E653A20004D3285
:102AF00039004E6F20436865636B73756D2077698D
:102B00007468206C696E65206E756D6265722C202C
:102B10004C617374204C696E653A2000636865638C
:102B20006B73756D206D69736D617463682C204CD7
:102B3000617374204C696E653A20004C696E6520A3
:102B40004E756D626572206973206E6F74204C61E2
:102B50007374204C696E65204E756D6265722B3101
:102B60002C204C617374204C696E653A20004D3105
:102B700031300053657269616C20737461747573D0
:102B8000206D69736D617463680A00534420726537
:102B90006164206572726F720A00DB0FC93F45BC29
:102BA000DA3F8FB30240FCF0274056946140FE4B61
:102BB0009B4084A5D840E0231841346A5641E85927
:102BC000974164DBD5416E271742B4B75542CE1A00
:102BD0009742C8AED542B5885A43D40684BFA65F93
:102BE000A7BF7443E0BF10B11AC01C2C58C0E8F650
:102BF00097C0B849D6C04E4E17C124D355C18024C2
:102C000097C1A0B5D5C1121A17C244AE55C27817E4
:102C100097C26CACD5C267885AC320746F6F206CA2
:102C20006F6E6720657874727573696F6E2070724D
:102C30006576656E7465640A0020636F6C64206558
:102C40007874727573696F6E2070726576656E74D4
:102C500065640A006F6B0A00526573656E643A2002
:102C60000000002200250028002B00000021002485
:102C70000027002A000202020202020202040404E7
:102C80000404040404030303030303030301010115
:102C90000101010101010204081020408001020429
:102CA000081020408001020408102040808040204D
:102CB00010080402017C3C3E5E2B3D3F2F5B5D3BD8
:102CC0002C2A225C0020453A00205A3A0020593A2A
:102CD00000583A004572726F722077726974696E9B
:102CE0006720746F20454550524F4D210A00456EB4
:102CF0006465722D332052656164792E00507269CB
:102D00006E74696E672E2E2E005072696E7420509C
:102D1000617573656400B7D031D611241FBECFEF43
:102D2000D0E4DEBFCDBF84B78093461314BE0FB688
:102D3000F894A8958091600088618093600010925B
:102D400060000FBE12E0A0E0B1E0E2EDF7EC01E0C0
:102D50000BBF02C007900D92A035B107D9F723E150
:102D6000A0E5B2E001C01D92A634B207E1F716E17A
:102D7000CCE8D6E104C02197FE010E9417DFCB38D2
:102D8000D107C9F70E94B2D10C94DDE30C94000086
:102D9000CF93DF93EC01CB01BA010E94B1DA20E0BE
:102DA00030E048EC52E40E9452E02FE632E143E882
:102DB0005AE30E9476DF688379838A839B83DF915D
:102DC000CF910895CF93DF93EC01CB01BA010E941C
:102DD000B1DA20E030E048EC52E40E9452E02FE605
:102DE00032E143E85AE30E9476DF688379838A837D
:102DF0009B83DF91CF910895CF93DF93EC01CB01BB
:102E0000BA010E94AFDA2AE037ED43E25DE30E94A7
:102E100052E00E94BFE0688379838A839B83DF91BD
:102E2000CF910895CF93DF93EC01CB01BA010E94BB
:102E3000B1DA2AE037ED43E25DE30E9452E06883B5
:102E400079838A839B83DF91CF910895CF93DF931A
:102E5000EC01CB01BA010E94B1DA688379838A83DD
:102E60009B83DF91CF910895CF93DF93EC01CB014A
:102E7000BA010E94B1DA20E030E048EC52E40E944E
:102E800052E02FE632E143E85AE30E9476DF68839E
:102E900079838A839B83DF91CF910895CF93DF93CA
:102EA000EC01CB01BA010E94B1DA20E030E040E24F
:102EB00051E40E9452E02AE037ED43E25CE30E94D5
:102EC00076DF688379838A839B83DF91CF9108952E
:102ED000FC01518340830895CF93DF93EC01CB0134
:102EE000BA010E94B1DA20E030E04AE754E40E94DF
:102EF00052E027E137EB41ED58E30E9476DF68832B
:102F000079838A839B83DF91CF910895FC01A0810F
:102F1000B1811C92A281B3818C918F5F8C930280CE
:102F2000F381E02D90818CE0989F800D1124EDEDD0
:102F3000F0E113AE84AF0895119800C087FD43C03F
:102F4000419800C0119A00C000C0119800C086FDD1
:102F500046C0419800C0119A00C000C0119800C03E
:102F600085FD3BC0419800C0119A00C000C0119877
:102F700000C084FD30C0419800C0119A00C000C05C
:102F8000119800C083FD25C0419800C0119A00C06F
:102F900000C0119800C082FD1AC0419800C0119A6B
:102FA00000C000C0119800C081FD0FC0419800C052
:102FB000119A00C000C0119800C0419800C0119A39
:102FC00000C000C00895419ABCCF419AF0CF419A09
:102FD000E5CF419ADACF419ACFCF419AC4CF419AF7
:102FE000B9CF90E080E00895CF93DF93C091610561
:102FF000D091620581E0CE31D105E4F020E030E0EF
:1030000040E05FE360915D0570915E0580915F0532
:10301000909160050E9476DF0E94BAE06C1B7D0BE8
:1030200077FF03C071956195710981E06330710587
:103030000CF080E0DF91CF91089590E080E008955A
:1030400020911B11833021F425FD0CC024FD0CC000
:1030500030E0A90102C0559547958A95E2F7CA016B
:103060008170089581E0089580E00895809175034E
:1030700084FD0BC08091770387FD07C09091780392
:10308000937081E019F480E0089581E008952FEBBA
:10309000280F2A3108F047C0E22FF0E08091750335
:1030A00090917603A0917703B091780304C0B69510
:1030B000A795979587952A95D2F780FD02C08170D4
:1030C0000895E55AFC4FE081EE2341F18091AB0574
:1030D0009091AC05E80FF92FF11D808190ED980FCC
:1030E0009A3030F08E3251F4818180538A3098F4D6
:1030F000F0935403E093530381E008958D3211F06F
:103100008B3249F4818190ED980F9A3088F38E329A
:1031100011F48281EACFF0E0E0E0EACF10925403AC
:1031200010925303E9CF80E00895CF93DF9385E4B5
:10313000AEDF882309F188E0409175035091760352
:103140006091770370917803972F9170C92F90E069
:10315000D92FCC0FDD1F71FB222720F930E0220F81
:10316000331F220F331FC22B67FB442740F9C42BA8
:103170008C2BDF91CF91089580E0DECF88DF88230C
:1031800041F081E02091530330915403232B09F443
:1031900080E00895A4E0B0E0E0EDF8E10C9442DFB7
:1031A0000E94AFDA69837A838B839C83CE01019678
:1031B0000E94B1902496E2E00C945EDF0E94AFDAA8
:1031C0002AE037ED43E25DE30E9452E00E94BFE057
:1031D000E1CFCF92DF92EF92FF92CF93DF9300D0B7
:1031E00000D0CDB7DEB76B017C0120E030E0A90153
:1031F0000E94ABDA87FD1BC06DEB77E386E095E3B9
:10320000A70196010E9476DF69837A838B839C8372
:10321000CE0101960E94B1900F900F900F900F90E9
:10322000DF91CF91FF90EF90DF90CF9008956DEBFD
:1032300077E386E095EBE4CF0E94B1DA2AE037ED40
:1032400043E25DE30E9452E0C4CF0E94B1DAC1CFF5
:10325000CF92DF92EF92FF92CF93DF9300D000D016
:10326000CDB7DEB76B017C0120E030E0A9010E9400
:10327000ABDA87FD1BC06DEB77E386E095E3A70132
:1032800096010E9476DF69837A838B839C83CE01CB
:1032900001960E941E910F900F900F900F90DF915A
:1032A000CF91FF90EF90DF90CF9008956DEB77E393
:1032B00086E095EBE4CF0E94B1DA20E030E040E216
:1032C00051E40E9452E02AE037ED43E25CE30E94C1
:1032D00076DFBECF8F929F92AF92BF92CF92DF9256
:1032E000EF92FF926B017C0120E030E0A9010E9487
:1032F000ABDA87FDC3C06DEB77E386E095E3A7010A
:1033000096010E9476DF6B017C0120E030E0A9018C
:103310000E94ABDA87FF04C0F7FAF094F7F8F09454
:1033200042E050E0C701B6010E94E98F6B017C01C9
:1033300060E280E4C81682E4D8068FE0E806F10473
:103340008CF0C701B60120E432E44FE050E00E9467
:10335000A8DECA01B9012AE030E040E050E00E9456
:10336000A8DE605D6093160460E280EAC81686E815
:10337000D80681E0E806F1048CF0C701B60120EA26
:1033800036E841E050E00E94A8DECA01B9012AE017
:1033900030E040E050E00E94A8DE605D60931704DA
:1033A00060E280E1C81687E2D806E104F1048CF0FF
:1033B000C701B60120E137E240E050E00E94A8DEFC
:1033C000CA01B9012AE030E040E050E00E94A8DEE6
:1033D000605D6093180460E288EEC81683E0D8064A
:1033E000E104F1048CF0C701B60128EE33E040E0BF
:1033F00050E00E94A8DECA01B9012AE030E040E0B6
:1034000050E00E94A8DE605D60931904C701B60118
:1034100024E630E040E050E00E94A8DE8AE0882EFA
:10342000912CA12CB12CCA01B901A50194010E94D3
:10343000A8DE605D60931A048EE280931B04C701CE
:10344000B601A50194010E94A8DE6B01CA01B90171
:10345000A50194010E94A8DE605D60931C0480E3D6
:10346000C80EC0921D0486E194E0FF90EF90DF90BB
:10347000CF90BF90AF909F908F9008956DEB77E3C2
:1034800086E095EB3CCF0E94B1DA20E030E048ECDA
:1034900052E40E9452E02FE632E143E85AE30E94F0
:1034A00076DF18CF8F929F92AF92BF92CF92DF922A
:1034B000EF92FF926B017C0120E030E0A9010E94B5
:1034C000ABDA87FD6AC06DEB77E386E095E3A70191
:1034D00096010E9476DF43E050E00E94E98F6B0185
:1034E0007C01C114D104E104F10409F45BC0F7FECE
:1034F00059C0F094E094D094C094C11CD11CE11C3C
:10350000F11C8DE280931804C701B60128EE33E068
:1035100040E050E00E94A8DE8AE0882E912CA12C89
:10352000B12CCA01B901A50194010E94A8DE605D19
:10353000609319048EE280931A04C701B60124E651
:1035400030E040E050E00E94A8DECA01B901A501C8
:1035500094010E94A8DE605D60931B04C701B60160
:10356000A50194010E94A8DE6B01CA01B901A50161
:1035700094010E94A8DE605D60931C0480E3C80E85
:10358000C0921D0488E194E0FF90EF90DF90CF900F
:10359000BF90AF909F908F9008956DEB77E386E09A
:1035A00095EB95CF80E2AECF0E94B1DA20E030E01B
:1035B0004AE754E40E9452E027E137EB41ED58E33B
:1035C0000E9476DF6FCFCF92DF92EF92FF92CF9380
:1035D000DF9300D000D0CDB7DEB70E94B1DA20E093
:1035E00030E048EC52E40E9452E02FE632E143E83A
:1035F0005AE30E9476DF6B017C0120E030E0A901F4
:103600000E94ABDA2DEB37E346E055E387FF04C0B9
:103610002DEB37E346E055EBC701B6010E9476DF9C
:1036200069837A838B839C83CE0101960E943790B5
:103630000F900F900F900F90DF91CF91FF90EF9030
:10364000DF90CF900895CF92DF92EF92FF92CF93C9
:10365000DF9300D000D0CDB7DEB70E94B1DA20E012
:1036600030E048EC52E40E9452E02FE632E143E8B9
:103670005AE30E9476DF6B017C0120E030E0A90173
:103680000E94ABDA2DEB37E346E055E387FF04C039
:103690002DEB37E346E055EBC701B6010E9476DF1C
:1036A00069837A838B839C83CE0101960E94D1919A
:1036B0000F900F900F900F90DF91CF91FF90EF90B0
:1036C000DF90CF900895CB010C94328E0C94877BC1
:1036D0000C94877B0C94437B0C94437B0C94437B2E
:1036E0000C94437BCF92DF92EF92FF920F931F9344
:1036F0000E9467B00091810310918203209183039F
:10370000309184036B017C01C01AD10AE20AF30AEA
:103710009701860137FD11C02091800320952093E9
:1037200080036A547C4F8F4F9F4F60938103709347
:103730008203809383039093840381E090918003BC
:10374000911101C080E01F910F91FF90EF90DF90E9
:10375000CF900895CF93DF93C0916105D09162051A
:10376000209729F160915D0570915E0580915F055C
:10377000909160050E94BAE06E5F7F4F24976C17AE
:103780007D07ACF470934C0460934B040E9467B0C7
:10379000605A75418F4F9F4F60934D0470934E0454
:1037A00080934F0490935004DF91CF91089510922D
:1037B0004D0410924E0410924F0410925004F4CF16
:1037C00063E972E084E690E00E940C9870E060E0AB
:1037D0008AE090E00E940C986AEB72E084E690E048
:1037E0000C940C980E94138CEBCF882309F0E8CF3F
:1037F00068E270E080E991E00C940C980E94627895
:10380000F4CF0E94FC8CF1CFB0E0A0E0EAE0FCE154
:103810000C943BDF6B01E9014A3009F4D5C0453116
:1038200009F081C0DB011296ED91FC91F280968146
:103830008781139A00C00000E6E2F0E03197F0F7CC
:10384000092F182FEF2CE29420EFE22230E1B32E63
:10385000BF0CE80188EF70DB00C0000086E290E05A
:103860000197F0F7BFE1BF1508F49BC08F2D80775B
:10387000806862DB8E2D60DB00C0000086E290E095
:103880000197F0F780E858DB80E056DB00C00000CD
:1038900086E290E00197F0F78AEF4EDB00C000006F
:1038A00086E290E00197F0F7005F1F4F8881807FEC
:1038B00043DB89918295807F3FDBC017D107B1F749
:1038C00000C0000086E290E00197F0F7F394E0E199
:1038D000EE0EFB10BECF1398D6011296ED91FC911F
:1038E00080819281980F92832181921708F09FC165
:1038F00094819F5F94839381890F821710F08FEFDB
:10390000820F8383458150E0440F551F70E060E0D3
:10391000868197810E9489E381E0CDB7DEB7E9E037
:103920000C9457DFDEC1FB0102811381423309F49D
:1039300085C108F48DC1463409F475C1473409F4D2
:1039400082C14B3349F789812B81D80112967C9132
:10395000129713963C91213009F4BFC1233009F02E
:10396000A0C148EF480F582F91E0341708F490E0B9
:1039700031E0541708F030E0492F432B61E057172E
:1039800008F460E0462311F4932331F2FA8030E02A
:10399000F901EE57FE4FD08022583E4FF901E080EA
:1039A00099C180EE8F0D8068807FC6DA8F2D829559
:1039B000807FC2DA00C0000086E290E00197F0F755
:1039C00080E8BADA80E861CF0B9A1398399A419867
:1039D000099A119A139A00C0000086E290E00197BC
:1039E000F0F788E790E0CEE9DFE0FE013197F1F7EC
:1039F0000197D9F788EFA0DA00C0000086E290E0D6
:103A00000197F0F780E298DA80E096DA00C00000D3
:103A100086E290E00197F0F780E08EDA80E88CDAB9
:103A200000C0000086E290E00197F0F780E084DAC1
:103A300080E182DA00C0000086E290E00197F0F7B2
:103A4000CE010197F1F7CE010197F1F7CE01019771
:103A5000F1F7CE010197F1F7CE010197F1F7CE0111
:103A60000197F1F7CE010197F1F7CE010197F1F738
:103A7000CE010197F1F7CE010197F1F7CE01019741
:103A8000F1F7CE010197F1F7CE010197F1F7CE01E1
:103A90000197F1F72197F1F780E24EDA80E44CDAF2
:103AA00000C0000086E290E00197F0F780E244DA7F
:103AB00080E642DA00C0000086E290E00197F0F76D
:103AC000D0E0C0E08C2F8077806836DA8D2F34DA32
:103AD00000C0000086E290E00197F0F780E82CDA61
:103AE00080E02ADA00C0000086E290E00197F0F75B
:103AF0008AEF22DA00C0000086E290E00197F0F73A
:103B000080E2119800C0419800C0119A00C000C026
:103B1000119800C0419800C0119A00C000C01198CF
:103B200000C0419800C0119A00C000C0119800C0A8
:103B3000419800C0119A00C000C0119800C041987F
:103B400000C0119A00C000C0119800C0419800C088
:103B5000119A00C000C0119800C0419800C0119A8D
:103B600000C000C0119800C0419800C0119A00C068
:103B700000C0119800C0419800C0119A00C000C058
:103B8000119800C0419800C0119A00C000C011985F
:103B900000C0419800C0119A00C000C0119800C038
:103BA000419800C0119A00C000C0119800C041980F
:103BB00000C0119A00C000C0119800C0419800C018
:103BC000119A00C000C0119800C0419800C0119A1D
:103BD00000C000C0119800C0419800C0119A00C0F8
:103BE00000C000C00000E6E2F0E03197F0F781503D
:103BF00009F087CF88EFA0D900C0000086E290E0EE
:103C00000197F0F7CF5FD05FC03209F05BCF80E063
:103C100093D980EC91D900C0000086E290E0019732
:103C2000F0F7139879CEF8018581888375CE80E00E
:103C3000CDB7DEB7E9E00C9457DF53C0B901C80136
:103C40000E944AB169CED80111968C91888364CEC6
:103C5000443191F0473109F05FCE1882D8011296B5
:103C60008C911297898315968C91159781508A8330
:103C700013968C918B8350CED80115964C91159745
:103C800050E0440F551F70E060E016968D919C91B6
:103C90000E9489E3F801128280818150838314821B
:103CA0003BCE381708F438CE871708F435CEFA80A3
:103CB000E12CD12C243070F46ACEBE01C8010E94E0
:103CC0004AB1898198819D0D98838E0D8983FF0C5F
:103CD00009F422CEF7FEF6CFF0CF58E0580F482F68
:103CE00043CEEF92FF920F931F93CF93DF93EC019C
:103CF0008B017A018A859B858617970731F0888129
:103D000099810E9432B31B870A87B7018881998104
:103D10000E948FAD2E813F81820F932F911D9F8333
:103D20008E8390E080E0CDB7DEB7E6E00C945ADFFA
:103D3000B0E0A0E0EEE9FEE10C943ADFEC017B019B
:103D40008A018A859B858617970731F0888199813A
:103D50000E9432B3FB86EA8688859985019609F52B
:103D6000CC80DA808E81D80EA880B980D501559696
:103D7000ED91FC91C5010995C80E780110E0F7019D
:103D800021917F0121111FC08E819F81810F911D83
:103D90009F838E8390E080E0CDB7DEB7EAE00C949D
:103DA00056DFEE80FF80B801888199810E948FAD37
:103DB0008E0D9F2D911D288539852817390780F68E
:103DC00081E090E0E9CF4C2D6D2DC5010E948AB3B2
:103DD000D80E180FD4CFB0E0A0E0E1EFFEE10C94D4
:103DE0003DDFEC01D62E1CAD0BAD7C0184E0E80E6E
:103DF000F11CE98DFA8DC7010995412F480F2D2D32
:103E0000602FC7010E948AB39BAD890F8BAF81E001
:103E100090E0CDB7DEB7E7E00C9459DFCF93C091C7
:103E20009803CC23C9F14CE050E060E270E08AE8EE
:103E300093E00E9489E32C2F30E060E2C43630F03A
:103E4000C90164E670E00E9404DF605D60931B04BA
:103E500080E2CA3058F0EAE0F0E0C901BF010E94F8
:103E600004DFCB01BF010E9404DF805D80931C044E
:103E7000C9016AE070E00E9404DF805D80931D0448
:103E800083E0EBE1F4E0AEE8B3E001900D928A95B7
:103E9000E1F785E280939103CF910895ACE0B0E023
:103EA000E4E5FFE10C943CDFF0901811E09019116B
:103EB00020918503211112C04DE05BE06E2D8F2D06
:103EC0000E94E3B390E080E0F80EF0921811E092C7
:103ED000191199272C96E8E00C9458DFC090E51052
:103EE000D090E61021EE30E13A8329832F2D30E087
:103EF0003C832B832E2D30E03E832D8318861F823A
:103F00007A8769871C861B8608E91EE19E012F5F60
:103F10003F4F49E357E6BC01C6010E949BA7B6018B
:103F200081EE90E10E9432B38F819885CDCF809150
:103F3000530390915403009731F04AE050E070E051
:103F400060E00C94CCD860E070E0CB0108958091E3
:103F5000530390915403009731F04AE050E070E031
:103F600060E00C94A1D760E070E0CB010895EFDF32
:103F7000CB010895ECDF97FD0AC0E9DF6F3F7105C3
:103F80008105910509F02CF4E2DF862F089580E089
:103F900008958FEF08958091530390915403892BD6
:103FA00039F0E8DF91E0811101C090E0892F089598
:103FB00091E0FCCFCF93DF93C82FD62FDFD8882393
:103FC00021F0E9DFDF91CF9108958C2F60D8811126
:103FD000F9CF8D2FF7CF0F931F93CF93809153037A
:103FE000909154030097F9F0FC018F01C1912C2F9F
:103FF0002F7DA1F0C53431F0C53621F0C83511F060
:10400000C83799F7F801108270E060E00E944CD642
:10401000F801C083CF911F910F91089570E060E087
:104020000E944CD6F7CF60E070E0CB01F3CF4F9207
:104030005F926F927F92AF92BF92CF92DF92EF9298
:10404000FF920F931F93CF938AE7A82E81E0B82E9B
:104050009FE2E92E94E0F92E06E51FE026E6C22E47
:104060002FE0D22EC0E0F50181915F0187D888232F
:1040700009F478C0B0DF2B013C018C2F0E9420187E
:10408000882309F465C0F801208131814281538180
:10409000C301B2010E9476DFF701608371838283DE
:1040A0009383CF5FF4E0EF0EF11C0C5F1F4F84E0B1
:1040B000C80ED11CC330B9F685E460D8882309F452
:1040C0005CC089DF6B017C0183E00E94201888239B
:1040D00071F02091620F3091630F4091640F509105
:1040E000650FC701B6010E9476DF6B017C01C092AB
:1040F0003B04D0923C04E0923D04F0923E0486E4FE
:104100003DD88823B9F067DF20E030E0A9010E94A4
:104110009CE118167CF45FDF20E030E040E752E4D9
:104120000E9452E0609308017093090180930A0194
:1041300090930B01CF911F910F91FF90EF90DF9023
:10414000CF90BF90AF907F906F905F904F90089509
:10415000F6012081318142815381C301B2010E9465
:1041600075DF9ACFF80180819181A281B381F70137
:1041700080839183A283B38394CF8091620F9091C7
:10418000630FA091640FB091650F80933B049093EF
:104190003C04A0933D04B0933E04B1CFB0E0A0E056
:1041A000E4EDF0E20C9442DF20E24F8158856E810D
:1041B0008D810E94DEACE2E00C945EDF282F10922D
:1041C00096058091810590918205A0918305B0911B
:1041D0008405B7FF08C010928105109282051092E5
:1041E00083051092840580911204882331F0809118
:1041F00081058093760510929105809170051816BF
:10420000FCF4082E000C990B821B91092091760575
:10421000022E000C330B2817390794F097FF02C0C9
:1042200090E080E080937605092E000CAA0BBB0B72
:104230008093810590938205A0938305B0938405B4
:10424000809176056623A9F090917705891714F47B
:104250008093770520917705022E000C330B2C5F9D
:104260003F4F482F082E000C550B241735071CF420
:104270008450809377050895E091FD03E63028F59A
:1042800081E08E0F8093FD0340918105509182055E
:104290006091830570918405209177059091700558
:1042A0008091150439E0E39FF0011124E953FC4F9C
:1042B000A091DB10B091DC10B183A08342835383C3
:1042C000648375832683978380870895B0E0A0E098
:1042D000ECE6F1E20C9442DF8D81282F082E000CD1
:1042E000330B90911C109217130609F09CF48093E5
:1042F0001C109E01285F3F4F4E815F8164E570E096
:1043000087EC9FE00E9473DA1092C60F1092C50FDF
:104310001092C40FE2E00C945EDF0F931F93CF93D3
:10432000DF938C016F3F19F410921C1060E0209114
:104330001C10862F062E000C990B2817190609F061
:1043400024F560931C10C8010E94FAD9800F911FB8
:10435000EC01C01BD10BC535D1053CF00197FC0128
:104360002491207C2038D1F3F3CFDD27AE01B801B2
:1043700087EC9FE00E941BDAC953D04F188210923D
:10438000C60F1092C50F1092C40FDF91CF911F91ED
:104390000F9108950F931F930E9467B00091BB0384
:1043A0001091BC032091BD033091BE03601B710BC3
:1043B000820B930B97FD0CC089B183FB882780F992
:1043C00091E089274A9B8260309B84608093BA0386
:1043D0008091BA0381709091BA0391FD82609091AF
:1043E000B903981749F0813009F148F0823079F02B
:1043F000833091F08093B9031F910F91089591300C
:1044000079F09230B9F79091B80391500CC099238C
:1044100039F09330C1F3EECF9130A9F3923051F7D8
:104420009091B8039F5F9093B803E4CF992359F319
:10443000933001F7F5CFCF92DF92EF92FF92CF93B7
:10444000C82F0E9467B06B017C0124EA30E74DE77A
:104450005FE3609118017091190180911A019091A8
:104460001B010E94ABDA87FD18C08AEF90E0A0E044
:10447000B0E08C0D9D1DAE1DBF1D8093AC039093CD
:10448000AD03A093AE03B093AF03C0931501CF91DA
:10449000FF90EF90DF90CF90089580E090E0DC01F6
:1044A000E8CF8F3010F48F5F08958F500895CF9329
:1044B00080918603811154C0109218111092191125
:1044C00010921A111092E6101092E5101092E81056
:1044D0001092E7101092EA1081E08093E91082E2D6
:1044E0008093EB101092F0101092EF10E4E0F1E1E5
:1044F00022E131E18FEF81932E173F07E1F7C1E011
:10450000C093011129EA34EA3093F7102093F61092
:10451000C093F8101092F9101092FA1090E4909352
:10452000FB101092FC1028EA34EA30931311209308
:1045300012112EE031E03093E4102093E3109EE15D
:104540009093081191E1909309119CE190930611C9
:1045500080930511809304110E9489B1C093860352
:1045600081E0809385038AE99BE090931E108093FD
:104570001D101092201010921F1053985B9A5298A1
:104580005A9A3898409A06DF1092B8030E94EAA718
:10459000CF9108959CE0899F802D112491E0980F80
:1045A00090937F032CE0280F2093990530E02E5F35
:1045B0003F4F409115114217130619F014F080E097
:1045C0000895209117119217D0F7662341F08E5F5E
:1045D0000E946EB2809199058E5F0E946EB28091AA
:1045E000990590911511891750F320911711909109
:1045F0007F03291720F3109218118093191181E07D
:10460000089520917E03022E000C330B82171306AF
:1046100041F080937E0360E67EE081EE90E10C94B1
:1046200032B30895ACE0B0E0E8E1F3E20C943EDF91
:10463000FC0160817181828193816F3F71058105E9
:10464000910509F070F48DED90E1C5DBE091E51086
:10465000F091E6103196849190E02C96E6E00C946F
:104660005ADF109118110091191120918503211121
:104670000FC04DE25BE0602F812F0E94E3B390E01A
:1046800080E0180F10931811009319119927E5CFA6
:10469000E090E510F090E61021EE30E13A832983B6
:1046A000212F30E03C832B83202F30E03E832D836D
:1046B00018861F822FEF3FEF3A8729871C861B86BB
:1046C00028E93EE1AE014F5F5F4FBF01C7010E9485
:1046D00004A7B70181EE90E10E9432B38F819885E3
:1046E000D0CFA8E0B0E0E7E7F3E20C9434DF6C0150
:1046F0005A014901FB0190818CE0989F800D1124A3
:10470000982FF6012081822F880F820F880F8093C7
:104710001811909319114115510509F4A0C0DA82BE
:10472000C9827C836B83011122C0AE014B5F5F4F56
:10473000B401C5010E9454985C018D819E81AF81B6
:10474000B885892B8A2B8B2B09F489C0CE0105965D
:1047500069DFF60180818F5F8083853130F3CE0180
:1047600001960E948617E1CF10E075010DC07A0115
:1047700010E00AC0E114F104B9F38FEFE81AF80A67
:1047800010E0E114F10489F3AE014B5F5F4FB40117
:10479000C5010E9454985C014D805E806F807884D2
:1047A0004114510461047104E9F0F0E24F16510420
:1047B00061047104A9F0D301C2018D97A109B10967
:1047C0000297A105B10570F04BE244165104610453
:1047D000710441F05AE04516510461047104E9F591
:1047E000112341F2F6018081482F410F5527551FB3
:1047F0004631510534F0853020F0CE0101960E94FB
:10480000861781E0411451046104710409F480E0C9
:10481000180FF6018081810F8083112369F01150F8
:10482000AE014B5F5F4FB401C7010E9454987C01F9
:10483000CE010596F7DEF1CF4114510461047104F5
:1048400071F0FAE04F1651046104710409F08CCF45
:10485000CE0101960E94861788CF1F5F92CF2896BF
:10486000E0E10C9450DF6FEF7FEF18CBEDEDF0E15E
:1048700083AF64AFCA01F7CFF6CFCF93DF93FC01CC
:1048800025AD211104C021E025AF0E9489B1C0915E
:10489000E310D091E410E0911211F091131182E035
:1048A0000995E0911211F091131181E0099530E022
:1048B00020E044E1BE0181EE90E10E9484B124E158
:1048C00031E147E1BE0181EE90E10E9484B1E091C7
:1048D0001211F091131180E00995DF91CF910895A5
:1048E000ACE0B0E0E6E7F4E20C943CDFF0901811A5
:1048F000E090191120918503211112C04DEE5AE06C
:104900006E2D8F2D0E94E3B390E080E0F80EF092C0
:104910001811E092191199272C96E8E00C9458DFB1
:10492000C090E510D090E61021EE30E13A83298363
:104930002F2D30E03C832B832E2D30E03E832D83C2
:1049400018861F827A8769871C861B8608E91EE104
:104950009E012F5F3F4F4CE357E6BC01C6010E940A
:104960009BA7B60181EE90E10E9432B38F819885BA
:10497000CDCFA8E0B0E0EFEBF4E20C9436DF7C01A1
:10498000162F5A014901862F660F990B9C01265854
:104990003E4F690186E0682E712C10160CF03CC069
:1049A000AE014B5F5F4F69E377E6C7010E94549801
:1049B0007C018D819E81AF81B8850097A105B105ED
:1049C00059F18B379105A105B10509F461C08E3706
:1049D0009105A105B10509F45BC08A329105A105D5
:1049E000B105F9F417FF11C08EE89BE01E3F11F0EE
:1049F0008AE89BE036E00302B00111244FDA66E05A
:104A000070E00E9404DF061B7BC088E99BE034DF76
:104A1000015009F03FC000E0802F2896EEE00C9492
:104A200052DF84329105A105B105C1F481149104CE
:104A300059F0E6E00E02B0011124C4012FDAB301EF
:104A40000E9404DF061BA9CFA114B104E1F0F6E037
:104A50000F02B0011124C50143DFF1CF803491056D
:104A6000A105B10581F40150F6018081082E000CEA
:104A7000990BAA0BBB0B89839A83AB83BC83CE01B2
:104A80000196D0DD8ACFCE010596CCDD015085CFD1
:104A900017FDAACF81E04D815E816F8178854B370C
:104AA00051056105710509F480E0810F8A30C4F079
:104AB00001506AE00E94E3DED92E082E000C990B0B
:104AC000C096092E000CAA0BBB0B89839A83AB837B
:104AD000BC83CE010196A6DD002309F49CCF8D2D69
:104AE000082E000C990BC096092E000CAA0BBB0BCC
:104AF00089839A83AB83BC83CE01019693DD0150F9
:104B0000002309F488CF86E00802B0011124C70110
:104B1000C5D966E070E00E9404DF061B7DCFB0E0DF
:104B2000A0E0E5E9F5E20C9438DF5B01C42F6901F0
:104B300041FB662760F92EDD882309F461C010E08F
:104B400000E0A114B10439F0C5010E94389866E074
:104B5000869F80011124F12CE12CC114D10429F08D
:104B6000C6010E944698E82EF12CC0FF1FC080E8C5
:104B700090E0801B910B4AEFB70146039001479FDD
:104B8000300D1124820F931F6CE070E00E9404DF4F
:104B90004B01C0E8D0E071E0871A910897FC08C08B
:104BA0008FE49BE060DEC81BD90BF5CFC0E8D0E0F6
:104BB00001151105B1F0CE0166E070E00E94F0DE53
:104BC00020919D0530919E0540919B0550919C053B
:104BD000062F60919A05C501CCDE96E0899FE00121
:104BE0001124E114F10429F0BE01C60179DEC81BCD
:104BF000D90BC730D10520F08DE49BE034DEF7CF30
:104C0000CDB7DEB7ECE00C9454DF809152018823DD
:104C100049F0609102047091030430E020E041E02B
:104C200081E07DCF08956FEF7FEF5ACEA4E0B0E032
:104C3000ECE1F6E20C9438DF4C016B010E943898ED
:104C4000A82EC6010E944698B12C23E130E07901DC
:104C5000E81AF10815E2EA14FB040CF41FE1812FB5
:104C600090E09C012E5F3F4F4091151142171306B3
:104C700009F094F50997209117112817190664F186
:104C800020919D0530919E0540919B0550919C057A
:104C900060919A05109218111093191105E1C40141
:104CA00068DE01E0C114D10499F085E59BE0E4DD04
:104CB000EA14FB049CF4145F80911511181740F05E
:104CC00020911711412F4950550B2417150644F414
:104CD0002496ECE00C9454DF00E0E4CF0023C1F311
:104CE00080E290E0A0E0B0E089839A83AB83BC834C
:104CF0008E2D880FE80EEE0CE0921811109319110A
:104D0000CE0101968FDCC6018EDFE2CFACE0B0E0D1
:104D1000ECE8F6E20C9438DF982F862F5A016901EF
:104D2000E02E692F37DC882309F487C0C6010023F1
:104D300081F10E943898F82E8090E5109090E6104E
:104D400080918503811143C02FEF3FEF922E03E145
:104D50000F1920919D0530919E0540919B05509122
:104D60009C0560919A05C50104DEFF2009F465C029
:104D7000B6E08B9F8001112483E59BE07DDD073049
:104D8000110508F442C081E59BE06DDD081B190B9D
:104D9000F6CF0E944698F82E8090E5109090E6108D
:104DA00080918503882381F2FE0133968AE0DF013A
:104DB0001D928A95E9F781EE90E19A83898301E754
:104DC0001EE19E012F5F3F4F4CE357E612C0FE01EC
:104DD00033968AE0DF011D928A95E9F781EE90E132
:104DE0009A83898301E71EE19E012F5F3F4F49E3CC
:104DF00057E6B601C4010E949BA7B40181EE90E181
:104E00000E9432B32F813885A1CF40919905292D79
:104E100030E056E0F59EC00111242E5F3F4F281769
:104E200039070CF49C0180E8821B80931811409391
:104E30001911C601EE2029F016DD2C96ECE00C9439
:104E400054DFF1DEFACF0C946FA8CF93DF93DB0130
:104E5000F9019C919130C1F0943080F094509C9372
:104E60008830D1F480819181009771F0019791830E
:104E70008083480F591FEA01188206C08C3539F427
:104E80009C5F9C93943041F4DF91CF9108958B33D4
:104E900039F781E08C93F8CF20813181B9016F5FC0
:104EA0007F4F71836083420F531FEA0188838081A3
:104EB00091818F3591056CF7E7CF0F931F9381E0B8
:104EC000009131121091321220913312309134122C
:104ED00040912D1250912E1260912F12709130122C
:104EE000041715072607370708F480E01F910F9174
:104EF00008954F925F926F927F928F929F92BF928E
:104F0000CF92DF92EF92FF920F931F93CF93DF9395
:104F100010927A03109279032FE320937D0310926D
:104F20007C0310927B03109275031092760310920B
:104F30007703109278039C01F90190812F5F3F4F16
:104F40009032D1F39E34C9F4818190ED980F9A305C
:104F500020F08D3211F08B3281F432969F012F5F59
:104F60003F4F808180538A3008F46DC09F012F5FCE
:104F70003F4F8081803209F468C0F093AC05E09324
:104F8000AB058F010F5F1F4FC0816AE270E0C8015F
:104F90000E94A3E3009731F0FC01319780818032B9
:104FA000E1F31182CD3421F0C43511F0C734D9F5C5
:104FB000F80180810F5F1F4F8032D1F380538A3018
:104FC00090F5C0937D0390E080E06AE0AF014F5F11
:104FD0005F4F689F9001699F300D1124C901C097F0
:104FE0002081820F911D27FD9A95FA01208120537F
:104FF0002A3060F390937C0380937B03DF0131962A
:105000002C912032D9F3CD3461F58E31910539F0F0
:10501000F0F48731910519F08C31910511F5B093B9
:105020007A03A0937903DF91CF911F910F91FF90A5
:10503000EF90DF90CF90BF909F908F907F906F9078
:105040005F904F900895F90189CFF9018FCF85378F
:10505000910538F08737910510F3803A13E09107F6
:10506000F1F28090AB059090AC0540E050E0BA01C1
:1050700030E020E0C12CD12C7601C394FD013196A3
:10508000DC91DD2309F484C0D132F1F4CD34E1F4B4
:1050900080329105C9F44093750350937603609371
:1050A000770370937803F0937A03E093790363E2D4
:1050B00070E0CF010E94A3E3009709F4B4CFFC0194
:1050C0001082B1CFDF01DACFD154DA3108F05BC002
:1050D000DF011D91103291F0A0EDA10FAA30E8F090
:1050E0001E3271F4A181A053AA30B8F02115310508
:1050F00019F49F0121503109B12C13C0FD01E8CFF3
:105100001D3211F01B3291F7A181B0EDBA0FBA3008
:1051100020F0AE3259F7A281E6CFBE2EB8183097F4
:1051200059F3AD2FB0E02601370104C0440C551CE3
:10513000661C771CDA95D2F7442955296629772908
:10514000A55ABC4FBC92A081A154AA3108F4BACF91
:10515000DF01D191DD2309F491CF00EDB02EBD0E1A
:1051600019E01B15A8F713EDB12EBD0E11E01B15AC
:1051700078F7DB3269F3FD013196DC91D03209F02A
:105180007DCFDF01F8CF21153105E9F69D01DBCF99
:1051900030937A03209379034093750350937603F9
:1051A00060937703709378033ECF81E080939110F2
:1051B000089521E732EB47E25EE3609105047091C8
:1051C000060480910704909108040E9452E06093C5
:1051D000AE107093AF108093B0109093B110E5CFE4
:1051E00021E732EB47E25EE36091090470910A0423
:1051F00080910B0490910C040E9410DB6093AA1024
:105200007093AB108093AC109093AD10CECF809183
:105210000D0490910E04A0910F04B091100480939E
:10522000A6109093A710A093A810B093A910BDCF7B
:10523000CF92DF92EF92FF926B017C0183E3C8165D
:10524000D104E104F10470F082E3C81AD108E10846
:10525000F10862E370E080E090E00E94DEAF0E941F
:105260001274ECCFC701B6010E94DEAF0E94127427
:10527000FF90EF90DF90CF9008958091C30F813021
:1052800069F09091351292FB882780F992FF07C050
:1052900097FB882780F991E08927089581E0089598
:1052A000A1E1B0E0E6E5F9E20C9432DFE6DF882325
:1052B00009F46BC00E94188D4B015C0145E050E081
:1052C00060E270E08CE893E00E9489E385E48093DB
:1052D0008A038AE380938B03C501B40120E13EE099
:1052E00040E050E00E9486DE69017A0119018CE3FA
:1052F000482E512C612C712CC501B401A3019201DF
:105300000E9486DE6E877F87888B998BCA01B901E0
:10531000A30192010E9486DE8E010F5F1F4F20E8DD
:10532000821621E5920621E0A206B10490F17F9356
:105330006F93C60168E170E00E94F0DE9F938F9347
:10534000C501B40120E831E541E050E00E9486DE6D
:105350003F932F9389E79BE09F938F931F930F9326
:105360000E9444DAC8010E94FAD90FB6F894DEBF51
:105370000FBECDBF2CE030E0A901481B5109CA0186
:10538000B80186579C4F0E94AEE36196E2E10C940F
:105390004EDFC114D104A9F45F855F932E852F934E
:1053A0007F936F938DE69BE09F938F931F930F9353
:1053B0000E9444DA0FB6F894DEBF0FBECDBF85E081
:1053C000D9CF54E6C516D10438F47F936F93DF929A
:1053D000CF9281E69BE0E8CF7F936F93DF92CF92ED
:1053E00087E59BE09F938F931F930F930E9444DA6E
:1053F0000FB6F894DEBF0FBECDBF86E0BBCF909155
:10540000B6108091B510891718F0891B19F435CFA3
:10541000805FFBCF81E008958F929F92AF92BF9201
:10542000EF92FF920F931F93CF93DF93EC018B01C9
:10543000E42EF22E8091DB109091DC108C179D07EA
:10544000D9F1109243042EE9C130D20709F03FC0D0
:10545000845E9B4371F40E9467B06E517B4F8F4F07
:105460009F4F6093FE037093FF038093000490931B
:105470000104D093DC10C093DB1030E020E00093F7
:105480008105109382052093830530938405E09273
:105490007705F0927005C45EDB4321F41092150489
:1054A0001092FD0382E08093520181E08093910588
:1054B0001092110410920404DF91CF911F910F916B
:1054C000FF90EF90BF90AF909F908F9008952BE347
:1054D000C43ED20771F681509E49D1F40E9467B054
:1054E0008090FE039090FF03A0900004B090010410
:1054F000681979098A099B0997FF0AC080910605F6
:105500008770873029F47BDFC3E0DBE68111B1CF00
:10551000C4EEDBE3AECF20E040E070E060E084EE7C
:105520009BE37ACFCF930E94138C0E946278C82F9E
:10553000882319F080E00E94D3778C2F0E94F51BFE
:10554000EADFCF91089581EE9DE090931605809358
:105550001505E1CFAEE1B0E0E0EBFAE20C9440DFFC
:1055600080919A05282F082E000C330BF901EE0FBD
:10557000FF1FEA5EFE4F91819F9390819F933F931F
:105580008F9386EF9CE09F938F938E010F5F1F4F49
:105590001F930F930E9444DA4FE350E0B80187E174
:1055A00095E00E94C3E3B7DF0FB6F894DEBF0FBEED
:1055B000CDBF6E96E4E00C945CDFCF93DF93C09197
:1055C000FD03CC23B1F0C150C093FD0389E0C89F17
:1055D000E0011124C953DC4F6A817B812F814E8108
:1055E0008881998119DF888580931504DF91CF9197
:1055F000089591DFFBCFA5E0B0E0E1E0FBE20C9481
:1056000032DFFDDE382E61E081E00E94DE20209155
:1056100077052C83332079F185E08D837C80272DDD
:105620002B5F298385E087198A8384E087198B8320
:1056300083E0682E671882E0582E571881E0482EC4
:105640004718272C21942C81211127C080917605A1
:105650008823A1F080915201882309F43FC081E0A2
:1056600090917605911180E024E042E55EE0622DA4
:105670000E94DEAC33C096E09D83D0CF809171054F
:1056800010927105882331F398DF8091910588236A
:1056900009F32596E2E10C944EDF8C81813009F00C
:1056A00080C080917605813009F467C080915201F5
:1056B0008823A1F01F9281E49EE09F938F934F92E5
:1056C00081E090917605913009F080E08F930E94FF
:1056D000CE200F900F900F900F900F9031109DC023
:1056E0008C81853009F099C080917605853009F468
:1056F000F4C080915201811101C116E081E0810F57
:105700009C81891316C080917605891709F422C1FE
:1057100080915201882369F06C81671981E0909132
:1057200076052C81921380E023E048EF5DE00E9433
:10573000DEAC82E0810F9C81891315C090917605C3
:105740002C81921709F417C180915201882359F0D6
:105750006C81671981E02C81921380E023E046EE92
:105760005DE00E94DEAC8C818F5F8C839981981301
:105770006ACF1D5F109370058CCF809171051092D8
:105780007105882309F492CF81EE9DE09093160570
:1057900080931505C0DE80919105882309F486CF9A
:1057A00078CF8C81823009F0F7C080917605823005
:1057B00081F080915201882309F490CF81E090918B
:1057C0007605923009F080E023E040E35EE0652D4D
:1057D0004FCF8091710510927105882351F385EFA9
:1057E0009CE20E94FB9880919105882311F351CF90
:1057F00080917605833001F180915201882309F46C
:105800006DCF81E090917605933009F080E023E040
:1058100043E25EE0662D0E94DEAC9D812C819213F6
:1058200009C080917605891709F475C080915201ED
:10583000811182C01D8162CF809171051092710526
:105840008823D1F288E79EE20E94FB98809191051F
:10585000882391F21ECF80917105109271058823E3
:1058600009F4A6C020E030E04AE754E46091B705AF
:105870007091B8058091B9059091BA050E9410DB2E
:1058800027E137EB41ED58E30E9476DF0E94BAE052
:105890005B016C0121E0A21AB108C108D1081F9276
:1058A0001F9284EB882E88E3982E1BE2E12EFF24C2
:1058B000F39400E010E021E030E040E050E067EBDE
:1058C00075E086E19EE00E94CDAD0F900F90809133
:1058D0009105882309F46CC0DCCE8091710510928B
:1058E0007105882309F405CF85E291E30E94FB98B6
:1058F00080919105882309F4FCCECBCE81E0909174
:105900007605953009F080E023E04DE05EE06A81A5
:105910000E94DEACF2CE8091710510927105882351
:1059200009F484CF8BE692E30E94FB988091910565
:10593000882309F47BCFADCE6C81671981E090910B
:1059400076052C81921380E023E041E05EE00E9426
:10595000DEAC70CF8091710510927105882309F437
:10596000D7CE87E096E30E94FB988091910588232B
:1059700009F4CECE8ECE80917105109271058823E8
:1059800009F4E2CE0E943C2120E040E070E060E0BB
:1059900083EA97E341DD7DCE2C81233009F428CFC3
:1059A000243009F09BCE80917605843009F453CFE2
:1059B00080915201882309F491CE11E080917605FF
:1059C000843009F010E06091B7057091B8058091BE
:1059D000B9059091BA050E94521A00E09C0146E177
:1059E0005EE06B81812F92D918CFA0E1B0E0EBEFA0
:1059F000FCE20C9435DF80E1E6E6F1E0DE01119691
:105A000001900D928A95E1F761E081E00E94DE202D
:105A1000D09077059D2C65E0862E8D0C7D2C7194A1
:105A200073E0672ED11014C080917605882309F4A5
:105A3000CCC080915201882359F081E09091760585
:105A4000911180E024E041EC5DE0672D0E94DEAC26
:105A5000AA24A394B12C5D2C5918DA102EC08FEF14
:105A60008A0D80939A0510929E0510929D051092C2
:105A70009C0510929B05809176058D1509F4B6C0A2
:105A8000809152018823C9F011E0809176058D1133
:105A900010E0F501EE0FFF1FEE0FFF1FE951FA4F67
:105AA00060A171A182A193A10E94E91800E09C016C
:105AB00041E75DE0652D812F29D9CA2C81E08A0D4F
:105AC0009FEFA91AB90A94E0A916B10431F68D1115
:105AD0002BC060929A0510929E0510929D0510921F
