:100000000C94131E0C94531E0C94531E0C94531EEC
:100010000C94531E0C94531E0C94531E0C94531E9C
:100020000C94531E0C94531E0C94531E0C94531E8C
:100030000C94531E0C94531E0C94531E0C94531E7C
:100040000C94531E0C9407A00C94531E0C94531E36
:100050000C94531E0C94D79E0C94531E0C9438F39E
:100060000C94531E0C94A06E0C94966E0C94531E1C
:100070000C94531E0C94531E0C94531E0C94531E3C
:100080000C94531E0C94531E0C94531E0C94531E2C
:100090000C94531E0C94531E0C94531E0C94531E1C
:1000A0000C94531E0C94531E0C94531E0C94531E0C
:1000B0000C94531E0C94531E0C94531E0C94531EFC
:1000C0000C94531E0C94531E0C94531E0C94531EEC
:1000D0000C94531E0C94531E0C94531E0C94531EDC
:1000E0000C94531E084AD73B3BCE016E84BCBFFD27
:1000F000C12F3D6C74319ABD56833DDA3D00C77FF8
:1001000011BED9E4BB4C3E916BAAAABE0000008090
:100110003F05A84CCDB2D44EB93836A9020C50B91F
:10012000918688083CA6AAAA2ABE000000803F0744
:10013000634236B79BD8A71A39685618AEBAAB5582
:100140008C1D3CB7CC5763BD6DEDFD753EF6177247
:1001500031BF000000803F08000000BE9224491219
:100160003EABAAAA2ABECDCCCC4C3E00000080BE3D
:10017000ABAAAAAA3E00000000BF000000803F001A
:1001800000000000084178D3BB4387D1133D190E0E
:100190003CC3BD4282AD2B3E68EC8276BED98FE176
:1001A000A93E4C80EFFFBE01C4FF7F3F000000006E
:1001B00000000D94C7040D94E5044E414E494E498C
:1001C0005459494E46CDCCCC3D0AD7233C17B7D124
:1001D0003877CC2B329595E6241FB14F0A000020CA
:1001E000410000C84200401C4620BCBE4CCA1B0E49
:1001F0005AAEC59D7400407A10F35A00A0724E1892
:10020000090010A5D4E80000E87648170000E40BC8
:1002100054020000CA9A3B000000E1F5050000808E
:10022000969800000040420F000000A086010000E8
:1002300000102700000000E8030000000064000038
:100240000000000A00000000000100000000002C77
:1002500076D888DC674F0823DFC1DFAE59E1B1B73C
:1002600096E5E3E453C63AE651997696E8E6C28409
:1002700026EB898C9B62ED407C6FFCEFBC9C9F4021
:10028000F2BAA56FA5F490055A2AF75C936B6CF946
:10029000676DC11BFCE0E40D47FEF520E6B500D01C
:1002A000ED902E0300943577050080841E08000031
:1002B000204E0A000000C80C333333330F986E12FF
:1002C000831141EF8D2114893BE65516CFFEE6DB05
:1002D00018D1844B381BF77C1D901DA4BBE424204F
:1002E0003284725E228100C9F124ECA1E53D2743EE
:1002F0004F4D4D554E49434154494F4E004452597C
:1003000052554E004552524F525300494E464F00EF
:100310004543484F004445534341524741522046CC
:10032000494C414D454E544F0043415247415220A4
:1003300046494C414D454E544F0043414D42494181
:10034000522046494C414D454E544F00444554457A
:100350004E494441005072696E7465722073746F27
:10036000707065642064756520746F206572726FAB
:1003700072732E2046697820746865206572726FEA
:100380007220616E6420757365204D39393920748F
:100390006F20726573746172742E202854656D70BD
:1003A0006572617475726520697320726573657416
:1003B0002E20536574206974206166746572207202
:1003C000657374617274696E67290A004E6F204309
:1003D0006865636B73756D2077697468206C696EEE
:1003E00065206E756D6265722C204C617374204CB3
:1003F000696E653A20004E6F20436865636B7375C4
:100400006D2077697468206C696E65206E756D6209
:1004100065722C204C617374204C696E653A200023
:10042000636865636B73756D206D69736D6174636B
:10043000682C204C617374204C696E653A20004C26
:10044000696E65204E756D626572206973206E6FEE
:1004500074204C617374204C696E65204E756D621A
:1004600065722B312C204C617374204C696E653A97
:1004700020004D3131300053657269616C20737416
:1004800061747573206D69736D617463680A0053DC
:10049000442072656164206572726F720A00746F25
:1004A0006F206D75636820696E616374697665207D
:1004B00074696D65202D2063757272656E7420639A
:1004C0006F6D6D616E643A20002121204B494C4CC8
:1004D00020636175736564206279200062757379A9
:1004E0003A2070617573656420666F7220696E7062
:1004F00075740A00627573793A207061757365646A
:1005000020666F7220757365720A00627573793A9E
:100510002070726F63657373696E670A0053442FAE
:10052000464420726574697261646F0053442F46BB
:100530004420696E7365727461646F004D313030B0
:100540003053004D323520500A4D323400506F7216
:10055000206661766F722C207265696E69636965C9
:1005600000494D505245534F524120444554454E49
:100570004944410025533A202553004D55455254D6
:1005800041005072696E7465722068616C746564B4
:100590002E206B696C6C28292063616C6C6564216A
:1005A0000A006563686F3A004572726F723A0048DC
:1005B0006F74656E6420746F6F20636F6C640A00E3
:1005C000507265737320627574746F6E20746F203F
:1005D000726573756D650A00496E73657274206685
:1005E000696C616D656E7420616E642070726573F4
:1005F0007320627574746F6E0A0052656865617469
:1006000020446F6E6500526563616C656E74616E47
:10061000646F2E2E2E005072657373206275747491
:100620006F6E20746F2068656174206E6F7A7A6CCB
:10063000650A00486561642063616E6E6F742062B4
:1006400065207061726B65640020440020204D328B
:100650003030205300202844697361626C6564293E
:100660003A0046696C616D656E74207365747469D7
:100670006E67730020204D3230312058004D617874
:1006800020416363656C65726174696F6E202875C3
:100690006E6974732F7332290020204D323033205D
:1006A00058004D61782066656564726174657320D9
:1006B00028756E6974732F73290020520020204D15
:1006C000323034205000416363656C657261746937
:1006D0006F6E2028756E6974732F7332292028502D
:1006E0003C7072696E742D616363656C3E20523C90
:1006F000726574726163742D616363656C3E20542E
:100700003C74726176656C2D616363656C3E290093
:1007100020540020530020204D323035204200412B
:100720006476616E6365642028423C6D696E5F7318
:1007300065676D656E745F74696D655F75733E2086
:10074000533C6D696E5F66656564726174653E20D9
:10075000543C6D696E5F74726176656C5F66656549
:1007600064726174653E20583C6D61785F6A6572A1
:100770006B3E20593C6D61785F6A65726B3E205A12
:100780003C6D61785F6A65726B3E20453C6D6178B7
:100790005F6A65726B3E29002044002049002020DA
:1007A0004D333031205000486F74656E64205049DD
:1007B000440020440020490020204D333034205094
:1007C00000426564205049440020580020204D61BB
:1007D000783A2000200020204D696E3A2000203B0E
:1007E000200020204D323131205300203B00205585
:1007F0000020204D363033204C0046696C616D6519
:100800006E74206C6F61642F756E6C6F6164004D47
:10081000323453256C6454256C64004739322E39C8
:100820004525730047314625640047315A257346F4
:1008300036303000473158257359257346333030F0
:1008400030004D313036502569532569004D313027
:1008500039532569004D3230304425730047323812
:10086000523058590047315A2573463630300047C8
:1008700039322E395A2573004739322E3945300026
:100880004D313039532569004D31393053256900D8
:10089000203B200020204D343133205300506F770F
:1008A00065722D6C6F7373207265636F76657279F4
:1008B000003B200020496E76616C69642065787485
:1008C0007275646572200047322F4733206261647D
:1008D00020706172616D65746572730A0052657093
:1008E0006F736F2E2E2E0050756C736172207061C5
:1008F0007261205265616E756461720053696E2089
:100900006D6F76696D69656E746F00456E64206603
:10091000696C65206C6973740A00426567696E20B2
:1009200066696C65206C6973740A004E6F206D6592
:100930006469610A00286E6F2066696C652900434E
:10094000757272656E742066696C653A20004E6F30
:1009500074205344207072696E74696E670A005384
:1009600044207072696E74696E67206279746520C4
:100970000043616E6E6F74206F70656E20737562D8
:1009800064697220002569730025696D20256973EB
:10099000002569682025696D202569730025696433
:1009A000202569682025696D2025697300256979EE
:1009B00020256964202569682025696D20256973D3
:1009C000005072696E742074696D653A20006F6B17
:1009D000006F66660010030B030403FD02EF024480
:1009E000454255473A004D313132205368757464A1
:1009F0006F776E004D3131332053004C6F6E676559
:100A0000723344204C4B35204F46462E002F2F008A
:100A10004D31343520533C696E6465783E206F75E6
:100A200074206F662072616E67652028302D312931
:100A30000A00416363656C65726174696F6E00469C
:100A40006565647261746500250A0046523A0020AB
:100A5000466C6F773A200064697300656E00432925
:100A60000A0061626C656420286D696E2074656D92
:100A7000702000436F6C64206578747275646573D0
:100A80002061726520004F4646004F4E0046696C5B
:100A9000616D656E742072756E6F757420004465AB
:100AA00073666173652061706C6963616461004D98
:100AB000494E2F4D415820546F6F204661720054AB
:100AC0006F6F206661722066726F6D204D494E2FE8
:100AD0004D41580A00454550524F4D204F4B0A009A
:100AE0004D383420582059205A204500446F6E65F7
:100AF000207072696E74696E672066696C650A00A1
:100B00004D3737004D333100496E76616C69642092
:100B100065787472756465720A0020204D32303633
:100B2000205800486F6D65206F66667365740043DA
:100B300061703A00434F4E4649475F4558504F5207
:100B400054004D4541545041434B00434F4F4C4599
:100B5000525F54454D50455241545552450043480B
:100B6000414D4245525F54454D50455241545552B6
:100B70004500424142595354455050494E47004167
:100B8000524353004D4F54494F4E5F4D4F444553D0
:100B900000544845524D414C5F50524F54454354C8
:100BA000494F4E00455854454E4445445F4D323000
:100BB00000435553544F4D5F4649524D574152459E
:100BC0005F55504C4F4144004C464E5F575249547C
:100BD00045004C4F4E475F46494C454E414D450000
:100BE0004155544F5245504F52545F53445F5354F4
:100BF000415455530053445F5752495445005245A0
:100C000050454154004D554C54495F564F4C554D3D
:100C100045005344434152440050524F4D50545F9D
:100C2000535550504F525400484F53545F41435412
:100C3000494F4E5F434F4D4D414E445300454D4546
:100C40005247454E43595F5041525345520043412C
:100C500053455F4C494748545F4252494748544EB8
:100C600045535300544F47474C455F4C4947485400
:100C70005300534F4654574152455F504F574552CA
:100C8000004255494C445F50455243454E54004C38
:100C90004556454C494E475F44415441005A5F50C8
:100CA000524F42450052554E4F5554004155544FF6
:100CB0004C4556454C005052494E545F4A4F4200F5
:100CC00050524F4752455353004155544F5245508F
:100CD0004F52545F54454D50004155544F5245506A
:100CE0004F52545F504F5300564F4C554D45545240
:100CF000494300454550524F4D0042494E415259DB
:100D00005F46494C455F5452414E5346455200534D
:100D1000455249414C5F584F4E5F584F464600463A
:100D200049524D574152455F4E414D453A4D6172D2
:100D30006C696E20322E312E322E3820284A756E84
:100D400020323820323032362030393A31333A329C
:100D5000302920534F555243455F434F44455F551B
:100D6000524C3A6769746875622E636F6D2F4D61DE
:100D7000726C696E4669726D776172652F4D617232
:100D80006C696E2050524F544F434F4C5F56455242
:100D900053494F4E3A312E30204D414348494E453C
:100DA0005F545950453A4C6F6E6765723344204C1E
:100DB0004B352045585452554445525F434F554E8C
:100DC000543A3120555549443A636564653261327D
:100DD000662D343161322D343734382D3962313259
:100DE0002D63353563363266333637666600456EB9
:100DF000667269616E646F2E2E2E00453120255378
:100E00000020573A00456E667269616E646F204338
:100E1000616D612E2E2E0043616C656E74616E648F
:100E20006F2043616D612E2E2E0023646566696E0E
:100E3000652044454641554C545F00004245445F9F
:100E4000004B4420004B4920004B50200020666995
:100E50006E6973686564212050757420746865201C
:100E60006C617374204B702C204B6920616E642080
:100E70004B6420636F6E7374616E74732066726F5F
:100E80006D2062656C6F7720696E746F20436F6EA2
:100E900066696775726174696F6E2E680A005049E1
:100EA00044204175746F74756E6500206661696CCD
:100EB0006564212074696D656F75740A005049443A
:100EC000204175746F74756E6500206661696C658C
:100ED00064212054656D706572617475726520744B
:100EE0006F6F20686967680A005049442041757433
:100EF0006F74756E6500504944204379636C657367
:100F00000025532025692F256900204B643A2000D5
:100F1000204B693A2000204B703A200020436C613E
:100F20007373696320504944200A00204E6F206F7C
:100F300076657273686F6F740A002054753A2000EA
:100F4000204B753A2000206D61783A2000206D69B1
:100F50006E3A200020643A200020626961733A20D2
:100F60000043616C656E74616E646F2E2E2E0020DE
:100F700073746172740A00504944204175746F742F
:100F8000756E6500206661696C6564212054656D2D
:100F9000706572617475726520746F6F206869671F
:100FA000680A00504944204175746F74756E65007D
:100FB000504944204175746F2D616A7573746500E2
:100FC0003F28432979636C6573206E6F7420706CC1
:100FD00061757369626C6520283E3D33292E0A00D5
:100FE000206661696C6564212042616420686561E6
:100FF0007465722069640A00504944204175746F19
:1010000074756E65004572723A2075746638206694
:101010006F6E74206E6F7420696E697469616C699B
:101020007A65642E004572723A20757466382066BF
:101030006F6E74206E6F7420696E697469616C697B
:101040007A65642E004572723A207574663820669F
:101050006F6E74206E6F7420696E697469616C695B
:101060007A65642E002000200020003A003A002516
:1010700068753A25303268750025303268753A2532
:101080003032687500253032687527253032687532
:1010900000256875642025303268753A253032683D
:1010A000750043616D6100526563696E746F004540
:1010B00000200025002020202020202000202020AB
:1010C0002000657272001FE03FF03FF03FF01FE02C
:1010D0001FE03FF03FF03FF00FC0078003001FE02C
:1010E0002010201020101020102020102010303050
:1010F0000840048003003FFFF038007030FC3020CF
:10110000FC102078102030102C00D02E31D02F7BF6
:10111000D02F7BD02E31D02C00D020301020781052
:1011200020FC1030FC303800703FFFF03FFFF038FB
:1011300000703186302387102787902F87D02F03A8
:10114000D02030102078102078102030102F03D0BD
:101150002F87D02787902387103186303800703F43
:10116000FFF01FFFF81FFFF80410400208200208DC
:101170002004104008208010410010410008208009
:101180000410400000001FFFF81FFFF8496D707247
:10119000657369C3B36E2063616E63656C6164617E
:1011A000004D323520500A4D32340050617573695C
:1011B0006E672E2E2E004D3234003F0049676E6F51
:1011C0007265005265696E696369617200496E6992
:1011D0006369616C697A617220454550524F4D00D8
:1011E0004361726761206D6D00446573636172676E
:1011F00061206D6D004469C3A16D6574726F2046F6
:10120000696C2E004520656E206D6DC2B30020080C
:1012100020466163746F72002008204D61780020C1
:1012200008204D696E0041706700456E630054658B
:101230006D702E204175746F6D2E0056656C2E20DA
:101240007669616A65206D696E00566D696E004D44
:1012500061782040205370656564004163656C2EA1
:10126000206D617845004163656C2E206D6178408A
:10127000004163656C2E205669616A6500416365B3
:101280006C2E207265747261632E004163656C651B
:1012900072616369C3B36E004D61782040204A6576
:1012A000726B0040207061736F732F6D6D00416A27
:1012B0007573746573206176616E7A61646F730013
:1012C0003F0043616E63656C617200496E696369DA
:1012D0006172004D34323800496E696369616C692E
:1012E0007A617220454550524F4D0046696C616DE0
:1012F000656E746F0054656D7065726174757261AE
:10130000005061736F732F6D6D004A65726B004101
:101310006363656C6572616369C3B36E004D617828
:101320002056656C6F636964616400416A7573740B
:10133000617220646573666173657300436F6E66E6
:1013400069677572616369C3B36E003F0053696773
:1013500075656E74652045737175696E61004C69C1
:1013600073746F0053696775696E7465004F7269B5
:1013700067656E2058595A0043616D6100426F7174
:1013800075696C6C610056656E74696C61646F722E
:1013900000436F6E6669677572616369C3B36E00FF
:1013A000526573742E2066C3A16272696361004343
:1013B000617267617220454550524F4D004775611B
:1013C0007264617220454550524F4D005072656302
:1013D000616C2E202420416A757374650052656328
:1013E0002E2046616C6C6F20656C65637472696356
:1013F0006F0041706700456E630053656E732E2069
:1014000066696C616D656E746F00416A75737465B1
:1014100073206176616E7A61646F73004D656EC38F
:10142000BA207072696E636970616C004D3730323A
:1014300020542564004D363030204230205425643D
:10144000004D373032203B2564004D373031205479
:101450002564004D373032004D373031004D363085
:1014600030204230004D656EC3BA207072696E63E1
:101470006970616C00436F6E74696E75617220698A
:101480006D702E0041706700456E630053656E738A
:101490002E2066696C616D656E746F0050757267A1
:1014A0006172206DC3A173004F50432E20524549F5
:1014B0004E4943494F3A00494D5052455349C39311
:1014C0004E2050415553414441002F002000202020
:1014D000426F7175696C6C613A2000000C0F00FE60
:1014E00007022503BB01FFFE0AFE08FE05080806E9
:1014F000000040F0C88888987810050808060000A9
:10150000C0F88888888888F805050506000120301D
:10151000F830200508080600002070F82020202060
:10152000E00509090600FF2070A8A8B88888702087
:10153000070505070001D86C366CD80509090600B7
:10154000FFF8A88888888888A8F8050A0A0600FE97
:10155000205050505088A8A8887003030306000349
:1015600040A040FFFFFFFFFFFFFFFFFFFFFFFFFF68
:10157000FFFFFFFFFFFFFFFFFF0000000605FF0169
:101580000707060200808080808000800303030636
:101590000105A0A0A005060606000050F85050F86E
:1015A000500509090600FF2070A8A07028A8702027
:1015B000050707060000C8C81020409898050707CF
:1015C00006000040A0A040A89068010303060205A1
:1015D0008080800309090601FF2040408080804010
:1015E00040200309090601FF8040402020204040A0
:1015F0008005070706000020A8702070A8200505B8
:10160000050600012020F820200203030601FFC088
:101610004080050101060003F8020202060100C035
:10162000C00507070600000810102040408005078D
:1016300007060000708898A8C8887003070706018D
:101640000040C040404040E00507070600007088A9
:1016500008102040F8050707060000F808103008B9
:10166000887005070706000010305090F81010052C
:101670000707060000F880F00808887005070706CD
:101680000000304080F0888870050707060000F8E9
:1016900008101020202005070706000070888870B9
:1016A0008888700507070600007088887808106031
:1016B000020505060100C0C000C0C0020606060102
:1016C000FFC0C000C0408003050506010120408026
:1016D0004020050303060002F800F8030505060193
:1016E0000180402040800507070600007088102018
:1016F0002000200507070600007088B8A8B8807091
:10170000050707060000708888F88888880507079D
:10171000060000F04848704848F00507070600003A
:1017200070888080808870050707060000F04848B0
:10173000484848F0050707060000F88080F08080E0
:10174000F8050707060000F88080F0808080050714
:1017500007060000708880809888700507070600DB
:1017600000888888F8888888030707060100E04019
:1017700040404040E00507070600003810101010F8
:1017800090600507070600008890A0C0A09088051B
:101790000707060000808080808080F80507070624
:1017A000000088D8A8888888880507070600008870
:1017B00088C8A89888880507070600007088888868
:1017C000888870050707060000F08888F080808010
:1017D00005070706000070888888A8906805070735
:1017E000060000F08888F0A0908805070706000032
:1017F00070888070088870050707060000F82020B0
:10180000202020200507070600008888888888880F
:101810007005070706000088888888505020050753
:101820000706000088888888A8A8500507070600D2
:10183000008888502050888805070706000088889F
:101840005020202020050707060000F8081020403F
:1018500080F80309090601FFE08080808080808095
:10186000E00507070600008040402010100803092B
:10187000090601FFE020202020202020E0050303AE
:101880000600052050880501010600FEF803030349
:1018900006010580402005050506000070087888CF
:1018A000780507070600008080F0888888F0050525
:1018B0000506000070808088700507070600000894
:1018C0000878888888780505050600007088F0800B
:1018D00070050707060000304840E040404005071B
:1018E000070600FE708888887808700507070600DC
:1018F000008080F088888888030707060100400080
:10190000C0404040E00409090601FE1000301010FC
:101910001010906005070706000080808890E09016
:1019200088030707060100C04040404040E005052D
:1019300005060000D0A8A8A8A8050505060000B067
:10194000C8888888050505060000708888887005A5
:1019500007070600FEF0888888F0808005070706E4
:1019600000FE78888888780808050505060000B01C
:10197000C880808005050506000078807008F005A5
:1019800007070600002020F820202018050505067E
:101990000000888888986805050506000088888802
:1019A00050200505050600008888A8A850050505F3
:1019B00006000088502050880507070600FE88882A
:1019C0008850204080050505060000F8102040F8EA
:1019D0000309090601FF20404040804040402001AB
:1019E00009090602FF808080808080808080030952
:1019F000090601FF8040404020404040800503032D
:101A000006000248A890FFFFFFFFFFFFFFFFFFFF58
:101A1000FFFFFFFFFFFFFFFFFFFFFFFFFFFFFFFFD6
:101A2000FFFFFFFFFFFFFF0000000605FF010707A4
:101A3000060200800080808080800507070600FF86
:101A40002070A8A0A87020050707060000304840B5
:101A5000E04048B0050505060000A8508850A805DC
:101A600007070600008850F820F820200107070625
:101A700002008080800080808004080806010070D9
:101A8000806090906010E0030101060107A0060746
:101A9000070600007884B4A4B48478030505060121
:101AA0000460A06000E00505050600002850A05075
:101AB00028050303060001F80808030101060103D5
:101AC000E00607070600007884B4A4A48478050122
:101AD00001060007F8040404060105609090600503
:101AE00007070600002020F8202000F8030505065F
:101AF000010440A02040E0030505060104C0204089
:101B000020C00303030601052040800507070600E7
:101B1000FE88888898E8808005080806000078E834
:101B2000E8E868282828020202060203C0C003026F
:101B3000020601FE20C003050506010440C0404026
:101B4000E003050506010540A04000E00505050687
:101B50000000A0502850A0050A0A06000040C04816
:101B6000506050B0507810050A0A06000040C04886
:101B7000506050A8081038050A0A060000C0204826
:101B800030E050B050781005070706000020002014
:101B900020408870050A0A060000402000708888EE
:101BA000F8888888050A0A060000102000708888D6
:101BB000F8888888050A0A06000020500070888886
:101BC000F8888888050A0A06000068B000708888CE
:101BD000F88888880509090600005000708888F890
:101BE000888888050A0A060000205020708888F836
:101BF00088888805070706000078A0A0F0A0A0B894
:101C00000509090600FE70888080808870106005D4
:101C10000A0A060000402000F88080F08080F80565
:101C20000A0A060000102000F88080F08080F80585
:101C30000A0A060000205000F88080F08080F80535
:101C400009090600005000F88080F08080F8030A3F
:101C50000A060100804000E04040404040E0030AA6
:101C60000A060100204000E04040404040E0030AF6
:101C70000A06010040A000E04040404040E0030967
:101C800009060100A000E04040404040E005070791
:101C9000060000704848E8484870050A0A06000037
:101CA00068B0008888C8A8988888050A0A060000D5
:101CB00040200070888888888870050A0A0600001D
:101CC00010200070888888888870050A0A0600003D
:101CD00020500070888888888870050A0A060000ED
:101CE00068B0007088888888887005090906000037
:101CF000500070888888888870050505060001886E
:101D0000502050880509090600FF087098A8A8A867
:101D1000C87080050A0A060000402000888888886C
:101D2000888870050A0A06000010200088888888C4
:101D3000888870050A0A0600002050008888888874
:101D400088887005090906000050008888888888FE
:101D50008870050A0A06000010200088885020209C
:101D6000202004070706010080E0909090E08005A5
:101D70000707060000708890A09088B00508080644
:101D800000004020007008788878050808060000E8
:101D90001020007008788878050808060000205098
:101DA00000700878887805080806000068B00070A0
:101DB00008788878050707060000500070087888C2
:101DC00078050808060000205020700878887805FB
:101DD0000505060000702870A0780507070600FEBC
:101DE0007088808870106005080806000040200098
:101DF0007088F080700508080600001020007088C8
:101E0000F080700508080600002050007088F080FF
:101E10007005070706000050007088F08070030806
:101E200008060100804000C0404040E0030808066A
:101E30000100204000C0404040E0030808060100C7
:101E400040A000C0404040E0030707060100A0009A
:101E5000C0404040E00509090600005020500878C5
:101E60008888887005080806000068B000B0C88837
:101E7000888805080806000040200070888888705F
:101E80000508080600001020007088888870050882
:101E90000806000020500070888888700508080631
:101EA000000068B000708888887005070706000089
:101EB000500070888888700505050600012000F82C
:101EC00000200505050600007898A8C8F005080858
:101ED00006000040200088888888700508080600F1
:101EE00000102000888888887005080806000020F7
:101EF0005000888888887005070706000050008811
:101F000088888870050A0A0600FE102000888888E4
:101F1000502040800509090600FE8080F0888888EE
:101F2000F080800509090600FE500088888850204E
:101F300040804572723A20454550524F4D20436FC4
:101F40007272757074004572723A20454550524F56
:101F50004D20435243004572723A20454550524F3E
:101F60004D2054616D61C3B16F004572723A2056C5
:101F700065727369C3B36E20454550524F4D0041A1
:101F800070617263616E646F2E2E2E0000004573C7
:101F9000706572616E646F207061726100696E6954
:101FA0006369617220656C2063616D62696F0064B2
:101FB000652066696C616D656E746F004573706550
:101FC00072652070617261006C6962657261722075
:101FD000656C2066696C616D656E746F00004361AD
:101FE0006C656E74616E646F20626F7175696C6C84
:101FF000610045737065726520706F72206661764E
:102000006F722E2E2E000050756C736520656C204B
:10201000626F74C3B36E20706172610063616C653E
:102020006E746172206C6120626F7175696C6C6195
:102030000000496E736572746520656C2066696C7A
:10204000616D656E746F00792070756C73652065C5
:102050006C20626F74C3B36E007061726120636F35
:102060006E74696E7561722E2E2E004573706572E6
:102070006520706172610063617267617220656CD6
:102080002066696C616D656E746F000050756C73CD
:10209000617220656C20626F74C3B36E20706172D0
:1020A00061007265616E7564617220696D70726540
:1020B0007369C3B36E00004573706572616E646FBF
:1020C00020696D707265736F72610070617261205A
:1020D0007265616E756461722E2E2E0000457370FC
:1020E000657265207061726100707572676172203F
:1020F000656C2066696C616D656E746F00003131CE
:10210000300035004245443A204550434F5320317A
:1021100030304B005669672E20467567612054C3E6
:10212000A9726D2E3A204F4E0054656D702E204DD1
:10213000C3A178696D61003236300054656D702E30
:10214000204DC3AD6E696D6100350045313A2045C3
:1021500050434F53203130304B00462E20416C69A4
:102160006D656E742E0033363057203234562F3161
:1021700035410050726F746F636F6C6F00312E3099
:102180000042617564696F7300313135323030005F
:102190004C4754204B49542056312E30004578741A
:1021A0007275736F7265730031006D61726C696E68
:1021B00066772E6F7267004C6F6E676572334420CE
:1021C0004C4B3500323032362D30362D3234003221
:1021D0002E312E322E38004D61726C696E005465BE
:1021E000726D6973746F72657300496E666F2E202D
:1021F000436F6E74726F6C61646F7200496E666FCC
:102200002E20496D707265736F7261004D656EC3EB
:10221000BA207072696E636970616C004D31303044
:102220003000446574656E657220696D7072657307
:1022300069C3B36E005265616E7564617220696D29
:102240007072657369C3B36E005265632E20466178
:102250006C6C6F20656C6563747269636F003F001E
:10226000417472C3A1730050617261720043616D69
:10227000626961722066696C616D656E746F00538E
:10228000442F4644206E6F2070726573656E7465CE
:1022900000496D7072696D2E20646573646520530A
:1022A000442F46440043616D626961722053442F9C
:1022B0004644004D323100496E6963696F20617593
:1022C000746F6DC3A17469636F00496E666F2E20D1
:1022D000496D707265736F726100436F6E666967F6
:1022E0007572616369C3B36E0054656D7065726128
:1022F00074757261004D6F76696D69656E746F00FB
:102300005265616E7564617220696D707265736982
:10231000C3B36E00416A757374617200446574657D
:102320006E657220696D7072657369C3B36E00501B
:10233000617573617220696D7072657369C3B36E84
:102340000050616E74616C6C6120646520496E663A
:102350002E003F00496E696369617220696D707279
:10236000657369C3B36E0043616E63656C6172002F
:10237000496D7072696D69720043616E6E6F742091
:10238000656E746572207375626469723A2000022A
:10239000202E2E004D656EC3BA207072696E63697F
:1023A00070616C002100486F74656E64206D7579F2
:1023B000206672696F00417472C3A1730050726F1E
:1023C0006365646572004578747275736F72004D51
:1023D0006F76696D69656E746F00417061676172D7
:1023E000206D6F746F726573004D383400526563F1
:1023F0006F727269646F2043616D61004732385AB1
:10240000004732385900486F6D6520400047323828
:1024100058004C6C6576617220616C206F72696740
:10242000656E00473238004D656EC3BA2070726920
:102430006E636970616C0050726563616C2E20245C
:102440002043616D610050726563616C2E20242011
:102450004675736F720054656D7065726174757244
:102460006100456E66726961720050726563616CED
:102470002E20240056656E74696C61646F7200438F
:10248000616D6100426F7175696C6C61004D656EC4
:10249000C3BA207072696E636970616C00466C75B6
:1024A0006A6F0056656E74696C61646F7200436197
:1024B0006D6100426F7175696C6C610056656C6F7F
:1024C0006369646164004D656EC3BA207072696EA1
:1024D000636970616C006F70656E005452494747C4
:1024E00045524544003A200066696C616D656E7422
:1024F000007A5F6D696E00795F6D696E00785F6D5F
:10250000696E005265706F7274696E6720656E64E3
:1025100073746F70207374617475730A0020746F24
:102520006F206C6F6E6720657874727573696F6E5B
:102530002070726576656E7465640A0020636F6C46
:102540006420657874727573696F6E207072657639
:10255000656E7465640A0000000000000000000061
:102560000000005761726E696E673A20486F6D69AE
:102570006E672042756D702044697669736F7220B2
:102580003C20310A000404040000964300009643F6
:102590000000C8430000A0400000A0400000004030
:1025A000206C696D6974656420746F2000204D6132
:1025B0007820004A65726B00000096430000964345
:1025C0000000C84300000000000000000000000000
:1025D00053657474696E67732053746F7265640019
:1025E000290A002062797465733B206372632000BE
:1025F00053657474696E67732053746F72656420D9
:10260000280048617264636F646564204465666194
:10261000756C742053657474696E6773204C6F61B8
:102620006465640020286D6D29002046002042006A
:1026300020480020204D3134352053004D61746511
:102640007269616C20686561747570207061726177
:102650006D657465727300203B2053656E736F72F5
:10266000200020204D34313220530046696C616DCA
:10267000656E742072756E6F75742073656E736FFE
:10268000720020204D3134392043203B20556E69A3
:10269000747320696E2043656C736975730A005406
:1026A000656D706572617475726520556E697473BD
:1026B000002020473231203B004C696E656172205A
:1026C000556E69747300454550524F4D20646174D6
:1026D0006173697A65206572726F722E0A00202814
:1026E00063616C63756C6174656429210A00202143
:1026F0003D2000454550524F4D20435243206D69C7
:10270000736D61746368202D202873746F72656423
:10271000292000454550524F4D20436F727275700D
:10272000740A002053697A653A2000496E6465781E
:102730003A2000290A002062797465733B20637295
:102740006320002073746F7265642073657474690C
:102750006E677320726574726965766564202800FF
:1027600000004843000048430000A0400000C8416A
:102770000000A0420000A0420000C8430000C44284
:10278000C8000000C800000064000000B80B000092
:10279000204D61726C696E3D563838290A004545F6
:1027A00050524F4D2076657273696F6E206D69735C
:1027B0006D617463682028454550524F4D3D00209F
:1027C000436F756E7420583A0043616D6100453166
:1027D000004500626564002C2073797374656D2078
:1027E00073746F7070656421204865617465725FF1
:1027F00049443A20004572723A54454D502E204DBE
:10280000C38158004D415854454D5020747269673A
:1028100067657265640043616C656E742E20666145
:102820006C6C69646F0048656174696E67206661ED
:10283000696C6564004572723A54454D502E204DC6
:10284000494E004D494E54454D502074726967679A
:102850006572656400465547412054C389524D490D
:10286000434100546865726D616C2052756E6177EA
:10287000617900202F002042403A0020403A002099
:10288000573A0000002100240027002A002D0030C4
:1028900000330001010000040107010A017C3C3EF5
:1028A0005E2B3D3F2F5B5D3B2C2A225C0041425357
:1028B00000504C410043616E6E6F74206F70656E06
:1028C00020737562646972200046616C6C6F2061D0
:1028D0006C20696E69636961722053442F4644001D
:1028E00053442063617264206F6B0A006F70656EE1
:1028F000526F6F74206661696C65640A00766F6C54
:10290000756D652E696E6974206661696C65640A0F
:10291000004E6F20534420636172640A00534420C8
:10292000636172642072656C65617365640A000A94
:102930004D3234004D3233202573002E0A006F7063
:10294000656E206661696C65642C2046696C653A29
:10295000200046696C652073656C65637465640A64
:10296000002053697A653A200046696C65206F70D3
:10297000656E65643A2000454E4420535542524FDF
:102980005554494E450A002220706F730022207072
:102990006172656E743A2200535542524F55544944
:1029A0004E452043414C4C207461726765743A2255
:1029B00000446573626F7264616D69656E746F2047
:1029C0006465207375626C6C616D6164610045784B
:1029D000636565646564206D617820535542524F8C
:1029E0005554494E452064657074683A002E0A00BB
:1029F00044656C6574696F6E206661696C65642CF2
:102A00002046696C653A200046696C652064656CF7
:102A1000657465643A0057726974696E6720746FF3
:102A20002066696C653A2000667265736800646FA1
:102A3000696E67002066696C653A20004E6F7720EA
:102A4000002F6175746F25632E6700800000000001
:102A500000000000000000000000018000000000F5
:102A600000000000000000000000018000000000E5
:102A700000000000000000000000018000000000D5
:102A800000000000000000000000018000000000C5
:102A900000000000000000000000018000000000B5
:102AA00000000000000000000000018000000000A5
:102AB0000000000000000000000001800000000095
:102AC0000000000000000000000001800000000085
:102AD0000000000000000000000001800000000075
:102AE0000000000000000000000001800000000065
:102AF0000000000000000000000001800000000055
:102B00000000000000000000000001800000000044
:102B10000000000000000000000001800000000034
:102B20000000000000000000000001800000000024
:102B30000000000000000000000001800000000014
:102B40000000000000000000000001800000000004
:102B500000000000000000000000018000000000F4
:102B600000000000000000000000018000000000E4
:102B700000000000000000000000018000000000D4
:102B800000000000000000000000018000000000C4
:102B900000000000000000000000018000000000B4
:102BA00000000000000000000000018000000000A4
:102BB0000000000000000000000001800000000094
:102BC0000000000000000000000001800000000084
:102BD0000000000000000000000001800000000074
:102BE000000000000000000000000180000001FF64
:102BF000FFFFFFFFFFFFFF800000018000000000DB
:102C00000000000000000000000001800000000F34
:102C1000C7E0000000000000000001800000000884
:102C20004230001E00021000000001800000000081
:102C3000C210C6210FC22000000001800000000762
:102C40008210C6210102C0000000018000000007C0
:102C50008210AA2101030000000001800000000C86
:102C60000230AA210102C00000000180000000081B
:102C700047E0721E00C23000000001800000000F1B
:102C8000C000000000000000000001800000000003
:102C9000000000000000000000000180000001FFB3
:102CA000FFFFFFFFFFFFFF8000000180000000002A
:102CB0000000000000000000000001800000000093
:102CC0000000000000000000000001800000000083
:102CD0000000000000000000000001800000000073
:102CE0000000000000000000000001800000000063
:102CF0000000000000000000000001800000000053
:102D00000000000000000000000001800000000042
:102D10000000000000000000000001800000000032
:102D20000000000000000000000001800000000022
:102D30000000000000000000000001800000000012
:102D40000000000000000000000001800000000002
:102D500000000000000000000000018000000000F2
:102D600000000000000000000000018000000000E2
:102D700000000000000000000000018000000000D2
:102D800000000000000000000000018000000000C2
:102D900000000000000000000000018000000000B2
:102DA00000000000000000000000018000000000A2
:102DB0000000000000000000000001800000000092
:102DC0000000000000000000000001800000000082
:102DD0000000000000000000000001800000000072
:102DE0000000000000000000000001800000000062
:102DF0000000000000000000000001800000000052
:102E00000000000000000000000001800000000041
:102E10000000000000000000000001800000000031
:102E20000000000000000000000001800000000021
:102E30000000000000000000000001800000000011
:102E400000000000000000000000016D61726C696C
:102E50006E66772E6F726700322E312E322E38005A
:102E60001FFFFFFFFFFFFF600000000001FF4000A9
:102E700000000000FF8000000000007F83CF000002
:102E80000C303F87FF80000C301F867980000C00DB
:102E90000F8C30C7838C30E78C30CFC7CC31F38CAC
:102EA00030DCECEC33B98C30D86C6C33198C30D00E
:102EB0006C0C33198C30D86C0C33198C30DC6C0EE4
:102EC0003B198C30CF7C079F198C30C77C038F193E
:102ED00040000000000002600000000000061FFF2C
:102EE000FFFFFFFFF82001400130013B01400136A8
:102EF000016001310170012C0190012701B0012214
:102F000001C0011D01F00118011002130130020E71
:102F1000016002090190020401C002FF000003FAEF
:102F2000004003F5008003F000D003EB002004E62E
:102F3000007004E100E004DC004005D700C005D2C9
:102F4000004006CD00D006C8008007C3003008BE90
:102F500000F008B900C009B400B00AAF00B00BAA75
:102F600000D00CA500000EA000500F9B00C01096D2
:102F7000005012910000148C00C0158700B0178219
:102F800000B0197D00D01B7800001E730040206E39
:102F90000090226900F024640040275F0090295AC5
:102FA00000E02B5500102E500020304B0010324610
:102FB00000E033410090353C001037370070383264
:102FC00000A0392D00B03A2800A03B2300603C1E31
:102FD00000103D1900903D1400103E0F00703E0A95
:102FE00000C03E0500003F0000403FFBFF803FF671
:102FF000FFC03FF1FF2020506C616E6E657242751C
:103000006666657242797465733A2000204672657F
:1030100065204D656D6F72793A200020436F6D70A9
:10302000696C65643A204A756E203238203230323D
:10303000360A00204C6173742055706461746564B5
:103040003A20323032362D30362D3234207C204139
:103050007574686F723A20283344776F726B2C2036
:1030600068747470733A0A004D61726C696E203234
:103070002E312E322E380A0020536F66747761721B
:10308000652052657365740A002057617463686433
:103090006F672052657365740A002042726F776E05
:1030A000206F75742052657365740A00204578742A
:1030B00065726E616C2052657365740A00506F779B
:1030C000657255700A0073746172740A0047323871
:1030D000580A4D3834004D31303031006F6B006587
:1030E00072726F722077726974696E6720746F20D4
:1030F00066696C650A00446F6E6520736176696E5F
:10310000672066696C652E0A004D323900456E6491
:1031100073746F7073002553202563202563202569
:103120006320256300656E6473746F707320686933
:10313000743A200000002200250028002B002E00F9
:103140003100340002010000050108010B010505F2
:103150000505070508080808020202020A0A08080D
:10316000040404040101010101010101030303033B
:1031700003030303040707070C0C0C0C0C0C0C0CCA
:103180000202020206060606060606060B0B0B0BDB
:103190000B0B0B0B01021020200808102040102000
:1031A000408002010201080402010102040810200B
:1031B0004080804020100804020180040201804009
:1031C0002010080402010804020101020408102072
:1031D0004080010204081020408000000A0B020910
:1031E0000C0D0E08070304010000000000000000A1
:1031F00000000000000000000000000000000000CF
:10320000000000000000121110000000000000008B
:1032100000000000000000000000000000000000AE
:1032200024F404D9201BC40C5C0E9804C4095F026A
:1032300065077101F405F900FB04B3004804870039
:10324000C10369005803550003034500BE023A005C
:103250008402310053022A002902250004022000C2
:10326000E4011C00C8011900AF0117009801140007
:1032700084011300710110006101100051010E0062
:1032800043010D0036010B002B010B0020010B0048
:10329000150109000C01090003010800FB000800EA
:1032A000F3000800EB000700E4000600DE00060063
:1032B000D8000600D2000600CC000500C7000500BB
:1032C000C2000500BD000400B9000400B500040000
:1032D000B1000400AD000400A9000400A500030033
:1032E000A20003009F0004009B000300980003005D
:1032F0009500020093000300900003008D0002007F
:103300008B00030088000200860002008400030096
:10331000810002007F0002007D0002007B000200AD
:1033200079000200770001007600020074000200BC
:1033300072000100710002006F0002006D000100C8
:103340006C0002006A0001006900020067000100D1
:1033500066000100650001006400020062000100D7
:1033600061000100600001005F0002005D000100DB
:103370005C0001005B0001005A00010059000100DF
:1033800058000100570001005600010055000100DF
:1033900054000100530000005300010052000100DE
:1033A00051000100500001004F0001004E000000DC
:1033B0004E0001004D0001004C0001004B000000D8
:1033C0004B0001004A0001004900010048000000D4
:1033D00048000100470001004600000046000100CF
:1033E00045000000450001004400010043000000CA
:1033F00043000100420000004200010041000000C3
:1034000041000100400001003F0000003F000100BA
:103410003E0000003E0001003D0000003D000100B4
:103420003C0000003C0000003C0001003B000000AC
:103430003B0001003A0000003A00010039000000A2
:103440003900010038000000380000003800010099
:103450003700000037000100360000003600000091
:103460003600010035000000350000003500010085
:10347000340000003400000034000100330000007C
:103480003300000033000100320000003200000071
:103490003200010031000000310000003100010065
:1034A0003000000030000000300001002F0000005C
:1034B0002F0000002F0000002F0001002E00000050
:1034C0002E0000002E0001002D0000002D00000045
:1034D0002D0000002D0001002C0000002C00000039
:1034E0002C0000002C0001002B0000002B0000002D
:1034F0002B0000002B0001002A0000002A00000021
:103500002A0000002A000100290000002900000014
:103510002900000029000000290001002800000007
:1035200028000000280000002800000028000100FA
:1035300027000000270000002700000027000000EF
:1035400027000100260000002600000026000000E1
:1035500026000000260001002500000025000000D4
:1035600025000000250000002500000025000100C6
:1035700024000000240000002400000024000000BB
:1035800024000100230000002300000023000000AD
:10359000230000002300000023000000230001009E
:1035A0002200000022000000220000002200000093
:1035B0002200000022000100210000002100000084
:1035C0002100000021000000210000002100000077
:1035D0002100010020000000200000002000000069
:1035E000200000002000000020000000200000005B
:1035F000200001001F0000001F0000001F0000004D
:103600001F0000001F0000001F0000001F0001003D
:103610001E0000001E0000001E0000001E00000032
:1036200024F4D43050C38E20C2A24017828B701174
:10363000127A910D816CD90AA861E108C758660712
:10364000615143061E4B5D05C145A7041A41110493
:10365000093D9803713931034036DB02653391022D
:10366000D4305402802E1D02632CEE01752AC50150
:10367000B028A001102781018F2564012B244B0164
:10368000E0223401AC211F018D200D01801FFC00C0
:10369000841EED00971DDF00B81CD200E61BC6009B
:1036A000201BBC00641AB200B219A8000A19A000BD
:1036B0006A189900D117910040178B00B516840045
:1036C00031167E00B31579003A157300C7146F00E8
:1036D00058146A00EE1366008813630025135E0019
:1036E000C7125B006C12570015125400C111510033
:1036F00070114F0021114B00D61049008D1047006A
:103700004610440002104200C00F4000800F3E00EF
:10371000420F3C00060F3B00CB0E3800930E3700E3
:103720005C0E3500270E3400F30D3200C10D310060
:10373000900D3000600D2E00320D2D00050D2C0077
:10374000D90C2B00AE0C2900850C29005C0C27003D
:10375000350C27000E0C2600E80B2400C40B2400B7
:10376000A00B23007D0B23005A0B2100390B2100F5
:10377000180B2000F80A1F00D90A1E00BB0A1E0001
:103780009D0A1D00800A1D00630A1C00470A1B00D9
:103790002C0A1B00110A1A00F7091A00DD0919008A
:1037A000C4091900AB091900920917007B09180018
:1037B000630917004C091600360916002009160087
:1037C0000A091500F5081500E0081400CC081400DB
:1037D000B8081400A4081400900813007D08120013
:1037E0006B08130058081200460812003408110034
:1037F000230811001208110001081100F007100041
:10380000E0071000D0071000C0071000B0070F003D
:10381000A107100091070E0083070F0074070F0027
:1038200065070E0057070E0049070E003B070D0005
:103830002E070E0020070D0013070D0006070D00D0
:10384000F9060C00ED060D00E0060C00D4060C0095
:10385000C8060C00BC060C00B0060C00A4060B0049
:1038600099060C008D060B0082060B0077060B00F4
:103870006C060B0061060A0057060B004C060A0096
:1038800042060A0038060A002E060A0024060A002C
:103890001A060A001006090007060A00FD050900BD
:1038A000F4050900EB050900E2050900D905090046
:1038B000D0050900C7050900BE050900B5050800C7
:1038C000AD050800A50509009C0508009405080041
:1038D0008C050800840508007C05080074050800B4
:1038E0006C050700650508005D0507005605080022
:1038F0004E0507004705070040050800380507008A
:10390000310507002A050700230507001C050600EE
:10391000160507000F050700080506000205070049
:10392000FB040600F5040700EE040600E8040600A8
:10393000E2040700DB040600D5040600CF040600FD
:10394000C9040600C3040600BD040600B70406004F
:10395000B1040500AC040600A6040600A00405009E
:103960009B04060095040500900406008A040500E7
:1039700085040500800406007A040500750405002E
:10398000700405006B040500660405006104050071
:103990005C04050057040500520405004D040500B1
:1039A00048040500430405003E0404003A040500F1
:1039B00035040500300404002C040500270404002D
:1039C000230405001E0404001A0404001604050064
:1039D000110404000D04040009040500040404009B
:1039E00000040400FC030400F8030400F4030400D2
:1039F000F0030400EC030400E8030400E403040003
:103A0000E0030400DC030400D8030400D403040032
:103A1000D0030400CC030400C8030300C503030063
:103A20005D2E00006E23000013180000AF0E000092
:103A30003D0800006304000045020000270100006B
:103A40004D6F76657220246D6D00302E303235005A
:103A50004D6F76657220302E316D6D004D6F76653D
:103A60007220316D6D004D6F7665722031306D6D55
:103A7000004D6F76657220656A65730045787472D3
:103A800075736F72202A004D6F766572204000B109
:103A900028AD2843616D626961722066696C616D51
:103AA000656E746F0044657363617267617220664E
:103AB000696C616D656E746F00436172676172203D
:103AC00066696C616D656E746F0050726563616CE0
:103AD0002E206D616E75616C0050726563616C2E95
:103AE000202400417472C3A1730020002000200034
:103AF00049722061206F726967656E2046616C6C47
:103B000061646F00FFFFFF496E7365727420666920
:103B10006C616D656E7420616E6420707265737384
:103B200020627574746F6E0A00220A00556E6B6E07
:103B30006F776E20636F6D6D616E643A2022002096
:103B40004500205A0020590020204D3932205800CD
:103B500053746570732070657220756E69740045CA
:103B600072726F722077726974696E6720746F2049
:103B7000454550524F4D210A0020746F6F206C6FE5
:103B80006E6720657874727573696F6E20707265E8
:103B900076656E7465640A0020636F6C64206578D6
:103BA00074727573696F6E2070726576656E746578
:103BB000640A004F726967656E2025732050726930
:103BC0006D2E00486F6D65202573204669727374F1
:103BD0000020453A00205A3A0020593A00583A004D
:103BE0006F6B0A00526573656E643A20004C6F6E0D
:103BF0006765723344204C4B35204C697374610007
:103C0000496D7072696D69656E646F2E2E2E004964
:103C10006D7072657369C3B36E20506175736164B2
:103C20006100DB00D90011241FBECFEFD1E2DEBF5F
:103C3000CDBF00E00CBF84B78093871814BE0FB6C9
:103C4000F894A8958091600088618093600010923C
:103C500060000FBE13E0A0E0B2E0E8EEF8E302E09F
:103C60000BBF02C007900D92A43EB107D9F728E11F
:103C7000A4EEB3E001C01D92A738B207E1F71EE140
:103C8000C2E1DEE100E006C021970109802FFE01BC
:103C90000F94DF17C131D10780E00807A9F70F940F
:103CA00071060D94631C0C94000081E080936B08F6
:103CB000089582E080936B080895CF93DF93EC0121
:103CC000642F70E090E080E00F942A1129EC38EC2A
:103CD00048EC5EE30F94D01820E030E040E05FE372
:103CE0000F94F4170F943D196883DF91CF910895D5
:103CF000E0918B0786E0E802F0011124E45BF84FC5
:103D00008091640790E0958384830895CF93DF9337
:103D1000EC01CB01BA010F942A1120E030E048EC0D
:103D200052E40F94D0182FE632E143E85AE30F949F
:103D3000F417688379838A839B83DF91CF910895F9
:103D4000CF93DF93EC01CB01BA010F942A1120E04D
:103D500030E048EC52E40F94D0182FE632E143E80B
:103D60005AE30F94F417688379838A839B83DF91E6
:103D7000CF910895CF93DF93EC01CB01BA010F945B
:103D80002A11688379838A839B83DF91CF91089579
:103D9000CF93DF93EC01CB01BA010F942A11688312
:103DA00079838A839B83DF91CF910895CF93DF93AB
:103DB000EC01CB01BA010F942A1120E030E048EC6D
:103DC00052E40F94D0182FE632E143E85AE30F94FF
:103DD000F417688379838A839B83DF91CF91089559
:103DE000CF93DF93EC01CB01BA010F9428112AE0A5
:103DF00037ED43E25DE30F94D0180F943D196883CB
:103E000079838A839B83DF91CF910895CF93DF934A
:103E1000EC01CB01BA010F942A112AE037ED43E2FD
:103E20005DE30F94D018688379838A839B83DF9145
:103E3000CF910895CF93DF93EC01CB01BA010F949A
:103E40002A11688379838A839B83DF91CF910895B8
:103E5000FC01518340830895CF93DF93EC01CB01A4
:103E6000BA010F942A1120E030E04AE754E40F949D
:103E7000D01827E137EB41ED58E30F94F41768832E
:103E800079838A839B83DF91CF910895FC01A08180
:103E9000B1811C92A281B3818C918F5F8C9302803F
:103EA000F381E02D90818CE0989F800D1124E5E056
:103EB000F6E113AE84AF089590910201987090934B
:103EC000000100C087FD87C0A59800C09091020145
:103ED000909598709093000100C000C090910201ED
:103EE00098709093000100C086FD81C0A59800C025
:103EF00090910201909598709093000100C000C0CD
:103F00009091020198709093000100C085FD6DC0F2
:103F1000A59800C09091020190959870909300012F
:103F200000C000C09091020198709093000100C001
:103F300084FD59C0A59800C0909102019095987099
:103F40009093000100C000C090910201987090937E
:103F5000000100C083FD45C0A59800C090910201FA
:103F6000909598709093000100C000C0909102015C
:103F700098709093000100C082FD31C0A59800C0E8
:103F800090910201909598709093000100C000C03C
:103F90009091020198709093000100C081FD1DC0B6
:103FA000A59800C0809102018095887080930001DF
:103FB00000C000C08091020188708093000100C0A1
:103FC000A59800C0809102018095887080930001BF
:103FD00000C000C00895A59A78CFA59AE2CFA59A0F
:103FE000CECFA59ABACFA59AA6CFA59A92CFA59AD9
:103FF0007ECF90E080E00895CF93DF93C0917A1553
:10400000D0917B1581E0CE31D105E4F020E030E0A5
:1040100040E05FE360917615709177158091781597
:10402000909179150F94F4170F9438196C1B7D0B30
:1040300077FF03C071956195710981E06330710567
:104040000CF080E0DF91CF910895CF93DF93DB01F7
:10405000F9019C919130C1F0943080F094509C9380
:104060008830D1F480819181009771F0019791831C
:104070008083480F591FEA01188206C08C3539F435
:104080009C5F9C93943041F4DF91CF9108958B33E2
:1040900039F781E08C93F8CF20813181B9016F5FCE
:1040A0007F4F71836083420F531FEA0188838081B1
:1040B00091818F3591056CF7E7CF0F931F9381E0C6
:1040C00000914B1610914C1620914D1630914E16C2
:1040D00040914716509148166091491670914A16C2
:1040E000041715072607370708F480E01F910F9182
:1040F000089590E080E0089520914316833021F4E4
:1041000025FD0CC024FD0CC030E0A90102C055956E
:1041100047958A95E2F7CA018170089581E0089574
:1041200080E008958091270584FD0BC080912905CA
:1041300087FD07C090912A05937081E019F480E013
:10414000089581E008952FEB280F2A3108F047C029
:10415000E22FF0E08091270590912805A091290594
:10416000B0912A0504C0B695A795979587952A958D
:10417000D2F780FD02C081700895E35FFA4FE081BD
:10418000EE2341F180916F0890917008E80FF92FAC
:10419000F11D808190ED980F9A3030F08E3251F4FD
:1041A000818180538A3098F4F0930205E0930105F1
:1041B00081E008958D3211F08B3249F4818190EDC8
:1041C000980F9A3088F38E3211F48281EACFF0E0B2
:1041D000E0E0EACF1092020510920105E9CF80E0FD
:1041E00008951092B80585E08093F5040895CF9264
:1041F000DF92EF92FF920F942A116B017C0120E075
:1042000030E0A9010F9424112DEB37E346E055E38C
:1042100087FF04C02DEB37E346E055EBC701B6013D
:104220000F94F4176B017C0120E030E0A9010F949A
:10423000241120E030E040E05FE387FF04C020E08D
:1042400030E040E05FEBC701B6010F94F4170F9424
:104250003819CB01FF90EF90DF90CF900C946ABBA0
:10426000CB010C946ABB84E00C9438F083E00C948E
:1042700038F082E00C9438F070E090E080E00F9429
:104280002A1129EC38EC48EC5EE30F94D01820E0BA
:1042900030E040E05FE30F94F4170F943D19862F50
:1042A0000C949EBB80E090E0A0E8B0E48093F00E18
:1042B0009093F10EA093F20EB093F30E8BE093E087
:1042C0000E94E1B180E090E0A0EFB1E48093E80EBD
:1042D0009093E90EA093EA0EB093EB0E8093EC0E50
:1042E0009093ED0EA093EE0EB093EF0EE091B70514
:1042F000EE0FFF0BE551FD4F8081918183309105D9
:1043000071F18430910509F43FC0029761F480E0B7
:1043100090E0A7E8B3E48093E80E9093E90EA093B1
:10432000EA0EB093EB0E83EF92E00E94E1B18DECC8
:104330009CECACE4BEE38093F00E9093F10EA0935E
:10434000F20EB093F30E8BE093E00E94E1B1809106
:10435000B7058F5F8430ECF48093B705089580E053
:1043600090E0A7E8B3E48093E80E9093E90EA09361
:10437000EA0EB093EB0E8093EC0E9093ED0EA093AB
:10438000EE0EB093EF0ECFCF80E090E0A7E8B3E45D
:10439000F2CF1092B7050895CF93DF9300D01F920C
:1043A000CDB7DEB70F94281169837A838B839C8302
:1043B000CE0101960E9412BE0F900F900F900F90A9
:1043C000DF91CF9108950F9428112AE037ED43E251
:1043D0005DE30F94D0180F943D19DECFCF92DF929A
:1043E000EF92FF92CF93DF9300D01F92CDB7DEB74D
:1043F0006B017C0120E030E0A9010F94241187FDBE
:104400001BC06DEB77E386E095E3A70196010F945F
:10441000F41769837A838B839C83CE0101960E9473
:1044200012BE0F900F900F900F90DF91CF91FF90E1
:10443000EF90DF90CF9008956DEB77E386E095EBFA
:10444000E4CF0F942A112AE037ED43E25DE30F94A5
:10445000D018C4CF0F942A11C1CF8F929F92AF92E0
:10446000BF92CF92DF92EF92FF92CF936B017C01CC
:1044700020E030E0A9010F94241187FDC3C06DEB4B
:1044800077E386E095E3A70196010F94F4176B019B
:104490007C0120E030E0A9010F94241187FF04C0C3
:1044A000F7FAF094F7F8F09442E050E0C701B60153
:1044B0000E9449BD6B017C0160E280E4C81682E481
:1044C000D8068FE0E806F1048CF0C701B60120E4BD
:1044D00032E44FE050E00F947017CA01B9012AE0AE
:1044E00030E040E050E00F947017605D6093680723
:1044F00060E280EAC81686E8D80681E0E806F104A2
:104500008CF0C701B60120EA36E841E050E00F9494
:104510007017CA01B9012AE030E040E050E00F9482
:104520007017605D6093690760E280E1C81687E2FA
:10453000D806E104F1048CF0C701B60120E137E2AE
:1045400040E050E00F947017CA01B9012AE030E052
:1045500040E050E00F947017605D60936A0760E27E
:1045600088EEC81683E0D806E104F1048CF0C70198
:10457000B60128EE33E040E050E00F947017CA0116
:10458000B9012AE030E040E050E00F947017605D20
:1045900060936B07C701B60124E630E040E050E0CD
:1045A0000F9470178AE0882E912CA12CB12CCA018F
:1045B000B901A50194010F947017605D60936C07B9
:1045C0008EE280936D07C701B601A50194010F9497
:1045D0007017C62FCA01B901A50194010F94701775
:1045E000605D60936E07C05DC0936F0788E697E0DB
:1045F000CF91FF90EF90DF90CF90BF90AF909F90C2
:104600008F9008956DEB77E386E095EB3CCF0F94A8
:104610002A1120E030E048EC52E40F94D0182FE645
:1046200032E143E85AE30F94F41717CFCF92DF92A9
:10463000EF92FF926B017C0120E030E0A9010F9422
:10464000241187FD26C06DEB77E386E095E3A70193
:1046500096010F94F4176B017C0120E030E0A90172
:104660000F94241120E030E040E05FE387FF04C0B6
:1046700020E030E040E05FEBC701B6010F94F41793
:104680000F943819CB01FF90EF90DF90CF900C94EE
:10469000EBBA6DEB77E386E095EBD9CF0F942A1157
:1046A000C5CFCF92DF92EF92FF92CF93DF9300D0EE
:1046B0001F92CDB7DEB70F942A1120E030E048EC0E
:1046C00052E40F94D0182FE632E143E85AE30F94F6
:1046D000F4176B017C0120E030E0A9010F94241154
:1046E0002DEB37E346E055E387FF04C02DEB37E3BE
:1046F00046E055EBC701B6010F94F41769837A833E
:104700008B839C83CE0101960E9497BD0F900F90E2
:104710000F900F90DF91CF91FF90EF90DF90CF90AF
:104720000895CF92DF92EF92FF92CF93DF9300D064
:104730001F92CDB7DEB70F942A1120E030E048EC8D
:1047400052E40F94D0182FE632E143E85AE30F9475
:10475000F4176B017C0120E030E0A9010F942411D3
:104760002DEB37E346E055E387FF04C02DEB37E33D
:1047700046E055EBC701B6010F94F41769837A83BD
:104780008B839C83CE0101960E9435BF0F900F90C2
:104790000F900F90DF91CF91FF90EF90DF90CF902F
:1047A0000895CF92DF92EF92FF92CF93DF9300D0E4
:1047B0001F92CDB7DEB70F942A1120E030E04AE710
:1047C00054E40F94D01827E137EB41ED58E30F94F0
:1047D000F4176B017C0120E030E0A9010F94241153
:1047E0002DEB37E346E055E387FF04C02DEB37E3BD
:1047F00046E055EBC701B6010F94F41769837A833D
:104800008B839C83CE0101960E946AEE0F900F90DD
:104810000F900F90DF91CF91FF90EF90DF90CF90AE
:1048200008950C944FA50C944FA50C9401A50C94DD
:1048300001A50C9401A50C9401A563E972E084E63E
:1048400090E00E9477C670E060E08AE090E00E940D
:1048500077C66AEB72E084E690E00C9477C60E941B
:10486000DFB8EBCF8111E9CF68E270E080E991E039
:104870000C9477C60E948EA1F5CF0E942DBAF2CF7C
:10488000CF92DF92EF92FF920F931F930E940CF34F
:104890000091360510913705209138053091390582
:1048A0006B017C01C01AD10AE20AF30A9701860162
:1048B00037FD11C0209135052095209335056A54A8
:1048C0007C4F8F4F9F4F60933605709337058093D1
:1048D00038059093390581E090913505911101C01B
:1048E00080E01F910F91FF90EF90DF90CF9008959F
:1048F000CF93DF93C0917A15D0917B15209729F142
:104900006091761570917715809178159091791551
:104910000F9438196E5F7F4F24976C177D07ACF4A6
:104920007093DF056093DE050E940CF360547B42B8
:104930008E4F9F4F6093E0057093E1058093E205F1
:104940009093E305DF91CF9108951092E0051092C6
:10495000E1051092E2051092E305F4CFBF92CF92E9
:10496000DF92EF92FF920F931F93CF93DF936B0130
:10497000E9014A3009F4D6C0453109F081C0DB01B4
:104980001296ED91FC911281C681D781739A00C075
:10499000000086E290E00197F0F7012F0295007F7A
:1049A00020E1B22EB10E88EF87DA00C0000086E267
:1049B00090E00197F0F7103208F0A1C0812F8077C6
:1049C00080687ADA802F78DA00C0000086E290E012
:1049D0000197F0F780E870DA80E06EDA00C000003E
:1049E00086E290E00197F0F78AEF66DA00C00000F7
:1049F00086E290E00197F0F77E01B0E1EB0EF11C4A
:104A00008881807F59DA89918295807F55DACE1529
:104A1000DF05B1F700C0000086E290E00197F0F7F3
:104A20001F5F005F1B11BFCF7398D6011296ED91E7
:104A3000FC9180819281980F92832181921708F0D6
:104A40003DC294819F5F94839381890F821710F0F8
:104A50008FEF820F8383458150E0440F551F70E034
:104A600060E0868197810F940F1C81E0DF91CF91E8
:104A70001F910F91FF90EF90DF90CF90BF9008951E
:104A8000FB0102811381423309F41AC208F422C2E5
:104A9000463409F40FC2473409F417C24B3329F7DF
:104AA00089812B81D80112967C91129713963C91A3
:104AB000213009F454C2233009F035C248EF480FC1
:104AC000582F91E0341708F490E031E0541708F0C3
:104AD00030E0492F432B61E0571708F460E046238C
:104AE00019F4932309F4C1CFFA8030E0F901E952B7
:104AF000FD4FD0802D523D4FF901E0802DC280EE58
:104B0000810F8068807FD8D9812F8295807FD4D90A
:104B100000C0000086E290E00197F0F780E8CCD971
:104B200080E85BCF6B9A73989D9AA598809101015C
:104B30008860809301018091020180958870809344
:104B40000001739A00C0000086E290E00197F0F740
:104B500088E790E0CEE9DFE0FE013197F1F70197B9
:104B6000D9F788EFA9D900C0000086E290E001974C
:104B7000F0F780E2A1D980E09FD900C0000086E272
:104B800090E00197F0F780E097D980E895D900C0D0
:104B9000000086E290E00197F0F780E08DD980E197
:104BA0008BD900C0000086E290E00197F0F7CE01BB
:104BB0000197F1F7CE010197F1F7CE010197F1F7D7
:104BC000CE010197F1F7CE010197F1F7CE010197E0
:104BD000F1F7CE010197F1F7CE010197F1F7CE0180
:104BE0000197F1F7CE010197F1F7CE010197F1F7A7
:104BF000CE010197F1F7CE010197F1F7CE010197B0
:104C0000F1F72197F1F780E257D980E455D900C038
:104C1000000086E290E00197F0F780E24DD980E64F
:104C20004BD900C0000086E290E00197F0F7D0E099
:104C3000C0E08C2F807780683FD98D2F3DD900C090
:104C4000000086E290E00197F0F780E835D980E037
:104C500033D900C0000086E290E00197F0F78AEFB8
:104C60002BD900C0000086E290E00197F0F790E2B7
:104C70008091020188708093000100C0A59800C057
:104C800080910201809588708093000100C000C06F
:104C90008091020188708093000100C0A59800C037
:104CA00080910201809588708093000100C000C04F
:104CB0008091020188708093000100C0A59800C017
:104CC00080910201809588708093000100C000C02F
:104CD0008091020188708093000100C0A59800C0F7
:104CE00080910201809588708093000100C000C00F
:104CF0008091020188708093000100C0A59800C0D7
:104D000080910201809588708093000100C000C0EE
:104D10008091020188708093000100C0A59800C0B6
:104D200080910201809588708093000100C000C0CE
:104D30008091020188708093000100C0A59800C096
:104D400080910201809588708093000100C000C0AE
:104D50008091020188708093000100C0A59800C076
:104D600080910201809588708093000100C000C08E
:104D70008091020188708093000100C0A59800C056
:104D800080910201809588708093000100C000C06E
:104D90008091020188708093000100C0A59800C036
:104DA00080910201809588708093000100C000C04E
:104DB0008091020188708093000100C0A59800C016
:104DC00080910201809588708093000100C000C02E
:104DD0008091020188708093000100C0A59800C0F6
:104DE00080910201809588708093000100C000C00E
:104DF0008091020188708093000100C0A59800C0D6
:104E000080910201809588708093000100C000C0ED
:104E10008091020188708093000100C0A59800C0B5
:104E200080910201809588708093000100C000C0CD
:104E30008091020188708093000100C0A59800C095
:104E400080910201809588708093000100C000C0AD
:104E50008091020188708093000100C0A59800C075
:104E600080910201809588708093000100C000C08D
:104E700000C00000E6E2F0E03197F0F7915009F051
:104E8000F7CE88EF19D800C0000086E290E00197C5
:104E9000F0F7CF5FD05FC03209F0CBCE80E00CD806
:104EA00080EC0AD800C0000086E290E00197F0F79D
:104EB0007398DBCDF80185818883D7CD80E0D6CD8E
:104EC000B901C8010E9482F3D0CDD80111968C910E
:104ED0008883CBCD443191F0473109F0C6CD18829B
:104EE000D80112968C911297898315968C911597FB
:104EF00081508A8313968C918B83B7CDD8011596F8
:104F00004C91159750E0440F551F70E060E01696E5
:104F10008D919C910F940F1CF80112828081815019
:104F200083831482A2CD381708F49FCD871708F425
:104F30009CCDFA80E12CD12C243070F4D6CDBE016A
:104F4000C8010E9482F3898198819D0D98838E0DFE
:104F50008983FF0C09F489CDF7FEF6CFF0CF58E036
:104F6000580F482FAECDEF92FF920F931F93CF9320
:104F7000DF93EC018B017A018A859B858617970761
:104F800031F0888199810E9412F51B870A87B70149
:104F9000888199810E94B8ED2E813F81820F932FE5
:104FA000911D9F838E8390E080E0DF91CF911F91D0
:104FB0000F91FF90EF9008959F92AF92BF92CF9282
:104FC000DF92EF92FF920F931F93CF93DF93EC0149
:104FD0008B01942EA52E8A859B858617970731F025
:104FE000888199810E9412F51B870A878885998597
:104FF000019649F5BC800A818E81080FC880D9804E
:10500000D6015596ED91FC91C6011995B80EE92C83
:10501000FA2C10E0F70121917F01211127C08E8128
:105020009F81810F911D9F838E8390E080E0DF91AF
:10503000CF911F910F91FF90EF90DF90CF90BF9095
:10504000AF909F9008950E811F81692D7A2D8881E0
:1050500099810E94B8ED800F912F911D2885398587
:105060002817390738F681E090E0E1CF4B2D602F0B
:10507000C6010E942BF6080F180FCCCFDF92EF92DB
:10508000FF920F931F93CF93DF93EC01D62E1CADAD
:105090000BAD7C0184E0E80EF11CE98DFA8DC701AF
:1050A0001995412F480F2D2D602FC7010E942BF617
:1050B0009BAD890F8BAF81E090E0DF91CF911F9185
:1050C0000F91FF90EF90DF9008952F923F924F92B3
:1050D0005F926F927F928F929F92AF92BF92CF9288
:1050E000DF92EF92FF920F931F93CF93DF93CDB791
:1050F000DEB72D970FB6F894DEBF0FBECDBF8091FF
:105100002B15813031F080914F1682FF6EC087FDE4
:105110006CC00E943BBA4B015C0145E050E060E28C
:1051200070E08EE395E00F940F1C85E480933C05BE
:105130008AE380933D05C501B40120E13EE040E0F3
:1051400050E00F944E17D22EC32E022F132F8CE354
:10515000282E312C412C512CC501B401A201910102
:105160000F944E17762E672ECA01B901A201910144
:105170000F944E179E012F5F3F4F790130E8831641
:1051800031E5930631E0A306B10408F447C07F93EC
:105190006F93C80168E170E00F94B8179F938F93E5
:1051A000C501B40120E831E541E050E00F944E170D
:1051B0003F932F9381E990E19F938F93FF92EF921A
:1051C0000F94BD10C7010F9473100FB6F894DEBF93
:1051D0000FBECDBF2CE030E0A901481B5109CA0128
:1051E000B701845C9A4F0F94341C2D960FB6F89437
:1051F000DEBF0FBECDBFDF91CF911F910F91FF900A
:10520000EF90DF90CF90BF90AF909F908F907F9066
:105210006F905F904F903F902F900895011511056A
:1052200099F46F927F927F936F9385E890E19F93BB
:105230008F93FF92EF920F94BD100FB6F894DEBFDC
:105240000FBECDBF85E0C6CF0436110538F47F937D
:105250006F93CF92DF9289E790E1E9CF7F936F93CD
:10526000CF92DF928FE690E19F938F93FF92EF9220
:105270000F94BD100FB6F894DEBF0FBECDBF86E011
:10528000A9CFCF93C0914A05CC23C9F14CE050E09F
:1052900060E270E08CE395E00F940F1C2C2F30E05F
:1052A00060E2C43630F0C90164E670E00F94CC17B8
:1052B000605D60936D0780E2CA3058F0EAE0F0E08C
:1052C000C901BF010F94CC17CB01BF010F94CC17BC
:1052D000805D80936E07C9016AE070E00F94CC177F
:1052E000805D80936F0783E0EDE6F7E0A0E4B5E032
:1052F00001900D928A95E1F785E280934305CF9165
:105300000895CF9380913205811154C010924016B8
:10531000109241161092421610920E1610920D160F
:105320001092101610920F161092121681E08093B0
:10533000111682E280931316109218161092171607
:10534000ECE2F6E12AE336E18FEF81932E173F0777
:10535000E1F7C1E0C09329162BEA34ED30931F1614
:1053600020931E16C093201610922116109222161A
:1053700090E490932316109224162AEA34ED309389
:105380003B1620933A1623E132E030930C1620931B
:105390000B1696E09093301694E09093311695E0BA
:1053A00090932E1680932D1680932C160E94C0F396
:1053B000C093320581E08093340585E690E19093B7
:1053C0005B1580935A1510925D1510925C15CF9164
:1053D0000895CF92DF92EF92FF920F931F93CF9396
:1053E000DF93CDB7DEB72C970FB6F894DEBF0FBEB4
:1053F000CDBFF0904016E090411620913405211168
:105400001DC045E250E16E2D8F2D0E9495F690E073
:1054100080E0F80EF0924016E092411699272C9603
:105420000FB6F894DEBF0FBECDBFDF91CF911F91B5
:105430000F91FF90EF90DF90CF900895C0900D16E0
:10544000D0900E1629E036E13A8329832F2D30E0E3
:105450003C832B832E2D30E03E832D8318861F82C4
:105460007A8769871C861B860CED17E29E012F5FE9
:105470003F4F49EB5EE8BC01C6010E9436E6B6012B
:1054800089E096E10E9412F58F819885C2CFAB0129
:10549000BC0140934B1650934C1660934D1670937D
:1054A0004E1680EB97E10C94F39880910105909152
:1054B0000205009731F04AE050E070E060E00D94A2
:1054C000450F60E070E0CB01089580910105909157
:1054D0000205009731F04AE050E070E060E00D9482
:1054E000180E60E070E0CB010895EFDFCB01089566
:1054F000ECDF97FD0AC0E9DF6F3F7105810591057B
:1055000009F02CF4E2DF862F089580E008958FEFF4
:1055100008958091010590910205892B39F0E8DF0B
:1055200091E0811101C090E0892F089591E0FCCFB6
:10553000EF92FF920F931F93CF93DF9300D000D091
:1055400000D01F921F92CDB7DEB77C012091620779
:10555000422F022E000C550B80916307833099F186
:10556000843051F185E394E15F932F939F938F9360
:105570008E010F5F1F4F1F930F930F94BD10C70134
:105580000E94A6C74FE350E0B8018AE097E00F946D
:10559000491C0F900F900F900F900F900F902B962B
:1055A0000FB6F894DEBF0FBECDBFDF91CF911F9134
:1055B0000F91FF90EF90089581E494E127FDD4CFFF
:1055C0008CE294E1D1CF8AE494E1CECF8091A6150C
:1055D0009091A715ADCFE0918B0786E0E802F0012E
:1055E0001124E45BF84F80819181A2CFCF93DF93A8
:1055F000CDB7DEB720E2488559856F818E810E9444
:1056000065EDDF91CF910895282F10928907809141
:10561000740790917507A0917607B0917707B7FF4F
:1056200008C01092740710927507109276071092B6
:1056300077078091BA05882331F0809174078093B1
:1056400060071092840780915E071816FCF4082EFC
:10565000000C990B821B910920916007022E000C0F
:10566000330B2817390794F097FF02C090E080E0D1
:1056700080936007092E000CAA0BBB0B8093740764
:1056800090937507A0937607B09377078091600792
:105690006623A9F090916107891714F4809361073C
:1056A00020916107022E000C330B2C5F3F4F482FD7
:1056B000082E000C550B241735071CF484508093DA
:1056C000610708950F931F93522F20910316309175
:1056D00004162817390731F11092BB059093041670
:1056E000809303168B0130E020E000937407109341
:1056F000750720937607309377074093610750939F
:105700005E07805D9E4421F4109291071092B305CC
:1057100082E080935F0281E0809384071092B90554
:105720001092B6051F910F91089581E08093910723
:105730008091F9068770873051F01092F906109227
:10574000C00583E294E2909309078093080720E064
:1057500040E070E060E086E195E3B4CF20E040E017
:1057600070E060E080ED9EE4ADCFCF930E94DFB8A3
:105770000E948EA1C82F882319F080E00E94DEA02D
:105780008C2F70D8CF91EACF83ED92E190930907E7
:1057900080930807E3CFCF93DF93C091B305CC2369
:1057A000B1F0C150C093B30589E0C89FE001112456
:1057B000C358DA4F6A817B812F814E81888199811C
:1057C00081DF888580939107DF91CF910895DF91E4
:1057D000CF91C4CF80E090E0A0E8B0E48093F00ED9
:1057E0009093F10EA093F20EB093F30E8BE093E042
:1057F0000E94E1B110929107CECFE091B305E6305F
:1058000028F581E08E0F8093B30540917407509185
:1058100075076091760770917707209161079091E5
:105820005E078091910739E0E39FF0011124E3586E
:10583000FA4FA0910316B0910416B183A08342835E
:105840005383648375832683978380870895CF93DA
:10585000DF93CDB7DEB78E81282F082E000C330BD7
:10586000909159159217130609F08CF480935915ED
:105870009E01275F3F4F4F8158856AE270E08EE2BC
:1058800095E10F94EC1010922D1510922C15DF91CC
:10589000CF9108950F931F93CF93DF938C016F3FA8
:1058A00019F41092591560E020915915862F062E93
:1058B000000C990B2817190609F014F56093591577
:1058C000C8010F947310800F911FEC01C01BD10B06
:1058D000CB32D1053CF00197FC012491207C20388B
:1058E000D1F3F3CFDD27AE01B8018EE295E10F943D
:1058F0009410C25DDA4E188210922D1510922C155C
:10590000DF91CF911F910F910895CF9380917505ED
:10591000811109C08BEA91E19093B5058093B4059C
:1059200081E08093750569DF20E040E070E060E091
:1059300086E395E3C7DEC1E0C09391070E9472A59C
:105940001092910728DFC093910760E08FE09CE3FD
:10595000A1DF40E061E080E00E949CCF81EA91E11C
:105960009093090780930807CF9108950F931F9391
:105970000E940CF30091710510917205209173053E
:1059800030917405601B710B820B930B97FD0EC059
:1059900089B183FB882780F991E089274A9B82603F
:1059A0009091030190FF8460809370058091700551
:1059B00081709091700591FD826090916F059817AC
:1059C00049F0813009F148F0823079F0833091F06C
:1059D00080936F051F910F910895913079F0923067
:1059E000B9F790916E0591500CC0992339F093301E
:1059F000C1F3EECF9130A9F3923051F790916E053B
:105A00009F5F90936E05E4CF992359F3933001F78C
:105A1000F5CFCF92DF92EF92FF92CF93C82F0E94E3
:105A20000CF36B017C0124EA30E74DE75FE3609102
:105A300024027091250280912602909127020F94F2
:105A4000241187FD18C08AEF90E0A0E0B0E08C0D33
:105A50009D1DAE1DBF1D80935E0590935F05A093B5
:105A60006005B0936105C0931A02CF91FF90EF904B
:105A7000DF90CF90089580E090E0DC01E8CF8F3098
:105A800010F48F5F08958F5008953BDC53985B9A14
:105A900052985A9AE4E0F1E080818E7F8083809171
:105AA0000501809581708093030160DF10926E057F
:105AB0000C949AE620E030E040E05FE36091A215AC
:105AC0007091A3158091A4159091A5150F94F417CA
:105AD0000F943819CB0108959CE0899F802D1124E3
