:100000000C943F180C9478180C9478180C94781869
:100010000C9478180C9478180C9478180C94781820
:100020000C9478180C9478180C9478180C94781810
:100030000C9478180C94022D0C9478180C94781861
:100040000C94F0270C9478180C9482AF0C947818C8
:100050000C94C18A0C948B8A0C9478180C947818A0
:100060000C9478180C9478180C9478180C947818D0
:100070000C9478180C9478180C9478180C947818C0
:100080000C9478180C9478180C947818084AD73B7C
:100090003BCE016E84BCBFFDC12F3D6C74319ABD57
:1000A00056833DDA3D00C77F11BED9E4BB4C3E917B
:1000B0006BAAAABE000000803F05A84CCDB2D44E6A
:1000C000B93836A9020C50B9918688083CA6AAAA6C
:1000D0002ABE000000803F07634236B79BD8A71AAC
:1000E00039685618AEBAAB558C1D3CB7CC5763BDBA
:1000F0006DEDFD753EF6177231BF000000803F08C0
:10010000000000BE922449123EABAAAA2ABECDCC62
:10011000CC4C3E00000080BEABAAAAAA3E00000064
:1001200000BF000000803F0000000000084178D3BD
:10013000BB4387D1133D190E3CC3BD4282AD2B3E5C
:1001400068EC8276BED98FE1A93E4C80EFFFBE01FC
:10015000C4FF7F3F0000000000004E414E494E4961
:100160005459494E46CDCCCC3D0AD7233C17B7D184
:100170003877CC2B329595E6241FB14F0A0000202A
:10018000410000C84200401C4620BCBE4CCA1B0EA9
:100190005AAEC59D7441425300504C4100457272A5
:1001A0003A20454550524F4D20436F72727570741E
:1001B000004572723A20454550524F4D20435243FC
:1001C000004572723A20454550524F4D2053697A8E
:1001D00065004572723A20454550524F4D20566594
:1001E0007273696F6E005072696E742041626F7233
:1001F000746564004D32350050617573696E672E09
:100200002E2E004D3234003F0049676E6F7265003C
:10021000526573657400496E697469616C697A65C9
:1002200020454550524F4D0046696C2E204469616F
:100230002E004520696E206D6D5E3300200820463B
:10024000616374002008204D6178002008204D690A
:100250006E004F6666004F6E004175746F74656D79
:1002600070004D696E2054726176656C2053706524
:100270006564004D696E2056656C6F636974790022
:100280004D61782040205370656564004D61782091
:100290004520416363656C004D61782040204163D7
:1002A00063656C0054726176656C20416363656CB4
:1002B000005265747261637420416363656C004130
:1002C0006363656C00402073746570732F6D6D00FF
:1002D000416476616E6365642053657474696E670A
:1002E00073003F0043616E63656C00496E69740082
:1002F0004D34323800496E697469616C697A6520E1
:10030000454550524F4D0046696C616D656E7400F5
:1003100054656D70657261747572650053746570B3
:10032000732F6D6D004A756E6374696F6E2044653E
:100330007600416363656C65726174696F6E004D30
:10034000617820537065656420286D6D2F732900D6
:1003500053657420486F6D65204F666673657473CE
:1003600000436F6E66696775726174696F6E0042F3
:100370006564004E6F7A7A6C650046616E2053703A
:1003800065656400436F6E66696775726174696F55
:100390006E00526573746F72652044656661756C9A
:1003A0007473004C6F61642053657474696E677375
:1003B0000053746F72652053657474696E677300BF
:1003C00050726568656174202420436F6E66004139
:1003D0006476616E6365642053657474696E6773D7
:1003E000004D61696E003F004261636B0053746FA2
:1003F00070004D323200417474616368204D656451
:100400006961004D3231005072696E742066726FFE
:100410006D204D656469610052656C65617365208E
:100420004D6564696100436F6E66696775726174DA
:10043000696F6E0054656D706572617475726500E8
:100440004D6F74696F6E00526573756D65205072E3
:10045000696E740054756E650053746F702050722D
:10046000696E74005061757365205072696E740016
:10047000496E666F2053637265656E003F0053746A
:10048000617274205072696E740043616E63656CB2
:10049000005072696E740043616E6E6F7420656EF9
:1004A000746572207375626469723A200002202EAE
:1004B0002E000152656672657368004D61696E00B9
:1004C0002100486F74656E6420746F6F20636F6CD9
:1004D00064004261636B0050726F63656564004D38
:1004E0006F7665204578747275646572004D6F741F
:1004F000696F6E0044697361626C65205374657046
:1005000070657273004D3834004175746F20486F08
:100510006D6500473238004D61696E005072656844
:1005200065617420242042656400507265686561CD
:1005300074202420456E640054656D70657261748A
:100540007572650099019501436F6F6C646F776EEA
:10055000005072656865617420240046616E205306
:100560007065656400426564004E6F7A7A6C650060
:100570004D61696E00466C6F770046616E20537066
:1005800065656400426564004E6F7A7A6C6500535D
:1005900070656564004D61696E006F70656E005432
:1005A0005249474745524544003A20007A5F6D69F9
:1005B0006E00795F6D696E00785F6D696E005265DF
:1005C000706F7274696E6720656E6473746F7020EB
:1005D0007374617475730A0000000000000000006D
:1005E000000000005761726E696E673A20486F6DB7
:1005F000696E672042756D702044697669736F7209
:10060000203C20310A000202040000484300004858
:1006100043000016430000A0400000A0400000007E
:10062000400000484300004843000016430000001B
:1006300000000000000000000053657474696E67DC
:10064000732053746F72656400290A002062797404
:1006500065733B20637263200053657474696E6731
:10066000732053746F72656420280048617264635C
:100670006F6465642044656661756C7420536574AD
:1006800074696E6773204C6F616465640020286D27
:100690006D290020460020420020480020204D31D6
:1006A00034352053004D6174657269616C20686552
:1006B0006174757020706172616D6574657273002C
:1006C00020204D3134392043203B20556E6974730E
:1006D00020696E2043656C736975730A0054656DFB
:1006E000706572617475726520556E69747300204F
:1006F00020473231203B004C696E65617220556E97
:1007000069747300454550524F4D206461746173A4
:10071000697A65206572726F722E0A002028636103
:100720006C63756C6174656429210A0020213D2089
:1007300000454550524F4D20435243206D69736D23
:1007400061746368202D202873746F72656429209A
:1007500000454550524F4D20436F72727570740AB8
:10076000002053697A653A2000496E6465783A2022
:1007700000290A002062797465733B20637263204C
:10078000002073746F7265642073657474696E679A
:1007900073207265747269657665642028000000B4
:1007A0002F4400002F440000C84200401C460000B7
:1007B000A0420000A0420000C8430000C842B80B9D
:1007C0000000B80B00006400000010270000204D5E
:1007D00061726C696E3D563838290A0045455052A1
:1007E0004F4D2076657273696F6E206D69736D6110
:1007F0007463682028454550524F4D3D0020436F9B
:10080000756E7420583A0042656400453100450019
:10081000626564002C2073797374656D2073746F46
:100820007070656421204865617465725F49443A5F
:1008300020004572723A204D415854454D50004DAC
:10084000415854454D5020747269676765726564FC
:100850000048656174696E67204661696C65640073
:1008600048656174696E67206661696C65640045FE
:1008700072723A204D494E54454D50004D494E54E8
:10088000454D50207472696767657265640054480D
:1008900045524D414C2052554E41574159005468E4
:1008A00065726D616C2052756E6177617900202FE1
:1008B000002042403A0020403A000009121B242D3B
:1008C000363F48415A536C657E7719100B023D3410
:1008D0002F265158434A757C676E323B2029161FDC
:1008E000040D7A7368615E574C452B2239300F0630
:1008F0001D14636A7178474E555C646D767F40497C
:10090000525B2C253E3708011A137D746F665950CF
:100910004B42353C272E1118030A565F444D727B1B
:1009200060691E170C053A3328214F465D546B62EF
:100930007970070E151C232A31384148535A656CCB
:10094000777E09001B122D243F3658514A437C758F
:100950006E671019020B343D262F737A6168575E5B
:10096000454C3B3229201F160D046A6378714E47AF
:100970005C55222B3039060F141D252C373E0108FB
:10098000131A6D647F7649405B523C352E2718114F
:100990000A03747D666F5059424B171E050C333A9B
:1009A00021285F564D447B7269600E071C152A236F
:1009B0003831464F545D626B70790000210024008D
:1009C00027002A0000002110422063308440A550F7
:1009D000C660E770088129914AA16BB18CC1ADD185
:1009E000CEE1EFF13112100273325222B55294422D
:1009F000F772D662399318837BB35AA3BDD39CC3D5
:100A0000FFF3DEE36224433420040114E664C77478
:100A1000A44485546AA54BB528850995EEE5CFF524
:100A2000ACC58DD55336722611163006D776F666CC
:100A30009556B4465BB77AA719973887DFF7FEE774
:100A40009DD7BCC7C448E5588668A7784008611898
:100A500002282338CCC9EDD98EE9AFF948896999C4
:100A60000AA92BB9F55AD44AB77A966A711A500A6C
:100A7000333A122AFDDBDCCBBFFB9EEB799B588B14
:100A80003BBB1AABA66C877CE44CC55C222C033CB8
:100A9000600C411CAEED8FFDECCDCDDD2AAD0BBD64
:100AA000688D499D977EB66ED55EF44E133E322E0C
:100AB000511E700E9FFFBEEFDDDFFCCF1BBF3AAFB4
:100AC000599F788F8891A981CAB1EBA10CD12DC112
:100AD0004EF16FE18010A100C230E32004502540A8
:100AE00046706760B9839893FBA3DAB33DC31CD308
:100AF0007FE35EF3B1029012F322D23235421452F8
:100B000077625672EAB5CBA5A89589856EF54FE553
:100B10002CD50DC5E234C324A01481046674476447
:100B200024540544DBA7FAB79987B8975FE77EF7A7
:100B30001DC73CD7D326F2369106B0165766767697
:100B4000154634564CD96DC90EF92FE9C899E98973
:100B50008AB9ABA94458654806782768C018E108E7
:100B60008238A3287DCB5CDB3FEB1EFBF98BD89B47
:100B7000BBAB9ABB754A545A376A167AF10AD01A37
:100B8000B32A923A2EFD0FED6CDD4DCDAABD8BAD93
:100B9000E89DC98D267C076C645C454CA23C832C87
:100BA000E01CC10C1FEF3EFF5DCF7CDF9BAFBABFE7
:100BB000D98FF89F176E367E554E745E932EB23ED7
:100BC000D10EF01E7C3C3E5E2B3D3F2F5B5D3B2CEF
:100BD0002A225C00434F4D4D554E49434154494FE5
:100BE0004E0044525952554E004552524F525300F6
:100BF000494E464F004543484F004572726F722080
:100C000077726974696E6720746F20454550524F42
:100C10004D210A00506C65617365205265736574DF
:100C2000005052494E5445522048414C54454400CE
:100C300025533A202553004B494C4C45442E200067
:100C40005072696E7465722068616C7465642E20E0
:100C50006B696C6C28292063616C6C6564210A00E7
:100C6000006563686F3A004572726F723A00204403
:100C70000020204D32303020530020284469736119
:100C8000626C6564293A0046696C616D656E74201A
:100C900073657474696E67730020204D32303120A3
:100CA00058004D617820416363656C6572617469B9
:100CB0006F6E2028756E6974732F7332290020209F
:100CC0004D3230332058004D61782066656564727E
:100CD000617465732028756E6974732F7329002001
:100CE000520020204D323034205000416363656C47
:100CF00065726174696F6E2028756E6974732F73E5
:100D000032292028503C7072696E742D61636365CE
:100D10006C3E20523C726574726163742D61636332
:100D2000656C3E20543C74726176656C2D61636322
:100D3000656C3E2900204A002054002053002020EA
:100D40004D323035204200416476616E6365642027
:100D500028423C6D696E5F7365676D656E745F7484
:100D6000696D655F75733E20533C6D696E5F6665A6
:100D70006564726174653E20543C6D696E5F747287
:100D80006176656C5F66656564726174653E204A74
:100D90003C6A756E635F6465763E290020440020DE
:100DA000490020204D333031205000486F74656E6B
:100DB0006420504944002E0A007612292D262D2346
:100DC0002D206E6F742064697361626C65642E20DF
:100DD00053686172656420776974680020496E7693
:100DE000616C69642065787472756465722000476F
:100DF000322F47332062616420706172616D6574C7
:100E00006572730A00536C6565702E2E2E00436C5C
:100E100069636B20746F20526573756D652E2E2E7D
:100E200000616C736F20656E61626C6564290A00F5
:100E30004E6F204D6F76652E00456E642066696C9E
:100E400065206C6973740A00426567696E20666983
:100E50006C65206C6973740A004E6F206D6564695F
:100E6000610A00534420636172642072656C65619D
:100E70007365640A00286E6F2066696C65290043FB
:100E8000757272656E742066696C653A20004E6FEB
:100E900074205344207072696E74696E670A00533F
:100EA00044207072696E74696E672062797465207F
:100EB000002E0A0044656C6574696F6E2066616976
:100EC0006C65642C2046696C653A200046696C6547
:100ED0002064656C657465643A005072696E7420B4
:100EE00074696D653A20000A53746174733A204640
:100EF000696C616D656E7420757365643A20002CB1
:100F0000204C6F6E67657374206A6F623A200054DC
:100F10006F74616C2074696D653A2000537461745C
:100F2000733A20002C204661696C65643A20002CDD
:100F30002046696E69736865643A20005072696E74
:100F400074733A200053746174733A20006F6B001D
:100F50006F666600F50BF00BE90BE20BD40B444512
:100F60004255473A004D31313320530057616E6886
:100F7000616F206933204F46462E00434F4E46494D
:100F8000475F4558504F5254004D454154504143DE
:100F90004B00434F4F4C45525F54454D50455241D5
:100FA00054555245004348414D4245525F54454DCA
:100FB00050455241545552450042414259535445BF
:100FC0005050494E470041524353004D4F54494FF2
:100FD0004E5F4D4F44455300544845524D414C5F80
:100FE00050524F54454354494F4E00455854454E76
:100FF0004445445F4D323000435553544F4D5F4696
:1010000049524D574152455F55504C4F4144004C59
:10101000464E5F5752495445004C4F4E475F464934
:101020004C454E414D45004155544F5245504F524D
:10103000545F53445F5354415455530053445F57D6
:101040005249544500524550454154004D554C5469
:10105000495F564F4C554D4500534443415244005F
:1010600050524F4D50545F535550504F52540048BA
:101070004F53545F414354494F4E5F434F4D4D4191
:101080004E445300454D455247454E43595F5041EC
:101090005253455200434153455F4C494748545FC2
:1010A0004252494748544E45535300544F47474CCA
:1010B000455F4C494748545300534F46545741529B
:1010C000455F504F574552004255494C445F50458B
:1010D0005243454E54004C4556454C494E475F449B
:1010E000415441005A5F50524F42450052554E4FB5
:1010F0005554004155544F4C4556454C00505249AB
:101100004E545F4A4F420050524F4752455353008E
:101110004155544F5245504F52545F54454D500025
:101120004155544F5245504F52545F504F53005603
:101130004F4C554D455452494300454550524F4D33
:101140000042494E4152595F46494C455F54524115
:101150004E534645520053455249414C5F584F4EFD
:101160005F584F4646004649524D574152455F4EE3
:10117000414D453A4D61726C696E20322E312E32EE
:101180002E3820284A756E203238203230323620F0
:1011900030393A30353A31322920534F5552434590
:1011A0005F434F44455F55524C3A676974687562B6
:1011B0002E636F6D2F4D61726C696E4669726D772B
:1011C0006172652F4D61726C696E2050524F544FA1
:1011D000434F4C5F56455253494F4E3A312E3020C3
:1011E0004D414348494E455F545950453A57616E09
:1011F00068616F2069332045585452554445525F09
:10120000434F554E543A3120555549443A6365642D
:1012100065326132662D343161322D343734382DE8
:10122000396231322D63353563363266333637668F
:1012300066002F2F004D31343520533C696E6465B4
:10124000783E206F7574206F662072616E6765202E
:1012500028302D31290A003F4A206F7574206F66AF
:101260002072616E67652028302E303120746F2027
:10127000302E33290A002058004F4646004F4E00BA
:101280003B200020204D61783A2000200020204D96
:10129000696E3A2000203B200020204D3231312061
:1012A0005300250A0046523A0020466C6F773A20D8
:1012B0000064697300656E0043290A0061626C6511
:1012C0006420286D696E2074656D702000436F6C1A
:1012D000642065787472756465732061726520009E
:1012E000486F6D65202573204669727374004F66E0
:1012F0006673657473204170706C696564004D4954
:101300004E2F4D415820546F6F2046617200546F2C
:101310006F206661722066726F6D204D494E2F4DB1
:1013200041580A00454550524F4D204F4B0A004D41
:10133000383400446F6E65207072696E74696E6730
:101340002066696C650A004D3737004D333100491E
:101350006E76616C69642065787472756465720A72
:101360000020204D323036205800486F6D65206FC8
:101370006666736574004361703A0020746F6F2075
:101380006C6F6E6720657874727573696F6E20700C
:10139000726576656E7465640A0020636F6C642004
:1013A000657874727573696F6E2070726576656E9C
:1013B0007465640A002569730025696D20256973C9
:1013C000002569682025696D2025697300256964F9
:1013D000202569682025696D2025697300256979B4
:1013E00020256964202569682025696D2025697399
:1013F0000020573A00436F6F6C696E672E2E2E00E7
:1014000045312025530020573A0042656420436F40
:101410006F6C696E672E2E2E0042656420486561F0
:1014200074696E672E2E2E0023646566696E6520D2
:1014300044454641554C545F004B4420004B4920E5
:10144000004B5020002066696E6973686564212036
:1014500050757420746865206C617374204B702C17
:10146000204B6920616E64204B6420636F6E73743F
:10147000616E74732066726F6D2062656C6F772089
:10148000696E746F20436F6E666967757261746907
:101490006F6E2E680A00504944204175746F747550
:1014A0006E6500206661696C6564212074696D65F4
:1014B0006F75740A00504944204175746F74756EDD
:1014C0006500206661696C6564212054656D7065F6
:1014D00072617475726520746F6F20686967680A3D
:1014E00000504944204175746F74756E6500504911
:1014F00044204379636C65730025532025692F25AB
:101500006900204B643A2000204B693A2000204BB0
:10151000703A200020436C61737369632050494422
:10152000200A002054753A2000204B753A200020F4
:101530006D61783A2000206D696E3A200020643A8F
:10154000200020626961733A200048656174696E09
:10155000672E2E2E002073746172740A0050494465
:10156000204175746F74756E6500206661696C65E5
:1015700064212054656D70657261747572652074A4
:101580006F6F20686967680A00504944204175748C
:101590006F74756E6500504944204175746F7475A1
:1015A0006E65003F28432979636C6573206E6F7404
:1015B00020706C61757369626C6520283E3D33292B
:1015C0002E0A00206661696C6564212042616420F6
:1015D0006865617465722069640A0050494420415D
:1015E00075746F74756E65004572723A2075746615
:1015F0003820666F6E74206E6F7420696E6974692E
:10160000616C697A65642E004572723A2075746661
:101610003820666F6E74206E6F7420696E6974690D
:10162000616C697A65642E004572723A2075746641
:101630003820666F6E74206E6F7420696E697469ED
:10164000616C697A65642E0020003A003A002568D2
:10165000753A25303268750025303268753A253084
:10166000326875002530326875272530326875007C
:10167000256875642025303268753A2530326875E2
:101680000042656400456E636C6F7375726500455A
:1016900000200025002020202020202000202020C5
:1016A0002000657272001FE0201020102010102012
:1016B00010202010201030300840048003001FE06C
:1016C0003FF03FF03FF01FE01FE03FF03FF03FF002
:1016D0000FC0078003003FFFF038007030FC30205F
:1016E000FC102078102030102C00D02E31D02F7B11
:1016F000D02F7BD02E31D02C00D02030102078106D
:1017000020FC1030FC303800703FFFF03FFFF03815
:1017100000703186302387102787902F87D02F03C2
:10172000D02030102078102078102030102F03D0D7
:101730002F87D02787902387103186303800703F5D
:10174000FFF01FFFF81FFFF80410400208200208F6
:101750002004104008208010410010410008208023
:101760000410400000001FFFF81FFFF8000C0F00DE
:10177000FE07022503BB017FFE08FE08FE050808E0
:1017800006000040F0C88888987810050808060010
:1017900000C0F88888888888F805050506000120BB
:1017A00030F830200508080600002070F8202020BE
:1017B00020E00509090600FF2070A8A8B8888870F5
:1017C00020070505070001D86C366CD80509090605
:1017D00000FFF8A88888888888A8F8050A0A060003
:1017E000FE205050505088A8A888700303030600BC
:1017F0000340A040FFFFFFFFFFFFFFFFFFFFFFFFD2
:10180000FFFFFFFFFFFFFFFFFFFF0000000605FFD8
:1018100001070706020080808080800080030303A8
:10182000060105A0A0A005060606000050F85050CD
:10183000F8500509090600FF2070A8A07028A870BC
:1018400020050707060000C8C81020409898050723
:101850000706000040A0A040A8906801030306020C
:10186000058080800309090601FF204040808080B8
:101870004040200309090601FF804040202020400D
:10188000408005070706000020A8702070A82005EA
:1018900005050600012020F820200203030601FFB1
:1018A000C04080050101060003F8020202060100A3
:1018B000C0C0050707060000081010204040800542
:1018C0000707060000708898A8C8887003070706F5
:1018D000010040C040404040E0050707060000709E
:1018E0008808102040F8050707060000F8081030A7
:1018F00008887005070706000010305090F8101097
:10190000050707060000F880F0080888700507073B
:10191000060000304080F088887005070706000048
:10192000F80810102020200507070600007088889E
:10193000708888700507070600007088887808108E
:1019400060020505060100C0C000C0C00206060610
:1019500001FFC0C000C04080030505060101204012
:10196000804020050303060002F800F80305050681
:1019700001018040204080050707060000708810A4
:10198000202000200507070600007088B8A8B8804E
:1019900070050707060000708888F88888880507A2
:1019A00007060000F04848704848F00507070600A1
:1019B0000070888080808870050707060000F04866
:1019C00048484848F0050707060000F88080F08086
:1019D00080F8050707060000F88080F08080800509
:1019E0000707060000708880809888700507070642
:1019F0000000888888F8888888030707060100E0C7
:101A00004040404040E00507070600003810101035
:101A10001090600507070600008890A0C0A090887D
:101A2000050707060000808080808080F805070792
:101A300006000088D8A8888888880507070600005F
:101A40008888C8A8988888050707060000708888D5
:101A500088888870050707060000F08888F0808075
:101A60008005070706000070888888A89068050729
:101A700007060000F08888F0A09088050707060098
:101A80000070888070088870050707060000F8203D
:101A900020202020200507070600008888888888E5
:101AA0008870050707060000888888885050200540
:101AB000070706000088888888A8A8500507070639
:101AC0000000888850205088880507070600008895
:101AD000885020202020050707060000F808102065
:101AE0004080F80309090601FFE080808080808043
:101AF00080E0050707060000804040201010080322
:101B000009090601FFE020202020202020E0050315
:101B1000030600052050880501010600FEF80303B6
:101B200003060105804020050505060000700878C1
:101B300088780507070600008080F0888888F0050F
:101B40000505060000708080887005070706000004
:101B5000080878888888780505050600007088F0F0
:101B60008070050707060000304840E0404040050F
:101B700007070600FE708888887808700507070642
:101B800000008080F08888888803070706010040ED
:101B900000C0404040E00409090601FE100030107A
:101BA000101010906005070706000080808890E004
:101BB0009088030707060100C04040404040E00510
:101BC0000505060000D0A8A8A8A805050506000080
:101BD000B0C8888888050505060000708888887068
:101BE0000507070600FEF0888888F0808005070753
:101BF0000600FE7888888878080805050506000034
:101C0000B0C880808005050506000078807008F067
:101C10000507070600002020F820202018050505EC
:101C200006000088888898680505050600008888F1
:101C30008850200505050600008888A8A8500505DD
:101C40000506000088502050880507070600FE881A
:101C5000888850204080050505060000F8102040C7
:101C6000F80309090601FF20404040804040402021
:101C70000109090602FF80808080808080808003C7
:101C800009090601FF804040402040404080050394
:101C90000306000248A890FF534420636172642049
:101CA0006F6B0A006F70656E526F6F7420666169AA
:101CB0006C65640A00766F6C756D652E696E69746B
:101CC000206661696C65640A004E6F20534420638E
:101CD0006172640A000A4D3234004D32332025739C
:101CE000002E0A006F70656E206661696C65642C59
:101CF0002046696C653A200046696C652073656C06
:101D000065637465640A002053697A653A20004669
:101D1000696C65206F70656E65643A2000454E44BD
:101D200020535542524F5554494E450A00222070C7
:101D30006F73002220706172656E743A22005355F1
:101D400042524F5554494E452043414C4C207461FA
:101D5000726765743A220053756263616C6C204F40
:101D6000766572666C6F7700457863656564656457
:101D7000206D617820535542524F5554494E4520AD
:101D800064657074683A0057726974696E6720748C
:101D90006F2066696C653A2000667265736800643E
:101DA0006F696E67002066696C653A20004E6F7738
:101DB00020002F6175746F25632E6700800000007E
:101DC0000000000000000000000000018000000092
:101DD0000000000000000000000000018000000082
:101DE0000000000000000000000000018000000072
:101DF0000000000000000000000000018000000062
:101E00000000000000000000000000018000000051
:101E10000000000000000000000000018000000041
:101E20000000000000000000000000018000000031
:101E30000000000000000000000000018000000021
:101E40000000000000000000000000018000000011
:101E50000000000000000000000000018000000001
:101E600000000000000000000000000180000000F1
:101E700000000000000000000000000180000000E1
:101E800000000000000000000000000180000000D1
:101E900000000000000000000000000180000000C1
:101EA00000000000000000000000000180000000B1
:101EB00000000000000000000000000180000000A1
:101EC0000000000000000000000000018000000091
:101ED0000000000000000000000000018000000081
:101EE0000000000000000000000000018000000071
:101EF0000000000000000000000000018000000061
:101F00000000000000000000000000018000000050
:101F10000000000000000000000000018000000040
:101F20000000000000000000000000018000000030
:101F30000000000000000000000000018000000020
:101F40000000000000000000000000018000000010
:101F500000000000000000000000000180000001FF
:101F6000FFFFFFFFFFFFFFFF800000018000000078
:101F700000000000000000000000000180000000E0
:101F80000FC7E0000000000000000001800000001A
:101F9000084230001E000210000000018000000016
:101FA00000C210C6210FC220000000018000000006
:101FB000078210C6210102C000000001800000005D
:101FC000078210AA21010300000000018000000028
:101FD0000C0230AA210102C00000000180000000B4
:101FE0000847E0721E00C2300000000180000000BF
:101FF0000FC0000000000000000000018000000091
:10200000000000000000000000000001800000014E
:10201000FFFFFFFFFFFFFFFF8000000180000000C7
:10202000000000000000000000000001800000002F
:10203000000000000000000000000001800000001F
:10204000000000000000000000000001800000000F
:1020500000000000000000000000000180000000FF
:1020600000000000000000000000000180000000EF
:1020700000000000000000000000000180000000DF
:1020800000000000000000000000000180000000CF
:1020900000000000000000000000000180000000BF
:1020A00000000000000000000000000180000000AF
:1020B000000000000000000000000001800000009F
:1020C000000000000000000000000001800000008F
:1020D000000000000000000000000001800000007F
:1020E000000000000000000000000001800000006F
:1020F000000000000000000000000001800000005F
:10210000000000000000000000000001800000004E
:10211000000000000000000000000001800000003E
:10212000000000000000000000000001800000002E
:10213000000000000000000000000001800000001E
:10214000000000000000000000000001800000000E
:1021500000000000000000000000000180000000FE
:1021600000000000000000000000000180000000EE
:1021700000000000000000000000000180000000DE
:1021800000000000000000000000000180000000CE
:1021900000000000000000000000000180000000BE
:1021A00000000000000000000000000180000000AE
:1021B0000000000000000000000000016D61726C72
:1021C000696E66772E6F726700322E312E322E388E
:1021D000001FFFFFFFFFFFFF600000000001FF4046
:1021E0000000000000FF8000000000007F83CF009F
:1021F000000C303F87FF80000C301F867980000C78
:10220000000F8C30C7838C30E78C30CFC7CC31F3D4
:102210008C30DCECEC33B98C30D86C6C33198C30EE
:10222000D06C0C33198C30D86C0C33198C30DC6CBE
:102230000E3B198C30CF7C079F198C30C77C038FE5
:102240001940000000000002600000000000061FAE
:10225000FFFFFFFFFFF85C005E016800540176009D
:102260004A018500400198003601AD002C01C700ED
:102270002201E50018010A010E01350104016A017D
:10228000FA00A901F000F701E6005602DC00CA02DC
:10229000D2005A03C8000C04BE00EA04B400FF05D3
:1022A000AA005807A000060996001C0B8C00AE0D72
:1022B0008200CD10780085146E00D7186400AE1D22
:1022C0005A00E02250002C284600442D3C00DE310C
:1022D0003200C8352800E8381E00453B1400F73CA2
:1022E0000A00203E00002020506C616E6E65724234
:1022F000756666657242797465733A20002046728D
:102300006565204D656D6F72793A200020436F6DD1
:1023100070696C65643A204A756E2032382032301C
:1023200032360A00204C6173742055706461746504
:10233000643A20323032362D30362D3234207C2033
:10234000417574686F723A20283344776F726B2C32
:102350002068747470733A0A004D61726C696E2063
:10236000322E312E322E380A0020536F6674776178
:1023700072652052657365740A0020576174636842
:10238000646F672052657365740A002042726F772C
:102390006E206F75742052657365740A002045784D
:1023A0007465726E616C2052657365740A00506FBB
:1023B00077657255700A0073746172740A0047324F
:1023C000385859004D31303031006F6B00657272F2
:1023D0006F722077726974696E6720746F20666906
:1023E0006C650A00446F6E6520736176696E6720C4
:1023F00066696C652E0A00456E6473746F707300B5
:10240000255320256320256320256320256300654F
:102410006E6473746F7073206869743A20000000F2
:102420002200250028002B00020202020202020202
:102430000404040404040404030303030303030364
:102440000101010101010101010204081020408085
:10245000010204081020408001020408102040807E
:10246000804020100804020124F404D9201BC40C6D
:102470005C0E9804C4095F0265077101F405F90058
:10248000FB04B30048048700C103690058035500EA
:1024900003034500BE023A008402310053022A00C1
:1024A0002902250004022000E4011C00C8011900D3
:1024B000AF0117009801140084011300710110008E
:1024C0006101100051010E0043010D0036010B00A7
:1024D0002B010B0020010B00150109000C01090064
:1024E00003010800FB000800F3000800EB000700F0
:1024F000E4000600DE000600D8000600D200060058
:10250000CC000500C7000500C2000500BD000400A6
:10251000B9000400B5000400B1000400AD000400DF
:10252000A9000400A5000300A20003009F0004000E
:102530009B00030098000300950002009300030035
:10254000900003008D0002008B0003008800020051
:102550008600020084000300810002007F00020068
:102560007D0002007B00020079000200770001007C
:102570007600020074000200720001007100020087
:102580006F0002006D0001006C0002006A00010093
:10259000690002006700010066000100650001009B
:1025A000640002006200010061000100600001009F
:1025B0005F0002005D0001005C0001005B000100A3
:1025C0005A000100590001005800010057000100A5
:1025D00056000100550001005400010053000000A6
:1025E00053000100520001005100010050000100A1
:1025F0004F0001004E0000004E0001004D000100A0
:102600004C0001004B0000004B0001004A0001009B
:102610004900010048000000480001004700010097
:102620004600000046000100450000004500010092
:10263000440001004300000043000100420000008C
:102640004200010041000000410001004000010083
:102650003F0000003F0001003E0000003E0001007E
:102660003D0000003D0001003C0000003C00000077
:102670003C0001003B0000003B0001003A0000006C
:102680003A00010039000000390001003800000064
:10269000380000003800010037000000370001005A
:1026A0003600000036000000360001003500000052
:1026B0003500000035000100340000003400000047
:1026C000340001003300000033000000330001003B
:1026D0003200000032000000320001003100000032
:1026E0003100000031000100300000003000000027
:1026F000300001002F0000002F0000002F0000001C
:102700002F0001002E0000002E0000002E0001000E
:102710002D0000002D0000002D0000002D00010004
:102720002C0000002C0000002C0000002C000100F8
:102730002B0000002B0000002B0000002B000100EC
:102740002A0000002A0000002A0000002A000100E0
:1027500029000000290000002900000029000000D5
:1027600029000100280000002800000028000000C7
:1027700028000000280001002700000027000000BA
:1027800027000000270000002700010026000000AD
:1027900026000000260000002600000026000100A0
:1027A0002500000025000000250000002500000095
:1027B0002500000025000100240000002400000086
:1027C0002400000024000000240001002300000079
:1027D000230000002300000023000000230000006D
:1027E000230000002300010022000000220000005E
:1027F0002200000022000000220000002200010050
:102800002100000021000000210000002100000044
:102810002100000021000000210001002000000034
:102820002000000020000000200000002000000028
:102830002000000020000000200001001F00000018
:102840001F0000001F0000001F0000001F0000000C
:102850001F0000001F0001001E0000001E000000FD
:102860001E0000001E00000024F4D43050C38E204F
:10287000C2A24017828B7011127A910D816CD90A15
:10288000A861E108C7586607615143061E4B5D0504
:10289000C145A7041A411104093D98037139310358
:1028A0004036DB0265339102D4305402802E1D0283
:1028B000632CEE01752AC501B028A0011027810103
:1028C0008F2564012B244B01E0223401AC211F0130
:1028D0008D200D01801FFC00841EED00971DDF0080
:1028E000B81CD200E61BC600201BBC00641AB20054
:1028F000B219A8000A19A0006A189900D11791000E
:1029000040178B00B516840031167E00B315790090
:102910003A157300C7146F0058146A00EE1366006E
:102920008813630025135E00C7125B006C1257000A
:1029300015125400C111510070114F0021114B00AC
:10294000D61049008D104700461044000210420086
:10295000C00F4000800F3E00420F3C00060F3B00BE
:10296000CB0E3800930E37005C0E3500270E340076
:10297000F30D3200C10D3100900D3000600D2E00BE
:10298000320D2D00050D2C00D90C2B00AE0C2900AA
:10299000850C29005C0C2700350C27000E0C260046
:1029A000E80B2400C40B2400A00B23007D0B2300A4
:1029B0005A0B2100390B2100180B2000F80A1F00C8
:1029C000D90A1E00BB0A1E009D0A1D00800A1D00B8
:1029D000630A1C00470A1B002C0A1B00110A1A007C
:1029E000F7091A00DD091900C4091900AB0919001B
:1029F000920917007B091800630917004C0916009B
:102A000036091600200916000A091500F5081500F8
:102A1000E0081400CC081400B8081400A40814003E
:102A2000900813007D0812006B081300580812006C
:102A30004608120034081100230811001208110082
:102A400001081100F0071000E0071000D007100087
:102A5000C0071000B0070F00A107100091070E007B
:102A600083070F0074070F0065070E0057070E005D
:102A700049070E003B070D002E070E0020070D0032
:102A800013070D0006070D00F9060C00ED060D00FA
:102A9000E0060C00D4060C00C8060C00BC060C00B6
:102AA000B0060C00A4060B0099060C008D060B0066
:102AB00082060B0077060B006C060B0061060A000D
:102AC00057060B004C060A0042060A0038060A00A8
:102AD0002E060A0024060A001A060A00100609003B
:102AE00007060A00FD050900F4050900EB050900C9
:102AF000E2050900D9050900D0050900C70509004C
:102B0000BE050900B5050800AD050800A5050900CA
:102B10009C050800940508008C0508008405080041
:102B20007C050800740508006C05070065050800B1
:102B30005D050700560508004E050700470507001C
:102B40004005080038050700310507002A05070081
:102B5000230507001C050600160507000F050700E2
:102B60000805060002050700FB040600F50407003F
:102B7000EE040600E8040600E2040700DB04060099
:102B8000D5040600CF040600C9040600C3040600ED
:102B9000BD040600B7040600B1040500AC0406003D
:102BA000A6040600A00405009B0406009504050089
:102BB000900406008A0405008504050080040600D0
:102BC0007A04050075040500700405006B04050017
:102BD00066040500610405005C0405005704050057
:102BE000520405004D040500480405004304050097
:102BF0003E0404003A0405003504050030040400D6
:102C00002C04050027040400230405001E0404000E
:102C10001A04040016040500110404000D04040045
:102C2000090405000404040000040400FC0304007B
:102C3000F8030400F4030400F0030400EC030400B0
:102C4000E8030400E4030400E0030400DC030400E0
:102C5000D8030400D4030400D0030400CC03040010
:102C6000C8030300C50303005D2E00006E230000AF
:102C700013180000AF0E00003D08000063040000C0
:102C800045020000270100004D6F766520246D6D20
:102C900000302E303235004D6F766520302E316D8C
:102CA0006D004D6F766520316D6D004D6F7665203E
:102CB00031306D6D004D6F76652041786973004D40
:102CC0006F7665202A004D6F766520400020005009
:102CD00072696E742066726F6D204D656469610063
:102CE0002000200020002000486F6D696E6720469C
:102CF00061696C656400FFFFFF43616E6E6F742055
:102D00006F70656E207375626469722000220A001C
:102D1000556E6B6E6F776E20636F6D6D616E643A8A
:102D2000202200204500205A0020590020204D3943
:102D30003220580053746570732070657220756E70
:102D4000697400627573793A2070617573656420E7
:102D5000666F7220696E7075740A00627573793AD5
:102D60002070617573656420666F7220757365727B
:102D70000A00627573793A2070726F6365737369C4
:102D80006E670A004D6564696120496E73657274EF
:102D9000656400000000010200090A000000000450
:102DA0000308070000000000000000000000000011
:102DB0000000004D3131322053687574646F776EB6
:102DC0000053544F505045442E20005072696E7489
:102DD00065722073746F707065642064756520740B
:102DE0006F206572726F72732E2046697820746846
:102DF00065206572726F7220616E64207573652044
:102E00004D39393920746F20726573746172742E74
:102E1000202854656D7065726174757265206973E0
:102E20002072657365742E20536574206974206167
:102E3000667465722072657374617274696E672955
:102E40000A004E6F20436865636B73756D20776968
:102E50007468206C696E65206E756D6265722C20D9
:102E60004C617374204C696E653A20004D32390014
:102E70004E6F20436865636B73756D207769746866
:102E8000206C696E65206E756D6265722C204C61D8
:102E90007374204C696E653A2000636865636B73D8
:102EA000756D206D69736D617463682C204C61735E
:102EB00074204C696E653A20004C696E65204E7531
:102EC0006D626572206973206E6F74204C6173743B
:102ED000204C696E65204E756D6265722B312C2019
:102EE0004C617374204C696E653A20004D3131306D
:102EF0000053657269616C20737461747573206D21
:102F000069736D617463680A00534420726561647B
:102F1000206572726F720A004B494C4C20627574C6
:102F2000746F6E2F70696E0A002121204B494C4C42
:102F3000206361757365642062792000746F6F206F
:102F40006D75636820696E61637469766520746964
:102F50006D65202D2063757272656E7420636F6DD0
:102F60006D616E643A20002121204B494C4C206356
:102F700061757365642062792000DB0FC93F45BC31
:102F8000DA3F8FB30240FCF0274056946140FE4B7D
:102F90009B4084A5D840E0231841346A5641E85943
:102FA000974164DBD5416E271742B4B75542CE1A1C
:102FB0009742C8AED542B5885A43D40684BFA65FAF
:102FC000A7BF7443E0BF10B11AC01C2C58C0E8F66C
:102FD00097C0B849D6C04E4E17C124D355C18024DE
:102FE00097C1A0B5D5C1121A17C244AE55C2781701
:102FF00097C26CACD5C267885AC320746F6F206CBF
:103000006F6E6720657874727573696F6E20707269
:103010006576656E7465640A0020636F6C64206574
:103020007874727573696F6E2070726576656E74F0
:1030300065640A006F6B0A00526573656E643A201E
:103040000020453A00205A3A0020593A00583A00E8
:1030500057616E68616F2069332052656164792E13
:10306000005072696E74696E672E2E2E0050726960
:103070006E742050617573656400D5CFFDD6112440
:103080001FBECFEFD0E4DEBFCDBF84B78093A81DB5
:1030900014BE0FB6F894A895809160008861809363
:1030A0006000109260000FBE12E0A0E0B1E0EAE61E
:1030B000F9EC01E00BBF02C007900D92A035B107FB
:1030C000D9F72DE1A0E5B2E001C01D92A83AB20700
:1030D000E1F718E1CEE3D8E104C02197FE010E9498
:1030E000E3DFCD33D107C9F70E94D0D00C94A9E417
:1030F0000C940000DC01680F791F90E080E02D91B6
:10310000E92FFF27E227EE0FFF1FEC53F64F259123
:103110003491982F8827822793276A177B0779F79E
:103120000895A0E1B0E0E7E9F8E10C940CE08C012F
:10313000DC01ED91FC910280F381E02DBE016F5F17
:103140007F4F0995882309F45DC08981807C91F5C2
:103150006F81637070E0762F6627770F770F888511
:10316000B4E08B9FC0011124682B792B898582954F
:10317000869586958370682B6F5F7F4F90E080E027
:103180002A852370220F3B8537FB332730F9232B09
:103190003E813F70230F3327331F2750310904C06E
:1031A000660F771F881F991F2A95D2F76096E4E073
:1031B0000C9428E0803419F568856695669570E072
:1031C00090E080E0CB01772766272A85622B09856E
:1031D00010E0102F0027012E000C220B330B602B68
:1031E000712B822B932B6F5F7F4F8F4F9F4F4AE046
:1031F000660F771F881F991F4A95D1F7D7CF8BE0AD
:10320000F801848360E070E0CB01D0CF0895FC0129
:1032100082810895CF93DF93C091A61AD091A71A07
:1032200081E0CE31D105E4F020E030E040E05FE322
:103230006091A21A7091A31A8091A41A9091A51A74
:103240000E9442E00E9486E16C1B7D0B77FF03C069
:1032500071956195710981E0633071050CF080E032
:10326000DF91CF910895FC0190E1A9E3B3E00190D3
:103270000D929A95E1F70895CF92DF92EF92FF9227
:1032800080918402882309F457C0C0908002D090B6
:103290008102E0908202F090830220E030E0A901F8
:1032A000C701B6010E9477DB882309F445C020E0FE
:1032B00030E040E05FE3C701B6010E94DCDB9B0128
:1032C000AC010E94DCDB2BED3FE049E450E40E94BE
:1032D000DCDB9B01AC0160E070E080E89FE30E94D2
:1032E0001EE16B017C01C0927702D0927802E092DD
:1032F0007902F0927A026091060170910701072E1F
:10330000000C880B990B0E947DDB2AE037ED43E22D
:103310005CE30E94DCDBA70196010E94DCDB60938A
:103320006001709361018093620190936301FF904B
:10333000EF90DF90CF900895C12CD12C80E8E82E3B
:103340008FE3F82ED0CF94E6899F90011124215865
:103350003F4FC9016FEF70E00E94D0DFFB01862F65
:1033600091E3643609F090E2909356028A30D8F0E7
:10337000C90166EF79E00E94D0DFCB016AE070E01E
:103380000E94D0DF805D80935702CF016AE070E039
:103390000E94D0DF805D8093580285E280935902BD
:1033A00086E592E0089580E2EECFFC0184910895D5
:1033B000FC01808108956091060170910701072E3C
:1033C000000C880B990B0E947DDB2AE037ED43E26D
:1033D0005CE30E94DCDB209177023091780240911F
:1033E000790250917A020E94DCDB60936001709355
:1033F0006101809362019093630108958091530568
:10340000811104C0809131058093A10508958091B8
:10341000421C8823F1F02FEF3FEF309344012093BB
:10342000430181508093421CE1E7FAE1882351F087
:103430008150990B2BE1289FF001299FF00D112459
:10344000EC5CF44E8BE1A6E5BAE101900D928A9511
:10345000E1F72091421C211105C080914C1C806431
:1034600080934C1C81E090E0A0E0B0E0211103C00B
:1034700080E090E0DC018093490590934A05A09399
:103480004B05B0934C051092440581E080934605AE
:1034900083E080935001089582EF93E090931105AB
:1034A000809310050895CF93DF93EC01642F70E0B3
:1034B00090E080E00E947DDB29EC38EC48EC5EE394
:1034C0000E941EE120E030E040E05FE30E9442E025
:1034D0000E948BE16883DF91CF91089570E090E0C6
:1034E00080E00E947DDB29EC38EC48EC5EE30E9432
:1034F0001EE120E030E040E05FE30E9442E00E94F5
:103500008BE1862F20CFE091530586E0E802F001A1
:103510001124E25EFA4F8091310590E09583848317
:103520000895CF93DF93EC01CB01BA010E947DDBBC
:1035300020E030E048EC52E40E941EE12FE632E148
:1035400043E85AE30E9442E0688379838A839B833D
:10355000DF91CF910895CF93DF93EC01CB01BA01B6
:103560000E947DDB20E030E048EC52E40E941EE146
:103570002FE632E143E85AE30E9442E06883798310
:103580008A839B83DF91CF910895CF93DF93EC01E2
:10359000CB01BA010E947BDB2AE037ED43E25DE319
:1035A0000E941EE10E948BE1688379838A839B835A
:1035B000DF91CF910895CF93DF93EC01CB01BA0156
:1035C0000E947DDB2AE037ED43E25DE30E941EE1CD
:1035D000688379838A839B83DF91CF910895CF930A
:1035E000DF93EC01CB01BA010E947DDB6883798314
:1035F0008A839B83DF91CF910895FC01518340839F
:103600000895CF93DF93EC01CB01BA010E947DDBDB
:1036100020E030E04AE754E40E941EE127E137EB66
:1036200041ED58E30E9442E0688379838A839B835B
:10363000DF91CF910895CF93DF93C091A61AD091D7
:10364000A71A209729F16091A21A7091A31A80916C
:10365000A41A9091A51A0E9486E16E5F7F4F24976D
:103660006C177D07ACF470935E0360935D030E945A
:1036700056AF605C73468F4F9F4F60935F037093AC
:1036800060038093610390936203DF91CF9108956B
:1036900010925F0310926003109261031092620314
:1036A000F4CFCF93DF93C091A61AD091A71A209799
:1036B00029F16091A21A7091A31A8091A41A909195
:1036C000A51A0E9486E16E5F7F4F24976C177D07D5
:1036D000ACF470935E0360935D030E9456AF605C30
:1036E00073468F4F9F4F60935F0370936003809387
:1036F000610390936203DF91CF91089510925F036D
:10370000109260031092610310926203F4CFC9CF4C
:10371000CF93DF93EC018D810E94F78A60E08B816B
:103720000E94C7AEDF91CF9108958F929F92AF9282
:10373000BF92DF92EF92FF920F931F93CF93DF938D
:1037400000D000D000D0CDB7DEB77C01D62E490125
:103750005A01DEDF0E9462AF1E821D828D2D8064C1
:103760008983BA82AB829C828D828E010F5F1F4F4C
:10377000CE010696D801E0E02D91F0E0EE0FFF1F9C
:10378000E227E654F74FE491A817B907A9F7EE0F1F
:10379000E160EE83580186E0A80EB11CF80181912A
:1037A0008F010E94EB8A0A151B05C1F7FCE0DF12AE
:1037B00002C00E94F08A10E00E94F08AF70186831E
:1037C00087FF04C01F3F11F01F5FF6CF26960FB68C
:1037D000F894DEBF0FBECDBFDF91CF911F910F9147
:1037E000FF90EF90DF90BF90AF909F908F900895E3
:1037F00061E0FC0183810E94C7AE8FEF0C94EB8ADD
:103800000F931F93CF938C0183DF0E9462AFC82F69
:1038100081110AC082E1F8018483C801E9DF8C2F9D
:10382000CF911F910F9108958DEF0E94EB8A0E9416
:1038300062AFC82FF2CFB0E0A0E0E1E2FCE10C946F
:1038400004E0EC016A017B014801590120E030E00D
:10385000A90167E36ADFA501980167E1CE0165DF91
:1038600081111DC08F81833039F089E0CC0CDD1CC3
:10387000EE1CFF1C8A95D1F7A701960169E1CE01E4
:1038800054DF11E0882319F010E087E08C83CE012B
:10389000AFDF812FCDB7DEB7ECE00C9420E089E0FC
:1038A0008C8310E0F4CFB0E0A0E0E9E5FCE10C94FB
:1038B00009E08C01D62EEA0160E072E0CA011ADC50
:1038C0007C01DEBCCE019E5F0DB407FEFDCF2881DA
:1038D0002EBD0DB407FEFDCF29812EBD2296C8173F
:1038E000D90791F70DB407FEFDCF8F2D0E94EB8A0B
:1038F0008E2D0E94EB8A0E94F08AF80186838F71D8
:10390000853051F083E18483C80172DF80E0CDB758
:10391000DEB7E7E00C9425E081E0F9CFEF92FF926B
:103920001F93CF93DF93EC017B01F2DE0E9462AF25
:10393000182F81110BC085E18C83CE0159DF812FB7
:10394000DF91CF911F91FF90EF900895A7016CEF49
:10395000CE01A9DF182FF1CF0F931F93CF93DF93E1
:10396000EC0189018F81833039F089E0440F551FC4
:10397000661F771F8A95D1F79A01AB0168E1CE01E6
:10398000D4DE882321F086E08C8310E007C0A801F4
:103990006EEFCE0188DF811109C011E0CE0128DF72
:1039A000812FDF91CF911F910F9108950E9462AFF7
:1039B000182F811103C087E18C83F0CF20E030E025
:1039C000A9016DE0CE01B1DE811104C00E94F08A30
:1039D000882319F386E1D8CF1F93CF93DF93EC01AF
:1039E00097DE20E030E0A9016CE0CE019EDE11E020
:1039F000882319F010E083E08C83CE01F9DE812F5B
:103A0000DF91CF911F9108951F93CF93DF93EC0126
:103A10008F81833039F089E0440F551F661F771F6F
:103A20008A95D1F79A01AB0162E1CE017EDE11E009
:103A3000882319F010E085E08C83CE01D9DE812F38
:103A4000DF91CF911F9108958F929F92AF92BF9275
:103A5000CF92DF92FF920F931F93CF93DF93EC01EE
:103A60008B016A010E9456AF4B015C012CE2820E71
:103A700021E0921EA11CB11C0E94F08A8E838F3F10
:103A800061F40E9456AF681979098A099B0997FD6C
:103A9000F3CF81E18C8310E028C08E3F09F03EC057
:103AA000C60101972FEF2EBDF8014FEF0DB407FEB1
:103AB000FDCF2EB521934EBD9F01201B310B281742
:103AC0003907A0F30DB407FEFDCF2EB5800F911F6F
:103AD000FC0120830E94F08AF82E0E94F08AB82E02
:103AE00080912B01811110C011E0CE0181DE812F68
:103AF000DF91CF911F910F91FF90DF90CF90BF90FA
:103B0000AF909F908F900895B601C801F3DA3F2DD2
:103B10002B2D8217930741F38BE1BCCF8FE0BACFF7
:103B20000F931F93CF93DF93EC018B01F1DD40E006
:103B300052E0B801CE0188DFDF91CF911F910F9144
:103B40000895B0E0A0E0E7EAFDE10C9406E0EC01A6
:103B50006A017B0159018F81833039F089E0CC0CF7
:103B6000DD1CEE1CFF1C8A95D1F713E004E0A701D1
:103B7000960161E1CE01D9DD882369F00C83CE0185
:103B800037DE1150A1F020E030E0A9016CE0CE0159
:103B9000CCDD1C82ECCF40E052E0B501CE0154DF19
:103BA000882369F3CDB7DEB7EAE00C9422E080E029
:103BB000F9CFB0E0A0E0EFEDFDE10C9404E0EC0102
:103BC000162F1F821C824B830E9456AF6B017C0113
:103BD00020EDC20E27E0D21EE11CF11CA89561E089
:103BE0008B810E94C7AE8B8190E0FC01E85BFB4DAE
:103BF0002491885D9B4DFC018491882399F090E08D
:103C0000880F991FFC01E654F64FA591B491FC0171
:103C1000E25EFB4D859194918FB7F894EC912E2B39
:103C20002C938FBF249A279A2698259A81E00E9488
:103C3000F78A85E08D830E94F78A0AE08FEF0E9461
:103C4000EB8A0150D9F7A89520E030E0A90160E0A7
:103C5000CE016BDD8E83813079F00E9456AF6C19F6
:103C60007D098E099F0997FDEFCF81E08C83CE01FE
:103C7000BFDD1A8280E072C021E030E040E050E019
:103C80006BE3CE0152DD91E0813009F090E090933A
:103C90002B01A8952AEA31E040E050E068E0CE012F
:103CA00044DD853031F581E08F83A8958F81812CAB
:103CB000912C5401823029F4812C912CA12C80E488
:103CC000B82E20E030E0A90167E3CE012EDDA5018A
:103CD000940169E2CE0129DD8E838823F1F00E94F0
:103CE00056AF6C197D098E099F0997FDEACF8AE0CE
:103CF000BDCF04E00E94F08A8E830150D9F78A3A42
:103D000011F482E0D1CF0E9456AF6C197D098E0963
:103D10009F0997FDBFCF82E0A9CF8F818230B9F490
:103D200020E030E0A9016AE3CE01FFDC882311F036
:103D300088E09CCF0E94F08A807C803C11F483E074
:103D40008F830E94F08A0E94F08A0E94F08ACE013E
:103D50004FDD81E08A83173030F41D83CDB7DEB7A5
:103D6000ECE00C9420E088E18C8384CF0F931F93C8
:103D7000CF93DF93EC018B0120E030E0A90169E0F3
:103D8000D4DC882351F080E18C83CE0131DD80E0EA
:103D9000DF91CF911F910F91089540E150E0B8015C
:103DA000CE0152DEF5CFEF92FF920F931F93CF9388
:103DB0007B018A01C2E48F3F09F0C4E580E20E94E2
:103DC000607E8C2F0E94607E8AE30E94607EF701F5
:103DD00060817181828193810E9423A88EEA98E09C
:103DE0000E94B17EF80160817181828193810E947D
:103DF00023A862E070E080E090E00E9423AFCF91C2
:103E00001F910F91FF90EF9008950F930091EA0298
:103E100021E002272BEE32E044E050E0BC0188EEC6
:103E200092E00E94227E0F9108950F930091EA0282
:103E300021E002272BEE32E041E050E0BC0188EEA9
:103E400092E00E94227E0F9108950F930091EA0262
:103E500021E002272BEE32E04CE050E0BC0188EE7E
:103E600092E00E94227E0F9108950F930091EA0242
:103E700021E002272BEE32E041E050E0BC0188EE69
:103E800092E00E94227E0F9108950F930091EA0222
:103E900021E002272BEE32E048E050E0BC0188EE42
:103EA00092E00E94227E0F9108950F930091EA0202
:103EB00021E002272BEE32E04CE050E0BC0188EE1E
:103EC00092E00E94227E0F9108950F9301E02BEE65
:103ED00032E041E050E0BC0188EE92E00E94227E98
:103EE0000F9108950F9301E02BEE32E042E050E095
:103EF000BC0188EE92E00E94227E0F9108950F93FC
:103F0000AB010091EA0221E002272BEE32E0BC0176
:103F100088EE92E00E94227E0F9108952BEE32E00F
:103F200044E050E0BC0188EE92E00C9492892BEEC4
:103F300032E042E050E0BC0188EE92E00C949289BD
:103F40002BEE32E041E050E0BC0188EE92E00C94B0
:103F500092892BEE32E041E050E0BC0188EE92E025
:103F60000C9492892BEE32E04CE050E0BC0188EEDC
:103F700092E00C949289CF93C82FCB010E94B17E1E
:103F800089EA95E00E94B17E8AE995E0CC2311F0A0
:103F90008FE995E00E94E989CF910895B0E0A0E013
:103FA000E4EDFFE10C940EE020E24F8158856E8134
:103FB0008D810E9431ABE2E00C942AE060913105E2
:103FC0008FEF0C94D6CD80913105682F0C94D6CD0F
:103FD0006FEF809131050C94D6CD62EB7FE482E0E7
:103FE0000C9420CE64EB7FE481E00C9420CE66EB51
:103FF0007FE480E00C9420CE63EB7DE483E00C94BE
:1040000020CE109244050C943AB38091500188233D
:1040100041F06091CC027091CD0241E081E00C94BE
:10402000D1AA08959C01FC0190E08EE2DB014D9144
:10403000BD01403249F0983011F480833196DB01A4
:1040400011974C91408331969F5F9B3079F7108296
:10405000C9010895CF938091C119C1E08823C9F0A7
:104060008091C2199091C3194091B9195091BA1910
:104070006091BB197091BC19DC01ED91FC91028833
:10408000F389E02D29EB37E10995C82F811104C090
:10409000C0E08C2FCF9108954091BD195091BE1969
:1040A0006091BF197091C0194115510561057105E5
:1040B000B9F08091C2199091C319DC01ED91FC9186
:1040C0000288F389E02D29EB37E10995882301F374
:1040D0001092BD191092BE191092BF191092C019FA
:1040E0001092C119D6CFCF92DF92EF92FF92CF9369
:1040F0006B017C01C42F8091B9199091BA19A091DC
:10410000BB19B091BC198C159D05AE05BF0519F101
:10411000A1DF811107C080E0CF91FF90EF90DF9089
:10412000CF9008958091C2199091C319DC01ED914F
:10413000FC910088F189E02D29EB37E1B701A60158
:104140000995882341F3C092B919D092BA19E09227
:10415000BB19F092BC1981E0CC23F1F28093C11914
:10416000DBCFB0E0A0E0E7EBF0E20C9400E0EC0184
:10417000423051056105710530F480E0CDB7DEB7FE
:10418000E0E10C941CE089859A85AB85BC8501969D
:10419000A11DB11D84179507A607B70770F38F8976
:1041A0008031B9F5852E962EA72EBB248B899C894C
:1041B000AD89BE89880E991EAA1EBB1E2801390131
:1041C0006A017B0141E0C501B4018DDF8823A9F2BA
:1041D0009F89903179F5DD24EE24FF24F601EE0F5E
:1041E000FF1FE754F84E118300839A89923030F212
:1041F0004D815E816F817885840E951EA61EB71E47
:104200008092BD199092BE19A092BF19B092C019A8
:10421000B5CF803209F0B1CF8B899C89AD89BE8939
:104220004A015B01E7E0B694A79497948794EA95D6
:10423000D1F7C0CFE894C7F8DD24EE24FF24F601BF
:10424000EE0FFF1FEE0FFF1FE754F84E4082518222
:1042500062827382CACFB0E0A0E0E1E3F1E20C94A5
:1042600008E0FC0181859285A385B4850196A11D96
:10427000B11D84179507A607B70730F480E0CDB7C6
:10428000DEB7E8E00C9424E087898031A9F5BB27EC
:10429000A72F962F852FC388D488E588F6888C0DA4
:1042A0009D1DAE1DBF1DE9016A017B018F0140917B
:1042B000B9195091BA196091BB197091BC19841742
:1042C0009507A607B70749F5F8018789803161F599
:1042D000B701A601552766277727440F551F475476
:1042E000584EFA0180819181B0E0A0E088839983E3
:1042F000AA83BB8381E0C3CF803209F0BFCFC388DC
:10430000D488E588F688DB01CA01C7E0B695A79591
:1043100097958795CA95D1F7C2CF40E0BC01CD01F2
:10432000E2DE8111D1CFAACFB701A6014F77552781
:1043300066277727440F551F440F551F4754584E83
:10434000FA0180819181A281B381BF70CFCF4F925A
:104350005F926F927F92AF92BF92CF92DF92EF9275
:10436000FF920F931F93CF93DF9300D000D0CDB770
:10437000DEB78C0149835A836B837C835901C12C3E
:10438000D12C7601412C82E0582E612C712C498170
:104390005A816B817C819E012F5F3F4FC8015BDF9B
:1043A000882319F1F8018585A301920104C0220F29
:1043B000331F441F551F8A95D2F7DA01C901C80E71
:1043C000D91EEA1EFB1E49815A816B817C81878937
:1043D0008031F1F481E0483F5F4F61057105B8F22B
:1043E000F501C082D182E282F3820F900F900F908C
:1043F0000F90DF91CF911F910F91FF90EF90DF9081
:10440000CF90BF90AF907F906F905F904F90089546
:1044100081E0483F5F4F6F4F7F4008F4B8CFE0CF57
:10442000B0E0A0E0E6E1F2E20C9404E0EC018B8164
:10443000811106C080E0CDB7DEB7ECE00C9420E03F
:1044400009891A892B893C8904171507260737071C
:1044500088F34A015B01823031F488869986AA8606
:10446000BB8681E0E8CF81149104A104B10449F432
:10447000188619861A861B861C821D821E821F8240
:10448000F0CF088519852A853B85E98DFA8D8585CC
:1044900090E00996B901A8014150510961097109DB
:1044A000082E04C076956795579547950A94D2F7DC
:1044B00075016401E1E0CE1AD108E108F10804C0F9
:1044C000F694E794D794C7948A95D2F7C416D50684
:1044D000E606F70620F0012B022B032B09F58D8948
:1044E0009E89AF89B88D8C839D83AE83BF838E01F7
:1044F0000C5F1F4FC114D104E104F10409F4ADCFE6
:104500004C815D816E817F819801898D9A8DA3DEBA
:1045100091E0C91AD108E108F1088111EBCF8ACFE7
:10452000C41AD50AE60AF70AE2CFB0E0A0E0EBE948
:10453000F2E20C94FEDFEC014B018A018B818111C8
:1045400007C08FEF9FEFCDB7DEB7E2E10C941AE022
:10455000898180FFF6CF89899A89AB89BC89488592
:1045600059856A857B85841B950BA60BB70BA80123
:1045700070E060E084179507A607B70708F48C0180
:1045800068011E0124E0220E311CC114D10409F47B
:10459000A8C0488559856A857B855A0181E0B82283
:1045A000898D9A8D2A013B0139E07694679457945E
:1045B00047943A95D1F72B81FC01223081F5628D29
:1045C000738D848D958D640D751D861D971DE12C51
:1045D00022E0F22EEA18FB08CE14DF0408F476017C
:1045E000E114E2E0FE0671F44090B9195090BA1956
:1045F0006090BB197090BC19641575058605970508
:1046000009F04CC040E06FDD882309F49ACFB50172
:104610006754784EA701C4010E944CE451C0F48055
:10462000FA94F420A114B10471F4F1100CC0452BDC
:10463000462B472B51F58D899E89AF89B88D8C8388
:104640009D83AE83BF83E98DFA8D4C805D806E8043
:104650007F8022E0421A510861087108858504C0F4
:10466000440C551C661C771C8A95D2F78685978565
:10467000A089B189480E591E6A1E7B1EC301B20172
:104680006F0D711D811D911DA2CF4C815D816E81C9
:104690007F819101E0DD8111D6CF53CFA091C21966
:1046A000B091C319ED91FC9111970088F189E02D2B
:1046B0009401AB01BC01CD010995882309F441CFD8
:1046C0008E0C9F1C88859985AA85BB858E0D9F1DA4
:1046D000A11DB11D88879987AA87BB87CE18DF08DF
:1046E00054CFC80130CF0F931F93CF93DF93FC01BA
:1046F0002381222331F080E0DF91CF911F910F9130
:1047000008958B01EC01FB018789803139F582E046
:104710008B831D8A1E8A1F8A188E808D918DB0E032
:10472000A0E025E0880F991FAA1FBB1F2A95D1F78B
:10473000898B9A8BAB8BBC8B1A8F098F81E0898315
:10474000188619861A861B861C821D821E821F826D
:10475000188A1C861D861E861F86CECF803259F68B
:1047600083E08B83428D538D648D758D4D8B5E8B75
:104770006F8B788F9E012F5E3F4FC801E8DD81115E
:10478000DBCFB9CFCF93DF93EC01462F41706C851F
:104790007D858E859F85A7DC882351F0888920E25E
:1047A000829FC00111248754984EDF91CF910895C4
:1047B00090E080E0FACFCF93DF93EC018B818823E8
:1047C00041F1898187FF21C061E0CE01DBDFFC017F
:1047D000892BF9F08081853EE1F08B81823040F4B5
:1047E00089899A89AB89BC89848F958FA68FB78F69
:1047F0008D899E89938F828F8D899E89AF89B88D8F
:10480000B58BA48B89818F77898324DCDF91CF914D
:10481000089581E0888380E0F9CFCF93DF93EC01A6
:10482000CADF1B82DF91CF910895CF93DF93EB0115
:10483000FC012381211104C080E0DF91CF91089514
:104840002250223028F48FE28883198281E0F5CF4C
:1048500060E098DF009781F3DC0160E080E09EE299
:104860002D91203299F0883031F49E01260F311DB0
:10487000F90190836F5F9E01260F311DAD014150FC
:104880005109FA014081F90140836F5F8F5F8B30DE
:1048900039F7FE01E60FF11D1082D8CFACE0B0E091
:1048A000E4E5F4E20C94FFDF5C01DC0159968D90A5
:1048B0009C90F40181859285A385B4859C01AD010E
:1048C0002F5F3F4F4F4F5F4F29873A874B875C875A
:1048D000D50114964D905D906D907C901797411482
:1048E00051046104710409F458C0BFEF4B1A5B0A0C
:1048F0006B0A7B0A312C730162011D821E821F82AA
:104900001886F40181859285A385B4852D813E8129
:104910004F815885281739074A075B0708F054C0AC
:1049200089859A85AB85BC858C159D05AE05BF052F
:1049300050F482E0C82ED12CE12CF12C92E0492ECB
:10494000512C612C712C9E012F5F3F4FB701A601A6
:10495000C40181DC8823C1F189819A81AB81BC814A
:10496000892B8A2B8B2B01F1260137019FEF491AE6
:10497000590A690A790A2D813E814F8158852F5F36
:104980003F4F4F4F5F4F2D833E834F8358873FEFFD
:10499000C31AD30AE30AF30AB4CF4080518062807D
:1049A000738033243394A7CFC414D504E604F704EA
:1049B00011F70FEF1FEF2FEF3FE0B701A601C40182
:1049C000D0DB782E811106C0712C872D2C96E1E169
:1049D0000C941BE0F5014481558166817781411576
:1049E00051056105710531F097018601C401B9DBFC
:1049F000882351F3D5011496CD92DD92ED92FC926D
:104A00001797332051F0D701C6010196A11DB11DA2
:104A1000F40180839183A283B383F501858996890C
:104A2000A789B08D892B8A2B8B2B79F6C58AD68ADC
:104A3000E78AF08E818180688183C7CF40E050E0B3
:104A4000BA01EECCFC0123812111E7CE0895A2E446
:104A5000B0E0EDE2F5E20C94FEDF7C015B016A015F
:104A6000322E19821C821C8E1F8E6115710511F465
:104A700010E0A2C1DC0113968C918111F9CFFA01EB
:104A800080818F3209F044C0DB0113968C9113971B
:104A900082508230D8F159966D917C91CE014C961E
:104AA00022DE882329F38E01045E1F4FC6016C01AC
:104AB0000196F60120812F32D1F39E012F5F3F4FE7
:104AC0004901390130E2232E240122962FAE22978C
:104AD00021962FAE21972FAE2EAE2DAE2CAE2BAE43
:104AE0002AAE29AE28AE2FAA960190E047E0D90160
:104AF0008D91882381F18F3271F18E3259F44A30D1
:104B000009F4B6CF98E04AE09D01F1CF8B01CECFFA
:104B10008B01D3CFE4ECFBE02491222321F03196EA
:104B20008213FACFA5CF491708F4A2CF813208F437
:104B30009FCF8F3709F49CCF3FE9380F3A3108F403
:104B400020EEE7E3F0E0EC0FFD1FE90FF11D820F0F
:104B500080839F5FD9CF8FA9803209F489CF690103
:104B6000D9018C912F5F3F4F8F32C9F3882371F0A9
:104B70000A151B0511F0C80150DEC2016814790442
:104B800011F4CE014C9684014C019FCFF801818D28
:104B9000928DD7015A969C938E935997C8014EDFF8
:104BA000C12CF80180859185A285B3854189528900
:104BB0006389748984179507A607B70708F052C060
:104BC00025E0B695A795979587952A95D1F7F82F63
:104BD000FF70DF2ED80113968C91823008F448CFF5
:104BE00041E050E0BE016E5B7F4FC8019EDC019743
:104BF00009F03ECFF80180859185A285B3854F9657
:104C0000A11DB11D80879187A287B387F0E2DF9E47
:104C1000B00111246754784E6115710509F428CF4D
:104C2000DB018C91882341F0853E09F04BC0CC20FC
:104C300029F0CC24C394B5CFC1100EC08091B9190E
:104C40009091BA19A091BB19B091BC19F701848752
:104C50009587A687B787D08ADB018C918111E9CF30
:104C6000CC24C394832D8274823409F001CFCC20EC
:104C700009F4AEC0F701D08861E0C70183DD009779
:104C800009F4F6CE20E2DC011D922A95E9F72BE02B
:104C9000FE01F796DC0101900D922A95E1F721E2E1
:104CA00038E2FC01318B208B40E058E05787468783
:104CB000338B228B318F208F578B468BCBD9811131
:104CC0000AC0D6CE4BE050E0CE01C7960E943FE42A
:104CD000892B09F066CF2D2D30E0F901B5E0EE0FFC
:104CE000FF1FBA95E1F7DF01A754B84E1B968C91D0
:104CF000817121F0832D827109F006C1D701599687
:104D00008D919C915A974091B9195091BA1960911F
:104D1000BB197091BC191C964D935D936D937C9358
:104D20001F975096DC925097E754F84E84889588E8
:104D3000B12CA12C54019924882455968D929D92D2
:104D4000AD92BC925897428D538D70E060E0482937
:104D500059296A297B2955964D935D936D937C93D0
:104D60005897A5E0220F331FAA95E1F7D901A75460
:104D7000B84E1B962C91287109F0B9C0848D958D81
:104D8000A68DB78DF701818B928BA38BB48B81E0BD
:104D90008383832D8F70F70181831482158216829D
:104DA0001782108611861286138611E034FE04C025
:104DB000C7010E94D4A8182FCE014C9643DECE0125
:104DC000019640DE812FCE5BDF4FE2E10C941AE0CA
:104DD000D80113968C911397823009F449CE5196DD
:104DE0008D919D910D90BC91A02D803E9F4FAF4124
:104DF000B10508F03DCEC80151DD882309F438CE55
:104E000029D9882309F434CED8015996ED91FC9123
:104E10005A9714968D909D90AD90BC901797B2E0E4
:104E20008B1A9108A108B108858504C0880C991CCB
:104E3000AA1CBB1C8A95D2F786859785A089B18963
:104E4000880E991EAA1EBB1E81E08093C119809214
:104E5000B9199092BA19A092BB19B092BC19E9EB9A
:104E6000F7E180E092E0DF019C011D92215030408B
:104E7000E1F7DD24D394D8015996ED91FC9184811A
:104E8000D816C0F48091C2199091C319DC01ED913C
:104E9000FC910288F389E02D29EB37E1B501A401EB
:104EA0004D0D511D611D711D0995882309F4E0CD3B
:104EB000D394E1CF258580E092E0A0E0B0E004C08B
:104EC000880F991FAA1FBB1F2A95D2F7F8014189A5
:104ED000528963897489840F951FA61FB71F818B20
:104EE000928BA38BB48B89EB97E1D12CCBCE203165
:104EF00059F497012F5E3F4F2ADA882329F084E086
:104F0000D70113968C9345CFD70113961C92B0CD41
:104F1000A8E0B0E0EEE8F7E20C940DE0182F609105
:104F2000A61A7091A71A072E000C880B990B0E94E5
:104F30007DDB6D837E838F8398878091A21A909109
:104F4000A31AA091A41AB091A51A89839A83AB835E
:104F5000BC83AE014B5F5F4FBE016F5F7F4F80E848
:104F60000E94D31E60911B0570911C05072E000C3A
:104F7000880B990B0E947DDB6D837E838F839887DE
:104F80008091170590911805A0911905B0911A0507
:104F900089839A83AB83BC83AE014B5F5F4FBE01B5
:104FA0006F5F7F4F8FEF0E94D31E60911D051F3FE3
:104FB00039F08CE21802F0011124E256F54E6285B8
:104FC00070E086EB98E00E94848960911D0570E096
:104FD00081EB98E00E9484892896E3E00C9429E014
:104FE0000F930FB70F9300916E000D7F00936E002B
:104FF00078940F930BB70F930CB70F921F922F93C8
:105000003F934F935F936F937F938F939F93AF9350
:10501000BF93EF93FF9311240E940434FF91EF910B
:10502000BF91AF919F918F917F916F915F914F91C0
:105030003F912F911F900F900CBF0F910BBF0F91BD
:105040000260F89400936E000F910FBF0F911895B6
:10505000CF93DF9310927805CEE9DAE119861886AE
:105060000E941B1B1A865D98C3E1D5E0198618863D
:105070000E9439681A865C98DF91CF910895B0E05C
:10508000A0E0E5E4F8E20C9404E0B4E2A0E06A2FCA
:1050900070E0AB014B0F511D55954795411111C063
:1050A000E8E5F2E265917491072E000C880B990BEC
:1050B0000E947DDBCDB7DEB7ECE00C9420E0B42F8E
:1050C000E8CFA41711F0B41303C0E4EEF2E2EACF84
:1050D0009A0121503109220F331F220F331FF9018A
:1050E000EA5AFD4DE590F490F901E65AFD4DC5915F
:1050F000D4918E159F0518F3A42FC817D90708F46B
:10510000C6CFF901E85AFD4D05911491F901E45A11
:10511000FD4DC590D4908E199F09BC0190E080E0B0
:105120000E947BDB4B015C01B601601B710B072EFB
:10513000000C880B990B0E947DDB9B01AC01C50123
:10514000B4010E94DCDB4B015C01CE19DF09BE011A
:1051500090E080E00E947BDB9B01AC01C501B401C3
:105160000E941EE16B017C01B801012E000C880B2E
:10517000990B0E947DDB9B01AC01C701B6010E9427
:1051800042E098CFEF92FF920F931F93CF93DF935C
:10519000C82F7B018A0180918405833090F00E94A2
:1051A000C180C7010E94B17E84E198E00E94B17E77
:1051B000CF3F41F580E198E00E94B17E8AE00E94F5
:1051C000607E46DFA89580914903811138C081E057
:1051D0008093490382E0809384053ADFD5E1D15082
:1051E00019F1A895149A69E170E080E090E00E94BE
:1051F00023AF149860E570E080E090E00E9423AF58
:10520000A895EDCFC7FDDACF8EE098E00E94B17E81
:105210006C2F0C2E000C770B880B990B0E9485A726
:105220008AE00E94607ECACF149A67E078E0CF3FA0
:1052300011F06BE078E040E0C8010E94EE89CDB744
:10524000DEB7E6E00C9426E0B0E0A0E0EAE2F9E2A6
:105250000C94FFDFEC015B014A01322EFA01408021
:10526000518062807380A30192016D817E818F8164
:1052700098850E9477DB8823A1F04D825E826F8241
:1052800078867724739420E030E0A901F4016081EE
:105290007181828193810E9468E218160CF0712C52
:1052A0007C828C818230A1F0833009F448C0813047
:1052B000A9F52D813E814F815885F501608171816D
:1052C000828193810E9477DB87FD28C082E08C83F6
:1052D000F50120813181428153816D817E818F81F1
:1052E00098850E9441E02B013C010E9456AF4B0182
:1052F0005C01A7019601C301B2010E9477DB181679
:1053000094F09801A8EEB3E00E94A0DF860E971EED
:10531000A81EB91E88829982AA82BB82CDB7DEB749
:10532000E1E10C941BE088819981AA81BB81881AF4
:10533000990AAA0ABB0AB7FCF1CF83E08C834EE836
:1053400058E06EE978E0832D1DDFE8CF42E358E0B6
:105350006FE378E017CFCF93DF93A8958091A01AE1
:105360009091A11A0E94A0A76093A21A7093A31A09
:105370008093A41A9093A51A809115059091160513
:105380007EDE60931705709318058093190590933E
:105390001A05C091A01AD091A11A8091490190914B
:1053A0004A01C817D90710F480E0D0DF8091A61A0F
:1053B0009091A71A181619066CF4809147019091E4
:1053C00048018C179D0730F44FE658E06CE778E011
:1053D00080E0D8DE2091FC043091FD048091150519
:1053E000909116058217930710F48FEFAFDF80912D
:1053F0001B0590911C05181619068CF42091450187
:1054000030914601809115059091160528173907AE
:1054100030F44FE658E06CE778E08FEFB3DEDF91D1
:10542000CF910895A4E1B0E0E8E1FAE20C9400E045
:1054300080918405811105C0A8956496E0E10C94E3
:105440001CE0809158038111F8CF81E080935803CC
:1054500080918C02811103C010925803EECF7BDF44
:1054600010928C020E9456AF6D837E838F83988743
:1054700060914D0170914E01072E000C880B990B25
:105480000E947DDB9B01AC016091A21A7091A31A6E
:105490008091A41A9091A51A0E9468E2181614F43B
:1054A00080E054DF6091A61A7091A71A072E000CB5
:1054B000880B990B0E947DDB69837A838B839C83A5
:1054C000C12CD12C30E8E32E30E4F32E08E210E0BA
:1054D00020E0AE014F5F5F4F62EA7AE18CE89AE12B
:1054E000B3DE2091A21A3091A31A4091A41A5091D0
:1054F000A51A29873A874B875C8760914B01709189
:105500004C01072E000C880B990B0E947DDB9B0140
:10551000AC0169857A858B859C850E9468E21816A6
:105520000CF011C260914D0170914E01072E000CDC
:10553000880B990B0E947DDB9B01AC0169857A8504
:105540008B859C850E9477DB87FFFDC1809150038E
:10555000811109C08EE99AE190934F0380934E0325
:1055600081E08093500300914E0310914F03D801C6
:1055700018966D917C91072E000C880B990B0E9458
:105580007DDB6B017C0120E030E0A9010E9477DB2C
:105590008823C9F0D80114962D913D914D915C91CD
:1055A00017972D873E874F87588BC701B6010E94FA
:1055B00041E04B015C0120E030E040E251EC0E9410
:1055C00077DB87FF07C081E0F8018387C12CD12CEE
:1055D0007601D0C020E030E040E251E4C501B401E2
:1055E0000E9468E218165CF481E0D8011B968C9347
:1055F000C12CD12C2FE7E22E23E4F22EBBC0F80100
:105600008385882349F013861486158616861786A7
:10561000148E158E168E178ED80194962D913D916D
:105620004D915C919797298B3A8B4B8B5C8B1C9699
:105630002D913D914D915C911F97C501B4010E9440
:1056400042E06B017C0120E030E0A9010E9477DBA1
:1056500087FD75C129893A894B895C8960E070E0D2
:105660008FE793E40E941EE12B013C01A701960104
:105670000E9477DB87FF02C073016201F801C486D4
:10568000D586E686F78620A131A142A153A1C501A6
:10569000B4010E94DCDB4B015C01D80154968D9271
:1056A0009D92AD92BC925797A701960169897A891C
:1056B0008B899C890E94DCDB2B013C01F801408E28
:1056C000518E628E738EC48CD58CE68CF78C2D85B2
:1056D0003E854F85588960897189828993890E94A6
:1056E00041E0D80198962D913D914D915C919B9709
:1056F0000E94DCDBA70196010E9441E020ED3CEC1A
:105700004CE45DE30E94DCDBA70196010E9442E0CD
:105710006B017C01F801C48ED58EE68EF78E2D8547
:105720003E854F855889208B318B428B538BA3014B
:105730009201C501B4010E9442E0A70196010E94B6
:1057400042E020E030E0A9010E9442E06B017C01D0
:1057500020E030E0A9010E9477DB87FD37CF20E011
:1057600030E04FE753E4C701B6010E9468E2181623
:105770000CF43ECFC701B6010E9486E1759567958E
:105780006093A81A80915F0390916003A0916103D8
:10579000B09162030097A105B105E1F02D813E8132
:1057A0004F815885281B390B4A0B5B0BDA01C90165
:1057B000B7FD10C069857A858B859C850E9486E13E
:1057C00020915D0330915E03621773070CF4BDC036
:1057D0000E941B1B20E030E048EC52E4609117056A
:1057E000709118058091190590911A050E9468E240
:1057F000181614F48FEFAADD809188029091890227
:10580000A0918A02B0918B020097A105B10501F128
:105810002D813E814F815885281B390B4A0B5B0B2C
:10582000DA01C901B7FD14C0609117057091180520
:105830008091190590911A050E9486E120918602B7
:1058400030918702621773070CF486C00E94396892
:1058500080914A0390914B03A0914C03B0914D036A
:105860002D813E814F815885281B390B4A0B5B0BDC
:10587000DA01C901B7FDF0CD8D819E81AF81B88578
:1058800088579C4EAF4FBF4F80934A0390934B0372
:10589000A0934C03B0934D0360911B0570911C05C0
:1058A000072E000C880B990B0E947DDB69837A839D
:1058B0008B839C83C12CD12CE12C80E4F82E04E155
:1058C00010E02FEFAE014F5F5F4F67E175E085E9B4
:1058D0009AE1BADCC0901705D0901805E090190540
:1058E000F0901A0520E030E040EA50E4C701B6012C
:1058F0000E9468E287FD39C020E030E048EC52E4C5
:10590000C701B6010E9477DB18167CF160911B0578
:1059100070911C05072E000C880B990B0E947DDBF3
:10592000A70196010E9441E020E030E0A9010E9419
:1059300068E21816C4F48FE780931D058DCDC12C45
:10594000D12C76019BCE60E01BCF41E558E060E6AC
:1059500078E080E017DC3ECF41E558E060E678E093
:105960008FEF10DC75CF80E0E7CF10921D055C98BB
:1059700073CDCF92DF92EF92FF92CF93DF93EC0142
:10598000C880D980EA80FB808DEF97E00E94B17ECD
:10599000C701B6010E94F375CC80DD80EE80FF80E8
:1059A00089E490E30E94B17EC701B6010E94F375BD
:1059B000C884D984EA84FB8485E490E30E94B17EA4
:1059C000C701B6010E94F3758AE00E94607EDF91F4
:1059D000CF91FF90EF90DF90CF900895BC01209180
:1059E0003603309137034091360350913703241723
:1059F000350731F481E02617370709F080E0089574
:105A00009A01F1CF0F930FB70F9300916E000F9390
:105A10000D7F00936E0000916F000D7F00936F006B
:105A20000F930BB70F930CB70F921F922F933F93C7
:105A30004F935F936F937F938F939F93AF93BF9396
:105A4000EF93FF9311240E943135FF91EF91BF91A5
:105A5000AF919F918F917F916F915F914F913F9106
:105A60002F911F900F900CBF0F910BBF0F910260F1
:105A7000F89400936F000F9100936E000F910FBF89
:105A80000F91189500C000C08091020580FF1FC0D3
:105A900045988FEF8093ED028091020581FF1AC037
:105AA00047988FEF8093EE028091020582FF15C028
:105AB0002A9A8FEF8093EF028091020583FF10C036
:105AC000289A8FEF8093F00200C000C00895459A95
:105AD00081E0E0CF479A81E0E5CF2A9881E0EACFE4
