:100000000C9494140C94CD140C94CD140C94CD1425
:100010000C94CD140C94CD140C94CD140C94CD14DC
:100020000C94CD140C94FDB10C94CD140C94CD14FF
:100030000C94CD140C948A250C94CD140C94CD14EE
:100040000C9478200C94CD140C94B3B10C94CD1472
:100050000C94D2890C94C8890C94CD140C94CD14B2
:100060000C94CD140C94CD140C94CD140C94CD148C
:100070000C94CD140C94CD140C94CD140C94CD147C
:100080000C94CD140C94CD140C94CD14084AD73B89
:100090003BCE016E84BCBFFDC12F3D6C74319ABD57
:1000A00056833DDA3D00C77F11BED9E4BB4C3E917B
:1000B0006BAAAABE000000803F05A84CCDB2D44E6A
:1000C000B93836A9020C50B9918688083CA6AAAA6C
:1000D0002ABE000000803F07634236B79BD8A71AAC
:1000E00039685618AEBAAB558C1D3CB7CC5763BDBA
:1000F0006DEDFD753EF6177231BF000000803F08C0
:10010000000000BE922449123EABAAAA2ABECDCC62
:10011000CC4C3E00000080BEABAAAAAA3E00000064
:1001200000BF000000803F0000000000084178D3BD
:10013000BB4387D1133D190E3CC3BD4282AD2B3E5C
:1001400068EC8276BED98FE1A93E4C80EFFFBE01FC
:10015000C4FF7F3F0000000000004E414E494E4961
:100160005459494E46CDCCCC3D0AD7233C17B7D184
:100170003877CC2B329595E6241FB14F0A0000202A
:10018000410000C84200401C4620BCBE4CCA1B0EA9
:100190005AAEC59D7441425300504C4100457272A5
:1001A0003A20454550524F4D20436F72727570741E
:1001B000004572723A20454550524F4D20435243FC
:1001C000004572723A20454550524F4D2053697A8E
:1001D00065004572723A20454550524F4D20566594
:1001E0007273696F6E005072696E742041626F7233
:1001F000746564004D32350050617573696E672E09
:100200002E2E004D3234003F0049676E6F7265003C
:10021000526573657400496E697469616C697A65C9
:1002200020454550524F4D0046696C2E204469616F
:100230002E004520696E206D6D5E33004D333033E6
:100240002055312045256920532569004175746F7B
:1002500074756E65202A20504944005049442D444D
:10026000202A005049442D49202A005049442D504D
:10027000202A0020082046616374002008204D6178
:1002800078002008204D696E004F6666004F6E00B2
:100290004175746F74656D70004020737465707380
:1002A0002F6D6D00416476616E63656420536574E3
:1002B00074696E67730046696C616D656E74005495
:1002C000656D7065726174757265005374657073E5
:1002D0002F6D6D00436F6E66696775726174696F2B
:1002E0006E00526573746F72652044656661756C4B
:1002F0007473004C6F61642053657474696E677326
:100300000053746F72652053657474696E6773006F
:10031000416476616E6365642053657474696E67C9
:1003200073004D61696E003132350035004245443D
:100330003A204550434F53203130304B0052756EB8
:10034000617761792057617463683A204F4E004DA0
:1003500061782054656D7000323735004D696E202C
:1003600054656D7000350045313A204550434F5378
:10037000203130304B005053550047656E6572692F
:10038000630050726F746F636F6C00312E300042E7
:100390006175640031313532303000416E65742052
:1003A000312E30004D657368204C6576656C696E42
:1003B00067004578747275646572730031006D6111
:1003C000726C696E66772E6F7267004354432D41DD
:1003D0003133205072696E7465722028456E6465F1
:1003E00072203320436C6F6E652900323032362D17
:1003F00030312D323200322E312E322E37004D6107
:10040000726C696E00546865726D6973746F727393
:1004100000426F61726420496E666F005072696EAF
:1004200074657220496E666F004D61696E003F0011
:100430004261636B0053746F70004D32320041743F
:1004400074616368204D65646961004D323100500C
:1004500072696E742066726F6D204D65646961000B
:1004600052656C65617365204D6564696100416228
:100470006F7574205072696E74657200436F6E669A
:10048000696775726174696F6E0054656D7065722D
:100490006174757265004D6F74696F6E005265739B
:1004A000756D65205072696E740054756E650053E9
:1004B000746F70205072696E74005061757365209E
:1004C0005072696E7400496E666F20536372656581
:1004D0006E003F005374617274205072696E740034
:1004E00043616E63656C005072696E740043616EA7
:1004F0006E6F7420656E74657220737562646972C4
:100500003A200002202E2E00015265667265736843
:10051000004D61696E002100486F74656E6420743F
:100520006F6F20636F6C64004261636B0050726F89
:1005300063656564004D6F766520457874727564F7
:100540006572004D6F74696F6E0044697361626C0F
:1005500065205374657070657273004D38340041C6
:1005600075746F20486F6D6500473238004D6169C2
:100570006E005072656865617420242042656400D5
:1005800050726568656174202420456E640054656E
:100590006D70657261747572650099019501436FA4
:1005A0006F6C646F776E00507265686561742024AB
:1005B0000046616E20537065656400426564004EBC
:1005C0006F7A7A6C65004D61696E00426162797381
:1005D000746570205A0042616279737465702040BE
:1005E00000466C6F770046616E205370656564004D
:1005F000426564004E6F7A7A6C650053706565647D
:10060000004D61696E00486F6D696E6720466169D3
:100610006C6564006F70656E0054524947474552DF
:100620004544003A20007A5F6D696E00795F6D691C
:100630006E00785F6D696E005265706F7274696EDE
:100640006720656E6473746F702073746174757362
:100650000A0020746F6F206C6F6E6720657874726B
:100660007573696F6E2070726576656E7465640A65
:100670000020636F6C6420657874727573696F6EA7
:100680002070726576656E7465640A000000000073
:1006900000000000000000005761726E696E673A4A
:1006A00020486F6D696E672042756D7020446976D1
:1006B00069736F72203C20310A0002020400005C62
:1006C0004300005C4300007A430000A0400000A00B
:1006D000400000004000005C4300005C4300007AE2
:1006E000430000000000000000000000005365749B
:1006F00074696E67732053746F726564000000FA4A
:10070000430000FA430000A0400000C8410000A0E0
:10071000420000A0420000C8430000BA42F40100B9
:1007200000F4010000640000008813000020436F03
:10073000756E7420583A00426564004531004500EA
:10074000626564002C2073797374656D2073746F17
:100750007070656421204865617465725F49443A30
:1007600020004572723A204D415854454D50004D7D
:10077000415854454D5020747269676765726564CD
:100780000048656174696E67204661696C65640044
:1007900048656174696E67206661696C65640045CF
:1007A00072723A204D494E54454D50004D494E54B9
:1007B000454D5020747269676765726564005448DE
:1007C00045524D414C2052554E41574159005468B5
:1007D00065726D616C2052756E6177617900202FB2
:1007E000002042403A0020403A00434F4D4D554EC4
:1007F00049434154494F4E0044525952554E0045C9
:1008000052524F525300494E464F004543484F0005
:10081000506C656173652052657365740050524970
:100820004E5445522048414C5445440025533A20EB
:100830002553004B494C4C45442E20005072696EA4
:100840007465722068616C7465642E206B696C6CD1
:1008500028292063616C6C6564210A000065636867
:100860006F3A004572726F723A004F4646004F4E23
:10087000000A4D6561737572656420706F696E74EE
:10088000733A0A00337833206D6573682E205A203E
:100890006F66667365743A20004F46460A004661EB
:1008A0006465204865696768742000426564204C6F
:1008B0006576656C696E6720004661696C656420C9
:1008C000746F20656E61626C6520426564204C65C2
:1008D00076656C696E670A004D65736820426564D1
:1008E000204C6576656C20646174613A0A00496E3B
:1008F00076616C6964206D6573682E0A00206E6FE6
:100900007420656E74657265642E0A0050726F62A1
:10091000696E6720506F696E740025532025692F1A
:10092000256900206F6620004D424C204732392057
:10093000706F696E742000290A004A206F75742058
:100940006F662072616E67652028302D00290A00CD
:1009500049206F7574206F662072616E676520286C
:10096000302D004D6573682070726F62696E67206C
:10097000646F6E65004D6573682070726F62696E9A
:100980006720646F6E652E0A005374617274206D67
:100990006573682070726F62696E6720776974682A
:1009A0002022473239205331222066697273742E17
:1009B0000A00473239533200686173206E6F206439
:1009C0006174612E0A004D65736820426564204C95
:1009D0006576656C696E67200053206F7574206FB3
:1009E000662072616E67652028302D35292E0A0039
:1009F00020440020204D323030205300202844690C
:100A00007361626C6564293A0046696C616D656E5C
:100A1000742073657474696E67730020204D3230E2
:100A2000312058004D617820416363656C657261C7
:100A300074696F6E2028756E6974732F7332290084
:100A400020204D3230332058004D61782066656596
:100A50006472617465732028756E6974732F7329CD
:100A60000020520020204D3230342050004163637A
:100A7000656C65726174696F6E2028756E69747338
:100A80002F7332292028503C7072696E742D616377
:100A900063656C3E20523C726574726163742D61B3
:100AA0006363656C3E20543C74726176656C2D61A5
:100AB0006363656C3E2900204A00205400205300E7
:100AC00020204D323035204200416476616E6365EE
:100AD000642028423C6D696E5F7365676D656E7456
:100AE0005F74696D655F75733E20533C6D696E5F21
:100AF00066656564726174653E20543C6D696E5F25
:100B000074726176656C5F66656564726174653E7A
:100B1000204A3C6A756E635F6465763E2900204416
:100B20000020490020204D333031205000486F74A0
:100B3000656E6420504944002E0A00E10E4C2549A0
:100B4000254625206E6F742064697361626C65644C
:100B50002E205368617265642077697468002028CC
:100B60006D6D2900203B204C6576656C696E6720B1
:100B70000020204D3432302053004D6573682042F0
:100B80006564204C6576656C696E670020460020C0
:100B9000420020480020204D3134352053004D6163
:100BA00074657269616C206865617475702070612C
:100BB00072616D657465727300202047323920536D
:100BC00034205A00204A0020204732392053332055
:100BD000490020204D3134392043203B20556E6997
:100BE000747320696E2043656C736975730A0054D1
:100BF000656D706572617475726520556E69747388
:100C0000002020473231203B004C696E6561722024
:100C1000556E697473003B200020496E76616C69E3
:100C200064206578747275646572200047322F47BE
:100C3000332062616420706172616D6574657273E6
:100C40000A00536C6565702E2E2E004D657368206A
:100C5000706F696E74206F7574206F662072616E9C
:100C600067650A00436C69636B20746F205265737B
:100C7000756D652E2E2E00616C736F20656E61623E
:100C80006C6564290A004E6F204D6F76652E004515
:100C90006E642066696C65206C6973740A00426535
:100CA00067696E2066696C65206C6973740A004E12
:100CB0006F206D656469610A00534420636172644A
:100CC0002072656C65617365640A00286E6F20662A
:100CD000696C65290043757272656E742066696C73
:100CE000653A20004E6F74205344207072696E7410
:100CF000696E670A005344207072696E74696E678A
:100D0000206279746520002E0A0044656C65746960
:100D10006F6E206661696C65642028726561642D60
:100D20006F6E6C79292C2046696C653A2000256924
:100D3000730025696D202569730025696820256980
:100D40006D2025697300256964202569682025695F
:100D50006D2025697300256979202569642025693E
:100D6000682025696D20256973005072696E7420B2
:100D700074696D653A20006F6B006F6666000B0842
:100D80000608FF07F807EA0744454255473A004D71
:100D90003131332053004354432D413133205072BD
:100DA000696E7465722028456E6465722033204335
:100DB0006C6F6E6529204F46462E004649524D57AE
:100DC0004152455F4E414D453A4D61726C696E200E
:100DD000322E312E322E3720284D617920323220AA
:100DE000323032362031373A30303A3133292053DD
:100DF0004F555243455F434F44455F55524C3A6708
:100E000069746875622E636F6D2F4D61726C696EC7
:100E10004669726D776172652F4D61726C696E20E3
:100E200050524F544F434F4C5F56455253494F4ECB
:100E30003A312E30204D414348494E455F54595078
:100E4000453A4354432D413133205072696E7465E5
:100E5000722028456E646572203320436C6F6E6586
:100E6000292045585452554445525F434F554E54DE
:100E70003A3120555549443A6365646532613266BA
:100E80002D343161322D343734382D396231322DE1
:100E9000633535633632663336376666002F2F008A
:100EA0004D31343520533C696E6465783E206F7552
:100EB00074206F662072616E67652028302D31299D
:100EC0000A003F4A206F7574206F662072616E675A
:100ED000652028302E303120746F20302E33290ABF
:100EE0000020580020204D61783A2000200020206A
:100EF0004D696E3A2000203B200020204D323131D8
:100F0000205300536F667420656E6473746F707342
:100F100000250A0046523A0020466C6F773A2000BE
:100F20004D424C2041646A757374205A00646973A1
:100F300000656E0043290A0061626C656420286DBB
:100F4000696E2074656D702000436F6C6420657855
:100F50007472756465732061726520004D657368F5
:100F600020706F696E74206F7574206F66207261D7
:100F70006E67650A004D34323120696E636F72729C
:100F800065637420706172616D657465722075733C
:100F90006167650A00486F6D652025732046697298
:100FA0007374004F666673657473204170706C696A
:100FB0006564004D494E2F4D415820546F6F2046B7
:100FC000617200546F6F206661722066726F6D20CF
:100FD0004D494E2F4D41580A00454550524F4D2026
:100FE0004F4B0A004D383400446F6E6520707269B3
:100FF0006E74696E672066696C650A004D3737004C
:101000004D333100496E76616C6964206578747285
:10101000756465720A0020204D3230362058004831
:101020006F6D65206F66667365740020573A0043E4
:101030006F6F6C696E672E2E2E0045312025530090
:1010400020573A0042656420436F6F6C696E672ECB
:101050002E2E004265642048656174696E672E2EED
:101060002E00206661696C656421204261642068FD
:1010700065617465722069640A00504944204175B5
:10108000746F74756E650023646566696E652044CF
:10109000454641554C545F004B4420004B492000CD
:1010A0004B5020002066696E69736865642120508A
:1010B000757420746865206C617374204B702C20EB
:1010C0004B6920616E64204B6420636F6E737461A2
:1010D0006E74732066726F6D2062656C6F77206925
:1010E0006E746F20436F6E66696775726174696FA5
:1010F0006E2E680A00504944204175746F74756EF5
:101100006500206661696C6564212074696D656F96
:1011100075740A00504944204175746F74756E658A
:1011200000206661696C6564212054656D7065728C
:10113000617475726520746F6F20686967680A0052
:10114000504944204175746F74756E650050494470
:10115000204379636C65730025532025692F256929
:1011600000204B643A2000204B693A2000204B704D
:101170003A200020436C6173736963205049442016
:101180000A002054753A2000204B753A2000206D4B
:1011900061783A2000206D696E3A200020643A2080
:1011A0000020626961733A200048656174696E6766
:1011B0002E2E2E002073746172740A005049442050
:1011C0004175746F74756E6500206661696C656445
:1011D000212054656D706572617475726520746F3D
:1011E0006F20686967680A00504944204175746F30
:1011F00074756E6500504944204175746F74756E46
:1012000065004572723A207574663820666F6E7498
:10121000206E6F7420696E697469616C697A6564A7
:101220002E004572723A207574663820666F6E74AF
:10123000206E6F7420696E697469616C697A656487
:101240002E004572723A207574663820666F6E748F
:10125000206E6F7420696E697469616C697A656467
:101260002E002000200020003A003A002568753A40
:1012700025303268750025303268753A253032687D
:10128000750025303268752725303268750025686D
:1012900075642025303268753A2530326875004211
:1012A000656400456E636C6F737572650045002060
:1012B00000200020002000200025002020202020E9
:1012C0002020002020202000657272001FE02010E6
:1012D0002010201010201020201020103030084046
:1012E000048003001FE03FF03FF03FF01FE01FE0ED
:1012F0003FF03FF03FF00FC0078003003FFFF038A2
:10130000007030FC3020FC102078102030102C00B1
:10131000D02E31D02F7BD02F7BD02E31D02C00D0AF
:1013200020301020781020FC1030FC303800703F46
:10133000FFF03FFFF0380070318630238710278799
:10134000902F87D02F03D0203010207810207810D5
:101350002030102F03D02F87D0278790238710317C
:1013600086303800703FFFF01FFFF81FFFF80410B1
:10137000400208200208200410400820801041008C
:101380001041000820800410400000001FFFF81FDB
:10139000FFF8000C0F00FE07022503BB017FFE08CB
:1013A000FE08FE05080806000040F0C88888987806
:1013B00010050808060000C0F88888888888F805A5
:1013C00005050600012030F8302005080806000059
:1013D0002070F820202020E00509090600FF207079
:1013E000A8A8B888887020070505070001D86C36C2
:1013F0006CD80509090600FFF8A88888888888A89D
:10140000F8050A0A0600FE205050505088A8A88807
:101410007003030306000340A040FFFFFFFFFFFF30
:10142000FFFFFFFFFFFFFFFFFFFFFFFFFFFFFFFFCC
:101430000000000605FF010707060200808080808B
:10144000800080030303060105A0A0A00506060690
:10145000000050F85050F8500509090600FF2070B0
:10146000A8A07028A87020050707060000C8C810AB
:101470002040989805070706000040A0A040A890CB
:10148000680103030602058080800309090601FF45
:101490002040408080804040200309090601FF80F1
:1014A000404020202040408005070706000020A87B
:1014B000702070A8200505050600012020F82020D6
:1014C0000203030601FFC04080050101060003F886
:1014D000020202060100C0C005070706000008104E
:1014E0001020404080050707060000708898A8C8B3
:1014F000887003070706010040C040404040E005F7
:101500000707060000708808102040F80507070646
:101510000000F80810300888700507070600001062
:10152000305090F81010050707060000F880F0080A
:10153000088870050707060000304080F088887032
:10154000050707060000F8081010202020050707EF
:1015500006000070888870888870050707060000FC
:1015600070888878081060020505060100C0C00078
:10157000C0C00206060601FFC0C000C040800305CF
:10158000050601012040804020050303060002F803
:1015900000F803050506010180402040800507078B
:1015A00006000070881020200020050707060000B4
:1015B0007088B8A8B8807005070706000070888892
:1015C000F8888888050707060000F04848704848F2
:1015D000F005070706000070888080808870050786
:1015E00007060000F04848484848F005070706008D
:1015F00000F88080F08080F8050707060000F8807A
:1016000080F0808080050707060000708880809841
:101610008870050707060000888888F8888888038E
:101620000707060100E04040404040E0050707068C
:1016300000003810101010906005070706000088A1
:1016400090A0C0A0908805070706000080808080D9
:101650008080F805070706000088D8A88888888851
:101660000507070600008888C8A898888805070726
:1016700006000070888888888870050707060000C3
:10168000F08888F080808005070706000070888851
:1016900088A89068050707060000F08888F0A090E9
:1016A00088050707060000708880700888700507A5
:1016B00007060000F820202020202005070706004C
:1016C0000088888888888870050707060000888851
:1016D000888850502005070706000088888888A859
:1016E000A850050707060000888850205088880504
:1016F00007070600008888502020202005070706DD
:101700000000F80810204080F80309090601FFE0F6
:1017100080808080808080E0050707060000804090
:1017200040201010080309090601FFE020202020B6
:10173000202020E005030306000520508805010154
:101740000600FEF803030306010580402005050599
:10175000060000700878887805070706000080807A
:10176000F0888888F0050505060000708080887084
:1017700005070706000008087888888878050505A9
:101780000600007088F080700507070600003048EA
:1017900040E04040400507070600FE7088888878D2
:1017A00008700507070600008080F0888888880395
:1017B00007070601004000C0404040E00409090658
:1017C00001FE100030101010109060050707060091
:1017D0000080808890E09088030707060100C040E1
:1017E00040404040E0050505060000D0A8A8A8A894
:1017F000050505060000B0C88888880505050600AF
:101800000070888888700507070600FEF0888888C1
:10181000F080800507070600FE7888888878080829
:10182000050505060000B0C8808080050505060096
:101830000078807008F00507070600002020F820D7
:101840002020180505050600008888889868050589
:1018500005060000888888502005050506000088D8
:1018600088A8A85005050506000088502050880566
:1018700007070600FE888888502040800505050679
:101880000000F8102040F80309090601FF2040403D
:101890004080404040200109090602FF808080808E
:1018A00080808080800309090601FF80404040203D
:1018B0004040408005030306000248A890FF5344BF
:1018C0002063617264206F6B0A006F70656E526FE7
:1018D0006F74206661696C65640A00766F6C756D63
:1018E000652E696E6974206661696C65640A004ED4
:1018F0006F20534420636172640A000A4D32340041
:101900004D3233202573002E0A006F70656E2066FD
:1019100061696C65642C2046696C653A20004669F3
:101920006C652073656C65637465640A0020536997
:101930007A653A200046696C65206F70656E656453
:101940003A2000454E4420535542524F5554494E7B
:10195000450A002220706F73002220706172656E4C
:10196000743A2200535542524F5554494E45204334
:10197000414C4C207461726765743A220053756261
:1019800063616C6C204F766572666C6F770045788A
:10199000636565646564206D617820535542524FDC
:1019A0005554494E452064657074683A0066726506
:1019B000736800646F696E67002066696C653A2021
:1019C000004E6F7720002F6175746F25632E6700BE
:1019D000026D61726C696E66772E6F726700322ECF
:1019E000312E322E37001FFFFFFFFFFFFF60000088
:1019F000000001FF400000000000FF800000000028
:101A0000007F83CF00000C303F87FF80000C301F29
:101A1000867980000C000F8C30C7838C30E78C30C7
:101A2000CFC7CC31F38C30DCECEC33B98C30D86CD4
:101A30006C33198C30D06C0C33198C30D86C0C335F
:101A4000198C30DC6C0E3B198C30CF7C079F198CC5
:101A500030C77C038F1940000000000002600000C6
:101A6000000000061FFFFFFFFFFFF82001400130CC
:101A7000013B01400136016001310170012C0190F0
:101A8000012701B0012201C0011D01F00118011060
:101A900002130130020E016002090190020401C02C
:101AA00002FF000003FA004003F5008003F000D0BD
:101AB00003EB002004E6007004E100E004DC0040D9
:101AC00005D700C005D2004006CD00D006C8008072
:101AD00007C3003008BE00F008B900C009B400B068
:101AE0000AAF00B00BAA00D00CA500000EA0005059
:101AF0000F9B00C01096005012910000148C00C083
:101B0000158700B0178200B0197D00D01B78000047
:101B10001E730040206E0090226900F02464004093
:101B2000275F0090295A00E02B5500102E5000200E
:101B3000304B0010324600E033410090353C00103D
:101B400037370070383200A0392D00B03A2800A095
:101B50003B2300603C1E00103D1900903D14001016
:101B60003E0F00703E0A00C03E0500003F000040EE
:101B70003FFBFF803FF6FFC03FF1FF2020506C612C
:101B80006E6E657242756666657242797465733A07
:101B900020002046726565204D656D6F72793A2090
:101BA0000020436F6D70696C65643A204D61792047
:101BB000323220323032360A00204C6173742055A4
:101BC0007064617465643A20323032362D30312DC4
:101BD0003232207C20417574686F723A2028334479
:101BE000776F726B2C2068747470733A0A004D61C1
:101BF000726C696E20322E312E322E370A0020533D
:101C00006F6674776172652052657365740A00208F
:101C10005761746368646F672052657365740A0066
:101C20002042726F776E206F7574205265736574F1
:101C30000A002045787465726E616C205265736588
:101C4000740A00506F77657255700A007374617280
:101C5000740A004732385859004D31303031006F26
:101C60006B006572726F722077726974696E67209B
:101C7000746F2066696C650A00446F6E652073613D
:101C800076696E672066696C652E0A00456E64731E
:101C9000746F70730025532025632025632025630E
:101CA00020256300656E6473746F707320686974B7
:101CB0003A200024F404D9201BC40C5C0E9804C400
:101CC000095F0265077101F405F900FB04B30048E0
:101CD000048700C10369005803550003034500BE93
:101CE000023A008402310053022A0029022500042E
:101CF000022000E4011C00C8011900AF0117009880
:101D000001140084011300710110006101100051E1
:101D1000010E0043010D0036010B002B010B0020CA
:101D2000010B00150109000C01090003010800FB6B
:101D3000000800F3000800EB000700E4000600DEE6
:101D4000000600D8000600D2000600CC000500C73F
:101D5000000500C2000500BD000400B9000400B584
:101D6000000400B1000400AD000400A9000400A5B7
:101D7000000300A20003009F0004009B00030098E2
:101D80000003009500020093000300900003008D03
:101D90000002008B0003008800020086000200841D
:101DA000000300810002007F0002007D0002007B32
:101DB0000002007900020077000100760002007442
:101DC00000020072000100710002006F0002006D4D
:101DD0000001006C0002006A000100690002006757
:101DE000000100660001006500010064000200625D
:101DF00000010061000100600001005F0002005D61
:101E00000001005C0001005B0001005A0001005964
:101E10000001005800010057000100560001005564
:101E20000001005400010053000000530001005263
:101E300000010051000100500001004F0001004E60
:101E40000000004E0001004D0001004C0001004B5D
:101E50000000004B0001004A000100490001004859
:101E60000000004800010047000100460000004655
:101E7000000100450000004500010044000100434E
:101E80000000004300010042000000420001004148
:101E900000000041000100400001003F0000003F41
:101EA0000001003E0000003E0001003D0000003D3A
:101EB0000001003C0000003C0000003C0001003B31
:101EC0000000003B0001003A0000003A0001003928
:101ED0000000003900010038000000380000003820
:101EE0000001003700000037000100360000003616
:101EF000000000360001003500000035000000350C
:101F00000001003400000034000000340001003300
:101F100000000033000000330001003200000032F6
:101F200000000032000100310000003100000031EB
:101F30000001003000000030000000300001002FE0
:101F40000000002F0000002F0000002F0001002ED5
:101F50000000002E0000002E0001002D0000002DCA
:101F60000000002D0000002D0001002C0000002CBE
:101F70000000002C0000002C0001002B0000002BB2
:101F80000000002B0000002B0001002A0000002AA6
:101F90000000002A0000002A00010029000000299A
:101FA000000000290000002900000029000100288D
:101FB0000000002800000028000000280000002881
:101FC0000001002700000027000000270000002774
:101FD0000000002700010026000000260000002667
:101FE000000000260000002600010025000000255A
:101FF000000000250000002500000025000000254D
:10200000000100240000002400000024000000243F
:102010000000002400010023000000230000002332
:102020000000002300000023000000230000002324
:102030000001002200000022000000220000002217
:102040000000002200000022000100210000002109
:1020500000000021000000210000002100000021FC
:1020600000000021000100200000002000000020EE
:1020700000000020000000200000002000000020E0
:10208000000000200001001F0000001F0000001FD2
:102090000000001F0000001F0000001F0000001FC4
:1020A0000001001E0000001E0000001E0000001EB7
:1020B00000000024F4D43050C38E20C2A240178206
:1020C0008B7011127A910D816CD90AA861E108C751
:1020D000586607615143061E4B5D05C145A7041AAA
:1020E000411104093D9803713931034036DB026523
:1020F000339102D4305402802E1D02632CEE017500
:102100002AC501B028A001102781018F2564012B69
:10211000244B01E0223401AC211F018D200D0180F0
:102120001FFC00841EED00971DDF00B81CD200E6E6
:102130001BC600201BBC00641AB200B219A8000A1A
:1021400019A0006A189900D117910040178B00B5AB
:1021500016840031167E00B31579003A157300C756
:10216000146F0058146A00EE13660088136300258C
:10217000135E00C7125B006C12570015125400C1A9
:1021800011510070114F0021114B00D61049008DE4
:102190001047004610440002104200C00F4000806B
:1021A0000F3E00420F3C00060F3B00CB0E38009361
:1021B0000E37005C0E3500270E3400F30D3200C1DF
:1021C0000D3100900D3000600D2E00320D2D0005F8
:1021D0000D2C00D90C2B00AE0C2900850C29005CBD
:1021E0000C2700350C27000E0C2600E80B2400C439
:1021F0000B2400A00B23007D0B23005A0B21003978
:102200000B2100180B2000F80A1F00D90A1E00BB82
:102210000A1E009D0A1D00800A1D00630A1C00475B
:102220000A1B002C0A1B00110A1A00F7091A00DD0C
:10223000091900C4091900AB091900920917007B9C
:10224000091800630917004C09160036091600200A
:102250000916000A091500F5081500E0081400CC5D
:10226000081400B8081400A4081400900813007D96
:102270000812006B081300580812004608120034B8
:10228000081100230811001208110001081100F0C4
:10229000071000E0071000D0071000C0071000B0C2
:1022A000070F00A107100091070E0083070F0074AD
:1022B000070F0065070E0057070E0049070E003B89
:1022C000070D002E070E0020070D0013070D000656
:1022D000070D00F9060C00ED060D00E0060C00D419
:1022E000060C00C8060C00BC060C00B0060C00A4CE
:1022F000060B0099060C008D060B0082060B00777A
:10230000060B006C060B0061060A0057060B004C1A
:10231000060A0042060A0038060A002E060A0024B1
:10232000060A001A060A001006090007060A00FD40
:10233000050900F4050900EB050900E2050900D9CB
:10234000050900D0050900C7050900BE050900B54B
:10235000050800AD050800A50509009C05080094C6
:102360000508008C050800840508007C0508007439
:102370000508006C050700650508005D05070056A7
:102380000508004E0507004705070040050800380E
:10239000050700310507002A050700230507001C73
:1023A000050600160507000F0507000805060002D0
:1023B000050700FB040600F5040700EE040600E82C
:1023C000040600E2040700DB040600D5040600CF83
:1023D000040600C9040600C3040600BD040600B7D5
:1023E000040600B1040500AC040600A6040600A023
:1023F0000405009B04060095040500900406008A6D
:1024000004050085040500800406007A04050075B3
:10241000040500700405006B0405006604050061F6
:102420000405005C04050057040500520405004D36
:1024300004050048040500430405003E0404003A76
:1024400004050035040500300404002C04050027B1
:10245000040400230405001E0404001A04040016EA
:10246000040500110404000D04040009040500041F
:1024700004040000040400FC030400F8030400F456
:10248000030400F0030400EC030400E8030400E488
:10249000030400E0030400DC030400D8030400D4B8
:1024A000030400D0030400CC030400C8030300C5E8
:1024B0000303005D2E00006E23000013180000AF20
:1024C0000E00003D080000630400004502000027E4
:1024D0000100004D6F766520246D6D00302E303286
:1024E00035004D6F766520302E316D6D004D6F7665
:1024F0006520316D6D004D6F76652031306D6D005A
:102500004D6F76652041786973004D6F7665202A9E
:10251000004D6F766520400020005072696E742077
:1025200066726F6D204D656469610020002000FFB8
:10253000FFFF43616E6E6F74206F70656E20737560
:10254000626469722000204500205A002059002052
:10255000204D3932205800537465707320706572B5
:1025600020756E697400220A00556E6B6E6F776E6F
:1025700020636F6D6D616E643A202200627573791D
:102580003A2070617573656420666F7220696E70A1
:1025900075740A00627573793A20706175736564A9
:1025A00020666F7220757365720A00627573793ADE
:1025B0002070726F63657373696E670A004D65649E
:1025C000696120496E7365727465640000000001E2
:1025D0000200090A000000000403080700000000D0
:1025E000000000000000000000000000746F6F2079
:1025F0006D75636820696E616374697665207469BE
:102600006D65202D2063757272656E7420636F6D29
:102610006D616E643A20002121204B494C4C2063AF
:10262000617573656420627920004D313132205329
:10263000687574646F776E0053544F505045442E44
:1026400020005072696E7465722073746F707065CB
:10265000642064756520746F206572726F72732ECA
:102660002046697820746865206572726F722061F7
:102670006E6420757365204D39393920746F20726E
:102680006573746172742E202854656D7065726173
:10269000747572652069732072657365742E20539A
:1026A0006574206974206166746572207265737444
:1026B000617274696E67290A004E6F204368656312
:1026C0006B73756D2077697468206C696E65206E18
:1026D000756D6265722C204C617374204C696E6557
:1026E0003A20004D3239004E6F20436865636B73AA
:1026F000756D2077697468206C696E65206E756DE4
:102700006265722C204C617374204C696E653A20AE
:1027100000636865636B73756D206D69736D6174BB
:1027200063682C204C617374204C696E653A2000FC
:102730004C696E65204E756D626572206973206EFE
:102740006F74204C617374204C696E65204E756DFA
:102750006265722B312C204C617374204C696E655C
:102760003A20004D3131300053657269616C20733D
:102770007461747573206D69736D617463680A00A8
:1027800053442072656164206572726F720A00DBC7
:102790000FC93F45BCDA3F8FB30240FCF0274056DB
:1027A000946140FE4B9B4084A5D840E023184134FF
:1027B0006A5641E859974164DBD5416E271742B408
:1027C000B75542CE1A9742C8AED542B5885A43D4BF
:1027D0000684BFA65FA7BF7443E0BF10B11AC01C38
:1027E0002C58C0E8F697C0B849D6C04E4E17C12441
:1027F000D355C1802497C1A0B5D5C1121A17C244C0
:10280000AE55C2781797C26CACD5C267885AC32040
:10281000746F6F206C6F6E67206578747275736962
:102820006F6E2070726576656E7465640A00206351
:102830006F6C6420657874727573696F6E20707246
:102840006576656E7465640A006F6B0A0052657385
:10285000656E643A200000002200250028002B004D
:1028600000002100240027002A00020202020202C6
:102870000202040404040404040403030303030322
:1028800003030101010101010101010204081020FB
:10289000408001020408102040800102040810203A
:1028A000408080402010080402017C3C3E5E2B3DAD
:1028B0003F2F5B5D3B2C2A225C0020453A00205ACA
:1028C0003A0020593A00583A004572726F722077E8
:1028D000726974696E6720746F20454550524F4D80
:1028E000210A004354432D413133205072696E74E4
:1028F00065722028456E646572203320436C6F6ECC
:1029000065292052656164792E005072696E746980
:102910006E672E2E2E005072696E74205061757392
:1029200065640000DCD16FD711241FBECFEFD0E467
:10293000DEBFCDBF84B780938D1314BE0FB6F8945D
:10294000A89580916000886180936000109260007B
:102950000FBE12E0A0E0B1E0EEE4FAEC01E00BBF44
:1029600002C007900D92A634B107D9F723E1A6E47F
:10297000B2E001C01D92AD38B207E1F714E1C3E93E
:10298000D4E104C02197FE010E9455E0C239D1076D
:10299000C9F70E9419D30C941BE50C94000080E049
:1029A000089580E0089580E0089580E00895A0E112
:1029B000B0E0EDEDF4E10C947EE08C01DC01ED91F2
:1029C000FC910280F381E02DBE016F5F7F4F09957E
:1029D000882309F45DC08981807C91F56F816370E3
:1029E00070E0762F6627770F770F8885B4E08B9F8E
:1029F000C0011124682B792B89858295869586954F
:102A00008370682B6F5F7F4F90E080E02A85237092
:102A1000220F3B8537FB332730F9232B3E813F7054
:102A2000230F3327331F2750310904C0660F771F48
:102A3000881F991F2A95D2F76096E4E00C949AE0DB
:102A4000803419F568856695669570E090E080E0C1
:102A5000CB01772766272A85622B098510E0102F86
:102A60000027012E000C220B330B602B712B822BC5
:102A7000932B6F5F7F4F8F4F9F4F4AE0660F771FFB
:102A8000881F991F4A95D1F7D7CF8BE0F80184832F
:102A900060E070E0CB01D0CF0895FC018281089501
:102AA000CF93DF93C091BD10D091BE1081E0CE31A5
:102AB000D105E4F020E030E040E05FE36091B91040
:102AC0007091BA108091BB109091BC100E94B4E03C
:102AD0000E94F8E16C1B7D0B77FF03C07195619537
:102AE000710981E0633071050CF080E0DF91CF91D6
:102AF0000895FC0190E1A2E7B3E001900D929A9550
:102B0000E1F70895CF92DF92EF92FF9280917402E5
:102B1000882309F457C0C0907002D0907102E090F1
:102B20007202F090730220E030E0A901C701B60103
:102B30000E94E9DB882309F445C020E030E040E052
:102B40005FE3C701B6010E944EDC9B01AC010E940D
:102B50004EDC2BED3FE049E450E40E944EDC9B014B
:102B6000AC0160E070E080E89FE30E9490E16B01BF
:102B70007C01C0926B02D0926C02E0926D02F092E6
:102B80006E0260910C0170910D01072E000C880BF4
:102B9000990B0E94EFDB2AE037ED43E25CE30E94F1
:102BA0004EDCA70196010E944EDC60936801709391
:102BB000690180936A0190936B01FF90EF90DF9021
:102BC000CF900895C12CD12C80E8E82E8FE3F82E09
:102BD000D0CFA4E1B0E0EFEEF5E10C9470E0DC01C1
:102BE000CD90DD90ED90FC90139714962D913D9132
:102BF0004D915C91179729873A874B875C8720E036
:102C000030E040E251E4C701B6010E94B3E02AE09F
:102C100037ED43E25CE30E944EDC0E94F8E167FD81
:102C20000EC16D83161614F4E1E0ED8320E030E070
:102C300040E251E469857A858B859C850E94B3E0EA
:102C40002AE037ED43E25CE30E944EDC0E94F8E1AB
:102C500067FDF7C06983161614F421E029833D81CE
:102C6000632F70E0FB01EE0FFF1FEE0FFF1FE95A0D
:102C7000FE4E80809180A280B3808B010F5F1F4F3A
:102C80005981452F50E05C8B4B8BFA01EE0FFF1FF3
:102C9000EE0FFF1FE55BFE4E80819181A281B38123
:102CA00089839A83AB83BC831A019FEF291A390A5F
:102CB000CB01880F991FDC01A60FB71FBE87AD8718
:102CC000FD01E40FF51FEE0FFF1FEE0FFF1FEB5886
:102CD000FD4F20813181428153812D833E834F837B
:102CE0005887F801EE0FFF1FEE0FFF1FE95AFE4E47
:102CF000A501940160817181828193810E94B3E07A
:102D00006F87788B898B9A8BA5019401C701B601D7
:102D10000E94B3E02B013C01C801880F991F080FE6
:102D2000191F4B895C89400F511F440F551F440FD9
:102D3000551F4B585D4F5C8B4B8B2D813E814F81D6
:102D40005885AB89BC896D917D918D919C910E9434
:102D5000B3E02F85388949895A890E9490E1A301FF
:102D600092010E944EDC2D813E814F8158850E9448
:102D7000B4E06B017C01ED85FE85E20DF31DEE0FE5
:102D8000FF1FEE0FFF1FEB58FD4F80809180A28048
:102D9000B380020D131DF801EE0FFF1FEE0FFF1F92
:102DA000EB58FD4FA501940160817181828193816F
:102DB0000E94B3E02F85388949895A890E9490E1A1
:102DC000A30192010E944EDCA50194010E94B4E08F
:102DD000A70196010E94B3E04B015C01F101EE0FE7
:102DE000FF1FEE0FFF1FE55BFE4E29813A814B81ED
:102DF0005C8160817181828193810E94B3E09B013B
:102E0000AC01C501B4010E9490E14B015C01298134
:102E10003A814B815C8169857A858B859C850E948E
:102E2000B3E09B01AC01C501B4010E944EDCA701D7
:102E300096010E94B4E06496E2E10C948CE01D825D
:102E4000F5CE19820CCFFC017081472F50E0062E81
:102E500002C0559547950A94E2F740FF14C040918F
:102E60001F0350E0062E02C0559547950A94E2F7DD
:102E700040FF09C021E030E001C0220F6A95EAF767
:102E8000209527232083089590E2843609F491E366
:102E90009093AF05282F30E08A30D8F0EAE0F0E0D8
:102EA000C901BF010E9442E0CB01BF010E9442E084
:102EB000805D8093B005C9016AE070E00E9442E045
:102EC000805D8093B10585E28093B2058FEA95E03D
:102ED000089580E2EECFFC0184910895FC01808189
:102EE000089560910C0170910D01072E000C880B64
:102EF000990B0E94EFDB2AE037ED43E25CE30E948E
:102F00004EDC20916B0230916C0240916D02509129
:102F10006E020E944EDC6093680170936901809399
:102F20006A0190936B010895CF93DF93EC01642FB6
:102F300070E090E080E00E94EFDB29EC38EC48EC98
:102F40005EE30E9490E120E030E040E05FE30E9419
:102F5000B4E00E94FDE16883DF91CF91089570E0B5
:102F600090E080E00E94EFDB29EC38EC48EC5EE377
:102F70000E9490E120E030E040E05FE30E94B4E096
:102F80000E94FDE124E6629FC001112481589F4FF9
:102F90006FEF70E00E9442E0862F76CF8091BC05F3
:102FA000811104C08091720580930206089580917A
:102FB00071128823F1F02FEF3FEF30934A012093F5
:102FC0004901815080937112E8E8F0E1882351F0C3
:102FD0008150990B2BE1289FF001299FF00D1124BE
:102FE000ED59FE4E8BE1ADE6B0E101900D928A9570
:102FF000E1F720917112211105C080917C1280644B
:1030000080937C1281E090E0A0E0B0E0211103C049
:1030100080E090E0DC0180939A0590939B05A0935B
:103020009C05B0939D051092940581E08093AA05BC
:1030300083E08093580108958AE394E090932F05EC
:1030400080932E050895CF93DF93EC01CB01BA0155
:103050000E94EFDB20E030E048EC52E40E9490E177
:103060002FE632E143E85AE30E94B4E068837983B3
:103070008A839B83DF91CF910895CF93DF93EC01F7
:10308000CB01BA010E94EFDB20E030E048EC52E4D3
:103090000E9490E12FE632E143E85AE30E94B4E057
:1030A000688379838A839B83DF91CF910895CF933F
:1030B000DF93EC01CB01BA010E94EFDB20E030E0AE
:1030C00048EC52E40E9490E12FE632E143E85AE3F3
:1030D0000E94B4E0688379838A839B83DF91CF91D8
:1030E0000895CF93DF93EC01CB01BA010E94EFDB8F
:1030F00020E030E040E251E40E9490E12AE037ED28
:1031000043E25CE30E94B4E0688379838A839B8313
:10311000DF91CF910895FC01518340830895CF93AF
:10312000DF93EC01CB01BA010E94EFDB20E030E03D
:103130004AE754E40E9490E127E137EB41ED58E380
:103140000E94B4E0688379838A839B83DF91CF9167
:103150000895CF93DF93C091BD10D091BE102097FA
:1031600029F16091B9107091BA108091BB109091C3
:10317000BC100E94F8E16E5F7F4F24976C177D07AB
:10318000ACF470939703609396030E94A7B1605CC0
:1031900073468F4F9F4F609398037093990380936A
:1031A0009A0390939B03DF91CF9108951092980317
:1031B0001092990310929A0310929B03F4CFCF932D
:1031C000DF93C091BD10D091BE10209729F160917E
:1031D000B9107091BA108091BB109091BC100E94F0
:1031E000F8E16E5F7F4F24976C177D07ACF4709306
:1031F0009703609396030E94A7B1605C73468F4F5C
:103200009F4F609398037093990380939A039093D0
:103210009B03DF91CF910895109298031092990328
:1032200010929A0310929B03F4CFC9CFCF93DF93F0
:10323000EC018D810E94088A60E08B810E94C2B0FF
:10324000DF91CF9108958F929F92AF92BF92CF92CC
:10325000DF92EF92FF920F931F93CF938C01C62FB3
:1032600069017A01E3DF0E94A7B14B015C0128E507
:10327000820E22E0921EA11CB11C0E94018A8F3F87
:1032800041F00E94A7B1681979098A099B0997FD45
:10329000F4CF8C2F80640E94FC898F2D0E94FC89C2
:1032A0008E2D0E94FC898D2D0E94FC898C2D0E9400
:1032B000FC8987E8C11101C085E90E94FC89CC30F6
:1032C00011F40E94018AC0E00E94018AF8018683FD
:1032D00087FF04C0CF3F11F0CF5FF6CFCF911F9192
:1032E0000F91FF90EF90DF90CF90BF90AF909F90A5
:1032F0008F90089561E0FC0183810E94C2B08FEF3E
:103300000C94FC891F93CF93DF93EC018FDF20E0B7
:1033100030E0A9016CE0CE0196DF11E0882319F0BE
:1033200010E083E08C83CE01E5DF812FDF91CF9128
:103330001F9108951F93CF93DF93EC018F8183300A
:1033400039F089E0440F551F661F771F8A95D1F722
:103350009A01AB0162E1CE0176DF11E0882319F01A
:1033600010E085E08C83CE01C5DF812FDF91CF9106
:103370001F9108958F929F92AF92BF92EF92FF920A
:103380000F931F93CF93DF938C01EB017A010E947F
:10339000A7B14B015C012CE2820E21E0921EA11C20
:1033A000B11C0E94018AF80186838F3F69F40E9454
:1033B000A7B1681979098A099B0997FDF2CF81E1C4
:1033C000F8018483C0E021C08E3F69F5F1E0EF1A77
:1033D000F1088FEF8EBDFE012FEF0DB407FEFDCF7C
:1033E0008EB581932EBDCF018C1B9D0B8E159F0535
:1033F000A0F30DB407FEFDCF8EB5CE0DDF1D888383
:103400000E94018A0E94018AC1E0C80173DF8C2FEB
:10341000DF91CF911F910F91FF90EF90BF90AF90F0
:103420009F908F9008958FE0CBCF0F931F93CF93F2
:10343000DF93EC018B01FADE40E052E0B801CE01EF
:1034400099DFDF91CF911F910F9108950F931F93F3
:10345000CF93DF93EC0189018F81833039F089E0CC
:10346000440F551F661F771F8A95D1F79A01AB014C
:1034700061E1CE01E8DE882351F084E08C83CE0147
:1034800039DF80E0DF91CF911F910F91089540E0E7
:1034900052E0B801CE016EDFF5CFB0E0A0E0E3E589
:1034A000FAE10C9476E0EC01162F1F821C824B830C
:1034B0000E94A7B16B017C0120EDC20E27E0D21E55
:1034C000E11CF11CA89561E08B810E94C2B08B8148
:1034D0000E943CAC249A279A2698259A81E00E9463
:1034E000088A85E08D830E94088A0AE08FEF0E9497
:1034F000FC890150D9F7A89520E030E0A90160E0EF
:10350000CE01A1DE8E83813079F00E94A7B16C19C3
:103510007D098E099F0997FDEFCF81E08C83CE0155
:10352000E9DE1A8280E065C0A8952AEA31E040E031
:1035300050E068E0CE0187DE853031F581E08F8391
:10354000A8958F81812C912C5401823029F4812CF3
:10355000912CA12C80E4B82E20E030E0A90167E393
:10356000CE0171DEA501940169E2CE016CDE8E838D
:103570008823F1F00E94A7B16C197D098E099F097B
:1035800097FDEACF8AE0CACF04E00E94018A8E83C9
:103590000150D9F78A3A11F482E0D1CF0E94A7B145
:1035A0006C197D098E099F0997FDBFCF82E0B6CFC8
:1035B0008F818230B9F420E030E0A9016AE3CE01C6
:1035C00042DE882311F088E0A9CF0E94018A807C26
:1035D000803C11F483E08F830E94018A0E94018A5B
:1035E0000E94018ACE0186DE81E08A83173030F4A2
:1035F0001D83CDB7DEB7ECE00C9492E088E18C83BC
:1036000091CF0F931F93CF93DF93EC018B0120E0B9
:1036100030E0A90169E017DE882351F080E18C8356
:10362000CE0168DE80E0DF91CF911F910F91089568
:1036300040E150E0B801CE019DDEF5CFCF93C82F19
:10364000CB010E944F7C83E296E00E944F7C84E194
:1036500096E0CC2311F089E196E00E944F7C8AE04D
:103660000E94487CCF9108954091250321E0422794
:1036700064E070E00C944EAA4091250321E04227BB
:1036800061E070E00C944EAA4091250321E04227AE
:103690006CE070E00C944EAA4091250321E0422793
:1036A00061E070E00C944EAA4091250321E042278E
:1036B00068E070E00C944EAA4091250321E0422777
:1036C0006CE070E00C944EAA41E061E070E00C9474
:1036D0004EAA41E062E070E00C944EAA40912503AE
:1036E00021E042270C944EAA64E070E00C9451B1A2
:1036F00062E070E00C9451B161E070E00C9451B163
:1037000061E070E00C9451B16CE070E00C9451B148
:1037100021E732EB47E25EE36091ED027091EE0249
:103720008091EF029091F0020E9490E16093DD1091
:103730007093DE108093DF109093E0100C943F752F
:1037400021E732EB47E25EE36091F1027091F20211
:103750008091F3029091F4020E944EDC6093D910A4
:103760007093DA108093DB109093DC100C943F750B
:103770008091F5029091F602A091F702B091F802C3
:103780008093D5109093D610A093D710B093D810F3
:103790000C943F75B0E0A0E0E0EDFBE10C9480E01C
:1037A00020E24F8158856E818D810E9438AEE2E023
:1037B0000C949CE0609172058FEF0C94D6CF8091B1
:1037C0007205682F0C94D6CF6FEF809172050C9420
:1037D000D6CF6FE57DE482E00C9421D061E67DE4F4
:1037E00081E00C9421D063E67DE480E00C9421D04C
:1037F0006DE879E483E00C9421D0109294050C9448
:1038000023B780915801882351F06091EA027091AA
:10381000EB0230E020E041E081E00C940772089573
:10382000CF92DF92EF92FF92CF93DF9300D000D040
:10383000CDB7DEB70E94EFDB20E030E04AE754E48A
:103840000E9490E127E137EB41ED58E30E94B4E09C
:103850006B017C0120E030E0A9010E94E9DB2DEB47
:1038600037E346E055E387FF04C02DEB37E346E03E
:1038700055EBC701B6010E94B4E069837A838B835C
:103880009C83CE0101960E9427AF0F900F900F905E
:103890000F90DF91CF91FF90EF90DF90CF90089540
:1038A0000895CF92DF92EF92FF92C0907E0FD0905A
:1038B0007F0FE090800FF090810FC616D706E806C4
:1038C000F90601F16B017C018091830F9091840FC7
:1038D000DC01ED91FC910088F189E02D2EE73DE0BF
:1038E000B701A6010995882341F0C0927E0FD092BE
:1038F0007F0FE092800FF092810FFF90EF90DF90AA
:10390000CF90089581E0F9CFB0E0A0E0EAE8FCE1D3
:103910000C947AE0FC0181859285A385B48501969B
:10392000A11DB11D84179507A607B70730F480E0E5
:10393000CDB7DEB7E8E00C9496E087898031A9F531
:10394000BB27A72F962F852FC388D488E588F688B4
:103950008C0D9D1DAE1DBF1DE9016A017B018F010C
:1039600040917E0F50917F0F6091800F7091810F79
:1039700084179507A607B70749F5F80187898031AD
:1039800061F5B701A601552766277727440F551F14
:103990004258524FFA0180819181B0E0A0E08883C3
:1039A0009983AA83BB8381E0C3CF803209F0BFCF64
:1039B000C388D488E588F688DB01CA01C7E0B695DC
:1039C000A79597958795CA95D1F7C2CF40E0BC01DE
:1039D000CD0167DF8111D1CFAACFB701A6014F7703
:1039E000552766277727440F551F440F551F425808
:1039F000524FFA0180819181A281B381BF70CFCFF4
:103A00004F925F926F927F92AF92BF92CF92DF926E
:103A1000EF92FF920F931F93CF93DF9300D000D0CC
:103A2000CDB7DEB78C0149835A836B837C83590100
:103A3000C12CD12C7601412C82E0582E612C712CA6
:103A400049815A816B817C819E012F5F3F4FC80164
:103A50005BDF882319F1F8018585A301920104C079
:103A6000220F331F441F551F8A95D2F7DA01C9016F
:103A7000C80ED91EEA1EFB1E49815A816B817C81CA
:103A800087898031F1F481E0483F5F4F610571051E
:103A9000B8F2F501C082D182E282F3820F900F90DA
:103AA0000F900F90DF91CF911F910F91FF90EF90AA
:103AB000DF90CF90BF90AF907F906F905F904F90CE
:103AC000089581E0483F5F4F6F4F7F4008F4B8CFC3
:103AD000E0CFB0E0A0E0EFE6FDE10C9476E0EC0191
:103AE0008B81811106C080E0CDB7DEB7ECE00C948D
:103AF00092E009891A892B893C8904171507260742
:103B0000370788F34A015B01823031F48886998651
:103B1000AA86BB8681E0E8CF81149104A104B10498
:103B200049F4188619861A861B861C821D821E82FD
:103B30001F82F0CF088519852A853B85E98DFA8D8E
:103B4000858590E00996B901A801415051096109A4
:103B50007109082E04C076956795579547950A9484
:103B6000D2F775016401E1E0CE1AD108E108F1084D
:103B700004C0F694E794D794C7948A95D2F7C416F4
:103B8000D506E606F70620F0012B022B032B09F5DC
:103B90008D899E89AF89B88D8C839D83AE83BF83C9
:103BA0008E010C5F1F4FC114D104E104F10409F42C
:103BB000ADCF4C815D816E817F819801898D9A8D19
:103BC000A3DE91E0C91AD108E108F1088111EBCF19
:103BD0008ACFC41AD50AE60AF70AE2CFB0E0A0E01D
:103BE000E4EFFDE10C9470E0EC014B018A018B8164
:103BF000811107C08FEF9FEFCDB7DEB7E2E10C94E4
:103C00008CE0898180FFF6CF89899A89AB89BC894C
:103C1000488559856A857B85841B950BA60BB70B58
:103C2000A80170E060E084179507A607B70708F4BD
:103C30008C0168011E0124E0220E311CC114D10444
:103C400009F4A8C0488559856A857B855A0181E0B9
:103C5000B822898D9A8D2A013B0139E076946794C8
:103C6000579447943A95D1F72B81FC01223081F586
:103C7000628D738D848D958D640D751D861D971DC8
:103C8000E12C22E0F22EEA18FB08CE14DF0408F43F
:103C90007601E114E2E0FE0671F440907E0F509050
:103CA0007F0F6090800F7090810F641575058605F9
:103CB000970509F04CC040E0F4DD882309F49ACF61
:103CC000B5016258724FA701C4010E94BEE451C001
:103CD000F480FA94F420A114B10471F4F1100CC032
:103CE000452B462B472B51F58D899E89AF89B88D81
:103CF0008C839D83AE83BF83E98DFA8D4C805D807C
:103D00006E807F8022E0421A510861087108858523
:103D100004C0440C551C661C771C8A95D2F7868516
:103D20009785A089B189480E591E6A1E7B1EC30162
:103D3000B2016F0D711D811D911DA2CF4C815D815E
:103D40006E817F819101E0DD8111D6CF53CFA091AB
:103D5000830FB091840FED91FC9111970088F18948
:103D6000E02D9401AB01BC01CD010995882309F434
:103D700041CF8E0C9F1C88859985AA85BB858E0DA9
:103D80009F1DA11DB11D88879987AA87BB87CE1863
:103D9000DF0854CFC80130CF0F931F93CF93DF9329
:103DA000FC012381222331F080E0DF91CF911F912C
:103DB0000F9108958B01EC01FB018789803139F562
:103DC00082E08B831D8A1E8A1F8A188E808D918DBA
:103DD000B0E0A0E025E0880F991FAA1FBB1F2A951D
:103DE000D1F7898B9A8BAB8BBC8B1A8F098F81E0B3
:103DF0008983188619861A861B861C821D821E825C
:103E00001F82188A1C861D861E861F86CECF803292
:103E100059F683E08B83428D538D648D758D4D8B68
:103E20005E8B6F8B788F9E012F5E3F4FC801E8DD60
:103E30008111DBCFB9CF0F931F93CF93DF93EB01AA
:103E4000DC0113962C91211106C080E0DF91CF9107
:103E50001F910F9108952250223028F48FE2888319
:103E6000198281E0F3CF8C01FC016485758586851C
:103E7000978540E016DD882341F3D8015096EC91F8
:103E8000B0E2EB9FF0011124E258F24F3097E9F2D3
:103E900090E020E03EE24191403291F0283029F458
:103EA000DE01A90FB11D3C939F5FBE01690F711D1B
:103EB000AF0141505109DA014C91DB014C939F5FF6
:103EC0002F5F2B3041F7C90FD11D1882BFCF40E0C3
:103ED00050E0BA01FECD682F70E090E080E00C94D5
:103EE00053A98F929F92AF92BF92CF92DF92EF929F
:103EF000FF92CF936B017C01B42E20E030E0A9014A
:103F00000E94E9DB87FF07C08DE20E94487CF7FA38
:103F1000F094F7F8F094C0E060E070E080E09FE398
:103F2000CB1541F02DEC3CEC4CEC5DE30E944EDCFB
:103F3000CF5FF6CFA70196010E94B4E06B017C0130
:103F40000E94FDE14B015C010E9453A9CC2371F159
:103F5000C501B4010E94EDDB9B01AC01C701B601B4
:103F60000E94B3E06B017C018EE20E94487CC1504C
:103F7000E8F020E030E040E251E4C701B6010E94E1
:103F80004EDC6B017C010E94FDE14B015C010E9453
:103F900053A9C501B4010E94EDDB9B01AC01C7012F
:103FA000B6010E94B3E06B017C01E1CFCF91FF909D
:103FB000EF90DF90CF90BF90AF909F908F9008953B
:103FC000EF92FF920F931F93CF937B018A01C2E47C
:103FD0008F3F09F0C4E580E20E94487C8C2F0E944C
:103FE000487C8AE30E94487CF7016081718182816C
:103FF000938142E076DF8EED97E00E944F7CF801DE
:10400000608171818281938142E06BDF62E070E0C8
:1040100080E090E00E941EB1CF911F910F91FF9020
:10402000EF900895A8E0B0E0E8E1F0E20C947FE0C2
:10403000182F6091BD107091BE10072E000C880BD8
:10404000990B0E94EFDB6D837E838F83988780912D
:10405000B9109091BA10A091BB10B091BC10898397
:104060009A83AB83BC83AE014B5F5F4FBE016F5F32
:104070007F4F80E8A5DF60917E0570917F05072E58
:10408000000C880B990B0E94EFDB6D837E838F837E
:10409000988780917A0590917B05A0917C05B091DD
:1040A0007D0589839A83AB83BC83AE014B5F5F4FF1
:1040B000BE016F5F7F4F8FEF83DF609180051F3FF1
:1040C00039F08CE21802F0011124EB54FF4E6285A6
:1040D00070E086EE97E00E9420896091800570E094
:1040E00081EE97E00E9420892896E3E00C949BE003
:1040F0000F930FB70F9300916E000D7F00936E002A
:1041000078940F930BB70F930CB70F921F922F93C6
:104110003F934F935F936F937F938F939F93AF934F
:10412000BF93EF93FF9311240E948F2CFF91EF9187
:10413000BF91AF919F918F917F916F915F914F91BF
:104140003F912F911F900F900CBF0F910BBF0F91BC
:104150000260F89400936E000F910FBF0F911895B5
:10416000CF93DF931092D905C5EBD0E1198618865D
:104170000E94A9181A865D98C6E7D5E019861886A8
:104180000E9407661A865C98DF91CF910895B0E08F
:10419000A0E0EDECF0E20C9476E0B4E4A0E06A2F4D
:1041A00070E0AB014B0F511D55954795411111C062
:1041B000EDE6FAE165917491072E000C880B990BDE
:1041C0000E94EFDBCDB7DEB7ECE00C9492E0B42FA9
:1041D000E8CFA41711F0B41303C0E9E7FBE1EACF7D
:1041E0009A0121503109220F331F220F331FF90189
:1041F000E559F54EE590F490F901E159F54EC59178
:10420000D4918E159F0518F3A42FC817D90708F469
:10421000C6CFF901E359F54E05911491F901EF5814
:10422000F54EC590D4908E199F09BC0190E080E0B6
:104230000E94EDDB4B015C01B601601B710B072E88
:10424000000C880B990B0E94EFDB9B01AC01C501B0
:10425000B4010E944EDC4B015C01CE19DF09BE01A6
:1042600090E080E00E94EDDB9B01AC01C501B40150
:104270000E9490E16B017C01B801012E000C880BBB
:10428000990B0E94EFDB9B01AC01C701B6010E94B4
:10429000B4E098CFEF92FF920F931F93CF93DF93E9
:1042A000C82F7B018A018091E505833090F00E9440
:1042B000C47EC7010E944F7C84E497E00E944F7C3B
:1042C000CF3F41F580E497E00E944F7C8AE00E9456
:1042D000487C46DFA89580918203811138C081E037
:1042E0008093820382E08093E5053ADFD5E1D150E7
:1042F00019F1A895149A69E170E080E090E00E94BD
:104300001EB1149860E570E080E090E00E941EB15C
:10431000A895EDCFC7FDDACF8EE397E00E944F7CE2
:104320006C2F0C2E000C770B880B990B0E94B0A9F8
:104330008AE00E94487CCACF149A67E377E0CF3FB7
:1043400011F06BE377E040E0C8010E942E89CDB701
:10435000DEB7E6E00C9498E0B0E0A0E0E2EBF1E23A
:104360000C9471E0EC015B014A01322EFA014080AD
:10437000518062807380A30192016D817E818F8163
:1043800098850E94E9DB8823A1F04D825E826F82CE
:1043900078867724739420E030E0A901F4016081ED
:1043A0007181828193810E94DAE218160CF0712CDF
:1043B0007C828C818230A1F0833009F448C0813046
:1043C000A9F52D813E814F815885F501608171816C
:1043D000828193810E94E9DB87FD28C082E08C8383
:1043E000F50120813181428153816D817E818F81F0
:1043F00098850E94B3E02B013C010E94A7B14B01BC
:104400005C01A7019601C301B2010E94E9DB181605
:1044100094F09801A8EEB3E00E9412E0860E971E79
:10442000A81EB91E88829982AA82BB82CDB7DEB748
:10443000E1E10C948DE088819981AA81BB81881A81
:10444000990AAA0ABB0AB7FCF1CF83E08C834EEB32
:1044500057E06EEC77E0832D1DDFE8CF42E657E0B2
:104460006FE677E017CFCF93DF93A8958091B710D1
:104470009091B8100E94CBA96093B9107093BA10B4
:104480008093BB109093BC10809178059091790532
:104490007EDE60937A0570937B0580937C05909314
:1044A0007D05C091B710D091B810809150019091C6
:1044B0005101C817D90710F480E0D0DF8091BD10FA
:1044C0009091BE10181619066CF480914E019091CF
:1044D0004F018C179D0730F44FE957E06CEA77E005
:1044E00080E0D8DE20911B0530911C058091780575
:1044F000909179058217930710F48FEFAFDF8091C9
:104500007E0590917F05181619068CF420914C01B8
:1045100030914D01809178059091790528173907E0
:1045200030F44FE957E06CEA77E08FEFB3DEDF91CC
:10453000CF910895A4E1B0E0E0EAF2E20C9472E0D9
:104540008091E505811105C0A8956496E0E10C9481
:104550008EE0809191038111F8CF81E080939103E7
:104560008091A402811103C010929103EECF7BDFF2
:104570001092A4020E94A7B16D837E838F839887D7
:104580006091540170915501072E000C880B990B16
:104590000E94EFDB9B01AC016091B9107091BA10E1
:1045A0008091BB109091BC100E94DAE2181614F4AE
:1045B00080E054DF6091BD107091BE10072E000C9A
:1045C000880B990B0E94EFDB69837A838B839C8332
:1045D000C12CD12C30E8E32E30E4F32E08E210E0B9
:1045E00020E0AE014F5F5F4F69EB70E183EA90E13D
:1045F000B3DE2091B9103091BA104091BB105091A8
:10460000BC1029873A874B875C8760915201709173
:104610005301072E000C880B990B0E94EFDB9B01C6
:10462000AC0169857A858B859C850E94DAE2181633
:104630000CF011C26091540170915501072E000CCD
:10464000880B990B0E94EFDB9B01AC0169857A8591
:104650008B859C850E94E9DB87FFFDC180918903E2
:10466000811109C085EB90E19093880380938703C3
:1046700081E0809389030091870310918803D8011A
:1046800018966D917C91072E000C880B990B0E9457
:10469000EFDB6B017C0120E030E0A9010E94E9DB47
:1046A0008823C9F0D80114962D913D914D915C91CC
:1046B00017972D873E874F87588BC701B6010E94F9
:1046C000B3E04B015C0120E030E040E251EC0E949D
:1046D000E9DB87FF07C081E0F8018387C12CD12C7B
:1046E0007601D0C020E030E040E251E4C501B401E1
:1046F0000E94DAE218165CF481E0D8011B968C93D4
:10470000C12CD12C2FE7E22E23E4F22EBBC0F801FE
:104710008385882349F013861486158616861786A6
:10472000148E158E168E178ED80194962D913D916C
:104730004D915C919797298B3A8B4B8B5C8B1C9698
:104740002D913D914D915C911F97C501B4010E943F
:10475000B4E06B017C0120E030E0A9010E94E9DBBC
:1047600087FD75C129893A894B895C8960E070E0D1
:104770008FE793E40E9490E12B013C01A701960191
:104780000E94E9DB87FF02C073016201F801C48661
:10479000D586E686F78620A131A142A153A1C501A5
:1047A000B4010E944EDC4B015C01D80154968D92FD
:1047B0009D92AD92BC925797A701960169897A891B
:1047C0008B899C890E944EDC2B013C01F801408EB4
:1047D000518E628E738EC48CD58CE68CF78C2D85B1
:1047E0003E854F85588960897189828993890E94A5
:1047F000B3E0D80198962D913D914D915C919B9796
:104800000E944EDCA70196010E94B3E020ED3CEC33
:104810004CE45DE30E944EDCA70196010E94B4E0E7
:104820006B017C01F801C48ED58EE68EF78E2D8546
:104830003E854F855889208B318B428B538BA3014A
:104840009201C501B4010E94B4E0A70196010E9443
:10485000B4E020E030E0A9010E94B4E06B017C01EB
:1048600020E030E0A9010E94E9DB87FD37CF20E09E
:1048700030E04FE753E4C701B6010E94DAE21816B0
:104880000CF43ECFC701B6010E94F8E1759567951B
:104890006093BF108091980390919903A0919A031F
:1048A000B0919B030097A105B105E1F02D813E81F8
:1048B0004F815885281B390B4A0B5B0BDA01C90164
:1048C000B7FD10C069857A858B859C850E94F8E1CB
:1048D0002091960330919703621773070CF4BDC0C3
:1048E0000E94A91820E030E04AEF52E460917A0576
:1048F00070917B0580917C0590917D050E94DAE2A4
:10490000181614F48FEFAADD8091A0029091A102F5
:10491000A091A202B091A3020097A105B10501F1F7
:104920002D813E814F815885281B390B4A0B5B0B2B
:10493000DA01C901B7FD14C060917A0570917B0559
:1049400080917C0590917D050E94F8E120919E0266
:1049500030919F02621773070CF486C00E940766AD
:104960008091830390918403A0918503B091860385
:104970002D813E814F815885281B390B4A0B5B0BDB
:10498000DA01C901B7FDF0CD8D819E81AF81B88577
:1049900088579C4EAF4FBF4F8093830390938403FF
:1049A000A0938503B093860360917E0570917F0587
:1049B000072E000C880B990B0E94EFDB69837A832A
:1049C0008B839C83C12CD12CE12C80E4F82E04E154
:1049D00010E02FEFAE014F5F5F4F6AE775E08CEAA2
:1049E00090E1BADCC0907A05D0907B05E0907C0520
:1049F000F0907D0520E030E040EA50E4C701B601C8
:104A00000E94DAE287FD39C020E030E04AEF52E44C
:104A1000C701B6010E94E9DB18167CF160917E05A2
:104A200070917F05072E000C880B990B0E94EFDB1D
:104A3000A70196010E94B3E020E030E0A9010E94A6
:104A4000DAE21816C4F48FE7809380058DCDC12C6F
:104A5000D12C76019BCE60E01BCF41E857E060E9A6
:104A600077E080E017DC3ECF41E857E060E977E08F
:104A70008FEF10DC75CF80E0E7CF109280055C9857
:104A800073CDCF92DF92EF92FF92CF93DF93EC0141
:104A9000C880D980EA80FB808DE297E00E944F7C3D
:104AA000C701B6010E948D73CC80DD80EE80FF804F
:104AB00082EC98E20E944F7CC701B6010E948D7380
:104AC000C884D984EA84FB848EEB98E20E944F7CF0
:104AD000C701B6010E948D738AE00E94487CDF9175
:104AE000CF91FF90EF90DF90CF900895BC0120917F
:104AF0006F033091700340916F035091700324173E
:104B0000350731F481E02617370709F080E0089572
:104B10009A01F1CF0F930FB70F9300916E000F938F
:104B20000D7F00936E0000916F000D7F00936F006A
:104B30000F930BB70F930CB70F921F922F933F93C6
:104B40004F935F936F937F938F939F93AF93BF9395
:104B5000EF93FF9311240E94022EFF91EF91BF91DA
:104B6000AF919F918F917F916F915F914F913F9105
:104B70002F911F900F900CBF0F910BBF0F910260F0
:104B8000F89400936F000F9100936E000F910FBF88
:104B90000F91189500C000C08091200580FF1FC0B4
:104BA000459A8FEF809326038091200581FF1AC0DC
:104BB000479A8FEF809327038091200582FF15C0CD
:104BC0002A988FEF809328038091200583FF10C0DF
:104BD000289A8FEF8093290300C000C0089545985C
:104BE00081E0E0CF479881E0E5CF2A9A81E0EACFE3
:104BF000289881E0EFCF80919D02982F977F909326
:104C00009D02982F937081E011F080E008955E9AE4
:104C100008955E9880919D02886080939D0208951A
:104C2000E82FF0E021E030E0082E02C0220F331F11
:104C30000A94E2F72095309590919D0292239093EB
:104C40009D02EF52FE4F2081922321E019F020E0D7
:104C5000822F0895813079F038F08230C9F7159AA3
:104C600090911F059B7F04C05E9A90911F059E7FC7
:104C700090931F05EDCF5E9A90911F059D7FF8CF11
:104C800080E0CEDF81E0CCDF82E0CADFB4CF8130CC
:104C900079F070F0823071F021E030E001C0220F35
:104CA0008A95EAF780919D02822B80939D02089558
:104CB0005E98F2CF1598F0CFA9E8B0E0E2E6F6E210
:104CC0000C947AE0C358DF4F188219821A821B8233
:104CD000CD57D04080913D0290913E02A0913F027D
:104CE000B0914002CF57DF4F88839983AA83BB835B
:104CF000C158D04084E690E09093A20F8093A10F1A
:104D0000109251101092501064E070E0CE018F5755
:104D10009F4F0E9451B18091A10F9091A20F0296D6
:104D20009093A20F8093A10F1092511010925010E7
:104D30008FE592E0CB57DF4F99838883C558D040E9
:104D4000CE018B579F4F0E94781B81E0C757DF4FE2
:104D50008883C958D040CE0187579F4F0E94801B3F
:104D600068E470E086E196E00E9451B180E1ECE6F3
:104D7000F1E08E010F5F1F4FD80101900D928A95CF
:104D8000E1F760E170E0C8010E9451B186EE95E064
:104D90000E94741B81E295E00E94841B7E018DE6D7
:104DA000E80EF11C8FEFF7018083C7010E94801B82
:104DB00019821A821B821C82C8010E94741B809176
:104DC000CB059091CC05A091CD05B091CE058983FE
:104DD0009A83AB83BC83C8010E94741B83E0F701F4
:104DE0008083EA968FAFEA9789E992E00E94741B6C
:104DF000C7010E94801BCE0187589F4F0E94801BD5
:104E000080E09CE09A838983C8010E94781B64E259
:104E100070E085E792E00E9451B18CE0F8011192B8
:104E20008A95E9F7C8010E94841BC358DF4F188296
:104E300019821A821B82CD57D0402AE0D22EDA94F2
:104E4000DD2031F0CE0183589F4F0E94741BF7CFB5
:104E500083E0C857DF4F8883C858D040C957DF4F19
:104E60008883C758D040CE0188579F4F0E94801B2F
:104E7000CE0189579F4F0E94801B80E09CE0EB96FB
:104E80009FAF8EAFEB97CE0187589F4F0E94781B44
:104E900088E0F701982F11929A95E9F7F80111929D
:104EA0008A95E9F768E070E0C7010E9451B168E0B7
:104EB00070E0C8010E9451B1C358DF4F18821982B7
:104EC0001A821B82CD57D0409AE0C92ED12CF1E036
:104ED000CF1AD10831F0CE0183589F4F0E94741B26
:104EE000F6CF1982DD24DA94F701D082C8010E943E
:104EF0007C1BC7010E94801B1982C8010E947C1B79
:104F00006CE070E081E895E00E9451B18091D5108D
:104F10009091D610A091D710B091D81089839A8320
:104F2000AB83BC8321E732EB47E25EE36091D910AB
:104F30007091DA108091DB109091DC100E9490E16A
:104F40006D837E838F83988721E732EB47E25EE3B0
:104F50006091DD107091DE108091DF109091E01073
:104F60000E944EDC69877A878B879C8780E090E07F
:104F7000A0E8BFE38D879E87AF87B88B198A1A8A0E
:104F80001B8A1C8A64E170E0C8010E9451B184E16F
:104F900090E09A838983C8010E94781B8CE0ECE73B
:104FA000F1E0D80101900D928A95E1F76CE070E094
:104FB000C8010E9451B18CE0ECE7F1E0D80101900A
:104FC0000D928A95E1F76CE070E0C8010E9451B142
:104FD0001982C8010E94801B8FE78983C8010E9443
:104FE000801BD982C8010E94801B85E0E8E8F1E0BF
:104FF000D80101900D928A95E1F765E070E0C80153
:105000000E9451B11982C8010E947C1B80E2EDE828
:10501000F1E0D80101900D928A95E1F760E270E02D
:10502000C8010E9451B1F7011082C7010E947C1B88
:1050300084E792E00E947C1B80E792E00E94741B50
:10504000C358DF4F188219821A821B82CD57D04075
:10505000CE0183589F4F0E94741B82E1F801119288
:105060008A95E9F762E170E0C8010E9451B184E2DB
:10507000EDEAF1E0D80101900D928A95E1F764E242
:1050800070E0C8010E9451B180E1D82EF8018D2D49
:1050900011928A95E9F760E170E0C8010E9451B170
:1050A0001A82198262E070E0C8010E9451B1C358AF
:1050B000DF4F188219821A821B82CD57D040CE0151
:1050C00083589F4F0E94741BF8011192DA94E9F7FC
:1050D00060E170E0C8010E9451B18CE6F8011192C4
:1050E0008A95E9F76CE670E0C8010E9451B1F701BA
:1050F0001082118212821382148215821682178204
:1051000068E070E0C7010E9451B18CE0F701119294
:105110008A95E9F7C957DF4F1882C758D04080E019
:1051200090E0A0E4B0E4ED968CAF9DAFAEAFBFAF22
:10513000ED97C7010E94841BCE0189579F4F0E94A3
:10514000801BCE0187589F4F0E94741B0091A10FB6
:105150001091A20F8091501090915110F7019183FE
:10516000808384E690E09093A20F8093A10F64E087
:1051700070E085ED91E00E9451B1C7010E94781B5B
:1051800080E0033CF2E01F0731F460E08DEE96E032
:105190000E94256B81E0C757DF4FE8E00C9496E052
:1051A0008BDD0C94626B4F925F926F927F928F9225
:1051B0009F92AF92BF92CF92DF92EF92FF92CF93E6
:1051C000DF9300D000D000D0CDB7DEB79E838D83B3
:1051D0000E94E9152B013C012091990230919A021D
:1051E00040919B0250919C02AD81BE8118966D91B9
:1051F0007D918D919C911B970E94B3E04B015C01C6
:10520000A30192010E94B3E06B017C018091CB0568
:105210009091CC05A091CD05B091CE0589839A835C
:10522000AB83BC8320E030E0A901BC01CD010E942A
:10523000E9DB882349F020E030E0A901C701B6018D
:105240000E94E9DB1816ECF0AD81BE811896CD9274
:10525000DD92ED92FC921B9726960FB6F894DEBF76
:105260000FBECDBFDF91CF91FF90EF90DF90CF9039
:10527000BF90AF909F908F907F906F905F904F9076
:10528000089529813A814B815C81C501B4010E9456
:10529000DAE287FD07C0ED81FE8180869186A286D5
:1052A000B386DACF2091C6053091C7054091C80575
:1052B0005091C905C301B2010E944EDC9B01AC01B3
:1052C00060E070E080E89FE30E94B3E09B01AC01E6
:1052D000C701B6010E9490E1AD81BE8118966D9321
:1052E0007D938D939C931B97B7CF843021E09207D9
:1052F00014F084E091E09093BE108093BD100C9464
:10530000DF188091720590917305EFCFCF93DF93F3
:1053100020916F0221111DC09091200391111AC09C
:10532000C0911201D0911301219720E030E040E0BC
:105330005FE36091B9107091BA108091BB109091A9
:10534000BC100E94B4E00E94F8E121E06C177D07D8
:105350000CF020E0822FDF91CF910895B0E0A0E023
:10536000E4EBF9E20C9478E0C6E1D6E00AEE15E051
:1053700086E2A82E86E0B82EC12CD12C7601C394EB
:1053800069917991899199910E94EDDB28893989F8
:105390004A895B890E944EDC0E94FDE1F80161931D
:1053A0007193819391938F01C616D706E806F9068B
:1053B00010F46B017C01AC16BD0611F76FEF7FEFA7
:1053C000CB01A70196010E94C4DF2093FA05309318
:1053D000FB054093FC055093FD05CDB7DEB7EAE031
:1053E0000C9494E00F931F93CF93DF930AE216E09F
:1053F000C3E0D6E0F80121913191419151918F01A3
:1054000060E070E080E89FE30E9490E16993799307
:1054100089939993F6E0C331DF0761F70E945BAD92
:105420009DDFDF91CF911F910F910895DBCFDACFF0
:105430009091E4108091E510981306C080911306B6
:1054400090911406892B19F00E9445BAF1CF089566
:105450009091E4108091E510981307C08091130695
:1054600090911406892B09F40BCC0E9445BAF0CF19
:105470008F929F92AF92BF92CF92DF92EF92FF9264
:10548000CF93DF932091CA05222309F490C0EC0149
:105490008090CB059090CC05A090CD05B090CE0526
:1054A000C884D984EA84FB8420E030E0A901C501E6
:1054B000B4010E94E9DB882309F484C020E030E0D5
:1054C000A901C701B6010E94E9DB18160CF07AC0E9
:1054D000A7019601C501B4010E94E9DB18160CF082
:1054E00054C0A70196016091C2057091C3058091D7
:1054F000C4059091C5050E94E9DB882321F1C09283
:10550000C205D092C305E092C405F092C505209172
:10551000C6053091C7054091C8055091C905C7011E
:10552000B6010E944EDC9B01AC0160E070E080E8B7
:105530009FE30E94B3E060930E0170930F0180938C
:1055400010019093110180900E0190900F01A09096
:105550001001B090110120E030E0A901C501B401B3
:105560000E94E9DB882389F0CE010E94E9159B01A6
:10557000AC01C501B4010E944EDCA70196010E9456
:10558000B4E0688779878A879B8720919902309158
:105590009A0240919B0250919C02688579858A8588
:1055A0009B850E94B4E0688779878A879B87DF9113
:1055B000CF91FF90EF90DF90CF90BF90AF909F90F2
:1055C0008F900895812C912C80E8A82E8FE3B82E1F
:1055D000CBCFAEE0B0E0EFEEFAE20C9472E09E8743
:1055E0008D875B018A01DC01D6966D917D918D914D
:1055F0009C91D9970E94EDDB6B017C01F501208124
:105600003181428153810E944EDC0E947AE14B013C
:105610005C01D8012D913D914D915C91C701B6017E
:105620000E944EDC0E947AE12B013C01C501B401CD
:105630000E94FDE16D837E838F83988768377105B3
:105640008105910540F408E710E020E030E00D838B
:105650001E832F833887C301B2010E94FDE1698355
:105660007A838B839C83683771058105910540F4AB
:1056700028E730E040E050E029833A834B835C83A5
:10568000AD85BE8595968D909D90AD90BC90989778
:10569000FD01EE5BFF4F6081718182819381611515
:1056A00071058105910509F4C4C00E94EFDB9B01DF
:1056B000AC0160E070E080E89FE30E9490E120E0B0
:1056C00030E040E05FE30E944EDC2B013C01A7018B
:1056D0009601C701B6010E944EDC6B017C01698115
:1056E0007A818B819C810E94EDDB9B01AC010E9441
:1056F0004EDC9B01AC01C701B6010E94B3E0A301DF
:1057000092010E944EDC69877A878B879C876D8126
:105710007E818F8198850E94EDDB9B01AC010E9408
:105720004EDC9B01AC01C701B6010E94B3E0A301AE
:1057300092010E944EDC2B013C010E947AE10E9402
:10574000FDE16B017C0169857A858B859C850E94D2
:1057500029E20E94FDE1DC01CB01B701A601480F5F
:10576000591F6A1F7B1F95018401041B150B260B13
:10577000370BB901A80177FF35C0C501B4010E94FC
:10578000EDDBA30192010E94B4E029853A854B85A7
:105790005C850E94B3E020E030E040E05FE30E94DF
:1057A0004EDC0E947AE16B017C0120E030E0A9012F
:1057B0000E94DAE218161CF0C12CD12C7601C70128
:1057C000B6010E94FDE16B017C018C149D04AE04C6
:1057D000BF0410F475016401D501C4018C199D0941
:1057E000AE09BF09ED85FE85C1A6D2A6E3A6F4A643
:1057F00095018401081B190B2A0B3B0BD901C80129
:1058000085A796A7A7A7B0AB0D811E812F813885EC
:1058100002AF13AF24AF35AFFE9609811A812B81F9
:105820003C8100831183228333832E96E0E10C9424
:105830008EE080E090E0DC01C12CD12C7601D2CF4B
:1058400090916F0081E091FD02C080E008959091F9
:105850006F009D7F90936F000895EFE6F0E08081E8
:10586000826080830895ECDF91E090937103811151
:10587000F4CF0895CF93DF9380911203329B49C0F8
:1058800081608093120380911203339B44C0826035
:105890008093120380911203349B3FC084608093F5
:1058A0001203C0916203C0FF0FC08091200580FFEA
:1058B0000BC08091120380FF07C08091700581604A
:1058C0008093700580E0CFDFC1FF0FC0809120057D
:1058D00081FF0BC08091120381FF07C0809170058A
:1058E00082608093700581E0BEDFC2FF0FC08091AF
:1058F000200582FF0BC08091120382FF07C08091B8
:10590000700584608093700582E0ADDFDF91CF91F8
:1059100008958E7FB6CF8D7FBBCF8B7FC0CF1F9377
:10592000CF93DF93809134018F3708F479C08F577C
:105930009091BF1090939503992309F46FC05D9ADD
:105940009091800590939403992309F473C05C9A15
:105950008F5F809334018091930391E08927809336
:10596000930381110E946C6B8091330191E0980F39
:1059700085300CF090E0823009F4ABC00CF05CC0D4
:10598000882309F471C0813009F498C090933301E1
:10599000C091A502D091A602209709F42CC0F894DA
:1059A00013B1147082E073D900C000C01C161D062C
:1059B0000CF0BDC02A9A00C000C02B9A00C00000A5
:1059C00082E090E00197F0F72B9800C000C011230F
:1059D00009F4AFC02A9A00C000C078948091A50253
:1059E0009091A6021C161D060CF0A5C0019790937D
:1059F000A6028093A50280911E0581113BDF809154
:105A0000130690911406009729F0019790931406BD
:105A100080931306DF91CF911F9108955D9890CFE9
:105A200090919503891708F05D98909194038917D8
:105A300008F48ECF5C988CCF843009F461C00CF4EC
:105A40005BC0853009F0A2CF20919203211102C0E2
:105A500080939203809192038150809392038823D4
:105A600009F494CF95E092CF809132018F5F80311D
:105A70001CF4809332018ACF109232018091A402EB
:105A8000811113C02091B5103091B6103093B81029
:105A90002093B710209176053091770530937905E2
:105AA0002093780581E08093A4021092B6101092A2
:105AB000B510109277051092760568CF10927B0092
:105AC00087E480937C0080917A00806480937A00E0
:105AD0005DCF80917A0086FD26C04091780050917C
