:100000000C94F31B0C94331C0C94331C0C94331C75
:100010000C94331C0C94331C0C94331C0C94331C24
:100020000C94331C0C94331C0C94331C0C94331C14
:100030000C94331C0D94E5020C94331C0C94331C6B
:100040000C94331C0C9470A20C94331C0C94331C31
:100050000C94331C0C9444A10C94331C0D949B02FF
:100060000C94331C0C943A6C0C94306C0C94331C30
:100070000C94331C0C94331C0C94331C0C94331CC4
:100080000C94331C0C94331C0C94331C0C94331CB4
:100090000C94331C0C94331C0C94331C0C94331CA4
:1000A0000C94331C0C94331C0C94331C0C94331C94
:1000B0000C94331C0C94331C0C94331C0C94331C84
:1000C0000C94331C0C94331C0C94331C0C94331C74
:1000D0000C94331C0C94331C0C94331C0C94331C64
:1000E0000C94331C084AD73B3BCE016E84BCBFFD49
:1000F000C12F3D6C74319ABD56833DDA3D00C77FF8
:1001000011BED9E4BB4C3E916BAAAABE0000008090
:100110003F05A84CCDB2D44EB93836A9020C50B91F
:10012000918688083CA6AAAA2ABE000000803F0744
:10013000634236B79BD8A71A39685618AEBAAB5582
:100140008C1D3CB7CC5763BD6DEDFD753EF6177247
:1001500031BF000000803F08000000BE9224491219
:100160003EABAAAA2ABECDCCCC4C3E00000080BE3D
:10017000ABAAAAAA3E00000000BF000000803F001A
:1001800000000000084178D3BB4387D1133D190E0E
:100190003CC3BD4282AD2B3E68EC8276BED98FE176
:1001A000A93E4C80EFFFBE01C4FF7F3F000000006E
:1001B00000000D94691A0D9465160D9416000D94A7
:1001C000C1190D94B2190D9434190D9483160D9420
:1001D00028000D94A0190D9492034E414E494E49AA
:1001E0005459494E46CDCCCC3D0AD7233C17B7D104
:1001F0003877CC2B329595E6241FB14F0A000020AA
:10020000410000C84200401C4620BCBE4CCA1B0E28
:100210005AAEC59D7400407A10F35A00A0724E1871
:10022000090010A5D4E80000E87648170000E40BA8
:1002300054020000CA9A3B000000E1F5050000806E
:10024000969800000040420F000000A086010000C8
:1002500000102700000000E8030000000064000018
:100260000000000A00000000000100000000002C57
:1002700076D888DC674F0823DFC1DFAE59E1B1B71C
:1002800096E5E3E453C63AE651997696E8E6C284E9
:1002900026EB898C9B62ED407C6FFCEFBC9C9F4001
:1002A000F2BAA56FA5F490055A2AF75C936B6CF926
:1002B000676DC11BFCE0E40D47FEF520E6B500D0FC
:1002C000ED902E0300943577050080841E08000011
:1002D000204E0A000000C80C333333330F986E12DF
:1002E000831141EF8D2114893BE65516CFFEE6DBE5
:1002F00018D1844B381BF77C1D901DA4BBE424202F
:100300003284725E228100C9F124ECA1E53D2743CD
:100310004F4D4D554E49434154494F4E004452595B
:1003200052554E004552524F525300494E464F00CF
:100330004543484F00444554454E4944410050729E
:10034000696E7465722073746F7070656420647573
:100350006520746F206572726F72732E2046697803
:1003600020746865206572726F7220616E642075FA
:100370007365204D39393920746F2072657374614B
:1003800072742E202854656D706572617475726583
:100390002069732072657365742E2053657420691B
:1003A0007420616674657220726573746172746919
:1003B0006E67290A004E6F20436865636B73756D25
:1003C0002077697468206C696E65206E756D626552
:1003D000722C204C617374204C696E653A20004E7B
:1003E0006F20436865636B73756D2077697468204F
:1003F0006C696E65206E756D6265722C204C617340
:1004000074204C696E653A2000636865636B737590
:100410006D206D69736D617463682C204C61737419
:10042000204C696E653A20004C696E65204E756DF2
:10043000626572206973206E6F74204C6173742042
:100440004C696E65204E756D6265722B312C204CA7
:10045000617374204C696E653A20004D3131300073
:1004600053657269616C20737461747573206D6972
:10047000736D617463680A0053442072656164207F
:100480006572726F720A00746F6F206D75636820F9
:10049000696E6163746976652074696D65202D20CD
:1004A00063757272656E7420636F6D6D616E643A10
:1004B00020002121204B494C4C20636175736564F9
:1004C0002062792000627573793A207061757365D6
:1004D0006420666F7220696E7075740A00627573AD
:1004E000793A2070617573656420666F7220757348
:1004F00065720A00627573793A2070726F63657372
:1005000073696E670A0053442F464420726574690C
:100510007261646F0053442F464420696E736572A4
:100520007461646F004D3130303053005265632E7A
:100530002046616C6C6F20656C6563747269636FD3
:10054000004D3630302054256300506F72206661B4
:10055000766F722C207265696E6963696500494D1A
:10056000505245534F524120444554454E49444111
:100570000025533A202553004D5545525441005013
:1005800072696E7465722068616C7465642E206B8C
:10059000696C6C28292063616C6C6564210A0065B4
:1005A00063686F3A004572726F723A0042696C6913
:1005B0006E656172204C6576656C696E6720477266
:1005C00069643A0A00486F74656E6420746F6F2026
:1005D000636F6C640A004F46460A004661646520FA
:1005E0004865696768742000426564204C657665DB
:1005F0006C696E6720004661696C656420746F20C9
:10060000656E61626C6520426564204C6576656C40
:10061000696E670A00496E76616C6964206D657366
:10062000682E0A00477269642070726F62696E6793
:1006300020646F6E652E0A0069646C650A00206F85
:10064000662000706F696E7420004D616E75616C7C
:100650002047323920004D616E75616C2047323978
:100660002061626F727465640A00202844525952F6
:10067000554E2900473239204175746F2042656418
:10068000204C6576656C696E67003F20284C2C52C3
:100690002C462C4229206F7574206F6620626F757E
:1006A0006E64732E0A003F2856296572626F736567
:1006B000206C6576656C20696D706C61757369621C
:1006C0006C652028302D34292E0A00426164205A9E
:1006D0002076616C75650A004E6F2062696C696EE8
:1006E00065617220677269640A0020440020204D11
:1006F000323030205300202844697361626C656495
:10070000293A0046696C616D656E74207365747476
:10071000696E67730020204D3230312058004D61E2
:100720007820416363656C65726174696F6E20281F
:10073000756E6974732F7332290020204D32303367
:100740002058004D61782066656564726174657338
:100750002028756E6974732F7329002052002020A1
:100760004D323034205000416363656C65726174B2
:10077000696F6E2028756E6974732F733229202873
:10078000503C7072696E742D616363656C3E2052DB
:100790003C726574726163742D616363656C3E20A5
:1007A000543C74726176656C2D616363656C3E299F
:1007B00000204A0020530020204D323035204200D6
:1007C000416476616E6365642028423C6D696E5FAA
:1007D0007365676D656E745F74696D655F75733E93
:1007E00020533C6D696E5F66656564726174653E39
:1007F00020543C6D696E5F74726176656C5F6665EE
:100800006564726174653E204A3C6A756E635F641C
:1008100065763E290020440020490020204D3330D9
:1008200031205000486F74656E64205049440020A8
:10083000440020490020204D3330342050004265D0
:10084000642050494400252900257C0020280020F0
:10085000540020496E76616C69642045207374658C
:100860007070657220002045207374657070657229
:10087000206E6F74207370656369666965640A0031
:10088000486561642063616E6E6F742062652070DC
:1008900061726B656400496E736572742066696C81
:1008A000616D656E7420616E642070726573732073
:1008B000627574746F6E0A005265686561742044D5
:1008C0006F6E6500526563616C656E74616E646F16
:1008D0002E2E2E00507265737320627574746F6EC5
:1008E00020746F2068656174206E6F7A7A6C650A77
:1008F00000496E736572742066696C616D656E7413
:1009000020616E6420707265737320627574746FF9
:100910006E0A00203B0020550020204D3630332049
:100920004C0046696C616D656E74206C6F61642F5C
:10093000756E6C6F6164004D323453256C645425C0
:100940006C64004739322E394525730047314625FE
:10095000640047315A2573463630300047315825F8
:10096000735925734633303030004D3130365025C1
:1009700069532569004D313039532569004D3230B6
:1009800030442573004739322E395A2573004D34CF
:1009900032305325635A2573004732385230585944
:1009A0000047315A257346363030004739322E39E8
:1009B0005A2573004739322E394530004D313039D0
:1009C000532569004D313930532569004D3432309B
:1009D000533000203B200020204D34313320530081
:1009E000506F7765722D6C6F7373207265636F76CD
:1009F000657279003B200020496E76616C69642045
:100A00006578747275646572200047322F47332011
:100A100062616420706172616D65746572730A0051
:100A20005265706F736F2E2E2E004D6573682070A7
:100A30006F696E74206F7574206F662072616E67C7
:100A4000650A0050756C736172207061726120528A
:100A500065616E756461720053696E206D6F7669B1
:100A60006D69656E746F00456E642066696C652003
:100A70006C6973740A00426567696E2066696C650B
:100A8000206C6973740A004E6F206D656469610A99
:100A900000286E6F2066696C652900437572726567
:100AA0006E742066696C653A20004E6F7420534462
:100AB000207072696E74696E670A00534420707208
:100AC000696E74696E6720627974652000256973A8
:100AD0000025696D20256973002569682025696DE9
:100AE0002025697300256964202569682025696DC2
:100AF00020256973002569792025696420256968A6
:100B00002025696D20256973005072696E74207408
:100B1000696D653A20006F6B006F66660030032BCD
:100B20000324031D030F0344454255473A004D314A
:100B300031322053687574646F776E004D313133F4
:100B40002053004765656574656368204131304D09
:100B5000204F46462E002F2F004D31343520533C78
:100B6000696E6465783E206F7574206F66207261CF
:100B70006E67652028302D31290A00203B204375FF
:100B80007272656E74205A00203B20456E6400200E
:100B90003B205374617274002028540047726164D2
:100BA00069656E74204D697820003F4A206F757426
:100BB000206F662072616E67652028302E303120EC
:100BC000746F20302E33290A0020580020204D61F8
:100BD000783A2000200020204D696E3A2000203B0A
:100BE000200020204D323131205300536F66742095
:100BF000656E6473746F707300250A0046523A0084
:100C000020466C6F773A200064697300656E00437C
:100C1000290A0061626C656420286D696E20746524
:100C20006D702000436F6C64206578747275646524
:100C3000732061726520004F4646004F4E004669A2
:100C40006C616D656E742072756E6F757420004DE9
:100C500034323120696E636F727265637420706123
:100C600072616D657465722075736167650A004D08
:100C700065736820706F696E74206F7574206F667D
:100C80002072616E67650A00454550524F4D204FF6
:100C90004B0A004D383400446F6E65207072696EE7
:100CA00074696E672066696C650A004D3737004DC0
:100CB000333100496E76616C6964206578747275B1
:100CC0006465720A004361703A00434F4E464947DB
:100CD0005F4558504F5254004D4541545041434B8D
:100CE00000434F4F4C45525F54454D50455241547F
:100CF000555245004348414D4245525F54454D5081
:100D00004552415455524500424142595354455071
:100D100050494E470041524353004D4F54494F4EA6
:100D20005F4D4F44455300544845524D414C5F5030
:100D3000524F54454354494F4E00455854454E4434
:100D400045445F4D323000435553544F4D5F464943
:100D5000524D574152455F55504C4F4144004C460F
:100D60004E5F5752495445004C4F4E475F46494CE1
:100D7000454E414D45004155544F5245504F5254F8
:100D80005F53445F5354415455530053445F57528B
:100D900049544500524550454154004D554C544925
:100DA0005F564F4C554D450053444341524400500B
:100DB000524F4D50545F535550504F525400484F6E
:100DC00053545F414354494F4E5F434F4D4D414E45
:100DD000445300454D455247454E43595F5041529B
:100DE00053455200434153455F4C494748545F4285
:100DF00052494748544E45535300544F47474C457A
:100E00005F4C494748545300534F4654574152454D
:100E10005F504F574552004255494C445F50455230
:100E200043454E54004C4556454C494E475F44415E
:100E30005441005A5F50524F42450052554E4F5553
:100E400054004155544F4C4556454C005052494E64
:100E5000545F4A4F420050524F475245535300414E
:100E600055544F5245504F52545F54454D500041D8
:100E700055544F5245504F52545F504F5300564FA8
:100E80004C554D455452494300454550524F4D0035
:100E900042494E4152595F46494C455F5452414E7A
:100EA000534645520053455249414C5F584F4E5F9F
:100EB000584F4646004649524D574152455F4E41B4
:100EC0004D453A4D61726C696E20322E312E322EB4
:100ED0003820284A756E20323820323032362030A1
:100EE000383A34393A30382920534F555243455F08
:100EF000434F44455F55524C3A6769746875622E9A
:100F0000636F6D2F4D61726C696E4669726D7761AA
:100F100072652F4D61726C696E2050524F544F4371
:100F20004F4C5F56455253494F4E3A312E30204D6B
:100F3000414348494E455F545950453A47656565B8
:100F400074656368204131304D20455854525544F2
:100F500045525F434F554E543A3120555549443A16
:100F600063656465326132662D343161322D343708
:100F700034382D396231322D63353563363266337C
:100F80003637666600456E667269616E646F2E2E36
:100F90002E0045312025530020573A00456E6672D9
:100FA00069616E646F2043616D612E2E2E00436176
:100FB0006C656E74616E646F2043616D612E2E2EC0
:100FC0000023646566696E652044454641554C546E
:100FD0005F004245445F004B4420004B4920004BDA
:100FE0005020002066696E69736865642120507521
:100FF0007420746865206C617374204B702C204BD6
:101000006920616E64204B6420636F6E7374616E3F
:1010100074732066726F6D2062656C6F7720696EE5
:10102000746F20436F6E66696775726174696F6E65
:101030002E680A00504944204175746F74756E65BE
:1010400000206661696C6564212074696D656F7547
:10105000740A00504944204175746F74756E6500C0
:10106000206661696C6564212054656D70657261EC
:101070007475726520746F6F20686967680A005024
:101080004944204175746F74756E65005049442061
:101090004379636C65730025532025692F2569000A
:1010A000204B643A2000204B693A2000204B703AD4
:1010B000200020436C617373696320504944200A07
:1010C00000204E6F206F76657273686F6F740A0030
:1010D0002054753A2000204B753A2000206D61782D
:1010E0003A2000206D696E3A200020643A200020EA
:1010F000626961733A200043616C656E74616E646D
:101100006F2E2E2E002073746172740A00504944B1
:10111000204175746F74756E6500206661696C6539
:1011200064212054656D70657261747572652074F8
:101130006F6F20686967680A0050494420417574E0
:101140006F74756E6500504944204175746F2D6150
:101150006A75737465003F28432979636C65732051
:101160006E6F7420706C61757369626C6520283EC7
:101170003D33292E0A00206661696C656421204296
:101180006164206865617465722069640A00504971
:1011900044204175746F74756E6500A1000000698C
:1011A00000A20000006300B00000000900C10000C0
:1011B000004100C20000004100C30000004100C423
:1011C0000000004100C50000004100C600000041D1
:1011D00045C70000004300C80000004500C90000EA
:1011E000004500CD0000004900D10000004E00D5B0
:1011F0000000004F00D60000004F00D7000000782C
:1012000000DC0000005500DD0000005900E0000097
:10121000006100E10000006100E20000006100E305
:101220000000006100E40000006100E500000061D2
:1012300000E60000006165E70000006300E80000D0
:10124000006500E90000006500EA0000006500EBB1
:101250000000006500EC0000006900ED000000697E
:1012600000EE0000006900EF0000006900F10000DE
:10127000006E00F20000006F00F30000006F00F449
:101280000000006F00F50000006F00F60000006F26
:1012900000F80000006F00F90000007500FA00007F
:1012A000007500FB0000007500FC0000007500FDEB
:1012B0000000007900FF00000079000401000041F7
:1012C0000005010000610006010000430007010065
:1012D0000063000C01000043000D01000063000EDC
:1012E00001000044000F01000064001101000064CF
:1012F000001901000065001A01000045001B0100F3
:101300000065001F01000067003001000049003146
:101310000100006900410100004C00420100006C26
:1013200000430100004E00440100006E004801002F
:10133000006E005801000052005901000072005A6E
:1013400001000053005B01000073005F01000073A7
:10135000006001000053006101000073006501009E
:101360000074006F01000075007C0100007A007DB0
:101370000100005A007E0100007A00920100006620
:1013800000E30200007800222000002E001E210051
:1013900000507822210000544D902100003C2D92F5
:1013A0002100002D3EB02100000300BB21000004FD
:1013B000003C2200007E00482200007E3D602200AA
:1013C00000213D612200003D00642200003C3D659B
:1013D0002200003E3DF12300000700A03000003D48
:1013E0000021F301000200C2F401000500A2000088
:1013F00000EC00B0000000DF00E4000000E100F6B7
:10140000000000EF00F7000000FD00FC000000F508
:1014100000E3020000EB0087030000A5008F03003B
:1014200000F40098030000F2009E030000E300A314
:10143000030000F600A9030000F400AC030000E084
:1014400000AD030000E300B1030000E000B20300C0
:1014500000E200B5030000E300B8030000F200BCA6
:10146000030000E400BE030000E300C0030000F737
:1014700000C1030000E600C3030000E50090210066
:10148000007F00922100007E001A220000E8001E6A
:10149000220000F30088250000FF0002300000A1B8
:1014A000000C300000A2000D300000A3009B3000B3
:1014B00000DE009C300000DF00A03000003D00A1F5
:1014C000300000A700A2300000B100A3300000A847
:1014D00000A4300000B200A5300000A900A6300032
:1014E00000B300A7300000AA00A8300000B400A993
:1014F000300000AB00AA300000B500AB300000B6F1
:1015000000AC300000B6DEAD300000B700AE3000F9
:1015100000B7DEAF300000B800B0300000B8DEB178
:10152000300000B900B2300000B9DEB3300000BABC
:1015300000B4300000BADEB5300000BB00B63000A9
:1015400000BBDEB7300000BC00B8300000BCDEB924
:10155000300000BD00BA300000BDDEBB300000BE70
:1015600000BC300000BEDEBD300000BF00BE300059
:1015700000BFDEBF300000C000C0300000C0DEC1D0
:10158000300000C100C2300000C1DEC3300000AF37
:1015900000C4300000C200C5300000C2DEC630000A
:1015A00000C300C7300000C3DEC8300000C400C95B
:1015B000300000C4DECA300000C500CB300000C6D9
:1015C00000CC300000C700CD300000C800CE300095
:1015D00000C900CF300000CA00D0300000CADED100
:1015E000300000CADFD2300000CB00D3300000CB87
:1015F000DED4300000CBDFD5300000CC00D6300088
:1016000000CCDED7300000CCDFD8300000CD00D9D0
:10161000300000CDDEDA300000CDDFDB300000CE60
:1016200000DC300000CEDEDD300000CEDFDE30003A
:1016300000CF00DF300000D000E0300000D100E13A
:10164000300000D200E2300000D300E3300000ACF4
:1016500000E4300000D400E5300000AD00E63000CA
:1016600000D500E7300000AE00E8300000D600E909
:10167000300000D700EA300000D800EB300000D97D
:1016800000EC300000DA00ED300000DB00EF30004D
:1016900000DC00F2300000A600F3300000DD00F4B2
:1016A000300000B3DEF7300000DCDEFA300000A6C8
:1016B000DEFB300000A500FC300000B000FD300073
:1016C00000A400074E0000FB0086510000FC004310
:1016D000530000FA0064FF0000A40065FF0000A5AD
:1016E0000066FF0000A60067FF0000A70068FF007B
:1016F00000A80069FF0000A9006AFF0000AA006BB3
:10170000FF0000AB006CFF0000AC006DFF0000ADFF
:10171000006EFF0000AE006FFF0000AF0070FF0022
:1017200000B00071FF0000B10072FF0000B2007352
:10173000FF0000B30074FF0000B40075FF0000B5A7
:101740000076FF0000B60077FF0000B70078FF00CA
:1017500000B80079FF0000B9007AFF0000BA007BF2
:10176000FF0000BB007CFF0000BC007DFF0000BD4F
:10177000007EFF0000BE007FFF0000BF0080FF0072
:1017800000C00081FF0000C10082FF0000C2008392
:10179000FF0000C30084FF0000C40085FF0000C5F7
:1017A0000086FF0000C60087FF0000C70088FF001A
:1017B00000C80089FF0000C9008AFF0000CA008B32
:1017C000FF0000CB008CFF0000CC008DFF0000CD9F
:1017D000008EFF0000CE008FFF0000CF0090FF00C2
:1017E00000D00091FF0000D10092FF0000D20093D2
:1017F000FF0000D30094FF0000D40095FF0000D547
:101800000096FF0000D60097FF0000D70098FF0069
:1018100000D80099FF0000D9009AFF0000DA009B71
:10182000FF0000DB009CFF0000DC009DFF0000DDEE
:10183000009EFF0000DE009FFF0000DF00E5FF00CC
:10184000005C00001C1F11111F0000000619180386
:10185000130C00040E1F041C0000000010101010D8
:10186000101000001414141414140000151515158C
:10187000151500000E1315110E00001C1018170589
:10188000060500040A0A0A0A11110E0C12120C00B5
:10189000000000001F1511151F00000000000001CE
:1018A0000204040000001C1C0C04040402010000DB
:1018B000000000040810000000000003002D2D2D82
:1018C0002D2D2D007C4D61726C696E7C0001002D08
:1018D0002D2D2D2D2D002500503A002568753A2517
:1018E000303268750025303268753A2530326875B7
:1018F00000253032687527253032687500200020B9
:1019000000200020003A003A0043616D61005265FA
:1019100063696E746F0045002000200020002000E5
:10192000250020202020202020004D780047720034
:1019300025532025643B256425252000496D7072C0
:10194000657369C3B36E2063616E63656C616461C6
:10195000004D32350050617573696E672E2E2E0072
:101960004D3234003F0049676E6F72650052656901
:101970006E696369617200496E696369616C697A55
:10198000617220454550524F4D004361726761209E
:101990006D6D004465736361726761206D6D004415
:1019A00069C3A16D6574726F2046696C2E00452075
:1019B000656E206D6DC2B3004D333033205531203C
:1019C0004525692053256900504944204175746FAD
:1019D0002D616A75737465202A00200220466163B8
:1019E000746F72002002204D6178002002204D6942
:1019F0006E0041706700456E630054656D702E2067
:101A00004175746F6D2E0056656C2E207669616A83
:101A100065206D696E00566D696E004D61782040DD
:101A2000205370656564004163656C2E206D61789C
:101A300045004163656C2E206D617840004163650F
:101A40006C2E205669616A65004163656C2E2072B8
:101A500065747261632E004163656C6572616369D0
:101A6000C3B36E0040207061736F732F6D6D0041C2
:101A70006A7573746573206176616E7A61646F73E1
:101A8000003F0043616E63656C617200496E69637B
:101A900069617200496E696369616C697A6172207B
:101AA000454550524F4D0046696C616D656E746FCF
:101AB0000054656D70657261747572610050617378
:101AC0006F732F6D6D0044657376692E20556E69B6
:101AD000C3B36E00416363656C6572616369C3B3D0
:101AE0006E004D61782056656C6F636964616400B7
:101AF000436F6E6669677572616369C3B36E00C2D6
:101B0000A14E6976656C616369C3B36E206C6973BD
:101B1000746121004D6F766572205A004732395644
:101B200031005369677569656E74652070756E74F0
:101B30006F002569202F2025750047323956310066
:101B400050756C736172207061726120636F6D6596
:101B50006E7A61720047756172646172204545500A
:101B6000524F4D0043617267617220454550524F9C
:101B70004D005265636F727269646F2043616D61DD
:101B800000436F6D70656E2E20416C74757261003C
:101B900041706700456E63004E6976656C616E64E6
:101BA0006F2043616D61004E6976656C6172204300
:101BB000616D61004D6F76696D69656E746F003F90
:101BC0000053696775656E74652045737175696E3C
:101BD00061004C6973746F0053696775696E746551
:101BE000004F726967656E2058595A0043616D61F4
:101BF00000426F7175696C6C610056656E74696C3A
:101C000061646F7200436F6E6669677572616369C4
:101C1000C3B36E00526573742E2066C3A1627269ED
:101C200063610043617267617220454550524F4DB8
:101C3000004775617264617220454550524F4D00F6
:101C400050726563616C2E202420416A757374653F
:101C5000005265632E2046616C6C6F20656C656375
:101C6000747269636F0041706700456E630053656D
:101C70006E732E2066696C616D656E746F00416ACB
:101C80007573746573206176616E7A61646F730039
:101C90004D656EC3BA207072696E636970616C00C5
:101CA0004D37303220542564004D363030204230DC
:101CB00020542564004D373032203B2564004D37D9
:101CC0003031205425640043616D62696172206681
:101CD000696C616D656E746F0050726563616C2E26
:101CE000206D616E75616C0050726563616C2E20B1
:101CF0002400417472C3A1730044455343415247C9
:101D000041522046494C414D454E544F00434152AB
:101D10004741522046494C414D454E544F004341A6
:101D20004D424941522046494C414D454E544F0089
:101D300041425300504C41004572723A2045455093
:101D4000524F4D20436F7272757074004572723A33
:101D500020454550524F4D20435243004572723A40
:101D600020454550524F4D2054616D61C3B16F0005
:101D70004572723A205665727369C3B36E20454549
:101D800050524F4D0043616D626961722066696C0B
:101D9000616D656E746F202A004D656EC3BA207048
:101DA00072696E636970616C00436F6E74696E7501
:101DB000617220696D702E0041706700456E63008E
:101DC00053656E732E2066696C616D656E746F006D
:101DD000507572676172206DC3A173004F50432E1E
:101DE000205245494E4943494F3A00494D505245CA
:101DF0005349C3934E205041555341444100200064
:101E00002000202020002F00657272002020426FE9
:101E10007175696C6C613A20004170617263616E2A
:101E2000646F2E2E2E0000004573706572616E6423
:101E30006F207061726100696E696369617220650B
:101E40006C2063616D62696F0064652066696C6116
:101E50006D656E746F004573706572652070617298
:101E600061006C69626572617220656C2066696CE4
:101E7000616D656E746F000043616C656E74616EB8
:101E8000646F20626F7175696C6C61004573706579
:101E9000726520706F72206661766F722E2E2E0032
:101EA0000050756C736520656C20626F74C3B36EEF
:101EB00020706172610063616C656E746172206C88
:101EC0006120626F7175696C6C610000496E7365A9
:101ED00072746520656C2066696C616D656E746FE7
:101EE00000792070756C736520656C20626F74C317
:101EF000B36E007061726120636F6E74696E75619C
:101F0000722E2E2E004573706572652070617261AD
:101F10000063617267617220656C2066696C616D37
:101F2000656E746F000050756C73617220656C2073
:101F3000626F74C3B36E2070617261007265616E0E
:101F40007564617220696D7072657369C3B36E00E8
:101F5000004573706572616E646F20696D707265A3
:101F6000736F72610070617261207265616E756479
:101F700061722E2E2E0000457370657265207061AF
:101F800072610070757267617220656C2066696CA1
:101F9000616D656E746F00004D3630302042302028
:101FA000542569003135300035004245443A20451A
:101FB00050434F53203130304B005669672E204636
:101FC0007567612054C3A9726D2E3A204F4E00549C
:101FD000656D702E204DC3A178696D610032373573
:101FE0000054656D702E204DC3AD6E696D61003576
:101FF0000045313A204550434F53203130304B009B
:10200000462E20416C696D656E742E0047656E65C5
:102010007269630050726F746F636F6C6F00312E62
:10202000300042617564696F730032353030303092
:102030000047543235363020332E78004E697665AD
:102040006C616E646F2042696C696E65616C0045FD
:1020500078747275736F7265730031006D61726CA4
:10206000696E66772E6F7267004765656574656394
:1020700068204131304D00323032362D30362D322D
:102080003400322E312E322E38004D61726C696E62
:10209000005465726D6973746F72657300496E6682
:1020A0006F2E20436F6E74726F6C61646F720049A3
:1020B0006E666F2E20496D707265736F7261004D90
:1020C000656EC3BA207072696E636970616C004D91
:1020D0003130303000446574656E657220696D7012
:1020E00072657369C3B36E005265616E7564617227
:1020F00020696D7072657369C3B36E005265632E9B
:102100002046616C6C6F20656C6563747269636FE7
:10211000003F00417472C3A173005061726172008C
:1021200043616D626961722066696C616D656E7490
:102130006F0053442F4644206E6F207072657365A4
:102140006E746500496D7072696D2E2064657364EC
:10215000652053442F46440043616D6269617220DB
:1021600053442F4644004D323100496E666F2E2095
:10217000496D707265736F726100436F6E66696757
:102180007572616369C3B36E004D69657A636C6192
:10219000646F720054656D70657261747572610070
:1021A0004D6F76696D69656E746F005265616E750D
:1021B00064617220696D7072657369C3B36E0041AA
:1021C0006A757374617200446574656E6572206926
:1021D0006D7072657369C3B36E005061757361721F
:1021E00020696D7072657369C3B36E0050616E745F
:1021F000616C6C6120646520496E662E003F004969
:102200006E696369617220696D7072657369C3B3C9
:102210006E0043616E63656C617200496D70726936
:102220006D69720043616E6E6F7420656E746572C5
:10223000207375626469723A200005202E2E004DCD
:10224000656EC3BA207072696E636970616C002537
:1022500034642E2564206D6D002534642E256420A1
:102260006D6D0020202046696E205A3A00253464A6
:102270002E2564206D6D00496E6963696F205A3A9E
:1022800000416C69617320486572722E56002020EF
:102290002046696E20486572722E5600496E696349
:1022A000696F20486572722E56004D69657A636CBD
:1022B00061646F720025336425252025336425254C
:1022C0002000486572722E56207265696E696369D6
:1022D00061646F73003F0043616E63656C617200FF
:1022E0005265696E69636961720044656772616411
:1022F00061646F20696E766572736F005425692D75
:102300003E5425690044656772616461646F0052E0
:1023100065696E696369617220486572722E560044
:102320004D657A636C6120436F6E6D757461646195
:10233000002533643B2533642525004D657A636CA5
:1023400061004163746976617220486572722E562D
:10235000004D656EC3BA207072696E636970616CFE
:10236000002100486F74656E64206D757920667277
:10237000696F00417472C3A1730050726F6365642A
:102380006572004578747275736F72004D6F76696F
:102390006D69656E746F00417061676172206D6F69
:1023A000746F726573004D3834004E6976656C61E8
:1023B0006E646F2043616D61004C6C6576617220C4
:1023C000616C206F726967656E00473238004D6539
:1023D0006EC3BA207072696E636970616C0050726E
:1023E0006563616C2E20242043616D61005072652D
:1023F00063616C2E2024204675736F720054656DE6
:10240000706572617475726100341D301D456E66B1
:10241000726961720050726563616C2E20240056EF
:10242000656E74696C61646F72207E0043616D61DA
:1024300000426F7175696C6C61004D656EC3BA20A6
:102440007072696E636970616C004D6963726F7060
:1024500061736F205A004D6963726F7061736F20F2
:102460004000466C756A6F0056656E74696C6164F5
:102470006F72207E0043616D6100426F7175696CFF
:102480006C610056656C6F6369646164004D656ED4
:10249000C3BA207072696E636970616C0049722002
:1024A00061206F726967656E2046616C6C61646F54
:1024B00000000020002300260029002C002F0032FD
:1024C00000000100000301060109016F70656E0044
:1024D000545249474745524544003A200066696CCA
:1024E000616D656E74007A5F6D696E00795F6D690C
:1024F0006E00785F6D696E005265706F7274696E00
:102500006720656E6473746F702073746174757383
:102510000A0020746F6F206C6F6E6720657874728C
:102520007573696F6E2070726576656E7465640A86
:102530000020636F6C6420657874727573696F6EC8
:102540002070726576656E7465640A00000020C1B3
:102550000000A0C0000000005761726E696E673A0B
:1025600020486F6D696E672042756D7020446976F2
:1025700069736F72203C20310A000202040000706F
:102580004300006B43000082430000A0400000A015
:1025900040000000400000664300006643000082E7
:1025A00043000020C10000A0C0000000005365747B
:1025B00074696E67732053746F72656400290A0032
:1025C0002062797465733B206372632000536574E5
:1025D00074696E67732053746F72656420280048B5
:1025E000617264636F6465642044656661756C74D0
:1025F0002053657474696E6773204C6F6164656401
:102600000020286D6D2900203B204C6576656C69A3
:102610006E67200020204D34323020530041757405
:102620006F20426564204C6576656C696E6700209A
:10263000460020420020480020204D3134352053F0
:10264000004D6174657269616C20686561747570B4
:1026500020706172616D657465727300203B205358
:10266000656E736F72200020204D3431322053008C
:1026700046696C616D656E742072756E6F7574203D
:1026800073656E736F7200204A0020204732392034
:102690005720490020204D3134392043203B20551C
:1026A0006E69747320696E2043656C736975730A73
:1026B0000054656D706572617475726520556E6940
:1026C0007473002020473231203B004C696E6561F5
:1026D0007220556E69747300454550524F4D206409
:1026E00061746173697A65206572726F722E0A0077
:1026F000202863616C63756C6174656429210A002C
:1027000020213D2000454550524F4D20435243204B
:102710006D69736D61746368202D202873746F7206
:102720006564292000454550524F4D20436F727219
:102730007570740A002053697A653A2000496E6406
:1027400065783A2000290A002062797465733B207D
:1027500063726320002073746F7265642073657404
:1027600074696E677320726574726965766564203A
:1027700028000000FA430000FA430000A0400000D7
:10278000C8410000A0420000A0420000C843000071
:10279000D743F4010000F401000064000000881336
:1027A0000000204D61726C696E3D563838290A0070
:1027B000454550524F4D2076657273696F6E206D9E
:1027C00069736D617463682028454550524F4D3DD3
:1027D0000020436F756E7420583A0043616D6100AC
:1027E0004531004500626564002C2073797374657F
:1027F0006D2073746F707065642120486561746525
:10280000725F49443A20004572723A54454D502E49
:10281000204DC38158004D415854454D502074728D
:10282000696767657265640043616C656E742E202C
:1028300066616C6C69646F0048656174696E6720DD
:102840006661696C6564004572723A54454D502E5C
:10285000204D494E004D494E54454D5020747269EB
:1028600067676572656400465547412054C38952C5
:102870004D49434100546865726D616C2052756E1C
:102880006177617900202F002042403A0020403AD1
:10289000007C3C3E5E2B3D3F2F5B5D3B2C2A225C47
:1028A0000046616C6C6F20616C20696E69636961C0
:1028B000722053442F4644005344206361726420C5
:1028C0006F6B0A006F70656E526F6F74206661697E
:1028D0006C65640A00766F6C756D652E696E69743F
:1028E000206661696C65640A004E6F205344206362
:1028F0006172640A00534420636172642072656CE3
:1029000065617365640A000A4D3234004D3233202C
:102910002573002E0A006F70656E206661696C6514
:10292000642C2046696C653A200046696C6520730A
:10293000656C65637465640A002053697A653A20A2
:102940000046696C65206F70656E65643A200045CD
:102950004E4420535542524F5554494E450A002289
:1029600020706F73002220706172656E743A2200CD
:10297000535542524F5554494E452043414C4C20EB
:102980007461726765743A2200446573626F7264A1
:10299000616D69656E746F206465207375626C6C1F
:1029A000616D616461004578636565646564206D8F
:1029B000617820535542524F5554494E4520646525
:1029C0007074683A002E0A0044656C6574696F6E15
:1029D000206661696C65642C2046696C653A20004C
:1029E00046696C652064656C657465643A0057726D
:1029F0006974696E6720746F2066696C653A20009F
:102A0000667265736800646F696E67002066696C42
:102A1000653A20004E6F7720002F6175746F256333
:102A20002E6700026D61726C696E66772E6F726739
:102A3000006D61726C696E66772E6F726700322E60
:102A4000312E322E3800322E312E322E3800006DCB
:102A500061726C696E66772E6F7267006D61726C61
:102A6000696E66772E6F72670020322E312E322EFD
:102A700038002001400130013B0140013601600176
:102A8000310170012C0190012701B0012201C00128
:102A90001D01F00118011002130130020E01600245
:102AA000090190020401C002FF000003FA00400384
:102AB000F5008003F000D003EB002004E600700472
:102AC000E100E004DC004005D700C005D20040066C
:102AD000CD00D006C8008007C3003008BE00F00853
:102AE000B900C009B400B00AAF00B00BAA00D00C06
:102AF000A500000EA000500F9B00C01096005012C1
:102B0000910000148C00C0158700B0178200B01926
:102B10007D00D01B7800001E730040206E009022C4
:102B20006900F024640040275F0090295A00E02BE0
:102B30005500102E500020304B0010324600E0337C
:102B4000410090353C001037370070383200A03912
:102B50002D00B03A2800A03B2300603C1E00103D31
:102B60001900903D1400103E0F00703E0A00C03E58
:102B70000500003F0000403FFBFF803FF6FFC03FE5
:102B8000F1FF2020506C616E6E657242756666655D
:102B90007242797465733A20002046726565204D53
:102BA000656D6F72793A200020436F6D70696C65B6
:102BB000643A204A756E20323820323032360A00AC
:102BC000204C61737420557064617465643A2032DE
:102BD0003032362D30362D3234207C2041757468E9
:102BE0006F723A20283344776F726B2C20687474AC
:102BF00070733A0A004D61726C696E20322E312E6C
:102C0000322E380A0020536F667477617265205245
:102C1000657365740A00205761746368646F672088
:102C200052657365740A002042726F776E206F756B
:102C3000742052657365740A002045787465726E5D
:102C4000616C2052657365740A00506F7765725528
:102C5000700A0073746172740A00473237004D3194
:102C6000303031006F6B006572726F72207772695D
:102C700074696E6720746F2066696C650A00446F22
:102C80006E6520736176696E672066696C652E0AD1
:102C9000004D323900456E6473746F7073002553B4
:102CA00020256320256320256320256300656E644D
:102CB00073746F7073206869743A200000000A0B07
:102CC00002090C0D0E0807030401000000000000BB
:102CD00000000000000000000000000000000000F4
:102CE00000000000000000001211100000000000B1
:102CF00000000000000000000000000000000000D4
:102D0000000024F404D9201BC40C5C0E9804C409F0
:102D10005F0265077101F405F900FB04B300480484
:102D20008700C10369005803550003034500BE0234
:102D30003A008402310053022A00290225000402CD
:102D40002000E4011C00C8011900AF011700980120
:102D50001400840113007101100061011000510181
:102D60000E0043010D0036010B002B010B0020016A
:102D70000B00150109000C01090003010800FB000C
:102D80000800F3000800EB000700E4000600DE0086
:102D90000600D8000600D2000600CC000500C700DF
:102DA0000500C2000500BD000400B9000400B50024
:102DB0000400B1000400AD000400A9000400A50057
:102DC0000300A20003009F0004009B000300980082
:102DD00003009500020093000300900003008D00A3
:102DE00002008B00030088000200860002008400BD
:102DF0000300810002007F0002007D0002007B00D2
:102E000002007900020077000100760002007400E1
:102E1000020072000100710002006F0002006D00EC
:102E200001006C0002006A000100690002006700F6
:102E300001006600010065000100640002006200FC
:102E4000010061000100600001005F0002005D0000
:102E500001005C0001005B0001005A000100590004
:102E60000100580001005700010056000100550004
:102E70000100540001005300000053000100520003
:102E8000010051000100500001004F0001004E0000
:102E900000004E0001004D0001004C0001004B00FD
:102EA00000004B0001004A000100490001004800F9
:102EB00000004800010047000100460000004600F5
:102EC00001004500000045000100440001004300EE
:102ED00000004300010042000000420001004100E8
:102EE000000041000100400001003F0000003F00E1
:102EF00001003E0000003E0001003D0000003D00DA
:102F000001003C0000003C0000003C0001003B00D0
:102F100000003B0001003A0000003A0001003900C7
:102F200000003900010038000000380000003800BF
:102F300001003700000037000100360000003600B5
:102F400000003600010035000000350000003500AB
:102F500001003400000034000000340001003300A0
:102F60000000330000003300010032000000320096
:102F7000000032000100310000003100000031008B
:102F800001003000000030000000300001002F0080
:102F900000002F0000002F0000002F0001002E0075
:102FA00000002E0000002E0001002D0000002D006A
:102FB00000002D0000002D0001002C0000002C005E
:102FC00000002C0000002C0001002B0000002B0052
:102FD00000002B0000002B0001002A0000002A0046
:102FE00000002A0000002A0001002900000029003A
:102FF000000029000000290000002900010028002D
:103000000000280000002800000028000000280020
:103010000100270000002700000027000000270013
:103020000000270001002600000026000000260006
:1030300000002600000026000100250000002500F9
:1030400000002500000025000000250000002500EC
:1030500001002400000024000000240000002400DF
:1030600000002400010023000000230000002300D2
:1030700000002300000023000000230000002300C4
:1030800001002200000022000000220000002200B7
:1030900000002200000022000100210000002100A9
:1030A000000021000000210000002100000021009C
:1030B000000021000100200000002000000020008E
:1030C0000000200000002000000020000000200080
:1030D0000000200001001F0000001F0000001F0072
:1030E00000001F0000001F0000001F0000001F0064
:1030F00001001E0000001E0000001E0000001E0057
:10310000000024F4D43050C38E20C2A24017828B1A
:103110007011127A910D816CD90AA861E108C75823
:103120006607615143061E4B5D05C145A7041A4160
:103130001104093D9803713931034036DB026533D0
:103140009102D4305402802E1D02632CEE01752AA8
:10315000C501B028A001102781018F2564012B240F
:103160004B01E0223401AC211F018D200D01801F95
:10317000FC00841EED00971DDF00B81CD200E61B8A
:10318000C600201BBC00641AB200B219A8000A19BC
:10319000A0006A189900D117910040178B00B5164E
:1031A000840031167E00B31579003A157300C714F8
:1031B0006F0058146A00EE1366008813630025132D
:1031C0005E00C7125B006C12570015125400C1114B
:1031D000510070114F0021114B00D61049008D1085
:1031E00047004610440002104200C00F4000800F0C
:1031F0003E00420F3C00060F3B00CB0E3800930E02
:1032000037005C0E3500270E3400F30D3200C10D7F
:103210003100900D3000600D2E00320D2D00050D97
:103220002C00D90C2B00AE0C2900850C29005C0C5D
:103230002700350C27000E0C2600E80B2400C40BD9
:103240002400A00B23007D0B23005A0B2100390B17
:103250002100180B2000F80A1F00D90A1E00BB0A23
:103260001E009D0A1D00800A1D00630A1C00470AFB
:103270001B002C0A1B00110A1A00F7091A00DD09AD
:103280001900C4091900AB091900920917007B093C
:103290001800630917004C091600360916002009AA
:1032A00016000A091500F5081500E0081400CC08FE
:1032B0001400B8081400A4081400900813007D0836
:1032C00012006B0813005808120046081200340858
:1032D0001100230811001208110001081100F00765
:1032E0001000E0071000D0071000C0071000B00762
:1032F0000F00A107100091070E0083070F0074074D
:103300000F0065070E0057070E0049070E003B0728
:103310000D002E070E0020070D0013070D000607F5
:103320000D00F9060C00ED060D00E0060C00D406B9
:103330000C00C8060C00BC060C00B0060C00A4066D
:103340000B0099060C008D060B0082060B00770619
:103350000B006C060B0061060A0057060B004C06BA
:103360000A0042060A0038060A002E060A00240651
:103370000A001A060A001006090007060A00FD05E1
:103380000900F4050900EB050900E2050900D9056B
:103390000900D0050900C7050900BE050900B505EB
:1033A0000800AD050800A50509009C050800940566
:1033B00008008C050800840508007C0508007405D9
:1033C00008006C050700650508005D050700560547
:1033D00008004E05070047050700400508003805AE
:1033E0000700310507002A050700230507001C0513
:1033F0000600160507000F05070008050600020570
:103400000700FB040600F5040700EE040600E804CC
:103410000600E2040700DB040600D5040600CF0422
:103420000600C9040600C3040600BD040600B70474
:103430000600B1040500AC040600A6040600A004C2
:1034400005009B04060095040500900406008A040C
:10345000050085040500800406007A040500750453
:103460000500700405006B04050066040500610496
:1034700005005C04050057040500520405004D04D6
:10348000050048040500430405003E0404003A0416
:10349000050035040500300404002C040500270451
:1034A0000400230405001E0404001A04040016048A
:1034B0000500110404000D040400090405000404BF
:1034C000040000040400FC030400F8030400F403F7
:1034D0000400F0030400EC030400E8030400E40328
:1034E0000400E0030400DC030400D8030400D40358
:1034F0000400D0030400CC030400C8030300C50388
:10350000030002290000891D0000F0120000080BD2
:10351000000002060000250300009C010000D0000E
:1035200000004D6F76657220246D6D00302E3032B4
:1035300035004D6F76657220302E316D6D004D6F08
:1035400076657220316D6D004D6F76657220313079
:103550006D6D004D6F76657220656A657300457804
:10356000747275736F72202A004D6F7665722040F9
:1035700000496D7072696D2E206465736465205317
:10358000442F4644002000200020002000FFFFFFC1
:1035900043616E6E6F74206F70656E207375626428
:1035A0006972200020573A00220A00556E6B6E6F38
:1035B000776E20636F6D6D616E643A202200204546
:1035C00000205A0020590020204D39322058005345
:1035D000746570732070657220756E697400457231
:1035E000726F722077726974696E6720746F2045FC
:1035F0004550524F4D210A00DB0FC93F45BCDA3F11
:103600008FB30240FCF0274056946140FE4B9B4034
:1036100084A5D840E0231841346A5641E8599741BF
:1036200064DBD5416E271742B4B75542CE1A974294
:10363000C8AED542B5885A43D40684BFA65FA7BF9B
:103640007443E0BF10B11AC01C2C58C0E8F697C0F4
:10365000B849D6C04E4E17C124D355C1802497C156
:10366000A0B5D5C1121A17C244AE55C2781797C279
:103670006CACD5C267885AC320746F6F206C6F6EB4
:103680006720657874727573696F6E2070726576E5
:10369000656E7465640A0020636F6C6420657874DD
:1036A000727573696F6E2070726576656E7465648D
:1036B0000A004F726967656E202573205072696D2C
:1036C0002E00486F6D652025732046697273740063
:1036D00020453A00205A3A0020593A00583A006FE3
:1036E0006B0A00526573656E643A20000000220088
:1036F000250028002B002E003100340002010000BC
:10370000050108010B0100002100240027002A0008
:103710002D003000330001010000040107010A01FF
:1037200005050505070508080808020202020A0A3D
:10373000080804040404010101010101010103035B
:10374000030303030303040707070C0C0C0C0C0C06
:103750000C0C0202020206060606060606060B0B03
:103760000B0B0B0B0B0B0102102020080810204044
:103770001020408002010201080402010102040835
:1037800010204080804020100804020180040201C3
:10379000804020100804020108040201010204080C
:1037A00010204080010204081020408047656565B4
:1037B00074656368204131304D204C697374610039
:1037C000496D7072696D69656E646F2E2E2E0049A9
:1037D0006D7072657369C3B36E20506175736164F7
:1037E0006100E500DB0011241FBECFEFD1E2DEBF98
:1037F000CDBF00E00CBF84B78093BF1714BE0FB6D7
:10380000F894A89580916000886180936000109280
:1038100060000FBE13E0A0E0B2E0E8E9FDE502E0E1
:103820000BBF02C007900D92AC3EB107D9F727E15C
:10383000ACEEB3E001C01D92AF3BB207E1F71BE174
:10384000C2EFDBE100E006C021970109802FFE01F5
:103850000F94282AC13FD10780E00807A9F70F94E9
:103860003B180D94BB2E0C940000CF93DF93EC011A
:10387000642F70E090E080E00F94732329EC38EC23
:1038800048EC5EE30F942B2B20E030E040E05FE358
:103890000F944F2A0F94982B6883DF91CF9108954E
:1038A000E091440986E0E802F0011124E85DF64F5A
:1038B0008091480990E0958384830895CF93DF93A6
:1038C000EC01CB01BA010F947323688379838A8357
:1038D0009B83DF91CF910895CF93DF93EC01CB01D0
:1038E000BA010F947323688379838A839B83DF9162
:1038F000CF910895CF92DF92EF92FF920F931F9393
:10390000CF93DF936B017C0120E030E0A9010F949D
:103910006D2387FD43C06DEB77E386E095E3A70158
:1039200096010F944F2A6B017C0120E030E0A90141
:103930000F946D2320E030E040E05FE387FF04C098
:1039400020E030E040E05FEBC701B6010F944F2A62
:103950000F94932B8B01FB0177FF25C011950195E7
:103960001109ED398FEFF8070CF063C08DE28093F9
:103970000006C80164E670E00F94152ACB012AE026
:1039800030E0B9010F94152A805D80930106C801CB
:10399000B9010F94152ACB01B90129C06DEB77E36A
:1039A00086E095EBBCCF083E83E01807ECF1C80138
:1039B00068EE73E00F94152ACB01CAE0D0E0BE0197
:1039C0000F94152A805D80930006C80164E670E0BC
:1039D0000F94152ACB01BE010F94152A805D8093A8
:1039E0000106C801BE010F94152ACB01BE010F9438
:1039F000152A805D80930206C8016AE070E00F948A
:103A0000152A805D8093030680E096E0DF91CF91D8
:103A10001F910F91FF90EF90DF90CF9008958DE26E
:103A2000F7FDE8CF80E2E6CF80E2043611050CF026
:103A30009ECF80E280930006809301060A30110534
:103A400074F38DE2F7FF80E280930106C8016AE01B
:103A500070E00F94152A605D60930206CDCFCF937E
:103A6000DF93EC01CB01BA010F94732320E030E027
:103A700048EC52E40F942B2B2FE632E143E85AE353
:103A80000F944F2A688379838A839B83DF91CF9138
:103A90000895CF93DF93EC01CB01BA010F94732308
:103AA00020E030E048EC52E40F942B2B2FE632E17B
:103AB00043E85AE30F944F2A688379838A839B8370
:103AC000DF91CF910895CF93DF93EC01CB01BA0141
:103AD0000F9471232AE037ED43E25DE30F942B2B23
:103AE0000F94982B688379838A839B83DF91CF918E
:103AF0000895CF93DF93EC01CB01BA010F947323A8
:103B00002AE037ED43E25DE30F942B2B6883798342
:103B10008A839B83DF91CF910895CF93DF93EC014C
:103B2000CB01BA010F947323688379838A839B83C3
:103B3000DF91CF910895FC015183408308950F9444
:103B40007323D8CECF93DF93EC01CB01BA010F944E
:103B5000732320E030E04AE754E40F942B2B27E155
:103B600037EB41ED58E30F944F2A688379838A83BA
:103B70009B83DF91CF910895CF93DF93C091EC1495
:103B8000D091ED1481E0CE31D105E4F020E030E0B9
:103B900040E05FE36091E8147091E9148091EA14C9
:103BA0009091EB140F944F2A0F94932B6C1B7D0B69
:103BB00077FF03C071956195710981E063307105EC
:103BC0000CF080E0DF91CF910895CF93DF93DB017C
:103BD000F9019C919130C1F0943080F094509C9305
:103BE0008830D1F480819181009771F001979183A1
:103BF0008083480F591FEA01188206C08C3539F4BA
:103C00009C5F9C93943041F4DF91CF9108958B3366
:103C100039F781E08C93F8CF20813181B9016F5F52
:103C20007F4F71836083420F531FEA018883808135
:103C300091818F3591056CF7E7CF0F931F9381E04A
:103C4000009196151091971520919815309199151E
:103C5000409192155091931560919415709195151E
:103C6000041715072607370708F480E01F910F9106
:103C7000089590E080E0089520918E15833021F41E
:103C800025FD0CC024FD0CC030E0A90102C05595F3
:103C900047958A95E2F7CA018170089581E00895F9
:103CA00080E0089580910A0584FD0BC080910C0589
:103CB00087FD07C090910D05937081E019F480E0B5
:103CC000089581E008952FEB280F2A3108F047C0AE
:103CD000E22FF0E080910A0590910B05A0910C0570
:103CE000B0910D0504C0B695A795979587952A952F
:103CF000D2F780FD02C081700895E051FB4FE08152
:103D0000EE2341F180915A0990915B09E80FF92F58
:103D1000F11D808190ED980F9A3030F08E3251F481
:103D2000818180538A3098F4F093E404E093E304B3
:103D300081E008958D3211F08B3249F4818190ED4C
:103D4000980F9A3088F38E3211F48281EACFF0E036
:103D5000E0E0EACF1092E4041092E304E9CF80E0BF
:103D60000895B1DF882341F081E02091E304309190
:103D7000E404232B09F480E008951092F505EEEF9A
:103D8000F3E085E0808381830895809A8898089580
:103D90000C9441DBCF92DF92EF92FF920F9473234A
:103DA0006B017C0120E030E0A9010F946D232DEB25
:103DB00037E346E055E387FF04C02DEB37E346E0E9
:103DC00055EBC701B6010F944F2A6B017C0120E02F
:103DD00030E0A9010F946D2320E030E040E05FE384
:103DE00087FF04C020E030E040E05FEBC701B60190
:103DF0000F944F2A0F94932BCB01FF90EF90DF90FD
:103E0000CF900C9492BECB010C9492BE70E090E0E7
:103E100080E00F94732329EC38EC48EC5EE30F94B8
:103E20002B2B20E030E040E05FE30F944F2A0F940B
:103E3000982B862F0C941FBFFC0180819181A28159
:103E4000B3818093810290938202A0938302B09306
:103E5000840289ED92E00C94CCB3CF93DF9300D031
:103E60001F92CDB7DEB780E090E0A0E8B0E4898390
:103E70009A83AB83BC83CE010196DEDF80E090E0C5
:103E8000A0EFB1E48093790290937A02A0937B0231
:103E9000B0937C0280937D0290937E02A0937F0278
:103EA000B0938002E091F105EE0FFF0BEF51FD4F53
:103EB000808191818330910551F184309105E1F148
:103EC000029761F480E090E0A8E4B3E48093790283
:103ED00090937A02A0937B02B0937C0289EE92E0E9
:103EE0000E94CCB319821A821B821C82CE010196D9
:103EF000A3DF8091F1058F5F84301CF58093F1057D
:103F00000F900F900F900F90DF91CF91089580E068
:103F100090E0A8E4B3E48093790290937A02A093AE
:103F20007B02B0937C0280937D0290937E02A093EB
:103F30007F02B0938002D2CF80E090E0A8E4B3E4A7
:103F4000F2CF1092F105DCCFCF92DF92EF92FF9289
:103F5000CF93DF9300D01F92CDB7DEB76B017C010A
:103F600020E030E0A9010F946D2387FD1CC06DEBAC
:103F700077E386E095E3A70196010F944F2A6983C2
:103F80007A838B839C8360E2CE0101960E940EC0EF
:103F90000F900F900F900F90DF91CF91FF90EF90C7
:103FA000DF90CF9008956DEB77E386E095EBE3CF5C
:103FB0000F94732320E030E04AE754E40F942B2B56
:103FC00027E137EB41ED58E30F944F2ABDCF63E96A
:103FD00072E084E690E00E9486CC70E060E08AE0C7
:103FE00090E00E9486CC6AEB72E084E690E00C944C
:103FF00086CC0E9476BCEBCF8111E9CF68E270E0FD
:1040000080E991E00C9486CC0E9460A4F5CF0E94D8
:104010009BBDF2CFCF93DF9300D01F92CDB7DEB719
:104020000F94712369837A838B839C83CE010196DD
:104030000E94A1BF0F900F900F900F90DF91CF9132
:1040400008950F9471232AE037ED43E25DE30F9466
:104050002B2B0F94982BDECFCF92DF92EF92FF9213
:10406000CF93DF9300D01F92CDB7DEB76B017C01F9
:1040700020E030E0A9010F946D2387FD1BC06DEB9C
:1040800077E386E095E3A70196010F944F2A6983B1
:104090007A838B839C83CE0101960E94A1BF0F90EF
:1040A0000F900F900F90DF91CF91FF90EF90DF90E6
:1040B000CF9008956DEB77E386E095EBE4CF0F9416
:1040C00073232AE037ED43E25DE30F942B2BC4CF3B
:1040D0000F947323C1CF8F929F92AF92BF92CF92D2
:1040E000DF92EF92FF92CF936B017C0120E030E0F2
:1040F000A9010F946D2387FDC3C06DEB77E386E0C4
:1041000095E3A70196010F944F2A6B017C0120E0F3
:1041100030E0A9010F946D2387FF04C0F7FAF094F3
:10412000F7F8F09442E050E0C701B6010E9453BF97
:104130006B017C0160E280E4C81682E4D8068FE05F
:10414000E806F1048CF0C701B60120E432E44FE048
:1041500050E00F94B929CA01B9012AE030E040E0EB
:1041600050E00F94B929605D6093FC0560E280EA3D
:10417000C81686E8D80681E0E806F1048CF0C7018D
:10418000B60120EA36E841E050E00F94B929CA01AF
:10419000B9012AE030E040E050E00F94B929605DB9
:1041A0006093FD0560E280E1C81687E2D806E1046D
:1041B000F1048CF0C701B60120E137E240E050E0A5
:1041C0000F94B929CA01B9012AE030E040E050E07B
:1041D0000F94B929605D6093FE0560E288EEC81611
:1041E00083E0D806E104F1048CF0C701B60128EEA3
:1041F00033E040E050E00F94B929CA01B9012AE048
:1042000030E040E050E00F94B929605D6093FF0515
:10421000C701B60124E630E040E050E00F94B92930
:104220008AE0882E912CA12CB12CCA01B901A501DC
:1042300094010F94B929605D609300068EE280932B
:104240000106C701B601A50194010F94B929C62F33
:10425000CA01B901A50194010F94B929605D609369
:104260000206C05DC09303068CEF95E0CF91FF90EE
:10427000EF90DF90CF90BF90AF909F908F90089578
:104280006DEB77E386E095EB3CCF0F94732320E052
:1042900030E048EC52E40F942B2B2FE632E143E858
:1042A0005AE30F944F2A17CFCF92DF92EF92FF92EB
:1042B000CF93DF9300D01F92CDB7DEB70F94732357
:1042C00020E030E048EC52E40F942B2B2FE632E153
:1042D00043E85AE30F944F2A6B017C0120E030E061
:1042E000A9010F946D232DEB37E346E055E387FFDB
:1042F00004C02DEB37E346E055EBC701B6010F9440
:104300004F2A69837A838B839C83CE0101960E9416
:1043100034C10F900F900F900F90DF91CF91FF90CD
:10432000EF90DF90CF9008950C94F8A70C94F8A725
:104330000C94AAA70C94AAA70C94AAA70C94AAA7B9
:10434000CF93C82F10929805109297050F94EC0008
:1043500060939305709394058093950590939605CB
:10436000C11112C0DC01CB01805E9044AD4FBF4F44
:1043700080938F0590939005A0939105B09392053B
:1043800010928E05CF91089580E090E0DC01F0CF8F
:10439000CF93DF93C091EC14D091ED14209729F1C5
:1043A0006091E8147091E9148091EA149091EB14F3
:1043B0000F94932B6E5F7F4F24976C177D07ACF49F
:1043C00070935A07609359070F94EC00605A754137
:1043D0008F4F9F4F60935B0770935C0780935D07DF
:1043E00090935E07DF91CF91089510925B07109232
:1043F0005C0710925D0710925E07F4CFCF92DF92B8
:10440000EF92FF920F931F93CF939091620291309E
:1044100009F461C0662351F010923E0410923A04F0
:1044200010923B0410923C0410923D04C82F0F944C
:10443000EC00C0903A04D0903B04E0903C04F09033
:104440003D049B01AC012C193D094E095F0969012E
:104450007A01F7FC40C020913E04C7FD15C04C2FE7
:104460000C2E000C550B4C5F5F4FE22F022E000C00
:10447000FF0B4E175F077CF144EFC42EDD24D3946D
:10448000E12CF12C2C1734F438EEC32E33E0D32E6C
:10449000E12CF12CC60ED71EE81EF91EC0923A047C
:1044A000D0923B04E0923C04F0923D04022F017054
:1044B00010E084E2809FB001819F700D701B112479
:1044C00060597C4F82E390E00E9486CC80913E044C
:1044D0008F5F80933E04CF911F910F91FF90EF90DB
:1044E000DF90CF900895CF92DF92EF92FF920F93DB
:1044F0001F93CF93DF9300D000D01F921F92CDB7B0
:10450000DEB78E010F5F1F4FD80130E020E0FB01C6
:10451000E20FF31FE491ED932F5F3F4F28303105F9
:10452000B1F7877098E0899FB0011124606487E734
:1045300095E10F94830383E790E00197F1F7780109
:10454000E8E0EE0EF11C8BE9C82ED12CF801619148
:104550008F0187E795E10E9488E5C6010197F1F791
:10456000E016F10699F728960FB6F894DEBF0FBE55
:10457000CDBFDF91CF911F910F91FF90EF90DF9012
:10458000CF900895CF92DF92EF92FF920F931F93F7
:10459000CF93DF9300D000D0CDB7DEB78A0146E0DD
:1045A000469F9001479F300D1124BC01620F731F7D
:1045B00046E050E0CE0101960F949622C980DA8041
:1045C000EB80FC80F80140815181628173818FEF23
:1045D0009FEFC416D506E606F70640F081E090E0AE
:1045E0004C155D056E057F0508F080E026960FB638
:1045F000F894DEBF0FBECDBFDF91CF911F910F9119
:10460000FF90EF90DF90CF9008950F931F93CF937B
:10461000DF93CDB7DEB72E970FB6F894DEBF0FBE8F
:10462000CDBF8B011E861D86FC0160817181828158
:1046300093816F83788789879A872FEF2B876038DC
:1046400071058105910538F487E795E10E9488E5B9
:1046500081E090E02FC09E01235F3F4FAE01495F94
:104660005F4F69EB70E08DEE93E10E9455F897FD86
:104670002CC08D859E8526E0289FB001299F700D56
:10468000112463517C4E46E050E0CE0101960F9418
:1046900096226D8187E795E10E9488E5013011053A
:1046A000B9F26E816623A1F287E795E10E9488E561
:1046B00082E090E02E960FB6F894DEBF0FBECDBF1D
:1046C000DF91CF911F910F9108959E01235F3F4F7E
:1046D000AE01495F5F4F63E670E08BE991E10E94B4
:1046E00055F897FD0BC08D859E8526E0289FB0016B
:1046F000299F700D112465567E4EC5CF6FE3A4CF60
:10470000AB01BC0140939615509397156093981593
:10471000709399158DEF96E10D947509682F880FA8
:10472000770B880B990B0C9471F94F925F926F92F3
:104730007F928F929F92AF92BF92CF92DF92EF9231
:10474000FF92CF93DF93C3E6D2E0698170E090E0FF
:1047500080E00F9473236B017C0120E030E0A9011D
:104760000F944F2A4B015C016A8170E090E080E079
:104770000F9473232B013C01AC019B01C501B401D3
:104780000F944F2A4B015C0120E030E048EC52E4EA
:10479000C701B6010F94D223A50194010F942B2BCE
:1047A0000F94152BC6EFD5E00F94932B688320E070
:1047B00030E048EC52E4C301B2010F94D223A501CA
:1047C00094010F942B2B0F94152B0F94932B69832B
:1047D000DF91CF91FF90EF90DF90CF90BF90AF909F
:1047E0009F908F907F906F905F904F9008958091F1
:1047F000E3049091E404009731F04AE050E070E067
:1048000060E00D948E2160E070E0CB01089580910E
:10481000E3049091E404009731F04AE050E070E046
:1048200060E00D94612060E070E0CB010895CF93CB
:10483000DF93EB0196DA882311F0E9DFEB01CE017B
:10484000DF91CF910895E3DF97FD0AC0E0DF6F3F6E
:1048500071058105910509F02CF4D9DF862F0895A3
:1048600080E008958FEF0895CF93C62F7ADA8823DA
:1048700011F0CF91E8CF8C2FCF9108958091E30470
:104880009091E404892B39F0DEDF91E0811101C0C1
:1048900090E0892F089591E0FCCFCF93DF93C82F4C
:1048A000D62F5FDA882319F0DF91CF91E7CF8C2FD5
:1048B0000ADA811101C08D2FDF91CF910895A7DF12
:1048C000CB010895CF93DF93EB014BDA882319F0E6
:1048D000DF91CF91F4CFCE01DF91CF9108950F9367
:1048E0001F93CF938091E3049091E404009709F122
:1048F000FC018F01C1912C2F2F7DA1F0C53431F027
:10490000C53621F0C83511F0C83799F7F801108283
:1049100070E060E00F940B1FF801C083CF911F91EE
:104920000F91089570E060E0CF911F910F910D9469
:104930000B1F60E070E0CB01F1CFCF92DF92EF92DE
:10494000FF926A017B010DDA882329F0FF90EF9036
:10495000DF90CF90C4CFC701B601FF90EF90DF90FA
:10496000CF9008958F929F92AF92BF92CF92DF9295
:10497000EF92FF920F931F93CF938DEBC82E82E09F
:10498000D82E9AE0E92E96E0F92E09E712E0C0E071
:10499000F60181916F01E5D9882309F468C09FDF92
:1049A0004B015C018C2F68D9882359F0F8012081D4
:1049B000318142815381C501B4010F944F2A4B01CB
:1049C0005C01F70180829182A282B382CF5FF4E022
:1049D000EF0EF11C0C5F1F4FC330D1F685E4C1D937
:1049E000882309F44FC07BDF6B017C0183E044D94D
:1049F000882371F0209185023091860240918702D0
:104A000050918802C701B6010F944F2A6B017C01B7
:104A1000C0921606D0921706E0921806F092190678
:104A200040E050E0BA0186E488DF20E030E0A901F0
:104A30000F94762C18167CF452DF20E030E040E72B
:104A400052E40F942B2B60932702709328028093DB
:104A5000290290932A02CF911F910F91FF90EF901E
:104A6000DF90CF90BF90AF909F908F900895F80106
:104A700080819181A281B381F70180839183A28398
:104A8000B383A4CF8091850290918602A091870282
:104A9000B09188028093160690931706A09318068B
:104AA000B0931906BDCFCF92DF92EF92FF92CF93D2
:104AB0006B017C01C42F8091AD068F5F09F4ADC0FE
:104AC0008093AD068091AD068093580720E030E0DA
:104AD00040E752E4609127027091280280912902F8
:104AE00090912A020F94D2230F94982B7093BF06B3
:104AF0006093BE06C092C006D092C106E092C20684
:104B0000F092C30680915707C0FB80F99091470649
:104B100090FB84F980935707992381F08091430695
:104B200090914406A0914506B09146068093C40634
:104B30009093C506A093C606B093C706809118153A
:104B4000909119159093C9068093C8068091EC1432
:104B50009091ED149093CB068093CA0683E0EBE727
:104B6000F9E0ACECB6E001900D928A95E1F7809106
:104B700057079091320690FB83F9809357078091F5
:104B80002E0690912F06A0913006B09131068093A9
:104B9000CF069093D006A093D106B093D20682E1BF
:104BA000E3E6F2E0A3EDB6E001900D928A95E1F71D
:104BB0000E94B7BD609352077093530780935407C8
:104BC0009093550780918E15809356079091B30965
:104BD0008091570793FB81F99091EE0490FB82F945
:104BE0008093570780E00F94C50440E050E0BA017D
:104BF0008EE995E10F9475094CEA50E06DEA76E094
:104C00008EE995E10F94970A8EE995E1CF91FF9097
:104C1000EF90DF90CF900C94D39E81E051CF382F4E
:104C20001092500980913B0990913C09A0913D0957
:104C3000B0913E09B7FF08C010923B0910923C09A1
:104C400010923D0910923E0920913B0920933F09A3
:104C500010923509809134091816ECF4082E000CD6
:104C6000990B831B9109022E000C330B281739076F
:104C700094F097FF02C090E080E080933F09092EF6
:104C8000000CAA0BBB0B80933B0990933C09A093AB
:104C90003D09B0933E0980913F096623A9F09091A8
:104CA0004509891714F48093450920914509022E7E
:104CB000000C330B2D5F3F4F482F082E000C550B77
:104CC000241735071CF48350809345090895E0911B
:104CD000DF05E63028F581E08E0F8093DF054091F7
:104CE0003B0950913C0960913D0970913E0920912A
:104CF0004509909134098091560939E0E39FF0010C
:104D00001124E656FA4FA0917515B0917615B1832E
:104D1000A08342835383648375832683978380872C
:104D200008952F923F924F925F926F927F928F924F
:104D30009F92AF92BF92CF92DF92EF92FF920F932A
:104D40001F93CF93DF9300D000D0CDB7DEB71C0107
:104D50007A8369832B833C834D835E8327013801EB
:104D600081E080933509B3DF83E080936002309265
:104D7000DE052092DD0589819A819093DC05809380
:104D8000DB058B819C81AD81BE818093D70590939B
:104D9000D805A093D905B093DA054092D305509277
:104DA000D4056092D5057092D605A0923B09B092C9
:104DB0003C09C0923D09D0923E09909276158092AE
:104DC00075158C8D9D8D9093D2058093D1058E8D18
:104DD0008093D00526960FB6F894DEBF0FBECDBFE8
:104DE000DF91CF911F910F91FF90EF90DF90CF90C7
:104DF000BF90AF909F908F907F906F905F904F90FB
:104E00003F902F9008951F93CF93DF93CDB7DEB7D8
:104E10001F81812F012E000C990B20918D052817E1
:104E2000190609F094F410938D059E01265F3F4FFB
:104E30004885598560E570E08CE395E00F94352353
:104E400081E011160CF080E07BDADF91CF911F91A9
:104E500008958F929F92AF92BF92CF92DF92EF927E
:104E6000FF920F931F93CF93DF939091B30993FD1C
:104E7000E2C0C82F89E40E94B11E882309F465C0EE
:104E8000E2DC90E01816190614F481E090E026E0C8
:104E9000289FF001299FF00D1124E85DF64F8081D5
:104EA0009181D0E00E94B5CD61E08C2F0E9450BE70
:104EB0006091181570911915072E000C880B990B2D
:104EC0000F9473236B017C0180901415909015153D
:104ED000A0901615B0901715A50194010F94762C8B
:104EE00018161CF01D2FD11139C0C11198C0A50191
:104EF0009401C701B6010F94762C18160CF06FC000
:104F000011E087EF90E19F938F9382E99FE09F9359
:104F10008F931F9278DF0F900F900F900F900F904C
:104F2000112331F08BE292E99093980580939705D5
:104F300011E014C082E50E94B11E882371F0BFDC2D
:104F4000B1CF60E070E0CB0123C083E50E94B11EC9
:104F5000D82F8111F4CFC111EDCF10E083E50E946D
:104F6000B11E882329F0ABDC90931C0280931B02B6
:104F700082E40E94B11E882329F0A1DC90931A02DA
:104F80008093190286E40E94631E8823D1F2A7DC75
:104F90006093150270931602809317029093180283
:104FA00001E020E030E0A9010F946D23811101C0E0
:104FB00000E000935509CC2309F43DC01123D9F139
:104FC0008D2FDF91CF911F910F91FF90EF90DF9088
:104FD000CF90BF90AF909F908F900D94F80085E890
:104FE0009FE09F938F9382E99FE09F938F931F92FF
:104FF0000ADF0F900F900F900F900F9093CF87EFD5
:1050000090E19F938F9382E99FE09F938F931F92EC
:10501000FADE0F900F900F900F900F9089CFA5019F
:105020009401C701B6010F94762C181644F310E0D2
:1050300085E89FE068CFDF91CF911F910F91FF909E
:10504000EF90DF90CF90BF90AF909F908F9008959A
:10505000EF92FF921F93CF93DF937C01162F6F3F48
:1050600019F410928D0510E020918D05812F012EED
:10507000000C990B2817190609F044F510938D05BB
:10508000C7010F94BC228E0D9F1DEC01CE19DF09C4
:10509000C135D1053CF00197FC012491207C2038DA
:1050A000D1F3F3CFDD27AE01B7018CE395E00F9488
:1050B000DD22C45CDA4F188281E011160CF080E02A
:1050C000DF91CF911F91FF90EF903AC9DF91CF917F
:1050D0001F91FF90EF9008951F93CF93DF9320913E
:1050E0008D05211120C0FC0101900020E9F73197C6
:1050F000EF01C81BD90BC135D1052CF02291207CC2
:105100002038E1F3F5CF162FBC01DD27AE018CE38B
:1051100095E00F94A12EC45CDA4F1882812FDF91A5
:10512000CF911F910DC9DF91CF911F9108950F93DA
:105130001F930F94EC0000913805109139052091D0
:105140003A0530913B05601B710B820B930B97FD69
:105150000CC0809109018095881F8827881F919B2A
:1051600082604A9B84608093370580913705817007
:105170009091370591FD826090913605981749F01E
:10518000813009F148F0823079F0833091F08093DA
:1051900036051F910F910895913079F09230B9F74B
:1051A0009091350591500CC0992339F09330C1F39B
:1051B000EECF9130A9F3923051F7909135059F5F72
:1051C00090933505E4CF992359F3933001F7F5CF48
:1051D000CF92DF92EF92FF92CF93C82F0F94EC0003
:1051E0006B017C0124EA30E74DE75FE360911D022B
:1051F00070911E0280911F02909120020F946D23E6
:1052000087FD18C08AEF90E0A0E0B0E08C0D9D1DF6
:10521000AE1DBF1D8093250590932605A0932705FD
:10522000B0932805C0930F02CF91FF90EF90DF90CD
:10523000CF90089580E090E0DC01E8CF8F3010F44B
:105240008F5F08958F500895CF92DF92EF92FF9273
:105250000F931F930F94EC0000911D0510911E05F4
:1052600020911F05309120056B017C01C01AD10AE5
:10527000E20AF30A9701860137FD11C020911C054F
:10528000209520931C056A547C4F8F4F9F4F60934D
:105290001D0570931E0580931F059093200581E0E6
:1052A00090911C05911101C080E01F910F91FF901A
:1052B000EF90DF90CF90089520E030E040E05FE392
:1052C0006091141570911515809116159091171510
:1052D0000F944F2A0F94932BCB010895CF93C82F8F
:1052E000823069F4C4E0C15008F438C088E0C89F37
:1052F000B00111246556774E8C2FF5D8F4CF63E9B1
:1053000078E180E0F0D86BE878E181E0ECD863E800
:1053100078E182E0E8D86BE778E186E0E4D863E7FB
:1053200078E187E0E0D8C13069F46BE678E185E0A8
:10533000DAD863E678E184E0D6D86BE578E183E0FB
:10534000CF91D1C863E578E183E0CDD86BE478E113
:1053500084E0C9D863E478E185E0F2CFCF91089585
:1053600020E044E064E187E795E10F94920381E057
:1053700020917515309176152A50324509F080E05C
:10538000ADDF87E795E10D948B03EADFEAE0F1E01A
:1053900080818F77808380910B01809580788093C6
:1053A00009019998A19A52985A9AC1DE109235052E
:1053B0000C94A9F86FEF7FEF28C9AF92BF92CF92FC
:1053C000DF92EF92FF920F931F93CF93DF9300D062
:1053D0001F92CDB7DEB76C015B017A0110E000E0EF
:1053E0000E151F05C8F4AE014F5F5F4FB501C60132
:1053F0000E94CDCC6C0189819A81AB81BC81892BC3
:105400008A2B8B2B49F0B701601B710BCE010196E3
:10541000FCD8080F191FE4CFC8010F900F900F9010
:105420000F90DF91CF911F910F91FF90EF90DF9040
:10543000CF90BF90AF9008954FEF5FEF64E173E9B5
:10544000BCCF4FEF5FEF61E173E9B7CF8F929F92CF
:10545000AF92BF92CF92DF92EF92FF920F931F9382
:10546000CF93DF9300D000D01F921F92CDB7DEB74D
:105470007C01162F5A014901862F660F990B9C015A
:1054800023543D4F69011016D4F5AE014B5F5F4FB9
:1054900061E173E9C7010E94CDCC7C018D819E81C1
:1054A000AF81B8850097A105B10549F18B3791050A
:1054B000A105B10509F46EC08E379105A105B105AE
:1054C00009F468C08A329105A105B10561F517FF9D
:1054D0000FC08EE099E11E3F11F089E099E1402F65
:1054E000002E000C550B61E173E967DF081B8AC0D1
:1054F00086E199E1A6DF015009F04EC000E0802F5F
:1055000028960FB6F894DEBF0FBECDBFDF91CF91C6
:105510001F910F91FF90EF90DF90CF90BF90AF90D1
:105520009F908F90089584329105A105B105C1F433
:105530008114910451F0402F002E000C550B61E1B5
:1055400073E9C4013ADF081B9ECFA114B104E9F04E
:10555000402F002E000C550B64E173E9C501F2CF1A
:1055600080349105A105B10581F40150F6018081D7
:10557000082E000C990BAA0BBB0B89839A83AB8373
:10558000BC83CE01019616DF7ECFCE01059612DFD9
:10559000015079CF17FD9DCF81E04D815E816F81F4
:1055A00078854B3751056105710509F480E0810F5D
:1055B0008A30C4F001506AE00F94F429192F082EA4
:1055C000000C990BC096092E000CAA0BBB0B89830B
:1055D0009A83AB83BC83CE010196ECDE002309F4F1
:1055E0008DCF812F082E000C990BC096092E000C30
:1055F000AA0BBB0B89839A83AB83BC83CE01019634
:10560000D9DE0150002309F479CF402F002E000C81
:10561000550B61E173E9C701D0DE081B70CF0F9312
:105620001F93CF93DF9300D000D01F921F92CDB76E
:10563000DEB70091890210918A0220918B0230918D
:105640008C020D831E832F83388700918D02109169
:105650008E0220918F023091900209831A832B834E
:105660003C8390917E15691710F06FEF690F262F1C
:1056700030E040917F152C0F3D1FF901403199F426
:10568000943089F46181680F606887E795E1289616
:105690000FB6F894DEBF0FBECDBFDF91CF911F9143
:1056A0000F910D9483036581EECFFC01A081B18140
:1056B0001C92A281B3818C918F5F8C930280F381C5
:1056C000E02D608180E0ABCF4F925F926F927F922E
:1056D0008F929F92AF92BF92CF92DF92EF92FF9202
:1056E0000F931F93CF93DF9300D000D01F921F9290
:1056F000CDB7DEB76C017B015A014901FB01608126
:10570000FC0180818CDFA114B10409F49DC0DA8210
:10571000C982FC82EB82011121C0AE014B5F5F4F59
:10572000B401C5010E94CDCC5C018D819E81AF8109
:10573000B885892B8A2B8B2B09F486C0CE01059660
:1057400039DEF60180818F5F8083843130F3CE01B2
:105750000196ABDFE2CF10E075010DC0750110E0DE
:105760000AC0E114F104B9F38FEFE81AF80A10E067
:10577000E114F10489F3AE014B5F5F4FB401C50141
:105780000E94CDCC5C014D805E806F807884411496
:10579000510461047104E9F0F0E24F165104610410
:1057A0007104A9F0D301C2018D97A109B109029733
:1057B000A105B10570F04BE2441651046104710477
:1057C00041F05AE04516510461047104D9F51123E2
:1057D00041F2F6018081482F410F5527551F453171
:1057E00051052CF0853018F0CE0101965EDF81E086
:1057F000411451046104710409F480E0180FF601AA
:105800008081810F8083112369F01150AE014B5FBD
:105810005F4FB401C7010E94CDCC7C01CE0105963B
:10582000C9DDF1CF411451046104710469F0FAE05B
:105830004F1651046104710409F08DCFCE01019619
:1058400034DF8ACF1F5F94CF28960FB6F894DEBF5F
:105850000FBECDBFDF91CF911F910F91FF90EF90C1
:10586000DF90CF90BF90AF909F908F907F906F9080
:105870005F904F900895CF92DF92EF92FF920F9337
:105880001F93CF93DF937B01142FE901682F80E0F2
:10589000C6DEC12CE114F10421F0C7010E94B1CC95
:1058A000C82ED12C209721F0CE010E94BFCCD82E3B
:1058B00004E110FF1AC084E190E08C199109C7FC43
:1058C00093958D199109D7FC939597FD0196959520
:1058D000879504E11BEE180F812F800F87FD05C00F
:1058E0008FEF98E1AEDD0150F7CFCC2069F0209129
:1058F000420930914309409140095091410960911A
:105900004409C701A3DD082FDD2049F0402F002EF8
:10591000000C550B64E173E9CE014FDD081B101636
:105920002CF48DEF98E18DDD0150F9CFDF91CF910F
:105930001F910F91FF90EF90DF90CF90089580918D
:105940006002882349F06091E4057091E50530E03C
:1059500020E041E081E08FCF0895CF93DF93EA010B
:105960005EDECE01DF91CF9125CD8F929F92AF92D7
:10597000BF92CF92DF92EF92FF920F931F93CF933C
:10598000DF9300D01F92CDB7DEB76C017B01809012
:10599000420990904309A0904009B09041091091AC
:1059A000440961E080E03BDE03E19401A501612F41
:1059B000C6014CDD182FE114F104E9F087E099E10C
:1059C00040DDC7010E94BFCC8F5F115061E0181706
:1059D00008F462E000E210E020E030E009831A837E
:1059E0002B833C83AE014F5F5F4F94E1981B892F5F
:1059F000B4DFC70121DD0F900F900F900F90DF9162
:105A0000CF911F910F91FF90EF90DF90CF90BF90BB
:105A1000AF909F908F9008959F92AF92BF92CF9238
:105A2000DF92EF92FF920F931F93CF93DF9300D0FB
:105A30001F92CDB7DEB7982EB62E6A017901A02E3F
:105A40002115310509F46FC0C901002391F10E94AD
:105A5000B1CC182F8EE390E0A0E0B0E0911004C02C
:105A600080E290E0A0E0B0E089839A83AB83BC83BE
:105A7000AE014F5F5F4F6B2D80E06FDF02E1011BD6
:105A800020914209309143094091400950914109C8
:105A900060914409C601DADC082F1123A9F085E0E2
:105AA00099E1CFDC002341F083E099E1CADC0150A9
:105AB000F9CF0E94BFCCCDCFAA20B1F04FEF5FEF5E
:105AC00061E173E9C70179DC0F900F900F900F909F
:105AD000DF91CF911F910F91FF90EF90DF90CF90CA
