:100000000C9424190C9464190C9464190C946419BC
:100010000C9464190C9464190C9464190C9464196C
:100020000C9464190C9464190C9464190C9464195C
:100030000C9464190C9464190C9464190C9464194C
:100040000C9464190C946D8F0C9464190C946419BD
:100050000C9464190C94E1890C9464190C9493C168
:100060000C9464190C94F35D0C94E95D0C94641980
:100070000C9464190C9464190C9464190C9464190C
:100080000C9464190C9464190C9464190C946419FC
:100090000C9464190C9464190C9464190C946419EC
:1000A0000C9464190C9464190C9464190C946419DC
:1000B0000C9464190C9464190C9464190C946419CC
:1000C0000C9464190C9464190C9464190C946419BC
:1000D0000C9464190C9464190C9464190C946419AC
:1000E0000C946419084AD73B3BCE016E84BCBFFD1B
:1000F000C12F3D6C74319ABD56833DDA3D00C77FF8
:1001000011BED9E4BB4C3E916BAAAABE0000008090
:100110003F05A84CCDB2D44EB93836A9020C50B91F
:10012000918688083CA6AAAA2ABE000000803F0744
:10013000634236B79BD8A71A39685618AEBAAB5582
:100140008C1D3CB7CC5763BD6DEDFD753EF6177247
:1001500031BF000000803F08000000BE9224491219
:100160003EABAAAA2ABECDCCCC4C3E00000080BE3D
:10017000ABAAAAAA3E00000000BF000000803F001A
:1001800000000000084178D3BB4387D1133D190E0E
:100190003CC3BD4282AD2B3E68EC8276BED98FE176
:1001A000A93E4C80EFFFBE01C4FF7F3F000000006E
:1001B00000004E414E494E495459494E46CDCCCC93
:1001C0003D0AD7233C17B7D13877CC2B329595E62B
:1001D000241FB14F0A000020410000C84200401C0B
:1001E0004620BCBE4CCA1B0E5AAEC59D74434F4D33
:1001F0004D554E49434154494F4E00445259525572
:100200004E004552524F525300494E464F0045430F
:10021000484F00506F72206661766F722C207265B5
:10022000696E6963696500494D505245534F5241AB
:1002300020444554454E4944410025533A20255316
:10024000004D5545525441005072696E74657220DC
:1002500068616C7465642E206B696C6C282920635E
:10026000616C6C6564210A00006563686F3A004543
:1002700072726F723A0020440020204D32303020DC
:100280005300202844697361626C6564293A004612
:10029000696C616D656E742073657474696E6773E3
:1002A0000020204D3230312058004D6178204163CC
:1002B00063656C65726174696F6E2028756E697410
:1002C000732F7332290020204D3230332058004DD7
:1002D0006178206665656472617465732028756E47
:1002E0006974732F73290020520020204D3230345E
:1002F000205000416363656C65726174696F6E20A4
:1003000028756E6974732F7332292028503C7072DF
:10031000696E742D616363656C3E20523C72657436
:10032000726163742D616363656C3E20543C74722A
:100330006176656C2D616363656C3E2900204A001F
:1003400020540020530020204D32303520420041FF
:100350006476616E6365642028423C6D696E5F73EC
:1003600065676D656E745F74696D655F75733E205A
:10037000533C6D696E5F66656564726174653E20AD
:10038000543C6D696E5F74726176656C5F6665651D
:1003900064726174653E204A3C6A756E635F646591
:1003A000763E290020440020490020204D33303182
:1003B000205000486F74656E642050494400204905
:1003C0006E76616C696420657874727564657220FC
:1003D0000047322F47332062616420706172616D83
:1003E00065746572730A005265706F736F2E2E2EDE
:1003F0000050756C7361722070617261205265618A
:100400006E756461720053696E206D6F76696D69F7
:10041000656E746F00456E642066696C65206C695A
:1004200073740A00426567696E2066696C65206CAA
:100430006973740A004E6F206D656469610A002853
:100440006E6F2066696C65290043757272656E7403
:100450002066696C653A20004E6F7420534420700A
:1004600072696E74696E670A005344207072696E17
:1004700074696E67206279746520002E0A004465F5
:100480006C6574696F6E206661696C65642C2046CA
:10049000696C653A200046696C652064656C65741A
:1004A00065643A002569730025696D20256973002C
:1004B0002569682025696D202569730025696420F8
:1004C0002569682025696D202569730025697920D3
:1004D000256964202569682025696D2025697300D8
:1004E0005072696E742074696D653A20006F6B00FC
:1004F0006F6666000E0209020202FB01ED0144452F
:100500004255473A004D31313320530043522D328A
:1005100030204F46462E00434F4E4649475F4558D0
:10052000504F5254004D4541545041434B00434FAE
:100530004F4C45525F54454D5045524154555245DC
:10054000004348414D4245525F54454D504552414C
:100550005455524500424142595354455050494E1A
:10056000470041524353004D4F54494F4E5F4D4F4A
:1005700044455300544845524D414C5F50524F54EE
:10058000454354494F4E00455854454E4445445FF9
:100590004D323000435553544F4D5F4649524D57ED
:1005A0004152455F55504C4F4144004C464E5F57B9
:1005B00052495445004C4F4E475F46494C454E41C9
:1005C0004D45004155544F5245504F52545F53448E
:1005D0005F5354415455530053445F575249544557
:1005E00000524550454154004D554C54495F564FBB
:1005F0004C554D45005344434152440050524F4DD9
:1006000050545F535550504F525400484F53545F0D
:10061000414354494F4E5F434F4D4D414E4453006B
:10062000454D455247454E43595F504152534552FF
:1006300000434153455F4C494748545F4252494744
:1006400048544E45535300544F47474C455F4C491F
:100650004748545300534F4654574152455F504FFB
:10066000574552004255494C445F50455243454E10
:1006700054004C4556454C494E475F444154410057
:100680005A5F50524F42450052554E4F555400410B
:1006900055544F4C4556454C005052494E545F4AB4
:1006A0004F420050524F4752455353004155544F0B
:1006B0005245504F52545F54454D50004155544F90
:1006C0005245504F52545F504F5300564F4C554D6A
:1006D000455452494300454550524F4D0042494E02
:1006E0004152595F46494C455F5452414E5346452D
:1006F000520053455249414C5F584F4E5F584F4648
:1007000046004649524D574152455F4E414D453A8C
:100710004D61726C696E20322E312E322E372028B8
:100720004D617920323820323032362030383A3438
:10073000343A33302920534F555243455F434F4499
:10074000455F55524C3A6769746875622E636F6DE8
:100750002F4D61726C696E4669726D776172652F9B
:100760004D61726C696E2050524F544F434F4C5F35
:1007700056455253494F4E3A312E30204D41434851
:10078000494E455F545950453A43522D3230204529
:10079000585452554445525F434F554E543A3120B8
:1007A000555549443A63656465326132662D34318A
:1007B00061322D343734382D396231322D6335357D
:1007C000633632663336376666002F2F004D31347C
:1007D0003520533C696E6465783E206F7574206FD8
:1007E000662072616E67652028302D31290A003F2E
:1007F0004A206F7574206F662072616E67652028CD
:10080000302E303120746F20302E33290A002058CA
:10081000004F4646004F4E003B200020204D61789F
:100820003A2000200020204D696E3A2000203B2015
:100830000020204D323131205300250A0046523A23
:100840000020466C6F773A200064697300656E0083
:1008500043290A0061626C656420286D696E20740A
:10086000656D702000436F6C6420657874727564E8
:1008700065732061726520004F726967656E20257F
:1008800073205072696D2E00486F6D6520257320AE
:1008900046697273740044657366617365206170A4
:1008A0006C6963616461004D494E2F4D415820547D
:1008B0006F6F2046617200546F6F20666172206610
:1008C000726F6D204D494E2F4D41580A00454550DD
:1008D000524F4D204F4B0A004D383400446F6E6527
:1008E000207072696E74696E672066696C650A00B3
:1008F0004D3737004D333100496E76616C696420A5
:1009000065787472756465720A0020204D32303645
:10091000205800486F6D65206F66667365740043EC
:1009200061703A0020204D3235302043004C434462
:1009300020436F6E74726173740020746F6F206C4B
:100940006F6E6720657874727573696F6E20707250
:100950006576656E7465640A0020636F6C6420655B
:100960007874727573696F6E2070726576656E74D7
:1009700065640A0020573A00456E667269616E64CC
:100980006F2E2E2E0045312025530020573A00456A
:100990006E667269616E646F2043616D612E2E2EEA
:1009A0000043616C656E74616E646F2043616D61BC
:1009B0002E2E2E00206661696C65642120426164E0
:1009C000206865617465722069640A00504944209A
:1009D0004175746F74756E650023646566696E6534
:1009E0002044454641554C545F004B4420004B4940
:1009F00020004B5020002066696E69736865642191
:100A00002050757420746865206C617374204B707D
:100A10002C204B6920616E64204B6420636F6E73E1
:100A200074616E74732066726F6D2062656C6F778F
:100A300020696E746F20436F6E66696775726174AA
:100A4000696F6E2E680A00504944204175746F74B6
:100A5000756E6500206661696C6564212074696D3E
:100A6000656F75740A00504944204175746F747540
:100A70006E6500206661696C6564212054656D7047
:100A80006572617475726520746F6F20686967683C
:100A90000A00504944204175746F74756E650050AA
:100AA0004944204379636C65730025532025692FE1
:100AB000256900204B643A2000204B693A20002031
:100AC0004B703A200020436C617373696320504976
:100AD00044200A002054753A2000204B753A20002B
:100AE000206D61783A2000206D696E3A2000206404
:100AF0003A200020626961733A200043616C656EA0
:100B000074616E646F2E2E2E002073746172740AED
:100B100000504944204175746F74756E65002066FD
:100B200061696C6564212054656D706572617475CE
:100B3000726520746F6F20686967680A00504944C5
:100B4000204175746F74756E65005049442041757D
:100B5000746F2D616A75737465004572723A207501
:100B600074663820666F6E74206E6F7420696E69CB
:100B70007469616C697A65642E004572723A2075F9
:100B800074663820666F6E74206E6F7420696E69AB
:100B90007469616C697A65642E004572723A2075D9
:100BA00074663820666F6E74206E6F7420696E698B
:100BB0007469616C697A65642E0020002000200051
:100BC0003A003A002568753A2530326875002530BC
:100BD0003268753A253032687500253032687527DD
:100BE00025303268750025687564202530326875B7
:100BF0003A253032687500FFE0FFD140A0C8A6A2B8
:100C00002FF80023AC00AF10FFFEFF05FFD0FFE080
:100C1000FFC1FFD1E240A0C8A6A22FF80023812780
:100C2000AC00AFFFD0FF64FFD1A5FFD0FF64FF642D
:100C3000FFD1A4FFD0FF16FFFE43616D6100526536
:100C400063696E746F0045002000200020002000C2
:100C500020002500202020202020200020202020EF
:100C600000657272001FE02010201020101020106C
:100C7000202010201030300840048003001FE03F87
:100C8000F03FF03FF01FE01FE03FF03FF03FF00F7C
:100C9000C0078003003FFFF038007030FC3020FCBC
:100CA000102078102030102C00D02E31D02F7BD087
:100CB0002F7BD02E31D02C00D02030102078102067
:100CC000FC1030FC303800703FFFF03FFFF0380080
:100CD000703186302387102787902F87D02F03D03D
:100CE0002030102078102078102030102F03D02FC3
:100CF00087D02787902387103186303800703FFFD8
:100D0000F01FFFF81FFFF80410400208200208201F
:100D10000410400820801041001041000820800489
:100D200010400000001FFFF81FFFF8496D7072654A
:100D30007369C3B36E2063616E63656C6164610047
:100D40004D32350050617573696E672E2E2E004D41
:100D50003234003F0049676E6F7265005265696EFC
:100D6000696369617200496E696369616C697A617E
:100D70007220454550524F4D004469C3A16D6574C2
:100D8000726F2046696C2E004520656E206D6DC225
:100D9000B3004D333033205531204525692053258C
:100DA0006900504944204175746F2D616A757374F0
:100DB00065202A005049442D44202A005049442DE2
:100DC00049202A005049442D50202A00200820465E
:100DD0006163746F72002008204D61780020082044
:100DE0004D696E0041706700456E630054656D701B
:100DF0002E204175746F6D2E0056656C2E2076691D
:100E0000616A65206D696E00566D696E004D61788E
:100E10002040205370656564004163656C2E206D31
:100E2000617845004163656C2E206D61784000411A
:100E300063656C2E205669616A65004163656C2E9E
:100E4000207265747261632E004163656C65726126
:100E50006369C3B36E0040207061736F732F6D6D53
:100E600000416A7573746573206176616E7A61649E
:100E70006F73003F0043616E63656C617200496E81
:100E80006963696172004D34323800496E69636983
:100E9000616C697A617220454550524F4D00466938
:100EA0006C616D656E746F0054656D706572617410
:100EB000757261005061736F732F6D6D00446573BF
:100EC00076692E20556E69C3B36E00416363656C0D
:100ED0006572616369C3B36E004D61782056656CBD
:100EE0006F636964616400416A7573746172206440
:100EF0006573666173657300436F6E6669677572CB
:100F0000616369C3B36E0043616D6100426F7175C7
:100F1000696C6C610056656E74696C61646F720017
:100F2000436F6E6669677572616369C3B36E005221
:100F30006573742E2066C3A16272696361004361A8
:100F40007267617220454550524F4D00477561727E
:100F500064617220454550524F4D00507265636187
:100F60006C2E202420416A7573746500436F6E7483
:100F70007261737465204C434400416A75737465F3
:100F800073206176616E7A61646F73004D656EC324
:100F9000BA207072696E636970616C00313235001D
:100FA00035004245443A204550434F5320313030BC
:100FB0004B005669672E20467567612054C3A9729D
:100FC0006D2E3A204F4E0054656D702E204DC3A1FA
:100FD00078696D61003237350054656D702E204D93
:100FE000C3AD6E696D6100350045313A204550430F
:100FF0004F53203130304B00462E20416C696D65D7
:101000006E742E0047656E657269630050726F746E
:101010006F636F6C6F00312E300042617564696FD1
:1010200073003131353230300052414D5053203150
:101030002E34004578747275736F726573003100D9
:101040006D61726C696E66772E6F72670043522D08
:10105000323000323032362D30312D323200322EE5
:10106000312E322E37004D61726C696E00546572FC
:101070006D6973746F72657300496E666F2E2043DD
:101080006F6E74726F6C61646F7200496E666F2E62
:1010900020496D707265736F7261004D656EC3BAE1
:1010A000207072696E636970616C003F00417472F8
:1010B000C3A1730050617261720053442F464420F3
:1010C0006E6F2070726573656E746500496D707225
:1010D000696D2E2064657364652053442F46440077
:1010E00043616D626961722053442F4644004D3262
:1010F0003100496E666F2E20496D707265736F7294
:101100006100436F6E6669677572616369C3B36E30
:101110000054656D7065726174757261004D6F7613
:10112000696D69656E746F005265616E7564617298
:1011300020696D7072657369C3B36E00416A75731F
:1011400074617200446574656E657220696D7072B9
:10115000657369C3B36E0050617573617220696D08
:101160007072657369C3B36E0050616E74616C6CAC
:101170006120646520496E662E003F00496E6963F8
:1011800069617220696D7072657369C3B36E0043E3
:10119000616E63656C617200496D7072696D697230
:1011A0000043616E6E6F7420656E74657220737596
:1011B000626469723A200002202E2E004D656EC3D3
:1011C000BA207072696E636970616C00000C0F0068
:1011D000FE07022503BB01FFFE0AFE08FE05080804
:1011E00006000040F0C888889878100508080600B6
:1011F00000C0F88888888888F80505050600012061
:1012000030F830200508080600002070F820202063
:1012100020E00509090600FF2070A8A8B88888709A
:1012200020070505070001D86C366CD805090906AA
:1012300000FFF8A88888888888A8F8050A0A0600A8
:10124000FE205050505088A8A88870030303060061
:101250000340A040FFFFFFFFFFFFFFFFFFFFFFFF77
:10126000FFFFFFFFFFFFFFFFFFFF0000000605FF7E
:10127000010707060200808080808000800303034E
:10128000060105A0A0A005060606000050F8505073
:10129000F8500509090600FF2070A8A07028A87062
:1012A00020050707060000C8C810204098980507C9
:1012B0000706000040A0A040A890680103030602B2
:1012C000058080800309090601FF2040408080805E
:1012D0004040200309090601FF80404020202040B3
:1012E000408005070706000020A8702070A8200590
:1012F00005050600012020F820200203030601FF57
:10130000C04080050101060003F802020206010048
:10131000C0C00507070600000810102040408005E7
:101320000707060000708898A8C88870030707069A
:10133000010040C040404040E00507070600007043
:101340008808102040F8050707060000F80810304C
:1013500008887005070706000010305090F810103C
:10136000050707060000F880F008088870050707E1
:10137000060000304080F0888870050707060000EE
:10138000F808101020202005070706000070888844
:101390007088887005070706000070888878081034
:1013A00060020505060100C0C000C0C002060606B6
:1013B00001FFC0C000C040800305050601012040B8
:1013C000804020050303060002F800F80305050627
:1013D000010180402040800507070600007088104A
:1013E000202000200507070600007088B8A8B880F4
:1013F00070050707060000708888F8888888050748
:1014000007060000F04848704848F0050707060046
:101410000070888080808870050707060000F0480B
:1014200048484848F0050707060000F88080F0802B
:1014300080F8050707060000F88080F080808005AE
:1014400007070600007088808098887005070706E7
:101450000000888888F8888888030707060100E06C
:101460004040404040E005070706000038101010DB
:101470001090600507070600008890A0C0A0908823
:10148000050707060000808080808080F805070738
:1014900006000088D8A88888888805070706000005
:1014A0008888C8A89888880507070600007088887B
:1014B00088888870050707060000F08888F080801B
:1014C0008005070706000070888888A890680507CF
:1014D00007060000F08888F0A0908805070706003E
:1014E0000070888070088870050707060000F820E3
:1014F000202020202005070706000088888888888B
:1015000088700507070600008888888850502005E5
:10151000070706000088888888A8A85005070706DE
:10152000000088885020508888050707060000883A
:10153000885020202020050707060000F80810200A
:101540004080F80309090601FFE0808080808080E8
:1015500080E00507070600008040402010100803C7
:1015600009090601FFE020202020202020E00503BB
:10157000030600052050880501010600FEF803035C
:101580000306010580402005050506000070087867
:1015900088780507070600008080F0888888F005B5
:1015A00005050600007080808870050707060000AA
:1015B000080878888888780505050600007088F096
:1015C0008070050707060000304840E040404005B5
:1015D00007070600FE7088888878087005070706E8
:1015E00000008080F0888888880307070601004093
:1015F00000C0404040E00409090601FE1000301020
:10160000101010906005070706000080808890E0A9
:101610009088030707060100C04040404040E005B5
:101620000505060000D0A8A8A8A805050506000025
:10163000B0C888888805050506000070888888700D
:101640000507070600FEF0888888F08080050707F8
:101650000600FE78888888780808050505060000D9
:10166000B0C880808005050506000078807008F00D
:101670000507070600002020F82020201805050592
:101680000600008888889868050505060000888897
:101690008850200505050600008888A8A850050583
:1016A0000506000088502050880507070600FE88C0
:1016B000888850204080050505060000F81020406D
:1016C000F80309090601FF204040408040404020C7
:1016D0000109090602FF808080808080808080036D
:1016E00009090601FF80404040204040408005033A
:1016F0000306000248A890FFFFFFFFFFFFFFFFFF68
:10170000FFFFFFFFFFFFFFFFFFFFFFFFFFFFFFFFE9
:10171000FFFFFFFFFFFFFFFF0000000605FF0107BF
:101720000706020080008080808080050707060091
:10173000FF2070A8A0A87020050707060000304809
:1017400040E04048B0050505060000A8508850A8B4
:101750000507070600008850F820F8202001070739
:101760000602008080800080808004080806010056
:1017700070806090906010E0030101060107A006F0
:1017800007070600007884B4A4B48478030505062E
:10179000010460A06000E00505050600002850A0D7
:1017A0005028050303060001F8080803010106019B
:1017B00003E00607070600007884B4A4A484780533
:1017C0000101060007F8040404060105609090601A
:1017D0000507070600002020F8202000F803050573
:1017E00006010440A02040E0030505060104C020D6
:1017F0004020C003030306010520408005070706BB
:1018000000FE88888898E88080050808060000782F
:10181000E8E8E868282828020202060203C0C0039C
:1018200002020601FE20C003050506010440C04077
:1018300040E003050506010540A04000E005050560
:10184000060000A0502850A0050A0A06000040C06B
:1018500048506050B0507810050A0A06000040C099
:1018600048506050A8081038050A0A060000C02039
:101870004830E050B05078100507070600002000FF
:101880002020408870050A0A060000402000708869
:1018900088F8888888050A0A0600001020007088E9
:1018A00088F8888888050A0A060000205000708899
:1018B00088F8888888050A0A06000068B0007088E1
:1018C00088F8888888050909060000500070888813
:1018D000F8888888050A0A06000020502070888849
:1018E000F888888805070706000078A0A0F0A0A067
:1018F000B80509090600FE70888080808870106035
:10190000050A0A060000402000F88080F08080F878
:10191000050A0A060000102000F88080F08080F898
:10192000050A0A060000205000F88080F08080F848
:101930000509090600005000F88080F08080F80357
:101940000A0A060100804000E04040404040E003B9
:101950000A0A060100204000E04040404040E00309
:101960000A0A06010040A000E04040404040E00379
:101970000909060100A000E04040404040E00507A2
:1019800007060000704848E8484870050A0A060043
:101990000068B0008888C8A8988888050A0A0600E8
:1019A0000040200070888888888870050A0A060030
:1019B0000010200070888888888870050A0A060050
:1019C0000020500070888888888870050A0A060000
:1019D0000068B0007088888888887005090906004A
:1019E0000050007088888888887005050506000109
:1019F00088502050880509090600FF087098A8A89B
:101A0000A8C87080050A0A0600004020008888885F
:101A100088888870050A0A060000102000888888D7
:101A200088888870050A0A06000020500088888887
:101A30008888887005090906000050008888888811
:101A4000888870050A0A0600001020008888502047
:101A500020202004070706010080E0909090E0809D
:101A6000050707060000708890A09088B005080858
:101A700006000040200070087888780508080600F5
:101A800000102000700878887805080806000020FB
:101A90005000700878887805080806000068B000D3
:101AA00070087888780507070600005000700878ED
:101AB000887805080806000020502070087888788B
:101AC000050505060000702870A0780507070600C8
:101AD000FE708880887010600508080600004020AD
:101AE000007088F080700508080600001020007063
:101AF00088F080700508080600002050007088F00B
:101B0000807005070706000050007088F0807003A1
:101B10000808060100804000C0404040E00308087B
:101B2000060100204000C0404040E00308080601D4
:101B30000040A000C0404040E0030707060100A0AD
:101B400000C0404040E00509090600005020500850
:101B5000788888887005080806000068B000B0C85A
:101B6000888888050808060000402000708888885A
:101B7000700508080600001020007088888870052D
:101B80000808060000205000708888887005080842
:101B900006000068B0007088888870050707060096
:101BA0000050007088888870050505060001200037
:101BB000F800200505050600007898A8C8F005087B
:101BC00008060000402000888888887005080806FC
:101BD000000010200088888888700508080600002A
:101BE000205000888888887005070706000050008C
:101BF0008888888870050A0A0600FE1020008888F8
:101C000088502040800509090600FE8080F0888801
:101C100088F080800509090600FE500088888850F9
:101C200020408041425300504C41004572723A209E
:101C3000454550524F4D20436F7272757074004588
:101C400072723A20454550524F4D20435243004551
:101C500072723A20454550524F4D2054616D61C318
:101C6000B16F004572723A205665727369C3B36EE4
:101C700020454550524F4D002100486F74656E64F9
:101C8000206D7579206672696F00417472C3A1730B
:101C90000050726F63656465720045787472757385
:101CA0006F72004D6F76696D69656E746F0041707B
:101CB00061676172206D6F746F726573004D3834A7
:101CC000004C6C6576617220616C206F726967658B
:101CD0006E00473238004D656EC3BA207072696E6F
:101CE000636970616C0050726563616C2E20242002
:101CF00043616D610050726563616C2E2024204643
:101D000075736F720054656D706572617475726180
:101D100000271C231C456E66726961720050726553
:101D200063616C2E20240056656E74696C61646F6B
:101D3000720043616D6100426F7175696C6C610086
:101D40004D656EC3BA207072696E636970616C0014
:101D50004D6963726F7061736F205A004D696372D1
:101D60006F7061736F204000466C756A6F00566536
:101D70006E74696C61646F720043616D6100426FE3
:101D80007175696C6C610056656C6F636964616440
:101D9000004D656EC3BA207072696E636970616CC4
:101DA0000049722061206F726967656E2046616C20
:101DB0006C61646F006F70656E005452494747450F
:101DC000524544003A20007A5F6D696E00795F6D7C
:101DD000696E00785F6D696E005265706F7274692C
:101DE0006E6720656E6473746F70207374617475B0
:101DF000730A00000000000000000000000000570F
:101E000061726E696E673A20486F6D696E67204235
:101E1000756D702044697669736F72203C20310AB9
:101E20000002020400006B4300006B4300007A4391
:101E30000000A0400000A0400000004000006B43F4
:101E400000006B4300007A43000000000000000027
:101E50000000000053657474696E67732053746FDB
:101E600072656400290A002062797465733B2063FF
:101E70007263200053657474696E67732053746FC6
:101E800072656420280048617264636F6465642031
:101E900044656661756C742053657474696E67730C
:101EA000204C6F616465640020286D6D2900204618
:101EB0000020420020480020204D313435205300BE
:101EC0004D6174657269616C20686561747570201C
:101ED000706172616D65746572730020204D3134DC
:101EE000392043203B20556E69747320696E20436E
:101EF000656C736975730A0054656D706572617401
:101F000075726520556E6974730020204732312048
:101F10003B004C696E65617220556E6974730045B3
:101F20004550524F4D206461746173697A65206534
:101F300072726F722E0A00202863616C63756C6187
:101F400074656429210A0020213D20004545505236
:101F50004F4D20435243206D69736D617463682057
:101F60002D202873746F72656429200045455052F6
:101F70004F4D20436F72727570740A002053697A56
:101F8000653A2000496E6465783A2000290A0020ED
:101F900062797465733B2063726320002073746FF1
:101FA0007265642073657474696E677320726574FA
:101FB0007269657665642028000000FA430000FA23
:101FC000430000A0400000C8410000A0420000A063
:101FD000420000C8430000C242F4010000F40100C6
:101FE000006400000088130000204D61726C696E6F
:101FF0003D563838290A00454550524F4D207665E8
:102000007273696F6E206D69736D617463682028E7
:10201000454550524F4D3D0020436F756E7420581A
:102020003A0043616D61004531004500626564001E
:102030002C2073797374656D2073746F7070656490
:1020400021204865617465725F49443A20004572F9
:10205000723A54454D502E204DC38158004D415881
:1020600054454D502074726967676572656400431A
:10207000616C656E742E2066616C6C69646F0048DB
:10208000656174696E67206661696C65640045729C
:10209000723A54454D502E204D494E004D494E54F4
:1020A000454D5020747269676765726564004655D6
:1020B00047412054C389524D4943410054686572D9
:1020C0006D616C2052756E6177617900202F002060
:1020D00042403A0020403A007C3C3E5E2B3D3F2F80
:1020E0005B5D3B2C2A225C0046616C6C6F20616C4E
:1020F00020696E69636961722053442F464400531E
:10210000442063617264206F6B0A006F70656E52C9
:102110006F6F74206661696C65640A00766F6C7518
:102120006D652E696E6974206661696C65640A006C
:102130004E6F20534420636172640A00534420634D
:102140006172642072656C65617365640A000A4D92
:102150003234004D3233202573002E0A006F706533
:102160006E206661696C65642C2046696C653A2056
:102170000046696C652073656C65637465640A006C
:102180002053697A653A200046696C65206F706556
:102190006E65643A2000454E4420535542524F55D7
:1021A00054494E450A002220706F7300222070614E
:1021B00072656E743A2200535542524F5554494E3F
:1021C000452043414C4C207461726765743A22008B
:1021D000446573626F7264616D69656E746F2064CB
:1021E00065207375626C6C616D6164610045786334
:1021F0006565646564206D617820535542524F5582
:1022000054494E452064657074683A005772697489
:10221000696E6720746F2066696C653A200066728B
:1022200065736800646F696E67002066696C653A63
:1022300020004E6F7720002F6175746F25632E6725
:10224000006D61726C696E66772E6F726700322E58
:10225000312E322E37001FFFFFFFFFFFFF6000000F
:10226000000001FF400000000000FF8000000000AF
:10227000007F83CF00000C303F87FF80000C301FB1
:10228000867980000C000F8C30C7838C30E78C304F
:10229000CFC7CC31F38C30DCECEC33B98C30D86C5C
:1022A0006C33198C30D06C0C33198C30D86C0C33E7
:1022B000198C30DC6C0E3B198C30CF7C079F198C4D
:1022C00030C77C038F19400000000000026000004E
:1022D000000000061FFFFFFFFFFFF8200140013054
:1022E000013B01400136016001310170012C019078
:1022F000012701B0012201C0011D01F001180110E8
:1023000002130130020E016002090190020401C0B3
:1023100002FF000003FA004003F5008003F000D044
:1023200003EB002004E6007004E100E004DC004060
:1023300005D700C005D2004006CD00D006C80080F9
:1023400007C3003008BE00F008B900C009B400B0EF
:102350000AAF00B00BAA00D00CA500000EA00050E0
:102360000F9B00C01096005012910000148C00C00A
:10237000158700B0178200B0197D00D01B780000CF
:102380001E730040206E0090226900F0246400401B
:10239000275F0090295A00E02B5500102E50002096
:1023A000304B0010324600E033410090353C0010C5
:1023B00037370070383200A0392D00B03A2800A01D
:1023C0003B2300603C1E00103D1900903D1400109E
:1023D0003E0F00703E0A00C03E0500003F00004076
:1023E0003FFBFF803FF6FFC03FF1FF2020506C61B4
:1023F0006E6E657242756666657242797465733A8F
:1024000020002046726565204D656D6F72793A2017
:102410000020436F6D70696C65643A204D617920CE
:10242000323820323032360A00204C617374205525
:102430007064617465643A20323032362D30312D4B
:102440003232207C20417574686F723A2028334400
:10245000776F726B2C2068747470733A0A004D6148
:10246000726C696E20322E312E322E370A002053C4
:102470006F6674776172652052657365740A002017
:102480005761746368646F672052657365740A00EE
:102490002042726F776E206F757420526573657479
:1024A0000A002045787465726E616C205265736510
:1024B000740A00506F77657255700A007374617208
:1024C000740A004732385859004D31303031006FAE
:1024D0006B006572726F722077726974696E672023
:1024E000746F2066696C650A00446F6E65207361C5
:1024F00076696E672066696C652E0A00456E6473A6
:10250000746F707300255320256320256320256395
:1025100020256300656E6473746F7073206869743E
:102520003A200000000A0B02090C0D0E08070304F4
:10253000010000000000000000000000000000009A
:102540000000000000000000000000000000001279
:10255000111000000000000000000000000000005A
:1025600000000000000000000000002200250028FC
:10257000002B002E0031003400020100000501088C
:10258000010B0100002100240027002A002D00304B
:1025900000330001010000040107010A01050505DF
:1025A00005070508080808020202020A0A080804CA
:1025B00004040401010101010101010303030303F8
:1025C000030303040707070C0C0C0C0C0C0C0C0287
:1025D00002020206060606060606060B0B0B0B0B8E
:1025E0000B0B0B0102102020080810204010204087
:1025F00080020102010804020101020408102040C7
:1026000080804020100804020180040201804020E4
:10261000100804020108040201010204081020400D
:1026200080010204081020408024F404D9201BC437
:102630000C5C0E9804C4095F0265077101F405F98A
:1026400000FB04B30048048700C103690058035528
:102650000003034500BE023A008402310053022AFF
:10266000002902250004022000E4011C00C8011911
:1026700000AF0117009801140084011300710110CC
:10268000006101100051010E0043010D0036010BE5
:10269000002B010B0020010B00150109000C0109A2
:1026A0000003010800FB000800F3000800EB00072E
:1026B00000E4000600DE000600D8000600D2000696
:1026C00000CC000500C7000500C2000500BD0004E5
:1026D00000B9000400B5000400B1000400AD00041E
:1026E00000A9000400A5000300A20003009F00044D
:1026F000009B000300980003009500020093000374
:1027000000900003008D0002008B0003008800028F
:10271000008600020084000300810002007F0002A6
:10272000007D0002007B00020079000200770001BA
:1027300000760002007400020072000100710002C5
:10274000006F0002006D0001006C0002006A0001D1
:1027500000690002006700010066000100650001D9
:1027600000640002006200010061000100600001DD
:10277000005F0002005D0001005C0001005B0001E1
:10278000005A0001005900010058000100570001E3
:1027900000560001005500010054000100530000E4
:1027A00000530001005200010051000100500001DF
:1027B000004F0001004E0000004E0001004D0001DE
:1027C000004C0001004B0000004B0001004A0001DA
:1027D00000490001004800000048000100470001D6
:1027E00000460000004600010045000000450001D1
:1027F00000440001004300000043000100420000CB
:1028000000420001004100000041000100400001C1
:10281000003F0000003F0001003E0000003E0001BC
:10282000003D0000003D0001003C0000003C0000B5
:10283000003C0001003B0000003B0001003A0000AA
:10284000003A0001003900000039000100380000A2
:102850000038000000380001003700000037000198
:102860000036000000360000003600010035000090
:102870000035000000350001003400000034000085
:102880000034000100330000003300000033000179
:102890000032000000320000003200010031000070
:1028A0000031000000310001003000000030000065
:1028B00000300001002F0000002F0000002F00005A
:1028C000002F0001002E0000002E0000002E00014D
:1028D000002D0000002D0000002D0000002D000143
:1028E000002C0000002C0000002C0000002C000137
:1028F000002B0000002B0000002B0000002B00012B
:10290000002A0000002A0000002A0000002A00011E
:102910000029000000290000002900000029000013
:102920000029000100280000002800000028000005
:1029300000280000002800010027000000270000F8
:1029400000270000002700000027000100260000EB
:1029500000260000002600000026000000260001DE
:1029600000250000002500000025000000250000D3
:1029700000250000002500010024000000240000C4
:1029800000240000002400000024000100230000B7
:1029900000230000002300000023000000230000AB
:1029A000002300000023000100220000002200009C
:1029B000002200000022000000220000002200018E
:1029C0000021000000210000002100000021000083
:1029D0000021000000210000002100010020000073
:1029E0000020000000200000002000000020000067
:1029F000002000000020000000200001001F000057
:102A0000001F0000001F0000001F0000001F00004A
:102A1000001F0000001F0001001E0000001E00003B
:102A2000001E0000001E00000024F4D43050C38EAD
:102A300020C2A24017828B7011127A910D816CD93D
:102A40000AA861E108C7586607615143061E4B5D3D
:102A500005C145A7041A411104093D980371393194
:102A6000034036DB0265339102D4305402802E1DC0
:102A700002632CEE01752AC501B028A00110278140
:102A8000018F2564012B244B01E0223401AC211F6E
:102A9000018D200D01801FFC00841EED00971DDFBD
:102AA00000B81CD200E61BC600201BBC00641AB292
:102AB00000B219A8000A19A0006A189900D117914C
:102AC0000040178B00B516840031167E00B31579CF
:102AD000003A157300C7146F0058146A00EE1366AD
:102AE000008813630025135E00C7125B006C125749
:102AF0000015125400C111510070114F0021114BEB
:102B000000D61049008D10470046104400021042C4
:102B100000C00F4000800F3E00420F3C00060F3BFC
:102B200000CB0E3800930E37005C0E3500270E34B4
:102B300000F30D3200C10D3100900D3000600D2EFC
:102B400000320D2D00050D2C00D90C2B00AE0C29E8
:102B500000850C29005C0C2700350C27000E0C2684
:102B600000E80B2400C40B2400A00B23007D0B23E2
:102B7000005A0B2100390B2100180B2000F80A1F06
:102B800000D90A1E00BB0A1E009D0A1D00800A1DF6
:102B900000630A1C00470A1B002C0A1B00110A1ABA
:102BA00000F7091A00DD091900C4091900AB091959
:102BB00000920917007B091800630917004C0916D9
:102BC0000036091600200916000A091500F5081537
:102BD00000E0081400CC081400B8081400A408147D
:102BE00000900813007D0812006B081300580812AB
:102BF00000460812003408110023081100120811C1
:102C00000001081100F0071000E0071000D00710C5
:102C100000C0071000B0070F00A107100091070EB9
:102C20000083070F0074070F0065070E0057070E9B
:102C30000049070E003B070D002E070E0020070D70
:102C40000013070D0006070D00F9060C00ED060D38
:102C500000E0060C00D4060C00C8060C00BC060CF4
:102C600000B0060C00A4060B0099060C008D060BA4
:102C70000082060B0077060B006C060B0061060A4B
:102C80000057060B004C060A0042060A0038060AE6
:102C9000002E060A0024060A001A060A0010060979
:102CA0000007060A00FD050900F4050900EB050907
:102CB00000E2050900D9050900D0050900C705098A
:102CC00000BE050900B5050800AD050800A5050909
:102CD000009C050800940508008C05080084050880
:102CE000007C050800740508006C050700650508F0
:102CF000005D050700560508004E0507004705075B
:102D0000004005080038050700310507002A0507BF
:102D100000230507001C050600160507000F050720
:102D2000000805060002050700FB040600F504077D
:102D300000EE040600E8040600E2040700DB0406D7
:102D400000D5040600CF040600C9040600C304062B
:102D500000BD040600B7040600B1040500AC04067B
:102D600000A6040600A00405009B040600950405C7
:102D700000900406008A040500850405008004060E
:102D8000007A04050075040500700405006B040555
:102D90000066040500610405005C04050057040595
:102DA00000520405004D04050048040500430405D5
:102DB000003E0404003A0405003504050030040414
:102DC000002C04050027040400230405001E04044D
:102DD000001A04040016040500110404000D040484
:102DE00000090405000404040000040400FC0304BA
:102DF00000F8030400F4030400F0030400EC0304EF
:102E000000E8030400E4030400E0030400DC03041E
:102E100000D8030400D4030400D0030400CC03044E
:102E200000C8030300C50303005D2E00006E2300ED
:102E30000013180000AF0E00003D080000630400FE
:102E40000045020000270100004D6F7665722024C6
:102E50006D6D00302E303235004D6F76657220304A
:102E60002E316D6D004D6F76657220316D6D004DA8
:102E70006F7665722031306D6D004D6F7665722012
:102E8000656A6573004578747275736F72202A00E5
:102E90004D6F7665722040002000496D7072696D3B
:102EA0002E2064657364652053442F46440020003F
:102EB0002000FFFFFF43616E6E6F74206F70656EC0
:102EC000207375626469722000220A00556E6B6E71
:102ED0006F776E20636F6D6D616E643A2022002003
:102EE0004500205A0020590020204D39322058003A
:102EF00053746570732070657220756E697400621A
:102F00007573793A2070617573656420666F7220FD
:102F1000696E7075740A00627573793A2070617514
:102F200073656420666F7220757365720A0062753E
:102F300073793A2070726F63657373696E670A0004
:102F400053442F464420726574697261646F005364
:102F5000442F464420696E7365727461646F004D3E
:102F60003131322053687574646F776E0044455474
:102F7000454E494441005072696E74657220737405
:102F80006F707065642064756520746F206572725F
:102F90006F72732E2046697820746865206572729E
:102FA0006F7220616E6420757365204D3939392048
:102FB000746F20726573746172742E202854656D6D
:102FC00070657261747572652069732072657365CE
:102FD000742E2053657420697420616674657220B4
:102FE00072657374617274696E67290A004E6F208E
:102FF000436865636B73756D2077697468206C69CD
:103000006E65206E756D6265722C204C6173742044
:103010004C696E653A20004D3239004E6F2043688E
:1030200065636B73756D2077697468206C696E6574
:10303000206E756D6265722C204C617374204C6932
:103040006E653A2000636865636B73756D206D690A
:10305000736D617463682C204C617374204C696ECD
:10306000653A20004C696E65204E756D6265722070
:103070006973206E6F74204C617374204C696E65A7
:10308000204E756D6265722B312C204C617374205B
:103090004C696E653A20004D3131300053657269DC
:1030A000616C20737461747573206D69736D6174E4
:1030B00063680A0053442072656164206572726F10
:1030C000720A004B494C4C20627574746F6E2F70FD
:1030D000696E0A002121204B494C4C2063617573B5
:1030E00065642062792000746F6F206D75636820BD
:1030F000696E6163746976652074696D65202D2041
:1031000063757272656E7420636F6D6D616E643A83
:1031100020002121204B494C4C206361757365646C
:103120002062792000DB0FC93F45BCDA3F8FB30234
:1031300040FCF0274056946140FE4B9B4084A5D84C
:1031400040E0231841346A5641E859974164DBD581
:10315000416E271742B4B75542CE1A9742C8AED532
:1031600042B5885A43D40684BFA65FA7BF7443E024
:10317000BF10B11AC01C2C58C0E8F697C0B849D689
:10318000C04E4E17C124D355C1802497C1A0B5D5D8
:10319000C1121A17C244AE55C2781797C26CACD58B
:1031A000C267885AC320746F6F206C6F6E6720658A
:1031B0007874727573696F6E2070726576656E745F
:1031C00065640A0020636F6C64206578747275739F
:1031D000696F6E2070726576656E7465640A006F43
:1031E0006B0A00526573656E643A200020453A0010
:1031F000205A3A0020593A00583A004572726F72CC
:103200002077726974696E6720746F20454550524B
:103210004F4D210A0043522D3230204C69737461A6
:1032200000496D7072696D69656E646F2E2E2E0097
:10323000496D7072657369C3B36E205061757361B7
:10324000646100005CE0ECE811241FBECFEFD1E226
:10325000DEBFCDBF00E00CBF84B78093461414BE20
:103260000FB6F894A8958091600088618093600003
:10327000109260000FBE13E0A0E0B2E0ECEDFCEEB7
:1032800001E00BBF02C007900D92A036B107D9F73D
:1032900024E1A0E6B3E001C01D92A634B207E1F735
:1032A00019E1C3E2D9E100E006C021970109802FAE
:1032B000FE010E94D0F1C232D10780E00807A9F7D1
:1032C0000E9462E10C945DF60C9400008091B313AF
:1032D0008823F1F02FEF3FEF309345022093440213
:1032E00081508093B313E2EEF1E1882351F08150D5
:1032F000990B2BE1289FF001299FF00D1124EB552C
:10330000FD4E8BE1A7ECB1E101900D928A95E1F7BA
:103310002091B313211105C08091BE138064809366
:10332000BE1381E090E0A0E0B0E0211103C080E096
:1033300090E0DC0180937F0690938006A093810645
:10334000B09382061092840681E08093790683E030
:10335000809352020895FC0140830895CF93DF9338
:10336000EC01642F70E090E080E00E946BED29ECAE
:1033700038EC48EC5EE30E94D3F220E030E040E01D
:103380005FE30E94F7F10E9440F36883DF91CF91E1
:10339000089580913C020C945527E091930686E0B5
:1033A000E802F0011124E459F94F8091870690E07A
:1033B000958384830895CF93DF93EC01CB01BA0109
:1033C0000E946BED20E030E048EC52E40E94D3F222
:1033D0002FE632E143E85AE30E94F7F168837983EC
:1033E0008A839B83DF91CF910895CF93DF93EC0184
:1033F000CB01BA010E946BED20E030E048EC52E4D2
:103400000E94D3F22FE632E143E85AE30E94F7F13B
:10341000688379838A839B83DF91CF910895CF93CB
:10342000DF93EC01CB01BA010E9469ED2AE037ED90
:1034300043E25DE30E94D3F20E9440F36883798304
:103440008A839B83DF91CF910895CF93DF93EC0123
:10345000CB01BA010E946BED2AE037ED43E25DE358
:103460000E94D3F2688379838A839B83DF91CF9113
:103470000895CF93DF93EC01CB01BA010E946BED6D
:10348000688379838A839B83DF91CF910895CF935B
:10349000DF93EC01CB01BA010E946BED20E030E03C
:1034A00048EC52E40E94D3F22FE632E143E85AE3BB
:1034B0000E94F7F1688379838A839B83DF91CF91A0
:1034C0000895CF93DF93EC01CB01BA010E946BED1D
:1034D00020E030E040E251E40E94D3F22AE037EDF0
:1034E00043E25CE30E94F7F1688379838A839B83DC
:1034F000DF91CF910895FC01518340830895CF93CC
:10350000DF93EC01CB01BA010E946BED20E030E0CB
:103510004AE754E40E94D3F227E137EB41ED58E348
:103520000E94F7F1688379838A839B83DF91CF912F
:103530000895FC01A081B1811C92A281B3818C917C
:103540008F5F8C930280F381E02D90818CE0989FB7
:10355000800D1124E6E6F2E113AE84AF089590E009
:1035600080E00895CF93DF93C0916906D0916A06F9
:1035700081E0CE31D105E4F020E030E040E05FE3CF
:103580006091650670916606809167069091680665
:103590000E94F7F10E943BF36C1B7D0B77FF03C089
:1035A00071956195710981E0633071050CF080E0DF
:1035B000DF91CF91089590E080E008952091A412CA
:1035C000833021F425FD0CC024FD0CC030E0A9019E
:1035D00002C0559547958A95E2F7CA018170089512
:1035E00081E0089580E008958091850484FD0BC0FA
:1035F0008091870487FD07C090918804937081E0D3
:1036000019F480E0089581E008952FEB280F2A3106
:1036100008F047C0E22FF0E0809185049091860485
:10362000A0918704B091880404C0B695A79597959A
:1036300087952A95D2F780FD02C081700895E559DB
:10364000FB4FE081EE2341F1809113079091140725
:10365000E80FF92FF11D808190ED980F9A3030F02E
:103660008E3251F4818180538A3098F4F0936A0449
:10367000E093690481E008958D3211F08B3249F4B2
:10368000818190ED980F9A3088F38E3211F4828107
:10369000EACFF0E0E0E0EACF10926A041092690409
:1036A000E9CF80E00895B1DF882341F081E02091E7
:1036B000690430916A04232B09F480E00895809115
:1036C0002E11813069F09091BE1392FB882780F90A
:1036D00092FF07C097FB882780F991E0892708951A
:1036E00081E0089590913F1280913E12891718F061
:1036F000891B19F4E4CF805FFBCF81E00895CF925E
:10370000DF92EF92FF92CF93DF9300D01F92CDB75D
:10371000DEB76B017C0120E030E0A9010E9465ED7D
:1037200087FD1BC06DEB77E386E095E3A70196016B
:103730000E94F7F169837A838B839C83CE01019683
:103740000E949EA50F900F900F900F90DF91CF9148
:10375000FF90EF90DF90CF9008956DEB77E386E0D8
:1037600095EBE4CF0E946BED20E030E040E251E4C5
:103770000E94D3F22AE037ED43E25CE30E94F7F1C6
:10378000BECF8F929F92AF92BF92CF92DF92EF9275
:10379000FF92CF936B017C0120E030E0A9010E94F1
:1037A00065ED87FDC3C06DEB77E386E095E3A70188
:1037B00096010E94F7F16B017C0120E030E0A90145
:1037C0000E9465ED87FF04C0F7FAF094F7F8F094D3
:1037D00042E050E0C701B6010E9468A46B017C0181
:1037E00060E280E4C81682E4D8068FE0E806F104BF
:1037F0008CF0C701B60120E432E44FE050E00E94B3
:1038000061F1CA01B9012AE030E040E050E00E94D5
:1038100061F1605D6093360560E280EAC81686E873
:10382000D80681E0E806F1048CF0C701B60120EA71
:1038300036E841E050E00E9461F1CA01B9012AE096
:1038400030E040E050E00E9461F1605D6093370538
:1038500060E280E1C81687E2D806E104F1048CF04A
:10386000C701B60120E137E240E050E00E9461F17B
:10387000CA01B9012AE030E040E050E00E9461F165
:10388000605D6093380560E288EEC81683E0D80674
:10389000E104F1048CF0C701B60128EE33E040E00A
:1038A00050E00E9461F1CA01B9012AE030E040E035
:1038B00050E00E9461F1605D60933905C701B60177
:1038C00024E630E040E050E00E9461F18AE0882E7A
:1038D000912CA12CB12CCA01B901A50194010E941F
:1038E00061F1605D60933A058EE280933B05C7010C
:1038F000B601A50194010E9461F1C62FCA01B90168
:10390000A50194010E9461F1605D60933C05C05D7A
:10391000C0933D0586E395E0CF91FF90EF90DF9057
:10392000CF90BF90AF909F908F9008956DEB77E30D
:1039300086E095EB3CCF0E946BED20E030E048EC58
:1039400052E40E94D3F22FE632E143E85AE30E94A8
:10395000F7F117CF8F929F92AF92BF92CF92DF92E3
:10396000EF92FF92CF936B017C0120E030E0A90140
:103970000E9465ED87FD6AC06DEB77E386E095E315
:10398000A70196010E94F7F143E050E00E9468A46D
:103990006B017C01C114D104E104F10409F45BC0A2
:1039A000F7FE59C0F094E094D094C094C11CD11C8F
:1039B000E11CF11C8DE280933805C701B60128EEA9
:1039C00033E040E050E00E9461F18AE0882E912CC3
:1039D000A12CB12CCA01B901A50194010E9461F189
:1039E000605D609339058EE280933A05C701B601A8
:1039F00024E630E040E050E00E9461F1CA01B901E4
:103A0000A50194010E9461F1605D60933B05C701CF
:103A1000B601A50194010E9461F1C62FCA01B90146
:103A2000A50194010E9461F1605D60933C05C05D59
:103A3000C0933D0588E395E0CF91FF90EF90DF9034
:103A4000CF90BF90AF909F908F9008956DEB77E3EC
:103A500086E095EB95CF80E2AECF0E946BED20E043
:103A600030E04AE754E40E94D3F227E137EB41ED1E
:103A700058E30E94F7F16ECF862F0C940BA470E0F0
:103A800090E080E00E946BED29EC38EC48EC5EE3BE
:103A90000E94D3F220E030E040E05FE30E94F7F1C3
:103AA0000E9440F3862F0C9434A4CB010C94D7A32E
:103AB000CF93DF9300D01F92CDB7DEB70E9469EDA0
:103AC00069837A838B839C83CE0101960E9431A502
:103AD0000F900F900F900F90DF91CF9108950E945B
:103AE00069ED2AE037ED43E25DE30E94D3F20E94E4
:103AF00040F3DECFCF92DF92EF92FF92CF93DF932E
:103B000000D01F92CDB7DEB76B017C0120E030E022
:103B1000A9010E9465ED87FD1BC06DEB77E386E090
:103B200095E3A70196010E94F7F169837A838B835D
:103B30009C83CE0101960E9431A50F900F900F90AB
:103B40000F90DF91CF91FF90EF90DF90CF9008958D
:103B50006DEB77E386E095EBE4CF0E946BED2AE016
:103B600037ED43E25DE30E94D3F2C4CF0E946BEDD8
:103B7000C1CFCF92DF92EF92FF92CF93DF9300D02D
:103B80001F92CDB7DEB70E946BED20E030E048EC2D
:103B900052E40E94D3F22FE632E143E85AE30E9456
:103BA000F7F16B017C0120E030E0A9010E9465ED96
:103BB0002DEB37E346E055E387FF04C02DEB37E3F9
:103BC00046E055EBC701B6010E94F7F169837A839D
:103BD0008B839C83CE0101960E94B6A40F900F9018
:103BE0000F900F90DF91CF91FF90EF90DF90CF90EB
:103BF0000895CF92DF92EF92FF92CF93DF9300D0A0
:103C00001F92CDB7DEB70E946BED20E030E048ECAC
:103C100052E40E94D3F22FE632E143E85AE30E94D5
:103C2000F7F16B017C0120E030E0A9010E9465ED15
:103C30002DEB37E346E055E387FF04C02DEB37E378
:103C400046E055EBC701B6010E94F7F169837A831C
:103C50008B839C83CE0101960E9454A60F900F90F7
:103C60000F900F90DF91CF91FF90EF90DF90CF906A
:103C700008950C941A940C941A940C94CC930C946C
:103C8000CC930C94CC930C94CC93CF92DF92EF9284
:103C9000FF920F931F930E9467C1009193041091AC
:103CA000940420919504309196046B017C01C01A14
:103CB000D10AE20AF30A9701860137FD11C020916B
:103CC00092042095209392046A547C4F8F4F9F4F0B
:103CD0006093930470939404809395049093960456
:103CE00081E090919204911101C080E01F910F91A9
:103CF000FF90EF90DF90CF900895CF93DF93C09126
:103D00006906D0916A06209729F160916506709145
:103D1000660680916706909168060E943BF36E5F8D
:103D20007F4F24976C177D07ACF470936B056093FD
:103D30006A050E9467C1605A75418F4F9F4F60931B
:103D40006C0570936D0580936E0590936F05DF9100
:103D5000CF91089510926C0510926D0510926E052A
:103D600010926F05F4CF63E972E084E690E00E9460
:103D700081A870E060E08AE090E00E9481A86AEB90
:103D800072E084E690E00C9481A80E94C5A1EBCF7C
:103D90008111E9CF68E270E080E991E00C9481A89C
:103DA0000E94D590F5CF0E94ACB3F2CFEF92FF9274
:103DB0000F931F93CF93DF93EC018B017A018A85D8
:103DC0009B858617970731F0888199810E9408C4E6
:103DD0001B870A87B701888199810E949DBD2E812A
:103DE0003F81820F932F911D9F838E8390E080E00F
:103DF000DF91CF911F910F91FF90EF9008959F92C7
:103E0000AF92BF92CF92DF92EF92FF920F931F93E8
:103E1000CF93DF93EC018B01942EA52E8A859B8591
:103E20008617970731F0888199810E9408C41B8703
:103E30000A8788859985019649F5BC800A818E811B
:103E4000080FC880D980D6015596ED91FC91C60126
:103E50001995B80EE92CFA2C10E0F70121917F0199
:103E6000211127C08E819F81810F911D9F838E8399
:103E700090E080E0DF91CF911F910F91FF90EF9044
:103E8000DF90CF90BF90AF909F9008950E811F81DB
:103E9000692D7A2D888199810E949DBD800F912F77
:103EA000911D288539852817390738F681E090E07B
:103EB000E1CF4B2D602FC6010E9460C4080F180F80
:103EC000CCCFDF92EF92FF920F931F93CF93DF93AC
:103ED000EC01D62E1CAD0BAD7C0184E0E80EF11C8C
:103EE000E98DFA8DC7011995412F480F2D2D602FAF
:103EF000C7010E9460C49BAD890F8BAF81E090E049
:103F0000DF91CF911F910F91FF90EF90DF90089577
:103F1000AF92BF92DF92EF92FF920F931F93CF93D6
:103F2000DF938C01EB01D42E79018FE0481709F45F
:103F300088C0A5E14A17C1F1BAE04B130EC0EC816D
:103F4000FD8130E020E042E061E0C80119954CE0DD
:103F50005CE0BE01C8010E9409C50A80DB81C02D5A
:103F6000F2E3DF1609F4E4C0FD1508F493C085E11F
:103F7000D81609F4E2C0A7E1DA1609F4FCC0B4E1EE
:103F8000DB127DC0EE81FF818D8190E0880F991F4B
:103F90008E0F9F1F11928E179F07E1F71A8288815B
:103FA00081508B831C826BC0AA80BB8047EF5BE093
:103FB000C8010E9409C5F5014481440F406BBE0150
:103FC000C8010E94F1C441E0BE01C8010E94F9C4C9
:103FD000D50116962D913C911797EC81FD81159690
:103FE0004C9166E0C801199540E0BE01C8010E94ED
:103FF00001C547EF5BE0BE01C8010E9409C5F5019C
:104000004481440F4F5F406BBE01C8010E94F1C460
:1040100041E0BE01C8010E94F9C4D50115964C913A
:10402000159716962D913C91240F311DEC81FD8141
:1040300066E0C801199540E0BE01C8010E9401C5B3
:104040008CCF41E0C8010E9401C540E0BE01C8011B
:104050000E94F9C441E8BE01C8010E94F1C4F70101
:10406000408150E05595479555954795BE01C8014B
:104070000E94F1C440E0BE01C8010E9401C581E078
:10408000DF91CF911F910F91FF90EF90DF90BF9044
:10409000AF900895E6E4DE1609F47CC0F7E4DF167D
:1040A00009F47CC08BE3D812EACFD70111969C911A
:1040B000119713968C9138E0390F813031F08330AD
:1040C00011F0392F02C0392F985021E04B81491748
:1040D00008F420E041E0391708F040E091E05A810F
:1040E000351708F490E0322F342B932311F4242356
:1040F00031F2F701128100E0D12C843048F490E0D5
:10410000FC01EC56FD4FD08080579D4FDC010C9197
:1041100017FF04C0B701CE010E94DDC1F701808105
:104120008D0D80838181800F8183110F89F7A7CF47
:10413000B701CE010E94DDC1A2CF88819A81980F7C
:104140009A832981921770F59C819F5F9C839B8144
:10415000890F821710F08FEF820F8B83EE81FF8122
:104160008D8190E0880F991F8E0F9F1F11928E17DF
:104170009F07E1F784CFD7011C928A8111968C9317
:1041800011978D81815012968C9312978B81139683
:104190008C9375CF8D81F701808371CF8981D70191
:1041A0008C936DCF80E06CCF2F923F924F925F92B5
:1041B0006F927F928F929F92AF92BF92CF92DF9237
:1041C000EF92FF920F931F93CF93DF93CDB7DEB79C
:1041D0002D970FB6F894DEBF0FBECDBF70DA8823DF
:1041E00009F46CC00E94BDA24B015C0145E050E0A7
:1041F00060E270E08CE994E00E9409F685E4809327
:104200009A048AE380939B04C501B40120E13EE057
:1042100040E050E00E943FF1D22EC32E022F132F18
:104220008CE3282E312C412C512CC501B401A20164
:1042300091010E943FF1762E672ECA01B901A201B9
:1042400091010E943FF19E012F5F3F4F790130E8BD
:10425000831631E5930631E0A306B10408F447C0A4
:104260007F936F93C80168E170E00E94A9F19F936A
:104270008F93C501B40120E831E541E050E00E9490
:104280003FF13F932F9386EE9BE09F938F93FF9296
:10429000EF920E94FEECC7010E94B4EC0FB6F894B6
:1042A000DEBF0FBECDBF2CE030E0A901481B510995
:1042B000CA01B70186569B4F0E942EF62D960FB667
:1042C000F894DEBF0FBECDBFDF91CF911F910F914C
:1042D000FF90EF90DF90CF90BF90AF909F908F9026
:1042E0007F906F905F904F903F902F9008950115B1
:1042F000110599F46F927F927F936F938AED9BE003
:104300009F938F93FF92EF920E94FEEC0FB6F8946A
:10431000DEBF0FBECDBF85E0C6CF0436110538F431
:104320007F936F93CF92DF928EEC9BE0E9CF7F93E8
:104330006F93CF92DF9284EC9BE09F938F93FF92D9
:10434000EF920E94FEEC0FB6F894DEBF0FBECDBF19
:1043500086E0A9CFCF93C091A804CC23B1F04CE064
:1043600050E060E270E08AE994E00E9409F68C2F48
:104370000E940BA4FC0193E0AEE9B4E001900D9221
:104380009A95E1F785E28093A104CF910895CF92A9
:10439000DF92EF92FF920F931F93CF93DF93CDB7EE
:1043A000DEB72C970FB6F894DEBF0FBECDBFF090EE
:1043B000A112E090A2122091910421111DC04AE7A0
:1043C0005BE06E2D8F2D0E94CBC490E080E0F80E54
:1043D000F092A112E092A21299272C960FB6F894AF
:1043E000DEBF0FBECDBFDF91CF911F910F91FF9028
:1043F000EF90DF90CF900895C0906E12D0906F1222
:104400002AE632E13A8329832F2D30E03C832B8347
:104410002E2D30E03E832D8318861F827A87698790
:104420001C861B860FEF1EE19E012F5F3F4F4BED59
:1044300059E7BC01C6010E94D9B5B6018AE692E1EE
:104440000E9408C48F819885C2CF809169049091A1
:104450006A04009731F04AE050E070E060E00C94AC
:1044600086EB60E070E0CB01089580916904909143
:104470006A04009731F04AE050E070E060E00C948C
:104480005BEA60E070E0CB010895EFDFCB010895B7
:10449000ECDF97FD0AC0E9DF6F3F710581059105EB
:1044A00009F02CF4E2DF862F089580E008958FEF65
:1044B00008958091690490916A04892B39F0E8DFAE
:1044C00091E0811101C090E0892F089591E0FCCF27
:1044D000CF93DF93C82FD62FE6D8882319F0DF912A
:1044E000CF91E7CF8C2F91D8811101C08D2FDF9113
:1044F000CF9108950F931F93CF938091690490916A
:104500006A04009709F1FC018F01C1912C2F2F7DC6
:10451000A1F0C53431F0C53621F0C83511F0C837E7
:1045200099F7F801108270E060E00E9406E9F80156
:10453000C083CF911F910F91089570E060E0CF91FB
:104540001F910F910C9406E960E070E0CB01F1CF70
:104550004F925F926F927F92AF92BF92CF92DF9213
:10456000EF92FF920F931F93CF938CE8A82E82E0D7
:10457000B82E9FE4E92E95E0F92E01EC10E121ED33
:10458000C22E20E1D22EC0E0F50181915F018BD8CF
:10459000882309F477C0AEDF2B013C018C2F0ED8A5
:1045A000882309F465C0F80120813181428153815B
:1045B000C301B2010E94F7F1F70160837183828326
:1045C0009383CF5FF4E0EF0EF11C0C5F1F4F84E08C
:1045D000C80ED11CC330C1F685E465D8882309F420
:1045E0005CC088DF6B017C0183E00E94DE1A8823B7
:1045F00071F02091CD103091CE104091CF1050919C
:10460000D010C701B6010E94F7F16B017C01C09286
:104610005B05D0925C05E0925D05F0925E0586E454
:1046200042D88823B9F066DF20E030E0A9010E947B
:104630001DF418167CF45EDF20E030E040E752E421
:104640000E94D3F260930A0270930B0280930C02D3
:1046500090930D02CF911F910F91FF90EF90DF90FB
:10466000CF90BF90AF907F906F905F904F900895E4
:10467000F6012081318142815381C301B2010E9440
:10468000F6F19ACFF80180819181A281B381F7017F
:1046900080839183A283B38394CF8091CD10909136
:1046A000CE10A091CF10B091D01080935B05909365
:1046B0005C05A0935D05B0935E05B1CFCF93DF930A
:1046C000CDB7DEB720E2488559856F818E810E9483
:1046D000D2BCDF91CF910895282F10928F06809140
:1046E0007F0690918006A0918106B0918206B7FF67
:1046F00008C010927F0610928006109281061092D8
:10470000820680913305882331F080917F06809363
:10471000830610927906809178061816FCF4082E0C
:10472000000C990B821B910920918306022E000C2C
:10473000330B2817390794F097FF02C090E080E010
:1047400080938306092E000CAA0BBB0B80937F0677
:1047500090938006A0938106B09382068091830691
:104760006623A9F090918406891714F48093840637
:1047700020918406022E000C330B2C5F3F4F482FF4
:10478000082E000C550B241735071CF48450809319
:10479000840608958F929F92AF92BF92EF92FF92FC
:1047A0000F931F93CF93DF93EC018B01E42EF22E36
:1047B00080916412909165128C179D07D9F1109227
:1047C00063052EE4C834D20709F03FC089539844EA
:1047D00071F40E9467C16E517B4F8F4F9F4F609362
:1047E0001D0570931E0580931F0590932005D0939F
:1047F0006512C093641230E020E000937F061093AE
:1048000080062093810630938206E0928406F0921F
:104810007806C953D84421F410929E0610921C05C4
:1048200082E08093520281E08093790610923005F5
:1048300010922305DF91CF911F910F91FF90EF9080
:10484000BF90AF909F908F90089528E4C933D2070E
:1048500071F688549E44D9F40E9467C180901D056A
:1048600090901E05A0901F05B09020056819790949
:104870008A099B0997FF0BC080910E0687708730CD
:1048800031F40E94721BCEEFDDE78111B0CFC9E396
:10489000D8E4ADCFCF93C1E0C0939E06FC018081E8
:1048A0009181A281B3818093180290931902A09301
:1048B0001A02B0931B0220E040E070E060E08091BB
:1048C00085069091860666DFC0936305CF910895B3
:1048D00020E040E070E060E089E398E45BCF8FED9A
:1048E00090E10E941180F4DF0C943FB6CF930E94B8
:1048F000C5A10E94D590C82F882319F080E00E949E
:1049000044908C2F45DACF91E3CF86E89EE09093D8
:104910001E0680931D06DCCF0F931F93CF93DF936A
:10492000CDB7DEB76E970FB6F894DEBF0FBECDBF22
:1049300080919306282F082E000C330BF901EE0FFF
:10494000FF1FEA5EFD4F91819F9390819F933F935C
:104950008F9382E99DE09F938F938E010F5F1F4F8E
:104960001F930F930E94FEEC4FE350E0B8018FE1DC
:1049700096E00E9443F6ACDF0FB6F894DEBF0FBEA0
:10498000CDBF6E960FB6F894DEBF0FBECDBFDF91E0
:10499000CF911F910F910895CF93DF93C0911C0584
:1049A000CC23B1F0C150C0931C0589E0C89FE00141
:1049B0001124C952DB4F6A817B812F814E8188810E
:1049C0009981E8DE888580939E06DF91CF910895D6
:1049D000DF91CF917DCFEF92FF920F931F93CF93F3
:1049E000DF9361E081E078DEC091840685E0F82EF7
:1049F000FC0ED3E0DC1B12E01C1B01E00C1BEC2EB8
:104A0000E194C1112CC0809183068823B1F080917C
:104A10005202882359F081E090918306911180E041
:104A200024E04BE950E16E2D0E94D2BCCF5FFC1216
:104A3000E8CF84E0809378060BC080917A061092CC
:104A40007A06882321F3A8DF809179068823F9F27A
:104A5000DF91CF911F910F91FF90EF900895C1309A
:104A600011F580918306813079F08091520288237C
:104A7000E9F281E090918306913009F080E023E033
:104A80004BE850E1602FD0CF80917A0610927A06E1
:104A9000882359F389EF9FE20E947AA980917906D1
:104AA000882319F3D5CFC23091F5809183068230E7
:104AB00081F080915202882309F4B8CF81E090916F
:104AC0008306923009F080E023E049E750E1612F4E
:104AD000ABCF80917A0610927A06882351F387E84B
:104AE00090E30E947AA980917906882311F3B0CFD0
:104AF00080917A0610927A06882381F08AE191E308
:104B00000E947AA980917906882341F0A1CFC33011
:104B100009F08CCF80918306833051F3809152024B
:104B2000882309F483CF81E090918306933009F0C4
:104B300080E023E04DE650E16D2F76CFE0911C053B
:104B4000E63028F581E08E0F80931C0540917F06AA
:104B500050918006609181067091820620918406B2
:104B60009091780680919E0639E0E39FF001112430
:104B7000E952FB4FA0916412B0916512B183A083FA
:104B80004283538364837583268397838087089544
:104B90002F923F924F925F926F927F928F929F924D
:104BA000AF92BF92CF92DF92EF92FF920F931F933B
:104BB000CF93DF9300D000D0CDB7DEB71C017A834E
:104BC00069832B833C834D835E832701380181E019
:104BD00080937906B3DF83E08093520230921B0505
:104BE00020921A0589819A8190931905809318055E
:104BF0008B819C81AD81BE818093140590931505B6
:104C0000A0931605B0931705409210055092110518
:104C10006092120570921305A0927F06B0928006F2
:104C2000C0928106D09282069092651280926412A0
:104C30008C8D9D8D90930F0580930E058E8D8093A6
:104C40000D0526960FB6F894DEBF0FBECDBFDF91DF
:104C5000CF911F910F91FF90EF90DF90CF90BF9079
:104C6000AF909F908F907F906F905F904F903F900C
:104C70002F900895CF93DF93CDB7DEB78E81282F85
:104C8000082E000C330B909187119217130609F030
:104C90009CF4809387119E01275F3F4F4F81588579
:104CA00064E570E082E391E10E942DED10923111F4
:104CB0001092301110922F11DF91CF9108950F9320
:104CC0001F93CF93DF938C016F3F19F410928711DC
:104CD00060E020918711862F062E000C990B281773
:104CE000190609F024F560938711C8010E94B4ECFD
:104CF000800F911FEC01C01BD10BC535D1053CF0D5
:104D00000197FC012491207C2038D1F3F3CFDD27DB
:104D1000AE01B80182E391E10E94D5ECCE5CDE4E9B
:104D20001882109231111092301110922F11DF91D0
:104D3000CF911F910F910895CF938091CF0481114E
:104D400009C084E49DE0909322058093210581E0D1
:104D50008093CF04F3DE20E040E070E060E081EC7F
:104D600091E318DDC1E0C0939E060E943D9410922D
:104D70009E0612DEC0939E0660E080E392E39FDF12
:104D800080E49DE090931E0680931D06CF910895C8
:104D90000F931F930E9467C10091CB041091CC0424
:104DA0002091CD043091CE04601B710B820B930BCC
:104DB00097FD0CC086B186FB882780F991E0892792
:104DC000349B8260329B84608093CA048091CA04C1
:104DD00081709091CA0491FD82609091C9049817E6
:104DE00049F0813009F148F0823079F0833091F058
:104DF0008093C9041F910F910895913079F09230FA
:104E0000B9F79091C80491500CC0992339F09330B0
:104E1000C1F3EECF9130A9F3923051F79091C804CD
:104E20009F5F9093C804E4CF992359F3933001F71F
:104E3000F5CFCF92DF92EF92FF92CF93C82F0E94CF
:104E400067C16B017C0124EA30E74DE75FE36091C5
:104E500018027091190280911A0290911B020E940F
:104E600065ED87FD18C08AEF90E0A0E0B0E08C0D02
:104E70009D1DAE1DBF1D8093BC049093BD04A093E7
:104E8000BE04B093BF04C0931502CF91FF90EF9082
:104E9000DF90CF90089580E090E0DC01E8CF8F3084
:104EA00010F48F5F08958F5008951F93CF93DF9371
:104EB0001F92CDB7DEB7182F863AF0F015EA10939F
:104EC0003C028091A312811105C081E08093A3125E
:104ED0000E9414C260916C1270916D1219839E0130
:104EE0002F5F3F4F4FE08AE692E10E9410C20F9081
:104EF000DF91CF911F9108958C3808F71CE8DFCF20
:104F00009CE0899F802D112491E0980F909390044C
:104F10002CE0280F2093920630E02E5F3F4F409107
:104F20009E124217130619F014F080E008952091A4
:104F3000A0129217D0F7662341F08E5F0E9436C30D
:104F4000809192068E5F0E9436C380919206909166
:104F50009E12891750F32091A01290919004291766
:104F600020F31092A1128093A21281E00895CF93B2
:104F700080918F0481114FC01092A1121092A21241
:104F80001092A31210926F1210926E121092711260
:104F9000109270121092731281E08093721282E26A
:104FA000809374121092791210927812EDE8F2E167
:104FB0002BE932E18FEF81932E173F07E1F7C1E034
:104FC000C0938A122AE334EB3093801220937F122D
:104FD000C0938112109282121092831290E49093E7
:104FE00084121092851229E334EB30939C122093A3
:104FF0009B122EE032E030936D1220936C1299E1F7
:1050000090938F129BE190938E1280938D120E9449
:1050100014C2C0938F0480913C0247DF81E08093EB
:1050200091048AEB9BE090938911809388111092F0
:105030008B1110928A11CF91089599DF3E98469A6C
:105040003C98449A3A98429AA3DE1092C8040C9471
:105050003FB620918E04022E000C330B82171306EC
:1050600041F080938E046CEC71E18AE692E10C943D
:1050700008C40895EF92FF920F931F93CF93DF938D
:10508000CDB7DEB72C970FB6F894DEBF0FBECDBFFD
:10509000FC0160817181828193816F3F710581057F
:1050A000910509F0C0F486E692E10E94611FE0914B
:1050B0006E12F0916F123196849190E02C960FB69B
:1050C000F894DEBF0FBECDBFDF91CF911F910F913E
:1050D000FF90EF9008951091A1120091A2122091DB
:1050E000910421110FC04AE95BE0602F812F0E94DB
:1050F000CBC490E080E0180F1093A1120093A2128D
:105100009927DCCFE0906E12F0906F122AE632E120
:105110003A832983212F30E03C832B83202F30E0FA
:105120003E832D8318861F822FEF3FEF3A87298712
:105130001C861B862FEF3EE1AE014F5F5F4FBF0124
:10514000C7010E9414B5B7018AE692E10E9408C423
:105150008F819885D0CF4F925F926F927F928F927E
:105160009F92AF92BF92CF92DF92EF92FF920F93F6
:105170001F93CF93DF9300D000D01F921F92CDB723
:10518000DEB76C015A014901FB0190818CE0989FC8
:10519000800D1124982FF6012081822F880F820F15
:1051A000880F8093A1129093A2124115510509F422
:1051B000A0C0DA82C9827C836B83011122C0AE0158
:1051C0004B5F5F4FB401C5010E94C9A85C018D818E
:1051D0009E81AF81B885892B8A2B8B2B09F489C0DE
:1051E000CE01059647DFF60180818F5F8083853190
:1051F00030F3CE0101960E94991AE1CF10E07501BB
:105200000DC07A0110E00AC0E114F104B9F38FEF88
:10521000E81AF80A10E0E114F10489F3AE014B5FDB
:105220005F4FB401C5010E94C9A85C014D805E803A
:105230006F8078844114510461047104E9F0F0E254
:105240004F16510461047104A9F0D301C2018D9776
:10525000A109B1090297A105B10570F04BE244160E
:1052600051046104710441F05AE04516510461048F
:105270007104E9F5112341F2F6018081482F410FB5
:105280005527551F4631510534F0853020F0CE01A9
:1052900001960E94991A81E041145104610471043D
:1052A00009F480E0180FF6018081810F80831123BB
:1052B00069F01150AE014B5F5F4FB401C7010E940E
:1052C000C9A87C01CE010596D5DEF1CF4114510469
:1052D0006104710471F0FAE04F1651046104710425
:1052E00009F08CCFCE0101960E94991A88CF1F5FDA
:1052F00092CF28960FB6F894DEBF0FBECDBFDF91D8
:10530000CF911F910F91FF90EF90DF90CF90BF90C2
:10531000AF909F908F907F906F905F904F90089587
:105320002F923F924F925F926F927F928F929F92B5
:10533000AF92BF92CF92DF92EF92FF920F931F93A3
:10534000CF93DF9300D0CDB7DEB74C013B015A01BC
:105350002B83232E280181E080939E0640917F06B7
:105360005091800660918106709182064115510529
:105370006105710571F0141615060CF080E080933C
:10538000230510927F0610928006109281061092DB
:1053900082061091230530907A0610927A06311019
:1053A00005C080915202882309F46CC0C2010E949A
:1053B000ADA8082F80E0C114D10419F0C6010E94E5
:1053C000ADA81A821982E114F104B1F4402F50E023
:1053D000282F30E0CA01820F931F46976CF485E1B5
:1053E00090E0841B950B821B930B97FD019695957E
:1053F00087958A8381E0898301E02BED39E7A2015B
:10540000BE016F5F7F4FCE010296A5DEE114F1046D
:1054100089F08A81882321F01A8289818F5F8983AC
:1054200000E02EED39E7A701BE016F5F7F4FCE018F
:10543000029691DEC114D10451F000E02BED39E762
:10544000A601BE016F5F7F4FCE01029684DE41E070
:105450004127B30181E00E94A5C3C4010E94ADA809
:10546000412FB40194E1981B892F0E94A5C33320DA
:1054700049F0111102C0AB80B22CA114B104C1F0EB
:10548000F50119950F900F900F90DF91CF911F911B
:105490000F91FF90EF90DF90CF90BF90AF909F90D3
:1054A0008F907F906F905F904F903F902F900895D6
:1054B00073DAE8CFCF92DF92EF92FF920F931F93B0
:1054C0008091EC10811119C08FED90E12AE7C22E76
:1054D00021E1D22E7C010CE711E130E020E04FE623
:1054E00054E26FE871E188E991E11ADF1F910F91B1
:1054F000FF90EF90DF90CF9008958CEE90E1E6CF93
:10550000CF92DF92EF92FF920F931F938BEAC82EF8
:1055100080E1D82EF12CE12C04E411E130E020E010
:1055200045E258E46DEA70E184EB90E1F9DE1F9109
:105530000F91FF90EF90DF90CF900895CF92DF9280
:10554000EF92FF920F931F9383E7C82E8EE0D82E21
:10555000F12CE12C0BE81EE030E020E046E754E2BD
:1055600065E77EE08EE79EE0DBDE1F910F91FF9006
:10557000EF90DF90CF900895AF92BF92CF92DF92DD
:10558000EF92FF920F931F93CF93DF93CDB7DEB7C8
:10559000ADB6BEB686E69DE00E94ADA890E001964D
:1055A0002DB73EB7281B390B0FB6F8943EBF0FBE80
:1055B0002DBF8DB79EB701967C0166E67DE00E9407
:1055C000ADECE0918706E15010E000E0E43038F403
:1055D000F0E0EE0FFF1FE35FFC4F0081118183E5D8
:1055E000C82E8DE0D82E28E634E246E754E265E581
:1055F0007DE08CE59DE094DE0FB6F894BEBE0FBE54
:10560000ADBEDF91CF911F910F91FF90EF90DF9092
:10561000CF90BF90AF9008956FEF7FEF0C94C721AC
:10562000E6E6F2E183AF64AFCA01F6CFF5CFCF93E0
:10563000DF93FC0125AD211104C021E025AF0E94BC
:1056400014C2C0916C12D0916D12E0919B12F09136
:105650009C1282E01995E0919B12F0919C1281E0DE
:10566000199530E020E044E1BE018AE692E10E9413
:1056700010C22DE932E147E1BE018AE692E10E94C3
:1056800010C2E0919B12F0919C1280E0DF91CF91CB
:1056900019944F925F926F927F928F929F92AF92E6
:1056A000BF92CF92DF92EF92FF921F93CF93DF933F
:1056B000CDB7DEB760970FB6F894DEBF0FBECDBF93
:1056C0000E9467C16B017C01809115028F3F09F434
:1056D00046C00E9467C18090BC049090BD04A09019
:1056E000BE04B090BF04681979098A099B0997FD27
:1056F00036C080913E12D3DB90913F12891779F129
:10570000E091150280E090E0A5E0B3E4E43050F4CD
:1057100024E0E29FF0011124E856FD4F8081918141
:10572000A281B3818D879E87AF87B88B19821A8239
:105730001B821C821D821E821F82188619861A8671
:105740001B861C86AE014F5F5F4FBE01635F7F4FBC
:1057500081EC90E10E945BDE8FEF8093150218DBF5
:105760008091CA0482FF33C08091C704811131C087
:1057700091E09093C7048091A506892780937A06CB
:105780001092A50683E0809352021092CA040E94F0
:1057900067C16C507E4F8F4F9F4F6093CB047093C7
:1057A000CC048093CD049093CE0468E873E182E04A
:1057B00090E00E9481A816E0115059F00E9425A89F
:1057C00062E070E080E090E00E94CDC0F5CF1092E2
:1057D000C70480919A0690919B06A0919C06B09177
:1057E0009D06A7019601281B390B4A0B5B0BDA01BA
:1057F000C901B7FF05C080913005882309F4EDC1C8
:10580000D701C6018C599F4FAF4FBF4F80939A0667
:1058100090939B06A0939C06B0939D066091C8044C
:10582000062E000C770B77FF03C071956195710907
:105830009091C8048091C604981368C0633008F042
:1058400065C01092C8048091C8048093C604653076
:1058500008F06EC080917A068111ECC080916412CC
:105860009091651238E48933930709F007C180915C
:105870005002882309F4F0C08150809350020E94A6
:10588000B9958090360790903707A0903807B09070
:10589000390781110E94C695D501C4013AE0B69539
:1058A000A795979587953A95D1F78F3F5FEF950725
:1058B000A105B10520F08FEF9FEFA0E0B0E0969535
:1058C000879520915202211108C130913005311184
:1058D000B3C180916412909165128953984409F480
:1058E00092C180919E0681118EC18091C2049091D7
:1058F000C304A091C404B091C504C81AD90AEA0A25
:10590000FB0AF7FC8EC10E9468248BC18DEF860FC5
:10591000823008F098CF8091C80491E087FD9FEF16
:10592000892F880F880F890F8093C80465E08BCF7B
:1059300080918F0621E030E040E050E0882309F4B8
:1059400056C080908B0690908C06A0908D06B090EB
:105950008E0681149104A104B104E9F170E090E095
:1059600080E00E9469ED20E030E040EA50E40E94CF
:10597000D3F22B013C01C701B601681979098A09E4
:105980009B090E9469ED9B01AC01C301B2010E9419
:10599000D3F220E030E04AE754E40E94CAED4B0124
:1059A0005C0120E030E040EA52E40E941DF424E66D
:1059B00030E040E050E087FF12C020E030E040EFF0
:1059C00051E4C501B4010E941DF42AE030E040E03A
:1059D00050E087FF04C021E030E040E050E0C0929A
:1059E0008B06D0928C06E0928D06F0928E06A091E6
:1059F000C8040A2E000CBB0B0E9487F125E030E0A2
:105A000040E050E00E9461F180917F069091800615
:105A1000A0918106B0918206820F931FA41FB51F2B
:105A200080937F0690938006A0938106B0938206B0
:105A30001092C804D701C601805A9541AF4FBF4F9D
:105A40008093C2049093C304A093C404B093C5048C
:105A500081E08093520202CF8CE0809350028091CB
:105A6000C0049091C104009729F001979093C1045C
:105A70008093C00481E08093520201CF84549E45FC
:105A800009F0FDCE809150029FEF980F9093500245
:105A90008111F5CE809190068F5F80939006909152
:105AA000910624E0891708F02CE020935002981703
:105AB00010F41092900681E080935202D701C60143
:105AC000805A9541AF4FBF4F8093C2049093C30457
:105AD000A093C404B093C504D2CE009741F0409186
