:100000000C94BC190C94FC190C94FC190C94FC195C
:100010000C94FC190C94FC190C94FC190C94FC190C
:100020000C94FC190C94FC190C94FC190C94FC19FC
:100030000C94FC190C9429F40C94FC190C94FC19E4
:100040000C94FC190C94E6970C94FC190C94FC1974
:100050000C94FC190C9452960C94FC190C94DFF33C
:100060000C94FC190C9425660C941B660C94FC19DA
:100070000C94FC190C94FC190C94FC190C94FC19AC
:100080000C94FC190C94FC190C94FC190C94FC199C
:100090000C94FC190C94FC190C94FC190C94FC198C
:1000A0000C94FC190C94FC190C94FC190C94FC197C
:1000B0000C94FC190C94FC190C94FC190C94FC196C
:1000C0000C94FC190C94FC190C94FC190C94FC195C
:1000D0000C94FC190C94FC190C94FC190C94FC194C
:1000E0000C94FC19084AD73B3BCE016E84BCBFFD83
:1000F000C12F3D6C74319ABD56833DDA3D00C77FF8
:1001000011BED9E4BB4C3E916BAAAABE0000008090
:100110003F05A84CCDB2D44EB93836A9020C50B91F
:10012000918688083CA6AAAA2ABE000000803F0744
:10013000634236B79BD8A71A39685618AEBAAB5582
:100140008C1D3CB7CC5763BD6DEDFD753EF6177247
:1001500031BF000000803F08000000BE9224491219
:100160003EABAAAA2ABECDCCCC4C3E00000080BE3D
:10017000ABAAAAAA3E00000000BF000000803F001A
:1001800000000000084178D3BB4387D1133D190E0E
:100190003CC3BD4282AD2B3E68EC8276BED98FE176
:1001A000A93E4C80EFFFBE01C4FF7F3F000000006E
:1001B00000000D9456120D9461180D94B0110D9419
:1001C0008F110D94D50D0D94A1110D9421114E4157
:1001D0004E494E495459494E46CDCCCC3D0AD723C1
:1001E0003C17B7D13877CC2B329595E6241FB14F09
:1001F0000A000020410000C84200401C4620BCBE4E
:100200004CCA1B0E5AAEC59D74434F4D4D554E49B9
:10021000434154494F4E0044525952554E004552A5
:10022000524F525300494E464F004543484F0045F8
:1002300072726F722077726974696E6720746F20B2
:10024000454550524F4D210A00506F72206661762D
:100250006F722C207265696E6963696500494D5043
:100260005245534F524120444554454E4944410064
:1002700025533A202553004D5545525441005072A4
:10028000696E7465722068616C7465642E206B6998
:100290006C6C28292063616C6C6564210A006563BD
:1002A000686F3A004572726F723A004F4646004FCF
:1002B0004E000A4D6561737572656420706F696EDA
:1002C00074733A0A00337833206D6573682E205AB0
:1002D000206F66667365743A200020460020570040
:1002E00020204D3230372053002046002057002078
:1002F000204D32303820530020204D3230392053E9
:10030000004F46460A004661646520486569676893
:10031000742000426564204C6576656C696E6720C8
:10032000004661696C656420746F20656E61626C63
:100330006520426564204C6576656C696E670A00CD
:100340004D65736820426564204C6576656C206459
:100350006174613A0A00496E76616C6964206D656A
:1003600073682E0A00206E6F7420656E7465726566
:10037000642E0A00536F6E646561722050756E744E
:100380006F0025532025692F256900206F66200006
:100390004D424C2047323920706F696E742000291D
:1003A0000A004A206F7574206F662072616E67655F
:1003B0002028302D00290A0049206F7574206F66AF
:1003C0002072616E67652028302D004732384C302E
:1003D000004D6573682070726F62696E6720646F8C
:1003E0006E65004D6573682070726F62696E67207C
:1003F000646F6E652E0A005374617274206D6573AC
:10040000682070726F62696E672077697468202255
:10041000473239205331222066697273742E0A00E4
:10042000473239533200686173206E6F2064617403
:10043000612E0A004D65736820426564204C657624
:10044000656C696E67200053206F7574206F66209D
:1004500072616E67652028302D35292E0A002044F0
:100460000020204D32303020540020204D323030DA
:10047000205300202844697361626C6564293A0046
:1004800046696C616D656E742073657474696E671E
:10049000730020204D32303120540020204D323066
:1004A000312058004D617820416363656C6572614D
:1004B00074696F6E2028756E6974732F733229000A
:1004C00020204D32303320540020204D3230332054
:1004D00058004D61782066656564726174657320AB
:1004E00028756E6974732F73290020520020204DE7
:1004F000323034205000416363656C657261746909
:100500006F6E2028756E6974732F733229202850FE
:100510003C7072696E742D616363656C3E20523C61
:10052000726574726163742D616363656C3E2054FF
:100530003C74726176656C2D616363656C3E290065
:10054000204A0020540020530020204D3230352016
:100550004200416476616E6365642028423C6D69A7
:100560006E5F7365676D656E745F74696D655F75E9
:10057000733E20533C6D696E5F666565647261749D
:10058000653E20543C6D696E5F74726176656C5F88
:1005900066656564726174653E204A3C6A756E6387
:1005A0005F6465763E290020204D32313700546F5C
:1005B0006F6C2D6368616E67696E670020204D3235
:1005C0003138205400486F74656E64206F6666731E
:1005D0006574730020440020490020204D333031E1
:1005E000205000486F74656E6420504944002044D8
:1005F0000020490020204D333034205000426564F3
:10060000205049440020450020204D39322054001C
:1006100020204D3932205800537465707320706566
:100620007220756E6974003B200020496E76616C03
:100630006964206578747275646572200052657013
:100640006F736F2E2E2E004D65736820706F696E6C
:1006500074206F7574206F662072616E67650A0082
:1006600050756C7361722070617261205265616EA9
:10067000756461720053696E206D6F76696D69658E
:100680006E746F00456E642066696C65206C6973DA
:10069000740A00426567696E2066696C65206C6942
:1006A00073740A004E6F206D656469610A00286EDC
:1006B0006F2066696C65290043757272656E7420DF
:1006C00066696C653A20004E6F7420534420707246
:1006D000696E74696E670A005344207072696E74A3
:1006E000696E67206279746520002E0A0044656C8B
:1006F0006574696F6E206661696C65642C2046695B
:100700006C653A200046696C652064656C657465AB
:10071000643A005072696E742074696D653A200005
:100720000A53746174733A2046696C616D656E7426
:1007300020757365643A20002C204C6F6E676573DA
:1007400074206A6F623A2000546F74616C2074697F
:100750006D653A200053746174733A20002C204672
:1007600061696C65643A20002C2046696E69736883
:1007700065643A20005072696E74733A20005374B5
:100780006174733A20006F6B006F6666002A022561
:10079000021E021702090244454255473A004D31F4
:1007A0003133205300536F766F6C20535630322014
:1007B0004F46462E00434F4E4649475F4558504FDF
:1007C0005254004D4541545041434B00434F4F4C10
:1007D00045525F54454D5045524154555245004392
:1007E00048414D4245525F54454D50455241545544
:1007F000524500424142595354455050494E4700DA
:1008000041524353004D4F54494F4E5F4D4F444565
:100810005300544845524D414C5F50524F5445434C
:1008200054494F4E00455854454E4445445F4D325F
:100830003000435553544F4D5F4649524D57415236
:10084000455F55504C4F4144004C464E5F5752490E
:100850005445004C4F4E475F46494C454E414D452F
:10086000004155544F5245504F52545F53445F53CB
:1008700054415455530053445F5752495445005214
:100880004550454154004D554C54495F564F4C55C9
:100890004D45005344434152440050524F4D505433
:1008A0005F535550504F525400484F53545F41438B
:1008B00054494F4E5F434F4D4D414E445300454DBB
:1008C000455247454E43595F5041525345520043AC
:1008D0004153455F4C494748545F42524947485449
:1008E0004E45535300544F47474C455F4C4947488A
:1008F000545300534F4654574152455F504F57454C
:1009000052004255494C445F50455243454E5400B5
:100910004C4556454C494E475F44415441005A5F4F
:1009200050524F42450052554E4F55540041555478
:100930004F4C4556454C005052494E545F4A4F4229
:100940000050524F4752455353004155544F524562
:10095000504F52545F54454D50004155544F5245ED
:10096000504F52545F504F5300564F4C554D4554C5
:1009700052494300454550524F4D0042494E415265
:10098000595F46494C455F5452414E5346455200CB
:1009900053455249414C5F584F4E5F584F464600B1
:1009A0004649524D574152455F4E414D453A4D6182
:1009B000726C696E20322E312E322E3820284A7504
:1009C0006E20323820323032362030393A30313AE7
:1009D00034302920534F555243455F434F44455FC0
:1009E00055524C3A6769746875622E636F6D2F4D6E
:1009F00061726C696E4669726D776172652F4D61C7
:100A0000726C696E2050524F544F434F4C5F5645A5
:100A10005253494F4E3A312E30204D414348494EB2
:100A2000455F545950453A536F766F6C205356309A
:100A3000322045585452554445525F434F554E5409
:100A40003A3220555549443A6365646532613266ED
:100A50002D343161322D343734382D396231322D15
:100A6000633535633632663336376666002F2F00BE
:100A70004D31343520533C696E6465783E206F7586
:100A800074206F662072616E67652028302D3129D1
:100A90000A003F4A206F7574206F662072616E678E
:100AA000652028302E303120746F20302E33290AF3
:100AB0000020580020204D61783A2000200020209E
:100AC0004D696E3A2000203B200020204D3231310C
:100AD000205300536F667420656E6473746F707377
:100AE00000250A0046523A0020466C6F773A2000F3
:100AF0004D424C2041646A757374205A00496E76E9
:100B0000616C69642065787472756465720A00644A
:100B1000697300656E0043290A0061626C65642098
:100B2000286D696E2074656D702000436F6C6420C1
:100B300065787472756465732061726520004D6517
:100B4000736820706F696E74206F7574206F6620F3
:100B500072616E67650A004D34323120696E636FD1
:100B6000727265637420706172616D657465722064
:100B700075736167650A004465736661736520611A
:100B8000706C6963616461004D494E2F4D4158207E
:100B9000546F6F2046617200546F6F20666172203F
:100BA00066726F6D204D494E2F4D41580A004545E4
:100BB00050524F4D204F4B0A002E0A002028302D56
:100BC000313029002076616C7565206F7574206F57
:100BD000662072616E676500416476616E636520B0
:100BE0004B004D383400446F6E65207072696E742E
:100BF000696E672066696C650A004D3737004D33B2
:100C00003100416374697665204578747275646556
:100C1000723A200020590020204D323036205800F2
:100C2000486F6D65206F6666736574004361703A46
:100C30000047322F47332062616420706172616D1A
:100C400065746572730A002569730025696D202536
:100C50006973002569682025696D20256973002561
:100C60006964202569682025696D20256973002540
:100C7000697920256964202569682025696D20250A
:100C800069730020573A00456E667269616E646F41
:100C90002E2E2E004525632025530020573A00456F
:100CA0006E667269616E646F2043616D612E2E2ED7
:100CB0000043616C656E74616E646F2043616D61A9
:100CC0002E2E2E0023646566696E652044454641DC
:100CD000554C545F00004245445F004B4420004B9C
:100CE0004920004B5020002066696E697368656476
:100CF000212050757420746865206C617374204BDA
:100D0000702C204B6920616E64204B6420636F6EF1
:100D10007374616E74732066726F6D2062656C6FA0
:100D20007720696E746F20436F6E666967757261B4
:100D300074696F6E2E680A00504944204175746FC3
:100D400074756E6500206661696C65642120746944
:100D50006D656F75740A00504944204175746F7455
:100D6000756E6500206661696C6564212054656D4F
:100D7000706572617475726520746F6F2068696741
:100D8000680A00504944204175746F74756E65009F
:100D9000504944204379636C6573002553202569CD
:100DA0002F256900204B643A2000204B693A20002F
:100DB000204B703A200020436C61737369632050AC
:100DC0004944200A00204E6F206F76657273686F69
:100DD0006F740A002054753A2000204B753A2000A9
:100DE000206D61783A2000206D696E3A2000206401
:100DF0003A200020626961733A200043616C656E9D
:100E000074616E646F2E2E2E002073746172740AEA
:100E100000504944204175746F74756E65002066FA
:100E200061696C6564212054656D706572617475CB
:100E3000726520746F6F20686967680A00504944C2
:100E4000204175746F74756E65005049442041757A
:100E5000746F2D616A75737465003F284329796347
:100E60006C6573206E6F7420706C61757369626C51
:100E70006520283E3D33292E0A00206661696C6595
:100E80006421204261642068656174657220696430
:100E90000A00504944204175746F74756E6500A155
:100EA0000000006900A20000006300B0000000091B
:100EB00000C10000004100C20000004100C300006A
:100EC000004100C40000004100C50000004100C610
:100ED0000000004145C70000004300C80000004575
:100EE00000C90000004500CD0000004900D100000D
:100EF000004E00D50000004F00D60000004F00D784
:100F00000000007800DC0000005500DD0000005902
:100F100000E00000006100E10000006100E200006C
:100F2000006100E30000006100E40000006100E5F2
:100F30000000006100E60000006165E7000000635A
:100F400000E80000006500E90000006500EA00001C
:100F5000006500EB0000006500EC0000006900ED9A
:100F60000000006900EE0000006900EF0000006969
:100F700000F10000006E00F20000006F00F30000BE
:100F8000006F00F40000006F00F50000006F00F635
:100F90000000006F00F80000006F00F9000000750D
:100FA00000FA0000007500FB0000007500FC000066
:100FB000007500FD0000007900FF000000790004CA
:100FC000010000410005010000610006010000432E
:100FD000000701000063000C01000043000D010048
:100FE0000063000E01000044000F010000640011C6
:100FF00001000064001901000065001A01000045AD
:10100000001B01000065001F0100006700300100A7
:10101000004900310100006900410100004C00421C
:101020000100006C00430100004E00440100006E0E
:1010300000480100006E00580100005200590100F4
:101040000072005A01000053005B01000073005F52
:101050000100007300600100005300610100007393
:10106000006501000074006F01000075007C010044
:10107000007A007D0100005A007E0100007A009293
:101080000100006600E30200007800222000002E2C
:10109000001E210000507822210000544D902100B4
:1010A000003C2D922100002D3EB02100000300BB2A
:1010B00021000004003C2200007E00482200007E47
:1010C0003D60220000213D612200003D00642200BD
:1010D000003C3D652200003E3DF12300000700A0DA
:1010E0003000003D0021F301000200C2F4010005C0
:1010F00000A1000000A900A2000000A400A30000BD
:1011000000A500A5000000A600A7000000D200A9CD
:10111000000000CF00AA0000009D00AB000000BB53
:1011200000AE000000CE00B0000000B200B1000030
:10113000001000B20000001E00B30000001F00B647
:10114000000000D300BA0000009E00BB000000BCFD
:1011500000BC000000B600BD000000B500BF0000EC
:10116000009F00C20000008F00C3000000AA00C45E
:101170000000008E00C60000009200C70000008042
:1011800000C90000009000D10000009C00D50000C4
:1011900000AC00D60000009900D7000000B700D8CE
:1011A000000000AE00DC0000009A00E000000085B6
:1011B00000E1000000A000E20000008300E3000066
:1011C00000AB00E40000008400E50000008600E6BB
:1011D0000000009100E70000008700E80000008A9E
:1011E00000E90000008200EA0000008800EB000037
:1011F000008900EC0000008D00ED000000A100EE71
:101200000000008C00EF0000008B00F10000009B4C
:1012100000F20000009500F3000000A200F40000BE
:10122000009300F5000000AD00F60000009400F708
:10123000000000B800F8000000AF00F900000097BF
:1012400000FA000000A300FB0000009600FC000074
:10125000008100FF000000980092010000A8008EAD
:10126000030000DB008F030000DE0090030000E7B6
:101270000093030000D40094030000D500980300FD
:1012800000D6009B030000D7009E030000D800A0FA
:10129000030000D900A3030000DA00A5030000DB6F
:1012A00000A6030000DC00A8030000DD00A9030085
:1012B00000DE00AC030000DF00AD030000E300AE81
:1012C000030000E500AF030000E700B0030000F1F9
:1012D00000B1030000DF00B2030000E000B3030030
:1012E00000E100B4030000E200B5030000E300B633
:1012F000030000E400B7030000E500B8030000E6C7
:1013000000B9030000E700BA030000E800BB0300D7
:1013100000E900BC030000EA00BD030000EB00BED2
:10132000030000EC00C0030000ED00C1030000EE6C
:1013300000C3030000EF00C4030000F000C5030079
:1013400000F100C7030000F200C8030000F300C969
:10135000030000F400CA030000E700CB030000F123
:1013600000CD030000F100CE030000F400222000B5
:1013700000CD001E210000A70022210000D000A403
:10138000210000F900B5210000C400BB21000004C9
:1013900000E5210000FB001A220000BE001E220012
:1013A00000C2002B2200001B003C2200001D004850
:1013B0002200001A0060220000BD0061220000111E
:1013C0000064220000B90065220000BA002023005A
:1013D00000C00021230000C100A72300001400A9C1
:1013E0002300001500AB2300001600AD23000017FA
:1013F00000B02300001800B12300001900B2230040
:10140000001200B32300001300F123000007000CBA
:10141000250000C90010250000CA0014250000CBDB
:101420000018250000CC00F8250000C300602B0048
:1014300000C800612B0000C500622B0000C70063DC
:101440002B0000C600C62B0000F500C72B0000F7DC
:1014500000C82B0000F6002500503A002568753AB8
:1014600025303268750025303268753A253032688B
:1014700075002530326875272530326875002000E8
:1014800020003A003A0043616D6100526563696E65
:10149000746F00450020002000200020002500205F
:1014A00020202020202000200020002F00657272C4
:1014B00000496D7072657369C3B36E2063616E63BA
:1014C000656C616461004D32350050617573696E01
:1014D000672E2E2E004D3234003F0049676E6F722A
:1014E00065005265696E696369617200496E69637E
:1014F00069616C697A617220454550524F4D0044D4
:1015000069C3A16D6574726F2046696C2E202A0034
:101510004469C3A16D6574726F2046696C2E0045E5
:1015200020656E206D6DC2B3004176616E636520EB
:101530004B202A004D33303320553120452569207A
:1015400053256900504944204175746F2D616A75B7
:10155000737465202A005049442D44202A005049C4
:10156000442D49202A005049442D50202A002002B1
:1015700020466163746F72002002204D6178002064
:1015800002204D696E0041706700456E630054652E
:101590006D702E204175746F6D2E0056656C2E2077
:1015A0007669616A65206D696E00566D696E004DE1
:1015B0006178202A205370656564004D6178204071
:1015C000205370656564004163656C2E206D617801
:1015D000202A004163656C2E206D617845004163CF
:1015E000656C2E206D617840004163656C2E20563D
:1015F00069616A65004163656C2E20726574726171
:10160000632E004163656C6572616369C3B36E00EC
:101610002A207061736F732F6D6D004020706173AD
:101620006F732F6D6D00416A7573746573206176F9
:10163000616E7A61646F73003F0043616E63656C35
:10164000617200496E6963696172004D343238001D
:10165000496E696369616C697A61722045455052CF
:101660004F4D0046696C616D656E746F0054656D19
:101670007065726174757261005061736F732F6D64
:101680006D0044657376692E20556E69C3B36E0094
:10169000416363656C6572616369C3B36E004D61DC
:1016A000782056656C6F636964616400416A757384
:1016B00074617220646573666173657300436F6E55
:1016C0006669677572616369C3B36E003F005369F1
:1016D000677569656E74652070756E746F004C690E
:1016E00073746F0053696775696E7465004F726932
:1016F00067656E2058595A0041756D656E74617248
:10170000205A0032C2AA204675736F7220400053DF
:1017100020556E52657420560044657352657420DE
:101720005600496E746572632E2044657352657469
:10173000206D6D00446573526574206D6D004C65BD
:1017400076616E746172206D6D00526574726165B0
:101750007220205600496E746572632E20526574A3
:1017600072616572206D6D005265747261657220E0
:101770006D6D0041706700456E6300526574726163
:10178000636369C3B36E204175746F2E0043616D4E
:101790006100426F7175696C6C610056656E7469A9
:1017A0006C61646F7200436F6E6669677572616326
:1017B00069C3B36E00526573742E2066C3A1627252
:1017C0006963610043617267617220454550524F01
:1017D0004D004775617264617220454550524F4D0E
:1017E0000050726563616C2E202420416A75737409
:1017F0006500526574726165720043616D62696172
:10180000722048657272616D69656E74610044652D
:1018100073666173652048657272616D69656E7487
:101820006100416A7573746573206176616E7A61D7
:10183000646F73004D656EC3BA207072696E636920
:1018400070616C003F00417472C3A17300506172FB
:1018500061720053442F4644206E6F20707265738E
:10186000656E746500496D7072696D2E20646573D4
:1018700064652053442F46440043616D6269617280
:101880002053442F4644004D323100436F6E666949
:10189000677572616369C3B36E0054656D7065727C
:1018A0006174757261004D6F76696D69656E746FF4
:1018B000005265616E7564617220696D7072657346
:1018C00069C3B36E00416A757374617200446574D4
:1018D000656E657220696D7072657369C3B36E0061
:1018E00050617573617220696D7072657369C3B3FD
:1018F0006E0050616E74616C6C6120646520496E8D
:10190000662E003F00496E696369617220696D70DF
:1019100072657369C3B36E0043616E63656C617217
:1019200000496D7072696D69720043616E6E6F740B
:1019300020656E746572207375626469723A200066
:1019400005202E2E004D656EC3BA207072696E633D
:101950006970616C004D6F76657220246D6D00308A
:101960002E303235004D6F76657220302E316D6D20
:10197000004D6F76657220316D6D004D6F7665722A
:101980002031306D6D005045540041425300504CA1
:1019900041004572723A20454550524F4D20436FE9
:1019A0007272757074004572723A20454550524FFC
:1019B0004D20435243004572723A20454550524FE4
:1019C0004D2054616D61C3B16F004572723A20566B
:1019D00065727369C3B36E20454550524F4D002167
:1019E00000486F74656E64206D7579206672696F4A
:1019F00000417472C3A1730050726F6365646572B5
:101A0000004578747275736F72202A00457874727D
:101A100075736F72004D6F766572204000536F666C
:101A20007420456E6473746F7073004D6F76696DCA
:101A300069656E746F00417061676172206D6F74CB
:101A40006F726573004D3834005265636F7272694E
:101A5000646F2043616D6100436F6D70656E2E2071
:101A6000416C747572610041706700456E63004E91
:101A70006976656C616E646F2043616D61004E69CB
:101A800076656C61722043616D61004732394E00AA
:101A90004C6C6576617220616C206F726967656E4F
:101AA00000473238004D6F76657220656A657300B5
:101AB0004D656EC3BA207072696E636970616C00A7
:101AC00050726563616C2E20242043616D6100506B
:101AD000726563616C2E202420546F646F00507215
:101AE0006563616C2E2024204675736F72207E0022
:101AF00050726563616C2E2024207E0054656D70E9
:101B000065726174757261008E198A198619456E45
:101B100066726961720050726563616C2E202400E8
:101B200056656E74696C61646F720043616D61002B
:101B3000426F7175696C6C61207E004D656EC3BA31
:101B4000207072696E636970616C004D6963726FB9
:101B50007061736F205A004D6963726F7061736FAB
:101B60002040004176616E6365204B202A00466C60
:101B7000756A6F207E00466C756A6F0056656E74DC
:101B8000696C61646F720043616D6100426F7175D1
:101B9000696C6C61207E0056656C6F63696461647A
:101BA000004D656EC3BA207072696E636970616CB6
:101BB000006F70656E0054524947474552454400D6
:101BC0003A20007A5F6D696E00795F6D696E00780A
:101BD0005F6D696E005265706F7274696E67206523
:101BE0006E6473746F70207374617475730A00008F
:101BF00000914300007F4300009643000000000076
:101C00000000000000000020746F6F206C6F6E6792
:101C100020657874727573696F6E20707265766571
:101C20006E7465640A0020636F6C6420657874725A
:101C30007573696F6E2070726576656E7465640A7F
:101C4000000000000000000000000000005761726A
:101C50006E696E673A20486F6D696E672042756DD8
:101C6000702044697669736F72203C20310A00024B
:101C700002040000914300007F43000096430000EF
:101C8000A0400000A0400000004000000001000053
:101C9000000100008000555555000000400033331E
:101CA0003300AAAA2A004992240000002000C7712C
:101CB0001C0099991900D1451700555515003BB1E5
:101CC00013002449120011111100000010000F0F21
:101CD0000F00E3380E0043790D00CCCC0C00C3306C
:101CE0000C00E8A20B0064210B00AAAA0A00703DB8
:101CF0000A009DD80900427B090092240900DCD328
:101D00000800888808001042080000000800F0C1A0
:101D100007008787070075500700711C07003EEB1E
:101D20000600A1BC06006990060066660600703ECB
:101D300006006118060017F4050074D105005BB0B9
:101D40000500B2900500627205005555050078390E
:101D50000500B81E0500050505004EEC040087D4FB
:101D60000400A1BD040090A7040049920400C17DB5
:101D70000400EE690400C7560400444404005C32C9
:101D800004000821040041100400000004003FF09A
:101D90000300F8E0030026D20300C3C30300CCB560
:101DA00003003AA803000A9B0300388E0300C08199
:101DB00003009F750300D0690300505E03001D53AC
:101DC000030034480300913D030033330300162918
:101DD0000300381F030097150300300C03000303B2
:101DE00003000BFA020049F10200BAE802005CE0CD
:101DF00002002DD802002DD0020059C80200B0C048
:101E0000020031B90200DAB10200AAAA0200A0A3BE
:101E10000200BC9C0200FA9502005C8F0200DF8881
:101E2000020082820200457C0200277602002770B1
:101E30000200436A02007C640200D05E02003F5947
:101E40000200C8530200FFFDFCFAF8F6F4F2F0EECF
:101E5000ECEAE9E7E5E3E1E0DEDCDAD9D7D5D4D294
:101E6000D0CFCDCBCAC8C7C5C3C2C0BFBDBCBAB92D
:101E7000B7B6B4B3B2B0AFADACAAA9A8A6A5A4A298
:101E8000A1A09E9D9C9A99989795949392908F8EDD
:101E90008D8B8A8988878684838281807F7E7D7B03
:101EA0007A797877767574737271706F6E6D6C6B0A
:101EB0006A696867666564636261605F5E5D5C5BFA
:101EC0005A5958585756555453525150504F4E4DD9
:101ED0004C4B4A4A494847464645444342424140A2
:101EE0003F3E3E3D3C3B3B3A39383837363535345A
:101EF0003332323130302F2E2E2D2C2B2B2A292904
:101F000028272726252524232322212120201F1EA0
:101F10001E1D1C1C1B1B1A1919181817161615152F
:101F200014131312121111100F0F0E0E0D0D0C0CB5
:101F30000B0A0A0909080807070606050504040331
:101F4000030202010000DB0FC93F45BCDA3F8FB33B
:101F50000240FCF0274056946140FE4B9B4084A514
:101F6000D840E0231841346A5641E859974164DB70
:101F7000D5416E271742B4B75542CE1A9742C8AE24
:101F8000D542B5885A43D40684BFA65FA7BF744321
:101F9000E0BF10B11AC01C2C58C0E8F697C0B84971
:101FA000D6C04E4E17C124D355C1802497C1A0B5C9
:101FB000D5C1121A17C244AE55C2781797C26CAC7D
:101FC000D5C267885AC320746F6F206C6F6E67200C
:101FD000657874727573696F6E2070726576656E60
:101FE0007465640A0020636F6C6420657874727590
:101FF00073696F6E2070726576656E7465640A0031
:1020000053657474696E67732053746F72656400EE
:10201000290A002062797465733B20637263200093
:1020200053657474696E67732053746F72656420AE
:10203000280048617264636F64656420446566616A
:10204000756C742053657474696E6773204C6F618E
:102050006465640020286D6D2900203B204C657666
:10206000656C696E67200020204D343230205300AB
:102070004D65736820426564204C6576656C696EB9
:10208000670020460020420020480020204D3134C7
:10209000352053004D6174657269616C206865611B
:1020A00074757020706172616D6574657273005231
:1020B0006574726163742028533C6C656E67746844
:1020C0003E20463C66656564726174653E205A3CFC
:1020D0006C6966743E29005265636F7665722028CC
:1020E000533C6C656E6774683E20463C666565646B
:1020F000726174653E29004175746F2D526574726A
:102100006163742028533C656E61626C653E2900F2
:10211000204B0020204D3930302054004C696E6532
:10212000617220416476616E636500202047323918
:10213000205334205A00205A00204A0020204732E1
:102140003920533320490020204D31343920432099
:102150003B20556E69747320696E2043656C73690A
:1021600075730A0054656D706572617475726520CF
:10217000556E697473002020473231203B004C6952
:102180006E65617220556E69747300454550524FFB
:102190004D206461746173697A65206572726F7233
:1021A0002E0A00202863616C63756C617465642974
:1021B000210A0020213D2000454550524F4D20432B
:1021C0005243206D69736D61746368202D202873FC
:1021D000746F726564292000454550524F4D20436D
:1021E0006F72727570740A002053697A653A200024
:1021F000496E6465783A2000290A00206279746586
:10220000733B2063726320002073746F72656420D7
:1022100073657474696E677320726574726965762C
:1022200065642028000000FA430000FA430000A083
:10223000400000C8410000A0420000A0420000C8C9
:10224000430000BA42E8030000E803000064000015
:1022500000F4010000204D61726C696E3D56383803
:10226000290A00454550524F4D2076657273696FBB
:102270006E206D69736D6174636820284545505206
:102280004F4D3D0024F404D9201BC40C5C0E98046F
:10229000C4095F0265077101F405F900FB04B3008E
:1022A00048048700C1036900580355000303450033
:1022B000BE023A008402310053022A00290225009E
:1022C00004022000E4011C00C8011900AF0117003E
:1022D00098011400840113007101100061011000C5
:1022E00051010E0043010D0036010B002B010B00C4
:1022F00020010B00150109000C0109000301080071
:10230000FB000800F3000800EB000700E4000600F3
:10231000DE000600D8000600D2000600CC00050052
:10232000C7000500C2000500BD000400B90004009C
:10233000B5000400B1000400AD000400A9000400D1
:10234000A5000300A20003009F0004009B000300FF
:102350009800030095000200930003009000030022
:102360008D0002008B00030088000200860002003E
:1023700084000300810002007F0002007D00020053
:102380007B00020079000200770001007600020065
:102390007400020072000100710002006F00020070
:1023A0006D0001006C0002006A000100690002007B
:1023B0006700010066000100650001006400020082
:1023C0006200010061000100600001005F00020086
:1023D0005D0001005C0001005B0001005A0001008B
:1023E000590001005800010057000100560001008B
:1023F000550001005400010053000000530001008B
:102400005200010051000100500001004F00010086
:102410004E0000004E0001004D0001004C00010084
:102420004B0000004B0001004A0001004900010080
:10243000480000004800010047000100460000007D
:102440004600010045000000450001004400010075
:102450004300000043000100420000004200010070
:102460004100000041000100400001003F00000069
:102470003F0001003E0000003E0001003D00000062
:102480003D0001003C0000003C0000003C00010059
:102490003B0000003B0001003A0000003A00010050
:1024A0003900000039000100380000003800000049
:1024B000380001003700000037000100360000003E
:1024C0003600000036000100350000003500000035
:1024D0003500010034000000340000003400010029
:1024E0003300000033000000330001003200000020
:1024F0003200000032000100310000003100000015
:102500003100010030000000300000003000010008
:102510002F0000002F0000002F0000002F000100FE
:102520002E0000002E0000002E0001002D000000F3
:102530002D0000002D0000002D0001002C000000E7
:102540002C0000002C0000002C0001002B000000DB
:102550002B0000002B0000002B0001002A000000CF
:102560002A0000002A0000002A00010029000000C3
:1025700029000000290000002900000029000100B6
:1025800028000000280000002800000028000000AB
:10259000280001002700000027000000270000009D
:1025A0002700000027000100260000002600000090
:1025B0002600000026000000260001002500000083
:1025C0002500000025000000250000002500000077
:1025D0002500010024000000240000002400000069
:1025E000240000002400010023000000230000005C
:1025F000230000002300000023000000230000004F
:102600002300010022000000220000002200000040
:102610002200000022000000220001002100000032
:102620002100000021000000210000002100000026
:102630002100000021000100200000002000000017
:10264000200000002000000020000000200000000A
:1026500020000000200001001F0000001F000000FB
:102660001F0000001F0000001F0000001F000000EE
:102670001F0001001E0000001E0000001E000000E0
:102680001E00000024F4D43050C38E20C2A2401794
:10269000828B7011127A910D816CD90AA861E108C0
:1026A000C7586607615143061E4B5D05C145A70427
:1026B0001A411104093D9803713931034036DB0298
:1026C00065339102D4305402802E1D02632CEE013A
:1026D000752AC501B028A001102781018F2564014A
:1026E0002B244B01E0223401AC211F018D200D0170
:1026F000801FFC00841EED00971DDF00B81CD20077
:10270000E61BC600201BBC00641AB200B219A80068
:102710000A19A0006A189900D117910040178B0080
:10272000B516840031167E00B31579003A15730092
:10273000C7146F0058146A00EE1366008813630014
:1027400025135E00C7125B006C125700151254006F
:10275000C111510070114F0021114B00D6104900DA
:102760008D1047004610440002104200C00F400088
:10277000800F3E00420F3C00060F3B00CB0E38009E
:10278000930E37005C0E3500270E3400F30D320037
:10279000C10D3100900D3000600D2E00320D2D0066
:1027A000050D2C00D90C2B00AE0C2900850C29003E
:1027B0005C0C2700350C27000E0C2600E80B2400CB
:1027C000C40B2400A00B23007D0B23005A0B210017
:1027D000390B2100180B2000F80A1F00D90A1E002F
:1027E000BB0A1E009D0A1D00800A1D00630A1C0012
:1027F000470A1B002C0A1B00110A1A00F7091A00CD
:10280000DD091900C4091900AB0919009209170064
:102810007B091800630917004C09160036091600D9
:10282000200916000A091500F5081500E008140033
:10283000CC081400B8081400A40814009008130071
:102840007D0812006B081300580812004608120099
:1028500034081100230811001208110001081100AA
:10286000F0071000E0071000D0071000C0071000AC
:10287000B0070F00A107100091070E0083070F009B
:1028800074070F0065070E0057070E0049070E007A
:102890003B070D002E070E0020070D0013070D004B
:1028A00006070D00F9060C00ED060D00E0060C0011
:1028B000D4060C00C8060C00BC060C00B0060C00C8
:1028C000A4060B0099060C008D060B0082060B0077
:1028D00077060B006C060B0061060A0057060B001A
:1028E0004C060A0042060A0038060A002E060A00B4
:1028F00024060A001A060A001006090007060A0044
:10290000FD050900F4050900EB050900E2050900D1
:10291000D9050900D0050900C7050900BE05090051
:10292000B5050800AD050800A50509009C050800CF
:10293000940508008C050800840508007C05080043
:10294000740508006C050700650508005D050700B3
:10295000560508004E05070047050700400508001A
:1029600038050700310507002A0507002305070081
:102970001C050600160507000F05070008050600E0
:1029800002050700FB040600F5040700EE0406003C
:10299000E8040600E2040700DB040600D504060094
:1029A000CF040600C9040600C3040600BD040600E7
:1029B000B7040600B1040500AC040600A604060036
:1029C000A00405009B040600950405009004060081
:1029D0008A04050085040500800406007A040500C9
:1029E00075040500700405006B040500660405000D
:1029F000610405005C04050057040500520405004D
:102A00004D04050048040500430405003E0404008D
:102A10003A04050035040500300404002C040500C8
:102A200027040400230405001E0404001A04040003
:102A300016040500110404000D0404000904050037
:102A40000404040000040400FC030400F803040070
:102A5000F4030400F0030400EC030400E8030400A2
:102A6000E4030400E0030400DC030400D8030400D2
:102A7000D4030400D0030400CC030400C803030003
:102A8000C503030020436F756E7420583A00453229
:102A90000043616D61004531004500626564002CB2
:102AA0002073797374656D2073746F707065642121
:102AB000204865617465725F49443A20004572722E
:102AC0003A54454D502E204DC38158004D41585425
:102AD000454D502074726967676572656400436193
:102AE0006C656E742E2066616C6C69646F0048655D
:102AF0006174696E67206661696C65640045727215
:102B00003A54454D502E204D494E004D494E5445A6
:102B10004D50207472696767657265640046554759
:102B2000412054C389524D49434100546865726D38
:102B3000616C2052756E6177617900202F00204012
:102B4000002042403A0020403A00496E76616C69AC
:102B5000642065787472756465720A0041637469F3
:102B600076652045787472756465723A20007C3C05
:102B70003E5E2B3D3F2F5B5D3B2C2A225C00466175
:102B80006C6C6F20616C20696E696369617220539F
:102B9000442F46440053442063617264206F6B0AE3
:102BA000006F70656E526F6F74206661696C65644A
:102BB0000A00766F6C756D652E696E6974206661AA
:102BC000696C65640A004E6F20534420636172642F
:102BD0000A00534420636172642072656C656173FE
:102BE00065640A000A4D3234004D323320257300EB
:102BF0002E0A006F70656E206661696C65642C201A
:102C000046696C653A200046696C652073656C65A1
:102C1000637465640A002053697A653A2000466946
:102C20006C65206F70656E65643A2000454E4420E7
:102C3000535542524F5554494E450A002220706F59
:102C400073002220706172656E743A2200535542FF
:102C5000524F5554494E452043414C4C20746172AB
:102C60006765743A2200446573626F7264616D69CE
:102C7000656E746F206465207375626C6C616D6144
:102C80006461004578636565646564206D617820E2
:102C9000535542524F5554494E45206465707468EF
:102CA0003A0057726974696E6720746F2066696CA8
:102CB000653A2000667265736800646F696E67002C
:102CC0002066696C653A20004E6F7720002F617591
:102CD000746F25632E6700022001400130013B0123
:102CE000400136016001310170012C019001270182
:102CF000B0012201C0011D01F001180110021301F1
:102D000030020E016002090190020401C002FF00BE
:102D10000003FA004003F5008003F000D003EB004D
:102D20002004E6007004E100E004DC004005D70068
:102D3000C005D2004006CD00D006C8008007C30001
:102D40003008BE00F008B900C009B400B00AAF00F6
:102D5000B00BAA00D00CA500000EA000500F9B00E5
:102D6000C01096005012910000148C00C01587000E
:102D7000B0178200B0197D00D01B7800001E7300D0
:102D800040206E0090226900F024640040275F001C
:102D900090295A00E02B5500102E500020304B0097
:102DA00010324600E033410090353C0010373700C8
:102DB00070383200A0392D00B03A2800A03B230023
:102DC000603C1E00103D1900903D1400103E0F00A5
:102DD000703E0A00C03E0500003F0000403FFBFF80
:102DE000803FF6FFC03FF1FF2020506C616E6E65A2
:102DF0007242756666657242797465733A20002086
:102E000046726565204D656D6F72793A20002043EA
:102E10006F6D70696C65643A204A756E2032382097
:102E2000323032360A00204C617374205570646170
:102E30007465643A20323032362D30362D323420EB
:102E40007C20417574686F723A20283344776F7222
:102E50006B2C2068747470733A0A004D61726C694F
:102E60006E20322E312E322E380A0020536F6674B7
:102E7000776172652052657365740A00205761742A
:102E80006368646F672052657365740A002042723C
:102E90006F776E206F75742052657365740A002019
:102EA00045787465726E616C2052657365740A00B2
:102EB000506F77657255700A0073746172740A00FE
:102EC0004732385859004D31303031006F6B006552
:102ED00072726F722077726974696E6720746F20E6
:102EE00066696C650A00446F6E6520736176696E71
:102EF000672066696C652E0A00456E6473746F7096
:102F00007300255320256320256320256320256336
:102F100000656E6473746F7073206869743A200082
:102F200000000A0B02090C0D0E0807030401000043
:102F30000000000000000000000000000000000091
:102F4000000000000000000000000000121110004E
:102F50000000000000000000000000000000000071
:102F6000000000000000702600009B1E0000C3153A
:102F70000000C70D0000F40700004F0400004002ED
:102F8000000026010000496D7072696D2E20646595
:102F90007364652053442F46440020002000200025
:102FA00049722061206F726967656E2046616C6CA2
:102FB00061646F00FFFFFF43616E6E6F74206F707E
:102FC000656E207375626469722000220A00556E76
:102FD0006B6E6F776E20636F6D6D616E643A202249
:102FE00000627573793A2070617573656420666F4D
:102FF0007220696E7075740A00627573793A207078
:10300000617573656420666F7220757365720A005E
:10301000627573793A2070726F63657373696E6756
:103020000A0053442F464420726574697261646FCC
:103030000053442F464420696E7365727461646F57
:10304000004D3131322053687574646F776E0044DF
:103050004554454E494441005072696E7465722072
:1030600073746F707065642064756520746F20657B
:1030700072726F72732E20466978207468652065BD
:1030800072726F7220616E6420757365204D3939DC
:103090003920746F20726573746172742E20285405
:1030A000656D7065726174757265206973207265F3
:1030B0007365742E2053657420697420616674658D
:1030C000722072657374617274696E67290A004EAA
:1030D0006F20436865636B73756D20776974682032
:1030E0006C696E65206E756D6265722C204C617323
:1030F00074204C696E653A20004D3239004E6F20C5
:10310000436865636B73756D2077697468206C69BB
:103110006E65206E756D6265722C204C6173742033
:103120004C696E653A2000636865636B73756D204A
:103130006D69736D617463682C204C617374204CED
:10314000696E653A20004C696E65204E756D62654A
:1031500072206973206E6F74204C617374204C6907
:103160006E65204E756D6265722B312C204C61733B
:1031700074204C696E653A20004D31313000536542
:103180007269616C20737461747573206D69736DFD
:10319000617463680A00534420726561642065723B
:1031A000726F720A004B494C4C20627574746F6EDA
:1031B0002F70696E0A002121204B494C4C2063611D
:1031C000757365642062792000746F6F206D75637C
:1031D0006820696E6163746976652074696D652025
:1031E0002D2063757272656E7420636F6D6D616EF4
:1031F000643A20002121204B494C4C2063617573B7
:10320000656420627920004F726967656E202573BE
:10321000205072696D2E00486F6D65202573204621
:10322000697273740020453A00205A3A0020593AD6
:1032300000583A006F6B0A00526573656E643A205D
:103240000000002200250028002B002E0031003451
:103250000002010000050108010B0100002100240B
:103260000027002A002D0030003300010100000477
:103270000107010A010505050507050808080802F8
:103280000202020A0A0808040404040101010101FF
:103290000101010303030303030303040707070CEE
:1032A0000C0C0C0C0C0C0C020202020606060606A4
:1032B0000606060B0B0B0B0B0B0B0B010210202051
:1032C000080810204010204080020102010804027A
:1032D00001010204081020408080402010080402F0
:1032E0000180040201804020100804020108040249
:1032F000010102040810204080010204081020404F
:1033000080536F766F6C2053563032204C69737443
:103310006100496D7072696D69656E646F2E2E2E45
:1033200000496D7072657369C3B36E205061757327
:1033300061646100001C1F11111F000000061918B4
:1033400003130C00040E1F041C000000000E1315D4
:10335000110E00001C10181705060500040A0A0AC1
:103360000A11110E0C12120C00000000001F1511A2
:10337000151F0000E100DB0011241FBECFEFD1E2DA
:10338000DEBFCDBF00E00CBF84B78093661614BECD
:103390000FB6F894A89580916000886180936000D2
:1033A000109260000FBE13E0A0E0B2E0E0ECFBE49E
:1033B00002E00BBF02C007900D92A43AB107D9F703
:1033C00026E1A4EAB3E001C01D92A636B207E1F7F8
:1033D00019E1CBEBD9E100E006C021970109802F6C
:1033E000FE010F944521CA3BD10780E00807A9F7E9
:1033F0000F9427100D94CF250C94000080914A1350
:103400008823F1F02FEF3FEF3093550220935402C1
:10341000815080934A13E3E0F1E1882351F0815019
:10342000990B2BE1289FF001299FF00D1124E45CFA
:10343000FD4E8BE1A8EEB0E101900D928A95E1F787
:1034400020914A13211105C0809154138064809308
:10345000541381E090E0A0E0B0E0211103C080E0CF
:1034600090E0DC018093250790932607A09327071F
:10347000B093280710921F0781E08093350783E0FF
:1034800080936A020895CF93DF93EC01642F70E07C
:1034900090E080E00F94E01C29EC38EC48EC5EE30F
:1034A0000F94482220E030E040E05FE30F946C216D
:1034B0000F94B5226883DF91CF910895CF93DF9366
:1034C000EC01CB01BA010F94E01C688379838A83F5
:1034D0009B83DF91CF910895CF93DF93EC01CB01D4
:1034E000BA010F94E01C688379838A839B83DF9100
:1034F000CF910895E0913B0786E0E802F0011124A6
:10350000ED5FFA4F80911B0790E0958384830895C7
:103510001092CB04089580916407882369F080910C
:10352000C9068770873041F481EA9AE19093D90601
:103530008093D806109264070895CF93DF93EC012F
:10354000CB01BA010F94E01C20E030E048EC52E4DB
:103550000F9448222FE632E143E85AE30F946C219E
:10356000688379838A839B83DF91CF910895CF937A
:10357000DF93EC01CB01BA010F94E01C20E030E0B6
:1035800048EC52E40F9448222FE632E143E85AE334
:103590000F946C21688379838A839B83DF91CF9119
:1035A0000895CF93DF93EC01CB01BA010F94DE1C99
:1035B0002AE037ED43E25DE30F9448220F94B522F1
:1035C000688379838A839B83DF91CF910895CF931A
:1035D000DF93EC01CB01BA010F94E01C2AE037ED38
:1035E00043E25DE30F944822688379838A839B8357
:1035F000DF91CF910895CF93DF93EC01CB01BA0116
:103600000F94E01C20E030E048EC52E40F94482294
:103610002FE632E143E85AE30F946C216883798303
:103620008A839B83DF91CF910895CF93DF93EC0141
:10363000CB01BA010F94E01C20E030E040E251E4FD
:103640000F9448222AE037ED43E25CE30F946C21AB
:10365000688379838A839B83DF91CF910895FC01EE
:10366000518340830895CF93DF93EC01CB01BA01DE
:103670000F94E01C20E030E04AE754E40F94482225
:1036800027E137EB41ED58E30F946C216883798390
:103690008A839B83DF91CF910895CF92DF92EF923F
:1036A000FF920F931F93CF93DF9323EF34E045E313
:1036B0005FE360913D0570913E0580913F059091DB
:1036C00040050F943F1D2AE136EF45E95EE30F9474
:1036D00048226B017C0104E316E0F80164857585DE
:1036E000868597850F94DE1CA70196010F943F1DD8
:1036F0000F942324C3ECD4E0688379838A839B836B
:10370000F80160897189828993890F94DE1CA70171
:1037100096010F943F1D0F9423246C837D838E8329
:103720009F83DF91CF911F910F91FF90EF90DF90DA
:10373000CF900895CF93DF93C0914111D091421162
:1037400081E0CE31D105E4F020E030E040E05FE3FD
:1037500060913D1170913E1180913F119091401107
:103760000F946C210F94B0226C1B7D0B77FF03C06C
:1037700071956195710981E0633071050CF080E00D
:10378000DF91CF91089590E080E008952091231279
:10379000833021F425FD0CC024FD0CC030E0A901CC
:1037A00002C0559547958A95E2F7CA018170089540
:1037B00081E0089580E008958091D70384FD0BC0D7
:1037C0008091D90387FD07C09091DA03937081E05F
:1037D00019F480E0089581E008952FEB280F2A3135
:1037E00008F047C0E22FF0E08091D7039091D80312
:1037F000A091D903B091DA0304C0B695A795979527
:1038000087952A95D2F780FD02C081700895E35410
:10381000FC4FE081EE2341F18091680790916907A8
:10382000E80FF92FF11D808190ED980F9A3030F05C
:103830008E3251F4818180538A3098F4F093BC0326
:10384000E093BB0381E008958D3211F08B3249F48F
:10385000818190ED980F9A3088F38E3211F4828135
:10386000EACFF0E0E0E0EACF1092BC031092BB0395
:10387000E9CF80E00895B1DF882341F081E0209115
:10388000BB033091BC03232B09F480E008958091A1
:103890007710813069F09091541392FB882780F95A
:1038A00092FF07C097FB882780F991E08927089548
:1038B00081E008959091C1118091C011891718F08D
:1038C000891B19F4E4CF805FFBCF81E008958091DC
:1038D0006A02882341F0609145047091460441E0FA
:1038E00081E00C9438EC0895CF92DF92EF92FF9232
:1038F000CF93DF9300D01F92CDB7DEB76B017C0171
:1039000020E030E0A9010F94DA1C87FD1BC06DEBAD
:1039100077E386E095E3A70196010F946C21698314
:103920007A838B839C83CE0101960E947BD00F907B
:103930000F900F900F90DF91CF91FF90EF90DF905D
:10394000CF9008956DEB77E386E095EBE4CF0F948D
:10395000E01C20E030E040E251E40F9448222AE0ED
:1039600037ED43E25CE30F946C21BECF8F929F92C0
:10397000AF92BF92CF92DF92EF92FF92CF936B0103
:103980007C0120E030E0A9010F94DA1C87FD76C0AD
:103990006DEB77E386E095E3A70196010F946C2128
:1039A00042E050E00E94C0CF6B017C018BE2F7FE49
:1039B00009C0F094E094D094C094C11CD11CE11CC7
:1039C000F11C8DE280936204C701B60120E137E269
:1039D00040E050E00F94D6208AE0882E912CA12C54
:1039E000B12CCA01B901A50194010F94D620605DE4
:1039F00060936304C701B60128EE33E040E050E075
:103A00000F94D620CA01B901A50194010F94D620C4
:103A1000605D60936404C701B60124E630E040E0D5
:103A200050E00F94D620CA01B901A50194010F946A
:103A3000D620605D609365048EE280936604C701C2
:103A4000B601A50194010F94D620C62FCA01B90171
:103A5000A50194010F94D620605D60936704C05D5A
:103A6000C093680482E694E0CF91FF90EF90DF90DE
:103A7000CF90BF90AF909F908F9008956DEB77E3BC
:103A800086E095EB89CF0F94E01C20E030E048EC15
:103A900052E40F9448222FE632E143E85AE30F94B0
:103AA0006C2164CF8F929F92AF92BF92CF92DF92A0
:103AB000EF92FF92CF936B017C0120E030E0A901EF
:103AC0000F94DA1C87FDC3C06DEB77E386E095E3C6
:103AD000A70196010F946C216B017C0120E030E07E
:103AE000A9010F94DA1C87FF04C0F7FAF094F7F8E5
:103AF000F09442E050E0C701B6010E94C0CF6B01D4
:103B00007C0160E280E4C81682E4D8068FE0E80613
:103B1000F1048CF0C701B60120E432E44FE050E03C
:103B20000F94D620CA01B9012AE030E040E050E00D
:103B30000F94D620605D6093610460E280EAC8164D
:103B400086E8D80681E0E806F1048CF0C701B601EA
:103B500020EA36E841E050E00F94D620CA01B901CE
:103B60002AE030E040E050E00F94D620605D6093A2
:103B7000620460E280E1C81687E2D806E104F1043D
:103B80008CF0C701B60120E137E240E050E00F942D
:103B9000D620CA01B9012AE030E040E050E00F949D
:103BA000D620605D6093630460E288EEC81683E00F
:103BB000D806E104F1048CF0C701B60128EE33E029
:103BC00040E050E00F94D620CA01B9012AE030E06D
:103BD00040E050E00F94D620605D60936404C7011C
:103BE000B60124E630E040E050E00F94D6208AE0B1
:103BF000882E912CA12CB12CCA01B901A5019401E8
:103C00000F94D620605D609365048EE28093660415
:103C1000C701B601A50194010F94D620C62FCA0191
:103C2000B901A50194010F94D620605D60936704EB
:103C3000C05DC093680481E694E0CF91FF90EF905F
:103C4000DF90CF90BF90AF909F908F9008956DEBD5
:103C500077E386E095EB3CCF0F94E01C20E030E06A
:103C600048EC52E40F9448222FE632E143E85AE34D
:103C70000F946C2117CF8F929F92AF92BF92CF92E9
:103C8000DF92EF92FF92CF936B017C0120E030E056
:103C9000A9010F94DA1C87FD6AC06DEB77E386E01B
:103CA00095E3A70196010F946C2143E050E00E9438
:103CB000C0CF6B017C01C114D104E104F10409F40B
:103CC0005BC0F7FE59C0F094E094D094C094C11C3E
:103CD000D11CE11CF11C8DE280936304C701B60185
:103CE00028EE33E040E050E00F94D6208AE0882EA2
:103CF000912CA12CB12CCA01B901A50194010F94FA
:103D0000D620605D609364048EE280936504C701F1
:103D1000B60124E630E040E050E00F94D620CA011E
:103D2000B901A50194010F94D620605D60936604EB
:103D3000C701B601A50194010F94D620C62FCA0170
:103D4000B901A50194010F94D620605D60936704CA
:103D5000C05DC093680483E694E0CF91FF90EF903C
:103D6000DF90CF90BF90AF909F908F9008956DEBB4
:103D700077E386E095EB95CF80E2AECF0F94E01C21
:103D800020E030E04AE754E40F94482227E137EB83
:103D900041ED58E30F946C216ECF70E090E080E02D
:103DA0000F94E01C29EC38EC48EC5EE30F944822B9
:103DB00020E030E040E05FE30F946C210F94B522E7
:103DC000862F0C948CCF0F94E01C0C9491E4CB01C3
:103DD0000C942ACF80E090E0A0E8B0E48093CB0D73
:103DE0009093CC0DA093CD0DB093CE0D86ED92E0C7
:103DF0000E945CC3E0915404E430C9F480E090E098
:103E0000A1E1B3E48093C30D9093C40DA093C50DBD
:103E1000B093C60D80E090E0AEEFB2E48093C70DA2
:103E20009093C80DA093C90DB093CA0D2EC080E029
:103E300090E0A0EFB1E48093C30D9093C40DA093E4
:103E4000C50DB093C60D8093C70D9093C80DA09378
:103E5000C90DB093CA0DEE0FFF0BEA54FD4F8081E0
:103E600091818330910549F18430910591F1029758
:103E700061F480E090E0A2E8B3E48093C30D9093F6
:103E8000C40DA093C50DB093C60D8EEB92E00E94B9
:103E90005CC31092CB0D1092CC0D1092CD0D1092F0
:103EA000CE0D86ED92E00E945CC3809154048F5F3A
:103EB0008530A4F480935404089580E090E0A2E853
:103EC000B3E48093C30D9093C40DA093C50DB0933C
:103ED000C60D80E090E0A1E6B3E4A0CF10925404B8
:103EE0000895CF93DF9300D01F92CDB7DEB70F9424
:103EF000DE1C69837A838B839C83CE0101960E94AA
:103F00000ED00F900F900F900F90DF91CF910895EA
:103F10000F94DE1C2AE037ED43E25DE30F94482264
:103F20000F94B522DECFCF92DF92EF92FF92CF9324
:103F3000DF9300D01F92CDB7DEB76B017C0120E08C
:103F400030E0A9010F94DA1C87FD1BC06DEB77E30D
:103F500086E095E3A70196010F946C2169837A832B
:103F60008B839C83CE0101960E940ED00F900F9000
:103F70000F900F90DF91CF91FF90EF90DF90CF9057
:103F800008956DEB77E386E095EBE4CF0F94E01CAA
:103F90002AE037ED43E25DE30F944822C4CF0F944B
:103FA000E01CC1CF0F94E01C20E030E048EC52E46C
:103FB0000F9448222FE632E143E85AE30F946C2134
:103FC0000C94B6DD0C94F39ECF93DF9380913B0766
:103FD00090916407891304C0DF91CF910C94F39EF4
:103FE0008D5F90E0EC01CC0FDD1FCC0FDD1FC555C0
:103FF000DB4F880F991F880F991FFC01E45BF94F75
:10400000208131814281538160E070E080E89FE34C
:104010000F944822688379838A839B83DF91CF91B1
:1040200008950C94569E80913B07082E000C990B26
:10403000209164072817190611F40C94569E0895D0
:104040000C94569E0C94569E0C94569E2F923F9222
:104050004F925F926F927F928F929F92AF92BF9298
:10406000CF92DF92EF92FF920F931F93CF93DF9344
:10407000D62FC72FFC0180809180A280B380C5011C
:10408000B40120E831E541E050E00F94B420C901CB
:104090006DE671E00F941E216B017C01C501B40136
:1040A00020E13EE040E050E00F94B420CA01B901A5
:1040B00028E130E040E050E00F94B420362E272E67
:1040C000062F172F8CE3482E512C612C712CC50123
:1040D000B401A30192010F94B420B62EA72ECA01F9
:1040E000B901A30192010F94B420CB01C114D104F2
:1040F00079F1AF92BF927F936F932F923F92FF928D
:10410000EF92DF92CF928FE69CE09F938F93CF93B5
:10411000DF930F94731C8DB79EB70E960FB6F8946D
:104120009EBF0FBE8DBF8D2F9C2FDF91CF911F9112
:104130000F91FF90EF90DF90CF90BF90AF909F9046
:104140008F907F906F905F904F903F902F90089549
:10415000E114F104C9F0AF92BF927F936F932F9255
:104160003F92FF92EF928FE59CE09F938F93CF93C6
:10417000DF930F94731CEDB7FEB73C960FB6F8941F
:10418000FEBF0FBEEDBFCFCF012BB9F0AF92BF92F4
:104190007F936F932F923F9283E59CE09F938F9341
:1041A000CF93DF930F94731C8DB79EB70A960FB60B
:1041B000F8949EBF0FBE8DBFB6CF892BA9F0AF92EA
:1041C000BF927F936F938BE49CE09F938F93CF93E9
:1041D000DF930F94731CEDB7FEB738960FB6F894C3
:1041E000FEBF0FBEEDBF9FCFAF92BF9287E49CE0B2
:1041F0009F938F93CF93DF930F94731C0F900F9027
:104200000F900F900F900F908ECF63E972E084E6CD
:1042100090E00E94BDDC70E060E08AE090E00E94E7
:10422000BDDC6AEB72E084E690E00C94BDDC0E9499
:104230000DCCEBCF8111E9CF68E270E080E991E02D
:104240000C94BDDC0E94249AF5CF0E94DDCDF2CF04
:10425000CF92DF92EF92FF92CF93C82F833011F469
:104260006093F1030E9401F16B017C0124EA30E7C5
:104270004DE75FE36091100270911102809112028C
:10428000909113020F94DA1C87FD18C08AEF90E01A
:10429000A0E0B0E08C0D9D1DAE1DBF1D8093F2030C
:1042A0009093F303A093F403B093F503C093060235
:1042B000CF91FF90EF90DF90CF90089580E090E055
:1042C000DC01E8CFCF92DF92EF92FF920F931F9322
:1042D0000E9401F10091E9031091EA032091EB03A0
:1042E0003091EC036B017C01C01AD10AE20AF30A97
:1042F0009701860137FD11C02091E8032095209396
:10430000E8036A547C4F8F4F9F4F6093E90370938B
:10431000EA038093EB039093EC0381E09091E80330
:10432000911101C080E01F910F91FF90EF90DF90FD
:10433000CF900895CF93DF93C0914111D091421156
:10434000209729F160913D1170913E1180913F11AC
:10435000909140110F94B0226E5F7F4F24976C179D
:104360007D07ACF470934A05609349050E9401F102
:10437000605A75418F4F9F4F60934B0570934C056A
:1043800080934D0590934E05DF91CF910895109243
:104390004B0510924C0510924D0510924E05F4CF2E
:1043A000CF92DF92EF92FF920F931F93CF93DF9301
:1043B00000D000D0CDB7DEB78A0146E0469F90011D
:1043C000479F300D1124BC01620F731F46E050E07F
:1043D000CE0101960F94031CC980DA80EB80FC802B
:1043E000F80140815181628173818FEF9FEFC41684
:1043F000D506E606F70640F081E090E04C155D0535
:104400006E057F0508F080E026960FB6F894DEBFB3
:104410000FBECDBFDF91CF911F910F91FF90EF9015
:10442000DF90CF9008950F931F93CF93DF93CDB775
:10443000DEB72E970FB6F894DEBF0FBECDBF8B014F
:104440001E861D86FC0160817181828193816F834C
:10445000788789879A872FEF2B87603871058105C8
:10446000910538F48CE092E10E94EEE781E090E063
:104470002FC09E01235F3F4FAE01495F5F4F61E94F
:1044800070E081EF90E10E94F3E897FD2CC08D85EC
:104490009E8526E0289FB001299F700D11246F5042
:1044A0007F4E46E050E0CE0101960F94031C6D81D3
:1044B0008CE092E10E94EEE701301105B9F26E81C5
:1044C0006623A1F28CE092E10E94EEE782E090E0A8
:1044D0002E960FB6F894DEBF0FBECDBFDF91CF9101
:1044E0001F910F9108959E01235F3F4FAE01495FD9
:1044F0005F4F63E670E08FE99EE00E94F3E897FD6E
:104500000BC08D859E8526E0289FB001299F700DE8
:1045100011246156714FC5CF6FE3A4CF8F929F9244
:10452000AF92BF92CF92DF92EF92FF920F931F93C1
:10453000CF93DF9300D01F92CDB7DEB79091640781
:10454000492F50E02091CB0430E0092E02C0359570
:1045500027950A94E2F72170821779F0662309F40F
:1045600037C12091B40330E0092E02C0359527955C
:104570000A94E2F721708213A0C00F900F900F9061
:104580000F90DF91CF911F910F91FF90EF90DF90EF
:10459000CF90BF90AF909F908F90089520E030E033
:1045A000A9016091820470918304809184049091A8
:1045B00085040F94DA1C882361F010928204109213
:1045C00083041092840410928504CE0101960E9407
:1045D000B4D80023D9F1C090FB04D090FC04E09043
:1045E000FD04F090FE0420E030E0A901C701B6010F
:1045F0000F94DA1C882309F453C0A7019601609137
:10460000CF0D7091D00D8091D10D9091D20D0F945E
:104610006B216093CF0D7093D00D8093D10D90934B
:10462000D20D8FEC9DE00E9486C0E091640784E08B
:10463000E89FF0011124EA57FB4F10821182128289
:104640001382002301F18FEF94E0A7C0C090EF0424
:10465000D090F004E090F104F090F20420E030E01B
:10466000A901C701B6010F94DA1C8111C6CFE091F0
:10467000640784E0E89FF0011124EA57FB4F1082A1
:1046800011821282138283EF94E087C080952823E1
:104690002093CB049091B4038923011196C06DCF70
:1046A000E091640784E0E89FF0011124EA57FB4F92
:1046B0001082118212821382C6CF81110AC020910A
:1046C000B40330E002C0359527959A95E2F720FFB4
:1046D00082C0C090F704D090F804E090F904F09004
:1046E000FA0401E0182F80E1E3ECFDE0A4EAB6E073
:1046F00001900D928A95E1F7809168069091690684
:10470000A0916A06B0916B0689839A83AB83BC83C0
:10471000112309F443CF440F551F440F551FFA01CD
:10472000EA57FB4FC082D182E282F38287EE94E0A7
:104730000E94B4D8C0908204D0908304E090840496
:10474000F090850420E030E0A901C701B6010F9484
:10475000DA1C811124C08090EB049090EC04A090AE
:10476000ED04B090EE042AE037ED43E25CE3C501CE
:10477000B4010F949223181694F4A5019401C70173
:10478000B6010F946C21609382047093830480932C
:10479000840490938504CE0101960E94B4D82091A0
:1047A000CB043091640781E090E001C0880F3A9516
:1047B000EAF7112309F46ACF282B2093CB049091B8
:1047C000B403892B002309F4D8CE8093B403D5CE4B
:1047D000882309F474CFC090E304D090E404E090FF
:1047E000E504F090E60400E07DCF8091BB0390915A
:1047F000BC03009731F04AE050E070E060E00D94B7
:10480000FB1A60E070E0CB0108958091BB039091AA
:10481000BC03009731F04AE050E070E060E00D9496
:10482000D01960E070E0CB010895CF93DF93EB01E6
:1048300022D8882311F0E9DFEB01CE01DF91CF917F
:104840000895E3DFCB010895CF93DF93EB0113D8F5
:10485000882319F0DF91CF91F4CFCE01DF91CF9172
:104860000895D3DF97FD0AC0D0DF6F3F7105810542
:10487000910509F02CF4C9DF862F089580E0089592
:104880008FEF0895CF93C62F0E943B1C882311F011
:10489000CF91E7CF8C2FCF9108958091BB0390915A
:1048A000BC03892B39F0DDDF91E0811101C090E07C
:1048B000892F089591E0FCCFCF93DF93C82FD62F97
:1048C0000E943B1C882319F0DF91CF91E6CF8C2FFB
:1048D0000E94ED1B811101C08D2FDF91CF910895B2
:1048E0000F931F93CF938091BB039091BC030097CC
:1048F00009F1FC018F01C1912C2F2F7DA1F0C5344E
:1049000031F0C53621F0C83511F0C83799F7F801F4
:10491000108270E060E00F947B18F801C083CF91A3
:104920001F910F91089570E060E0CF911F910F915A
:104930000D947B1860E070E0CB01F1CF4F925F9255
:104940006F927F92AF92BF92CF92DF92EF92FF92DF
:104950000F931F93CF9382EAA82E82E0B82E94EA99
:10496000E92E96E0F92E03EC1DE023EDC22E2DE09A
:10497000D22EC0E0F50181915F010E943B1C88238B
:1049800009F4A6C0ADDF2B013C018C2F0E94C61B91
:10499000882309F493C0F801208131814281538139
:1049A000C301B2010F946C21F7016083718382838C
:1049B0009383CF5FF4E0EF0EF11C0C5F1F4F84E098
:1049C000C80ED11CC330B1F685E40E943B1C88237D
:1049D00009F489C085DF6B017C0183E00E94C61B5E
:1049E000882371F02091CF0D3091D00D4091D10DE1
:1049F0005091D20DC701B6010F946C216B017C015F
:104A0000C092B006D092B106E092B206F092B30620
:104A100086E40E943B1C8823B9F062DF20E030E08E
:104A2000A9010F94922318167CF45ADF20E030E09D
:104A300040E752E40F944822609350027093510271
:104A400080935202909353028091AA0483FD28C060
:104A50008091C606882321F12091CF0D3091D00D91
:104A60004091D10D5091D20D6091B0067091B10678
:104A70008091B2069091B3060F946B212091540758
:104A80003091550740915607509157070F946C216C
:104A90006093540770935507809356079093570778
:104AA000CF911F910F91FF90EF90DF90CF90BF902B
:104AB000AF907F906F905F904F900895F6012081A6
:104AC000318142815381C301B2010F946B216CCFBC
:104AD000F80180819181A281B381F7018083918364
:104AE000A283B38366CF8091CF0D9091D00DA0911A
:104AF000D10DB091D20D8093B0069093B106A093E2
:104B0000B206B093B30684CF4F925F926F927F92BA
:104B10008F929F92AF92BF92CF92DF92EF92FF92CD
:104B2000CF9380917207833008F4A4C007DF80918F
:104B3000E204882309F48FC08091D7039091D803B1
:104B4000A091D903B091DA0324E0B695A795979583
:104B500087952A95D1F780FF7EC08091D90387FD84
:104B60007AC08091DA03837009F075C08090B00636
:104B70009090B106A090B206B090B3062091CF0DF0
:104B80003091D00D4091D10D5091D20DC501B4019D
:104B90000F946B216B017C0120E030E0A9010F94A0
:104BA00092232601370187FF04C077FA709477F8C3
:104BB00070942DEC3CEC4CEC5DE3C301B2010F941E
:104BC000922387FD48C020E030E040E251E4C30179
:104BD000B2010F94DA1C18160CF43DC0C1E020E0BD
:104BE00030E0A901C701B6010F94922318160CF00A
:104BF000C0E08091CB0490E02091640702C09595BD
:104C000087952A95E2F78170C81325C08092CF0D51
:104C10009092D00DA092D10DB092D20D8FEC9DE06C
:104C20000E9486C020E030E0A901C701B6010F94C0
:104C3000DA1C60E0881F8827881FCF91FF90EF90D3
:104C4000DF90CF90BF90AF909F908F907F906F90AC
:104C50005F904F9063CCCF91FF90EF90DF90CF901B
:104C6000BF90AF909F908F907F906F905F904F908C
:104C70000C9404D6CF91FF90EF90DF90CF90BF902F
:104C8000AF909F908F907F906F905F904F9008951E
:104C9000CF93DF932091560421111FC090915704A8
:104CA00091111CC0C0910E02D0910F0221979CE27D
:104CB000899FF0011124EB59FE4E20E030E040E0E6
:104CC0005FE364817581868197810F946C210F94D5
:104CD000B02221E06C177D070CF020E0822FDF91DD
:104CE000CF9108950F931F93522F20910A12309164
:104CF0000B122817390779F11092570420914304B9
:104D000027FD1092430490930B1280930A128B019B
:104D100030E020E000932507109326072093270713
:104D20003093280740931F0750932007815F9F42CD
:104D300021F410925D07109244048CE092E10E94ED
:104D4000D0F40E9447E982E080936A0281E0809378
:104D50003507109253041F910F910895CF93C1E02E
:104D6000C0935D07FC0180819181A281B381809312
:104D7000100290931102A0931202B093130220E04C
:104D800040E070E060E080915C0490915D04AADFF7
:104D9000C0935704CF910895CF93DF9300D01F9213
:104DA000CDB7DEB78DEC9CECACECBCE389839A8389
:104DB000AB83BC83CE010196D1DF0F900F900F9093
:104DC0000F90DF91CF910895CF93DF9300D01F9282
:104DD000CDB7DEB78DEC9CECACECBDE389839A8358
:104DE000AB83BC83CE010196B9DF0F900F900F907B
:104DF0000F90DF91CF910895CF93DF9300D01F9252
:104E0000CDB7DEB780E090E0A0E8BFE389839A8366
:104E1000AB83BC83CE010196A1DF0F900F900F9062
:104E20000F90DF91CF910895CF93DF9300D01F9221
:104E3000CDB7DEB780E090E0A0E2B1E489839A8349
:104E4000AB83BC83CE01019689DF0F900F900F904A
:104E50000F90DF91CF91089580916A02882331F0FD
:104E600041E06DEE76E181E00E9438EC80913306FE
:104E70008770873071F41092540420E040E070E0B5
:104E800060E08DE59FE22EDF81E0809353040C9477
:104E9000EA1E089520E040E070E060E081EF9FE2CC
:104EA00021CF8FE490E10E94F3F5F4DF0C9498E9B0
:104EB000CF930E940DCC0E94249AC82F882319F00A
:104EC00080E00E94E2988C2FB5D9CF91E3CF8BE49C
:104ED00096E19093D9068093D806DCCF0F931F9369
:104EE000CF93DF93CDB7DEB76E970FB6F894DEBFE2
:104EF0000FBECDBF282F082E000C330B9091080257
:104F0000409109028F3F39F0F901EE0FFF1FE65F74
:104F1000FD4F908141814F939F933F938F9384E303
:104F200095E19F938F938E010F5F1F4F1F930F93F8
:104F30000F94731C4FE350E0B8018AED96E00F9494
:104F4000B525A8DF0FB6F894DEBF0FBECDBF6E96B5
:104F50000FB6F894DEBF0FBECDBFDF91CF911F918A
:104F60000F9108958FEFBACF80913B07B7CFCF93C2
:104F7000DF93C0914404CC23B1F0C150C0934404EA
:104F800089E0C89FE0011124C35FDB4F6A817B8108
:104F90002F814E8188819981A5DE888580935D0768
:104FA000DF91CF910895DF91CF9174CFE0914404C8
:104FB000E63028F581E08E0F809344044091250768
:104FC00050912607609127077091280720911F07AD
:104FD0009091200780915D0739E0E39FF001112453
:104FE000E35FFB4FA0910A12B0910B12B183A08333
:104FF00042835383648375832683978380870895D0
:10500000CF93DF93CDB7DEB78E81282F082E000C0B
:10501000330B9091CC109217130609F09CF48093F7
:10502000CC109E01275F3F4F4F81588560E570E0AF
:105030008BE790E10F94A21C10927A1010927910D5
:1050400010927810DF91CF9108950F931F93CF9313
:10505000DF938C016F3F19F41092CC1060E0209127
:10506000CC10862F062E000C990B2817190609F074
:1050700024F56093CC10C8010F94291C800F911F58
:10508000EC01C01BD10BC135D1053CF00197FC01EF
:105090002491207C2038D1F3F3CFDD27AE01B80175
:1050A0008BE790E10F944A1CC558DF4E188210928E
:1050B0007A101092791010927810DF91CF911F9191
:1050C0000F910895CF9380910504811109C08AEC56
:1050D00094E1909346048093450481E08093050415
:1050E00065DF20E040E070E060E087E69CE1FADD0B
:1050F000C1E0C0935D070E94169F10925D0737DFE5
:10510000C0935D0760E081E293E39FDF86EC94E16A
:105110009093D9068093D806CF9108950F931F934B
:105120000E9401F1009101041091020420910304F6
:1051300030910404601B710B820B930B97FD0CC024
:1051400086B186FB882780F991E08927349B8260AD
:10515000329B846080930004809100048170909160
:10516000000491FD82609091FF03981749F081300F
:1051700009F148F0823079F0833091F08093FF0399
:105180001F910F910895913079F09230B9F7909175
:10519000FE0391500CC0992339F09330C1F3EECF48
:1051A0009130A9F3923051F79091FE039F5F909355
:1051B000FE03E4CF992359F3933001F7F5CF8F30F5
:1051C00010F48F5F08958F5008954F925F926F9201
:1051D0007F928F929F92AF92BF92CF92DF92EF9287
:1051E000FF921F93CF93DF93CDB7DEB760970FB6D3
:1051F000F894DEBF0FBECDBF0E9401F16B017C01B0
:10520000809106028F3F09F44CC00E9401F180900A
:10521000F2039090F303A090F403B090F5036819A3
:1052200079098A099B0997FD3CC08091C011C7DFAD
:105230009091C1118917A9F18091060240E050E0D8
:1052400068E472E4843050F424E0829FF001112479
:10525000EA55FD4F40815181628173814D875E87A0
:105260006F87788B19821A821B821C821D821E8294
:105270001F82188619861A861B861C864091F103A8
:10528000833011F0409164079E012F5F3F4FBE01B4
:10529000635F7F4F83EC9DE00E9417B58FEF809393
:1052A00006023CDF8091000482FF33C08091FD0341
:1052B000811131C091E09093FD03809167078927A8
:1052C000809360041092670783E080936A021092D3
:1052D00000040E9401F16C507E4F8F4F9F4F6093EE
:1052E000010470930204809303049093040468E81B
:1052F00073E182E090E00E94BDDC16E0115059F0AD
:105300000E9425D962E070E080E090E00E94CEF03B
:10531000F5CF1092FD038091590790915A07A09103
:105320005B07B0915C07A7019601281B390B4A0B5C
:105330005B0BDA01C901B7FD88C1D701C6018C59E1
:105340009F4FAF4FBF4F8093590790935A07A09339
:105350005B07B0935C076091FE03062E000C770B91
:1053600077FF03C07195619571099091FE0380915B
:10537000FC03981398C0633008F095C01092FE03A8
:105380008091FE038093FC03643008F09CC0809100
:10539000600481111AC180910A1290910B12815FF1
:1053A0009F4241F480910702882309F420C1815073
:1053B000809307020E941CA08090A6049090A704EE
:1053C000A090A804B090A90481110E9429A0D50141
:1053D000C4014AE0B695A795979587954A95D1F768
:1053E0008F3F4FEF9407A105B10520F08FEF9FEF9E
:1053F000A0E0B0E020916A022223C9F1969587953A
:10540000009739F04091F6035091F7034817590778
:1054100070F5223038F0243008F4FBC0243011F449
:1054200010926A02E0910A12F0910B1219951092F3
:10543000600480910A1290910B12815F9F42F9F4EF
:105440000E9401F1DC01CB018C199D09AE09BF0955
:105450008090F6039090F703B12CA12C8816990642
:10546000AA06BB0620F49093F7038093F60380917D
:105470000A1290910B12815F9F4209F4CEC0809175
:105480005D078111CAC08091F8039091F903A09142
:10549000FA03B091FB03C81AD90AEA0AFB0AF7FC1F
:1054A000CAC0F8DCC8C0633009F06ACF8091FE033F
:1054B00087FD07C081E0880F880F8093FE0364E0BA
:1054C0005FCF8FEFF8CF80913A0721E030E040E0E6
:1054D00050E0882309F456C0809036079090370733
:1054E000A0903807B090390781149104A104B10449
:1054F000E9F170E090E080E00F94DE1C20E030E005
:1055000040E85EE30F943F1D2B013C01C701B6014B
:10551000681979098A099B090F94DE1C9B01AC016B
:10552000C301B2010F94482220E030E04AE754E47E
:105530000F943F1D4B015C0120E030E040EA52E453
:105540000F94922324E630E040E050E087FF12C041
:1055500020E030E040EF51E4C501B4010F94922304
:105560002AE030E040E050E087FF04C021E030E076
:1055700040E050E0C0923607D0923707E0923807FB
:10558000F0923907A091FE030A2E000CBB0B0F947A
:10559000FC2024E030E040E050E00F94D6208091E1
:1055A000250790912607A0912707B0912807820F21
:1055B000931FA41FB51F8093250790932607A093E0
:1055C0002707B09328071092FE03D701C601805A1F
:1055D0009541AF4FBF4F8093F8039093F903A09389
:1055E000FA03B093FB0381E080936A02D4CE89E092
:1055F000809307028091F6039091F703009729F0BA
:1056000001979093F7038093F60381E080936A02F9
:10561000D1CE81E080936A0205CF30E6C30E3AEE28
:10562000D31EE11CF11CC092F803D092F903E09262
:10563000FA03F092FB0380916A028130E1F083303B
:1056400021F48CE092E10E94D0F460960FB6F894B9
:10565000DEBF0FBECDBFDF91CF911F91FF90EF90C6
:10566000DF90CF90BF90AF909F908F907F906F9082
:105670005F904F90089510926A02E7CF20E044E0D7
:1056800064E18CE092E10E94D7F40E9447E98CE04B
:1056900092E10C94D0F4F2DF3E98469A3C98449AFA
:1056A0003A98429A3BDD1092FE030C9498E9CF920F
:1056B000DF92EF92FF920F931F93CF93DF9300D06F
:1056C00000D01F921F92CDB7DEB78E010F5F1F4F24
:1056D000D80130E020E0FB01E20FF31FE491ED93ED
:1056E0002F5F3F4F28303105B1F798E08902B001B4
:1056F000112460648CE092E10E94C8F483E790E09A
:105700000197F1F77801E8E0EE0EF11C8BE9C82E65
:10571000D12CF80161918F018CE092E10E94EEE7BB
:10572000C6010197F1F7E016F10699F728960FB632
:10573000F894DEBF0FBECDBFDF91CF911F910F91C7
:10574000FF90EF90DF90CF9008956FEF7FEF0C9474
:105750001322AF92BF92CF92DF92EF92FF920F93FC
:105760001F93CF93DF9300D01F92CDB7DEB76C01AC
:105770005B017A0110E000E00E151F05D0F4AE01C8
:105780004F5F5F4FB501C6010E9405DD6C01898145
:105790009A81AB81BC81892B8A2B8B2B51F0B7016D
:1057A000601B710BCE0101960E941322080F191F76
:1057B000E3CFC8010F900F900F900F90DF91CF9122
:1057C0001F910F91FF90EF90DF90CF90BF90AF901F
:1057D00008954FEF5FEF60EC7DE8BBCF4FEF5FEFD9
:1057E0006DEB7DE8B6CF8F929F92AF92BF92CF9232
:1057F000DF92EF92FF920F931F93CF93DF9300D02E
:1058000000D01F921F92CDB7DEB77C01162F5A0130
:105810004901862F660F990B9C012E553D4F69015A
:105820001016D4F5AE014B5F5F4F6DEB7DE8C701FD
:105830000E9405DD7C018D819E81AF81B885009736
:10584000A105B10549F18B379105A105B10509F411
:105850006EC08E379105A105B10509F468C08A3282
:105860009105A105B10561F517FF0FC08BE894E123
:105870001E3F11F086E894E1402F002E000C550BDE
:105880006DEB7DE866DF081B8AC083E994E1A6DF43
:10589000015009F04EC000E0802F28960FB6F89412
:1058A000DEBF0FBECDBFDF91CF911F910F91FF9053
:1058B000EF90DF90CF90BF90AF909F908F90089522
:1058C00084329105A105B105C1F48114910451F010
:1058D000402F002E000C550B6DEB7DE8C40139DF25
:1058E000081B9ECFA114B104E9F0402F002E000C3C
:1058F000550B60EC7DE8C501F2CF80349105A10520
:10590000B10581F40150F6018081082E000C990B3D
:10591000AA0BBB0B89839A83AB83BC83CE01019610
:1059200014DF7ECFCE01059610DF015079CF17FD31
:105930009DCF81E04D815E816F8178854B37510528
:105940006105710509F480E0810F8A30C4F00150CF
:105950006AE00F941121192F082E000C990BC096A4
:10596000092E000CAA0BBB0B89839A83AB83BC83E3
:10597000CE010196EADE002309F48DCF812F082E97
:10598000000C990BC096092E000CAA0BBB0B898347
:105990009A83AB83BC83CE010196D7DE01500023EE
:1059A00009F479CF402F002E000C550B6DEB7DE8EC
:1059B000C701CFDE081B70CF0F931F93CF93DF93E8
:1059C00000D000D01F921F92CDB7DEB700917A02AF
:1059D00010917B0220917C0230917D020D831E8309
:1059E0002F83388700917E0210917F0220918002E0
:1059F0003091810209831A832B833C839091131287
:105A0000691710F06FEF690F262F30E040911412E4
:105A10002C0F3D1FF901403199F4943089F46181D4
:105A2000680F60688CE092E128960FB6F894DEBFAC
:105A30000FBECDBFDF91CF911F910F910C94C8F491
:105A40006581EECFFC01A081B1811C92A281B3815E
:105A50008C918F5F8C930280F381E02D608180E0D8
:105A6000ABCF4F925F926F927F928F929F92AF9245
:105A7000BF92CF92DF92EF92FF920F931F93CF933B
:105A8000DF9300D000D01F921F92CDB7DEB76C011C
:105A90007B015A014901FB016081FC0180818CDF9F
:105AA000A114B10409F49DC0DA82C982FC82EB82A0
:105AB000011121C0AE014B5F5F4FB401C5010E94CF
:105AC00005DD5C018D819E81AF81B885892B8A2B94
:105AD0008B2B09F486C0CE01059637DEF601808156
