:100000000C94CA1D0C940A1E0C940A1E0C940A1E11
:100010000C940A1E0C940A1E0C940A1E0C940A1EC0
:100020000C940A1E0C940A1E0C940A1E0C940A1EB0
:100030000C940A1E0C940A1E0C940A1E0C940A1EA0
:100040000C940A1E0C946AB30C940A1E0C940A1E9B
:100050000C940A1E0C942AB10C940A1E0D94EB12F7
:100060000C940A1E0C948D6C0C94836C0C940A1ED8
:100070000C940A1E0C940A1E0C940A1E0C940A1E60
:100080000C9411610C940A1E0C940A1E0C940A1E06
:100090000C940A1E0C940A1E0C940A1E0C940A1E40
:1000A0000C940A1E0C940A1E0C94E3600C940A1E15
:1000B0000C940A1E0C940A1E0C940A1E0C940A1E20
:1000C0000C940A1E0C940A1E0C940A1E0C940A1E10
:1000D0000C940A1E0C940A1E0C940A1E0C940A1E00
:1000E0000C940A1E084AD73B3BCE016E84BCBFFD70
:1000F000C12F3D6C74319ABD56833DDA3D00C77FF8
:1001000011BED9E4BB4C3E916BAAAABE0000008090
:100110003F05A84CCDB2D44EB93836A9020C50B91F
:10012000918688083CA6AAAA2ABE000000803F0744
:10013000634236B79BD8A71A39685618AEBAAB5582
:100140008C1D3CB7CC5763BD6DEDFD753EF6177247
:1001500031BF000000803F08000000BE9224491219
:100160003EABAAAA2ABECDCCCC4C3E00000080BE3D
:10017000ABAAAAAA3E00000000BF000000803F001A
:1001800000000000084178D3BB4387D1133D190E0E
:100190003CC3BD4282AD2B3E68EC8276BED98FE176
:1001A000A93E4C80EFFFBE01C4FF7F3F000000006E
:1001B00000000D948D110D947C110D94D9210D9496
:1001C00080110D9493110D94AF110D94B3110D94F2
:1001D0005D110D94A5110D9489110D9462110D946A
:1001E00097110D949B110D9478110D9474110D9429
:1001F000A9110D94A1110D9483110D94BB214E41B1
:100200004E494E495459494E46CDCCCC3D0AD72390
:100210003C17B7D13877CC2B329595E6241FB14FD8
:100220000A000020410000C84200401C4620BCBE1D
:100230004CCA1B0E5AAEC59D7400407A10F35A008A
:10024000A0724E18090010A5D4E80000E8764817FF
:100250000000E40B54020000CA9A3B000000E1F5E4
:1002600005000080969800000040420F000000A0AA
:100270008601000000102700000000E803000000D5
:10028000006400000000000A0000000000010000FF
:100290000000002C76D888DC674F0823DFC1DFAE72
:1002A00059E1B1B796E5E3E453C63AE6519976963B
:1002B000E8E6C28426EB898C9B62ED407C6FFCEF04
:1002C000BC9C9F40F2BAA56FA5F490055A2AF75C32
:1002D000936B6CF9676DC11BFCE0E40D47FEF520E4
:1002E000E6B500D0ED902E030094357705008084AC
:1002F0001E080000204E0A000000C80C33333333C0
:100300000F986E12831141EF8D2114893BE655162B
:10031000CFFEE6DB18D1844B381BF77C1D901DA463
:10032000BBE424203284725E228100C9F124ECA156
:10033000E53D27434F4D4D554E49434154494F4E9E
:100340000044525952554E004552524F52530049A3
:100350004E464F004543484F00554E4C4F414420B8
:1003600046494C414D454E54004C4F41442046496E
:100370004C414D454E540046494C414D454E54204C
:100380004348414E4745004572726F72207772694B
:1003900074696E6720746F20454550524F4D210A95
:1003A0000053544F505045442E20005072696E74D3
:1003B00065722073746F7070656420647565207455
:1003C0006F206572726F72732E2046697820746890
:1003D00065206572726F7220616E6420757365208E
:1003E0004D39393920746F20726573746172742EBF
:1003F000202854656D70657261747572652069732B
:100400002072657365742E205365742069742061B1
:10041000667465722072657374617274696E67299F
:100420000A004E6F20436865636B73756D207769B2
:100430007468206C696E65206E756D6265722C2023
:100440004C617374204C696E653A20004E6F2043F6
:100450006865636B73756D2077697468206C696E6D
:1004600065206E756D6265722C204C617374204C32
:10047000696E653A2000636865636B73756D206D06
:1004800069736D617463682C204C617374204C69CE
:100490006E653A20004C696E65204E756D6265721E
:1004A000206973206E6F74204C617374204C696EE8
:1004B00065204E756D6265722B312C204C61737412
:1004C000204C696E653A20004D3131300053657221
:1004D00069616C20737461747573206D69736D61EB
:1004E0007463680A00534420726561642065727207
:1004F0006F720A00486F74656E642049646C6520F1
:1005000054696D656F757400486F74656E64204939
:10051000646C652054696D656F75740A004B494CB5
:100520004C20627574746F6E2F70696E0A00212101
:10053000204B494C4C2063617573656420627920BF
:1005400000746F6F206D75636820696E61637469F4
:1005500076652074696D65202D2063757272656EF5
:100560007420636F6D6D616E643A20002121204B11
:10057000494C4C2063617573656420627920006288
:100580007573793A2070617573656420666F7220A7
:10059000696E7075740A00627573793A20706175BE
:1005A00073656420666F7220757365720A006275E8
:1005B00073793A2070726F63657373696E670A00AE
:1005C0004D656469612052656D6F766564004D31DB
:1005D0003030305300506C6561736520526573652F
:1005E00074005052494E5445522048414C544544A1
:1005F0000025533A202553004B494C4C45442E20AE
:10060000005072696E7465722068616C7465642E46
:10061000206B696C6C28292063616C6C6564210A0D
:1006200000006563686F3A004572726F723A004F5E
:100630004646004F4E000A4D656173757265642031
:10064000706F696E74733A0A00357835206D657382
:10065000682E205A206F66667365743A2000486FD2
:1006600074656E6420746F6F20636F6C640A005051
:100670007265737320627574746F6E20746F20726C
:100680006573756D650A00496E73657274206669DD
:100690006C616D656E7420616E6420707265737339
:1006A00020627574746F6E0A00526568656174200B
:1006B000446F6E6500526568656174696E672E2EC1
:1006C0002E00507265737320627574746F6E20749F
:1006D0006F2068656174206E6F7A7A6C650A0048D5
:1006E0006561642063616E6E6F7420626520706165
:1006F000726B6564004F46460A0046616465204897
:1007000065696768742000426564204C6576656C95
:10071000696E6720004661696C656420746F2065AE
:100720006E61626C6520426564204C6576656C691B
:100730006E670A004D65736820426564204C6576DB
:10074000656C20646174613A0A00496E76616C6977
:1007500064206D6573682E0A00206E6F7420656ECC
:1007600074657265642E0A0050726F62696E67204C
:10077000506F696E740025532025692F256900206C
:100780006F6620004D424C2047323920706F696EF1
:10079000742000290A004A206F7574206F66207249
:1007A000616E67652028302D00290A0049206F7589
:1007B00074206F662072616E67652028302D0047B7
:1007C00032384C30004D6573682070726F62696E0C
:1007D0006720646F6E65004D6573682070726F628C
:1007E000696E6720646F6E652E0A005374617274BF
:1007F000206D6573682070726F62696E672077691B
:10080000746820224732392053312220666972737E
:10081000742E0A00473239533200686173206E6FBC
:1008200020646174612E0A004D657368204265641E
:10083000204C6576656C696E67200053206F757477
:10084000206F662072616E67652028302D35292E55
:100850000A0020440020204D323030205300202850
:1008600044697361626C6564293A0046696C616D24
:10087000656E742073657474696E67730020204D13
:100880003230312058004D617820416363656C65DA
:10089000726174696F6E2028756E6974732F73327C
:1008A000290020204D3230332058004D61782066D9
:1008B00065656472617465732028756E6974732F41
:1008C00073290020520020204D3230342050004146
:1008D0006363656C65726174696F6E2028756E69FB
:1008E00074732F7332292028503C7072696E742DF6
:1008F000616363656C3E20523C726574726163741F
:100900002D616363656C3E20543C74726176656C46
:100910002D616363656C3E29002054002053002044
:10092000204D323035204200416476616E6365644B
:100930002028423C6D696E5F7365676D656E745FFC
:1009400074696D655F75733E20533C6D696E5F66BB
:10095000656564726174653E20543C6D696E5F74B8
:10096000726176656C5F66656564726174653E2070
:10097000583C6D61785F6A65726B3E20593C6D61D1
:10098000785F6A65726B3E205A3C6D61785F6A657C
:10099000726B3E20453C6D61785F6A65726B3E29E3
:1009A0000020440020490020204D333031205000E9
:1009B000486F74656E6420504944003A200020530B
:1009C0006572766F2000206F7574206F66207261EB
:1009D0006E67650A00536572766F200020204D39DE
:1009E00030370053746570706572206D6F746F726C
:1009F0002063757272656E747300203B0020550091
:100A000020204D363033204C0046696C616D656E98
:100A100074206C6F61642F756E6C6F6164004D3271
:100A20003453256C6454256C64004739322E3945A3
:100A300025730047314625640047315A25734636F1
:100A400030300047315825735925734633303030E4
:100A5000004D313036502569532569004D3130390C
:100A6000532569004D323030442573004739322E0A
:100A7000395A2573004D3432305325635A2573009B
:100A8000473238523058590047315A25734636306C
:100A900030004739322E395A2573004739322E3902
:100AA0004530004D313039532569004D31393053CF
:100AB0002569004D343230533000203B2000202087
:100AC0004D343133205300506F7765722D6C6F7346
:100AD00073207265636F76657279003B2000204950
:100AE0006E76616C696420657874727564657220D5
:100AF00000536C6565702E2E2E004D657368207056
:100B00006F696E74206F7574206F662072616E67F6
:100B1000650A00436C69636B20746F2052657375BE
:100B20006D652E2E2E004E6F204D6F76652E004582
:100B30006E642066696C65206C6973740A00426596
:100B400067696E2066696C65206C6973740A004E73
:100B50006F206D656469610A00286E6F2066696C9C
:100B600065290043757272656E742066696C653A1A
:100B700020004E6F74205344207072696E74696E49
:100B8000670A005344207072696E74696E67206250
:100B900079746520005072696E742074696D653ACD
:100BA00020000A53746174733A2046696C616D6564
:100BB0006E7420757365643A20002C204C6F6E674C
:100BC000657374206A6F623A2000546F74616C2000
:100BD00074696D653A200053746174733A20002C77
:100BE000204661696C65643A20002C2046696E6974
:100BF000736865643A20005072696E74733A20001D
:100C000053746174733A20006F6B006F6666005412
:100C1000034F0348034103330344454255473A0019
:100C20004D3131322053687574646F776E004D31E9
:100C300031332053005448494E4B455220534520F0
:100C40004F46462E002F2F004D31343520533C693E
:100C50006E6465783E206F7574206F662072616ED9
:100C600067652028302D31290A005741524E494EE0
:100C70004721204C6F77205A204A65726B206D61A6
:100C800079206C65616420746F20756E77616E7475
:100C90006564207061757365732E0A00205800200A
:100CA000204D61783A2000200020204D696E3A20C6
:100CB00000203B200020204D323131205300536F63
:100CC000667420656E6473746F707300250A004645
:100CD000523A0020466C6F773A20004D424C20413A
:100CE000646A757374205A0064697300656E00430A
:100CF000290A0061626C656420286D696E20746544
:100D00006D702000436F6C64206578747275646543
:100D1000732061726520004D65736820706F696E85
:100D200074206F7574206F662072616E67650A00AB
:100D30004D34323120696E636F7272656374207056
:100D40006172616D657465722075736167650A0013
:100D50004F666673657473204170706C69656400DA
:100D60004D494E2F4D415820546F6F2046617200FF
:100D7000546F6F206661722066726F6D204D494E10
:100D80002F4D41580A00454550524F4D204F4B0AB8
:100D9000004D383400446F6E65207072696E74695E
:100DA0006E672066696C650A004D3737004D333138
:100DB00000496E76616C696420657874727564654B
:100DC000720A0020204D323036205800486F6D6581
:100DD000206F6666736574004361703A00434F4E3E
:100DE0004649475F4558504F5254004D4541545075
:100DF00041434B00434F4F4C45525F54454D504586
:100E0000524154555245004348414D4245525F546A
:100E1000454D504552415455524500424142595367
:100E200054455050494E470041524353004D4F5492
:100E3000494F4E5F4D4F44455300544845524D4134
:100E40004C5F50524F54454354494F4E00455854FF
:100E5000454E4445445F4D323000435553544F4D49
:100E60005F4649524D574152455F55504C4F4144A2
:100E7000004C464E5F5752495445004C4F4E475F19
:100E800046494C454E414D45004155544F52455001
:100E90004F52545F53445F5354415455530053448D
:100EA0005F575249544500524550454154004D55F5
:100EB0004C54495F564F4C554D45005344434152A5
:100EC000440050524F4D50545F535550504F525460
:100ED00000484F53545F414354494F4E5F434F4D79
:100EE0004D414E445300454D455247454E43595F91
:100EF00050415253455200434153455F4C49474886
:100F0000545F4252494748544E45535300544F474B
:100F1000474C455F4C494748545300534F4654573C
:100F20004152455F504F574552004255494C445F2E
:100F300050455243454E54004C4556454C494E474A
:100F40005F44415441005A5F50524F424500525550
:100F50004E4F5554004155544F4C4556454C00504A
:100F600052494E545F4A4F420050524F47524553E8
:100F700053004155544F5245504F52545F54454DC4
:100F800050004155544F5245504F52545F504F53AB
:100F900000564F4C554D455452494300454550521B
:100FA0004F4D0042494E4152595F46494C455F54AE
:100FB00052414E534645520053455249414C5F58A9
:100FC0004F4E5F584F4646004649524D5741524595
:100FD0005F4E414D453A4D61726C696E20322E3143
:100FE0002E322E3820284A756E2032382032303288
:100FF000362030393A30343A34372920534F55525D
:1010000043455F434F44455F55524C3A67697468A6
:1010100075622E636F6D2F4D61726C696E466972D9
:101020006D776172652F4D61726C696E2050524F01
:10103000544F434F4C5F56455253494F4E3A312E11
:1010400030204D414348494E455F545950453A542C
:1010500048494E4B4552205345204558545255441B
:1010600045525F434F554E543A3120555549443A05
:1010700063656465326132662D343161322D3437F7
:1010800034382D396231322D63353563363266336B
:10109000363766660047322F47332062616420701E
:1010A0006172616D65746572730A0025697300254C
:1010B000696D20256973002569682025696D2025E3
:1010C000697300256964202569682025696D2025DC
:1010D00069730025697920256964202569682025C0
:1010E000696D2025697300436F6F6C696E672E2EE2
:1010F0002E0045312025530020573A0042656420D8
:10110000436F6F6C696E672E2E2E00426564204817
:10111000656174696E672E2E2E0023646566696EA4
:10112000652044454641554C545F004B4420004BDC
:101130004920004B5020002066696E697368656421
:10114000212050757420746865206C617374204B85
:10115000702C204B6920616E64204B6420636F6E9D
:101160007374616E74732066726F6D2062656C6F4C
:101170007720696E746F20436F6E66696775726160
:1011800074696F6E2E680A00504944204175746F6F
:1011900074756E6500206661696C656421207469F0
:1011A0006D656F75740A00504944204175746F7401
:1011B000756E6500206661696C6564212054656DFB
:1011C000706572617475726520746F6F20686967ED
:1011D000680A00504944204175746F74756E65004B
:1011E000504944204379636C657300255320256979
:1011F0002F256900204B643A2000204B693A2000DB
:10120000204B703A200020436C6173736963205057
:101210004944200A002054753A2000204B753A209A
:1012200000206D61783A2000206D696E3A20002020
:10123000643A200020626961733A20004865617455
:10124000696E672E2E2E002073746172740A00502E
:101250004944204175746F74756E6500206661693C
:101260006C6564212054656D70657261747572657A
:1012700020746F6F20686967680A005049442041F4
:1012800075746F74756E6500504944204175746FB4
:1012900074756E65003F28432979636C6573206E11
:1012A0006F7420706C61757369626C6520283E3DB7
:1012B00033292E0A00206661696C65642120426131
:1012C00064206865617465722069640A005049444D
:1012D000204175746F74756E65004572723A2075A1
:1012E00074663820666F6E74206E6F7420696E6944
:1012F0007469616C697A65642E004572723A207572
:1013000074663820666F6E74206E6F7420696E6923
:101310007469616C697A65642E004572723A207551
:1013200074663820666F6E74206E6F7420696E6903
:101330007469616C697A65642E00200020002000C9
:101340003A003A002568753A253032687500253034
:101350003268753A25303268750025303268752755
:10136000253032687500256875642025303268752F
:101370003A25303268750042656400456E636C6FD3
:1013800073757265004500200020002000200020B9
:101390000025002020202020202000657272001FE0
:1013A000E0201020102010102010202010201030DD
:1013B000300840048003001FE03FF03FF03FF01F83
:1013C000E01FE03FF03FF03FF00FC0078003003F19
:1013D000FFF038007030FC3020FC102078102030F6
:1013E000102C00D02E31D02F7BD02F7BD02E31D09F
:1013F0002C00D020301020781020FC1030FC303829
:1014000000703FFFF03FFFF03800703186302387D7
:10141000102787902F87D02F03D0203010207810EE
:101420002078102030102F03D02F87D027879023CB
:1014300087103186303800703FFFF01FFFF81FFF24
:10144000F804104002082002082004104008208000
:101450001041001041000820800410400000001FCF
:10146000FFF81FFFF8256C6425636D005072696EEC
:10147000742041626F72746564004D323520500AE9
:101480004D32340050617573696E672E2E2E004DFB
:101490003234003F0049676E6F72650052657365B4
:1014A0007400496E697469616C697A6520454550BC
:1014B000524F4D004C6F6164206D6D00556E6C6F26
:1014C0006164206D6D0046696C2E204469612E00B8
:1014D0004520696E206D6D5E3300200820466163F3
:1014E00074002008204D6178002008204D696E00AE
:1014F0004F6666004F6E004175746F74656D7000C5
:101500004D696E2054726176656C20537065656418
:10151000004D696E2056656C6F63697479004D618A
:10152000782040205370656564004D617820452027
:10153000416363656C004D617820402041636365C1
:101540006C0054726176656C20416363656C005277
:1015500065747261637420416363656C0041636309
:10156000656C004D61782040204A65726B00402018
:1015700073746570732F6D6D00416476616E636581
:10158000642053657474696E6773003F0043616E35
:1015900063656C00496E6974004D34323800496EE1
:1015A000697469616C697A6520454550524F4D00F8
:1015B00046696C616D656E740054656D706572612D
:1015C000747572650053746570732F6D6D004A6594
:1015D000726B00416363656C65726174696F6E0064
:1015E0004D617820537065656420286D6D2F7329D7
:1015F0000053657420486F6D65204F66667365748F
:101600007300436F6E66696775726174696F6E000F
:101610004C6576656C696E6720446F6E6521004D80
:101620006F7665205A004732395332004E65787420
:1016300020506F696E74002569202F2025750047A2
:101640003239533100473239533200436C69636B8E
:1016500020746F20426567696E00486F6D696E6720
:101660002058595A0053746F726520536574746919
:101670006E6773004C6F61642053657474696E67A4
:101680007300426564205A004661646520486569BC
:10169000676874004F6666004F6E00426564204CB8
:1016A0006576656C696E67004C6576656C20426591
:1016B00064004D6F74696F6E00426564004E6F7A0E
:1016C0007A6C650046616E20537065656400436FF7
:1016D0006E66696775726174696F6E0052657374C6
:1016E0006F72652044656661756C7473004C6F6140
:1016F000642053657474696E67730053746F726508
:101700002053657474696E67730050726568656113
:1017100074202420436F6E66004F6666004F6E0093
:10172000506F776572204F7574616765004164760C
:10173000616E6365642053657474696E6773004DF0
:1017400061696E004D37303220542564004D3630CB
:101750003020423020542564004D373032203B2564
:1017600064004D37303120542564004D373032004D
:101770004D373031004D363030204230004D6169F8
:101780006E00436F6E74696E7565005075726765A3
:10179000206D6F726500524553554D45204F505492
:1017A000494F4E533A005052494E542050415553E0
:1017B0004544002F00200020204E6F7A7A6C653A55
:1017C00020005061726B696E672E2E2E000000574C
:1017D00061697420666F720066696C616D656E7414
:1017E000206368616E676500746F20737461727442
:1017F000005761697420666F720066696C616D657F
:101800006E7420756E6C6F616400004E6F7A7A6C36
:10181000652068656174696E6700506C6561736509
:1018200020776169742E2E2E00005072657373202C
:10183000627574746F6E00746F2068656174206ED9
:101840006F7A7A6C650000496E7365727420666900
:101850006C616D656E7400616E6420707265737387
:1018600020627574746F6E00746F20636F6E74699C
:101870006E7565005761697420666F720066696CE9
:10188000616D656E74206C6F6164000050726573E9
:101890007320427574746F6E00746F207265737577
:1018A0006D65207072696E740000576169742066FE
:1018B0006F72207072696E7400746F207265737538
:1018C0006D652E2E2E00005761697420666F7200C0
:1018D00066696C616D656E74207075726765000075
:1018E0003E2000256C642E25696D00457874727564
:1018F00064656420546F74616C003E20004C6F6E10
:1019000067657374204A6F622054696D65003E20DC
:10191000005072696E742054696D6500436F6D707C
:101920006C65746564003A20005072696E742043DF
:101930006F756E74003A2000313530003500424535
:10194000443A20486973656E73203339353000524C
:10195000756E617761792057617463683A204F4EE4
:10196000004D61782054656D7000323735004D6947
:101970006E2054656D7000350045313A204869731A
:10198000656E732033393530005053550047656E0E
:10199000657269630050726F746F636F6C00312EF3
:1019A00030004261756400323530303030005261B1
:1019B0006D626F205468696E6B65725632004D65BA
:1019C0007368204C6576656C696E67004578747243
:1019D00075646572730031006D61726C696E667753
:1019E0002E6F7267005448494E4B455220534500B4
:1019F000323032362D30362D323400322E312E3206
:101A00002E38004D61726C696E00000C0F00FE07ED
:101A1000022503BB017FFE08FE08FE05080806003C
:101A20000040F0C88888987810050808060000C0B3
:101A3000F88888888888F80505050600012030F8B0
:101A400030200508080600002070F820202020E043
:101A50000509090600FF2070A8A8B888887020072B
:101A60000505070001D86C366CD80509090600FF8A
:101A7000F8A88888888888A8F8050A0A0600FE2041
:101A80005050505088A8A8887003030306000340F4
:101A9000A040FFFFFFFFFFFFFFFFFFFFFFFFFFFF74
:101AA000FFFFFFFFFFFFFFFF0000000605FF01072C
:101AB0000706020080808080800080030303060107
:101AC00005A0A0A005060606000050F85050F850EA
:101AD0000509090600FF2070A8A07028A87020053D
:101AE0000707060000C8C810204098980507070699
:101AF000000040A0A040A8906801030306020580F2
:101B000080800309090601FF20404080808040401A
:101B1000200309090601FF8040402020204040802A
:101B200005070706000020A8702070A820050505FD
:101B30000600012020F820200203030601FFC04018
:101B400080050101060003F8020202060100C0C080
:101B50000507070600000810102040408005070711
:101B6000060000708898A8C888700307070601005F
:101B700040C040404040E00507070600007088086C
:101B8000102040F8050707060000F8081030088804
:101B90007005070706000010305090F81010050778
:101BA00007060000F880F00808887005070706009F
:101BB00000304080F0888870050707060000F808AC
:101BC0001010202020050707060000708888708804
:101BD0008870050707060000708888780810600282
:101BE0000505060100C0C000C0C00206060601FFD0
:101BF000C0C000C0408003050506010120408040B0
:101C000020050303060002F800F80305050601019C
:101C100080402040800507070600007088102020C3
:101C200000200507070600007088B8A8B880700576
:101C30000707060000708888F88888880507070667
:101C40000000F04848704848F0050707060000709B
:101C5000888080808870050707060000F0484848A3
:101C60004848F0050707060000F88080F08080F8FB
:101C7000050707060000F88080F0808080050707D0
:101C800006000070888080988870050707060000AD
:101C9000888888F8888888030707060100E04040A4
:101CA000404040E005070706000038101010109073
:101CB000600507070600008890A0C0A0908805076F
:101CC00007060000808080808080F80507070600F6
:101CD0000088D8A8888888880507070600008888B3
:101CE000C8A8988888050707060000708888888833
:101CF0008870050707060000F08888F0808080055E
:101D0000070706000070888888A8906805070706FE
:101D10000000F08888F0A090880507070600007092
:101D2000888070088870050707060000F8202020CA
:101D3000202020050707060000888888888888708A
:101D40000507070600008888888850502005070787
:101D500006000088888888A8A850050707060000A4
:101D6000888850205088880507070600008888501A
:101D700020202020050707060000F80810204080DA
:101D8000F80309090601FFE080808080808080E000
:101D900005070706000080404020101008030909CD
:101DA0000601FFE020202020202020E0050303067C
:101DB00000052050880501010600FEF80303030614
:101DC0000105804020050505060000700878887828
:101DD0000507070600008080F0888888F005050563
:101DE000060000708080887005070706000008085C
:101DF00078888888780505050600007088F080706E
:101E0000050707060000304840E04040400507074E
:101E10000600FE70888888780870050707060000AD
:101E20008080F0888888880307070601004000C08A
:101E3000404040E00409090601FE10003010101077
:101E400010906005070706000080808890E0908869
:101E5000030707060100C04040404040E00505057B
:101E6000060000D0A8A8A8A8050505060000B0C86F
:101E70008888880505050600007088888870050731
:101E8000070600FEF0888888F080800507070600B6
:101E9000FE78888888780808050505060000B0C81F
:101EA00080808005050506000078807008F0050731
:101EB000070600002020F820202018050505060050
:101EC000008888889868050505060000888888507D
:101ED000200505050600008888A8A8500505050608
:101EE000000088502050880507070600FE88888873
:101EF00050204080050505060000F8102040F8033A
:101F000009090601FF20404040804040402001096F
:101F1000090602FF8080808080808080800309091C
:101F20000601FF80404040204040408005030306FA
:101F3000000248A890FF4572723A20454550524F22
:101F40004D20436F7272757074004572723A20456D
:101F50004550524F4D20435243004572723A20453E
:101F60004550524F4D2053697A65004572723A20B0
:101F7000454550524F4D2056657273696F6E005043
:101F800072696E746572205374617473005468656D
:101F9000726D6973746F727300426F61726420496D
:101FA0006E666F005072696E74657220496E666F5E
:101FB000004D61696E004D313030300053746F70E8
:101FC000205072696E7400526573756D6520507291
:101FD000696E7400506F776572204F757461676524
:101FE000003F004261636B0053746F70004368618F
:101FF0006E67652046696C616D656E74004E6F207A
:102000004D65646961005072696E742066726F6D0F
:10201000204D65646961004368616E6765204D65A8
:10202000646961004D32310041626F7574205072F5
:10203000696E74657200436F6E666967757261746C
:10204000696F6E0054656D706572617475726500BC
:102050004D6F74696F6E00526573756D65205072B7
:10206000696E740054756E650053746F7020507201
:10207000696E74005061757365205072696E7400EA
:10208000496E666F2053637265656E003F0053743E
:10209000617274205072696E740043616E63656C86
:1020A000005072696E740043616E6E6F7420656ECD
:1020B000746572207375626469723A200002202E82
:1020C0002E004261636B004D61696E002100486F14
:1020D00074656E6420746F6F20636F6C640042617E
:1020E000636B0050726F63656564004D6F766520A9
:1020F0004578747275646572004D6F74696F6E0017
:1021000044697361626C65205374657070657273A5
:10211000004D383400426564204C6576656C696E0C
:1021200067004732385A004732385900486F6D65AA
:1021300020400047323858004175746F20486F6D59
:102140006500473238004D61696E00507265686500
:102150006174202420426564005072656865617472
:10216000202420456E640054656D7065726174753D
:10217000726500436F6F6C646F776E0050726568B4
:1021800065617420240046616E205370656564208B
:102190007E00426564004E6F7A7A6C65004D61691D
:1021A0006E004261627973746570205A0042616208
:1021B0007973746570204000466C6F770046616EDD
:1021C000205370656564207E00426564004E6F7A1E
:1021D0007A6C6500426564205A005370656564003E
:1021E0004D61696E00486F6D696E67204661696C6C
:1021F0006564006F70656E0054524947474552450B
:1022000044003A20007A5F6D696E00795F6D696EF7
:1022100000785F6D696E005265706F7274696E67E9
:1022200020656E6473746F70207374617475730AC3
:102230000020746F6F206C6F6E6720657874727504
:1022400073696F6E2070726576656E7465640A00DE
:1022500020636F6C6420657874727573696F6E208B
:1022600070726576656E7465640A005761726E6996
:102270006E673A20486F6D696E672042756D7020F9
:1022800044697669736F72203C20310A00020204AF
:10229000000000000000000000000000486F6D69B1
:1022A0006E67204661696C65640020456E647374D6
:1022B0006F703F0A004261642000000096430000F6
:1022C00096430000C8430000A0400000A04000006A
:1022D0000040000000010000000100008000555592
:1022E00055000000400033333300AAAA2A00499267
:1022F000240000002000C7711C0099991900D145E5
:102300001700555515003BB1130024491200111157
:102310001100000010000F0F0F00E3380E0043798A
:102320000D00CCCC0C00C3300C00E8A20B006421E3
:102330000B00AAAA0A00703D0A009DD80900427B42
:10234000090092240900DCD30800888808001042A4
:10235000080000000800F0C10700878707007550DB
:102360000700711C07003EEB0600A1BC0600699047
:10237000060066660600703E06006118060017F447
:10238000050074D105005BB00500B29005006272D3
:1023900005005555050078390500B81E05000505EE
:1023A00005004EEC040087D40400A1BD040090A7F2
:1023B000040049920400C17D0400EE690400C75680
:1023C0000400444404005C3204000821040041106D
:1023D0000400000004003FF00300F8E0030026D2F0
:1023E0000300C3C30300CCB503003AA803000A9B53
:1023F0000300388E0300C08103009F750300D0697D
:102400000300505E03001D53030034480300913D58
:1024100003003333030016290300381F0300971508
:102420000300300C0300030303000BFA020049F120
:102430000200BAE802005CE002002DD802002DD0B4
:10244000020059C80200B0C0020031B90200DAB17E
:102450000200AAAA0200A0A30200BC9C0200FA95F6
:1024600002005C8F0200DF88020082820200457C4D
:1024700002002776020027700200436A02007C6493
:102480000200D05E02003F590200C8530200FFFD67
:10249000FCFAF8F6F4F2F0EEECEAE9E7E5E3E1E065
:1024A000DEDCDAD9D7D5D4D2D0CFCDCBCAC8C7C518
:1024B000C3C2C0BFBDBCBAB9B7B6B4B3B2B0AFAD9A
:1024C000ACAAA9A8A6A5A4A2A1A09E9D9C9A9998F1
:1024D0009795949392908F8E8D8B8A898887868426
:1024E000838281807F7E7D7B7A797877767574733D
:1024F0007271706F6E6D6C6B6A6968676665646334
:102500006261605F5E5D5C5B5A595858575655541E
:1025100053525150504F4E4D4C4B4A4A49484746F2
:1025200046454443424241403F3E3E3D3C3B3B3AB0
:1025300039383837363535343332323130302F2E62
:102540002E2D2C2B2B2A2929282727262525242305
:102550002322212120201F1E1E1D1C1C1B1B1A199B
:102560001918181716161515141313121211111025
:102570000F0F0E0E0D0D0C0C0B0A0A0909080807A7
:10258000070606050504040303020201000000001B
:102590009643000096430000C8430000000000007E
:1025A00000000000000053657474696E6773205367
:1025B000746F72656400290A002062797465733B48
:1025C00020637263200053657474696E67732053CF
:1025D000746F72656420280048617264636F64657B
:1025E000642044656661756C742053657474696E0B
:1025F0006773204C6F616465640044696769706F3C
:1026000074205772697474656E0A00577269746930
:102610006E672044696769706F740A0020286D6DC9
:102620002900203B204C6576656C696E6720002090
:10263000204D3432302053004D657368204265646C
:10264000204C6576656C696E67002046002042006C
:1026500020480020204D3134352053004D617465F1
:102660007269616C20686561747570207061726157
:102670006D65746572730020204732392053342011
:102680005A00204A00202047323920533320490085
:1026900020204D3134392043203B20556E6974731E
:1026A00020696E2043656C736975730A0054656D0B
:1026B000706572617475726520556E69747300205F
:1026C00020473231203B004C696E65617220556EA7
:1026D00069747300454550524F4D206461746173B5
:1026E000697A65206572726F722E0A002028636114
:1026F0006C63756C6174656429210A0020213D209A
:1027000000454550524F4D20435243206D69736D33
:1027100061746368202D202873746F7265642920AA
:1027200000454550524F4D20436F72727570740AC8
:10273000002053697A653A2000496E6465783A2032
:1027400000290A002062797465733B20637263205C
:10275000002073746F7265642073657474696E67AA
:102760007320726574726965766564202800444937
:102770004749504F5453204C6F616465640A0044CC
:10278000494749504F5453204C6F6164696E670A42
:1027900000000096430000964300000C420000C871
:1027A000410000A0420000A0420000C8430000BA5F
:1027B00042DC050000DC05000096000000DC05009E
:1027C00000204D61726C696E3D563838290A00450B
:1027D0004550524F4D2076657273696F6E206D695A
:1027E000736D617463682028454550524F4D3D001C
:1027F00020436F756E7420583A004D6963726F7391
:102800007465707320756E617661696C61626C6568
:102810000A002045303A00205A3A0020593A002058
:10282000583A004D53317C327C332050696E73002E
:1028300000426564004531004500626564002C205B
:1028400073797374656D2073746F70706564212083
:102850004865617465725F49443A20004572723A76
:10286000204D415854454D50004D415854454D5010
:102870002074726967676572656400486561746990
:102880006E67204661696C65640048656174696EB5
:1028900067206661696C6564004572723A204D4933
:1028A0004E54454D50004D494E54454D5020747284
:1028B0006967676572656400544845524D414C2014
:1028C00052554E4157415900546865726D616C20F4
:1028D00052756E6177617900202F002042403A00E6
:1028E00020403A0020573A007C3C3E5E2B3D3F2F73
:1028F0005B5D3B2C2A225C0041425300504C41005E
:102900004D6564696120496E6974204661696C0097
:1029100053442063617264206F6B0A006F70656EB0
:10292000526F6F74206661696C65640A00766F6C23
:10293000756D652E696E6974206661696C65640ADF
:10294000004E6F20534420636172640A0053442098
:10295000636172642072656C65617365640A000A64
:102960004D3234004D3233202573002E0A006F7033
:10297000656E206661696C65642C2046696C653AF9
:10298000200046696C652073656C65637465640A34
:10299000002053697A653A200046696C65206F70A3
:1029A000656E65643A2000454E4420535542524FAF
:1029B0005554494E450A002220706F730022207042
:1029C0006172656E743A2200535542524F55544914
:1029D0004E452043414C4C207461726765743A2225
:1029E0000053756263616C6C204F766572666C6F24
:1029F00077004578636565646564206D6178205370
:102A00005542524F5554494E452064657074683A9A
:102A1000002E0A0044656C6574696F6E20666169FA
:102A20006C65642C2046696C653A200046696C65CB
:102A30002064656C657465643A0057726974696EE8
:102A40006720746F2066696C653A20006672657352
:102A50006800646F696E67002066696C653A2000E3
:102A60004E6F7720002F6175746F25632E6700808D
:102A700000000000000000000000000000000180D5
:102A800000000000000000000000000000000180C5
:102A900000000000000000000000000000000180B5
:102AA00000000000000000000000000000000180A5
:102AB0000000000000000000000000000000018095
:102AC0000000000000000000000000000000018085
:102AD0000000000000000000000000000000018075
:102AE0000000000000000000000000000000018065
:102AF0000000000000000000000000000000018055
:102B00000000000000000000000000000000018044
:102B10000000000000000000000000000000018034
:102B20000000000000000000000000000000018024
:102B30000000000000000000000000000000018014
:102B40000000000000000000000000000000018004
:102B500000000000000000000000000000000180F4
:102B600000000000000000000000000000000180E4
:102B700000000000000000000000000000000180D4
:102B800000000000000000000000000000000180C4
:102B900000000000000000000000000000000180B4
:102BA00000000000000000000000000000000180A4
:102BB0000000000000000000000000000000018094
:102BC0000000000000000000000000000000018084
:102BD0000000000000000000000000000000018074
:102BE0000000000000000000000000000000018064
:102BF0000000000000000000000000000000018054
:102C00000000000000000000000000000000018043
:102C1000000001FFFFFFFFFFFFFFFF8000000180BA
:102C20000000000000000000000000000000018023
:102C30000000000FC7E0000000000000000001805D
:102C4000000000084230001E000210000000018059
:102C500000000000C210C6210FC220000000018049
:102C6000000000078210C6210102C00000000180A0
:102C7000000000078210AA2101030000000001806B
:102C80000000000C0230AA210102C00000000180F7
:102C90000000000847E0721E00C230000000018002
:102CA0000000000FC00000000000000000000180D4
:102CB0000000000000000000000000000000018093
:102CC000000001FFFFFFFFFFFFFFFF80000001800A
:102CD0000000000000000000000000000000018073
:102CE0000000000000000000000000000000018063
:102CF0000000000000000000000000000000018053
:102D00000000000000000000000000000000018042
:102D10000000000000000000000000000000018032
:102D20000000000000000000000000000000018022
:102D30000000000000000000000000000000018012
:102D40000000000000000000000000000000018002
:102D500000000000000000000000000000000180F2
:102D600000000000000000000000000000000180E2
:102D700000000000000000000000000000000180D2
:102D800000000000000000000000000000000180C2
:102D900000000000000000000000000000000180B2
:102DA00000000000000000000000000000000180A2
:102DB0000000000000000000000000000000018092
:102DC0000000000000000000000000000000018082
:102DD0000000000000000000000000000000018072
:102DE0000000000000000000000000000000018062
:102DF0000000000000000000000000000000018052
:102E00000000000000000000000000000000018041
:102E10000000000000000000000000000000018031
:102E20000000000000000000000000000000018021
:102E30000000000000000000000000000000018011
:102E40000000000000000000000000000000018001
:102E500000000000000000000000000000000180F1
:102E60000000000000000000000000000000016DF4
:102E700061726C696E66772E6F726700322E312E2A
:102E8000322E38001FFFFFFFFFFFFF600000000031
:102E900001FF400000000000FF8000000000007FF4
:102EA00083CF00000C303F87FF80000C301F8679F5
:102EB00080000C000F8C30C7838C30E78C30CFC77C
:102EC000CC31F38C30DCECEC33B98C30D86C6C3317
:102ED000198C30D06C0C33198C30D86C0C33198CA5
:102EE00030DC6C0E3B198C30CF7C079F198C30C7BF
:102EF0007C038F1940000000000002600000000009
:102F000000061FFFFFFFFFFFF840012C01730122A5
:102F100001AB011801F3010E0148020401AC02FAF1
:102F2000002A03F000C303E6008004DC006D05D234
:102F3000006C06C800C707BE007009B4006D0BAA7C
:102F400000CB0DA000CF138C00F21B7800E92464A5
:102F500000142E50009C353C00B83A2800A03D14C7
:102F6000000B3F00002020506C616E6E6572427550
:102F70006666657242797465733A20002046726510
:102F800065204D656D6F72793A200020436F6D703A
:102F9000696C65643A204A756E20323820323032CE
:102FA000360A00204C617374205570646174656446
:102FB0003A20323032362D30362D3234207C2041CA
:102FC0007574686F723A20283344776F726B2C20C7
:102FD00068747470733A0A004D61726C696E2032C5
:102FE0002E312E322E380A0020536F6674776172AC
:102FF000652052657365740A0020576174636864C4
:103000006F672052657365740A002042726F776E95
:10301000206F75742052657365740A0020457874BA
:1030200065726E616C2052657365740A00506F772B
:10303000657255700A0073746172740A0047323801
:103040005859004D31303031006F6B006572726F2E
:10305000722077726974696E6720746F2066696C7C
:10306000650A00446F6E6520736176696E6720663D
:10307000696C652E0A004D323900456E6473746FB9
:1030800070730025532025632025632025632025A8
:103090006300656E6473746F7073206869743A209E
:1030A0000000000A0B02090C0D0E080703040100C2
:1030B0000000000000000000000000000000000010
:1030C00000000000000000000000000000121110CD
:1030D00000000000000000000000000000000000F0
:1030E00000000000000000000000000000000000E0
:1030F0000000000000000024F404D9201BC40C5C74
:103100000E9804C4095F0265077101F405F900FB1C
:1031100004B30048048700C1036900580355000345
:10312000034500BE023A008402310053022A0029FE
:1031300002250004022000E4011C00C8011900AFB0
:10314000011700980114008401130071011000613F
:1031500001100051010E0043010D0036010B002B40
:10316000010B0020010B00150109000C01090003EF
:10317000010800FB000800F3000800EB000700E472
:10318000000600DE000600D8000600D2000600CCD3
:10319000000500C7000500C2000500BD000400B91D
:1031A000000400B5000400B1000400AD000400A953
:1031B000000400A5000300A20003009F0004009B80
:1031C00000030098000300950002009300030090A4
:1031D0000003008D0002008B0003008800020086BF
:1031E00000020084000300810002007F0002007DD5
:1031F0000002007B000200790002007700010076E7
:103200000002007400020072000100710002006FF1
:103210000002006D0001006C0002006A00010069FC
:103220000002006700010066000100650001006403
:103230000002006200010061000100600001005F07
:103240000002005D0001005C0001005B0001005A0B
:10325000000100590001005800010057000100560C
:10326000000100550001005400010053000000530C
:103270000001005200010051000100500001004F08
:103280000001004E0000004E0001004D0001004C06
:103290000001004B0000004B0001004A0001004902
:1032A00000010048000000480001004700010046FE
:1032B00000000046000100450000004500010044F8
:1032C00000010043000000430001004200000042F2
:1032D0000001004100000041000100400001003FEA
:1032E0000000003F0001003E0000003E0001003DE4
:1032F0000000003D0001003C0000003C0000003CDC
:103300000001003B0000003B0001003A0000003AD1
:1033100000010039000000390001003800000038C9
:1033200000000038000100370000003700010036BF
:1033300000000036000000360001003500000035B6
:1033400000000035000100340000003400000034AB
:1033500000010033000000330000003300010032A0
:103360000000003200000032000100310000003196
:10337000000000310001003000000030000000308B
:103380000001002F0000002F0000002F0000002F80
:103390000001002E0000002E0000002E0001002D74
:1033A0000000002D0000002D0000002D0001002C69
:1033B0000000002C0000002C0000002C0001002B5D
:1033C0000000002B0000002B0000002B0001002A51
:1033D0000000002A0000002A0000002A0001002945
:1033E0000000002900000029000000290000002939
:1033F000000100280000002800000028000000282C
:10340000000000280001002700000027000000271E
:103410000000002700000027000100260000002611
:103420000000002600000026000000260001002504
:1034300000000025000000250000002500000025F8
:1034400000000025000100240000002400000024EA
:1034500000000024000000240001002300000023DD
:1034600000000023000000230000002300000023D0
:1034700000000023000100220000002200000022C2
:1034800000000022000000220000002200010021B4
:1034900000000021000000210000002100000021A8
:1034A0000000002100000021000100200000002099
:1034B000000000200000002000000020000000208C
:1034C00000000020000000200001001F0000001F7D
:1034D0000000001F0000001F0000001F0000001F70
:1034E0000000001F0001001E0000001E0000001E62
:1034F0000000001E00000024F4D43050C38E20C20F
:10350000A24017828B7011127A910D816CD90AA892
:1035100061E108C7586607615143061E4B5D05C14E
:1035200045A7041A411104093D980371393103403C
:1035300036DB0265339102D4305402802E1D0263C3
:103540002CEE01752AC501B028A001102781018F3A
:103550002564012B244B01E0223401AC211F018D95
:10356000200D01801FFC00841EED00971DDF00B8B8
:103570001CD200E61BC600201BBC00641AB200B2BD
:1035800019A8000A19A0006A189900D117910040E3
:10359000178B00B516840031167E00B31579003AFA
:1035A000157300C7146F0058146A00EE1366008884
:1035B00013630025135E00C7125B006C12570015E1
:1035C000125400C111510070114F0021114B00D64F
:1035D0001049008D1047004610440002104200C000
:1035E0000F4000800F3E00420F3C00060F3B00CB17
:1035F0000E3800930E37005C0E3500270E3400F3B2
:103600000D3200C10D3100900D3000600D2E0032E2
:103610000D2D00050D2C00D90C2B00AE0C290085BA
:103620000C29005C0C2700350C27000E0C2600E846
:103630000B2400C40B2400A00B23007D0B23005A95
:103640000B2100390B2100180B2000F80A1F00D9AC
:103650000A1E00BB0A1E009D0A1D00800A1D006391
:103660000A1C00470A1B002C0A1B00110A1A00F74B
:10367000091A00DD091900C4091900AB09190092E3
:103680000917007B091800630917004C091600365A
:10369000091600200916000A091500F5081500E0B2
:1036A000081400CC081400B8081400A408140090F2
:1036B0000813007D0812006B08130058081200461A
:1036C000081200340811002308110012081100012B
:1036D000081100F0071000E0071000D0071000C02C
:1036E000071000B0070F00A107100091070E00831C
:1036F000070F0074070F0065070E0057070E0049FB
:10370000070E003B070D002E070E0020070D0013CB
:10371000070D0006070D00F9060C00ED060D00E090
:10372000060C00D4060C00C8060C00BC060C00B049
:10373000060C00A4060B0099060C008D060B0082F7
:10374000060B0077060B006C060B0061060A00579B
:10375000060B004C060A0042060A0038060A002E34
:10376000060A0024060A001A060A001006090007C5
:10377000060A00FD050900F4050900EB050900E251
:10378000050900D9050900D0050900C7050900BED3
:10379000050900B5050800AD050800A50509009C50
:1037A000050800940508008C050800840508007CC5
:1037B000050800740508006C050700650508005D34
:1037C000050700560508004E05070047050700409D
:1037D00005080038050700310507002A0507002302
:1037E0000507001C050600160507000F0507000861
:1037F00005060002050700FB040600F5040700EEBD
:10380000040600E8040600E2040700DB040600D515
:10381000040600CF040600C9040600C3040600BD68
:10382000040600B7040600B1040500AC040600A6B7
:10383000040600A00405009B040600950405009002
:103840000406008A04050085040500800406007A49
:1038500004050075040500700405006B040500668E
:10386000040500610405005C0405005704050052CE
:103870000405004D04050048040500430405003E0E
:103880000404003A04050035040500300404002C4B
:1038900004050027040400230405001E0404001A84
:1038A00004040016040500110404000D04040009BA
:1038B0000405000404040000040400FC030400F8F0
:1038C000030400F4030400F0030400EC030400E824
:1038D000030400E4030400E0030400DC030400D854
:1038E000030400D4030400D0030400CC030400C884
:1038F000030300C5030300722900007C200000AD13
:10390000160000270E0000120800005704000041B6
:10391000020000260100004D6F766520246D6D00C9
:10392000302E303235004D6F766520302E316D6D82
:10393000004D6F766520316D6D004D6F76652031DD
:10394000306D6D004D6F76652041786973004D6F65
:103950007665202A004D6F7665204000FC28F82807
:103960004368616E67652046696C616D656E7400C1
:10397000556E6C6F61642046696C616D656E740094
:103980004C6F61642046696C616D656E74005072A5
:10399000656865617420437573746F6D005072655E
:1039A000686561742024004261636B002000200080
:1039B0002000FFFFFF43616E6E6F74206F70656EB5
:1039C000207375626469722000496E736572742099
:1039D00066696C616D656E7420616E6420707265DD
:1039E000737320627574746F6E0A00220A00556E3C
:1039F0006B6E6F776E20636F6D6D616E643A20221F
:103A000000204500205A0020590020204D39322046
:103A1000580053746570732070657220756E6974F8
:103A20000000002200250028002B002E0031003469
:103A30000002010000050108010B01000021002423
:103A40000027002A002D003000330001010000048F
:103A50000107010A01050505050705080808080210
:103A60000202020A0A080804040404010101010117
:103A70000101010303030303030303040707070C06
:103A80000C0C0C0C0C0C0C020202020606060606BC
:103A90000606060B0B0B0B0B0B0B0B07070A0A0A90
:103AA0000A0A0A050505040404080801021020207A
:103AB0000808102040102040800201020108040282
:103AC00001010204081020408080402010080402F8
:103AD0000180040201804020100804020108040251
:103AE0000101020408102040800102040810204057
:103AF00080100804088010204004408010204004FA
:103B00008020746F6F206C6F6E672065787472759B
:103B100073696F6E2070726576656E7465640A00F5
:103B200020636F6C6420657874727573696F6E20A2
:103B300070726576656E7465640A00486F6D652005
:103B400025732046697273740020453A00205A3A62
:103B50000020593A00583A006F6B0A0052657365AD
:103B60006E643A20005448494E4B4552205345203C
:103B700052656164792E005072696E74696E672EA9
:103B80002E2E005072696E7420506175736564004A
:103B9000DD00FD0011241FBECFEFD1E2DEBFCDBF9F
:103BA00000E00CBF84B780933A1914BE0FB6F894A6
:103BB000A8958091600088618093600010926000F9
:103BC0000FBE13E0A0E0B2E0E8E1F5E702E00BBFD2
:103BD00002C007900D92A03CB107D9F729E1A0ECF3
:103BE000B3E001C01D92AA33B207E1F71DE1C9ECB1
:103BF000DDE100E006C021970109802FFE010F944E
:103C00000336C83CD10780E00807A9F70F94812349
:103C10000D947B3A0C94000081E08093280908956C
:103C200082E0809328090895CF93DF93EC01642FFD
:103C300070E090E080E00F94422F29EC38EC48ECE3
:103C40005EE30F94E83620E030E040E05FE30F945D
:103C50000C360F9455376883DF91CF910895E0912A
:103C6000440886E0E802F0011124E25FF74F8091FA
:103C7000260890E0958384830895CF93DF93EC0129
:103C8000CB01BA010F94422F20E030E048EC52E41F
:103C90000F94E8362FE632E143E85AE30F940C36EE
:103CA000688379838A839B83DF91CF910895CF9333
:103CB000DF93EC01CB01BA010F94422F20E030E0FA
:103CC00048EC52E40F94E8362FE632E143E85AE339
:103CD0000F940C36688379838A839B83DF91CF911D
:103CE0000895CF93DF93EC01CB01BA010F94422FDB
:103CF000688379838A839B83DF91CF910895CF93E3
:103D0000DF93EC01CB01BA010F94422F68837983D2
:103D10008A839B83DF91CF910895CF93DF93EC014A
:103D2000CB01BA010F94422F20E030E048EC52E47E
:103D30000F94E8362FE632E143E85AE30F940C364D
:103D4000688379838A839B83DF91CF910895CF9392
:103D5000DF93EC01CB01BA010F94402F2AE037ED3D
:103D600043E25DE30F94E8360F9455376883798317
:103D70008A839B83DF91CF910895CF93DF93EC01EA
:103D8000CB01BA010F94422F2AE037ED43E25DE305
:103D90000F94E836688379838A839B83DF91CF9180
:103DA0000895CF93DF93EC01CB01BA010F94422F1A
:103DB000688379838A839B83DF91CF910895FC0187
:103DC000518340830895CF93DF93EC01CB01BA0177
:103DD0000F94422F20E030E04AE754E40F94E83695
:103DE00027E137EB41ED58E30F940C366883798374
:103DF0008A839B83DF91CF910895FC01A081B181DB
:103E00001C92A281B3818C918F5F8C930280F3818D
:103E1000E02D90818CE0989F800D1124E3EAF6E17B
:103E200013AE84AF089590910501947090930301AF
:103E300000C087FD7FC0A398909105019095947074
:103E40009093030100C000C090910501947090937D
:103E5000030100C086FD7AC0A3989091050190955A
:103E600094709093030100C000C09091050194707C
:103E70009093030100C085FD67C0A3989091050150
:103E8000909594709093030100C000C0909105013B
:103E900094709093030100C084FD54C0A398909146
:103EA0000501909594709093030100C000C090911B
:103EB000050194709093030100C083FD41C0A39855
:103EC00090910501909594709093030100C000C0FB
:103ED0009091050194709093030100C082FD2EC063
:103EE000A39890910501909594709093030100C060
:103EF00000C09091050194709093030100C081FD72
:103F00001BC0A39880910501809584708093030164
:103F100000C000C08091050184708093030100C03F
:103F2000A39880910501809584708093030100C05F
:103F300000C00895A39A80CFA39AE4CFA39AD1CFCB
:103F4000A39ABECFA39AABCFA39A98CFA39A85CFBB
:103F500090E080E00895CF93DF93C0910B08D0915B
:103F60000C0881E0CE31D105E4F020E030E040E003
:103F70005FE36091070870910808809109089091AB
:103F80000A080F940C360F9450376C1B7D0B77FF8B
:103F900003C071956195710981E0633071050CF082
:103FA00080E0DF91CF910895CF93DF93DB01F9019A
:103FB0009C919130C1F0943080F094509C93883063
:103FC000D1F480819181009771F001979183808372
:103FD000480F591FEA01188206C08C3539F49C5FDE
:103FE0009C93943041F4DF91CF9108958B3339F74E
:103FF00081E08C93F8CF20813181B9016F5F7F4FD1
:1040000071836083420F531FEA018883808191810D
:104010008F3591056CF7E7CF0F931F9381E00091E7
:104020001117109112172091131730911417409106
:104030000D1750910E1760910F17709110170417FC
:1040400015072607370708F480E01F910F910895A0
:1040500090E080E008952091E116833021F425FD61
:104060000CC024FD0CC030E0A90102C05595479555
:104070008A95E2F7CA018170089581E0089580E091
:1040800008958091230584FD0BC08091250587FD4F
:1040900007C090912605937081E019F480E008959F
:1040A00081E008952FEB280F2A3108F047C0E22F56
:1040B000F0E08091230590912405A0912505B09111
:1040C000260504C0B695A795979587952A95D2F7AA
:1040D00080FD02C081700895E75FFA4FE081EE2312
:1040E00041F180912C0990912D09E80FF92FF11DD4
:1040F000808190ED980F9A3030F08E3251F48181AA
:1041000080538A3098F4F093FE04E093FD0481E03C
:1041100008958D3211F08B3249F4818190ED980F22
:104120009A3088F38E3211F48281EACFF0E0E0E039
:10413000EACF1092FE041092FD04E9CF80E00895CA
:104140002F923F924F925F926F927F928F929F92A7
:10415000AF92BF92CF92DF92EF92FF920F931F9395
:10416000CF93DF93D62FC72FFC0180809180A28050
:10417000B380C501B40120E831E541E050E00F947F
:104180006635C9016DE671E00F94DC356B017C0189
:10419000C501B40120E13EE040E050E00F946635F7
:1041A000CA01B90128E130E040E050E00F946635E3
:1041B000362E272E062F172F8CE3482E512C612CDC
:1041C000712CC501B401A30192010F946635B62E7E
:1041D000A72ECA01B901A30192010F946635CB0144
:1041E000C114D10479F1AF92BF927F936F932F9254
:1041F0003F92FF92EF92DF92CF9283ED90E19F93F7
:104200008F93CF93DF930F94D52E8DB79EB70E96D5
:104210000FB6F8949EBF0FBE8DBF8D2F9C2FDF91E0
:10422000CF911F910F91FF90EF90DF90CF90BF90B3
:10423000AF909F908F907F906F905F904F903F9046
:104240002F900895E114F104C9F0AF92BF927F93CB
:104250006F932F923F92FF92EF9283EC90E19F93A6
:104260008F93CF93DF930F94D52EEDB7FEB73C9687
:104270000FB6F894FEBF0FBEEDBFCFCF012BB9F044
:10428000AF92BF927F936F932F923F9287EB90E113
:104290009F938F93CF93DF930F94D52E8DB79EB7B7
:1042A0000A960FB6F8949EBF0FBE8DBFB6CF892B6E
:1042B000A9F0AF92BF927F936F938FEA90E19F93A3
:1042C0008F93CF93DF930F94D52EEDB7FEB738962B
:1042D0000FB6F894FEBF0FBEEDBF9FCFAF92BF9257
:1042E0008BEA90E19F938F93CF93DF930F94D52E1A
:1042F0000F900F900F900F900F900F908ECFCF9246
:10430000DF92EF92FF926B017C0120E030E0A90187
:104310000F943C2F87FD26C06DEB77E386E095E395
:10432000A70196010F940C366B017C0120E030E070
:10433000A9010F943C2F20E030E040E05FE387FFCD
:1043400004C020E030E040E05FEBC701B6010F940D
:104350000C360F945037CB01FF90EF90DF90CF9049
:104360000C942AD46DEB77E386E095EBD9CF0F94CC
:10437000422FC5CFCB010C942AD484E00D947F0F3B
:1043800083E00D947F0F82E00D947F0F70E090E04A
:1043900080E00F94422F29EC38EC48EC5EE30F9458
:1043A000E83620E030E040E05FE30F940C360F94F5
:1043B0005537862F0C945ED48F929F92AF92BF9206
:1043C000CF92DF92EF92FF92CF936B017C0120E0BE
:1043D00030E0A9010F943C2F87FF8BC06DEB77E392
:1043E00086E095EBA70196010F940C364B015C011A
:1043F00042E050E00E9492D46B017C0120E030E06A
:1044000040E251ECC501B4010F943C2F181654F44E
:1044100020E030E048EC52E4C501B4010F94333899
:1044200087FD6CC0C701B60120E137E240E050E0F3
:104430000F948835CA01B9012AE030E040E050E02D
:104440000F948835605DF7FE09C0F094E094D09435
:10445000C094C11CD11CE11CF11C6DE26093BF052E
:10446000C701B60128EE33E040E050E00F948835F4
:104470009AE0892E912CA12CB12CCA01B901A50179
:1044800094010F948835605D6093C005C701B60143
:1044900024E630E040E050E00F948835CA01B901CD
:1044A000A50194010F948835605D6093C1058EE28B
:1044B0008093C205C701B601A50194010F94883508
:1044C000C62FCA01B901A50194010F948835605D1A
:1044D0006093C305C05DC093C4058FEB95E0CF9199
:1044E000FF90EF90DF90CF90BF90AF909F908F9014
:1044F00008956DEB77E386E095E374CF20E030E03C
:10450000A901C501B4010F94333887FD0BC020E029
:1045100030E040E251E4C501B4010F943C2F60E269
:1045200087FD1CC0C701B60128EE33E040E050E033
:104530000F948835CA01B9012AE030E040E050E02C
:104540000F948835605DF7FE09C0F094E094D09434
:10455000C094C11CD11CE11CF11C6DE26093C0052C
:10456000C701B60124E630E040E050E00F94883502
:104570008AE0882E912CA12CB12CCA01B901A50189
:1045800094010F948835605D6093C1058EE280933D
:10459000C205C701B601A50194010F948835C62F45
:1045A000CA01B901A50194010F948835605D60933B
:1045B000C305C05DC093C40580EC95E090CF0F9417
:1045C000422F20E030E048EC52E40F94E8362FE62A
:1045D00032E143E85AE30F940C36EECE8F929F926D
:1045E000AF92BF92CF92DF92EF92FF92CF936B0187
:1045F0007C0120E030E0A9010F943C2F87FDC3C06F
:104600006DEB77E386E095E3A70196010F940C36F6
:104610006B017C0120E030E0A9010F943C2F87FF63
:1046200004C0F7FAF094F7F8F09442E050E0C701C4
:10463000B6010E9492D46B017C0160E280E4C8164E
:1046400082E4D8068FE0E806F1048CF0C701B601D9
:1046500020E432E44FE050E00F948835CA01B901FC
:104660002AE030E040E050E00F948835605D6093D0
:10467000BD0560E280EAC81686E8D80681E0E80653
:10468000F1048CF0C701B60120EA36E841E050E0C1
:104690000F948835CA01B9012AE030E040E050E0CB
:1046A0000F948835605D6093BE0560E280E1C816B6
:1046B00087E2D806E104F1048CF0C701B60120E1DD
:1046C00037E240E050E00F948835CA01B9012AE092
:1046D00030E040E050E00F948835605D6093BF05A6
:1046E00060E288EEC81683E0D806E104F1048CF09D
:1046F000C701B60128EE33E040E050E00F94883562
:10470000CA01B9012AE030E040E050E00F9488355A
:10471000605D6093C005C701B60124E630E040E06B
:1047200050E00F9488358AE0882E912CA12CB12C72
:10473000CA01B901A50194010F948835605D6093A9
:10474000C1058EE28093C205C701B601A50194019F
:104750000F948835C62FCA01B901A50194010F94A1
:104760008835605D6093C305C05DC093C4058DEB63
:1047700095E0CF91FF90EF90DF90CF90BF90AF90FA
:104780009F908F9008956DEB77E386E095EB3CCF9B
:104790000F94422F20E030E048EC52E40F94E836CA
:1047A0002FE632E143E85AE30F940C3617CF63E962
:1047B00072E084E690E00E94AAE270E060E08AE0A5
:1047C00090E00E94AAE26AEB72E084E690E00C942A
:1047D000AAE20E9405D1EBCF8111E9CF68E270E037
:1047E00080E991E00C94AAE20E944EB5F5CF0E94B8
:1047F0005AD2F2CFCF93DF9300D01F92CDB7DEB75E
:104800000F94402F69837A838B839C83CE0101961A
:104810000E945BD50F900F900F900F90DF91CF917A
:1048200008950F94402F2AE037ED43E25DE30F94A3
:10483000E8360F945537DECFCF92DF92EF92FF929A
:10484000CF93DF9300D01F92CDB7DEB76B017C0111
:1048500020E030E0A9010F943C2F87FD1BC06DEBD9
:1048600077E386E095E3A70196010F940C36698300
:104870007A838B839C83CE0101960E945BD50F9037
:104880000F900F900F90DF91CF91FF90EF90DF90FE
:10489000CF9008956DEB77E386E095EBE4CF0F942E
:1048A000422F2AE037ED43E25DE30F94E836C4CFB0
:1048B0000F94422FC1CFCF92DF92EF92FF926B0104
:1048C0007C0120E030E0A9010F943C2F87FD26C039
:1048D0006DEB77E386E095E3A70196010F940C3624
:1048E0006B017C0120E030E0A9010F943C2F20E017
:1048F00030E040E05FE387FF04C020E030E040E0CC
:104900005FEBC701B6010F940C360F945037CB0103
:10491000FF90EF90DF90CF900C9480D36DEB77E316
:1049200086E095EBD9CF0F94422FC5CFCF92DF927F
:10493000EF92FF92CF93DF9300D01F92CDB7DEB7F7
:104940000F94422F20E030E048EC52E40F94E83618
:104950002FE632E143E85AE30F940C366B017C01F9
:1049600020E030E0A9010F943C2F2DEB37E346E027
:1049700055E387FF04C02DEB37E346E055EBC70155
:10498000B6010F940C3669837A838B839C83CE01A6
:1049900001960E94E0D40F900F900F900F90DF913E
:1049A000CF91FF90EF90DF90CF9008950F94422F1A
:1049B00020E030E04AE754E40F94E83627E137EB93
:1049C00041ED58E30F940C360C94E9E30C9493B941
:1049D0000C9493B90C9445B90C9445B90C9445B911
:1049E0000C9445B9CF92DF92EF92FF920F931F93F1
:1049F0000F949912009132051091330520913405DE
:104A0000309135056B017C01C01AD10AE20AF30A24
:104A10009701860137FD11C0209131052095209323
:104A200031056A547C4F8F4F9F4F609332057093CE
:104A30003305809334059093350581E090913105DD
:104A4000911101C080E01F910F91FF90EF90DF90D6
:104A5000CF900895CF93DF93C0910B08D0910C08AD
:104A6000209729F160910708709108088091090842
:104A700090910A080F9450376E5F7F4F24976C1700
:104A80007D07ACF470936A06609369060F949912DF
:104A9000605A75418F4F9F4F60936B0670936C0601
:104AA00080936D0690936E06DF91CF9108951092DA
:104AB0006B0610926C0610926D0610926E06F4CF83
:104AC000BF92CF92DF92EF92FF920F931F93CF93FB
:104AD000DF936B01E9014A3009F4D6C0453109F092
:104AE00081C0DB011296ED91FC911281C681D781C4
:104AF000A49A00C0000086E290E00197F0F7012F31
:104B00000295007F20E1B22EB10E88EF8CD900C053
:104B1000000086E290E00197F0F7103208F0A1C0A3
:104B2000812F807780687FD9802F7DD900C00000D9
:104B300086E290E00197F0F780E875D980E073D9BC
:104B400000C0000086E290E00197F0F78AEF6BD991
:104B500000C0000086E290E00197F0F77E01B0E12E
:104B6000EB0EF11C8881807F5ED989918295807FD0
:104B70005AD9CE15DF05B1F700C0000086E290E0FB
:104B80000197F0F71F5F005F1B11BFCFA498D601FC
:104B90001296ED91FC9180819281980F92832181F0
:104BA000921708F030C294819F5F94839381890F9C
:104BB000821710F08FEF820F8383458150E0440FFE
:104BC000551F70E060E0868197810F94273A81E05D
:104BD000DF91CF911F910F91FF90EF90DF90CF90D9
:104BE000BF900895FB0102811381423309F40DC285
:104BF00008F415C2463409F402C2473409F40AC263
:104C00004B3329F789812B81D80112967C91129719
:104C100013963C91213009F447C2233009F028C291
:104C200048EF480F582F91E0341708F490E031E036
:104C3000541708F030E0492F432B61E0571708F470
:104C400060E0462319F4932309F4C1CFFA8030E0E1
:104C5000F901E354FD4FD08027543D4FF901E08026
:104C600020C280EE810F8068807FDDD8812F829501
:104C7000807FD9D800C0000086E290E00197F0F76D
:104C800080E8D1D880E85BCF9C9AA4989B9AA3989F
:104C900080910401846080930401809105018095D6
:104CA000847080930301A49A00C0000086E290E023
:104CB0000197F0F788E790E0CEE9DFE0FE01319759
:104CC000F1F70197D9F788EFAED800C0000086E26F
:104CD00090E00197F0F780E2A6D880E0A4D800C069
:104CE000000086E290E00197F0F780E09CD880E831
:104CF0009AD800C0000086E290E00197F0F780E0CB
:104D000092D880E190D800C0000086E290E0019740
:104D1000F0F7CE010197F1F7CE010197F1F7CE013F
:104D20000197F1F7CE010197F1F7CE010197F1F765
:104D3000CE010197F1F7CE010197F1F7CE0101976E
:104D4000F1F7CE010197F1F7CE010197F1F7CE010E
:104D50000197F1F7CE010197F1F7CE010197F1F735
:104D6000CE010197F1F72197F1F780E25CD880E45A
:104D70005AD800C0000086E290E00197F0F780E288
:104D800052D880E650D800C0000086E290E001973B
:104D9000F0F7D0E0C0E08C2F8077806844D88D2F6A
:104DA00042D800C0000086E290E00197F0F780E86A
:104DB0003AD880E038D800C0000086E290E0019741
:104DC000F0F78AEF30D800C0000086E290E001974B
:104DD000F0F790E28091050184708093030100C098
:104DE000A39880910501809584708093030100C091
:104DF00000C08091050184708093030100C0A398D6
:104E000080910501809584708093030100C000C0EB
:104E10008091050184708093030100C0A398809164
:104E20000501809584708093030100C000C08091CB
:104E3000050184708093030100C0A398809105014F
:104E4000809584708093030100C000C080910501AB
:104E500084708093030100C0A39880910501809520
:104E600084708093030100C000C0809105018470AC
:104E70008093030100C0A398809105018095847000
:104E80008093030100C000C080910501847080936D
:104E9000030100C0A39880910501809584708093E0
:104EA000030100C000C0809105018470809303015C
:104EB00000C0A398809105018095847080930301C0
:104EC00000C000C08091050184708093030100C080
:104ED000A39880910501809584708093030100C0A0
:104EE00000C08091050184708093030100C0A398E5
:104EF00080910501809584708093030100C000C0FB
:104F00008091050184708093030100C0A398809173
:104F10000501809584708093030100C000C08091DA
:104F2000050184708093030100C0A398809105015E
:104F3000809584708093030100C000C080910501BA
:104F400084708093030100C0A3988091050180952F
:104F500084708093030100C000C0809105018470BB
:104F60008093030100C0A39880910501809584700F
:104F70008093030100C000C080910501847080937C
:104F8000030100C0A39880910501809584708093EF
:104F9000030100C000C0809105018470809303016B
:104FA00000C0A398809105018095847080930301CF
:104FB00000C000C000C00000E6E2F0E03197F0F76A
:104FC000915009F007CF88EF0E94131F00C0000026
:104FD00086E290E00197F0F7CF5FD05FC03209F032
:104FE000DACE80E00E94131F80EC0E94131F00C0E5
:104FF000000086E290E00197F0F7A498E8CDF80170
:1050000085818883E4CD80E0E3CDB901C8010F94A8
:105010003513DDCDD80111968C918883D8CD4431DC
:1050200091F0473109F0D3CD1882D80112968C91B6
:105030001297898315968C91159781508A831396C0
:105040008C918B83C4CDD80115964C91159750E067
:10505000440F551F70E060E016968D919C910F945F
:10506000273AF80112828081815083831482AFCD68
:10507000381708F4ACCD871708F4A9CDFA80E12CD5
:10508000D12C243070F4E3CDBE01C8010F94351348
:10509000898198819D0D98838E0D8983FF0C09F479
:1050A00096CDF7FEF6CFF0CF58E0580F482FBBCD86
:1050B000EF92FF920F931F93CF93DF93EC018B013D
:1050C0007A018A859B858617970731F088819981B7
:1050D0000F9467151B870A87B701888199810F9400
:1050E0008B0D2E813F81820F932F911D9F838E8385
:1050F00090E080E0DF91CF911F910F91FF90EF90B2
:1051000008959F92AF92BF92CF92DF92EF92FF925B
:105110000F931F93CF93DF93EC018B01942EA52E59
:105120008A859B858617970731F0888199810F942E
:1051300067151B870A8788859985019649F5BC8084
:105140000A818E81080FC880D980D6015596ED91CD
:10515000FC91C6011995B80EE92CFA2C10E0F70164
:1051600021917F01211127C08E819F81810F911D87
:105170009F838E8390E080E0DF91CF911F910F910C
:10518000FF90EF90DF90CF90BF90AF909F900895E9
:105190000E811F81692D7A2D888199810F948B0D45
:1051A000800F912F911D288539852817390738F6EA
:1051B00081E090E0E1CF4B2D602FC6010F94BF1529
:1051C000080F180FCCCFDF92EF92FF920F931F932F
:1051D000CF93DF93EC01D62E1CAD0BAD7C0184E0A8
:1051E000E80EF11CE98DFA8DC7011995412F480F82
:1051F0002D2D602FC7010F94BF159BAD890F8BAF6D
:1052000081E090E0DF91CF911F910F91FF90EF909F
:10521000DF9008952F923F924F925F926F927F920C
:105220008F929F92AF92BF92CF92DF92EF92FF92B6
:105230000F931F93CF93DF93CDB7DEB72D970FB6A4
:10524000F894DEBF0FBECDBF80918015813031F064
:105250008091151782FF6EC087FD6CC00E9476D2C8
:105260004B015C0145E050E060E270E08BE395E0CB
:105270000F94273A85E4809339058AE380933A05B1
:10528000C501B40120E13EE040E050E00F946635F6
:10529000D22EC32E022F132F8CE3282E312C412C1B
:1052A000512CC501B401A20191010F946635762EEF
:1052B000672ECA01B901A20191010F9466359E01C2
:1052C0002F5F3F4F790130E8831631E5930631E0D7
:1052D000A306B10408F447C07F936F93C80168E147
:1052E00070E00F94DC359F938F93C501B40120E8E3
:1052F00031E541E050E00F9466353F932F9386E609
:1053000093E19F938F93FF92EF920F94D52EC70155
:105310000F948B2E0FB6F894DEBF0FBECDBF2CE0DE
:1053200030E0A901481B5109CA01B701875C9A4FB7
:105330000F944C3A2D960FB6F894DEBF0FBECDBF3A
:10534000DF91CF911F910F91FF90EF90DF90CF9061
:10535000BF90AF909F908F907F906F905F904F9095
:105360003F902F9008950115110599F46F927F9247
:105370007F936F938AE593E19F938F93FF92EF92D0
:105380000F94D52E0FB6F894DEBF0FBECDBF85E0CB
:10539000C6CF0436110538F47F936F93CF92DF9216
:1053A0008EE493E1E9CF7F936F93CF92DF9284E411
:1053B00093E19F938F93FF92EF920F94D52E0FB6A8
:1053C000F894DEBF0FBECDBF86E0A9CFCF93C091CA
:1053D0004705CC23C9F14CE050E060E270E089E37E
:1053E00095E00F94273A2C2F30E060E2C43630F07D
:1053F000C90164E670E00F94F035605D6093C2050A
:1054000080E2CA3058F0EAE0F0E0C901BF010F9431
:10541000F035CB01BF010F94F035805D8093C3055B
:10542000C9016AE070E00F94F035805D8093C40597
:1054300083E0E2ECF5E0ADE3B5E001900D928A95F2
:10544000E1F785E280934005CF910895CF93809155
:105450002E05811154C01092DE161092DF161092A4
:10546000E0161092AC161092AB161092AE16109277
:10547000AD161092B01681E08093AF1682E2809351
:10548000B1161092B6161092B516EAECF6E128EDB8
:1054900036E18FEF81932E173F07E1F7C1E0C0930C
:1054A000C71628EA33EF3093BD162093BC16C0937D
:1054B000BE161092BF161092C01690E49093C116BB
:1054C0001092C21627EA33EF3093D9162093D816DC
:1054D00026E132E03093AA162093A91698E490931F
:1054E000CE1697E49093CF1696E49093CC168093C3
:1054F000CB168093CA160F947313C0932E0581E0C8
:10550000809330058AE393E19093DB158093DA155D
:105510001092DD151092DC15CF910895CF92DF9295
:10552000EF92FF920F931F93CF93DF93CDB7DEB728
:105530002C970FB6F894DEBF0FBECDBFF090DE16ED
:10554000E090DF162091300521111DC04AEF52E195
:105550006E2D8F2D0F942A1690E080E0F80EF092B9
:10556000DE16E092DF1699272C960FB6F894DEBF70
:105570000FBECDBFDF91CF911F910F91FF90EF90A4
:10558000DF90CF900895C090AB16D090AC1627EA6C
:1055900036E13A8329832F2D30E03C832B832E2D57
:1055A00030E03E832D8318861F827A8769871C86A8
:1055B0001B8601E818E29E012F5F3F4F48E451EA45
:1055C000BC01C6010F94BC06B60187EA96E10F94B0
:1055D00067158F819885C2CFAB01BC01409311172D
:1055E00050931217609313177093141786E798E17E
:1055F0000C94A7AA8091FD049091FE04009731F0CD
:105600004AE050E070E060E00D945D2D60E070E0F5
:10561000CB0108958091FD049091FE04009731F034
:105620004AE050E070E060E00D94302C60E070E003
:10563000CB010895EFDF97FD0AC0ECDF6F3F7105E6
:105640008105910509F02CF4E5DF862F089580E0AF
:1056500008958FEF08958091FD049091FE04892BA9
:1056600039F0E8DF91E0811101C090E0892F0895C1
:1056700091E0FCCFCFDFCB010895EF92FF920F9323
:105680001F93CF93DF9300D000D000D01F921F92C2
:10569000CDB7DEB77C0120912408422F022E000CEA
:1056A000550B80912508833099F1843051F18DE4B8
:1056B00097E15F932F939F938F938E010F5F1F4FFF
:1056C0001F930F930F94D52EC7010E94D8E34FE389
:1056D00050E0B80180EC97E00F94613A0F900F9082
:1056E0000F900F900F900F902B960FB6F894DEBF8F
:1056F0000FBECDBFDF91CF911F910F91FF90EF9023
:10570000089589E597E127FDD4CF84E497E1D1CFCF
:1057100082E697E1CECF8091F8159091F915ADCF43
:10572000E091440886E0E802F0011124E25FF74FBF
:1057300080819181A2CFAF92BF92CF92DF92EF9200
:10574000FF920F931F93CF935C016B018A018053EB
:105750009B4F7C01DC01CC91C7FF3DC0FB01118256
:105760001082CF5FD701CC93CC300CF053C08CE0CB
:105770008A9DF0018B9DF00D1124CF018C0F911D9E
:10578000C7FD9A95209164162817190609F00CF4A4
:1057900041C0F60120813181FC01EE0FFF1FE80FAF
:1057A000F91FE45EF94E81819281820F931FD80127
:1057B00011969C938E93808187FF3DC061E08F7727
:1057C000CF911F910F91FF90EF90DF90CF90BF90FE
:1057D000AF900D942D118CE08A9DF0018B9DF00D02
:1057E0001124CF018C0F911DC7FD9A95209164164D
:1057F0002817190609F00CF4B4CFFC01EE0FFF1FB7
:10580000E80FF91FE45EF94E808160E08F770F9416
:105810002D11A7CFF6018081918104968034FCE997
:105820009F0710F480E49CE9D80111969C938E9315
:105830008FEFF7018083CF911F910F91FF90EF9031
:10584000DF90CF90BF90AF900895CF93DF93CDB707
:10585000DEB720E2488559856F818E810F94380D1F
:10586000DF91CF910895282F1092420880912D0842
:1058700090912E08A0912F08B0913008B7FF08C072
:1058800010922D0810922E0810922F0810923008B6
:105890008091B905882331F080912D0880932208EA
:1058A00010923D08809120081816FCF4082E000C78
:1058B000990B821B910920912208022E000C330BB8
:1058C0002817390794F097FF02C090E080E080939A
:1058D0002208092E000CAA0BBB0B80932D08909375
:1058E0002E08A0932F08B0933008809122086623D9
:1058F000A9F090912308891714F48093230820912C
:105900002308022E000C330B2C5F3F4F482F082E2C
:10591000000C550B241735071CF484508093230882
:1059200008950F931F93522F2091A1163091A21624
:105930002817390731F11092BA059093A216809377
:10594000A1168B0130E020E000932D0810932E0863
:1059500020932F0830933008409323085093200859
:105960008A5A974521F4109249081092B80582E0AE
:105970008093660281E080933D081092B7051092F3
:10598000B4051F910F91089581E08093490810920A
:105990009A071092C60520E040E070E060E08BE6D8
:1059A0009AE3BFDF82E491E29093BF078093BE0742
:1059B000089520E040E070E060E08AE89CE3B1DF19
:1059C00081E08093B5058091B605811107C08FE312
:1059D00096E19093BF078093BE07089585E496E112
:1059E000F8CF20E040E070E060E08AEA97E599CFE8
:1059F00061116093650240934A088B3008F038C00B
:105A0000E82F880FFF0B8827E75FF24D8F4F0D942B
:105A10000336392D142D1E2D212D242D3C2D272DFF
:105A2000332D2A2D2D2D302D85EE9BE321E0209363
:105A3000490820E040E070E060E073CF8BEE9BE32C
:105A4000F5CF8EEE9BE3F2CF81EF9BE3EFCF84EFB8
:105A50009BE3ECCF87EF9BE3E9CF8AEF9BE3E6CFB5
:105A60008DEF9BE3E3CF1092280981EB99E3DECF22
:105A7000B8CF82EE9BE3DACF88EE9BE3D7CFCF930C
:105A80000E9405D10E944EB5C82F882319F080E0EE
:105A90000E9451B48C2F0E94EC23CF91A2CF89E9B0
:105AA00095E19093BF078093BE079BCFCF93DF9381
:105AB000C091B805CC23B1F0C150C093B80589E0BE
:105AC000C89FE0011124C458DA4F6A817B812F817D
:105AD0004E818881998125DF888580934908DF91EF
