:100000000C9462150C94A2150C94A2150C94A215D4
:100010000C94A2150C94A2150C94A2150C94A21584
:100020000C94A2150C94A2150C94A2150C94A21574
:100030000C94A2150C94A2150C94A2150C94A21564
:100040000C94A2150C9443290C94A2150C94A2159F
:100050000C94A2150C94CA230C94A2150C946AA9B2
:100060000C94A2150C94FE820C94F4820C94A215AC
:100070000C94A2150C94A2150C94A2150C94A21524
:100080000C94AF760C94A2150C94A2150C94A215A6
:100090000C94A2150C94A2150C94A2150C94A21504
:1000A0000C94A2150C94A2150C9481760C94A215B4
:1000B0000C94A2150C94A2150C94A2150C94A215E4
:1000C0000C94A2150C94A2150C94A2150C94A215D4
:1000D0000C94A2150C94A2150C94A2150C94A215C4
:1000E0000C94A215084AD73B3BCE016E84BCBFFDE1
:1000F000C12F3D6C74319ABD56833DDA3D00C77FF8
:1001000011BED9E4BB4C3E916BAAAABE0000008090
:100110003F05A84CCDB2D44EB93836A9020C50B91F
:10012000918688083CA6AAAA2ABE000000803F0744
:10013000634236B79BD8A71A39685618AEBAAB5582
:100140008C1D3CB7CC5763BD6DEDFD753EF6177247
:1001500031BF000000803F08000000BE9224491219
:100160003EABAAAA2ABECDCCCC4C3E00000080BE3D
:10017000ABAAAAAA3E00000000BF000000803F001A
:1001800000000000084178D3BB4387D1133D190E0E
:100190003CC3BD4282AD2B3E68EC8276BED98FE176
:1001A000A93E4C80EFFFBE01C4FF7F3F000000006E
:1001B00000004E414E494E495459494E46CDCCCC93
:1001C0003D0AD7233C17B7D13877CC2B329595E62B
:1001D000241FB14F0A000020410000C84200401C0B
:1001E0004620BCBE4CCA1B0E5AAEC59D744142533C
:1001F00000504C41004572723A20454550524F4DD7
:1002000020436F7272757074004572723A204545D2
:1002100050524F4D20435243004572723A2045459B
:1002200050524F4D2053697A65004572723A20450D
:100230004550524F4D2056657273696F6E00507273
:10024000696E742041626F72746564004D323500CE
:1002500050617573696E672E2E2E004D3234003F4B
:100260000049676E6F726500526573657400496E70
:10027000697469616C697A6520454550524F4D003B
:1002800046696C2E204469612E004520696E206D00
:100290006D5E330020022046616374002002204D11
:1002A0006178002002204D696E004F6666004F6E37
:1002B000004175746F74656D70004D696E205472E5
:1002C0006176656C205370656564004D696E2056DB
:1002D000656C6F63697479004D61782040205370BC
:1002E000656564004D6178204520416363656C005D
:1002F0004D6178204020416363656C0054726176E3
:10030000656C20416363656C00526574726163744F
:1003100020416363656C00416363656C004020733A
:10032000746570732F6D6D00416476616E636564F2
:100330002053657474696E6773003F0043616E6398
:10034000656C00496E6974004D34323800496E693D
:100350007469616C697A6520454550524F4D00467D
:10036000696C616D656E740054656D706572617461
:100370007572650053746570732F6D6D004A756EEC
:100380006374696F6E2044657600416363656C65D4
:10039000726174696F6E004D617820537065656499
:1003A00020286D6D2F73290053657420486F6D658B
:1003B000204F66667365747300436F6E6669677578
:1003C000726174696F6E00426564004E6F7A7A6C78
:1003D000650046616E20537065656400436F6E660C
:1003E000696775726174696F6E00526573746F72BC
:1003F000652044656661756C7473004C6F616420A0
:1004000053657474696E67730053746F726520531B
:10041000657474696E6773005072656865617420F5
:100420002420436F6E6600416476616E63656420CC
:1004300053657474696E6773004D61696E003F00A7
:100440004261636B0053746F70004E6F204D6564A2
:100450006961005072696E742066726F6D204D651F
:10046000646961004368616E6765204D6564696118
:10047000004D323100436F6E666967757261746951
:100480006F6E0054656D7065726174757265004DB4
:100490006F74696F6E00526573756D652050726977
:1004A0006E740054756E650053746F7020507269DD
:1004B0006E74005061757365205072696E740049E6
:1004C0006E666F2053637265656E003F0053746102
:1004D0007274205072696E740043616E63656C00C3
:1004E0005072696E740043616E6E6F7420656E7435
:1004F0006572207375626469723A200005202E2EA1
:10050000004D61696E002100486F74656E6420744F
:100510006F6F20636F6C64004261636B0050726F99
:1005200063656564004D6F76652045787472756407
:100530006572004D6F74696F6E0044697361626C1F
:1005400065205374657070657273004D38340041D6
:1005500075746F20486F6D6500473238004D6169D2
:100560006E005072656865617420242042656400E5
:1005700050726568656174202420456E640054657E
:100580006D706572617475726500F101ED01436F04
:100590006F6C646F776E00507265686561742024BB
:1005A0000046616E20537065656400426564004ECC
:1005B0006F7A7A6C65004D61696E00466C6F7700EA
:1005C00046616E20537065656400426564004E6F3D
:1005D0007A7A6C65005370656564004D61696E00E0
:1005E0006F70656E00545249474745524544003A82
:1005F00020007A5F6D696E00795F6D696E00785FCB
:100600006D696E005265706F7274696E6720656EF9
:100610006473746F70207374617475730A000000E2
:10062000000000000000000000005761726E696E5B
:10063000673A20486F6D696E672042756D7020447F
:10064000697669736F72203C20310A00020204004F
:10065000004D430000664300002A430000A0400014
:1006600000A0400000004000004D43000066430031
:10067000002A4300000000000000000000000053BA
:10068000657474696E67732053746F7265640029B2
:100690000A002062797465733B2063726320005303
:1006A000657474696E67732053746F726564202873
:1006B0000048617264636F646564204465666175B7
:1006C0006C742053657474696E6773204C6F616439
:1006D00065640020286D6D2900204600204200201E
:1006E000480020204D3134352053004D617465722F
:1006F00069616C2068656174757020706172616DEC
:1007000065746572730020204D3134392043203BDD
:1007100020556E69747320696E2043656C7369752A
:10072000730A0054656D7065726174757265205549
:100730006E697473002020473231203B004C696E93
:1007400065617220556E69747300454550524F4D76
:10075000206461746173697A65206572726F722EAC
:100760000A00202863616C63756C617465642921DB
:100770000A0020213D2000454550524F4D20435254
:1007800043206D69736D61746368202D2028737434
:100790006F726564292000454550524F4D20436FCC
:1007A00072727570740A002053697A653A200049A4
:1007B0006E6465783A2000290A00206279746573B6
:1007C0003B2063726320002073746F726564207332
:1007D000657474696E677320726574726965766595
:1007E000642028000000C8430000C8430000004007
:1007F000000034420000A0420000A042000020455A
:100800000000BA42A00F0000A00F00002800000066
:10081000A00F0000204D61726C696E3D563838297A
:100820000A00454550524F4D2076657273696F6ED0
:10083000206D69736D617463682028454550524F7F
:100840004D3D0020436F756E7420583A0042656438
:10085000004531004500626564002C207379737493
:10086000656D2073746F70706564212048656174D4
:1008700065725F49443A20004572723A204D4158F2
:1008800054454D50004D415854454D5020747269A7
:100890006767657265640048656174696E672046C4
:1008A00061696C65640048656174696E67206661A2
:1008B000696C6564004572723A204D494E54454D4D
:1008C00050004D494E54454D50207472696767651C
:1008D00072656400544845524D414C2052554E417A
:1008E00057415900546865726D616C2052756E6194
:1008F00077617900202F002042403A0020403A00E2
:100900007C3C3E5E2B3D3F2F5B5D3B2C2A225C00F6
:10091000434F4D4D554E49434154494F4E0044526B
:100920005952554E004552524F525300494E464F70
:10093000004543484F00506C6561736520526573F4
:100940006574005052494E5445522048414C54451C
:10095000440025533A202553004B494C4C45442E26
:1009600020005072696E7465722068616C746564F1
:100970002E206B696C6C28292063616C6C65642186
:100980000A006563686F3A004572726F723A002020
:10099000440020204D323030205300202844697319
:1009A00061626C6564293A0046696C616D656E74BC
:1009B0002073657474696E67730020204D32303186
:1009C0002058004D617820416363656C65726174E5
:1009D000696F6E2028756E6974732F733229002039
:1009E000204D3230332058004D61782066656564B3
:1009F00072617465732028756E6974732F73290092
:100A000020520020204D3230342050004163636575
:100A10006C65726174696F6E2028756E6974732FCE
:100A20007332292028503C7072696E742D616363A3
:100A3000656C3E20523C726574726163742D616313
:100A400063656C3E20543C74726176656C2D616305
:100A500063656C3E2900204A00205400205300208A
:100A6000204D323035204200416476616E6365640A
:100A70002028423C6D696E5F7365676D656E745FBB
:100A800074696D655F75733E20533C6D696E5F667A
:100A9000656564726174653E20543C6D696E5F7477
:100AA000726176656C5F66656564726174653E202F
:100AB0004A3C6A756E635F6465763E290020440097
:100AC00020490020204D333031205000486F74659C
:100AD0006E64205049440020496E76616C69642040
:100AE0006578747275646572200047322F47332031
:100AF00062616420706172616D65746572730A0071
:100B0000536C6565702E2E2E00436C69636B2074E8
:100B10006F20526573756D652E2E2E004E6F204D21
:100B20006F76652E00456E642066696C65206C6981
:100B300073740A00426567696E2066696C65206C93
:100B40006973740A004E6F206D656469610A00283C
:100B50006E6F2066696C65290043757272656E74EC
:100B60002066696C653A20004E6F742053442070F3
:100B700072696E74696E670A005344207072696E00
:100B800074696E67206279746520002E0A004465DE
:100B90006C6574696F6E206661696C65642C2046B3
:100BA000696C653A200046696C652064656C657403
:100BB00065643A002569730025696D202569730015
:100BC0002569682025696D202569730025696420E1
:100BD0002569682025696D202569730025697920BC
:100BE000256964202569682025696D2025697300C1
:100BF0005072696E742074696D653A20006F6B00E5
:100C00006F66660031092C0925091E091009444543
:100C10004255473A004D313133205300526457203A
:100C200069332050726F2058204F46462E00434FA4
:100C30004E4649475F4558504F5254004D45415428
:100C40005041434B00434F4F4C45525F54454D502C
:100C500045524154555245004348414D4245525F2B
:100C600054454D5045524154555245004241425918
:100C70005354455050494E470041524353004D4F45
:100C800054494F4E5F4D4F44455300544845524DD3
:100C9000414C5F50524F54454354494F4E004558C4
:100CA00054454E4445445F4D323000435553544FF4
:100CB0004D5F4649524D574152455F55504C4F414B
:100CC00044004C464E5F5752495445004C4F4E47E6
:100CD0005F46494C454E414D45004155544F5245A4
:100CE000504F52545F53445F535441545553005333
:100CF000445F575249544500524550454154004DB8
:100D0000554C54495F564F4C554D45005344434153
:100D100052440050524F4D50545F535550504F5213
:100D20005400484F53545F414354494F4E5F434F23
:100D30004D4D414E445300454D455247454E435954
:100D40005F50415253455200434153455F4C494720
:100D500048545F4252494748544E45535300544FFC
:100D600047474C455F4C494748545300534F4654FE
:100D7000574152455F504F574552004255494C44E8
:100D80005F50455243454E54004C4556454C494EE4
:100D9000475F44415441005A5F50524F4245005210
:100DA000554E4F5554004155544F4C4556454C00F7
:100DB0005052494E545F4A4F420050524F4752459D
:100DC0005353004155544F5245504F52545F544570
:100DD0004D50004155544F5245504F52545F504F63
:100DE0005300564F4C554D455452494300454550CC
:100DF000524F4D0042494E4152595F46494C455F62
:100E00005452414E534645520053455249414C5F5E
:100E1000584F4E5F584F4646004649524D57415233
:100E2000455F4E414D453A4D61726C696E20322EE0
:100E3000312E322E3720284D617920323220323047
:100E400032362031363A35383A32342920534F552C
:100E50005243455F434F44455F55524C3A6769746E
:100E60006875622E636F6D2F4D61726C696E466995
:100E7000726D776172652F4D61726C696E20505290
:100E80004F544F434F4C5F56455253494F4E3A31A2
:100E90002E30204D414348494E455F545950453A04
:100EA0005264572069332050726F2058204558549F
:100EB00052554445525F434F554E543A3120555593
:100EC00049443A63656465326132662D343161327A
:100ED0002D343734382D396231322D633535633650
:100EE00032663336376666002F2F004D3134352099
:100EF000533C696E6465783E206F7574206F662080
:100F000072616E67652028302D31290A003F4A2022
:100F10006F7574206F662072616E67652028302EB1
:100F2000303120746F20302E33290A002058004FB2
:100F30004646004F4E003B200020204D61783A206D
:100F400000200020204D696E3A2000203B20002028
:100F5000204D323131205300250A0046523A0020FC
:100F6000466C6F773A20003A200020536572766F06
:100F70002000206F7574206F662072616E67650AAD
:100F800000536572766F200064697300656E0043DC
:100F9000290A0061626C656420286D696E207465A1
:100FA0006D702000436F6C642065787472756465A1
:100FB00073206172652000486F6D6520257320469F
:100FC00069727374004F6666736574732041707044
:100FD0006C696564004D494E2F4D415820546F6F28
:100FE0002046617200546F6F206661722066726FD6
:100FF0006D204D494E2F4D41580A00454550524FE6
:101000004D204F4B0A004D383400446F6E65207000
:1010100072696E74696E672066696C650A004D3787
:1010200037004D333100496E76616C696420657814
:101030007472756465720A0020204D323036205873
:1010400000486F6D65206F6666736574004361705C
:101050003A0020746F6F206C6F6E67206578747231
:101060007573696F6E2070726576656E7465640A5B
:101070000020636F6C6420657874727573696F6E9D
:101080002070726576656E7465640A0020573A00B8
:10109000436F6F6C696E672E2E2E004531202553ED
:1010A0000020573A0042656420436F6F6C696E6799
:1010B0002E2E2E004265642048656174696E672E8D
:1010C0002E2E00206661696C6564212042616420D7
:1010D0006865617465722069640A00504944204162
:1010E00075746F74756E650023646566696E65203E
:1010F00044454641554C545F004B4420004B492029
:10110000004B5020002066696E6973686564212079
:1011100050757420746865206C617374204B702C5A
:10112000204B6920616E64204B6420636F6E737482
:10113000616E74732066726F6D2062656C6F7720CC
:10114000696E746F20436F6E66696775726174694A
:101150006F6E2E680A00504944204175746F747593
:101160006E6500206661696C6564212074696D6537
:101170006F75740A00504944204175746F74756E20
:101180006500206661696C6564212054656D706539
:1011900072617475726520746F6F20686967680A80
:1011A00000504944204175746F74756E6500504954
:1011B00044204379636C65730025532025692F25EE
:1011C0006900204B643A2000204B693A2000204BF4
:1011D000703A200020436C61737369632050494466
:1011E000200A002054753A2000204B753A20002038
:1011F0006D61783A2000206D696E3A200020643AD3
:10120000200020626961733A200048656174696E4C
:10121000672E2E2E002073746172740A00504944A8
:10122000204175746F74756E6500206661696C6528
:1012300064212054656D70657261747572652074E7
:101240006F6F20686967680A0050494420417574CF
:101250006F74756E6500504944204175746F7475E4
:101260006E6500A10000006900A20000006300B0EC
:101270000000000900C10000004100C20000004160
:1012800000C30000004100C40000004100C5000090
:10129000004100C60000004145C70000004300C8EF
:1012A0000000004500C90000004500CD00000049D5
:1012B00000D10000004E00D50000004F00D6000015
:1012C000004F00D70000007800DC0000005500DD72
:1012D0000000005900E00000006100E10000006132
:1012E00000E20000006100E30000006100E4000093
:1012F000006100E50000006100E60000006165E7B4
:101300000000006300E80000006500E900000065DF
:1013100000EA0000006500EB0000006500EC000042
:10132000006900ED0000006900EE0000006900EFB8
:101330000000006900F10000006E00F20000006F84
:1013400000F30000006F00F40000006F00F50000E3
:10135000006F00F60000006F00F80000006F00F959
:101360000000007500FA0000007500FB0000007529
:1013700000FC0000007500FD0000007900FF000087
:101380000079000401000041000501000061000631
:1013900001000043000701000063000C010000434E
:1013A000000D01000063000E01000044000F010069
:1013B0000064001101000064001901000065001ABA
:1013C00001000045001B01000065001F01000067CF
:1013D00000300100004900310100006900410100B6
:1013E000004C00420100006C00430100004E00442C
:1013F0000100006E00480100006E0058010000521C
:10140000005901000072005A01000053005B010006
:101410000073005F01000073006001000053006171
:1014200001000073006501000074006F0100007589
:10143000007C0100007A007D0100005A007E01005E
:10144000007A00920100006600E3020000780022AA
:101450002000002E001E21000050782221000054A0
:101460004D902100003C2D922100002D3EB0210026
:10147000000300BB21000004003C2200007E004865
:101480002200007E3D60220000213D612200003DDF
:1014900000642200003C3D652200003E3DF1230037
:1014A000000700A03000003D0021F301000200C24F
:1014B000F401000500A2000000EC00B0000000DF15
:1014C00000E4000000E100F6000000EF00F700007B
:1014D00000FD00FC000000F500E3020000EB0087C7
:1014E000030000A5008F030000F40098030000F241
:1014F000009E030000E300A3030000F600A9030020
:1015000000F400AC030000E000AD030000E300B114
:10151000030000E000B2030000E200B5030000E3B6
:1015200000B8030000F200BC030000E400BE0300AA
:1015300000E300C0030000F700C1030000E600C3A1
:10154000030000E500902100007F00922100007E52
:10155000001A220000E8001E220000F30088250087
:1015600000FF0002300000A1000C300000A2000DBE
:10157000300000A3009B300000DE009C300000DF44
:1015800000A03000003D00A1300000A700A2300004
:1015900000B100A3300000A800A4300000B200A5F4
:1015A000300000A900A6300000B300A7300000AA58
:1015B00000A8300000B400A9300000AB00AA300041
:1015C00000B500AB300000B600AC300000B6DEADB8
:1015D000300000B700AE300000B7DEAF300000B81A
:1015E00000B0300000B8DEB1300000B900B2300009
:1015F00000B9DEB3300000BA00B4300000BADEB586
:10160000300000BB00B6300000BBDEB7300000BCCD
:1016100000B8300000BCDEB9300000BD00BA3000B8
:1016200000BDDEBB300000BE00BC300000BEDEBD31
:10163000300000BF00BE300000BFDEBF300000C081
:1016400000C0300000C0DEC1300000C100C2300068
:1016500000C1DEC3300000AF00C4300000C200C5CE
:10166000300000C2DEC6300000C300C7300000C337
:10167000DEC8300000C400C9300000C4DECA30003B
:1016800000C500CB300000C600CC300000C700CD44
:10169000300000C800CE300000C900CF300000CAC2
:1016A00000D0300000CADED1300000CADFD23000E6
:1016B00000CB00D3300000CBDED4300000CBDFD530
:1016C000300000CC00D6300000CCDED7300000CC9B
:1016D000DFD8300000CD00D9300000CDDEDA300098
:1016E00000CDDFDB300000CE00DC300000CEDEDDE0
:1016F000300000CEDFDE300000CF00DF300000D051
:1017000000E0300000D100E1300000D200E2300003
:1017100000D300E3300000AC00E4300000D400E56A
:10172000300000AD00E6300000D500E7300000AE2C
:1017300000E8300000D600E9300000D700EA3000B1
:1017400000D800EB300000D900EC300000DA00EDEA
:10175000300000DB00EF300000DC00F2300000A6BB
:1017600000F3300000DD00F4300000B3DEF730009D
:1017700000DCDEFA300000A6DEFB300000A500FC35
:10178000300000B000FD300000A400074E0000FB58
:101790000086510000FC0043530000FA0064FF0083
:1017A00000A40065FF0000A50066FF0000A600671A
:1017B000FF0000A70068FF0000A80069FF0000A963
:1017C000006AFF0000AA006BFF0000AB006CFF0086
:1017D00000AC006DFF0000AD006EFF0000AE006FBA
:1017E000FF0000AF0070FF0000B00071FF0000B10B
:1017F0000072FF0000B20073FF0000B30074FF002E
:1018000000B40075FF0000B50076FF0000B6007759
:10181000FF0000B70078FF0000B80079FF0000B9B2
:10182000007AFF0000BA007BFF0000BB007CFF00D5
:1018300000BC007DFF0000BD007EFF0000BE007FF9
:10184000FF0000BF0080FF0000C00081FF0000C15A
:101850000082FF0000C20083FF0000C30084FF007D
:1018600000C40085FF0000C50086FF0000C6008799
:10187000FF0000C70088FF0000C80089FF0000C902
:10188000008AFF0000CA008BFF0000CB008CFF0025
:1018900000CC008DFF0000CD008EFF0000CE008F39
:1018A000FF0000CF0090FF0000D00091FF0000D1AA
:1018B0000092FF0000D20093FF0000D30094FF00CD
:1018C00000D40095FF0000D50096FF0000D60097D9
:1018D000FF0000D70098FF0000D80099FF0000D952
:1018E000009AFF0000DA009BFF0000DB009CFF0075
:1018F00000DC009DFF0000DD009EFF0000DE009F79
:10190000FF0000DF00E5FF00005C000000000001B8
:101910000204040000001C1C0C040404020100006A
:10192000000000040810000000000003002D2D2D11
:101930002D2D2D007C4D61726C696E7C0001002D97
:101940002D2D2D2D2D002500503A002568753A25A6
:10195000303268750025303268753A253032687546
:101960000025303268752725303268750020002048
:10197000003A003A00001C1F11111F000000061958
:101980001803130C00040E1F041C000000000E13AB
:1019900015110E00001C10181705060500040A0A90
:1019A0000A0A11110E0C12120C00000000001F1583
:1019B00011151F000042656400456E636C6F7375FE
:1019C00072650045002000250020202020202020D6
:1019D0000020002020202000200020002F00657221
:1019E00072004D6564696120496E697420466169C1
:1019F0006C0053442063617264206F6B0A006F7047
:101A0000656E526F6F74206661696C65640A00765A
:101A10006F6C756D652E696E6974206661696C65A1
:101A2000640A004E6F20534420636172640A0053BD
:101A30004420636172642072656C65617365640A39
:101A4000000A4D3234004D3233202573002E0A0037
:101A50006F70656E206661696C65642C2046696CE8
:101A6000653A200046696C652073656C6563746532
:101A7000640A002053697A653A200046696C652043
:101A80006F70656E65643A2000454E4420535542A0
:101A9000524F5554494E450A002220706F73002260
:101AA00020706172656E743A2200535542524F5550
:101AB00054494E452043414C4C2074617267657413
:101AC0003A220053756263616C6C204F76657266D2
:101AD0006C6F77004578636565646564206D617837
:101AE00020535542524F5554494E452064657074F9
:101AF000683A0057726974696E6720746F2066696E
:101B00006C653A2000667265736800646F696E6781
:101B1000002066696C653A20004E6F7720002F61C7
:101B200075746F25632E67006D61726C696E6677E0
:101B30002E6F7267006D61726C696E66772E6F72C0
:101B40006700322E312E322E3700322E312E322EB9
:101B50003700006D61726C696E66772E6F72670078
:101B60006D61726C696E66772E6F72670020322E1F
:101B7000312E322E37002001400130013B0140015F
:101B800036016001310170012C0190012701B00183
:101B90002201C0011D01F0011801100213013002E1
:101BA0000E016002090190020401C002FF0000035F
:101BB000FA004003F5008003F000D003EB0020049E
:101BC000E6007004E100E004DC004005D700C00539
:101BD000D2004006CD00D006C8008007C300300800
:101BE000BE00F008B900C009B400B00AAF00B00BE5
:101BF000AA00D00CA500000EA000500F9B00C01042
:101C000096005012910000148C00C0158700B01788
:101C10008200B0197D00D01B7800001E73004020A8
:101C20006E0090226900F024640040275F00902934
:101C30005A00E02B5500102E500020304B0010327F
:101C40004600E033410090353C00103737007038D3
:101C50003200A0392D00B03A2800A03B2300603CA0
:101C60001E00103D1900903D1400103E0F00703E04
:101C70000A00C03E0500003F0000403FFBFF803FE0
:101C8000F6FFC03FF1FF2020506C616E6E6572421E
:101C9000756666657242797465733A2000204672F3
:101CA0006565204D656D6F72793A200020436F6D38
:101CB00070696C65643A204D61792032322032308F
:101CC00032360A00204C617374205570646174656B
:101CD000643A20323032362D30312D3232207C20A1
:101CE000417574686F723A20283344776F726B2C99
:101CF0002068747470733A0A004D61726C696E20CA
:101D0000322E312E322E370A0020536F66747761DF
:101D100072652052657365740A00205761746368A8
:101D2000646F672052657365740A002042726F7792
:101D30006E206F75742052657365740A00204578B3
:101D40007465726E616C2052657365740A00506F21
:101D500077657255700A0073746172740A004732B5
:101D6000385859004D31303031006F6B0065727258
:101D70006F722077726974696E6720746F2066696C
:101D80006C650A00446F6E6520736176696E67202A
:101D900066696C652E0A00456E6473746F7073001B
:101DA00025532025632025632025632025630065B6
:101DB0006E6473746F7073206869743A2000000059
:101DC0000A0B02090C0D0E080703040100000000B5
:101DD0000000000000000000000000000000000003
:101DE00000000000000000000000121110000000C0
:101DF00000000000000000000000000000000000E3
:101E00000000000024F404D9201BC40C5C0E9804CC
:101E1000C4095F0265077101F405F900FB04B30012
:101E200048048700C10369005803550003034500B7
:101E3000BE023A008402310053022A002902250022
:101E400004022000E4011C00C8011900AF011700C2
:101E50009801140084011300710110006101100049
:101E600051010E0043010D0036010B002B010B0048
:101E700020010B00150109000C01090003010800F5
:101E8000FB000800F3000800EB000700E400060078
:101E9000DE000600D8000600D2000600CC000500D7
:101EA000C7000500C2000500BD000400B900040021
:101EB000B5000400B1000400AD000400A900040056
:101EC000A5000300A20003009F0004009B00030084
:101ED00098000300950002009300030090000300A7
:101EE0008D0002008B0003008800020086000200C3
:101EF00084000300810002007F0002007D000200D8
:101F00007B000200790002007700010076000200E9
:101F10007400020072000100710002006F000200F4
:101F20006D0001006C0002006A00010069000200FF
:101F30006700010066000100650001006400020006
:101F40006200010061000100600001005F0002000A
:101F50005D0001005C0001005B0001005A0001000F
:101F6000590001005800010057000100560001000F
:101F7000550001005400010053000000530001000F
:101F80005200010051000100500001004F0001000B
:101F90004E0000004E0001004D0001004C00010009
:101FA0004B0000004B0001004A0001004900010005
:101FB0004800000048000100470001004600000002
:101FC00046000100450000004500010044000100FA
:101FD00043000000430001004200000042000100F5
:101FE0004100000041000100400001003F000000EE
:101FF0003F0001003E0000003E0001003D000000E7
:102000003D0001003C0000003C0000003C000100DD
:102010003B0000003B0001003A0000003A000100D4
:1020200039000000390001003800000038000000CD
:1020300038000100370000003700010036000000C2
:1020400036000000360001003500000035000000B9
:1020500035000100340000003400000034000100AD
:1020600033000000330000003300010032000000A4
:102070003200000032000100310000003100000099
:10208000310001003000000030000000300001008D
:102090002F0000002F0000002F0000002F00010083
:1020A0002E0000002E0000002E0001002D00000078
:1020B0002D0000002D0000002D0001002C0000006C
:1020C0002C0000002C0000002C0001002B00000060
:1020D0002B0000002B0000002B0001002A00000054
:1020E0002A0000002A0000002A0001002900000048
:1020F000290000002900000029000000290001003B
:10210000280000002800000028000000280000002F
:102110002800010027000000270000002700000021
:102120002700000027000100260000002600000014
:102130002600000026000000260001002500000007
:1021400025000000250000002500000025000000FB
:1021500025000100240000002400000024000000ED
:1021600024000000240001002300000023000000E0
:1021700023000000230000002300000023000000D3
:1021800023000100220000002200000022000000C5
:1021900022000000220000002200010021000000B7
:1021A00021000000210000002100000021000000AB
:1021B000210000002100010020000000200000009C
:1021C000200000002000000020000000200000008F
:1021D00020000000200001001F0000001F00000080
:1021E0001F0000001F0000001F0000001F00000073
:1021F0001F0001001E0000001E0000001E00000065
:102200001E00000024F4D43050C38E20C2A2401718
:10221000828B7011127A910D816CD90AA861E10844
:10222000C7586607615143061E4B5D05C145A704AB
:102230001A411104093D9803713931034036DB021C
:1022400065339102D4305402802E1D02632CEE01BE
:10225000752AC501B028A001102781018F256401CE
:102260002B244B01E0223401AC211F018D200D01F4
:10227000801FFC00841EED00971DDF00B81CD200FB
:10228000E61BC600201BBC00641AB200B219A800ED
:102290000A19A0006A189900D117910040178B0005
:1022A000B516840031167E00B31579003A15730017
:1022B000C7146F0058146A00EE1366008813630099
:1022C00025135E00C7125B006C12570015125400F4
:1022D000C111510070114F0021114B00D61049005F
:1022E0008D1047004610440002104200C00F40000D
:1022F000800F3E00420F3C00060F3B00CB0E380023
:10230000930E37005C0E3500270E3400F30D3200BB
:10231000C10D3100900D3000600D2E00320D2D00EA
:10232000050D2C00D90C2B00AE0C2900850C2900C2
:102330005C0C2700350C27000E0C2600E80B24004F
:10234000C40B2400A00B23007D0B23005A0B21009B
:10235000390B2100180B2000F80A1F00D90A1E00B3
:10236000BB0A1E009D0A1D00800A1D00630A1C0096
:10237000470A1B002C0A1B00110A1A00F7091A0051
:10238000DD091900C4091900AB09190092091700E9
:102390007B091800630917004C091600360916005E
:1023A000200916000A091500F5081500E0081400B8
:1023B000CC081400B8081400A408140090081300F6
:1023C0007D0812006B08130058081200460812001E
:1023D000340811002308110012081100010811002F
:1023E000F0071000E0071000D0071000C007100031
:1023F000B0070F00A107100091070E0083070F0020
:1024000074070F0065070E0057070E0049070E00FE
:102410003B070D002E070E0020070D0013070D00CF
:1024200006070D00F9060C00ED060D00E0060C0095
:10243000D4060C00C8060C00BC060C00B0060C004C
:10244000A4060B0099060C008D060B0082060B00FB
:1024500077060B006C060B0061060A0057060B009E
:102460004C060A0042060A0038060A002E060A0038
:1024700024060A001A060A001006090007060A00C8
:10248000FD050900F4050900EB050900E205090056
:10249000D9050900D0050900C7050900BE050900D6
:1024A000B5050800AD050800A50509009C05080054
:1024B000940508008C050800840508007C050800C8
:1024C000740508006C050700650508005D05070038
:1024D000560508004E05070047050700400508009F
:1024E00038050700310507002A0507002305070006
:1024F0001C050600160507000F0507000805060065
:1025000002050700FB040600F5040700EE040600C0
:10251000E8040600E2040700DB040600D504060018
:10252000CF040600C9040600C3040600BD0406006B
:10253000B7040600B1040500AC040600A6040600BA
:10254000A00405009B040600950405009004060005
:102550008A04050085040500800406007A0405004D
:1025600075040500700405006B0405006604050091
:10257000610405005C0405005704050052040500D1
:102580004D04050048040500430405003E04040012
:102590003A04050035040500300404002C0405004D
:1025A00027040400230405001E0404001A04040088
:1025B00016040500110404000D04040009040500BC
:1025C0000404040000040400FC030400F8030400F5
:1025D000F4030400F0030400EC030400E803040027
:1025E000E4030400E0030400DC030400D803040057
:1025F000D4030400D0030400CC030400C803030088
:10260000C50303005D2E00006E23000013180000B8
:10261000AF0E00003D08000063040000450200000A
:10262000270100004D6F766520246D6D00302E303F
:102630003235004D6F766520302E316D6D004D6F57
:10264000766520316D6D004D6F76652031306D6D92
:10265000004D6F76652041786973004D6F76652077
:102660002A004D6F76652040005072696E742066B6
:10267000726F6D204D6564696100200020002000AC
:10268000200020002000486F6D696E672046616958
:102690006C656400FFFFFF43616E6E6F74206F70A6
:1026A000656E207375626469722000220A00556E9F
:1026B0006B6E6F776E20636F6D6D616E643A202272
:1026C00000204500205A0020590020204D3932209A
:1026D000580053746570732070657220756E69744C
:1026E00000627573793A2070617573656420666F56
:1026F0007220696E7075740A00627573793A207081
:10270000617573656420666F7220757365720A0067
:10271000627573793A2070726F63657373696E675F
:102720000A004D656469612052656D6F76656400CD
:102730004D6564696120496E7365727465640074E7
:102740006F6F206D75636820696E6163746976656B
:102750002074696D65202D2063757272656E74201A
:10276000636F6D6D616E643A20002121204B494CEE
:102770004C2063617573656420627920004D3131AE
:10278000322053687574646F776E0053544F505005
:1027900045442E20005072696E7465722073746F08
:1027A000707065642064756520746F206572726F47
:1027B00072732E2046697820746865206572726F86
:1027C0007220616E6420757365204D39393920742B
:1027D0006F20726573746172742E202854656D7059
:1027E00065726174757265206973207265736574B2
:1027F0002E2053657420697420616674657220729E
:10280000657374617274696E67290A004E6F2043A4
:102810006865636B73756D2077697468206C696E89
:1028200065206E756D6265722C204C617374204C4E
:10283000696E653A20004D3239004E6F204368655D
:10284000636B73756D2077697468206C696E6520A1
:102850006E756D6265722C204C617374204C696ECC
:10286000653A2000636865636B73756D206D6973ED
:102870006D617463682C204C617374204C696E65C3
:102880003A20004C696E65204E756D626572206954
:1028900073206E6F74204C617374204C696E6520D8
:1028A0004E756D6265722B312C204C617374204C17
:1028B000696E653A20004D313130005365726961AF
:1028C0006C20737461747573206D69736D617463CA
:1028D000680A0053442072656164206572726F72E9
:1028E0000A00DB0FC93F45BCDA3F8FB30240FCF062
:1028F000274056946140FE4B9B4084A5D840E0237E
:102900001841346A5641E859974164DBD5416E2736
:102910001742B4B75542CE1A9742C8AED542B588D1
:102920005A43D40684BFA65FA7BF7443E0BF10B16B
:102930001AC01C2C58C0E8F697C0B849D6C04E4EF5
:1029400017C124D355C1802497C1A0B5D5C1121A8F
:1029500017C244AE55C2781797C26CACD5C267880F
:102960005AC320746F6F206C6F6E67206578747225
:102970007573696F6E2070726576656E7465640A32
:102980000020636F6C6420657874727573696F6E74
:102990002070726576656E7465640A006F6B0A005C
:1029A000526573656E643A200020453A00205A3A19
:1029B0000020593A00583A00000022002500280063
:1029C0002B002E0031003400020100000501080137
:1029D0000B0100002100240027002A002D003000F8
:1029E000330001010000040107010A010505050586
:1029F000070508080808020202020A0A0808040477
:102A000004040101010101010101030303030303A4
:102A10000303040707070C0C0C0C0C0C0C0C020233
:102A2000020206060606060606060B0B0B0B0B0B30
:102A30000B0B0102102020080810204010204080BD
:102A40000201020108040201010204081020408072
:102A50008040201008040201800402018040201000
:102A60000804020108040201010204081020408049
:102A700001020408102040804572726F7220777244
:102A80006974696E6720746F20454550524F4D211F
:102A90000A005264572069332050726F2058205228
:102AA000656164792E005072696E74696E672E2EAE
:102AB0002E005072696E7420506175736564000059
:102AC0009EC903D311241FBECFEFD1E2DEBFCDBF1D
:102AD00000E00CBF84B78093E61214BE0FB6F894E2
:102AE000A8958091600088618093600010926000DA
:102AF0000FBE13E0A0E0B2E0E4E0F1EC01E00BBFB8
:102B000002C007900D92AC36B107D9F722E1ACE6CE
:102B1000B3E001C01D92A63EB207E1F715E1C1E6A0
:102B2000D5E100E006C021970109802FFE010E9437
:102B3000F3DBC036D10780E00807A9F70E9407CB76
:102B40000C9471E00C9400000F931F93CF93DF93CC
:102B5000CDB7DEB760970FB6F894DEBF0FBECDBF1E
:102B60008C01DC01ED91FC910280F381E02DBE012E
:102B70006F5F7F4F1995882309F464C08981807C39
:102B8000C9F56F81637070E0762F6627770F770F36
:102B90008885B4E08B9FC0011124682B792B89852F
:102BA0008295869586958370682B6F5F7F4F90E046
:102BB00080E02A852370220F3B8537FB332730F9CD
:102BC000232B3E813F70230F3327331F27503109BA
:102BD00004C0660F771F881F991F2A95D2F7609649
:102BE0000FB6F894DEBF0FBECDBFDF91CF911F911E
:102BF0000F910895803419F568856695669570E0A3
:102C000090E080E0CB01772766272A85622B098533
:102C100010E0102F0027012E000C220B330B602B2D
:102C2000712B822B932B6F5F7F4F8F4F9F4F4AE00B
:102C3000660F771F881F991F4A95D1F7D0CF8BE079
:102C4000F801848360E070E0CB01C9CFFC01828190
:102C50000895CF93DF93C091C90FD091CA0F81E03F
:102C6000CE31D105E4F020E030E040E05FE3609158
:102C7000C50F7091C60F8091C70F9091C80F0E9429
:102C80000EDC0E9452DD6C1B7D0B77FF03C071953B
:102C90006195710981E0633071050CF080E0DF918E
:102CA000CF910895FC0190E1ADE4B4E001900D9264
:102CB0009A95E1F70895CF92DF92EF92FF9280917B
:102CC0009E03882309F457C0C0909A03D0909B03B9
:102CD000E0909C03F0909D0320E030E0A901C70143
:102CE000B6010E947CD7882309F445C020E030E07B
:102CF00040E05FE3C701B6010E94E1D79B01AC0150
:102D00000E94E1D72BED3FE049E450E40E94E1D777
:102D10009B01AC0160E070E080E89FE30E94EADC88
:102D20006B017C01C0929503D0929603E0929703C9
:102D3000F09298036091060270910702072E000C32
:102D4000880B990B0E9482D72AE037ED43E25CE3BF
:102D50000E94E1D7A70196010E94E1D76093520239
:102D6000709353028093540290935502FF90EF901A
:102D7000DF90CF900895C12CD12C80E8E82E8FE30E
:102D8000F82ED0CF94E6899F9001112421583F4F0F
:102D9000C9016FEF70E00E94E0DB462FE72F862F1E
:102DA00091E3643609F090E2909370038A30E0F08A
:102DB000C90166EF79E00E94E0DBCB016AE070E0D8
:102DC0000E94E0DB805D80937103842F9E2F6AE078
:102DD00070E00E94E0DB805D8093720385E2809367
:102DE000730380E793E0089580E2EDCFFC018491C6
:102DF0000895FC0180810895609106027091070298
:102E0000072E000C880B990B0E9482D72AE037ED21
:102E100043E25CE30E94E1D7209195033091960351
:102E200040919703509198030E94E1D7609352021A
:102E300070935302809354029093550208958091A9
:102E40002705811104C080910705809362050895CC
:102E500080918A118823F1F02FEF3FEF30933602F3
:102E600020933502815080938A11E4E9FFE08823A2
:102E700051F08150990B2BE1289FF001299FF00D13
:102E80001124E458FF4E8BE1A9E7BFE001900D92B9
:102E90008A95E1F720918A11211105C08091941142
:102EA00080648093941181E090E0A0E0B0E0211173
:102EB00003C080E090E0DC0180931E0590931F0525
:102EC000A0932005B093210510921A0581E080930C
:102ED0001C0583E0809342020895CF93DF93EC01B9
:102EE000642F70E090E080E00E9482D729EC38ECFB
:102EF00048EC5EE30E94EADC20E030E040E05FE383
:102F00000E940EDC0E9457DD6883DF91CF91089507
:102F100070E090E080E00E9482D729EC38EC48EC29
:102F20005EE30E94EADC20E030E040E05FE30E94E4
:102F30000EDC0E9457DD862F25CFE091270586E025
:102F4000E802F0011124EC50FB4F8091070590E05E
:102F5000958384830895CF93DF93EC01CB01BA016D
:102F60000E9482D720E030E048EC52E40E94EADC84
:102F70002FE632E143E85AE30E940EDC688379834E
:102F80008A839B83DF91CF910895CF93DF93EC01E8
:102F9000CB01BA010E9482D720E030E048EC52E435
:102FA0000E94EADC2FE632E143E85AE30E940EDC9D
:102FB000688379838A839B83DF91CF910895CF9330
:102FC000DF93EC01CB01BA010E9480D72AE037EDF4
:102FD00043E25DE30E94EADC0E9457DD6883798367
:102FE0008A839B83DF91CF910895CF93DF93EC0188
:102FF000CB01BA010E9482D72AE037ED43E25DE3BC
:103000000E94EADC688379838A839B83DF91CF9176
:103010000895CF93DF93EC01CB01BA010E9482D7D0
:10302000688379838A839B83DF91CF910895FC0124
:10303000518340830895CF93DF93EC01CB01BA0114
:103040000E9482D720E030E04AE754E40E94EADCA4
:1030500027E137EB41ED58E30E940EDC688379836A
:103060008A839B83DF91CF9108954F925F926F92F5
:103070007F92AF92BF92CF92DF92EF92FF920F9327
:103080001F93CF93DF9300D01F92CDB7DEB78C0193
:1030900049835A836B837C835901C12CD12C7601DF
:1030A000412C82E0582E612C712C49815A816B8110
:1030B0007C819E012F5F3F4FC8010E949AAC8823FC
:1030C00019F1F8018585A301920104C0220F331F75
:1030D000441F551F8A95D2F7DA01C901C80ED91EBF
:1030E000EA1EFB1E49815A816B817C818789803170
:1030F000F1F481E0483F5F4F61057105B0F2F501E1
:10310000C082D182E282F3820F900F900F900F90D5
:10311000DF91CF911F910F91FF90EF90DF90CF90B3
:10312000BF90AF907F906F905F904F90089581E037
:10313000483F5F4F6F4F7F4008F4B7CFE0CFCF934A
:10314000DF93C091C90FD091CA0F209729F16091E8
:10315000C50F7091C60F8091C70F9091C80F0E9444
:1031600052DD6E5F7F4F24976C177D07ACF4709330
:103170007204609371040E943EA9605C73468F4F95
:103180009F4F6093730470937404809375049093BD
:103190007604DF91CF910895109273041092740415
:1031A0001092750410927604F4CFC9CFCF93DF93B9
:1031B000C091C90FD091CA0F209729F16091C50F16
:1031C0007091C60F8091C70F9091C80F0E9452DD79
:1031D0006E5F7F4F24976C177D07ACF47093720479
:1031E000609371040E943EA9605C73468F4F9F4FAD
:1031F00060937304709374048093750490937604C1
:10320000DF91CF910895109273041092740410927C
:10321000750410927604F4CFCF93DF93EC018D8187
:103220000E94348360E08B81DF91CF910C94A9A739
:10323000DF92EF92FF920F931F93CF93DF938C0156
:10324000C62FD22FF32EE42ED52EE6DF0E944AA9F8
:103250008C2F80640E9428838D2D0E9428838E2DC0
:103260000E9428838F2D0E9428838D2F0E942883FF
:1032700087E8C11101C085E90E942883CC3011F490
:103280000E942D83C0E00E942D83F801868387FF72
:1032900004C0CF3F11F0CF5FF6CFDF91CF911F91E8
:1032A0000F91FF90EF90DF90089561E0FC01838122
:1032B0000E94A9A78FEF0C9428830F931F93CF939D
:1032C0008C01AADF0E944AA9C82F81110AC082E19D
:1032D000F8018483C801E9DF8C2FCF911F910F91F2
:1032E00008958DEF0E9428830E944AA9C82FF2CF2B
:1032F0008F929F92AF92BF92CF92DF92EF92FF9206
:103300000F931F93CF93DF93EC016A017B01590167
:1033100020E030E0A90167E38BDFA501980167E1B8
:10332000CE0186DF811125C08F81833039F089E09D
:10333000CC0CDD1CEE1CFF1C8A95D1F7A701960171
:1033400069E1CE0175DF11E0882319F010E087E014
:103350008C83CE01AADF812FDF91CF911F910F9136
:10336000FF90EF90DF90CF90BF90AF909F908F90A5
:10337000089589E08C8310E0ECCFCF93DF93EC01CC
:103380006EBDFA01CA019E5F0DB407FEFDCF20811C
:103390002EBD0DB407FEFDCF21812EBD3296E8175C
:1033A000F90791F70DB407FEFDCF8FEF0E94288338
:1033B0008FEF0E9428830E942D838E838F7185302A
:1033C00041F083E18C83CE0170DF80E0DF91CF910B
:1033D000089581E0FBCFEF92FF921F93CF93DF938D
:1033E000EC017B0119DF0E944AA9182F81110BC043
:1033F00085E18C83CE0159DF812FDF91CF911F9121
:10340000FF90EF900895A7016CEFCE01B6DF182F63
:10341000F1CF0F931F93CF93DF93EC0189018F813D
:10342000833039F089E0440F551F661F771F8A9556
:10343000D1F79A01AB0168E1CE01FADE882321F0D1
:1034400086E08C8310E007C0A8016EEFCE0195DF07
:10345000811109C011E0CE0128DF812FDF91CF91CA
:103460001F910F9108950E944AA9182F811103C03E
:1034700087E18C83F0CF20E030E0A9016DE0CE0140
:10348000D7DE811104C00E942D83882319F386E1C1
:10349000D8CF1F93CF93DF93EC01BEDE20E030E066
:1034A000A9016CE0CE01C4DE11E0882319F010E020
:1034B00083E08C83CE01F9DE812FDF91CF911F91C4
:1034C00008951F93CF93DF93EC018F81833039F000
:1034D00089E0440F551F661F771F8A95D1F79A011F
:1034E000AB0162E1CE01A4DE11E0882319F010E007
:1034F00085E08C83CE01D9DE812FDF91CF911F91A2
:1035000008958F929F92AF92BF92EF92FF920F9386
:103510001F93CF93DF938C01EB017A010E943EA9A8
:103520004B015C012CE2820E21E0921EA11CB11C19
:103530000E942D83F80186838F3F69F40E943EA983
:10354000681979098A099B0997FDF2CF81E1F80191
:103550008483C0E021C08E3F69F5F1E0EF1AF108E5
:103560008FEF8EBDFE012FEF0DB407FEFDCF8EB5A0
:1035700081932EBDCF018C1B9D0B8E159F05A0F353
:103580000DB407FEFDCF8EB5CE0DDF1D88830E94E2
:103590002D830E942D83C1E0C80187DE8C2FDF912F
:1035A000CF911F910F91FF90EF90BF90AF909F90A0
:1035B0008F9008958FE0CBCF0F931F93CF93DF931E
:1035C000EC018B0129DE40E052E0B801CE01DF9131
:1035D000CF911F910F9195CF0F931F93CF93DF93AF
:1035E000EC0189018F81833039F089E0440F551F48
:1035F000661F771F8A95D1F79A01AB0161E1CE0171
:1036000017DE811109C040E052E0B801CE01DF9120
:10361000CF911F910F9175CF84E08C83CE0145DE51
:1036200080E0DF91CF911F910F9108958F929F922B
:10363000AF92BF92CF92DF92EF92FF920F931F93C0
:10364000CF93DF93EC01162F1F821C824B830E94C5
:103650003EA96B017C0120EDC20E27E0D21EE11CC9
:10366000F11CA89561E08B810E94A9A78B810E9423
:1036700064A1209A289A219A2398229A81E00E9494
:10368000348385E08D830E9434830AE08FEF0E94AB
:1036900028830150D9F7A89520E030E0A90160E027
:1036A000CE01C6DD8E83813079F00E943EA96C196F
:1036B0007D098E099F0997FDEFCF81E08C83CE01B4
:1036C000F4DD1A8280E065C0A8952AEA31E040E086
:1036D00050E068E0CE01ACDD853031F581E08F83CC
:1036E000A8958F81812C912C5401823029F4812C52
:1036F000912CA12C80E4B82E20E030E0A90167E3F2
:10370000CE0196DDA501940169E2CE0191DD8E83A3
:103710008823F1F00E943EA96C197D098E099F094A
:1037200097FDEACF8AE0CACF04E00E942D838E8302
:103730000150D9F78A3A11F482E0D1CF0E943EA914
:103740006C197D098E099F0997FDBFCF82E0B6CF26
:103750008F818230B9F420E030E0A9016AE3CE0124
:1037600067DD882311F088E0A9CF0E942D83807C3B
:10377000803C11F483E08F830E942D830E942D836F
:103780000E942D83CE0191DD81E08A83173070F491
:103790001D83DF91CF911F910F91FF90EF90DF90EC
:1037A000CF90BF90AF909F908F90089588E18C83C9
:1037B00089CF0F931F93CF93DF93EC018B0120E010
:1037C00030E0A90169E034DD811109C040E150E039
:1037D000B801CE01DF91CF911F910F9192CE80E180
:1037E0008C83CE0162DD80E0DF91CF911F910F913C
:1037F0000895EF92FF920F931F93CF937B018A015D
:10380000C2E48F3F09F0C4E580E20E94DD768C2F90
:103810000E94DD768AE30E94DD76F7016081718186
:10382000828193810E949DA184EF98E00E94E476BA
:10383000F80160817181828193810E949DA162E083
:1038400070E080E090E0CF911F910F91FF90EF909A
:103850000C94A4A84091FF0321E0422764E070E0AB
:103860000C942FA14091FF0321E0422761E070E01A
:103870000C942FA14091FF0321E042276CE070E0FF
:103880000C942FA14091FF0321E0422761E070E0FA
:103890000C942FA14091FF0321E0422768E070E0E3
:1038A0000C942FA14091FF0321E042276CE070E0CF
:1038B0000C942FA141E061E070E00C942FA141E055
:1038C00062E070E00C942FA14091FF0321E04227B9
:1038D0000C942FA164E070E00C94D7A862E070E033
:1038E0000C94D7A861E070E00C94D7A861E070E078
:1038F0000C94D7A86CE070E00C94D7A8CF93C82F95
:10390000CB010E94E4768FEE95E00E94E47680EE93
:1039100095E0CC2311F085EE95E0CF910C946E826A
:103920000F93CF93DF93CDB7DEB700E22EE3498547
:103930005A8568858F810E94D271DF91CF910F9156
:103940000895609107058FEF0C94E0C780910705FB
:10395000682F0C94E0C76FEF809107050C94E0C7C7
:103960006BE47CE482E00C942AC86DE47CE481E0A2
:103970000C942AC86FE47CE480E00C942AC866E2C8
:103980007AE483E00C942AC880914202882341F0B3
:103990006091E5037091E60341E081E00C94F3A3AC
:1039A0000895CF938091E60EC1E08823C9F08091FD
:1039B000E70E9091E80E4091DE0E5091DF0E60917F
:1039C000E00E7091E10EDC01ED91FC910288F3892B
:1039D000E02D2EED3CE01995C82F811104C0C0E008
:1039E0008C2FCF9108954091E20E5091E30E60919B
:1039F000E40E7091E50E4115510561057105B9F0B0
:103A00008091E70E9091E80EDC01ED91FC91028827
:103A1000F389E02D2EED3CE01995882301F31092F7
:103A2000E20E1092E30E1092E40E1092E50E109248
:103A3000E60ED6CFCF92DF92EF92FF92CF936B013B
:103A40007C01C42F8091DE0E9091DF0EA091E00EDC
:103A5000B091E10E8C159D05AE05BF0519F1A1DFF2
:103A6000811107C080E0CF91FF90EF90DF90CF9061
:103A700008958091E70E9091E80EDC01ED91FC91A4
:103A80000088F189E02D2EED3CE0B701A6011995E3
:103A9000882341F3C092DE0ED092DF0EE092E00E5A
:103AA000F092E10E81E0CC23F1F28093E60EDBCFC1
:103AB0008F929F92AF92BF92CF92DF92EF92FF923E
:103AC0000F931F93CF93DF93EC018B8181110EC075
:103AD00080E0DF91CF911F910F91FF90EF90DF90E9
:103AE000CF90BF90AF909F908F90089509891A89C9
:103AF0002B893C89041715072607370748F34A0125
:103B00005B01823031F488869986AA86BB8681E083
:103B1000E0CF81149104A104B10449F418861986F8
:103B20001A861B861C821D821E821F82F0CF08858A
:103B300019852A853B85E98DFA8D858590E0099662
:103B4000B901A8014150510961097109082E04C049
:103B500076956795579547950A94D2F77501640154
:103B6000E1E0CE1AD108E108F10804C0F694E79428
:103B7000D794C7948A95D2F7C416D506E606F706F9
:103B800020F0012B022B032B11F58D899E89AF8923
:103B9000B88D8C839D83AE83BF838E010C5F1F4FD6
:103BA000C114D104E104F10409F4ADCF4C815D816D
:103BB0006E817F819801898D9A8D0E949AAC91E0E7
:103BC000C91AD108E108F1088111EACF81CFC41ADE
:103BD000D50AE60AF70AE1CF2F923F924F925F9201
:103BE0006F927F928F929F92AF92BF92CF92DF920D
:103BF000EF92FF920F931F93CF93DF93EC014B0152
:103C00007A018B81811115C08FEF9FEFDF91CF91EA
:103C10001F910F91FF90EF90DF90CF90BF90AF90EA
:103C20009F908F907F906F905F904F903F902F90DC
:103C30000895898180FFE8CF89899A89AB89BC89F9
:103C4000488559856A857B85841B950BA60BB70B28
:103C5000A70170E060E084179507A607B70708F48E
:103C60007C0167011E0124E0220E311CC114D10425
:103C700009F4A8C0488559856A857B855A0181E089
:103C8000B822898D9A8D2A013B0129E076946794A8
:103C9000579447942A95D1F72B81FC01223079F56E
:103CA000628D738D848D958D640D751D861D971D98
:103CB00000E012E00A191B09C016D10608F48601BB
:103CC0000115E2E01E0771F44090DE0E5090DF0E09
:103CD0006090E00E7090E10E6415750586059705FD
:103CE00009F04DC040E0A6DE882309F48DCFB50170
:103CF0006252734FA801C4010E941BE052C014819C
:103D000011501421A114B10471F411110CC0452BF0
:103D1000462B472B51F58D899E89AF89B88D8C83B1
:103D20009D83AE83BF83E98DFA8D4C805D806E806C
:103D30007F8022E0421A510861087108858504C01D
:103D4000440C551C661C771C8A95D2F7868597858E
:103D5000A089B189480E591E6A1E7B1EC301B2019B
:103D6000610F711D811D911DA3CF4C815D816E81FD
:103D70007F8191010E949AAC8111D5CF45CFA0914E
:103D8000E70EB091E80EED91FC9111970088F18952
:103D9000E02D9401AB01BC01CD011995882309F4F4
:103DA00033CF800E911E88859985AA85BB85800FAB
:103DB000911FA11DB11D88879987AA87BB87C01A4B
:103DC000D10A54CFC70122CF0F931F93CF93DF9314
:103DD000FC012381222331F080E0DF91CF911F91FC
:103DE0000F9108958B01EC01FB018789803139F532
:103DF00082E08B831D8A1E8A1F8A188E808D918D8A
:103E0000B0E0A0E025E0880F991FAA1FBB1F2A95EC
:103E1000D1F7898B9A8BAB8BBC8B1A8F098F81E082
:103E20008983188619861A861B861C821D821E822B
:103E30001F82188A1C861D861E861F86CECF803262
:103E400059F683E08B83428D538D648D758D4D8B38
:103E50005E8B6F8B788F9E012F5E3F4FC80105D917
:103E60008111DBCFB9CFCF93DF93EC01462F4170A7
:103E70006C857D858E859F85DDDD882351F0888961
:103E800020E2829FC00111248252934FDF91CF9193
:103E9000089590E080E0FACFCF93DF93EC018B811F
:103EA000882339F1898187FF21C061E0CE01DBDF02
:103EB000FC01892BF1F08081853ED9F08B81823025
:103EC00040F489899A89AB89BC89848F958FA68FA4
:103ED000B78F8D899E89938F828F8D899E89AF89B7
:103EE000B88DB58BA48B89818F778983DF91CF9132
:103EF00058CD81E0888380E0DF91CF910895CF9302
:103F0000DF93EC01C9DF1B82DF91CF910895CF933E
:103F1000DF93EB01FC012381211104C080E0DF91DC
:103F2000CF9108952250223028F48FE2888319829D
:103F300081E0F5CF60E097DF009781F3DC0160E07E
:103F400080E09EE22D91203299F0883031F49E017C
:103F5000260F311DF90190836F5F9E01260F311DE1
:103F6000AD0141505109FA014081F90140836F5F71
:103F70008F5F8B3039F7FE01E60FF11D1082D8CF2D
:103F80003F924F925F926F927F928F929F92AF92E9
:103F9000BF92CF92DF92EF92FF920F931F93CF9336
:103FA000DF93CDB7DEB72C970FB6F894DEBF0FBE08
:103FB000CDBF5C01DC0159968D909C90F401818508
:103FC0009285A385B4859C01AD012F5F3F4F4F4F74
:103FD0005F4F29873A874B875C87D50114964D90B0
:103FE0005D906D907C9017974114510461047104A9
:103FF00009F459C0BFEF4B1A5B0A6B0A7B0A312CDC
:10400000730162011D821E821F821886F401818560
:104010009285A385B4852D813E814F8158852817CF
:1040200039074A075B0708F056C089859A85AB8532
:10403000BC858C159D05AE05BF0550F482E0C82EE9
:10404000D12CE12CF12C92E0492E512C612C712CB9
:104050009E012F5F3F4FB701A601C4010E949AAC99
:104060008823C9F189819A81AB81BC81892B8A2BF4
:104070008B2B01F1260137019FEF491A590A690A72
:10408000790A2D813E814F8158852F5F3F4F4F4FD9
:104090005F4F2D833E834F8358873FEFC31AD30A68
:1040A000E30AF30AB3CF40805180628073803324E7
:1040B0003394A6CFC414D504E604F70411F70FEF28
:1040C0001FEF2FEF3FE0B701A601C4010E9408AC2B
:1040D000782E81111AC0712C872D2C960FB6F8946A
:1040E000DEBF0FBECDBFDF91CF911F910F91FF902B
:1040F000EF90DF90CF90BF90AF909F908F907F9088
:104100006F905F904F903F900895F50144815581E5
:1041100066817781411551056105710539F0970177
:104120008601C4010E9408AC8823A9F2D501149627
:10413000CD92DD92ED92FC921797332051F0D7018A
:10414000C6010196A11DB11DF40180839183A28354
:10415000B383F50185899689A789B08D892B8A2B30
:104160008B2B09F0B9CFC58AD68AE78AF08E818178
:1041700080688183B1CF40E050E0BA0199CCFC0166
:1041800023812111BCCE08952F923F924F925F92CE
:104190006F927F928F929F92AF92BF92CF92DF9257
:1041A000EF92FF920F931F93CF93DF93CDB7DEB7BC
:1041B000C454D1090FB6F894DEBF0FBECDBF7C0149
:1041C0004B015A01222E19821C821C8E1F8E6115F2
:1041D000710511F410E0ADC1DC0113968C918111D1
:1041E000F9CFFA0180818B018F32C9F4DB0113967C
:1041F0008C9113978250823058F059966D917C9132
:10420000CE014C96E1DD8E01045E1F4F882311F331
:10421000C5015C010196F50120812F32D1F39E0189
:104220002F5F3F4F6901290130E2332E2496CFAE34
:1042300024972596DFAE25973E013CE1630E711C65
:1042400022963FAE229721963FAE21973FAE3EAEDB
:104250003DAE3CAE3BAE3AAE39AE38AE3FAA95016C
:1042600090E047E0D9018D91882361F18F3251F1BF
:104270008E3239F44A3009F4ADCF98E04AE09D011E
:10428000F1CFE0E0F9E02491222321F0319682136E
:10429000FACFA0CF491708F49DCF813208F49ACF06
:1042A0008F3709F497CF3FE9380F3A3108F420EE01
:1042B000E7E3F0E0EC0FFD1FE90FF11D820F8083B3
:1042C0009F5FDDCF8FA9803209F484CF5901D901D6
:1042D0008C912F5F3F4F8F32C9F38823A1F00815CF
:1042E000190511F0C8010BDE24969FAD2497259681
:1042F0008FAD25974C145D0411F4962D872D860102
:10430000C92ED82E9DCFF801818D928DD7015A9656
:104310009C938E935997C8012EDFC12CF80180859C
:104320009185A285B38541895289638974898417EF
:104330009507A607B70708F052C025E0B695A795E0
:10434000979587952A95D1F7F82FFF70DF2ED80122
:1043500013968C91823008F43DCF41E050E0BE01CD
:104360006E5B7F4FC80138DC019709F033CFF8014D
:1043700080859185A285B3854F96A11DB11D80874B
:104380009187A287B387F0E2DF9EB00111246252C9
:10439000734F6115710509F41DCFDB018C918823E2
:1043A00041F0853E09F04BC0CC2029F0CC24C394C9
:1043B000B5CFC1100EC08091DE0E9091DF0EA0919E
:1043C000E00EB091E10EF70184879587A687B78745
:1043D000D08ADB018C918111E9CFCC24C394822D4A
:1043E0008274823409F0F6CECC2009F4C3C0F70100
:1043F000D08861E0C70137DD009709F4EBCE20E2F9
:10440000DC011D922A95E9F72BE0FE01F796DC010D
:1044100001900D922A95E1F721E238E2FC01318BFF
:10442000208B40E058E057874687338B228B318FB3
:10443000208F578B468BB5DA81110AC0CBCE4BE06B
:1044400050E0CE01C7960E940EE0892B09F066CF9E
:104450002D2D30E0F901B5E0EE0FFF1FBA95E1F721
:10446000DF01A252B34F1B968C91817121F0822DF6
:10447000827109F01CC1D70159968D919C915A9770
:104480004091DE0E5091DF0E6091E00E7091E10ED2
:104490001C964D935D936D937C931F975096DC9281
:1044A0005097E252F34F84889588B12CA12C540187
:1044B0009924882455968D929D92AD92BC925897DE
:1044C000428D538D70E060E0482959296A297B2983
:1044D00055964D935D936D937C935897A5E0220F6D
:1044E000331FAA95E1F7D901A252B34F1B962C9125
:1044F000287109F0CEC0848D958DA68DB78DF701FA
:10450000818B928BA38BB48B81E08383822D8F7000
:10451000F701818314821582168217821086118614
:104520001286138611E024FE04C0C7010E941DAD4F
:10453000182FCE014C9623DECE01019620DE812F6E
:10454000CC5BDF4F0FB6F894DEBF0FBECDBFDF915F
:10455000CF911F910F91FF90EF90DF90CF90BF9080
:10456000AF909F908F907F906F905F904F903F9013
:104570002F900895D80113968C911397823009F4E7
:1045800029CE51968D919D910D90BC91A02D803E8C
:104590009F4FAF41B10508F01DCEC801F1DC882363
:1045A00009F418CEFED9882309F414CED8015996FF
:1045B000ED91FC915A9714968D909D90AD90BC9082
:1045C0001797B2E08B1A9108A108B108858504C03D
:1045D000880C991CAA1CBB1C8A95D2F786859785E6
:1045E000A089B189880E991EAA1EBB1E81E0809306
:1045F000E60E8092DE0E9092DF0EA092E00EB09258
:10460000E10EEEEDFCE080E092E0DF019C011D9206
:1046100021503040E1F7DD24D394D8015996ED9133
:10462000FC918481D816C0F48091E70E9091E80E39
:10463000DC01ED91FC910288F389E02D2EED3CE048
:10464000B501A4014D0D511D611D711D19958823E2
:1046500009F4C0CDD394E1CF258580E092E0A0E0BD
:10466000B0E004C0880F991FAA1FBB1F2A95D2F77C
:10467000F8014189528963897489840F951FA61FA7
:10468000B71F818B928BA38BB48B8EED9CE0D12CCA
:10469000B6CE203161F497012F5E3F4F0E9435184E
:1046A000882329F084E0D70113968C932FCFD7016C
:1046B00013961C928FCD1F93CF93DF9300D000D021
:1046C0001F921F92CDB7DEB7182F6091C90F70915E
:1046D000CA0F072E000C880B990B0E9482D76D839E
:1046E0007E838F8398878091C50F9091C60FA0918C
:1046F000C70FB091C80F89839A83AB83BC83AE0187
:104700004B5F5F4FBE016F5F7F4F80E872D8609153
:10471000F1047091F204072E000C880B990B0E9493
:1047200082D76D837E838F8398878091ED049091EB
:10473000EE04A091EF04B091F00489839A83AB83D7
:10474000BC83AE014B5F5F4FBE016F5F7F4F8FEF4A
:1047500050D86091F3041F3F39F08CE21802F00149
:104760001124EF53F04F628570E08CEF98E00E94C7
:1047700052826091F30470E087EF98E00E945282C9
:1047800028960FB6F894DEBF0FBECDBFDF91CF9154
:104790001F9108950F930FB70F9300916E000D7F37
:1047A00000936E0078940F930BB70F930CB70F9292
:1047B0001F922F933F934F935F936F937F938F93AA
:1047C0009F93AF93BF93EF93FF9311240E94EE2F1B
:1047D000FF91EF91BF91AF919F918F917F916F91D9
:1047E0005F914F913F912F911F900F900CBF0F91B0
:1047F0000BBF0F910260F89400936E000F910FBFF2
:104800000F911895CF93DF9310923905C1ECDFE03B
:10481000198618860E94D6181A867498C9EED4E0B4
:10482000198618860E94E7641A86A598DF91CF91B1
:1048300008958F929F92AF92BF92CF92DF92EF92A4
:10484000FF920F931F93CF93DF93B4E4A0E06A2FFE
:1048500070E0AB014B0F511D55954795411119C0A3
:10486000E8E7FBE165917491072E000C880B990B2A
:104870000E9482D7DF91CF911F910F91FF90EF900F
:10488000DF90CF90BF90AF909F908F900895B42FFE
:10489000E0CFA41711F0B41303C0E4E8FCE1E2CFC9
:1048A0009A0121503109220F331F220F331FF901C2
:1048B000EA58F44EE590F490F901E658F44EC591AB
:1048C000D4918E159F0518F3A42FC817D90708F4A3
:1048D000BECFF901E858F44E05911491F901E4585E
:1048E000F44EC590D4908E199F09BC0190E080E0F1
:1048F0000E9480D74B015C01B601601B710B072E33
:10490000000C880B990B0E9482D79B01AC01C5015A
:10491000B4010E94E1D74B015C01CE19DF09BE0151
:1049200090E080E00E9480D79B01AC01C501B401FA
:104930000E94EADC6B017C01B801110F880B990B16
:104940000E9482D79B01AC01C701B6010E940EDC18
:1049500091CFEF92FF920F931F93CF93DF93C82FC6
:104960007B018A0180914505833090F00E94077990
:10497000C7010E94E4768AE598E00E94E476CF3F82
:1049800041F586E598E00E94E4768AE00E94DD76B3
:1049900039DFA89580915D04811138C081E0809352
:1049A0005D0482E0809345052DDFD5E1D15019F1FA
:1049B000A8955B9A69E170E080E090E00E94A4A86D
:1049C0005B9860E570E080E090E00E94A4A8A89564
:1049D000EDCFC7FDDACF84E598E00E94E4766C2F36
:1049E0000C2E000C770B880B990B0E9485A08AE097
:1049F0000E94DD76CACF5B9A6DE478E0CF3F11F07C
:104A000061E578E040E0C8010E947382DF91CF91B8
:104A10001F910F91FF90EF9008953F924F925F92F8
:104A20006F927F928F929F92AF92BF92CF92DF92BE
:104A3000EF92FF920F931F93CF93DF93EC015B01F3
:104A40004A01322EFA014080518062807380A301B6
:104A500092016D817E818F8198850E947CD7882309
:104A6000A1F04D825E826F8278867724739420E075
:104A700030E0A901F40160817181828193810E94FB
:104A800034DE18160CF0712C7C828C818230A1F0FF
:104A9000833009F455C08130A9F52D813E814F81C5
:104AA0005885F50160817181828193810E947CD754
:104AB00087FD28C082E08C83F5012081318142810D
:104AC00053816D817E818F8198850E940DDC2B0141
:104AD0003C010E943EA94B015C01A7019601C30164
:104AE000B2010E947CD71816FCF09801A8EEB3E042
:104AF0000E94A4DB860E971EA81EB91E888299828A
:104B0000AA82BB82DF91CF911F910F91FF90EF900E
:104B1000DF90CF90BF90AF909F908F907F906F90DD
:104B20005F904F903F90089588819981AA81BB81C1
:104B3000881A990AAA0ABB0AB7FCE4CF83E08C83DF
:104B400044ED58E064EE78E0832DDF91CF911F9122
:104B50000F91FF90EF90DF90CF90BF90AF909F901C
:104B60008F907F906F905F904F903F90F2CE48E78C
:104B700058E065E878E0EDCECF93DF93A89580917B
:104B8000C30F9091C40F0E949FA06093C50F7093B4
:104B9000C60F8093C70F9093C80F8091EB0490913C
:104BA000EC0447DE6093ED047093EE048093EF0411
:104BB0009093F004C091C30FD091C40F80913B0239
:104BC00090913C02C817D90710F480E0D0DF8091A3
:104BD000C90F9091CA0F181619066CF4809139020A
:104BE00090913A028C179D0730F445EB58E062EC47
:104BF00078E080E0AEDE2091D3043091D40480913F
:104C0000EB049091EC048217930710F48FEFAFDF61
:104C10008091F1049091F204181619069CF42091E9
:104C20003702309138028091EB049091EC04281700
:104C3000390740F445EB58E062EC78E08FEFDF9104
:104C4000CF9187CEDF91CF9108952F923F924F92CF
:104C50005F926F927F928F929F92AF92BF92CF920C
:104C6000DF92EF92FF920F931F93CF93DF93CDB715
:104C7000DEB762970FB6F894DEBF0FBECDBF80914E
:104C8000450581111AC0A89562960FB6F894DEBF4B
:104C90000FBECDBFDF91CF911F910F91FF90EF908D
:104CA000DF90CF90BF90AF909F908F907F906F904C
:104CB0005F904F903F902F90089580916C048111E8
:104CC000E3CF81E080936C048091A503811103C040
:104CD00010926C04D9CF50DF1092A5030E943EA918
:104CE0006D837E838F83988760913F02709140022D
:104CF000072E000C880B990B0E9482D79B01AC01F8
:104D00006091C50F7091C60F8091C70F9091C80F29
:104D10000E9434DE181614F480E029DF6091C90F78
:104D20007091CA0F072E000C880B990B0E9482D736
:104D300069837A838B839C83C12CD12C30E8E32E4A
:104D400030E4F32E08E210E020E0AE014F5F5F4F49
:104D500065EC7FE08FEA9FE060DE2091C50F309127
:104D6000C60F4091C70F5091C80F29873A874B87CC
:104D70005C8760913D0270913E02072E000C880B0B
:104D8000990B0E9482D79B01AC0169857A858B853E
:104D90009C850E9434DE18160CF017C260913F0209
:104DA00070914002072E000C880B990B0E9482D74D
:104DB0009B01AC0169857A858B859C850E947CD797
:104DC00087FF03C280916404811109C081EC9FE0D8
:104DD000909363048093620481E080936404009163
:104DE000620410916304D80118966D917C91072E8E
:104DF000000C880B990B0E9482D76B017C0120E08C
:104E000030E0A9010E947CD78823C9F0D80114960C
:104E10002D913D914D915C9117972D873E874F873E
:104E2000588BC701B6010E940DDC4B015C0120E0EC
:104E300030E040E251EC0E947CD787FF07C081E060
:104E4000F8018387C12CD12C7601D5C020E030E059
:104E500040E251E4C501B4010E9434DE18165CF44E
:104E600081E0D8011B968C93C12CD12C2FE7E22E28
:104E700023E4F22EC0C0F8018385882349F013860D
:104E80001486158616861786148E158E168E178E26
:104E9000D8019496CD90DD90ED90FC9097971C965C
:104EA0002D913D914D915C911F97C501B4010E94D8
:104EB0000EDC762E672E582E492E20E030E0A90118
:104EC0000E947CD787FD7CC1A701960160E070E05D
:104ED0008FE793E40E94EADC698B7A8B382E292EC7
:104EE000272D362D452D542D0E947CD787FF03C0DA
:104EF00079886A882101872D962DA52DB42DF8017A
:104F000084879587A687B78720A131A142A153A1A5
:104F1000C501B4010E94E1D74B015C01D801549650
:104F20008D929D92AD92BC925797272D362D452D8F
:104F3000542DC701B6010E94E1D72B013C01F801B5
:104F4000408E518E628E738EC48CD58CE68CF78C1D
:104F50002D853E854F85588960897189828993891D
:104F60000E940DDCD80198962D913D914D915C9158
:104F70009B970E94E1D7A70196010E940DDC20EDCE
:104F80003CEC4CE45DE30E94E1D7A70196010E944E
:104F90000EDC6B017C01F801C48ED58EE68EF78E97
:104FA0002D853E854F855889208B318B428B538BC5
:104FB000A3019201C501B4010E940EDCA701960174
:104FC0000E940EDC20E030E0A9010E940EDC6B01A3
:104FD0007C0120E030E0A9010E947CD787FD32CF20
:104FE00020E030E04FE753E4C701B6010E9434DE11
:104FF00018160CF439CFC701B6010E9452DD759521
:1050000067956093CB0F8091730490917404A09185
:105010007504B09176040097A105B105E1F02D81EA
:105020003E814F815885281B390B4A0B5B0BDA01F7
:10503000C901B7FD10C069857A858B859C850E9462
:1050400052DD2091710430917204621773070CF4E1
:10505000BEC00E94D61820E030E046E153E46091E3
:10506000ED047091EE048091EF049091F0040E94A1
:1050700034DE181614F48FEF7ADD8091A10390913D
:10508000A203A091A303B091A4030097A105B105C9
:1050900001F12D813E814F815885281B390B4A0B28
:1050A0005B0BDA01C901B7FD14C06091ED0470918A
:1050B000EE048091EF049091F0040E9452DD209163
:1050C0009F033091A003621773070CF487C00E94FE
:1050D000E76480915E0490915F04A0916004B091B8
:1050E00061042D813E814F815885281B390B4A0B65
:1050F0005B0BDA01C901B7FDEBCD8D819E81AF81DC
:10510000B88588579C4EAF4FBF4F80935E049093F5
:105110005F04A0936004B09361046091F104709106
:10512000F204072E000C880B990B0E9482D769832A
:105130007A838B839C83C12CD12CE12C80E4F82EC4
:1051400004E110E02FEFAE014F5F5F4F6DEE74E0B2
:1051500088EB9FE062DCC090ED04D090EE04E0901C
:10516000EF04F090F00420E030E040EA50E4C701A2
:10517000B6010E9434DE87FD3AC020E030E046E10F
:1051800053E4C701B6010E947CD7181684F16091E0
:10519000F1047091F204072E000C880B990B0E9409
:1051A00082D7A70196010E940DDC20E030E0A90122
:1051B0000E9434DE1816CCF48FE78093F30488CD78
:1051C000712C612C512C412C96CE60E01ACF47E90E
:1051D00058E066EA78E080E0BCDB3DCF47E958E084
:1051E00066EA78E08FEFB5DB74CF80E0E6CF10920F
:1051F000F304A5986DCDCF92DF92EF92FF92CF93FB
:10520000DF93EC01C880D980EA80FB8083E498E0DA
:105210000E94E476C701B6010E947572CC80DD80E1
:10522000EE80FF8081EB99E20E94E476C701B6012F
:105230000E947572C884D984EA84FB848DEA99E25D
:105240000E94E476C701B6010E9475728AE0DF9180
:10525000CF91FF90EF90DF90CF900C94DD76BC0162
:1052600020914A0430914B0440914A0450914B04E0
:105270002417350731F481E02617370709F080E05D
:1052800008959A01F1CF0F930FB70F9300916E001D
:105290000F930D7F00936E0000916F000D7F0093C0
:1052A0006F000F930BB70F930CB70F921F922F93B2
:1052B0003F934F935F936F937F938F939F93AF939E
:1052C000BF93EF93FF931124B8D7FF91EF91BF9154
:1052D000AF919F918F917F916F915F914F913F918E
:1052E0002F911F900F900CBF0F910BBF0F91026079
:1052F000F89400936F000F9100936E000F910FBF11
:105300000F91189500C000C08091D80480FF24C080
:10531000119A8FEF809301048091D80481FF1FC000
:10532000449A8FEF809302048091D80482FF1AC0C0
:10533000A2988FEF809303048091D80483FF15C057
:1053400080910B0180958071809309018FEF80938C
:10535000040400C000C00895119881E0DBCF449898
:1053600081E0E0CFA29A81E0E5CF80910B018071CE
:105370008093090181E0EBCF80910004877F8093C7
:105380000004A09A81E00895A098809100048860AC
:1053900080930004089521E030E0082E02C0220F1F
:1053A000331F0A94E2F72095309590910004292349
:1053B00020930004813061F020F0823071F081E0B0
:1053C0000895159A8091D7048E7F8093D704F7CFE4
:1053D000179A8091D7048D7FF8CF429A8091D70495
:1053E0008B7FF3CF80E0D7DF81E0D5DF82E0D3DFB2
:1053F000C3CF813089F070F0823081F021E030E05D
:1054000001C0220F8A95EAF780910004822B8093D5
:10541000000408951598F2CF1798F0CF4298EECF78
:10542000CF92DF92EF92FF920F931F93CF93C82FEB
:1054300041E06DE377E00E94E879C11102C00E946B
:105440000A7985E397E00E94E47683ED96E00E9476
:105450006E8241E063E277E08C2F0E94E879C1110F
:1054600002C00E940A7986E097E00E94E4768C2FC1
:105470000E9465818C2F0E9495A38C2F0E94E4814D
:105480008C2F0E940D828C2F0E94C5818C2F0E9430
:1054900091818C2F0E94468141E06BEE76E08C2F4B
:1054A0000E94E87904EF14E0C12CD12C7601C111DF
:1054B00002C00E940A7982EE96E00E94E476C7015B
:1054C000B6010E941BA0F80160817181072E000CBB
:1054D000880B990B0E9482D7AB01BC018FED96E03F
:1054E0000E94977CF80162817381072E000C880B63
:1054F000990B0E9482D7AB01BC018CED96E00E9413
:10550000977CF8016481758189ED96E00E945F8245
:105510000A5F1F4FCA94CD28CE28CF2851F48C2F74
:10552000CF911F910F91FF90EF90DF90CF900C944F
:10553000A67CC12CD12C7601C394B9CFCF92DF9237
:10554000EF92FF920F931F93CF93DF93CDB7DEB708
:10555000C958D1090FB6F894DEBF0FBECDBFC358EE
:10556000DF4F188219821A821B82CD57D04080915A
:105570004F0390915003A0915103B0915203CF5724
:10558000DF4F88839983AA83BB83C158D04084E6C8
:1055900090E09093060F8093050F10925D0F10928C
:1055A0005C0F64E070E0CE018F579F4F0E94D7A838
:1055B0008091050F9091060F02969093060F8093AD
:1055C000050F10925D0F10925C0F8FE592E0CB57A4
:1055D000DF4F99838883C558D040CE018B579F4FAA
:1055E0000E946E1C81E0C757DF4F8883C958D040A6
:1055F000CE0187579F4F0E94761C68E470E086E7D3
:1056000095E00E94D7A880E1E6E5F2E08E010F5F09
:105610001F4FD80101900D928A95E1F760E170E08B
:10562000C8010E94D7A886E495E00E946A1C89ED13
:1056300094E00E947A1C7E018DE6E80EF11C8FEF4B
:10564000F7018083C7010E94761C19821A821B828F
:105650001C82C8010E946A1C19821A821B821C8249
:10566000C8010E946A1CC358DF4F188219821A822F
:105670001B82CD57D04083E0EA968FAFEA97F701BF
:105680008083CE0183589F4F0E946A1CCE018758A9
:105690009F4F0E94761CC7010E94761C80E09CE010
:1056A0009A838983C8010E946E1C3AE0D32EDA9453
:1056B000DD2031F0CE0183589F4F0E946A1CF7CF46
:1056C0008CE0F80111928A95E9F7C8010E947A1CD2
:1056D000C358DF4F188219821A821B82CD57D040DF
:1056E0002AE0D22EDA94DD2031F0CE0183589F4F8C
:1056F0000E946A1CF7CF83E0C857DF4F8883C858E1
:10570000D040C957DF4F8883C758D040CE01885753
:105710009F4F0E94761CCE0189579F4F0E94761C96
:1057200080E09CE0EB969FAF8EAFEB97CE01875861
:105730009F4F0E946E1C88E0F701982F11929A9556
:10574000E9F7F80111928A95E9F768E070E0C7017E
:105750000E94D7A868E070E0C8010E94D7A8C3588B
:10576000DF4F188219821A821B82CD57D0409AE0EF
:10577000C92ED12CF1E0CF1AD10831F0CE018358D7
:105780009F4F0E946A1CF6CF1982DD24DA94F7013C
:10579000D082C8010E94721CC7010E94761C198227
:1057A000C8010E94721C6CE070E084EF94E00E94DB
:1057B000D7A88091E10F9091E20FA091E30FB091F3
:1057C000E40F89839A83AB83BC8321E732EB47E202
:1057D0005EE36091E50F7091E60F8091E70F909185
:1057E000E80F0E94EADC6D837E838F83988721E730
:1057F00032EB47E25EE36091E90F7091EA0F80912E
:10580000EB0F9091EC0F0E94E1D769877A878B8725
:105810009C8780E090E0A0E8BFE38D879E87AF87FC
:10582000B88B198A1A8A1B8A1C8A64E170E0C80145
:105830000E94D7A884E190E09A838983C8010E94DE
:105840006E1C8CE0E6E6F2E0D80101900D928A959C
:10585000E1F76CE070E0C8010E94D7A88CE0E6E6B2
:10586000F2E0D80101900D928A95E1F76CE070E0CA
:10587000C8010E94D7A81982C8010E94761C8FE730
:105880008983C8010E94761CD982C8010E94761CB7
:1058900085E0E2E7F2E0D80101900D928A95E1F708
:1058A00065E070E0C8010E94D7A81982C8010E9473
:1058B000721C80E2E7E7F2E0D80101900D928A9530
:1058C000E1F760E270E0C8010E94D7A8F7011082FA
:1058D000C7010E94721C8EE993E00E94721C8AE943
:1058E00093E00E946A1CC358DF4F188219821A8203
:1058F0001B82CD57D040CE0183589F4F0E946A1C17
:1059000082E1F80111928A95E9F762E170E0C8013D
:105910000E94D7A884E2E7E9F2E0D80101900D9255
:105920008A95E1F764E270E0C8010E94D7A880E19F
:10593000D82EF8018D2D11928A95E9F760E170E07B
:10594000C8010E94D7A81A82198262E070E0C801DB
:105950000E94D7A8C358DF4F188219821A821B826F
:10596000CD57D040CE0183589F4F0E946A1CF8014A
:105970001192DA94E9F760E170E0C8010E94D7A8BB
:105980008CE6F80111928A95E9F76CE670E0C8019F
:105990000E94D7A8F701108211821282138214820A
:1059A00015821682178268E070E0C7010E94D7A8AE
:1059B0008CE0F70111928A95E9F7C957DF4F1882F9
:1059C000C758D04080E090E0A0E4B0E4ED968CAF02
:1059D0009DAFAEAFBFAFED97C7010E947A1CCE015D
:1059E00089579F4F0E94761CCE0187589F4F0E9477
:1059F0006A1C0091050F1091060F04561109809141
:105A00005C0F90915D0FF7019183808384E690E0B5
:105A10009093060F8093050F64E070E083ED92E0B1
:105A20000E94D7A8C7010E946E1C0E940A79B80183
:105A30008FE996E00E944682F701C080D180F12C68
:105A4000E12C82E996E00E94E476C701B6010E944B
:105A50001BA08FE896E00E94E4760F351240B9F063
:105A60000E9407798AE497E00E94E47680E0C757B5
:105A7000DF4F0FB6F894DEBF0FBECDBFDF91CF91E1
:105A80001F910F91FF90EF90DF90CF90089560E00D
:105A90008FE796E00E94EC6781E0E9CF4FDD0C9440
:105AA0002768843021E0920714F084E091E090931D
:105AB000CA0F8093C90F0C949F188091070590918D
:105AC0000805EFCFCF93DF932091990321111DC0DB
:105AD0009091FE0391111AC0C0910802D091090261
