:100000000C947F220C94BF220C94BF220C94BF222C
:100010000C94BF220C94BF220C94BF220C94BF22DC
:100020000C94BF220C94BF220C94BF220C94BF22CC
:100030000C94BF220C94BF220C94BF220C94BF22BC
:100040000C94BF220C94DCE50C94BF220C94BF22CC
:100050000C94BF220C949AE40C94BF220D94784324
:100060000C94BF220C94FC3F0C94F23F0C94BF22E2
:100070000C94BF220C94BF220C94BF220C94BF227C
:100080000C947E330C94BF220C94BF220C94BF229C
:100090000C94BF220C94BF220C94BF220C94BF225C
:1000A0000C94BF220C94BF220C9450330C94BF22AA
:1000B0000C94BF220C94BF220C94BF220C94BF223C
:1000C0000C94BF220C94BF220C94BF220C94BF222C
:1000D0000C94BF220C94BF220C94BF220C94BF221C
:1000E0000C94BF22084AD73B3BCE016E84BCBFFDB7
:1000F000C12F3D6C74319ABD56833DDA3D00C77FF8
:1001000011BED9E4BB4C3E916BAAAABE0000008090
:100110003F05A84CCDB2D44EB93836A9020C50B91F
:10012000918688083CA6AAAA2ABE000000803F0744
:10013000634236B79BD8A71A39685618AEBAAB5582
:100140008C1D3CB7CC5763BD6DEDFD753EF6177247
:1001500031BF000000803F08000000BE9224491219
:100160003EABAAAA2ABECDCCCC4C3E00000080BE3D
:10017000ABAAAAAA3E00000000BF000000803F001A
:1001800000000000084178D3BB4387D1133D190E0E
:100190003CC3BD4282AD2B3E68EC8276BED98FE176
:1001A000A93E4C80EFFFBE01C4FF7F3F000000006E
:1001B00000000D9488050D94F2100D9472230D9497
:1001C000B6420D94C3420D9445230D94D1420D9433
:1001D000CD420D94ED420D94C4580D94B2420D944D
:1001E000BD420D947F0B0D94D5420D94FE0E0D94DF
:1001F000BC130D941B240D94C7420D94E9420D9439
:10020000BA420D9473230D94FC4E0D948A0B0D94F9
:10021000AE420D9463090D94DB420D9467090D9471
:10022000E3420D949C420D94DF420D949D0B0D947E
:1002300065090D9497420D94430D4E414E494E4928
:100240005459494E46CDCCCC3D0AD7233C17B7D1A3
:100250003877CC2B329595E6241FB14F0A00002049
:10026000410000C84200401C4620BCBE4CCA1B0EC8
:100270005AAEC59D7400407A10F35A00A0724E1811
:10028000090010A5D4E80000E87648170000E40B48
:1002900054020000CA9A3B000000E1F5050000800E
:1002A000969800000040420F000000A08601000068
:1002B00000102700000000E80300000000640000B8
:1002C0000000000A00000000000100000000002CF7
:1002D00076D888DC674F0823DFC1DFAE59E1B1B7BC
:1002E00096E5E3E453C63AE651997696E8E6C28489
:1002F00026EB898C9B62ED407C6FFCEFBC9C9F40A1
:10030000F2BAA56FA5F490055A2AF75C936B6CF9C5
:10031000676DC11BFCE0E40D47FEF520E6B500D09B
:10032000ED902E0300943577050080841E080000B0
:10033000204E0A000000C80C333333330F986E127E
:10034000831141EF8D2114893BE65516CFFEE6DB84
:1003500018D1844B381BF77C1D901DA4BBE42420CE
:100360003284725E228100C9F124ECA1E53D27436D
:100370004F4D4D554E49434154494F4E00445259FB
:1003800052554E004552524F525300494E464F006F
:100390004543484F004572726F72207772697469E5
:1003A0006E6720746F20454550524F4D210A00530F
:1003B000544F505045442E20005072696E7465723F
:1003C0002073746F707065642064756520746F208D
:1003D0006572726F72732E2046697820746865208A
:1003E0006572726F7220616E6420757365204D397D
:1003F000393920746F20726573746172742E2028ED
:1004000054656D70657261747572652069732072D0
:10041000657365742E205365742069742061667459
:1004200065722072657374617274696E67290A005F
:100430004E6F20436865636B73756D2077697468D0
:10044000206C696E65206E756D6265722C204C6142
:100450007374204C696E653A20004E6F20436865C6
:10046000636B73756D2077697468206C696E6520A5
:100470006E756D6265722C204C617374204C696ED0
:10048000653A2000636865636B73756D206D6973F1
:100490006D617463682C204C617374204C696E65C7
:1004A0003A20004C696E65204E756D626572206958
:1004B00073206E6F74204C617374204C696E6520DC
:1004C0004E756D6265722B312C204C617374204C1B
:1004D000696E653A20004D313130005365726961B3
:1004E0006C20737461747573206D69736D617463CE
:1004F000680A0053442072656164206572726F72ED
:100500000A004B494C4C20627574746F6E2F7069F1
:100510006E0A002121204B494C4C206361757365A4
:10052000642062792000746F6F206D7563682069A4
:100530006E6163746976652074696D65202D206332
:10054000757272656E7420636F6D6D616E643A20B2
:10055000002121204B494C4C206361757365642058
:10056000627920007061757365004D36303000206F
:1005700066696C616D656E745F72756E6F757420FF
:100580000066696C616D656E745F72756E6F75740F
:1005900020540046696C616D656E7452756E6F759E
:1005A000742054004D656469612052656D6F7665F5
:1005B00064004D6564696120496E73657274656499
:1005C00000627573793A2070617573656420666F97
:1005D0007220696E7075740A00627573793A2070C2
:1005E000617573656420666F7220757365720A00A9
:1005F000627573793A2070726F63657373696E67A1
:100600000A00506C65617365205265736574005013
:1006100052494E5445522048414C544544002553BC
:100620003A20255300706F7765726F6666004B49FC
:100630004C4C45442E20005072696E7465722068DF
:10064000616C7465642E206B696C6C282920636171
:100650006C6C6564210A006563686F3A00457272CC
:100660006F723A0042696C696E656172204C657602
:10067000656C696E6720477269643A0A002F2F61C2
:100680006374696F6E3A006E6F7469666963617452
:10069000696F6E2000656E640073686F7700627525
:1006A00074746F6E00486F74656E6420746F6F2091
:1006B000636F6C640A0053656E64204D31303820DE
:1006C000746F20726573756D650A00496E7365728B
:1006D000742066696C616D656E7420616E64207350
:1006E000656E64204D3130380A005265686561746A
:1006F00020446F6E6500526568656174696E672E8F
:100700002E2E0052656865617400486561746572DB
:100710002054696D656F75740053656E64204D31AA
:10072000303820746F2068656174206E6F7A7A6C3F
:10073000650A004E6F7A7A6C65205061726B656451
:100740000070617573656400486561642063616E63
:100750006E6F74206265207061726B656400506119
:10076000757365004732362043616E63656C65645E
:10077000004732362048656174696E67204E6F7A93
:100780007A6C65004732362048656174696E67206F
:100790004265640057616974696E6720666F7220F4
:1007A0006865617475702E0A004669786564204C2E
:1007B000656E677468205072696D6500446F6E6580
:1007C000205072696D696E67004D616E75616C20B5
:1007D0007072696D696E672E2E2E004C65617669A8
:1007E0006E6720473236003F5370656369666965FE
:1007F0006420582C5920636F6F7264696E61746550
:10080000206F7574206F6620626F756E64732E0A98
:10081000003F28522965706561742076616C7565AA
:10082000206E6F7420706C61757369626C653B201B
:100830006D757374206265206174206C65617374DA
:1008400020312E0A003F5370656369666965642034
:100850006E6F7A7A6C652074656D706572617475FF
:100860007265206E6F7420706C61757369626C655F
:100870002E0A003F53706563696669656420666986
:100880006C616D656E742073697A65206E6F74207B
:10089000706C61757369626C652E0A003F537065F8
:1008A000636966696564207072696D65206C656E48
:1008B000677468206E6F7420706C61757369626C08
:1008C000652E0A003F537065636966696564206E32
:1008D0006F7A7A6C652073697A65206E6F74207008
:1008E0006C61757369626C652E0A003F52657472A3
:1008F000616374696F6E204D756C7469706C6965A5
:1009000072206D757374206265207370656369660B
:100910006965642E0A003F537065636966696564A2
:100920002052657472616374696F6E204D756C74CA
:1009300069706C696572206E6F7420706C6175737C
:1009400069626C652E0A003F53706563696669656C
:1009500064206C6179657220686569676874206ECF
:100960006F7420706C61757369626C652E0A004348
:10097000292E0A003F5370656369666965642062C9
:1009800065642074656D7065726174757265206E42
:100990006F7420706C61757369626C6520283430E7
:1009A0002D00473236207374617274696E672E2E83
:1009B0002E0A004F46460A00466164652048656974
:1009C0006768742000426564204C6576656C696ECA
:1009D0006720004661696C656420746F20656E61F4
:1009E000626C6520426564204C6576656C696E6753
:1009F0000A00496E76616C6964206D6573682E0A21
:100A00000050726F62696E6720506F696E740025C6
:100A1000532025692F2569002E0A002F0050726F80
:100A200062696E67206D65736820706F696E7420EF
:100A300000202844525952554E290047323920414E
:100A400075746F20426564204C6576656C696E67CD
:100A5000003F20284C2C522C462C4229206F7574C4
:100A6000206F6620626F756E64732E0A003F2856F1
:100A7000296572626F7365206C6576656C20696D9F
:100A8000706C61757369626C652028302D34292E75
:100A90000A00426164205A2076616C75650A004E36
:100AA0006F2062696C696E65617220677269640AA1
:100AB000005A2050726F6265205061737420426545
:100AC000640A005A2050726F62652050617374206E
:100AD00042656400446576696174696F6E002553F0
:100AE0003A2025730046696E6973686564210A00BF
:100AF0003A207A3A2000206F662000476F696E67BF
:100B000020746F3A20580043570A00206469723AF3
:100B10000020616E676C653A0053746172742072D4
:100B200061646975733A004D343820506F696E7492
:100B30000025533A2025642F256400506F73697493
:100B4000696F6E696E67207468652070726F626588
:100B50002E2E2E0A004D3438205A2D50726F6265A9
:100B6000205265706561746162696C6974792054A2
:100B70006573740A003F4C656773206F66206D6F64
:100B800076656D656E7420696D706C6175736962F0
:100B90006C652028302D3135292E0A003F20285839
:100BA0002C5929206F7574206F6620626F756E64F2
:100BB000732E0A0050726F6265206F7574206F6625
:100BC00020626F756E6473003F53616D706C6520B9
:100BD00073697A65206E6F7420706C6175736962D9
:100BE0006C652028342D3530292E0A003F285629DF
:100BF0006572626F7365206C6576656C20696D70D7
:100C00006C61757369626C652028302D34292E0A59
:100C1000005374616E646172642044657669617426
:100C2000696F6E3A20002052616E67653A2000209D
:100C30004D61783A2000204D696E3A2000205369BA
:100C4000676D613A20004D65616E3A2000204400D6
:100C500020204D32303020530020284469736162D7
:100C60006C6564293A0046696C616D656E74207329
:100C7000657474696E67730020204D3230312058DE
:100C8000004D617820416363656C65726174696FC2
:100C90006E2028756E6974732F7332290020204DE1
:100CA0003230332058004D6178206665656472618A
:100CB0007465732028756E6974732F732900205230
:100CC0000020204D323034205000416363656C6554
:100CD000726174696F6E2028756E6974732F733238
:100CE000292028503C7072696E742D616363656CB5
:100CF0003E20523C726574726163742D616363655A
:100D00006C3E20543C74726176656C2D6163636542
:100D10006C3E290020540020530020204D323035F5
:100D2000204200416476616E6365642028423C6D18
:100D3000696E5F7365676D656E745F74696D655F1D
:100D400075733E20533C6D696E5F666565647261C4
:100D500074653E20543C6D696E5F74726176656C9B
:100D60005F66656564726174653E20583C6D6178AC
:100D70005F6A65726B3E20593C6D61785F6A65728F
:100D80006B3E205A3C6D61785F6A65726B3E204510
:100D90003C6D61785F6A65726B3E290020440020DB
:100DA000490020204D333031205000486F74656E6B
:100DB00064205049440020440020490020204D3345
:100DC00030342050004265642050494400203B00EC
:100DD00020550020204D363033204C0046696C6190
:100DE0006D656E74206C6F61642F756E6C6F6164DD
:100DF000003B200020496E76616C69642065787440
:100E00007275646572200047322F47332062616437
:100E100020706172616D65746572730A0047322FCC
:100E200047332062616420706172616D6574657220
:100E3000730A00536C6565702E2E2E004732384CB5
:100E4000300070726F62655F726577697065004D22
:100E50003131372050726F6265206661696C65645C
:100E60002E205265776970696E672E0A4732380AFC
:100E70004731322050302053313220543000473235
:100E800039205265747279696E670070726F62659D
:100E90005F6661696C65640050726F62696E67209D
:100EA0004661696C6564004D3131372042656420CC
:100EB0006C6576656C696E67206661696C65642E29
:100EC0000A4730205A31300A4D3330302050323505
:100ED00020533838300A4D333030205035302053CD
:100EE000300A4D3330302050323520533838300AF4
:100EF0004D333030205035302053300A4D333030B0
:100F00002050323520533838300A4D33303020509D
:100F100035302053300A4734205331004D313137BA
:100F200020426564206C6576656C696E6720646F2D
:100F30006E652E005A2050726F6265205061737486
:100F40002042656400205A3A200020593A2000428D
:100F5000656420583A20004D65736820706F696E93
:100F600074206F7574206F662072616E67650A0069
:100F70004E6F204D6F76652E00456E642066696C5D
:100F800065206C6973740A00426567696E20666942
:100F90006C65206C6973740A004E6F206D6564691E
:100FA000610A00526573756D696E672053440028AD
:100FB0006E6F2066696C65290043757272656E7488
:100FC0002066696C653A20002E0A0044656C6574E1
:100FD000696F6E206661696C65642C2046696C657A
:100FE0003A200046696C652064656C657465643AF6
:100FF0000043616E6E6F74206F70656E2073756252
:1010000064697220005072696E742074696D653A6B
:1010100020006F6B006F66660090038B0384037D76
:10102000036F0344454255473A004D313133205355
:101030000043522D3130205632204F46462E004379
:101040004F4E4649475F4558504F5254004D454119
:10105000545041434B00434F4F4C45525F54454D14
:101060005045524154555245004348414D42455226
:101070005F54454D504552415455524500424142FE
:10108000595354455050494E470041524353004D27
:101090004F54494F4E5F4D4F4445530054484552BD
:1010A0004D414C5F50524F54454354494F4E0045BB
:1010B0005854454E4445445F4D32300043555354D7
:1010C0004F4D5F4649524D574152455F55504C4F29
:1010D0004144004C464E5F5752495445004C4F4ED8
:1010E000475F46494C454E414D45004155544F528E
:1010F00045504F52545F53445F535441545553002D
:1011000053445F575249544500524550454154009D
:101110004D554C54495F564F4C554D450053444333
:101120004152440050524F4D50545F535550504F10
:10113000525400484F53545F414354494F4E5F430C
:101140004F4D4D414E445300454D455247454E434A
:10115000595F50415253455200434153455F4C49FA
:101160004748545F4252494748544E4553530054F0
:101170004F47474C455F4C494748545300534F46EF
:1011800054574152455F504F574552004255494CC4
:10119000445F50455243454E54004C4556454C49DA
:1011A0004E475F44415441005A5F50524F42450000
:1011B00052554E4F5554004155544F4C4556454C91
:1011C000005052494E545F4A4F420050524F4752CE
:1011D000455353004155544F5245504F52545F545C
:1011E000454D50004155544F5245504F52545F5059
:1011F0004F5300564F4C554D4554524943004545B9
:1012000050524F4D0042494E4152595F46494C455C
:101210005F5452414E534645520053455249414C4A
:101220005F584F4E5F584F4646004649524D574112
:1012300052455F4E414D453A4D61726C696E2032A8
:101240002E312E322E3820284A756E203238203228
:101250003032362030383A35363A35322920534F3D
:10126000555243455F434F44455F55524C3A676979
:10127000746875622E636F6D2F4D61726C696E4676
:1012800069726D776172652F4D61726C696E205065
:10129000524F544F434F4C5F56455253494F4E3A6D
:1012A000312E30204D414348494E455F54595045F9
:1012B0003A43522D3130205632204558545255442D
:1012C00045525F434F554E543A3120555549443AA3
:1012D00063656465326132662D343161322D343795
:1012E00034382D396231322D633535633632663309
:1012F00036376666002F2F004D31343520533C6958
:101300006E6465783E206F7574206F662072616E22
:1013100067652028302D31290A005741524E494E29
:101320004721204C6F77205A204A65726B206D61EF
:1013300079206C65616420746F20756E77616E74BE
:101340006564207061757365732E0A002058002053
:10135000204D61783A2000200020204D696E3A200F
:1013600000203B200020204D323131205300536FAC
:10137000667420656E6473746F707300250A00468E
:10138000523A0020466C6F773A20003A20002053F2
:101390006572766F2000206F7574206F6620726111
:1013A0006E67650A00536572766F200050726F6237
:1013B00065204F6666736574205A0050726F6265CF
:1013C000204F6666736574205A0064697300656E09
:1013D0000043290A0061626C656420286D696E20F3
:1013E00074656D702000436F6C642065787472754D
:1013F0006465732061726520004F4646004F4E00C1
:10140000203B20486F73742068616E646C696E675E
:1014100020006D6D00203B2044697374616E63652C
:10142000200046696C616D656E742072756E6F7513
:101430007420004D34323120696E636F72726563BF
:101440007420706172616D65746572207573616777
:10145000650A004D65736820706F696E74206F7542
:1014600074206F662072616E67650A0045455052B0
:101470004F4D204F4B0A00290A0020746F20003F77
:101480005A206F7574206F662072616E6765202820
:1014900000290A0020746F20003F59206F757420C6
:1014A0006F662072616E676520282D00290A002072
:1014B000746F20003F58206F7574206F6620726132
:1014C0006E676520282D004D383400446F6E65200E
:1014D0007072696E74696E672066696C650A004D8A
:1014E0003737004D333100446966663A20202000CA
:1014F00046726F6D5374703A005374657070657204
:101500003A00556E4C6576656C3A004C6576656CB4
:1015100065643A005261773A20202020000A4C6F1F
:10152000676963616C3A00436F756E7420453A00D9
:101530004361703A00626567696E004D30205374F4
:101540006F70004D312053746F7000436C69636B92
:1015500020746F20526573756D652E2E2E00554ECA
:101560004C4F41442046494C414D454E54004C4F50
:1015700041442046494C414D454E540046494C415A
:101580004D454E54204348414E474500203B0020E6
:10159000204D3835312058005A2D50726F62652029
:1015A0004F6666736574002569730025696D202593
:1015B0006973002569682025696D202569730025F8
:1015C0006964202569682025696D202569730025D7
:1015D000697920256964202569682025696D2025A1
:1015E0006973000A53746174733A2046696C616DC3
:1015F000656E7420757365643A20002C204C6F6E04
:1016000067657374206A6F623A2000546F74616C6E
:101610002074696D653A200053746174733A200038
:101620002C204661696C65643A20002C2046696E66
:1016300069736865643A20005072696E74733A2069
:101640000053746174733A2000436F6F6C696E6766
:101650002E2E2E0045312025530042656420436F15
:101660006F6C696E672E2E2E00426564204865619E
:1016700074696E672E2E2E0023646566696E652080
:1016800044454641554C545F00004245445F004B81
:101690004420004B4920004B502000504944207406
:1016A000756E696E6720646F6E65002066696E698D
:1016B00073686564212050757420746865206C61BE
:1016C0007374204B702C204B6920616E64204B6436
:1016D00020636F6E7374616E74732066726F6D2019
:1016E00062656C6F7720696E746F20436F6E6669F8
:1016F0006775726174696F6E2E680A0050494420E4
:101700004175746F74756E6500206661696C6564FF
:10171000212074696D656F75740A00504944204139
:1017200075746F74756E65004175746F74756E6550
:10173000206661696C6564212054696D656F7574FC
:101740002E00206661696C6564212054656D7065AA
:1017500072617475726520746F6F20686967680ABA
:1017600000504944204175746F74756E650050498E
:1017700044204379636C65730025532025692F2528
:101780006900204B643A2000204B693A2000204B2E
:10179000703A200020436C617373696320504944A0
:1017A000200A00204E6F206F76657273686F6F7429
:1017B0000A002054753A2000204B753A2000206D15
:1017C00061783A2000206D696E3A200020643A204A
:1017D0000020626961733A200048656174696E6730
:1017E0002E2E2E002073746172740A00504944201A
:1017F0004175746F74756E65004175746F74756EA4
:1018000065206661696C6564212054656D70657240
:10181000617475726520746F6F20686967682E0047
:10182000206661696C6564212054656D7065726124
:101830007475726520746F6F20686967680A00505C
:101840004944204175746F74756E65005049442099
:101850004175746F74756E65003F28432979636C18
:101860006573206E6F7420706C61757369626C654E
:1018700020283E3D33292E0A00206661696C65648C
:101880002120426164206865617465722069640A80
:1018900000504944204175746F74756E650045723F
:1018A000723A207574663820666F6E74206E6F749D
:1018B00020696E697469616C697A65642E0045728D
:1018C000723A207574663820666F6E74206E6F747D
:1018D00020696E697469616C697A65642E0045726D
:1018E000723A207574663820666F6E74206E6F745D
:1018F00020696E697469616C697A65642E002000E4
:10190000200020003A003A002568753A25303268F8
:10191000750025303268753A2530326875002530FB
:101920003268752725303268750025687564202572
:10193000303268753A25303268750042656400457A
:101940006E636C6F73757265004500200020002087
:101950000020002000250020202020202020002022
:1019600020202000657272001FE02010201020103F
:101970001020102020102010303008400480030078
:101980001FE03FF03FF03FF01FE01FE03FF03FF06F
:101990003FF00FC0078003003FFFF038007030FCBD
:1019A0003020FC102078102030102C00D02E31D0A8
:1019B0002F7BD02F7BD02E31D02C00D02030102088
:1019C000781020FC1030FC303800703FFFF03FFFF3
:1019D000F03800703186302387102787902F87D00A
:1019E0002F03D02030102078102078102030102FB6
:1019F00003D02F87D0278790238710318630380077
:101A0000703FFFF01FFFF81FFFF80410400208208E
:101A100002082004104008208010410010410008F6
:101A200020800410400000001FFFF81FFFF86361D2
:101A30006E63656C005072696E742041626F7274DF
:101A400065640055492041626F72746564004D32CF
:101A50003520500A4D323400526573756D6500555E
:101A6000492050617573650050617573696E672E0A
:101A70002E2E00726573756D65004D3234003F0087
:101A800049676E6F726500526573657400496E69CF
:101A90007469616C697A6520454550524F4D00006C
:101AA000FE0003FF8007C7C00701E00000E0000060
:101AB000F00000700400700E00701F00703F80F096
:101AC0000E00E00F01E007C7C003FF8000FE00002A
:101AD000FE0003FF8007C7C00F01E00E00E03F805B
:101AE000F01F00700E00700400700000700000F025
:101AF0000000E00701E007C7C003FF8000FE000E02
:101B0000000E000E000E000E000E000E000E007FF4
:101B1000C03F801F000E00040004000E001F003FA5
:101B2000807FC00E000E000E000E000E000E000E94
:101B3000000E00FFFFFF7F80FFC0FFC0FFC07F805F
:101B40007F80FFC0FFC0FFC03F001E000C0050722E
:101B50006F6265205A204F66667365740052756E19
:101B60006F75742044697374206D6D004C6F6164EF
:101B7000206D6D00556E6C6F6164206D6D0046695F
:101B80006C2E204469612E004520696E206D6D5ECB
:101B900033004D33303320553120452569205325FE
:101BA00069004175746F74756E65202A2050494430
:101BB000005049442D44202A005049442D49202AF0
:101BC000005049442D50202A0020082046616374AB
:101BD000002008204D6178002008204D696E004FDC
:101BE0006666004F6E004175746F74656D70004DD0
:101BF000696E2054726176656C205370656564006F
:101C00004D696E2056656C6F63697479004D61781B
:101C10002040205370656564004D61782045204167
:101C20006363656C004D6178204020416363656C9F
:101C30000054726176656C20416363656C00526587
:101C4000747261637420416363656C004163636512
:101C50006C004D61782040204A65726B0050726FB5
:101C60006265205A204F66667365740050726F6219
:101C7000652059204F66667365740050726F626507
:101C80002058204F66667365740040207374657039
:101C9000732F6D6D00416476616E636564205365DA
:101CA0007474696E6773003F0043616E63656C0016
:101CB000496E697400496E697469616C697A65205E
:101CC000454550524F4D0046696C616D656E74001C
:101CD00054656D70657261747572650053746570DA
:101CE000732F6D6D0050726F6265204F666673656D
:101CF0007473004A65726B00416363656C65726161
:101D000074696F6E004D617820537065656420289A
:101D10006D6D2F732900436F6E666967757261740C
:101D2000696F6E005A2056616C756500496E646576
:101D300078205900496E64657820580053746F729A
:101D4000652053657474696E6773004C6F6164201D
:101D500053657474696E67730050726F6265205AC0
:101D6000204F666673657400466164652048656946
:101D7000676874004F6666004F6E00426564204CD1
:101D80006576656C696E670045646974204D65739E
:101D900068004C6576656C20426564004732394EB8
:101DA00000473239004175746F20486F6D65004DF2
:101DB0006F74696F6E003F0043616E63656C204F06
:101DC000626A656374004E4F005945530043616E6B
:101DD00063656C204F626A656374207B004D6169A6
:101DE0006E0053572D4D6F64650053746F77004438
:101DF00065706C6F790053656C662D546573740063
:101E0000526573657400426564004E6F7A7A6C6542
:101E10000046616E20537065656400436F6E6669AD
:101E20006775726174696F6E00526573746F726565
:101E30002044656661756C7473004C6F6164205357
:101E4000657474696E67730053746F7265205365AF
:101E50007474696E677300507265686561742024DC
:101E600020436F6E66004F6666004F6E0052756EBF
:101E70006F75742053656E736F7200424C546F75AA
:101E800063680050726F6265205A204F6666736502
:101E90007400416476616E6365642053657474698F
:101EA0006E6773004D61696E004D373032205425E6
:101EB00064004D36303020423020542564004D37C8
:101EC0003032203B2564004D3730312054256400EA
:101ED0004D373032004D373031004D3630302042F2
:101EE00030004D61696E00436F6E74696E756500F8
:101EF0004F6666004F6E0052756E6F7574205365A5
:101F00006E736F72005075726765206D6F72650039
:101F1000524553554D45204F5054494F4E533A006A
:101F20005052494E5420504155534544002F0020F3
:101F30000020204E6F7A7A6C653A20005061726BF7
:101F4000696E672E2E2E0000005761697420666F3F
:101F5000720066696C616D656E74206368616E679E
:101F60006500746F20737461727400576169742026
:101F7000666F720066696C616D656E7420756E6C5B
:101F80006F616400004E6F7A7A6C652068656174D9
:101F9000696E6700506C6561736520776169742EA6
:101FA0002E2E0000507265737320627574746F6E0C
:101FB00000746F2068656174206E6F7A7A6C6500BA
:101FC00000496E736572742066696C616D656E742C
:101FD00000616E6420707265737320627574746F33
:101FE0006E00746F20636F6E74696E756500576163
:101FF000697420666F720066696C616D656E74202D
:102000006C6F616400005072657373204275747464
:102010006F6E00746F20726573756D6520707269E4
:102020006E7400005761697420666F722070726967
:102030006E7400746F20726573756D652E2E2E00A0
:10204000005761697420666F720066696C616D6526
:102050006E7420707572676500003E2000256C6408
:102060002E25696D00457874727564656420546F1F
:1020700074616C003E20004C6F6E67657374204A7B
:102080006F622054696D65003E20005072696E7465
:102090002054696D6500436F6D706C6574656400F4
:1020A0003A20005072696E7420436F756E74003A66
:1020B00020003132300035004245443A204550433B
:1020C0004F53203130304B0052756E61776179206B
:1020D00057617463683A204F4E004D617820546513
:1020E0006D7000323535004D696E2054656D70009D
:1020F000350045313A204550434F53203130304B65
:10210000005053550047656E657269630050726FE9
:10211000746F636F6C00312E300042617564003261
:10212000353030303000437265616C697479334406
:102130002052414D50530042696C696E65617220B6
:102140004C6576656C696E67004578747275646578
:1021500072730031006D61726C696E66772E6F72FA
:10216000670043522D313020563200323032362D46
:1021700030362D323400322E312E322E38004D6161
:10218000726C696E005072696E746572205374616E
:10219000747300546865726D6973746F7273004272
:1021A0006F61726420496E666F005072696E74656B
:1021B0007220496E666F004D61696E003F0042619A
:1021C000636B0053746F70004368616E67652046EF
:1021D000696C616D656E74004E6F204D6564696158
:1021E000005072696E742066726F6D204D6564696F
:1021F00061004368616E6765204D65646961004DEB
:1022000032310041626F7574205072696E7465726C
:1022100000436F6E66696775726174696F6E005412
:10222000656D7065726174757265004D6F74696F6C
:102230006E00526573756D65205072696E7400434F
:10224000616E63656C204F626A6563740054756EDD
:10225000650053746F70205072696E740050617520
:102260007365205072696E7400496E666F20536307
:102270007265656E00000C0F00FE07022503BB01AE
:102280007FFE08FE08FE05080806000040F0C8882A
:1022900088987810050808060000C0F888888888A3
:1022A00088F80505050600012030F83020050808EB
:1022B0000600002070F820202020E0050909060013
:1022C000FF2070A8A8B888887020070505070001BE
:1022D000D86C366CD80509090600FFF8A8888888EC
:1022E0008888A8F8050A0A0600FE20505050508839
:1022F000A8A8887003030306000340A040FFFFFF67
:10230000FFFFFFFFFFFFFFFFFFFFFFFFFFFFFFFFDD
:10231000FFFFFF0000000605FF010707060200801F
:10232000808080800080030303060105A0A0A00533
:10233000060606000050F85050F85005090906003E
:10234000FF2070A8A07028A87020050707060000CD
:10235000C8C8102040989805070706000040A0A0B4
:1023600040A89068010303060205808080030909E4
:102370000601FF204040808080404020030909067C
:1023800001FF8040402020204040800507070600D4
:102390000020A8702070A820050505060001202057
:1023A000F820200203030601FFC04080050101065A
:1023B0000003F8020202060100C0C005070706007C
:1023C00000081010204040800507070600007088B4
:1023D00098A8C8887003070706010040C040404025
:1023E00040E0050707060000708808102040F80547
:1023F0000707060000F80810300888700507070670
:10240000000010305090F81010050707060000F883
:1024100080F008088870050707060000304080F04B
:10242000888870050707060000F808101020202093
:102430000507070600007088887088887005070700
:102440000600007088887808106002050506010003
:10245000C0C000C0C00206060601FFC0C000C040E8
:102460008003050506010120408040200503030686
:102470000002F800F80305050601018040204080B5
:1024800005070706000070881020200020050707B8
:102490000600007088B8A8B880700507070600001D
:1024A000708888F8888888050707060000F0484883
:1024B000704848F005070706000070888080808813
:1024C00070050707060000F04848484848F005072F
:1024D00007060000F88080F08080F80507070600F6
:1024E00000F88080F0808080050707060000708873
:1024F0008080988870050707060000888888F8881B
:102500008888030707060100E04040404040E0059E
:102510000707060000381010101090600507070626
:1025200000008890A0C0A0908805070706000080E2
:102530008080808080F805070706000088D8A8887A
:102540008888880507070600008888C8A8988888B2
:1025500005070706000070888888888870050707C7
:10256000060000F08888F0808080050707060000DC
:1025700070888888A89068050707060000F088889A
:10258000F0A0908805070706000070888070088812
:1025900070050707060000F82020202020200507EE
:1025A0000706000088888888888870050707060065
:1025B0000088888888505020050707060000888812
:1025C0008888A8A850050707060000888850205072
:1025D00088880507070600008888502020202005ED
:1025E0000707060000F80810204080F803090906D4
:1025F00001FFE080808080808080E0050707060082
:1026000000804040201010080309090601FFE02067
:10261000202020202020E00503030600052050880C
:102620000501010600FEF8030303060105804020B2
:10263000050505060000700878887805070706007C
:10264000008080F0888888F005050506000070800D
:102650008088700507070600000808788888887851
:102660000505050600007088F08070050707060064
:1026700000304840E04040400507070600FE7088F3
:1026800088887808700507070600008080F0888831
:1026900088880307070601004000C0404040E0046E
:1026A00009090601FE100030101010109060050797
:1026B0000706000080808890E090880307070601E5
:1026C00000C04040404040E0050505060000D0A89D
:1026D000A8A8A8050505060000B0C88888880505D3
:1026E0000506000070888888700507070600FEF060
:1026F000888888F080800507070600FE788888882B
:10270000780808050505060000B0C880808005052A
:102710000506000078807008F00507070600002015
:1027200020F82020201805050506000088888898D4
:1027300068050505060000888888502005050506FF
:1027400000008888A8A850050505060000885020CC
:1027500050880507070600FE8888885020408005BD
:102760000505060000F8102040F80309090601FFDE
:102770002040404080404040200109090602FF807F
:1027800080808080808080800309090601FF80406E
:102790004040204040408005030306000248A890C6
:1027A000FF4572723A20454550524F4D20436F729B
:1027B00072757074004572723A20454550524F4D03
:1027C00020435243004572723A20454550524F4DC6
:1027D0002053697A65004572723A20454550524F40
:1027E0004D2056657273696F6E003F0053746172BD
:1027F00074205072696E740043616E63656C0050A2
:1028000072696E740043616E6E6F7420656E7465DC
:1028100072207375626469723A200002202E2E00C5
:102820004D61696E002100486F74656E6420746F9D
:102830006F20636F6C64004261636B0050726F6362
:10284000656564004D6F76652045787472756465C2
:1028500072004F6666004F6E00536F667420456EBF
:102860006473746F7073004D6F74696F6E004469A8
:102870007361626C65205374657070657273004D8E
:102880003834004D34382050726F626520546573BF
:1028900074004732384F0A4D3438205031300042EE
:1028A0006564204C6576656C696E670053746F775C
:1028B000205A2D50726F6265004D343032004465ED
:1028C000706C6F79205A2D50726F6265004D3430F4
:1028D00031004732385A004732385900486F6D6529
:1028E00020400047323858004175746F20486F6DA2
:1028F0006500473238004D61696E00507265686549
:1029000061742024204265640050726568656174BA
:10291000202420456E640054656D70657261747585
:10292000726500436F6F6C646F776E0050726568FC
:1029300065617420240046616E20537065656400F3
:10294000426564004E6F7A7A6C65004D61696E0075
:1029500050726F6265205A204F6666736574004638
:102960006C6F770046616E20537065656400426548
:1029700064004E6F7A7A6C65005370656564004D33
:1029800061696E00486F6D696E67204661696C65AC
:1029900064006F70656E0054524947474552454484
:1029A000003A200066696C616D656E74007A5F7034
:1029B000726F6265007A5F6D696E00795F6D696E36
:1029C00000785F6D696E005265706F7274696E6732
:1029D00020656E6473746F70207374617475730A0C
:1029E0000020746F6F206C6F6E672065787472754D
:1029F00073696F6E2070726576656E7465640A0027
:102A000020636F6C6420657874727573696F6E20D3
:102A100070726576656E7465640A00486F6D652036
:102A200025732046697273740000000000000000E6
:102A300000000000005761726E696E673A20486FAF
:102A40006D696E672042756D702044697669736F99
:102A500072203C20310A0002020400009B43000067
:102A60009B430000C8430000A0400000A0400000BD
:102A700000400000000100000001000080005555EA
:102A800055000000400033333300AAAA2A004992BF
:102A9000240000002000C7711C0099991900D1453D
:102AA0001700555515003BB11300244912001111B0
:102AB0001100000010000F0F0F00E3380E004379E3
:102AC0000D00CCCC0C00C3300C00E8A20B0064213C
:102AD0000B00AAAA0A00703D0A009DD80900427B9B
:102AE000090092240900DCD30800888808001042FD
:102AF000080000000800F0C1070087870700755034
:102B00000700711C07003EEB0600A1BC060069909F
:102B1000060066660600703E06006118060017F49F
:102B2000050074D105005BB00500B290050062722B
:102B300005005555050078390500B81E0500050546
:102B400005004EEC040087D40400A1BD040090A74A
:102B5000040049920400C17D0400EE690400C756D8
:102B60000400444404005C320400082104004110C5
:102B70000400000004003FF00300F8E0030026D248
:102B80000300C3C30300CCB503003AA803000A9BAB
:102B90000300388E0300C08103009F750300D069D5
:102BA0000300505E03001D53030034480300913DB1
:102BB00003003333030016290300381F0300971561
:102BC0000300300C0300030303000BFA020049F179
:102BD0000200BAE802005CE002002DD802002DD00D
:102BE000020059C80200B0C0020031B90200DAB1D7
:102BF0000200AAAA0200A0A30200BC9C0200FA954F
:102C000002005C8F0200DF88020082820200457CA5
:102C100002002776020027700200436A02007C64EB
:102C20000200D05E02003F590200C8530200FFFDBF
:102C3000FCFAF8F6F4F2F0EEECEAE9E7E5E3E1E0BD
:102C4000DEDCDAD9D7D5D4D2D0CFCDCBCAC8C7C570
:102C5000C3C2C0BFBDBCBAB9B7B6B4B3B2B0AFADF2
:102C6000ACAAA9A8A6A5A4A2A1A09E9D9C9A999849
:102C70009795949392908F8E8D8B8A89888786847E
:102C8000838281807F7E7D7B7A7978777675747395
:102C90007271706F6E6D6C6B6A696867666564638C
:102CA0006261605F5E5D5C5B5A5958585756555477
:102CB00053525150504F4E4D4C4B4A4A494847464B
:102CC00046454443424241403F3E3E3D3C3B3B3A09
:102CD00039383837363535343332323130302F2EBB
:102CE0002E2D2C2B2B2A292928272726252524235E
:102CF0002322212120201F1E1E1D1C1C1B1B1A19F4
:102D0000191818171616151514131312121111107D
:102D10000F0F0E0E0D0D0C0C0B0A0A0909080807FF
:102D200007060605050404030302020100005354CC
:102D30004F505045442E20005072696E74657220C9
:102D400073746F707065642064756520746F20659E
:102D500072726F72732E20466978207468652065E0
:102D600072726F7220616E6420757365204D3939FF
:102D70003920746F20726573746172742E20285428
:102D8000656D706572617475726520697320726516
:102D90007365742E205365742069742061667465B0
:102DA000722072657374617274696E67290A0020FB
:102DB0006572726F72202D20726573746172742057
:102DC00077697468204D3939390A00424C546F755F
:102DD00063680021212053544F502063616C6C655F
:102DE000642062656361757365206F662000000072
:102DF0009B4300009B430000C8430000000000000C
:102E000000000000000053657474696E67732053FE
:102E1000746F72656400290A002062797465733BDF
:102E200020637263200053657474696E6773205366
:102E3000746F72656420280048617264636F646512
:102E4000642044656661756C742053657474696EA2
:102E50006773204C6F616465640020286D6D2900E4
:102E6000203B204C6576656C696E67200020204D04
:102E70003432302053004175746F20426564204C19
:102E80006576656C696E670020460020480020204A
:102E90004D3134352053004D6174657269616C2089
:102EA00068656174757020706172616D65746572BA
:102EB0007300203B2053656E736F72200020440026
:102EC00020204D34313220530046696C616D656EAF
:102ED000742072756E6F75742073656E736F7200F7
:102EE000204A002020473239205720490020204D19
:102EF0003134392043203B20556E69747320696E4C
:102F00002043656C736975730A0054656D70657252
:102F1000617475726520556E6974730020204732A4
:102F200031203B004C696E65617220556E69747387
:102F300000454550524F4D206461746173697A6554
:102F4000206572726F722E0A004572723A204545F2
:102F500050524F4D2043524300202863616C6375EB
:102F60006C6174656429210A0020213D20004545DB
:102F700050524F4D20435243206D69736D6174630D
:102F800068202D202873746F7265642920004545E0
:102F900050524F4D20436F72727570740A00205367
:102FA000697A653A2000496E6465783A2000537466
:102FB0006F7265642073657474696E6773207265DF
:102FC0007472696576656400290A00206279746507
:102FD000733B2063726320002073746F72656420FA
:102FE00073657474696E677320726574726965764F
:102FF000656420280000803B4400803B4400007052
:1030000041000096420000A0420000A0420000C81B
:10301000430000C242D0070000D007000064000057
:103020000088130000204D61726C696E3D5638387F
:10303000290A00454550524F4D2076657273696FDD
:103040006E206D69736D6174636820284545505228
:103050004F4D3D0020436F756E7420583A00426515
:1030600064004531004500626564002C207379736B
:1030700074656D2073746F7070656421204865619C
:103080007465725F49443A20004572723A204D419E
:103090005854454D50004D415854454D5020747280
:1030A000696767657265640048656174696E672069
:1030B0004661696C65640048656174696E67206685
:1030C00061696C6564004D353234004D3131322018
:1030D00053687574646F776E004572723A204D497B
:1030E0004E54454D50004D494E54454D502074723C
:1030F0006967676572656400544845524D414C20CC
:1031000052554E4157415900546865726D616C20AB
:1031100052756E6177617900202F002042403A009D
:1031200020403A0020573A0020573A00496E766115
:103130006C69642065787472756465720A007C3C01
:103140003E5E2B3D3F2F5B5D3B2C2A225C004361A2
:103150006E6E6F74206F70656E2073756264697235
:1031600020004D6564696120496E6974204661697B
:103170006C0053442063617264206F6B0A006F70AF
:10318000656E526F6F74206661696C65640A0076C3
:103190006F6C756D652E696E6974206661696C650A
:1031A000640A004E6F20534420636172640A005326
:1031B0004420636172642072656C65617365640AA2
:1031C000000A4D3234004D3233202573002E0A00A0
:1031D0006F70656E206661696C65642C2046696C51
:1031E000653A200046696C652073656C656374659B
:1031F000640A002053697A653A200046696C6520AC
:103200006F70656E65643A2000454E442053554208
:10321000524F5554494E450A002220706F730022C8
:1032200020706172656E743A2200535542524F55B8
:1032300054494E452043414C4C207461726765747B
:103240003A220053756263616C6C204F766572663A
:103250006C6F77004578636565646564206D61789F
:1032600020535542524F5554494E45206465707461
:10327000683A0057726974696E6720746F206669D6
:103280006C653A20005045544700504C410020588E
:103290003A004E6F74205344207072696E74696EE8
:1032A000670A005344207072696E74696E67206209
:1032B0007974652000667265736800646F696E6773
:1032C000002066696C653A20004E6F7720002F6100
:1032D00075746F25632E67008000000000000000F9
:1032E000000000000000000180000000000000005D
:1032F000000000000000000180000000000000004D
:10330000000000000000000180000000000000003C
:10331000000000000000000180000000000000002C
:10332000000000000000000180000000000000001C
:10333000000000000000000180000000000000000C
:1033400000000000000000018000000000000000FC
:1033500000000000000000018000000000000000EC
:1033600000000000000000018000000000000000DC
:1033700000000000000000018000000000000000CC
:1033800000000000000000018000000000000000BC
:1033900000000000000000018000000000000000AC
:1033A000000000000000000180000000000000009C
:1033B000000000000000000180000000000000008C
:1033C000000000000000000180000000000000007C
:1033D000000000000000000180000000000000006C
:1033E000000000000000000180000000000000005C
:1033F000000000000000000180000000000000004C
:10340000000000000000000180000000000000003B
:10341000000000000000000180000000000000002B
:10342000000000000000000180000000000000001B
:10343000000000000000000180000000000000000B
:1034400000000000000000018000000000000000FB
:1034500000000000000000018000000000000000EB
:1034600000000000000000018000000000000000DB
:10347000000000000000000180000001FFFFFFFFCE
:10348000FFFFFFFF8000000180000000000000003F
:103490000000000000000001800000000FC7E000F5
:1034A0000000000000000001800000000842300021
:1034B0001E000210000000018000000000C210C6C3
:1034C000210FC2200000000180000000078210C60A
:1034D000210102C00000000180000000078210AA44
:1034E0002101030000000001800000000C0230AA4E
:1034F000210102C000000001800000000847E072C6
:103500001E00C23000000001800000000FC000005B
:10351000000000000000000180000000000000002A
:10352000000000000000000180000001FFFFFFFF1D
:10353000FFFFFFFF8000000180000000000000008E
:1035400000000000000000018000000000000000FA
:1035500000000000000000018000000000000000EA
:1035600000000000000000018000000000000000DA
:1035700000000000000000018000000000000000CA
:1035800000000000000000018000000000000000BA
:1035900000000000000000018000000000000000AA
:1035A000000000000000000180000000000000009A
:1035B000000000000000000180000000000000008A
:1035C000000000000000000180000000000000007A
:1035D000000000000000000180000000000000006A
:1035E000000000000000000180000000000000005A
:1035F000000000000000000180000000000000004A
:103600000000000000000001800000000000000039
:103610000000000000000001800000000000000029
:103620000000000000000001800000000000000019
:103630000000000000000001800000000000000009
:1036400000000000000000018000000000000000F9
:1036500000000000000000018000000000000000E9
:1036600000000000000000018000000000000000D9
:1036700000000000000000018000000000000000C9
:1036800000000000000000018000000000000000B9
:1036900000000000000000018000000000000000A9
:1036A0000000000000000001800000000000000099
:1036B0000000000000000001800000000000000089
:1036C0000000000000000001800000000000000079
:1036D00000000000000000016D61726C696E667789
:1036E0002E6F726700322E312E322E38001FFFFFF0
:1036F000FFFFFFFF600000000001FF40000000002E
:1037000000FF8000000000007F83CF00000C303FEE
:1037100087FF80000C301F867980000C000F8C30F2
:10372000C7838C30E78C30CFC7CC31F38C30DCECE6
:10373000EC33B98C30D86C6C33198C30D06C0C33C2
:10374000198C30D86C0C33198C30DC6C0E3B198C16
:1037500030CF7C079F198C30C77C038F1940000045
:1037600000000002600000000000061FFFFFFFFFD6
:10377000FFF82001400130013B01400136016001AA
:10378000310170012C0190012701B0012201C0011B
:103790001D01F00118011002130130020E01600238
:1037A000090190020401C002FF000003FA00400377
:1037B000F5008003F000D003EB002004E600700465
:1037C000E100E004DC004005D700C005D20040065F
:1037D000CD00D006C8008007C3003008BE00F00846
:1037E000B900C009B400B00AAF00B00BAA00D00CF9
:1037F000A500000EA000500F9B00C01096005012B4
:10380000910000148C00C0158700B0178200B01919
:103810007D00D01B7800001E730040206E009022B7
:103820006900F024640040275F0090295A00E02BD3
:103830005500102E500020304B0010324600E0336F
:10384000410090353C001037370070383200A03905
:103850002D00B03A2800A03B2300603C1E00103D24
:103860001900903D1400103E0F00703E0A00C03E4B
:103870000500003F0000403FFBFF803FF6FFC03FD8
:10388000F1FF2020506C616E6E6572427566666550
:103890007242797465733A20002046726565204D46
:1038A000656D6F72793A200020436F6D70696C65A9
:1038B000643A204A756E20323820323032360A009F
:1038C000204C61737420557064617465643A2032D1
:1038D0003032362D30362D3234207C2041757468DC
:1038E0006F723A20283344776F726B2C206874749F
:1038F00070733A0A004D61726C696E20322E312E5F
:10390000322E380A0020536F667477617265205238
:10391000657365740A00205761746368646F67207B
:1039200052657365740A002042726F776E206F755E
:10393000742052657365740A002045787465726E50
:10394000616C2052657365740A00506F776572551B
:10395000700A0073746172740A0047323858590053
:103960004D31303031006572726F72207772697438
:10397000696E6720746F2066696C650A00446F6E1B
:103980006520736176696E672066696C652E0A0032
:103990004D323900456E6473746F70730025532087
:1039A00025632025632025632025630020503A00ED
:1039B000656E6473746F7073206869743A200000D8
:1039C000000A0B02090C0D0E080703040100000099
:1039D00000000000000000000000000000000000E7
:1039E00000000000000000000000001211100000A4
:1039F00000000000000000000000000000000000C7
:103A0000000000000024F404D9201BC40C5C0E98B4
:103A100004C4095F0265077101F405F900FB04B3F2
:103A20000048048700C1036900580355000303459B
:103A300000BE023A008402310053022A0029022506
:103A40000004022000E4011C00C8011900AF0117A6
:103A5000009801140084011300710110006101102D
:103A60000051010E0043010D0036010B002B010B2C
:103A70000020010B00150109000C010900030108D9
:103A800000FB000800F3000800EB000700E400065C
:103A900000DE000600D8000600D2000600CC0005BB
:103AA00000C7000500C2000500BD000400B9000405
:103AB00000B5000400B1000400AD000400A900043A
:103AC00000A5000300A20003009F0004009B000368
:103AD000009800030095000200930003009000038B
:103AE000008D0002008B00030088000200860002A7
:103AF0000084000300810002007F0002007D0002BC
:103B0000007B0002007900020077000100760002CD
:103B1000007400020072000100710002006F0002D8
:103B2000006D0001006C0002006A000100690002E3
:103B300000670001006600010065000100640002EA
:103B4000006200010061000100600001005F0002EE
:103B5000005D0001005C0001005B0001005A0001F3
:103B600000590001005800010057000100560001F3
:103B700000550001005400010053000000530001F3
:103B8000005200010051000100500001004F0001EF
:103B9000004E0000004E0001004D0001004C0001ED
:103BA000004B0000004B0001004A000100490001E9
:103BB00000480000004800010047000100460000E6
:103BC00000460001004500000045000100440001DE
:103BD00000430000004300010042000000420001D9
:103BE000004100000041000100400001003F0000D2
:103BF000003F0001003E0000003E0001003D0000CB
:103C0000003D0001003C0000003C0000003C0001C1
:103C1000003B0000003B0001003A0000003A0001B8
:103C200000390000003900010038000000380000B1
:103C300000380001003700000037000100360000A6
:103C4000003600000036000100350000003500009D
:103C50000035000100340000003400000034000191
:103C60000033000000330000003300010032000088
:103C7000003200000032000100310000003100007D
:103C80000031000100300000003000000030000171
:103C9000002F0000002F0000002F0000002F000167
:103CA000002E0000002E0000002E0001002D00005C
:103CB000002D0000002D0000002D0001002C000050
:103CC000002C0000002C0000002C0001002B000044
:103CD000002B0000002B0000002B0001002A000038
:103CE000002A0000002A0000002A0001002900002C
:103CF000002900000029000000290000002900011F
:103D00000028000000280000002800000028000013
:103D10000028000100270000002700000027000005
:103D200000270000002700010026000000260000F8
:103D300000260000002600000026000100250000EB
:103D400000250000002500000025000000250000DF
:103D500000250001002400000024000000240000D1
:103D600000240000002400010023000000230000C4
:103D700000230000002300000023000000230000B7
:103D800000230001002200000022000000220000A9
:103D9000002200000022000000220001002100009B
:103DA000002100000021000000210000002100008F
:103DB0000021000000210001002000000020000080
:103DC0000020000000200000002000000020000073
:103DD0000020000000200001001F0000001F000064
:103DE000001F0000001F0000001F0000001F000057
:103DF000001F0001001E0000001E0000001E000049
:103E0000001E00000024F4D43050C38E20C2A24013
:103E100017828B7011127A910D816CD90AA861E119
:103E200008C7586607615143061E4B5D05C145A78B
:103E3000041A411104093D9803713931034036DBFE
:103E40000265339102D4305402802E1D02632CEEA1
:103E500001752AC501B028A001102781018F2564B2
:103E6000012B244B01E0223401AC211F018D200DD8
:103E700001801FFC00841EED00971DDF00B81CD2DE
:103E800000E61BC600201BBC00641AB200B219A8D1
:103E9000000A19A0006A189900D117910040178BE9
:103EA00000B516840031167E00B31579003A1573FB
:103EB00000C7146F0058146A00EE1366008813637D
:103EC0000025135E00C7125B006C125700151254D8
:103ED00000C111510070114F0021114B00D6104943
:103EE000008D1047004610440002104200C00F40F1
:103EF00000800F3E00420F3C00060F3B00CB0E3807
:103F000000930E37005C0E3500270E3400F30D329F
:103F100000C10D3100900D3000600D2E00320D2DCE
:103F200000050D2C00D90C2B00AE0C2900850C29A6
:103F3000005C0C2700350C27000E0C2600E80B2433
:103F400000C40B2400A00B23007D0B23005A0B217F
:103F500000390B2100180B2000F80A1F00D90A1E97
:103F600000BB0A1E009D0A1D00800A1D00630A1C7A
:103F700000470A1B002C0A1B00110A1A00F7091A35
:103F800000DD091900C4091900AB091900920917CD
:103F9000007B091800630917004C09160036091642
:103FA00000200916000A091500F5081500E008149C
:103FB00000CC081400B8081400A4081400900813DA
:103FC000007D0812006B0813005808120046081202
:103FD0000034081100230811001208110001081113
:103FE00000F0071000E0071000D0071000C0071015
:103FF00000B0070F00A107100091070E0083070F04
:104000000074070F0065070E0057070E0049070EE2
:10401000003B070D002E070E0020070D0013070DB3
:104020000006070D00F9060C00ED060D00E0060C79
:1040300000D4060C00C8060C00BC060C00B0060C30
:1040400000A4060B0099060C008D060B0082060BDF
:104050000077060B006C060B0061060A0057060B82
:10406000004C060A0042060A0038060A002E060A1C
:104070000024060A001A060A001006090007060AAC
:1040800000FD050900F4050900EB050900E205093A
:1040900000D9050900D0050900C7050900BE0509BA
:1040A00000B5050800AD050800A50509009C050838
:1040B00000940508008C050800840508007C0508AC
:1040C00000740508006C050700650508005D05071C
:1040D00000560508004E0507004705070040050883
:1040E0000038050700310507002A050700230507EA
:1040F000001C050600160507000F05070008050649
:104100000002050700FB040600F5040700EE0406A4
:1041100000E8040600E2040700DB040600D50406FC
:1041200000CF040600C9040600C3040600BD04064F
:1041300000B7040600B1040500AC040600A604069E
:1041400000A00405009B04060095040500900406E9
:10415000008A04050085040500800406007A040531
:104160000075040500700405006B04050066040575
:1041700000610405005C04050057040500520405B5
:10418000004D04050048040500430405003E0404F6
:10419000003A04050035040500300404002C040531
:1041A0000027040400230405001E0404001A04046C
:1041B0000016040500110404000D040400090405A0
:1041C000000404040000040400FC030400F80304D9
:1041D00000F4030400F0030400EC030400E803040B
:1041E00000E4030400E0030400DC030400D803043B
:1041F00000D4030400D0030400CC030400C803036C
:1042000000C5030300722900007C200000AD1600E9
:1042100000270E00001208000057040000410200B1
:1042200000260100004D6F766520246D6D00302E54
:10423000303235004D6F766520302E316D6D004D7A
:104240006F766520316D6D004D6F76652031306D74
:104250006D004D6F76652041786973004D6F76650E
:10426000202A004D6F76652040008A3285324368EF
:10427000616E67652046696C616D656E7400556E90
:104280006C6F61642046696C616D656E74004C6F83
:1042900061642046696C616D656E7400507265687A
:1042A00065617420437573746F6D00507265686545
:1042B00061742024004261636B0020005072696EBB
:1042C000742066726F6D204D656469610020002066
:1042D0000020746F6F206C6F6E6720657874727544
:1042E00073696F6E2070726576656E7465640A001E
:1042F00020636F6C6420657874727573696F6E20CB
:1043000070726576656E7465640A0070726F6D70A8
:10431000745F00626567696E0044697361626C6511
:1043200052756E6F75740050757267654D6F72656A
:104330000050617573656400436F6E74696E7565D6
:10434000004C6F61642046696C616D656E74205429
:1043500000496E736572742066696C616D656E7478
:1043600020616E642073656E64204D3130380A0020
:10437000726573756D6564004469736D697373006C
:10438000526573756D696E670050726F62696E6712
:10439000204661696C656400205A3A200020593A31
:1043A000200042656420583A2000FFFFFF8E32BC97
:1043B00044B844B44400002200250028002B002EFD
:1043C000003100340002010000050108010B01006A
:1043D000002100240027002A002D003000330001B6
:1043E000010000040107010A01050505050705088C
:1043F000080808020202020A0A0808040404040168
:104400000101010101010103030303030303030489
:104410000707070C0C0C0C0C0C0C0C020202020619
:10442000060606060606060B0B0B0B0B0B0B0B0109
:1044300002102020080810204010204080020102B5
:10444000010804020101020408102040808040207D
:1044500010080402018004020180402010080402B8
:104460000108040201010204081020408001020436
:104470000810204080204500205A002059002020AC
:104480004D39322058005374657073207065722066
:10449000756E697400220A00556E6B6E6F776E2020
:1044A000636F6D6D616E643A2022002042002050DF
:1044B000006F6B0020453A00205A3A0020593A001C
:1044C000583A006F6B0A00526573656E643A2000BB
:1044D00043522D31302056322052656164792E00CE
:1044E0005072696E74696E672E2E2E005072696E5E
:1044F000742050617573656400000301EB001124A2
:104500001FBECFEFD1E2DEBFCDBF00E00CBF84B74E
:104510008093861714BE0FB6F894A895809160001A
:10452000886180936000109260000FBE13E0A0E0ED
:10453000B2E0E2EAF2ED02E00BBF02C007900D929A
:10454000A03BB107D9F727E1A0EBB3E001C01D9272
:10455000A638B207E1F712E2CEE7D2E200E006C0E9
:1045600021970109802FFE010F94C864CD37D10730
:1045700080E00807A9F70F9490500D9440690C94BF
:10458000000090E080E008952091EA15833021F446
:1045900025FD0CC024FD0CC030E0A90102C05595DA
:1045A00047958A95E2F7CA018170089581E00895E0
:1045B00080E008958091520484FD0BC080915404E2
:1045C00087FD07C090915504937081E019F480E055
:1045D000089581E00895CF92DF92EF92FF92CF93FA
:1045E000DF93EC01CC80DD80EE80FF8027E137EBAC
:1045F00041ED58EBC701B6010F94F86687FD23C063
:1046000023E030E04BE953E4C701B6010F94015EAB
:104610001816CCF0C880D980EA80FB8027E137EB00
:1046200041ED58EBC701B6010F94F86687FD0BC04A
:10463000C1E023E030E04BE953E4C701B6010F9439
:10464000015E18160CF4C0E08C2FDF91CF91FF9023
:10465000EF90DF90CF900895682F70E090E080E0B9
:104660000F94075E20913A0630913B0640913C063C
:1046700050913D060F94665E20912D0630912E06D6
:1046800040912F06509130060D94D164682F70E050
:1046900090E080E00F94075E209136063091370657
:1046A00040913806509139060F94665E2091290694
:1046B00030912A0640912B0650912C060D94D1641E
:1046C000282F80932B02803240F5809165042817B3
:1046D00024F081E0820F8093650481E090E002C0C5
:1046E000880F991F2A95E2F7092E000CAA0BBB0B25
:1046F000409161045091620460916304709164047C
:1047000084239523A623B72321E0892B8A2B8B2B87
:1047100009F420E02093E00808951092E00808953D
:104720001092920E8091560290915702A0915802D9
:10473000B09159028093B3069093B406A093B50646
:10474000B093B60608958F929F92AF92BF92CF9288
:10475000DF92EF92FF92FC01828158E5C52E52E074
:10476000D52EC81AD10887FDD394CC0CDD1CCC0CF7
:10477000DD1C0D2C000CEE08FF08818178E8872EE7
:10478000912C881A910887FD9394880C991C880CA9
:10479000991C092C000CAA08BB0880818F3FD1F11D
:1047A00090E0FC01EE0FFF1FE80FF91FE95DFA4EE4
:1047B0008181928133E0880F991F3A95E1F7B0E04B
:1047C000A0E044E0B595A795979587954A95D1F7D0
:1047D00002969C012F5F3F4F032E000C440B550B9C
:1047E000281939094A095B09A4EBB0E00F94696400
:1047F000A7019601281939094A095B090F944D64EC
:10480000C901FF90EF90DF90CF90BF90AF909F9045
:104810008F90089590E080E0DCCFCF93DF93C0913C
:10482000D714D091D814209729F16091D3147091A6
:10483000D4148091D5149091D6140F9415666E5FA0
:104840007F4F24976C177D07ACF47093CC06609370
:10485000CB060F942643605E70448D4F9F4F60934C
:10486000CD067093CE068093CF069093D006DF914D
:10487000CF9108951092CD061092CE061092CF06D9
:104880001092D006F4CF63E00D943E47CF93DF93B0
:1048900000D01F92CDB7DEB780E090E0A0EAB0E490
:1048A00089839A83AB83BC8361E0CE0101960E9429
:1048B00013FD0F900F900F900F90DF91CF910895FF
:1048C0000F931F93CF93DF9300D01F92CDB7DEB726
:1048D0009C010AEB1EE090E1E6E1FFE0D8010190C7
:1048E0000D929A95E1F7F90120813181428153813E
:1048F000F80160857185828593850F94D164F801F4
:10490000608771878287938780E090E0A0EAB0E4B7
:1049100089839A83AB83BC83CE0101960F94832253
:104920000F900F900F900F90DF91CF911F910F91EB
:1049300008952F923F924F925F926F927F928F9243
:104940009F92AF92BF92CF92DF92EF92FF921F930E
:10495000CF93DF93CDB7DEB72C970FB6F894DEBFB9
:104960000FBECDBF7A011901DC012D913D914D9112
:104970005C912D833E834F835887FB01408051809B
:10498000628073808090160F9090170FA090180F80
:10499000B090190FA50194016D817E818F8198855A
:1049A0000F94015E81110EC011E0A301920160918C
:1049B0001A0F70911B0F80911C0F90911D0F0F9477
:1049C000015E811110E0D1012D913D914D915C91DD
:1049D00029873A874B875C87F701C080D180E280C6
:1049E000F380209102023091030240910402509121
:1049F0000502C701B6010F94015E882309F44EC079
:104A0000C0920202D0920302E0920402F0920502E8
:104A10008091220F9091230FA091240FB091250F28
:104A200040911A0F50911B0F60911C0F70911D0F38
:104A30008092BA0E9092BB0EA092BC0EB092BD0EA8
:104A40004093BE0E5093BF0E6093C00E7093C10E84
:104A5000C092C20ED092C30EE092C40EF092C50E68
:104A60008093C60E9093C70EA093C80EB093C90E44
:104A700020E030E040E05FE36091F60E7091F70EC9
:104A80008091F80E9091F90E0F94665E69837A8397
:104A90008B839C83CE0101960F9483222D813E81CE
:104AA0004F8158852093BA0E3093BB0E4093BC0EB5
:104AB0005093BD0E4092BE0E5092BF0E6092C00E3B
:104AC0007092C10ED1012D913D914D915C916091FB
:104AD000C60E7091C70E8091C80E9091C90E0F94AA
:104AE000D1646093C60E7093C70E8093C80E9093E6
:104AF000C90E11112FC020E030E0A90169857A8527
:104B00008B859C850F94015E811133C060E070E05D
:104B100088EC92E469837A838B839C83CE0101962F
:104B20000F9483222C960FB6F894DEBF0FBECDBF34
:104B3000DF91CF911F91FF90EF90DF90CF90BF90CA
:104B4000AF909F908F907F906F905F904F903F902D
:104B50002F9008952AEF3EE74AE25FE36091FA0E54
:104B60007091FB0E8091FC0E9091FD0E0F94665E8D
:104B7000D1CF60E070E080EA91E4CCCF8091260450
:104B800090912704009731F04AE050E070E060E037
:104B90000D94225C60E070E0CB0108958091A7083D
:104BA00082FF0BC063E684E697E00E94D18E0F94EB
:104BB00032430E94E19281E0089580E0089580915F
:104BC000260490912704009731F04AE050E070E00D
:104BD00060E00D94F55A60E070E0CB010895AF926B
:104BE000BF92CF92DF92EF92FF920F931F93CF93DA
:104BF0005C016B018A018E539C4F7C01DC01CC91DE
:104C0000C7FF3DC0FB0111821082CF5FD701CC935B
:104C1000CC300CF053C08CE08A9DF0018B9DF00DE0
:104C20001124CF018C0F911DC7FD9A9520916F150E
:104C30002817190609F00CF441C0F60120813181D2
:104C4000FC01EE0FFF1FE80FF91FE95DFA4E8181AD
:104C50009281820F931FD80111969C938E9380812D
:104C600087FF3DC061E08F77CF911F910F91FF903B
:104C7000EF90DF90CF90BF90AF900D9467428CE0A3
:104C80008A9DF0018B9DF00D1124CF018C0F911D99
:104C9000C7FD9A9520916F152817190609F00CF495
:104CA000B4CFFC01EE0FFF1FE80FF91FE95DFA4ECC
:104CB000808160E08F770F946742A7CFF6018081F3
:104CC000918104968034FCE99F0710F480E49CE90C
:104CD000D80111969C938E938FEFF7018083CF912B
:104CE0001F910F91FF90EF90DF90CF90BF90AF900A
:104CF000089581E0809306150895FC0165917591F2
:104D000085919491089580911908882319F080E085
:104D10000F944E0280E008959B01AC01485F5F4F05
:104D2000BC016C5F7F4F05CE0F931F93CF93DF9332
:104D300000D000D01F921F92CDB7DEB7FC018B01CF
:104D400083A5811111C081E083A784819581A6810B
:104D5000B781B05889839A83AB83BC83BE016F5FF0
:104D60007F4F8AEB9EE0D8DF1D821E821F8218864D
:104D700020E030E040E05FE360911E0F70911F0F74
:104D80008091200F9091210F0F94D16469837A83D1
:104D90008B839C839E012B5F3F4FAE014F5F5F4F24
:104DA0006AE17FE086E19FE0C4DD1D821E821F82F2
:104DB000188620E030E040E05FE3F801608571850F
:104DC000828593850F94D16469837A838B839C83D6
:104DD000B8016C5F7F4F9E012B5F3F4FAE014F5F6D
:104DE0005F4FC801A6DD28960FB6F894DEBF0FBE50
:104DF000CDBFDF91CF911F910F9108952F923F92D8
:104E00004F925F926F927F928F929F92AF92BF92DA
:104E1000CF92DF92EF92FF920F931F93CF93DF9386
:104E2000CDB7DEB7A2970FB6F894DEBF0FBECDBFE9
:104E30008C011B015E834D834090160F5090170F1D
:104E40006090180F7090190FDB018D919D910D905E
:104E5000BC91A02D8F87988BA98BBA8B9C01AD013B
:104E6000C301B2010F94D0646B017C0180901A0FD2
:104E700090901B0FA0901C0FB0901D0FD1011496A5
:104E80008D919D910D90BC91A02D8B8B9C8BAD8BAA
:104E9000BE8B9C01AD01C501B4010F94D0646F8B32
:104EA000788F898F9A8FAD81BE818D919D910D9064
:104EB000BC91A02D8F839887A987BA879C01AD01EB
:104EC000C301B2010F94D0646B8F7C8F8D8F9E8F46
:104ED000AD81BE8114968D919D910D90BC91A02DB8
:104EE0008B879C87AD87BE879C01AD01C501B4014E
:104EF0000F94D0646F8F78A389A39AA3A70196011A
:104F0000C701B6010F94665E6B017C012F89388D55
:104F1000498D5A8DCA01B9010F94665E9B01AC019F
:104F2000C701B6010F94D1644B015C012F8538890C
:104F300049895A896F81788589859A850F94D064CB
:104F40002B013C012B893C894D895E896B857C85D1
:104F50008D859E850F94D0646B017C01A301920125
:104F6000C301B2010F94665E2B013C01A7019601BB
:104F7000C701B6010F94665E9B01AC01C301B2018B
:104F80000F94D1640F948B676B017C012B8D3C8D4A
:104F90004D8D5E8DCA01B9010F94665E2B013C01F7
:104FA0002F8D38A149A15AA1CA01B9010F94665E9B
:104FB0009B01AC01C301B2010F94D1649B01AC0110
:104FC000C501B4010F94F8661816ACF520E030E086
:104FD000A901C701B6010F94F86687FF29C0C70170
:104FE000B601905820E030E040EA50E40F94F866B3
:104FF00018160CF5A1016D817E81C801FFDEA29615
:105000000FB6F894DEBF0FBECDBFDF91CF911F91D9
:105010000F91FF90EF90DF90CF90BF90AF909F9057
:105020008F907F906F905F904F903F902F9008955A
:10503000C701B601D7CF20E030E040E050E4C50121
:10504000B4010F94F86618161CF4B101C8016CDEA7
:1050500019821A821B821C82BE016F5F7F4FC101C1
:105060005BDE2DEC3CEC4CEC5CE3C701B6010F942D
:10507000665E9B01AC01F801608171818281938140
:105080000F94665E69837A838B839C83C8010F9437
:105090003B39BE016F5F7F4F8D819E813DDEAFCF7B
:1050A0004F925F926F927F928F929F92AF92BF9238
:1050B000CF92DF92EF92FF920F931F93CF93DF93E4
:1050C000CDB7DEB768970FB6F894DEBF0FBECDBF81
:1050D0007C01FB018081C42EC80EF4E0FC1508F4AD
:1050E000A9C0FB01D180022F0D0D053008F0A2C030
:1050F000ED2DF0E0E35EFB4FE081F0E0082E02C012
:10510000F595E7950A94E2F7E0FF94C0E02FF0E010
:10511000E35EFB4FE081F0E00C2C02C0F595E795D3
:105120000A94E2F7E0FF86C0122F742EAFDA4B012B
:105130005C01672D660F770B072E000C880B990B0F
:105140000F94075E2B013C01AC019B01C501B4012A
:105150000F94D1646D877E878F87988B8C2D96DA1C
:10516000A30192010F94D06469837A838B839C831B
:105170008D2D72DA4B015C01612F660F770B072EC4
:10518000000C880B990B0F94075E2B013C01AC01BE
:105190009B01C501B4010F94D164698B7A8B8B8B11
:1051A0009C8B802F59DAA30192010F94D0646D83F8
:1051B0007E838F839887F70180859185A285B3854B
:1051C00089879A87AB87BC878D8B9E8BAF8BB88F77
:1051D00045E351E061E070E0CE0141960E9472EB40
:1051E00045E351E061E070E0CE0105960E9472EB6C
:1051F00045E351E061E070E0CE010D960E9472EB54
:1052000045E351E061E070E0CE0101960E9472EB4F
:10521000CE010D96E0D9882369F0CE010196DBD945
:10522000882341F0AE014F5F5F4FBE01635F7F4F48
:10523000C701E4DD68960FB6F894DEBF0FBECDBFA0
:10524000DF91CF911F910F91FF90EF90DF90CF9062
:10525000BF90AF909F908F907F906F905F904F9096
:105260000895ADDC97FD0AC0AADC6F3F710581058A
:10527000910509F02CF4A3DC862F089580E00895B1
:105280008FEF08958091260490912704892B39F09F
:10529000E8DF91E0811101C090E0892F089591E04D
:1052A000FCCF8DDCCB0108950F931F93CF9380919A
:1052B000260490912704009709F1FC018F01C19108
:1052C0002C2F2F7DA1F0C53431F0C53621F0C83523
:1052D00011F0C83799F7F801108270E060E00F9480
:1052E0009F59F801C083CF911F910F91089570E0ED
:1052F00060E0CF911F910F910D949F5960E070E095
:10530000CB01F1CF2FEB280F2A3108F047C0E22F55
:10531000F0E08091520490915304A0915404B09114
:10532000550404C0B695A795979587952A95D2F709
:1053300080FD02C081700895E85CFB4FE081EE23A0
:1053400041F18091140F9091150FE80FF92FF11D85
:10535000808190ED980F9A3030F08E3251F4818137
:1053600080538A3098F4F0932704E093260481E078
:1053700008958D3211F08B3249F4818190ED980FB0
:105380009A3088F38E3211F48281EACFF0E0E0E0C7
:10539000EACF1092270410922604E9CF80E0089506
:1053A000B1DF882341F081E0209126043091270469
:1053B000232B09F480E00895CF92DF92EF92FF92C1
:1053C0006A017B01EDDF882329F0FF90EF90DF90E9
:1053D000CF906ACFC701B601FF90EF90DF90CF90DA
:1053E00008958F929F92AF92BF92CF92DF92EF92E9
:1053F000FF920F931F93CF93DF938EECC82E82E022
:10540000D82E06E11FE0CAEBDEE0F12CF601819117
:105410006F01C6DF882339F047DF4B015C018091C3
:10542000E008882351F0F80180819181A281B38145
:1054300088839983AA83BB8313C08F2DA5D8882323
:1054400059F0F8012081318142815381C501B401B5
:105450000F94D1644B015C0188829982AA82BB823D
:10546000F3940C5F1F4F2496F3E0FF12CFCF85E437
:1054700097DF882309F475C017DF6B017C0183E097
:1054800083D8882371F02091220F3091230F40910F
:10549000240F5091250FC701B6010F94D1646B0101
:1054A0007C01C092C60ED092C70EE092C80EF09258
:1054B000C90E40E050E0BA0186E47EDF20E030E033
:1054C000A9010F94F86618167CF4EEDE20E030E0B7
:1054D00040E752E40F94AD6560933202709333025B
:1054E00080933402909335028091E10883FD2CC0B3
:1054F0008091E008811128C080910508882321F15E
:105500002091220F3091230F4091240F5091250FAD
:105510006091C60E7091C70E8091C80E9091C90E11
:105520000F94D06420911208309113084091140810
:10553000509115080F94D16460931208709313086A
:105540008093140890931508DF91CF911F910F91CC
:10555000FF90EF90DF90CF90BF90AF909F908F9093
:1055600008958091220F9091230FA091240FB09164
:10557000250F8093C60E9093C70EA093C80EB093CC
:10558000C90E97CFCF93DF93EB010ADF882319F081
:10559000DF91CF9186CECE01DF91CF910895CF9349
:1055A000DF93EB01FDDE882311F009DBEB01CE0177
:1055B000DF91CF910895CF93C62FF2DE882311F0AB
:1055C000CF914FCE8C2FCF910895CF93DF93C82FDB
:1055D000D62FE6DE882319F0DF91CF9153CE8C2FA2
:1055E00091DE811101C08D2FDF91CF910895CF926F
:1055F000DF92EF92FF920F931F93CF9390917702D8
:10560000913009F461C0662351F010921C0410928D
:1056100018041092190410921A0410921B04C82F37
:105620000F942643C0901804D0901904E0901A04F7
:10563000F0901B049B01AC012C193D094E095F0938
:1056400069017A01F7FC40C020911C04C7FD15C018
:105650004C2F0C2E000C550B4C5F5F4FE22F022E8F
:10566000000CFF0B4E175F077CF144EFC42EDD24C6
:10567000D394E12CF12C2C1734F438EEC32E33E004
:10568000D32EE12CF12CC60ED71EE81EF91EC092B7
:105690001804D0921904E0921A04F0921B04022F0D
:1056A000017010E084E2809FB001819F700D701B3B
:1056B000112460597C4F82E390E00F94F122809195
:1056C0001C048F5F80931C04CF911F910F91FF905A
:1056D000EF90DF90CF900895AC0180913604811156
:1056E0000EC090910C0691110BC020910D023091CB
:1056F0000E022150310981E0421753070CF080E07F
:1057000008950F931F9341E050E0082E02C0440F0C
:10571000551F0A94E2F7052E000C660B770B0091DB
:105720006104109162042091630430916404402B61
:10573000512B622B732B409361045093620460934E
:1057400063047093640490912B02891303C081E079
:105750008093E0081F910F910895CF93C82F88235D
:1057600079F020E030E0A9016091360670913706AB
:1057700080913806909139060F94015E8823B9F024
:10578000809135068C1799F00E9425EC86E19FE008
:105790000E94D9EC8091350691E0892780933506E7
:1057A00086E19FE00E9447ECCF910C9416FECF91CA
:1057B000089580E0D2DF10922D0610922E061092EE
:1057C0002F06109230061092290610922A06109287
:1057D0002B0610922C0610923A0610923B0610925D
:1057E0003C0610923D061092360610923706109233
:1057F000380610923906EBE4F6E02FEA36E080E056
:1058000090E0A0ECBFE780839183A283B38384837D
:105810009583A683B78380879187A287B387848780
:105820009587A687B787808B918BA28BB38B749655
:105830002E173F0741F708954F925F926F927F9224
:105840008F929F92AF92BF92CF92DF92EF92FF9290
:105850001F93CF93DF93EC01162F209131063091E7
:1058600032064091330650913406688179818A81ED
:105870009B810F94015E882309F4ACC0B09035067B
:1058800080E06BDFC880D980EA80FB8020E030E0D8
:10589000A901C701B6010F94F86618161CF0C12CB7
:1058A000D12C7601C0923106D0923206E0923306B6
:1058B000F09234062DEB37E346E855EBC701B6010D
:1058C0000F94F86687FD0BC02DEB37E346E855E3F0
:1058D000C701B6010F94015E18160CF077C0A7013E
:1058E000960160E070E080E89FE30F94AD656093FF
:1058F000210670932206809323069093240680EF5E
:105900009FEFA9E7B4EC80931D0690931E06A09329
:105910001F06B0932006BB2009F45CC04090160F10
:105920005090170F6090180F7090190F80901A0FF9
:1059300090901B0FA0901C0FB0901D0FC0901E0FD9
:10594000D0901F0FE090200FF090210F81E005DF35
:10595000112309F43FC02091160F3091170F409189
:10596000180F5091190FC301B2010F94015E8111FC
:105970001CC020911A0F30911B0F40911C0F5091A9
:105980001D0FC501B4010F94015E81110EC020915D
:105990001E0F30911F0F4091200F5091210FC70112
:1059A000B6010F94015E8823A9F0DF91CF911F917A
:1059B000FF90EF90DF90CF90BF90AF909F908F902F
:1059C0007F906F905F904F900C947AFF60E070E052
:1059D000CB018DCFDF91CF911F91FF90EF90DF90A2
:1059E000CF90BF90AF909F908F907F906F905F907F
:1059F0004F9008954F925F926F927F928F929F92F5
:105A0000AF92BF92CF92DF92EF92FF920F931F93CC
:105A1000CF93DF93EC012091290630912A06409123
:105A20002B0650912C06688179818A819B810F9485
:105A3000D0646B017C0120912D0630912E0640919F
:105A40002F06509130066C817D818E819F810F944D
:105A5000D0644B015C01A701960160911004709124
:105A6000110480911204909113040F94015E882315
:105A700009F45AC0C0921004D0921104E0921204AA
:105A8000F0921304209108043091090440910A0413
:105A900050910B04C701B6010F94665E2B013C01C7
:105AA0000F9446666B017C0120E030E0A9010F9461
:105AB000015E87FD7AC020E030E040E850E4C70195
:105AC000B6010F94F866181634F4C12CD12CC0E836
:105AD000EC2EC0E4FC2EA7019601C301B2010F9485
