:100000000C94C1160C9401170C9401170C94011751
:100010000C9401170C9401170C9401170C94011700
:100020000C9401170C9401170C9401170C940117F0
:100030000C9401170C9466D70C9401170C940117BB
:100040000C9401170C944D250C9401170C94011776
:100050000C9401170C9408240C9401170C941CD7D1
:100060000C9401170C94F78B0C94ED8B0C940117E6
:100070000C9401170C9401170C9401170C940117A0
:100080000C9401170C9401170C9401170C94011790
:100090000C9401170C9401170C9401170C94011780
:1000A0000C9401170C9401170C9401170C94011770
:1000B0000C9401170C9401170C9401170C94011760
:1000C0000C9401170C9401170C9401170C94011750
:1000D0000C9401170C9401170C94AE720C94787266
:1000E0000C940117084AD73B3BCE016E84BCBFFD80
:1000F000C12F3D6C74319ABD56833DDA3D00C77FF8
:1001000011BED9E4BB4C3E916BAAAABE0000008090
:100110003F05A84CCDB2D44EB93836A9020C50B91F
:10012000918688083CA6AAAA2ABE000000803F004B
:100130004E414E494E495459494E46CDCCCC3D0ACC
:10014000D7233C17B7D13877CC2B329595E6241FAF
:10015000B14F0A000020410000C84200401C462068
:10016000BCBE4CCA1B0E5AAEC59D7400407A10F33B
:100170005A00A0724E18090010A5D4E80000E876D5
:1001800048170000E40B54020000CA9A3B0000002C
:10019000E1F505000080969800000040420F000045
:1001A00000A08601000000102700000000E8030006
:1001B0000000006400000000000A000000000001D0
:1001C00000000000002C76D888DC674F0823DFC1D0
:1001D000DFAE59E1B1B796E5E3E453C63AE651998B
:1001E0007696E8E6C28426EB898C9B62ED407C6FB4
:1001F000FCEFBC9C9F40F2BAA56FA5F490055A2A6B
:10020000F75C936B6CF9676DC11BFCE0E40D47FE76
:10021000F520E6B500D0ED902E030094357705006B
:1002200080841E080000204E0A000000C80C3333F2
:1002300033330F986E12831141EF8D2114893BE601
:100240005516CFFEE6DB18D1844B381BF77C1D908A
:100250001DA4BBE424203284725E228100C9F124F3
:10026000ECA1E53D27203B0020204D3835312058BA
:10027000005A2D50726F6265204F66667365740078
:100280002569730025696D2025697300256968203B
:1002900025696D202569730025696420256968201A
:1002A00025696D20256973002569792025696420F9
:1002B0002569682025696D20256973000A537461DA
:1002C00074733A2046696C616D656E742075736550
:1002D000643A20002C204C6F6E67657374206A6F3F
:1002E000623A2000546F74616C2074696D653A2025
:1002F0000053746174733A20002C204661696C6568
:10030000643A20002C2046696E69736865643A205F
:10031000005072696E74733A200053746174733ABA
:100320002000436F6F6C696E672E2E2E00453120C2
:1003300025530020573A0042656420436F6F6C6973
:100340006E672E2E2E004265642048656174696ECA
:10035000672E2E2E0023646566696E65204445462F
:1003600041554C545F00004245445F004B4420001F
:100370004B4920004B5020005049442074756E6951
:100380006E6720646F6E65002066696E69736865CC
:1003900064212050757420746865206C617374202A
:1003A0004B702C204B6920616E64204B6420636F7E
:1003B0006E7374616E74732066726F6D2062656C0B
:1003C0006F7720696E746F20436F6E666967757210
:1003D0006174696F6E2E680A00504944204175743B
:1003E0006F74756E6500206661696C6564212074A8
:1003F000696D656F75740A00504944204175746FCA
:1004000074756E65004175746F74756E65206661F4
:10041000696C6564212054696D656F75742E0020C8
:100420006661696C6564212054656D7065726174E4
:1004300075726520746F6F20686967680A0050499B
:1004400044204175746F74756E65005049442043B3
:1004500079636C65730025532025692F2569002079
:100460004B643A2000204B693A2000204B703A2020
:100470000020436C617373696320504944200A0073
:10048000204E6F206F76657273686F6F740A00205C
:1004900054753A2000204B753A2000206D61783A5F
:1004A0002000206D696E3A200020643A200020620E
:1004B0006961733A200048656174696E672E2E2E5B
:1004C000002073746172740A0050494420417574AD
:1004D0006F74756E65004175746F74756E65206616
:1004E00061696C6564212054656D70657261747515
:1004F000726520746F6F20686967682E00206661DE
:10050000696C6564212054656D70657261747572E3
:100510006520746F6F20686967680A00504944203D
:100520004175746F74756E6500504944204175744F
:100530006F74756E65003F28432979636C6573207D
:100540006E6F7420706C61757369626C6520283EF3
:100550003D33292E0A00206661696C6564212042C2
:100560006164206865617465722069640A0050499D
:1005700044204175746F74756E650046696C616DD9
:10058000656E745F72756E6F757400454550524F9D
:100590004D5F7665725F77726F6E6700506F77653B
:1005A000725F6661696C7572650053445F63617266
:1005B000645F6572726F720041626E6F726D616C22
:1005C0005F686F74656E645F74656D700041626E24
:1005D0006F726D616C5F6265645F74656D7000322F
:1005E0002E312E322E38004A333320004A3032006A
:1005F000204D00204820004137562000413656202B
:100600002D2D2D004136562000205A3A2000205929
:100610003A200041355620583A20004134562000F7
:1006200041335620004132562000413156200041CE
:10063000305620004D323520500A4D32340052657C
:1006400073756D650055492050617573650072655D
:1006500073756D65004D32340063616E63656C00C7
:100660005072696E742041626F72746564005549FE
:100670002041626F727465640043616E6E6F742016
:10068000656E746572207375626469723A20004AFF
:100690003231004A3231004A3230004A31320047AA
:1006A00039310A473025730A473930004732385A02
:1006B000004732385900473238580041323056200E
:1006C000004A3132004D31303030004A3034004D74
:1006D000313030302043004A3136004D3130303037
:1006E0002043004A3136004A3035004A3236004D48
:1006F0003530310A4D3432302053310041333156D8
:1007000020004133315620004133315620004D65E1
:100710007368206368616E676573207361766564D2
:100720002E004D353030004D657368206368616E72
:10073000676573206162616E646F6E65642C207002
:10074000726576696F7573206D6573682072657365
:10075000746F7265642E004D3530310A4D3432307D
:10076000205331004A3236004732380A47323900C6
:100770004A3236004A323400473238004132395664
:1007800020004E6577205446542070616E656C20C1
:10079000646574656374656421005374616E64619B
:1007A0007264205446542070616E656C20646574D8
:1007B000656374656421004A3039004A303700426D
:1007C00065642074656D702061626E6F726D616C1E
:1007D00021203A20004A31300045787472756465F2
:1007E000722074656D702061626E6F726D616C2134
:1007F000203A20004A3130004A31380046696C61A5
:100800006D656E742050757267696E672E2E2E00AE
:100810004A3138005265686561742066696E697393
:100820006865642E004A313800486561746572203D
:1008300054696D656F7574004A3138004E6F7A7A6D
:100840006C65205061726B6564005072696E742033
:10085000506175736564002E2E20202020202020FA
:1008600020202020202020202020202E67636F645D
:100870006500454E4400464E20004A313400486F22
:100880006D696E67204661696C6564006F70656EA6
:1008900000545249474745524544003A2000666992
:1008A0006C616D656E74007A5F70726F6265007A5C
:1008B000325F6D696E007A5F6D696E00795F6D6998
:1008C0006E00785F6D696E005265706F7274696E4C
:1008D0006720656E6473746F7020737461747573D0
:1008E0000A0020746F6F206C6F6E672065787472D9
:1008F0007573696F6E2070726576656E7465640AD3
:100900000020636F6C6420657874727573696F6E14
:100910002070726576656E7465640A00000020C1FF
:1009200000000000000000005761726E696E673AB7
:1009300020486F6D696E672042756D70204469763E
:1009400069736F72203C20310A000202040000D259
:10095000430000CD430080E3430000A0400000A01E
:1009600040000000404A3138004A3034000000CDD9
:10097000430000CD430080E343000020C10000009D
:10098000000000000053657474696E67732053742F
:100990006F72656400290A002062797465733B20D8
:1009A000637263200053657474696E6773205374B7
:1009B0006F726564202800454550524F4D20496EA6
:1009C000697469616C697A65640A0048617264637C
:1009D0006F6465642044656661756C74205365744A
:1009E00074696E6773204C6F616465640020286DC4
:1009F0006D2900203B204C6576656C696E67200090
:100A000020204D3432302053004175746F204265F0
:100A100064204C6576656C696E670020204D393026
:100A200030204B004C696E65617220416476616EC6
:100A3000636500203B2053656E736F722000204475
:100A40000020204D34313220530046696C616D65C1
:100A50006E742072756E6F75742073656E736F722D
:100A600000204A002020473239205720490020200A
:100A70004D3134392043203B20556E697473206911
:100A80006E2043656C736975730A0054656D7065FB
:100A900072617475726520556E6974730020204709
:100AA0003231203B004C696E65617220556E69746D
:100AB0007300454550524F4D206461746173697AEB
:100AC00065206572726F722E0A004572723A204577
:100AD0004550524F4D2043524300202863616C63C0
:100AE000756C6174656429210A0020213D20004550
:100AF0004550524F4D20435243206D69736D6174D0
:100B00006368202D202873746F7265642920004566
:100B10004550524F4D20436F72727570740A002019
:100B200053697A653A2000496E6465783A2000532B
:100B3000746F7265642073657474696E6773207274
:100B4000657472696576656400290A0020627974AB
:100B500065733B2063726320002073746F72656459
:100B60002073657474696E67732072657472696549
:100B700076656420280000004843000048430000D8
:100B8000C8410000C8410000A0420000C842000067
:100B9000C8430080CA435E0100005E0100003200CD
:100BA000000010270000204D61726C696E3D5638C0
:100BB00038290A00454550524F4D207665727369B9
:100BC0006F6E206D69736D617463682028454550B0
:100BD000524F4D3D0024F404D9201BC40C5C0E98E8
:100BE00004C4095F0265077101F405F900FB04B351
:100BF0000048048700C103690058035500030345FA
:100C000000BE023A008402310053022A0029022564
:100C10000004022000E4011C00C8011900AF011704
:100C2000009801140084011300710110006101108B
:100C30000051010E0043010D0036010B002B010B8A
:100C40000020010B00150109000C01090003010837
:100C500000FB000800F3000800EB000700E40006BA
:100C600000DE000600D8000600D2000600CC000519
:100C700000C7000500C2000500BD000400B9000463
:100C800000B5000400B1000400AD000400A9000498
:100C900000A5000300A20003009F0004009B0003C6
:100CA00000980003009500020093000300900003E9
:100CB000008D0002008B0003008800020086000205
:100CC0000084000300810002007F0002007D00021A
:100CD000007B00020079000200770001007600022C
:100CE000007400020072000100710002006F000237
:100CF000006D0001006C0002006A00010069000242
:100D00000067000100660001006500010064000248
:100D1000006200010061000100600001005F00024C
:100D2000005D0001005C0001005B0001005A000151
:100D30000059000100580001005700010056000151
:100D40000055000100540001005300000053000151
:100D5000005200010051000100500001004F00014D
:100D6000004E0000004E0001004D0001004C00014B
:100D7000004B0000004B0001004A00010049000147
:100D80000048000000480001004700010046000044
:100D9000004600010045000000450001004400013C
:100DA0000043000000430001004200000042000137
:100DB000004100000041000100400001003F000030
:100DC000003F0001003E0000003E0001003D000029
:100DD000003D0001003C0000003C0000003C000120
:100DE000003B0000003B0001003A0000003A000117
:100DF0000039000000390001003800000038000010
:100E00000038000100370000003700010036000004
:100E100000360000003600010035000000350000FB
:100E200000350001003400000034000000340001EF
:100E300000330000003300000033000100320000E6
:100E400000320000003200010031000000310000DB
:100E500000310001003000000030000000300001CF
:100E6000002F0000002F0000002F0000002F0001C5
:100E7000002E0000002E0000002E0001002D0000BA
:100E8000002D0000002D0000002D0001002C0000AE
:100E9000002C0000002C0000002C0001002B0000A2
:100EA000002B0000002B0000002B0001002A000096
:100EB000002A0000002A0000002A0001002900008A
:100EC000002900000029000000290000002900017D
:100ED0000028000000280000002800000028000072
:100EE0000028000100270000002700000027000064
:100EF0000027000000270001002600000026000057
:100F00000026000000260000002600010025000049
:100F1000002500000025000000250000002500003D
:100F2000002500010024000000240000002400002F
:100F30000024000000240001002300000023000022
:100F40000023000000230000002300000023000015
:100F50000023000100220000002200000022000007
:100F600000220000002200000022000100210000F9
:100F700000210000002100000021000000210000ED
:100F800000210000002100010020000000200000DE
:100F900000200000002000000020000000200000D1
:100FA0000020000000200001001F0000001F0000C2
:100FB000001F0000001F0000001F0000001F0000B5
:100FC000001F0001001E0000001E0000001E0000A7
:100FD000001E00000024F4D43050C38E20C2A24072
:100FE00017828B7011127A910D816CD90AA861E178
:100FF00008C7586607615143061E4B5D05C145A7EA
:10100000041A411104093D9803713931034036DB5C
:101010000265339102D4305402802E1D02632CEEFF
:1010200001752AC501B028A001102781018F256410
:10103000012B244B01E0223401AC211F018D200D36
:1010400001801FFC00841EED00971DDF00B81CD23C
:1010500000E61BC600201BBC00641AB200B219A82F
:10106000000A19A0006A189900D117910040178B47
:1010700000B516840031167E00B31579003A157359
:1010800000C7146F0058146A00EE136600881363DB
:101090000025135E00C7125B006C12570015125436
:1010A00000C111510070114F0021114B00D61049A1
:1010B000008D1047004610440002104200C00F404F
:1010C00000800F3E00420F3C00060F3B00CB0E3865
:1010D00000930E37005C0E3500270E3400F30D32FE
:1010E00000C10D3100900D3000600D2E00320D2D2D
:1010F00000050D2C00D90C2B00AE0C2900850C2905
:10110000005C0C2700350C27000E0C2600E80B2491
:1011100000C40B2400A00B23007D0B23005A0B21DD
:1011200000390B2100180B2000F80A1F00D90A1EF5
:1011300000BB0A1E009D0A1D00800A1D00630A1CD8
:1011400000470A1B002C0A1B00110A1A00F7091A93
:1011500000DD091900C4091900AB0919009209172B
:10116000007B091800630917004C091600360916A0
:1011700000200916000A091500F5081500E00814FA
:1011800000CC081400B8081400A408140090081338
:10119000007D0812006B0813005808120046081260
:1011A0000034081100230811001208110001081171
:1011B00000F0071000E0071000D0071000C0071073
:1011C00000B0070F00A107100091070E0083070F62
:1011D0000074070F0065070E0057070E0049070E41
:1011E000003B070D002E070E0020070D0013070D12
:1011F0000006070D00F9060C00ED060D00E0060CD8
:1012000000D4060C00C8060C00BC060C00B0060C8E
:1012100000A4060B0099060C008D060B0082060B3D
:101220000077060B006C060B0061060A0057060BE0
:10123000004C060A0042060A0038060A002E060A7A
:101240000024060A001A060A001006090007060A0A
:1012500000FD050900F4050900EB050900E2050998
:1012600000D9050900D0050900C7050900BE050918
:1012700000B5050800AD050800A50509009C050896
:1012800000940508008C050800840508007C05080A
:1012900000740508006C050700650508005D05077A
:1012A00000560508004E05070047050700400508E1
:1012B0000038050700310507002A05070023050748
:1012C000001C050600160507000F050700080506A7
:1012D0000002050700FB040600F5040700EE040603
:1012E00000E8040600E2040700DB040600D504065B
:1012F00000CF040600C9040600C3040600BD0406AE
:1013000000B7040600B1040500AC040600A60406FC
:1013100000A00405009B0406009504050090040647
:10132000008A04050085040500800406007A04058F
:101330000075040500700405006B040500660405D3
:1013400000610405005C0405005704050052040513
:10135000004D04050048040500430405003E040454
:10136000003A04050035040500300404002C04058F
:101370000027040400230405001E0404001A0404CA
:101380000016040500110404000D040400090405FE
:10139000000404040000040400FC030400F8030437
:1013A00000F4030400F0030400EC030400E8030469
:1013B00000E4030400E0030400DC030400D8030499
:1013C00000D4030400D0030400CC030400C80303CA
:1013D00000C503030020436F756E7420583A000067
:1013E000426564004531004500626564002C20734D
:1013F000797374656D2073746F7070656421204813
:1014000065617465725F49443A20004572723A2002
:101410004D415854454D50004D415854454D502074
:101420007472696767657265640048656174696EA6
:1014300067204661696C65640048656174696E6720
:10144000206661696C6564004D353234004D313180
:10145000322053687574646F776E0020014001304C
:10146000013B01400136016001310170012C019006
:10147000012701B0012201C0011D01F00118011076
:1014800002130130020E016002090190020401C042
:1014900002FF000003FA004003F5008003F000D0D3
:1014A00003EB002004E6007004E100E004DC0040EF
:1014B00005D700C005D2004006CD00D006C8008088
:1014C00007C3003008BE00F008B900C009B400B07E
:1014D0000AAF00B00BAA00D00CA500000EA000506F
:1014E0000F9B00C01096005012910000148C00C099
:1014F000158700B0178200B0197D00D01B7800005E
:101500001E730040206E0090226900F024640040A9
:10151000275F0090295A00E02B5500102E50002024
:10152000304B0010324600E033410090353C001053
:1015300037370070383200A0392D00B03A2800A0AB
:101540003B2300603C1E00103D1900903D1400102C
:101550003E0F00703E0A00C03E0500003F00004004
:101560003FFBFF803FF6FFC03FF1FF4572723A201C
:101570004D494E54454D50004D494E54454D502017
:1015800074726967676572656400202F00204240AD
:101590003A0020403A0020573A007C3C3E5E2B3D0A
:1015A0003F2F5B5D3B2C2A225C00434F4D4D554E37
:1015B00049434154494F4E0044525952554E0045FB
:1015C00052524F525300494E464F004543484F0038
:1015D0004572726F722077726974696E6720746FDA
:1015E00020454550524F4D210A0053544F5050450D
:1015F000442E20005072696E7465722073746F708F
:101600007065642064756520746F206572726F72F6
:10161000732E2046697820746865206572726F7237
:1016200020616E6420757365204D39393920746FDF
:1016300020726573746172742E202854656D706514
:101640007261747572652069732072657365742E9A
:101650002053657420697420616674657220726518
:101660007374617274696E67290A004E6F20436853
:1016700065636B73756D2077697468206C696E653E
:10168000206E756D6265722C204C617374204C69FC
:101690006E653A20004E6F20436865636B73756D0D
:1016A0002077697468206C696E65206E756D62655F
:1016B000722C204C617374204C696E653A20006373
:1016C0006865636B73756D206D69736D61746368B4
:1016D0002C204C617374204C696E653A20004C6973
:1016E0006E65204E756D626572206973206E6F7431
:1016F000204C617374204C696E65204E756D626577
:10170000722B312C204C617374204C696E653A2029
:10171000004D3131300053657269616C2073746122
:10172000747573206D69736D617463680A00534446
:101730002072656164206572726F720A00746F6F47
:10174000206D75636820696E6163746976652074C5
:10175000696D65202D2063757272656E7420636FEC
:101760006D6D616E643A20002121204B494C4C2064
:101770006361757365642062792000486F74656EDB
:10178000642049646C652054696D656F7574004808
:101790006F74656E642049646C652054696D656F73
:1017A00075740A00627573793A20706175736564A7
:1017B00020666F7220696E7075740A0062757379A5
:1017C0003A2070617573656420666F722075736569
:1017D000720A00627573793A2070726F6365737371
:1017E000696E670A004A3032004A3031004A3030B0
:1017F000004D313030305300506F776572204F7597
:1018000074616765004A3233004A31350070617592
:101810007365004D363030002066696C616D656E11
:10182000745F72756E6F7574200066696C616D65AA
:101830006E745F72756E6F757420540046696C61CA
:101840006D656E7452756E6F75742054004A313137
:1018500000706F7765726F6666005072696E7465AE
:10186000722068616C7465642E206B696C6C282929
:101870002063616C6C6564210A006563686F3A00DF
:101880004572726F723A0042696C696E65617220CE
:101890004C6576656C696E6720477269643A0A0028
:1018A0002F2F616374696F6E3A006E6F7469666999
:1018B000636174696F6E2000626567696E00656EB2
:1018C000640073686F7700627574746F6E00486FA0
:1018D00074656E6420746F6F20636F6C640A0053CC
:1018E000656E64204D31303820746F2072657375D9
:1018F0006D650A00496E736572742066696C616D6E
:10190000656E7420616E642073656E64204D3130A5
:10191000380A0052656865617420446F6E65005234
:101920006568656174696E672E2E2E005265686564
:101930006174004865617465722054696D656F75E6
:10194000740053656E64204D31303820746F206808
:10195000656174206E6F7A7A6C650A004E6F7A7AD0
:101960006C65205061726B656400706175736564AD
:1019700000486561642063616E6E6F74206265204B
:101980007061726B656400506175736500426564D7
:10199000204C6576656C696E6720004661696C65F0
:1019A0006420746F20656E61626C652042656420FE
:1019B0004C6576656C696E670A00496E76616C6984
:1019C00064206D6573682E0A004732372F6E2047FA
:1019D000312059302046353030300050726F626906
:1019E0006E6720506F696E740025532025692F257E
:1019F00069002E0A002F0050726F62696E67206DB9
:101A000065736820706F696E7420002028445259F5
:101A100052554E2900473239204175746F20426576
:101A200064204C6576656C696E67003F20284C2CFD
:101A3000522C462C4229206F7574206F6620626FED
:101A4000756E64732E0A003F2856296572626F73A3
:101A500065206C6576656C20696D706C6175736965
:101A6000626C652028302D34292E0A0042616420E2
:101A70005A2076616C75650A004E6F2062696C6948
:101A80006E65617220677269640A004163637572F2
:101A90006163792044656372656173696E672100D3
:101AA00044656372656173696E6720416363757233
:101AB0006163792044657465637465642E0A004728
:101AC00032385A0041636375726163793A200020AD
:101AD0006F66200044696420004733342061626FE0
:101AE000727465642E0A00416363757261637920C4
:101AF0004163686965766564005461726765742046
:101B00006163637572616379206163686965766595
:101B1000642E0A00313A323D2573000A5A322D5A9A
:101B2000313D0050726F62696E67204661696C6575
:101B3000640050726F62696E67206661696C6564EB
:101B40000A0047333420497465726174696F6E3AD4
:101B5000202569000A47333420497465726174692D
:101B60006F6E3A20003F2841296D706C6966696389
:101B70006174696F6E206F7574206F6620626F7577
:101B80006E64732028302E352D322E30292E0A0017
:101B90003F285429617267657420616363757261BF
:101BA0006379206F7574206F6620626F756E647341
:101BB0002028302E30312D312E30292E0A003F289A
:101BC00049297465726174696F6E206F7574206F36
:101BD0006620626F756E64732028312D3330292E94
:101BE0000A0020204D3432322053005A20417574AF
:101BF0006F2D416C69676E0020204D3636360045EA
:101C00006E6473746F702061646A7573746D656E51
:101C1000740020440020204D323030205300202812
:101C200044697361626C6564293A0046696C616D50
:101C3000656E742073657474696E67730020204D3F
:101C40003230312058004D617820416363656C6506
:101C5000726174696F6E2028756E6974732F7332A8
:101C6000290020204D3230332058004D6178206605
:101C700065656472617465732028756E6974732F6D
:101C800073290020520020204D3230342050004172
:101C90006363656C65726174696F6E2028756E6927
:101CA00074732F7332292028503C7072696E742D22
:101CB000616363656C3E20523C726574726163744B
:101CC0002D616363656C3E20543C74726176656C73
:101CD0002D616363656C3E2900204A00205400207A
:101CE000530020204D323035204200416476616E31
:101CF0006365642028423C6D696E5F7365676D653E
:101D00006E745F74696D655F75733E20533C6D69D9
:101D10006E5F66656564726174653E20543C6D69F2
:101D20006E5F74726176656C5F666565647261741E
:101D3000653E204A3C6A756E635F6465763E2900A5
:101D400020440020490020204D33303120500048ED
:101D50006F74656E6420504944002044002049009F
:101D600020204D33303420500042656420504944D7
:101D700000203B0020550020204D363033204C0001
:101D800046696C616D656E74206C6F61642F756E51
:101D90006C6F6164004D323453256C6454256C645F
:101DA000004739322E3945257300473146256400F6
:101DB00047315A257346363030004731582573591C
:101DC00025734633303030004731463330303045AC
:101DD0002564004D313036502569532569004D3159
:101DE0003039532569004D32303044257300473176
:101DF0005A257346363030004D3432305325635AFD
:101E000025730047315825735925734631303030DA
:101E10000A473238485A004732385230585900473A
:101E2000315A257346363030004739322E39453025
:101E3000004D313039532569004D31393053256912
:101E4000004D343230533000526573756D696E67E2
:101E50002066726F6D20706F776572206F75746188
:101E60006765212073656C656374207468652073F1
:101E7000616D652053442066696C65207468656EE9
:101E800020707265737320726573756D6500203BF9
:101E9000200020204D343133205300506F7765727D
:101EA0002D6C6F7373207265636F76657279003B7A
:101EB000200020496E76616C6964206578747275C3
:101EC0006465722000536C6565702E2E2E004732BB
:101ED000384C30005A2050726F6265205061737424
:101EE0002042656400205A3A200020593A200042DE
:101EF000656420583A20004D65736820706F696EE4
:101F000074206F7574206F662072616E67650A00B9
:101F100070726F6D70745F00626567696E004D303E
:101F20002053746F70004D312053746F7000436CF8
:101F300069636B20746F20526573756D652E2E2E4C
:101F4000004E6F204D6F76652E00456E64206669E9
:101F50006C65206C6973740A00426567696E20665F
:101F6000696C65206C6973740A004E6F206D65643E
:101F700069610A00526573756D696E67205344008C
:101F8000286E6F2066696C65290043757272656EF4
:101F9000742066696C653A20004E6F7420534420AB
:101FA0007072696E74696E670A00534420707269BA
:101FB0006E74696E67206279746520005072696E74
:101FC000742074696D653A20006F6B006F6666005F
:101FD000CB15C615BF15B815AA1544454255473A45
:101FE000004D313133205300416E7963756269636E
:101FF00020436869726F6E204F46462E00434F4E55
:102000004649475F4558504F5254004D4541545042
:1020100041434B00434F4F4C45525F54454D504553
:10202000524154555245004348414D4245525F5438
:10203000454D504552415455524500424142595335
:1020400054455050494E470041524353004D4F5460
:10205000494F4E5F4D4F44455300544845524D4102
:102060004C5F50524F54454354494F4E00455854CD
:10207000454E4445445F4D323000435553544F4D17
:102080005F4649524D574152455F55504C4F414470
:10209000004C464E5F5752495445004C4F4E475FE7
:1020A00046494C454E414D45004155544F524550CF
:1020B0004F52545F53445F5354415455530053445B
:1020C0005F575249544500524550454154004D55C3
:1020D0004C54495F564F4C554D4500534443415273
:1020E000440050524F4D50545F535550504F52542E
:1020F00000484F53545F414354494F4E5F434F4D47
:102100004D414E445300454D455247454E43595F5E
:1021100050415253455200434153455F4C49474853
:10212000545F4252494748544E45535300544F4719
:10213000474C455F4C494748545300534F4654570A
:102140004152455F504F574552004255494C445FFC
:1021500050455243454E54004C4556454C494E4718
:102160005F44415441005A5F50524F42450052551E
:102170004E4F5554004155544F4C4556454C005018
:1021800052494E545F4A4F420050524F47524553B6
:1021900053004155544F5245504F52545F54454D92
:1021A00050004155544F5245504F52545F504F5379
:1021B00000564F4C554D45545249430045455052E9
:1021C0004F4D0042494E4152595F46494C455F547C
:1021D00052414E534645520053455249414C5F5877
:1021E0004F4E5F584F4646004649524D5741524563
:1021F0005F4E414D453A4D61726C696E20322E3111
:102200002E322E3820284A756E2032382032303255
:10221000362030383A34383A34342920534F555226
:1022200043455F434F44455F55524C3A6769746874
:1022300075622E636F6D2F4D61726C696E466972A7
:102240006D776172652F4D61726C696E2050524FCF
:10225000544F434F4C5F56455253494F4E3A312EDF
:1022600030204D414348494E455F545950453A410D
:102270006E79637562696320436869726F6E204589
:10228000585452554445525F434F554E543A3120AD
:10229000555549443A63656465326132662D34317F
:1022A00061322D343734382D396231322D63353572
:1022B000633632663336376666002F2F003F4A207A
:1022C0006F7574206F662072616E67652028302EEE
:1022D000303120746F20302E33290A00205800201E
:1022E000204D61783A2000200020204D696E3A2070
:1022F00000203B200020204D323131205300536F0D
:10230000667420656E6473746F707300250A0046EE
:10231000523A0020466C6F773A200064697300657A
:102320006E0043290A0061626C656420286D696E45
:102330002074656D702000436F6C64206578747242
:10234000756465732061726520004F4646004F4EEC
:1023500000203B20486F73742068616E646C696E66
:102360006720006D6D00203B2044697374616E63CB
:1023700065200046696C616D656E742072756E6FC4
:10238000757420004D34323120696E636F7272654E
:10239000637420706172616D65746572207573611C
:1023A00067650A004D65736820706F696E74206FF1
:1023B0007574206F662072616E67650A004545502E
:1023C000524F4D204F4B0A00290A0020746F200005
:1023D0003F5A206F7574206F662072616E676520AA
:1023E0002800290A0020746F20003F59206F75745F
:1023F000206F662072616E676520282D00290A0013
:1024000020746F20003F58206F7574206F66207213
:10241000616E676520282D002E0A002028302D319E
:102420003029002076616C7565206F7574206F66A9
:102430002072616E676500416476616E6365204B52
:102440003D003F285929206F7574206F6620626F08
:10245000756E64732E0A003F285829206F7574200A
:102460006F6620626F756E64732E0A0020696E6459
:10247000657820696E76616C69642028312E2E3271
:10248000292E0A003F2853292050726F62652D7053
:102490006F736974696F6E003F2853292069732038
:1024A00072657175697265642E0A004D3834585929
:1024B0004500446F6E65207072696E74696E6720A6
:1024C00066696C650A004D3737004D333100496E3F
:1024D00076616C69642065787472756465720A004F
:1024E00020204D323036205800486F6D65206F66D1
:1024F00066736574004F666673657473204170700F
:102500006C696564004D494E2F4D415820546F6FE2
:102510002046617200546F6F206661722066726F90
:102520006D204D494E2F4D41580A004361703A00CD
:1025300047322F47332062616420706172616D659C
:10254000746572730A004D6564696120496E69742F
:10255000204661696C0053442063617264206F6B94
:102560000A006F70656E526F6F74206661696C65EA
:10257000640A00766F6C756D652E696E69742066ED
:1025800061696C65640A004E6F2053442063617278
:10259000640A00534420636172642072656C656153
:1025A0007365640A000A4D3234004D3233202573BE
:1025B000002E0A006F70656E206661696C65642C80
:1025C0002046696C653A200046696C652073656C2D
:1025D00065637465640A002053697A653A20004691
:1025E000696C65206F70656E65643A2000454E44E5
:1025F00020535542524F5554494E450A00222070EF
:102600006F73002220706172656E743A2200535518
:1026100042524F5554494E452043414C4C20746121
:10262000726765743A220053756263616C6C204F67
:10263000766572666C6F770045786365656465647E
:10264000206D617820535542524F5554494E4520D4
:1026500064657074683A002E0A0044656C6574699C
:102660006F6E206661696C65642C2046696C653A02
:10267000200046696C652064656C657465643A0089
:1026800057726974696E6720746F2066696C653A69
:102690002000667265736800646F696E670020666B
:1026A000696C653A20004E6F7720002F6175746F5A
:1026B00025632E67004A3230300053495A45004A9C
:1026C0003132004D3432305356004A3137004175B3
:1026D000746F206465746563742070616E656C202E
:1026E000747970652028617373756D696E67206EEB
:1026F00065772070616E656C290053657420666F84
:1027000072207374616E6461726420544654207048
:10271000616E656C2E0053657420666F72206E6565
:1027200077205446542070616E656C2E001000C9ED
:102730000210012C014001220170011801B0010EAC
:1027400001F00104015002FA00B002F0003003E68B
:1027500000D003DC009004D2007005C800A006BEC3
:10276000000008B400B009AA00D00BA000600E96CB
:102770000060118C000015820020197800C01D6EC9
:1027800000A0226400B0275A00902C50000031466F
:1027900000E0343C0010383200903A2800603C1EC3
:1027A00000A03D1400803E0A00203F000020205081
:1027B0006C616E6E657242756666657242797465AB
:1027C000733A20002046726565204D656D6F727901
:1027D0003A200020436F6D70696C65643A204A7539
:1027E0006E20323820323032360A00204C61737449
:1027F00020557064617465643A20323032362D3071
:10280000362D3234207C20417574686F723A20284E
:102810003344776F726B2C2068747470733A0A00BB
:102820004D61726C696E20322E312E322E380A00C4
:1028300020536F6674776172652052657365740A00
:1028400000205761746368646F6720526573657414
:102850000A002042726F776E206F75742052657384
:1028600065740A002045787465726E616C2052654B
:102870007365740A00506F77657255700A0073743F
:102880006172740A00473237004D31303031006FC9
:102890006B006572726F722077726974696E67205F
:1028A000746F2066696C650A00446F6E6520736101
:1028B00076696E672066696C652E0A004D323900B4
:1028C000456E6473746F7073002553202563202553
:1028D000632025632025630020503A00656E6473F1
:1028E000746F7073206869743A200000000A0B024C
:1028F000090C0D0E08070304010000000000000091
:1029000000000000000000000000000000000000C7
:102910000000000000000012111000000000000084
:1029200000000000000000000000000000000000A7
:1029300000A22A0000352100000B170000480E00FD
:10294000001F0800005C0400004202000026010095
:1029500000454550524F4D2056657273696F6E2089
:102960004572726F72004A303800426564204865D3
:102970006174696E672E2E2E004A3036004520485D
:10298000656174696E672E2E2E004A3136005072D2
:10299000696E742041626F72746564004A31380058
:1029A0005072696E7420506175736564004A3138E5
:1029B00000526568656174696E672E2E2E004A327A
:1029C00035004731205A35302046353030005072BE
:1029D0006F62696E67204661696C6564004A3235D2
:1029E000004D3530300A4732370020526561647936
:1029F0002E00DB0FC93F45BCDA3F8FB30240FCF02D
:102A0000274056946140FE4B9B4084A5D840E0236C
:102A10001841346A5641E859974164DBD5416E2725
:102A20001742B4B75542CE1A9742C8AED542B588C0
:102A30005A43D40684BFA65FA7BF7443E0BF10B15A
:102A40001AC01C2C58C0E8F697C0B849D6C04E4EE4
:102A500017C124D355C1802497C1A0B5D5C1121A7E
:102A600017C244AE55C2781797C26CACD5C26788FE
:102A70005AC320746F6F206C6F6E67206578747214
:102A80007573696F6E2070726576656E7465640A21
:102A90000020636F6C6420657874727573696F6E63
:102AA0002070726576656E7465640A00416E7963A4
:102AB0007562696320436869726F6E205265616454
:102AC000792E005072696E74696E672E2E2E00503A
:102AD00072696E742050617573656400486F6D652E
:102AE00020257320466972737400544845524D4145
:102AF0004C2052554E4157415900546865726D61E2
:102B00006C2052756E617761790050757267696EDD
:102B1000672E2E2E000000436F6E74696E7565007F
:102B20004C6F61642046696C616D656E7420540061
:102B30004C6F61642046696C616D656E7400496E0E
:102B4000736572742066696C616D656E7420616E68
:102B5000642073656E64204D3130380A005245534D
:102B6000554D45204F5054494F4E533A00486561EA
:102B700074696E672E2E2E000000436C69636B2013
:102B8000746F2068656174000000526573756D692B
:102B90006E672E2E2E000000436C69636B20746FED
:102BA0002066696E6973680000004C6F6164696E2D
:102BB000672E2E2E000000496E7365727420616EC0
:102BC0006420436C69636B000000436C69636B2095
:102BD000746F20636F6E74696E7565000000456ADE
:102BE000656374696E672E2E2E000000506C65615F
:102BF000736520776169742E2E2E0000005061727B
:102C00006B696E672E2E2E000000726573756D6500
:102C100064004469736D69737300526573756D69FF
:102C20006E670050726F62696E67204661696C65FD
:102C3000640A0050726F62696E67204661696C6554
:102C40006400205A3A200020593A2000426564204E
:102C5000583A2000FFFFFF43616E6E6F74206F7063
:102C6000656E207375626469722000204500205AE9
:102C70000020590020204D393220580053746570CF
:102C8000732070657220756E697400220A00556E9B
:102C90006B6E6F776E20636F6D6D616E643A20228C
:102CA0000020453A00205A3A0020593A00583A008C
:102CB0006F6B0A00526573656E643A200002000073
:102CC0002200250028002B002E00310034000201D4
:102CD0000000050108010B0100002100240027006D
:102CE0002A002D003000330001010000040107011B
:102CF0000A01050505050705080808080202020281
:102D00000A0A080804040404010101010101010187
:102D10000303030303030303040707070C0C0C0C52
:102D20000C0C0C0C0202020206060606060606063B
:102D30000B0B0B0B0B0B0B0B0102102020080810C8
:102D4000204010204080020102010804020101021B
:102D500004081020408080402010080402018004F4
:102D6000020180402010080402010804020101024F
:102D7000040810204080010204081020408000E573
:102D8000E2E411241FBECFEFD1E2DEBFCDBF00E0F1
:102D90000CBF84B78093781814BE0FB6F894A8952A
:102DA00080916000886180936000109260000FBE87
:102DB00014E0A0E0B2E0E4EFF9EF01E00BBF02C0E5
:102DC00007900D92A430B107D9F728E1A4E0B4E050
:102DD00001C01D92A837B207E1F716E1C0ECD6E1B9
:102DE00000E006C021970109802FFE010E948AF9A8
:102DF000CF3BD10780E00807A9F70E9470E60C944A
:102E0000E9FC0C9400000F931F93CF93DF93CDB791
:102E1000DEB760970FB6F894DEBF0FBECDBF8C0152
:102E2000DC01ED91FC910280F381E02DBE016F5F2A
:102E30007F4F1995882309F464C08981807CC9F586
:102E40006F81637070E0762F6627770F770F888524
:102E5000B4E08B9FC0011124682B792B8985829562
:102E6000869586958370682B6F5F7F4F90E080E03A
:102E70002A852370220F3B8537FB332730F9232B1C
:102E80003E813F70230F3327331F2750310904C081
:102E9000660F771F881F991F2A95D2F760960FB685
:102EA000F894DEBF0FBECDBFDF91CF911F910F9180
:102EB0000895803419F568856695669570E090E010
:102EC00080E0CB01772766272A85622B098510E0F1
:102ED000102F0027012E000C220B330B602B712BBF
:102EE000822B932B6F5F7F4F8F4F9F4F4AE0660F70
:102EF000771F881F991F4A95D1F7D0CF8BE0F80133
:102F0000848360E070E0CB01C9CF0895FC01828129
:102F100008952F923F924F925F926F927F928F927D
:102F20009F92AF92BF92CF92DF92EF92FF920F9358
:102F30001F93CF93DF9300D000D0CDB7DEB7DC0175
:102F40000D90BC91A02DBE83AD8318966D917C91A0
:102F5000072E000C880B990B0E94E8F26B017C0194
:102F600020E030E0A9010E94E2F28823E1F0AD8187
:102F7000BE8114968D919D910D90BC91A02D898359
:102F80009A83AB83BC839C01AD01C701B6010E944B
:102F9000A4F94B015C0120E030E040E251EC0E94DA
:102FA000E2F287FF08C081E0ED81FE818387C12CBA
:102FB000D12C7601DCC020E030E040E251E4C501D4
:102FC000B4010E94CCFB181664F481E0AD81BE818F
:102FD0001B968C93C12CD12C8FE7E82E83E4F82E1E
:102FE000C6C0ED81FE818385882349F0138614864F
:102FF000158616861786148E158E168E178EAD8141
:10300000BE8194964D905D906D907C9097971C96A4
:103010002D913D914D915C911F97C501B4010E9486
:10302000A5F9F62EE72ED82EC92E20E030E0A90112
:103030000E94E2F287FDB6C0A301920160E070E059
:103040008FE793E40E9481FA162F072F382E292E3E
:103050002F2D3E2D4D2D5C2D0E94E2F287FF02C0E8
:10306000780161018F2D9E2DAD2DBC2DED81FE814E
:1030700084879587A687B78720A131A142A153A154
:10308000C501B4010E9447F34B015C01AD81BE81D3
:1030900054968D929D92AD92BC9257972F2D3E2DB6
:1030A0004D2D5C2DC301B2010E9447F32B013C0161
:1030B000ED81FE81408E518E628E738EC48CD58CD4
:1030C000E68CF78C29813A814B815C81608971891A
:1030D000828993890E94A4F9AD81BE8198962D9131
:1030E0003D914D915C919B970E9447F3A7019601FA
:1030F0000E94A4F920ED3CEC4CE45DE30E9447F310
:10310000A70196010E94A5F96B017C01ED81FE816A
:10311000C48ED58EE68EF78E89819A81AB81BC8173
:10312000808B918BA28BB38BA3019201C501B4015B
:103130000E94A5F9A70196010E94A5F920E030E0C0
:10314000A9010E94A5F96B017C0120E030E0A901F2
:103150000E94E2F287FD2BCF20E030E04FE753E4FE
:10316000C701B6010E94CCFB18160CF433CFC7017F
:10317000B60126960FB6F894DEBF0FBECDBFDF9125
:10318000CF911F910F91FF90EF90DF90CF90BF9064
:10319000AF909F908F907F906F905F904F903F90F7
:1031A0002F900895F12CE12CD12CC12C5BCFCF9323
:1031B000DF93C091B815D091B91581E0CE31D1051A
:1031C000E4F020E030E040E05FE36091B4157091FE
:1031D000B5158091B6159091B7150E94A5F90E947A
:1031E000E9FA6C1B7D0B77FF03C07195619571093E
:1031F00081E0633071050CF080E0DF91CF9108959C
:10320000CF93DF93CFEDD3E120E030E040EA52E40A
:103210006091B4157091B5158091B6159091B71560
:103220000E94CCFB87FF13C080E0FE01C491209177
:103230000B0190E002C095958795CA95E2F780FD55
:103240000EC0207220930901DF91CF910895FE01F5
:10325000949181E001C0880F9A95EAF7E6CF209516
:10326000F0CFFC0190E1AAE0B6E001900D929A95B2
:10327000E1F70895FC017081472F50E0062E02C04F
:10328000559547950A94E2F740FF14C040916E04AB
:1032900050E0062E02C0559547950A94E2F740FF8C
:1032A00009C021E030E001C0220F6A95EAF72095BD
:1032B000272320830895CF93DF9390E0EFE8F5E094
:1032C000CAE0D0E0BE010E9477F9282FCB01BE01F1
:1032D0000E9477F9805D8683205D278385E995E0EC
:1032E000DF91CF910895982F4091DE0750E080E064
:1032F000282F082E000C330B2417350744F42152D5
:10330000384FF9012081291719F08F5FF1CF8FEF26
:103310000895CF93DF93C0918C15D0918D1581E0E6
:10332000CE31D105E4F020E030E040E05FE3609191
:1033300088157091891580918A1590918B150E943E
:10334000A5F90E94E9FA6C1B7D0B77FF03C071950C
:103350006195710981E0633071050CF080E0DF91C7
:10336000CF9108953F924F925F926F927F928F928A
:103370009F92AF92BF92CF92DF92EF92FF920F9304
:103380001F93CF93DF93CDB7DEB72C970FB6F8948A
:10339000DEBF0FBECDBF5C01DC0159968D909C90C5
:1033A000F40181859285A385B4859C01AD012F5FD1
:1033B0003F4F4F4F5F4F29873A874B875C87D50137
:1033C00014964D905D906D907C9017974114510428
:1033D0006104710409F459C0BFEF4B1A5B0A6B0A10
:1033E0007B0A312C730162011D821E821F821886A6
:1033F000F40181859285A385B4852D813E814F811D
:103400005885281739074A075B0708F056C0898591
:103410009A85AB85BC858C159D05AE05BF0550F41E
:1034200082E0C82ED12CE12CF12C92E0492E512CB7
:10343000612C712C9E012F5F3F4FB701A601C40183
:103440000E9412DD8823C9F189819A81AB81BC81F8
:10345000892B8A2B8B2B01F1260137019FEF491A0B
:10346000590A690A790A2D813E814F8158852F5F5B
:103470003F4F4F4F5F4F2D833E834F8358873FEF22
:10348000C31AD30AE30AF30AB3CF408051806280A3
:10349000738033243394A6CFC414D504E604F70410
:1034A00011F70FEF1FEF2FEF3FE0B701A601C401A7
:1034B0000E9481DC782E81111AC0712C872D2C96E8
:1034C0000FB6F894DEBF0FBECDBFDF91CF911F9135
:1034D0000F91FF90EF90DF90CF90BF90AF909F90B3
:1034E0008F907F906F905F904F903F900895F5017F
:1034F00044815581668177814115510561057105CA
:1035000039F097018601C4010E9481DC8823A9F269
:10351000D5011496CD92DD92ED92FC92179733204F
:1035200051F0D701C6010196A11DB11DF4018083A0
:103530009183A283B383F50185899689A789B08D8C
:10354000892B8A2B8B2B09F0B9CFC58AD68AE78ABB
:10355000F08E818180688183B1CFCF93DF93EC01BE
:103560008D810E94038D60E08B81DF91CF910C945F
:103570006ED5DF92EF92FF920F931F93CF93DF935D
:103580008C01C62FD22FF32EE42ED52EE6DF0E941B
:10359000FCD68C2F80640E94F78C8D2D0E94F78CB6
:1035A0008E2D0E94F78C8F2D0E94F78C8D2F0E94FC
:1035B000F78C87E8C11101C085E90E94F78CCC30F7
:1035C00011F40E94FC8CC0E00E94FC8CF801868300
:1035D00087FF04C0CF3F11F0CF5FF6CFDF91CF91CF
:1035E0001F910F91FF90EF90DF90089561E0FC0133
:1035F00083810E946ED58FEF0C94F78C0F931F93ED
:10360000CF938C01AADF0E94FCD6C82F81110AC07B
:1036100082E1F8018483C801E9DF8C2FCF911F91EB
:103620000F9108958DEF0E94F78C0E94FCD6C82F51
:10363000F2CF8F929F92AF92BF92CF92DF92EF9292
:10364000FF920F931F93CF93DF93EC016A017B01ED
:10365000590120E030E0A90167E38BDFA501980163
:1036600067E1CE0186DF811125C08F81833039F07B
:1036700089E0CC0CDD1CEE1CFF1C8A95D1F7A7015C
:10368000960169E1CE0175DF11E0882319F010E0A1
:1036900087E08C83CE01AADF812FDF91CF911F912C
:1036A0000F91FF90EF90DF90CF90BF90AF909F90E1
:1036B0008F90089589E08C8310E0ECCFCF93DF9357
:1036C000EC016EBDFA01CA019E5F0DB407FEFDCF8D
:1036D00020812EBD0DB407FEFDCF21812EBD329677
:1036E000E817F90791F70DB407FEFDCF8FEF0E94A1
:1036F000F78C8FEF0E94F78C0E94FC8C8E838F7169
:10370000853041F083E18C83CE0170DF80E0DF9172
:10371000CF91089581E0FBCFEF92FF921F93CF935B
:10372000DF93EC017B0119DF0E94FCD6182F811179
:103730000BC085E18C83CE0159DF812FDF91CF91C2
:103740001F91FF90EF900895A7016CEFCE01B6DFB7
:10375000182FF1CF0F931F93CF93DF93EC018901C3
:103760008F81833039F089E0440F551F661F771F22
:103770008A95D1F79A01AB0168E1CE01FADE882380
:1037800021F086E08C8310E007C0A8016EEFCE0127
:1037900095DF811109C011E0CE0128DF812FDF9173
:1037A000CF911F910F9108950E94FCD6182F81117F
:1037B00003C087E18C83F0CF20E030E0A9016DE009
:1037C000CE01D7DE811104C00E94FC8C882319F33E
:1037D00086E1D8CF1F93CF93DF93EC01BEDE20E0CC
:1037E00030E0A9016CE0CE01C4DE11E0882319F0BD
:1037F00010E083E08C83CE01F9DE812FDF91CF9141
:103800001F9108951F93CF93DF93EC018F81833035
:1038100039F089E0440F551F661F771F8A95D1F74D
:103820009A01AB0162E1CE01A4DE11E0882319F018
:1038300010E085E08C83CE01D9DE812FDF91CF911E
:103840001F9108958F929F92AF92BF92EF92FF9235
:103850000F931F93CF93DF938C01EB017A010E94AA
:103860002DD64B015C012CE2820E21E0921EA11CA0
:10387000B11C0E94FC8CF80186838F3F69F40E9482
:103880002DD6681979098A099B0997FDF2CF81E144
:10389000F8018483C0E021C08E3F69F5F1E0EF1AA2
:1038A000F1088FEF8EBDFE012FEF0DB407FEFDCFA7
:1038B0008EB581932EBDCF018C1B9D0B8E159F0560
:1038C000A0F30DB407FEFDCF8EB5CE0DDF1D8883AE
:1038D0000E94FC8C0E94FC8CC1E0C80187DE8C2F0A
:1038E000DF91CF911F910F91FF90EF90BF90AF901C
:1038F0009F908F9008958FE0CBCF0F931F93CF931E
:10390000DF93EC018B0129DE40E052E0B801CE01EB
:10391000DF91CF911F910F9195CF0F931F93CF936D
:10392000DF93EC0189018F81833039F089E0440F06
:10393000551F661F771F8A95D1F79A01AB0161E188
:10394000CE0117DE811109C040E052E0B801CE017E
:10395000DF91CF911F910F9175CF84E08C83CE01C1
:1039600045DE80E0DF91CF911F910F9108958F92F6
:103970009F92AF92BF92CF92DF92EF92FF920F93FE
:103980001F93CF93DF93EC01162F1F821C824B8372
:103990000E942DD66B017C0120EDC20E27E0D21EC5
:1039A000E11CF11CA89561E08B810E946ED58B8192
:1039B0000E942CC7209A289A219A2398229A81E063
:1039C0000E94038D85E08D830E94038D0AE08FEFB6
:1039D0000E94F78C0150D9F7A89520E030E0A901AA
:1039E00060E0CE01C6DD8E83813079F00E942DD655
:1039F0006C197D098E099F0997FDEFCF81E08C83BB
:103A0000CE01F4DD1A8280E065C0A8952AEA31E093
:103A100040E050E068E0CE01ACDD853031F581E07A
:103A20008F83A8958F81812C912C5401823029F4A9
:103A3000812C912CA12C80E4B82E20E030E0A9014B
:103A400067E3CE0196DDA501940169E2CE0191DD27
:103A50008E838823F1F00E942DD66C197D098E0982
:103A60009F0997FDEACF8AE0CACF04E00E94FC8C50
:103A70008E830150D9F78A3A11F482E0D1CF0E94A7
:103A80002DD66C197D098E099F0997FDBFCF82E065
:103A9000B6CF8F818230B9F420E030E0A9016AE32B
:103AA000CE0167DD882311F088E0A9CF0E94FC8C4D
:103AB000807C803C11F483E08F830E94FC8C0E9408
:103AC000FC8C0E94FC8CCE0191DD81E08A83173052
:103AD00070F41D83DF91CF911F910F91FF90EF90B4
:103AE000DF90CF90BF90AF909F908F90089588E126
:103AF0008C8389CF0F931F93CF93DF93EC018B01BE
:103B000020E030E0A90169E034DD811109C040E125
:103B100050E0B801CE01DF91CF911F910F9192CE6D
:103B200080E18C83CE0162DD80E0DF91CF911F9137
:103B30000F910895CF93DF93E0EBF5E1C085D18538
:103B400064817581868197810E94E9FAAE0189E3DB
:103B500095E0DF91CF910C940E6E0F9300911E05AE
:103B600021E0022724EB35E044E050E0BC0182EB89
:103B700095E00E94E9710F9108950F9300911E0541
:103B800021E0022724EB35E041E050E0BC0182EB6C
:103B900095E00E94E9710F9108950F9300911E0521
:103BA00021E0022724EB35E04CE050E0BC0182EB41
:103BB00095E00E94E9710F9108950F9300911E0501
:103BC00021E0022724EB35E041E050E0BC0182EB2C
:103BD00095E00E94E9710F9108950F9300911E05E1
:103BE00021E0022724EB35E048E050E0BC0182EB05
:103BF00095E00E94E9710F9108950F9300911E05C1
:103C000021E0022724EB35E04CE050E0BC0182EBE0
:103C100095E00E94E9710F9108950F9301E024EB64
:103C200035E041E050E0BC0182EB95E00E94E97193
:103C30000F9108950F9301E024EB35E042E050E04E
:103C4000BC0182EB95E00E94E9710F9108950F93FA
:103C5000AB0100911E0521E0022724EB35E0BC01F9
:103C600082EB95E00E94E9710F91089524EB35E015
:103C700044E050E0BC0182EB95E00C948E7724EB9D
:103C800035E042E050E0BC0182EB95E00C948E7789
:103C900024EB35E041E050E0BC0182EB95E00C9470
:103CA0008E7724EB35E041E050E0BC0182EB95E0FB
:103CB0000C948E7724EB35E04CE050E0BC0182EBB5
:103CC00095E00C948E77CF93C82FCB010E94B473EC
:103CD0008BE998E00E94B4738CE898E0CC2311F053
:103CE00081E998E0CF910C94FB778F929F92AF92ED
:103CF000BF92CF92DF92EF92FF92CF936B017C0144
:103D0000B42E20E030E0A9010E94E2F287FF07C054
:103D10008DE20E942772F7FAF094F7F8F094C0E071
:103D200060E070E080E09FE3CB1541F02DEC3CECCF
:103D30004CEC5DE30E9447F3CF5FF6CFA7019601FD
:103D40000E94A5F96B017C010E94EEFA4B015C0117
:103D50000E94EBCACC2371F1C501B4010E94E6F2C6
:103D60009B01AC01C701B6010E94A4F96B017C0163
:103D70008EE20E942772C150E8F020E030E040E27D
:103D800051E4C701B6010E9447F36B017C010E9418
:103D9000EEFA4B015C010E94EBCAC501B4010E941E
:103DA000E6F29B01AC01C701B6010E94A4F96B01C8
:103DB0007C01E1CFCF91FF90EF90DF90CF90BF904B
:103DC000AF909F908F900895CF93DF93EC018991EE
:103DD000882319F00E942772FACFDF91CF910895BE
:103DE0008DE00E9427728AE00C94277242E07DDF0A
:103DF000F7CFEADFF5CFCF93DF93EC01FE0184919B
:103E00002196882319F00E942772F8CFDF91CF9175
:103E100008958F929F92AF92BF92CF92DF92EF92CE
:103E2000FF920F931F93CF93DF93EC018B8181114E
:103E30000EC080E0DF91CF911F910F91FF90EF9026
:103E4000DF90CF90BF90AF909F908F900895098999
:103E50001A892B893C89041715072607370748F369
:103E60004A015B01823031F488869986AA86BB8636
:103E700081E0E0CF81149104A104B10449F41886D3
:103E800019861A861B861C821D821E821F82F0CF15
:103E9000088519852A853B85E98DFA8D858590E011
:103EA0000996B901A8014150510961097109082E0B
:103EB00004C076956795579547950A94D2F7750192
:103EC0006401E1E0CE1AD108E108F10804C0F694DB
:103ED000E794D794C7948A95D2F7C416D506E60618
:103EE000F70620F0012B022B032B11F58D899E89FB
:103EF000AF89B88D8C839D83AE83BF838E010C5FA9
:103F00001F4FC114D104E104F10409F4ADCF4C8179
:103F10005D816E817F819801898D9A8D0E9412DD6D
:103F200091E0C91AD108E108F1088111EACF81CFE7
:103F3000C41AD50AE60AF70AE1CF2F923F924F92B0
:103F40005F926F927F928F929F92AF92BF92CF9229
:103F5000DF92EF92FF920F931F93CF93DF93EC01C9
:103F60004B017A018B81811115C08FEF9FEFDF919B
:103F7000CF911F910F91FF90EF90DF90CF90BF9066
:103F8000AF909F908F907F906F905F904F903F90F9
:103F90002F900895898180FFE8CF89899A89AB891C
:103FA000BC89488559856A857B85841B950BA60B42
:103FB000B70BA70170E060E084179507A607B70765
:103FC00008F47C0167011E0124E0220E311CC1149B
:103FD000D10409F4A9C0488559856A857B855A01B1
:103FE00081E0B822898D9A8D2A013B0129E07694DF
:103FF0006794579447942A95D1F72B81FC0122307E
:1040000081F5628D738D848D958D640D751D861D72
:10401000971D00E012E00A191B09C016D10608F42A
:1040200086010115E2E01E0771F440905015509092
:1040300051156090521570905315641575058605DD
:10404000970509F04EC040E00E94F6DA882309F493
:104050008CCFB501605B7C4EA801C4010E9488FC36
:1040600052C0148111501421A114B10471F4111122
:104070000CC0452B462B472B51F58D899E89AF8966
:10408000B88D8C839D83AE83BF83E98DFA8D4C8080
:104090005D806E807F8022E0421A510861087108BD
:1040A000858504C0440C551C661C771C8A95D2F784
:1040B00086859785A089B189480E591E6A1E7B1E88
:1040C000C301B201610F711D811D911DA2CF4C81F1
:1040D0005D816E817F8191010E9412DD8111D5CFBA
:1040E00044CFA0915515B0915615ED91FC911197C3
:1040F0000088F189E02D9401AB01BC01CD01199537
:10410000882309F432CF800E911E88859985AA856F
:10411000BB85800F911FA11DB11D88879987AA8734
:10412000BB87C01AD10A53CFC70121CF0F931F936A
:10413000CF93DF93FC012381222331F080E0DF91D4
:10414000CF911F910F9108958B01EC01FB0187899D
:10415000803139F582E08B831D8A1E8A1F8A188E72
:10416000808D918DB0E0A0E025E0880F991FAA1FF7
:10417000BB1F2A95D1F7898B9A8BAB8BBC8B1A8F7F
:10418000098F81E08983188619861A861B861C820E
:104190001D821E821F82188A1C861D861E861F860F
:1041A000CECF803259F683E08B83428D538D648D60
:1041B000758D4D8B5E8B6F8B788F9E012F5E3F4F81
:1041C000C8010E9426DE8111DACFB8CFCF93DF93EA
:1041D000EC01462F41706C857D858E859F850E9400
:1041E000F6DA882351F0888920E2829FC0011124E9
:1041F000805B9C4EDF91CF91089590E080E0FACFF4
:10420000CF93DF93EC018B81882341F1898187FF74
:1042100021C061E0CE01DADFFC01892BF9F0808159
:10422000853EE1F08B81823040F489899A89AB899F
:10423000BC89848F958FA68FB78F8D899E89938F28
:10424000828F8D899E89AF89B88DB58BA48B89812A
:104250008F778983DF91CF910C94ADDA81E08883E9
:1042600080E0DF91CF9108952F923F924F925F921D
:104270006F927F928F929F92AF92BF92CF92DF9276
:10428000EF92FF920F931F93CF93DF9300D01F9273
:10429000CDB7DEB78C014B011A01DC0113968C916E
:1042A0001397813009F0CDC011968C9181FFC9C060
:1042B00082FDB4C06101D80118964D915D916D9158
:1042C0007C911B97C114D10409F419C159968D91A1
:1042D0009C915A97FC0174802FEF270D2A013B0116
:1042E00039E076946794579447943A95D1F7722EB3
:1042F00074207A01F1E0FF2271101FC0E114F10473
:10430000E1F414964D915D916D917C911797411553
:1043100051056105710509F09AC055968D919D91E1
:104320000D90BC91A02D0097A105B10509F0A8C082
:10433000C80118D8882309F484C0A12C82E0B82EC3
:10434000AE18BF08CA14DB0408F45601D801599608
:104350004D915C915A9714968D919D910D90BC91C1
:10436000A02D0297A109B109FA01258504C0880F83
:10437000991FAA1FBB1F2A95D2F7468557856089CA
:104380007189840F951FA61FB71F9C01AD01270DD2
:10439000311D411D511D29013A01A11432E0B3061E
:1043A00009F07CC08091501590915115A091521543
:1043B000B0915315481659066A067B0669F41092A7
:1043C00054158FEF9FEFDC0180935015909351159A
:1043D000A0935215B0935315809155159091561591
:1043E000DC01ED91FC910288F389E02D9401B30189
:1043F000A2011995882329F1F80180859185A2856C
:10440000B3858A0D9B1DA11DB11D80879187A28751
:10441000B3878A0C9B1CCA18DB084DCFF801418971
:1044200052896389748980859185A285B3854817EF
:1044300059076A077B0709F43DCFC801EADC8111FF
:1044400039CF81E0D8018C938FEF9FEF6EC09E0132
:104450002F5F3F4F0E9412DD882399F389819A8153
:10446000AB81BC81F801218D328DF9012789203182
:1044700069F4883FFFEF9F07A105B10508F058CF09
:10448000F80184839583A683B78357CF883F2FEFA6
:104490009207A2072FE0B20798F34ACFE114F10484
:1044A00031F5F8014085518562857385818992894E
:1044B000A389B489481759076A077B07C0F00E948F
:1044C000ADDA882309F4BDCF81E080935415409282
:1044D0005015509251156092521570925315A501C6
:1044E000B401C701805B9C4E0E9488FC85CF41E0EF
:1044F000C301B2010E94F6DA8111F1CFA2CFF80117
:1045000081899289A389B48984179507A607B7077B
:1045100038F48181418B528B638B748B80688183EB
:10452000F801818183FD18C0C1010F900F900F9099
:104530000F90DF91CF911F910F91FF90EF90DF903F
:10454000CF90BF90AF909F908F907F906F905F9033
:104550004F903F902F900895C80152DE8111E4CF13
:1045600070CFCF93DF93EC014BDE1B82DF91CF91B5
:104570000895CF93DF93EB01FC012381211104C047
:1045800080E0DF91CF9108952250223028F48FE20D
:104590008883198281E0F5CF60E018DE009781F30F
:1045A000DC0160E080E09EE22D91203299F08830BD
:1045B00031F49E01260F311DF90190836F5F9E013A
:1045C000260F311DAD0141505109FA014081F90119
:1045D00040836F5F8F5F8B3039F7FE01E60FF11D6F
:1045E0001082D8CF40E050E0BA0113CC682F70E0C1
:1045F00090E080E00C9481CA8F929F92AF92BF921C
:10460000CF92DF92EF92FF92CF936B017C01B42E99
:1046100020E030E0A9010E94E2F287FF07C08DE2AE
:104620000E94AD73F7FAF094F7F8F09460E070E050
:1046300080E09FE3C0E02DEC3CEC4CEC5DE30E949D
:1046400047F3CF5FBC12F7CFA70196010E94A5F9EF
:104650006B017C010E94EEFA4B015C010E94E6F2C4
:104660009B01AC01C701B6010E94A4F96B017C015A
:10467000C501B4010E9481CA8EE20E94AD73C1508F
:10468000E8F020E030E040E251E4C701B6010E94CA
:1046900047F36B017C010E94EEFA4B015C010E9422
:1046A00081CAC501B4010E94E6F29B01AC01C701B9
:1046B000B6010E94A4F96B017C01E1CFCF91FF907C
:1046C000EF90DF90CF90BF90AF909F908F90089524
:1046D000EF92FF920F931F93CF937B018A01C2E465
:1046E0008F3F09F0C4E580E20E94AD738C2F0E94D9
:1046F000AD738AE30E94AD73F7016081718182819D
:10470000938142E079DF8AE895E10E94B473F80171
:10471000608171818281938142E06EDF62E070E0AE
:1047200080E090E0CF911F910F91FF90EF900C945B
:10473000FAD51F93CF93DF9300D000D01F921F9222
:10474000CDB7DEB7182F6091B8157091B915072E47
:10475000000C880B990B0E94E8F26D837E838F8397
:1047600098878091B4159091B515A091B615B09128
:10477000B71589839A83AB83BC83AE014B5F5F4FD0
:10478000BE016F5F7F4F80E8A3DF60918C15709151
:104790008D15072E000C880B990B0E94E8F26D8393
:1047A0007E838F8398878091881590918915A09139
:1047B0008A15B0918B1589839A83AB83BC83AE0134
:1047C0004B5F5F4FBE016F5F7F4F8FEF81DF609167
:1047D0008E151F3F39F08CE21802F0011124E055CC
:1047E000FA4E628570E082E995E10E944B77609114
:1047F0008E1570E08DE895E10E944B7728960FB6F4
:10480000F894DEBF0FBECDBFDF91CF911F91089509
:104810000F930FB70F9300916E000D7F00936E0002
:1048200078940F930BB70F930CB70F921F922F939F
:104830003F934F935F936F937F938F939F93AF9328
:10484000BF93EF93FF93112472D6FF91EF91BF9125
:10485000AF919F918F917F916F915F914F913F9118
:104860002F911F900F900CBF0F910BBF0F91026003
:10487000F89400936E000F910FBF0F911895CF938E
:10488000DF9310923805C0EBD5E11986188652D90E
:104890001A862C98C4E8D5E1198618860E94426EC3
:1048A0001A8680910B01807180930901DF91CF916D
:1048B00008958F929F92AF92BF92CF92DF92EF9224
:1048C000FF920F931F93CF93DF93B4E4A0E06A2F7E
:1048D00070E0AB014B0F511D55954795411119C023
:1048E000EDE5F4E165917491072E000C880B990BAE
:1048F0000E94E8F2DF91CF911F910F91FF90EF900E
:10490000DF90CF90BF90AF909F908F900895B42F7D
:10491000E0CFA41711F0B41303C0E9E6F5E1E2CF4C
:104920009A0121503109220F331F220F331FF90141
:10493000E55AFB4EE590F490F901E15AFB4EC59122
:10494000D4918E159F0518F3A42FC817D90708F422
:10495000BECFF901E35AFB4E05911491F901EF59CD
:10496000FB4EC590D4908E199F09BC0190E080E069
:104970000E94E6F24B015C01B601601B710B072E31
:10498000000C880B990B0E94E8F29B01AC01C50159
:10499000B4010E9447F34B015C01CE19DF09BE014F
:1049A00090E080E00E94E6F29B01AC01C501B401F9
:1049B0000E9481FA6B017C01B801110F880B990BE1
:1049C0000E94E8F29B01AC01C701B6010E94A5F963
:1049D00091CFBC012091070630910806409107064F
:1049E000509108062417350731F481E02617370760
:1049F00009F080E008959A01F1CF613271058105D7
:104A0000910538F4E5EDFFE06591749190E080E068
:104A10000895AB01BC01405251096109710941156A
:104A200028E0520761057105C8F024E0529FC001DB
:104A300011248B52944FFC01329625913491FC0144
:104A400085919491AA27439FF001429F000CE11D9C
:104A5000FA1F11248E1B9F0BBC01D8CFDB01CA01AA
:104A6000B695A795979587958C7F9C012B52304FD3
:104A7000F90185919491F9013296A591B49147700D
:104A80004A9F90014B9F300D112443E036952795A6
:104A90004A95E1F7821B930BDFCF0F930FB70F936C
:104AA00000916E000F930D7F00936E0000916F00D8
:104AB0000D7F00936F000F930BB70F930CB70F92FE
:104AC0001F922F933F934F935F936F937F938F9397
:104AD0009F93AF93BF93EF93FF9311240E94B62D42
:104AE000FF91EF91BF91AF919F918F917F916F91C6
:104AF0005F914F913F912F911F900F900CBF0F919D
:104B00000BBF0F910260F89400936F000F91009318
:104B10006E000F910FBF0F91189500C000C08091DB
:104B2000760880FF25C0899A8FEF809335068091A3
:104B3000760881FF20C08F9A8FEF80933606809190
:104B4000760882FF1BC0439A80910B01809582708A
:104B5000809309018FEF809337068091760883FF59
:104B600015C016988FEF8093380600C000C00895D6
:104B7000899881E0DACF8F9881E0DFCF43988091E8
:104B80000B0182708093090181E0E5CF169A81E0E4
:104B9000EACF80911F05877F80931F05129A81E0DD
:104BA0000895129880911F05886080931F050895CD
:104BB00021E030E0082E02C0220F331F0A94E2F7F2
:104BC0002095309590911F05292320931F05813052
:104BD00061F020F0823071F081E008955F9A809159
:104BE00069108E7F80936910F7CF8A9A809169103F
:104BF0008D7FF8CF479A80910801809581708093CE
:104C00000601809169108B7FEDCF80E0D1DF81E0DC
:104C1000CFDF82E0CDDFBDCF813089F070F0823010
:104C200081F021E030E001C0220F8A95EAF78091FF
:104C30001F05822B80931F0508955F98F2CF8A98F5
:104C4000F0CF479890910801917090930601E9CFB9
:104C5000CF93DF9300D01F92CDB7DEB7809163086A
:104C6000882389F083E390E09C838B831A821982E6
:104C70009E012F5F3F4F40E150E064E678E0CE01B7
:104C800003960E948E770F900F900F900F90DF91F8
:104C9000CF910895CF93DF9300D01F921F92CDB78D
:104CA000DEB781E08093630880E1E4E6F8E0DF01AD
:104CB0001D928A95E9F7CCDF86E18D8382E390E04F
:104CC0009C838B831A8219829E012F5F3F4F41E0A4
:104CD00050E0BE016B5F7F4FCE0103960E948E773E
:104CE0000F900F900F900F900F90DF91CF9108953C
:104CF000843021E0920714F084E091E09093B9159C
:104D00008093B8150C94306ECF93DF9380917F041D
:104D1000811119C0C0911002D0911102219720E099
:104D200030E040E05FE36091B4157091B51580917B
:104D3000B6159091B7150E94A5F90E94E9FA21E0F5
:104D40006C177D070CF020E0822FDF91CF91089542
:104D5000AF92BF92CF92DF92EF92FF920F931F9389
:104D6000CF93DF93CAE7D0E10EED18E08AE8A82ED2
:104D700080E1B82EC12CD12C7601C3946991799130
:104D8000899199910E94E6F2288939894A895B893B
:104D90000E9447F30E94EEFAF801619371938193A8
:104DA00091938F01C616D706E806F90610F46B0139
:104DB0007C01AC16BD0611F76FEF7FEFCB01A701A9
:104DC00096010E940CF92093EE083093EF0840936F
:104DD000F0085093F10823EF34E045E35FE360917E
:104DE000DA087091DB088091DC089091DD080E9460
:104DF00047F32AE136EF45E95EE30E9481FA6B0151
:104E00007C0160918610709187108091881090913C
:104E100089100E94E6F29B01AC01C701B6010E9415
:104E200047F30E9412FC6093F2087093F30880939A
:104E3000F4089093F508DF91CF911F910F91FF90A7
:104E4000EF90DF90CF90BF90AF9008950F931F9396
:104E5000CF93DF930EE810E1CAEFD8E0F80121917B
:104E60003191419151918F0160E070E080E89FE3C2
:104E70000E9481FA6993799389939993F9E0CA30F2
:104E8000DF0761F70E9417D2DF91CF911F910F9139
:104E90005FCF9091ED158091EE15981306C080912B
:104EA0006B1090916C10892B21F080E00E947C782F
:104EB000F0CF08959091ED158091EE15981307C0ED
:104EC00080916B1090916C10892B09F49ECE80E03C
:104ED0000E947C78EFCFCF93DF9320919004222320
:104EE00079F0EC010E94546E9B01AC0168857985D4
:104EF0008A859B850E94A5F9688779878A879B8721
:104F0000DF91CF910895CF92DF92EF92FF9280913F
:104F1000A504882309F457C0C090A104D090A2042E
:104F2000E090A304F090A40420E030E0A901C701C0
:104F3000B6010E94E2F2882309F445C020E030E087
:104F400040E05FE3C701B6010E9447F39B01AC015B
:104F50000E9447F32BED3FE049E450E40E9447F301
:104F60009B01AC0160E070E080E89FE30E9481FA61
:104F70006B017C01C0927B04D0927C04E0927D04A2
:104F8000F0927E0460910E0270910F02072E000CC9
:104F9000880B990B0E94E8F22AE037ED43E25CE3CC
:104FA0000E9447F3A70196010E9447F360935602BF
:104FB000709357028093580290935902FF90EF909C
:104FC000DF90CF900895C12CD12C80E8E82E8FE39C
:104FD000F82ED0CF4F925F926F927F928F929F92D6
:104FE000AF92BF92CF92DF92EF92FF920F931F93F7
:104FF000CF93DF93CDB7DEB76E970FB6F894DEBFD1
:105000000FBECDBF9E8F8D8F5B018A01FC01FF9685
:1050100020813181428153812D833E834F83588784
:10502000CA01B9010E94E6F26B017C01D5012D9104
:105030003D914D915C910E9447F30E946BFA2B01C8
:105040003C01F8012081318142815381C701B601C1
:105050000E9447F30E946BFA4B015C01C301B2014D
:105060000E94EEFA69877A878B879C87683771057B
:105070008105910540F428E730E040E050E02987C1
:105080003A874B875C87C501B4010E94EEFA6983B9
:105090007A838B839C83683771058105910540F481
:1050A00088E790E0A0E0B0E089839A83AB83BC837B
:1050B000AD8DBE8D95964D905D906D907C9098973E
:1050C000FD01E55BFF4F60817181828193816115F4
:1050D00071058105910509F45BC10E94E8F26D87B5
:1050E0007E878F87988B9B01AC0160E070E080E841
:1050F0009FE30E9481FA20E030E040E05FE30E94FD
:1051000047F34B015C01A7019601C701B6010E945C
:1051100047F36B017C0169817A818B819C810E94BC
:10512000E6F29B01AC010E9447F39B01AC01C70171
:10513000B6010E94A4F9A50194010E9447F36D8B6A
:105140007E8B8F8B988F69857A858B859C850E9455
:10515000E6F29B01AC010E9447F3698B7A8B8B8B43
:105160009C8B9B01AC01C701B6010E94A4F9A5016B
:1051700094010E9447F3698F7A8F8B8F9C8F0E94D6
:105180006BFA0E94EEFA6B017C016D897E898F8932
:10519000988D0E941AFB0E94EEFA4B015C01D70128
:1051A000C601880D991DAA1DBB1DA3019201281BD4
:1051B000390B4A0B5B0BDA01C901B7FF5DC0C301B4
:1051C000B2010E94E6F2298D3A8D4B8D5C8D0E94D2
:1051D000A5F92D893E894F89588D0E94A4F920E0B8
:1051E00030E040E05FE30E9447F30E946BFA6B01FE
:1051F0007C0120E030E0A9010E94CCFB18161CF0D5
:10520000C12CD12C7601C701B6010E94EEFA6B01C8
:105210007C014C145D046E047F0410F47301620180
:10522000530142018C189D08AE08BF08C701B601A2
:105230000E94E6F26D837E838F8398872D853E855D
:105240004F855889CA01B9010E94A5F99B01AC019B
:105250006D817E818F8198850E9447F329893A89E3
:105260004B895C890E94A5F90E9412FC0E94EEFA0B
:105270006D837E838F839887AD8DBE8D9996CD92F9
:10528000DD92ED92FC929C97D301C2018819990995
:10529000AA09BB09ED8DFE8D85A796A7A7A7B0AB80
:1052A000ED5BFF4F29853A854B855C8520833183F3
:1052B00042835383ED8DFE8DE95BFF4F89819A8197
:1052C000AB81BC8180839183A283B383ED8DFE8DFE
:1052D00086A997A9A0ADB1AD892B8A2B8B2B09F498
:1052E00040C061A172A183A194A10E94E6F2209125
:1052F000F6083091F7084091F8085091F9080E949B
:1053000047F36B017C01C301B2010E94E6F29B01ED
:10531000AC01C701B6010E9481FA6B017C016D816D
:105320007E818F8198850E94E6F2A70196010E94F6
:1053300047F30E94EEFAAD8DBE8DDC967C936E93A2
:10534000DB9769817A818B819C810E94E6F2A701BB
:1053500096010E9447F30E94EEFAED8DFE8D76AF26
:1053600065AF6E960FB6F894DEBF0FBECDBFDF916E
:10537000CF911F910F91FF90EF90DF90CF90BF9052
:10538000AF909F908F907F906F905F904F90089517
:10539000812C912C5401C12CD12C76016DCF909190
:1053A0006F0081E091FD02C080E0089590916F0050
:1053B0009D7F90936F000895EFE6F0E0808182601A
:1053C00080830895CF93C82FEADF94E0C99F9001AE
:1053D0001124F901EC53F74F265F394FD9014D9154
:1053E0005D916D917C91408351836283738391E0E1
:1053F00090930906882311F0CF91DECFCF910895C5
:10540000CF93DF9380917508811105C08091770853
:10541000882309F489C080913906659979C0816033
:1054200080933906909109018091390697FD72C0E9
:10543000826080933906909109018091390696FF28
:105440006BC0846080933906809139064B9B66C09F
:1054500088608093390680913906649B61C08061C1
:1054600080933906C091FA05C0FF0FC0809176087D
:1054700080FF0BC08091390680FF07C080916A10C1
:10548000816080936A1080E09DDFC1FF0FC0809132
:10549000760881FF0BC08091390681FF07C080919B
:1054A0006A10826080936A1081E08CDFC2FF3CC08A
:1054B0008091760882FF38C080917708811117C0EB
:1054C0009091390692FB882780F993FF2BC092E0D8
:1054D000892B69F090916A10946090936A10909172
:1054E0002F05992311F0833011F482E06BDF809156
:1054F00077088823C9F08091390684FF15C0809110
:105500006A10806180936A1082E0DF91CF915ACF58
:105510008E7F86CF8D7F8DCF8B7F94CF877F99CFE6
:105520008F7E9ECF90E0D4CFDF91CF9108951F93CF
:10553000CF93DF93809125028F3708F4E4C08F5713
:105540009091BA1590933F06992309F4DAC02C9AEA
:1055500020918E1520933E0690910B01211190957C
:10556000907190930901909102012091330520934D
:105570003D06211190959071909300012091320584
:1055800030E03595279520933C0690910201232B1E
:1055900009F090959074909300018F5F809325029D
:1055A00080913B0691E0892780933B0680912402FD
:1055B000980F85300CF090E0823009F412C10CF0A5
:1055C000C2C0882309F4D7C0813009F4FEC090938B
:1055D0002402C0913005D0913105209709F481C093
:1055E000F89416B1187082E017DB00C000C01C16DA
:1055F0001D060CF425C1439A80910B011C161D0653
:105600000CF0809582708093090100C000C08091E9
:105610002F05882309F416C18091390682FF04C042
:105620008091370687FD05C080912E05811101C04C
:10563000419A8091390683FF04C08091370687FD27
:105640000AC080912D05811106C080910B018095C3
:1056500088708093090100C0000082E090E001970B
:10566000F0F780912F05882309F4EEC08091390668
:1056700082FF04C08091370687FD05C080912E050A
:10568000811101C041988091390683FF04C0809147
:10569000370687FD09C080912D05811105C08091D5
:1056A0000B0188708093090100C000C0112309F428
:1056B000CDC0439A80910B01111180958270809327
:1056C000090100C000C078948091300590913105A7
:1056D0001C161D060CF0BCC00197909331058093F9
:1056E00030058EDE80916B1090916C10009729F040
:1056F000019790936C1080936B10DF91CF911F9165
:1057000008952C9825CF90913F06891708F02C9882
:1057100090913E06891728F090910B01907190931B
:10572000090190913C06891728F09091020190742C
:105730009093000190913D06891708F42ECF909127
:105740000201907128CF843009F463C00CF45CC06E
:10575000853009F03CCF20913A06211102C0809398
:105760003A0680913A06815080933A06882309F4DC
:105770002ECF95E02CCF809123028F5F80311CF4D7
:105780008093230224CF109223028091340681114A
:1057900013C02091B0153091B1153093B3152093FB
:1057A000B21520918415309185153093871520937B
:1057B000861581E0809334061092B1151092B015D1
:1057C000109285151092841502CF88E080937B009B
:1057D00085E480937C0080917A00806480937A00D5
:1057E000F6CE80917A0086FD27C0409178005091D6
:1057F00079002091B0153091B115240F351F3093E9
:10580000B1152093B015E3CE88E080937B0086E449
:10581000E0CF80917A0086FD11C0409178005091D0
:1058200079002091841530918515240F351F309310
:10583000851520938415CBCE92E0C9CE94E0C7CED7
:105840004398DACE419A01CF419829CF439832CF7D
:10585000019643CFCF92DF92EF92FF92FC01C0807E
:10586000D180E280F38020919A1030919B1040917A
:105870009C1050919D10C701B6010E9447F30E94F1
:10588000D8FB60930B1670930C1680930D169093B3
:105890000E16C092FB15D092FC15E092FD15F09209
:1058A000FE159091ED158091EE15981731F0FF904F
:1058B000EF90DF90CF900C9442D3EBDA70DD409103
:1058C0000B1650910C1660910D1670910E164093A8
:1058D00016065093170660931806709319068823CE
:1058E00029F0FF90EF90DF90CF9066CDFF90EF9082
:1058F000DF90CF9008954F925F926F927F928F9238
:105900009F92AF92BF92CF92DF92EF92FF92CF938E
:10591000DF93EC0180E1FE01AFEEB5E101900D9265
:105920008A95E1F720919A1030919B1040919C103C
:1059300050919D106C857D858E859F850E9447F3D3
:105940000E94D8FB6B017C0120919610309197103A
:105950004091981050919910688579858A859B852A
:105960000E9447F30E94D8FB4B015C0120919210EA
:105970003091931040919410509195106C817D81DD
:105980008E819F810E9447F30E94D8FB2B013C012E
:1059900020918E1030918F10409190105091911065
:1059A000688179818A819B810E9447F30E94D8FB9C
:1059B0006093FF1570930016809301169093021662
:1059C00040920316509204166092051670920616C5
:1059D0008092071690920816A0920916B0920A16A5
:1059E000C0920B16D0920C16E0920D16F0920E1685
:1059F0009091ED158091EE15981781F0DF91CF9180
:105A0000FF90EF90DF90CF90BF90AF909F908F90DE
:105A10007F906F905F904F900C9442D33ADABFDC46
:105A2000C82F8FEF95E10E943119CC2379F0DF91D7
:105A3000CF91FF90EF90DF90CF90BF90AF909F906D
:105A40008F907F906F905F904F90B6CCDF91CF9109
:105A5000FF90EF90DF90CF90BF90AF909F908F908E
:105A60007F906F905F904F900895CF92DF92EF926A
:105A7000FF92CF93DF93C82F92DC94E0C99FE0019F
:105A80001124FE01E65FF94FC080D180E280F380EF
:105A9000811192DCC650D74FC701B6010E94E8F2CF
:105AA000288139814A815B810E9447F3DF91CF9140
:105AB000FF90EF90DF90CF90089571DC9091EE15FC
:105AC0009093ED159093EC159093EB1594E69093CD
:105AD000EA1521ED33E030936C1020936B108111A7
