:100000000C9423290C9463290C9463290C94632980
:100010000C9463290C9463290C9463290C94632930
:100020000C9463290C9463290C9463290C94632920
:100030000C9463290D94C0870C9463290C94632954
:100040000C9463290C942FC70C9463290C94632996
:100050000C9463290C9464C60C9463290D947687E0
:100060000C9463290C94966E0C948C6E0C946329FA
:100070000C9463290C9463290C9463290C946329D0
:100080000C9463290C9463290C9463290C946329C0
:100090000C9463290C9463290C9463290C946329B0
:1000A0000C9463290C9463290C9463290C946329A0
:1000B0000C9463290C9463290C9463290C94632990
:1000C0000C9463290C9463290C9463290C94632980
:1000D0000C9463290C9463290C9463290C94632970
:1000E0000C946329084AD73B3BCE016E84BCBFFD0C
:1000F000C12F3D6C74319ABD56833DDA3D00C77FF8
:1001000011BED9E4BB4C3E916BAAAABE0000008090
:100110003F05A84CCDB2D44EB93836A9020C50B91F
:10012000918688083CA6AAAA2ABE000000803F0744
:10013000634236B79BD8A71A39685618AEBAAB5582
:100140008C1D3CB7CC5763BD6DEDFD753EF6177247
:1001500031BF000000803F08000000BE9224491219
:100160003EABAAAA2ABECDCCCC4C3E00000080BE3D
:10017000ABAAAAAA3E00000000BF000000803F001A
:1001800000000000084178D3BB4387D1133D190E0E
:100190003CC3BD4282AD2B3E68EC8276BED98FE176
:1001A000A93E4C80EFFFBE01C4FF7F3F000000006E
:1001B00000000D94F4240D94980D0D94C5200D9419
:1001C0009A130D94951C0D940B0F0D948D1D0D9489
:1001D00087460D9436580D9400810D94C1140D94EA
:1001E0008D0E0D94CB170D9468320D9456180D9406
:1001F000F20F0D94ED0E0D9440510D94EE800D9480
:10020000DB970D9415300D949F260D9406810D9467
:1002100054320D947E130D94FC800D94FE1C0D94AD
:10022000C51F0D94F21E0D94E33F0D9430250D94DF
:10023000871D0D94C3140D94A70E0D947B1D0D9472
:1002400012130D9401110D947E1D0D942C4C0D94E0
:10025000621D0D94190F0D94CA1D0D948A1D0D94E5
:100260007E910D9474410D9443920D948D260D94BE
:10027000BE200D9477320D9478370D94DD800D9467
:10028000F2800D94A0130D9412250D948A260D94DE
:1002900049120D94811D0D949C1A0D948D130D948B
:1002A00060110D94BB140D946F1D0D94BF140D942B
:1002B000751D0D9413300D94C7140D943C130D94BB
:1002C0006C0F0D940A1C0D9444520D943F0E0D9426
:1002D00099260D94C2800D940D150D949C260D94B5
:1002E000F70F0D94C21F0D94171B0D94B51C0D94A0
:1002F00046130D94781D0D94161C0D94A55A0D945B
:100300001C1B0D94461C0D9414810D94521A0D94CF
:100310009F910D94111C0D940D910D94B4000D94AA
:10032000C60D0D9481260D947D140D94E61C0D943C
:10033000C9140D946C1D0D94C5140D94CB140D941B
:1003400063320D94730E0D946F2D0D942E0E0D943B
:1003500081360D94130E0D944B5D0D944F320D9418
:1003600045320D943B320D940E810D944A320D941A
:10037000DB380D94F3330D9419300D9474140D94EF
:1003800087260D947D180D94A3130D9436140D94A7
:10039000BB0D0D94BD8E0D949D130D9490910D94F5
:1003A000BD0E0D942D100D940A3D0D94330F0D9438
:1003B00096260D94B0240D94B71F0D94221A0D9417
:1003C000E8800D94061A0D94A35C0D9490260D946C
:1003D000FB140D9475200D94F4170D94C7800D94A3
:1003E000DF0E0D9472320D943E200D9417300D9453
:1003F000BC1C0D942E1D0D94ED2D0D9421130D9408
:10040000AD340D94DA560D94755C0D94E3140D948F
:10041000DC540D9441130D94F50F0D94E1800D946F
:100420005F3B0D94D10E0D9439330D9459190D94F1
:1004300099190D94D9800D94CE240D945E320D94AB
:10044000F8800D946D4F0D9484260D940A810D94BF
:10045000161D0D94E5800D9493260D94E4420D94A1
:10046000721D0D9459320D9437130D94070F0D948E
:10047000B8140D94590E0D9418810D9440320D94BA
:10048000A25C0D946D320D94C81F0D94304D4E41F9
:100490004E494E495459494E46CDCCCC3D0AD723FE
:1004A0003C17B7D13877CC2B329595E6241FB14F46
:1004B0000A000020410000C84200401C4620BCBE8B
:1004C0004CCA1B0E5AAEC59D7400407A10F35A00F8
:1004D000A0724E18090010A5D4E80000E87648176D
:1004E0000000E40B54020000CA9A3B000000E1F552
:1004F00005000080969800000040420F000000A018
:100500008601000000102700000000E80300000042
:10051000006400000000000A00000000000100006C
:100520000000002C76D888DC674F0823DFC1DFAEDF
:1005300059E1B1B796E5E3E453C63AE651997696A8
:10054000E8E6C28426EB898C9B62ED407C6FFCEF71
:10055000BC9C9F40F2BAA56FA5F490055A2AF75C9F
:10056000936B6CF9676DC11BFCE0E40D47FEF52051
:10057000E6B500D0ED902E03009435770500808419
:100580001E080000204E0A000000C80C333333332D
:100590000F986E12831141EF8D2114893BE6551699
:1005A000CFFEE6DB18D1844B381BF77C1D901DA4D1
:1005B000BBE424203284725E228100C9F124ECA1C4
:1005C000E53D27363726033C3D380F2E303E121AC4
:1005D0001C180A4309070001C3055072696E74654F
:1005E000722073746F707065642064756520746F19
:1005F000206572726F72732E204669782074686568
:10060000206572726F7220616E6420757365204D73
:1006100039393920746F20726573746172742E20B9
:100620002854656D706572617475726520697320F8
:1006300072657365742E2053657420697420616639
:100640007465722072657374617274696E67290AC9
:10065000001000C90210012C014001220170011894
:1006600001B0010E01F00104015002FA00B002F0E5
:10067000003003E600D003DC009004D2007005C80F
:1006800000A006BE000008B400B009AA00D00BA06C
:1006900000600E960060118C000015820020197811
:1006A00000C01D6E00A0226400B0275A00902C509C
:1006B0000000314600E0343C0010383200903A2807
:1006C00000603C1E00A03D1400803E0A00203F0058
:1006D00000726F746174696F6E206D6174726978F5
:1006E0003A0A001000C90210012C014001220170D9
:1006F000011801B0010E01F00104015002FA00B02E
:1007000002F0003003E600D003DC009004D2007059
:1007100005C800A006BE000008B400B009AA00D0B9
:100720000BA000600E960060118C00001582002066
:10073000197800C01D6E00A0226400B0275A0090F6
:100740002C500000314600E0343C0010383200905C
:100750003A2800603C1E00A03D1400803E0A0020A4
:100760003F00005A5F6D6F76655F636F6D700A00C2
:10077000616C736F20656E61626C6564290A00208C
:100780006E6F742064697361626C65642E205368B7
:10079000617265642077697468002E0A0000473230
:1007A00038580047323859004732385A00473238F3
:1007B0004F0A4D343820503130004D383400473224
:1007C000395034525400473239503454004732388B
:1007D0000A473236435042304930004732380A47E0
:1007E0003236435042304931004732394A25690098
:1007F0004732394A3000473239503354300047329B
:10080000395032425430004732380A4D313039497C
:10081000300A47323950310A4D31303453300A4DA5
:100820003134305330004732380A4D313039493194
:100830000A47323950310A4D31303453300A4D3184
:1008400034305330004732394E503100473239503E
:10085000314300473239490047323954300047327A
:1008600039543100473239532D3100473239493933
:1008700039390A4732395032425430004732394E02
:1008800050310047323950335430004732395034F8
:1008900052540047323950345254004732394400E0
:1008A0004732394100473239570041786973200097
:1008B000206D696E3A00206D61783A00416363658E
:1008C0006C65726174696F6E206C696D69746564C2
:1008D0002E0A0021212053544F502063616C6C6517
:1008E000642062656361757365206F662000206512
:1008F00072726F72202D207265737461727420772A
:10090000697468204D3939390A00464153540053FF
:100910004C4F57000E00000F01000D000F01000F9B
:100920000E0000000F000D00434F4D4D554E494342
:100930004154494F4E0044525952554E004552526F
:100940004F525300494E464F004543484F004572B1
:10095000726F722077726974696E6720746F2045B8
:100960004550524F4D210A0053544F505045442E8C
:1009700020005072696E7465722073746F707065B8
:10098000642064756520746F206572726F72732EB7
:100990002046697820746865206572726F722061E4
:1009A0006E6420757365204D39393920746F20725B
:1009B0006573746172742E202854656D7065726160
:1009C000747572652069732072657365742E205387
:1009D0006574206974206166746572207265737431
:1009E000617274696E67290A004E6F2043686563FF
:1009F0006B73756D2077697468206C696E65206E05
:100A0000756D6265722C204C617374204C696E6543
:100A10003A20004E6F20436865636B73756D2077D5
:100A2000697468206C696E65206E756D6265722CE4
:100A3000204C617374204C696E653A2000636865D0
:100A4000636B73756D206D69736D617463682C20C1
:100A50004C617374204C696E653A20004C696E6578
:100A6000204E756D626572206973206E6F74204C24
:100A7000617374204C696E65204E756D6265722BD2
:100A8000312C204C617374204C696E653A20004D06
:100A90003131300053657269616C20737461747513
:100AA00073206D69736D617463680A00776169749E
:100AB0000A0053442072656164206572726F720A85
:100AC000004B494C4C20627574746F6E2F70696EC8
:100AD0000A002121204B494C4C20636175736564E9
:100AE0002062792000746F6F206D75636820696ED5
:100AF0006163746976652074696D65202D20637566
:100B00007272656E7420636F6D6D616E643A200061
:100B10002121204B494C4C20636175736564206230
:100B20007920007061757365004D363030002066A5
:100B3000696C616D656E745F72756E6F757420009F
:100B400066696C616D656E745F72756E6F75742029
:100B5000540046696C616D656E7452756E6F757484
:100B60002054004D656469612052656D6F7665643F
:100B7000004D6564696120496E7365727465640037
:100B8000627573793A2070617573656420666F725F
:100B900020696E7075740A00627573793A2070610D
:100BA0007573656420666F7220757365720A0062E2
:100BB0007573793A2070726F63657373696E670A33
:100BC00000506C6561736520526573657400505206
:100BD000494E5445522048414C5445440025533A0F
:100BE00020255300706F7765726F6666004B494C25
:100BF0004C45442E20005072696E74657220686105
:100C00006C7465642E206B696C6C28292063616CA0
:100C10006C6564210A00006563686F3A0045727272
:100C20006F723A00204A0020204D343231204900B2
:100C3000202047323920493939390A00556E696612
:100C400069656420426564204C6576656C696E67F1
:100C5000006163746976650A00696E0020537973D8
:100C600074656D2076312E303120002020207C0AE2
:100C7000004E414E0020202E20202000207C00200D
:100C8000666F7220004C43443A0A004353563A0AB6
:100C9000003A0A0A000A42656420546F706F677256
:100CA00061706879205265706F72740050726F6263
:100CB000696E67204661696C65640A0050726F62F4
:100CC000696E67204661696C656400205A3A2000AD
:100CD00020593A200042656420583A2000473238B3
:100CE0004C3000446F6E652E0A003F496E76616C91
:100CF00069642073746F7261676520736C6F742E02
:100D00000A3F557365203020746F20003F454550E1
:100D1000524F4D2073746F72616765206E6F74203F
:100D2000617661696C61626C652E0A00446F6E6564
:100D30002E0A003F496E76616C69642073746F728D
:100D400061676520736C6F742E0A3F5573652030A0
:100D500020746F20003F454550524F4D2073746FF3
:100D600072616765206E6F7420617661696C616283
:100D70006C652E0A004732392050322066696E6950
:100D8000736865642E0A005859206F75747369641E
:100D900065207072696E7461626C6520726164694D
:100DA00075732E0A003F4572726F7220696E204281
:100DB0007573696E6573732043617264206D65613C
:100DC000737572656D656E742E0A004D616E756186
:100DD0006C6C792070726F62696E6720756E7265D7
:100DE00061636861626C6520706F696E74732E0A4E
:100DF00000292E0A0A0050726F62696E67206172C4
:100E00006F756E642028004D65736820696E766189
:100E10006C6964617465642E2050726F62696E67DC
:100E2000206D6573682E0A004D657368207A6572BF
:100E30006F65642E0A0044656661756C7420737476
:100E40006F7261676520736C6F7420302073656CFE
:100E500065637465642E0A004170706C79696E6711
:100E60002074657374207061747465726E2E0A0A42
:100E7000003F496E76616C696420285129207465B1
:100E80007374207061747465726E2E202830207423
:100E90006F2032290A0A0020696E76616C696461EC
:100EA0007465642E0A0A004C6F636174696F6E7317
:100EB00000456E74697265204D65736800537461F6
:100EC0006E6461726420446576696174696F6E3A1C
:100ED00020004D65616E204D657368204865696727
:100EE00068743A200023206F662073616D706C6512
:100EF000733A20000A4D657368206F6E6C7920701C
:100F000061727469616C6C7920706F70756C61745A
:100F100065642E0A0A0050726F62696E6720506F16
:100F2000696E740025532025692F2569002E0A005B
:100F30002F0050726F62696E67206D657368207054
:100F40006F696E74200020616E642074616B65208F
:100F500061206D6561737572656D656E742E0A0032
:100F60006D6D20746869636B2E0A00427573696E3B
:100F70006573732043617264206973200052656D4C
:100F80006F76652026204D65617375726520426518
:100F9000640052656D6F7665207368696D00506CF2
:100FA000616365207368696D20756E646572206E7B
:100FB0006F7A7A6C65000A4D657368206F6E6C7984
:100FC000207061727469616C6C7920706F70756CDF
:100FD000617465642E0A004D65736820506F696EF8
:100FE00074204D656173757265642061743A2000E8
:100FF0004D656173757265004D656173757265004D
:10100000506C616365205368696D2026204D6561D1
:101010007375726500506C616365205368696D205B
:1010200026204D656173757265004D6F76696E6738
:1010300020746F206E657874004D65736820456478
:101040006974696E672053746F7070656400446FD3
:101050006E652045646974696E67204D6573680A22
:1010600000446F6E652045646974696E67204D6544
:1010700073680046696E652054756E696E67204D11
:101080006573680028582C5929206F75747369643A
:1010900065207072696E7461626C6520726164694A
:1010A00075732E0A004F6666736574206F75742021
:1010B0006F6620626F756E64732E20283020746F07
:1010C0002031306D6D290A0A00496E76616C6964C1
:1010D000206D617020747970652E0A0A003F2846E1
:1010E000296164652068656967687420666F72208D
:1010F000426564204C6576656C20436F727265634F
:1011000074696F6E206E6F7420706C6175736962A4
:101110006C652E0A0A003F43616E27742061637478
:10112000697661746520616E6420646561637469C9
:1011300076617465206174207468652073616D65E3
:101140002074696D652E0A0A00426F746820582069
:10115000262059206C6F636174696F6E73206D7502
:101160007374206265207370656369666965642EB7
:101170000A0A003F496E76616C696420677269648F
:101180002073697A6520284A29207370656369662F
:101190006965642028322D39292E0A0A003F28501B
:1011A00029686173652076616C756520696E76616A
:1011B0006C69642028302D36292E0A0A003F2856F3
:1011C000296572626F7365206C6576656C20696D48
:1011D000706C61757369626C652028302D34292E1E
:1011E0000A0A003F285229657065746974696F6E38
:1011F00020636F756E7420696E76616C6964202857
:10120000312B292E0A0A00446F696E672047323954
:101210000023091E09190914095D0A00626564208A
:10122000706C616E65206E6F726D616C203D205B2D
:1012300000436F756C64206E6F7420636F6D706C0B
:10124000657465204C5346210A00436F72726563D2
:101250007465645F5A3D0025532025692F25690078
:101260000A0A002F0054696C74696E67206D6573FB
:101270006820706F696E7420003F4572726F722033
:1012800070726F62696E6720706F696E742E204194
:10129000626F7274696E67206F7065726174696FD6
:1012A0006E2E0A00436F727265637465645F5A3D07
:1012B00000255320332F330054696C74696E672006
:1012C0006D6573682028332F33290A00436F7272CB
:1012D00065637465645F5A3D00255320322F3300E7
:1012E00054696C74696E67206D6573682028322FAD
:1012F00033290A00436F727265637465645F5A3DF7
:101300000054696C74696E6720506F696E740025B3
:101310005320312F330054696C74696E67206D65FA
:1013200073682028312F33290A0020646F6E652EE0
:101330000A0020496E73756666696369656E74207C
:10134000646174610A004578747261706F6C6174D5
:10135000696E67206D6573682E2E2E000000803F39
:101360006EDB2E426EDBAC42922401436EDB2B43DC
:101370004A92564392A48043000096436E5BAB436F
:10138000DCB6C0434A12D643B76DEB4392640044C7
:1013900049120B4400C015440000803F6EDB2E4212
:1013A0006EDBAC42922401436EDB2B434A925643E0
:1013B00092A48043000096436E5BAB43DCB6C0430F
:1013C0004A12D643B76DEB439264004449120B4472
:1013D00000C0154420460020570020204D323037F1
:1013E00020530020460020570020204D3230382066
:1013F000530020204D3230392053002F2F61637469
:10140000696F6E3A006E6F74696669636174696FC3
:101410006E2000626567696E00656E640073686FB8
:101420007700627574746F6E00486F74656E642027
:10143000746F6F20636F6C640A0053656E64204D97
:1014400031303820746F20726573756D650A0049FC
:101450006E736572742066696C616D656E7420616F
:101460006E642073656E64204D3130380A00526519
:101470006865617420446F6E6500526568656174CB
:10148000696E672E2E2E005265686561740048658E
:10149000617465722054696D656F75740053656E73
:1014A00064204D31303820746F2068656174206E7F
:1014B0006F7A7A6C650A004E6F7A7A6C652050619B
:1014C000726B656400706175736564004865616482
:1014D0002063616E6E6F74206265207061726B654F
:1014E00064005061757365004732362043616E6356
:1014F000656C6564004732362048656174696E67C3
:10150000204E6F7A7A6C650057616974696E672046
:10151000666F72206865617475702E0A004669787E
:101520006564204C656E677468205072696D650053
:10153000446F6E65205072696D696E67004D616E13
:1015400075616C207072696D696E672E2E2E004C6D
:10155000656176696E6720473236003F5370656378
:10156000696669656420582C5920636F6F726469DD
:101570006E617465206F7574206F6620626F756E82
:1015800064732E0A003F28522965706561742076C5
:10159000616C7565206E6F7420706C617573696223
:1015A0006C653B206D757374206265206174206CDE
:1015B0006561737420312E0A003F5370656369665C
:1015C000696564206E6F7A7A6C652074656D7065EC
:1015D000726174757265206E6F7420706C617573C2
:1015E00069626C652E0A003F5370656369666965C0
:1015F000642066696C616D656E742073697A65201C
:101600006E6F7420706C61757369626C652E0A0070
:101610003F537065636966696564207072696D65C2
:10162000206C656E677468206E6F7420706C6175D5
:101630007369626C652E0A003F5370656369666961
:101640006564206E6F7A7A6C652073697A65206EA6
:101650006F7420706C61757369626C652E0A003F4F
:1016600052657472616374696F6E204D756C746934
:10167000706C696572206D7573742062652073707B
:10168000656369666965642E0A003F537065636926
:10169000666965642052657472616374696F6E2057
:1016A0004D756C7469706C696572206E6F74207012
:1016B0006C61757369626C652E0A003F53706563D7
:1016C0006966696564206C6179657220686569671F
:1016D0006874206E6F7420706C61757369626C65DC
:1016E0002E0A00473236207374617274696E672E59
:1016F0002E2E0A004F46460A004661646520486562
:10170000696768742000426564204C6576656C6981
:101710006E6720004661696C656420746F20656E99
:1017200061626C6520426564204C6576656C696E0B
:10173000670A00496E76616C6964206D6573682E76
:101740000A0076616C69640A53746F726167652080
:10175000736C6F743A2000696E004D657368206980
:101760007320003F557365203020746F20003F497F
:101770006E76616C69642073746F72616765207343
:101780006C6F742E0A003F454550524F4D207374C4
:101790006F72616765206E6F7420617661696C613C
:1017A000626C652E0A005A2050726F62652050618B
:1017B0007374204265640A005A2050726F6265207B
:1017C0005061737420426564004465766961746990
:1017D0006F6E0025533A2025730046696E69736861
:1017E0006564210A003A207A3A2000206F662000C2
:1017F000476F696E6720746F3A20580043570A009C
:10180000206469723A0020616E676C653A00537417
:10181000617274207261646975733A004D343820C6
:10182000506F696E740025533A2025642F2564009B
:10183000506F736974696F6E696E67207468652094
:1018400070726F62652E2E2E0A004D3438205A2D8C
:1018500050726F6265205265706561746162696C77
:1018600069747920546573740A003F4C656773206E
:101870006F66206D6F76656D656E7420696D706C36
:1018800061757369626C652028302D3135292E0A07
:10189000003F2028582C5929206F7574206F66202E
:1018A000626F756E64732E0A0050726F6265206FEE
:1018B0007574206F6620626F756E6473003F5361AC
:1018C0006D706C652073697A65206E6F7420706C22
:1018D00061757369626C652028342D3530292E0AB4
:1018E000003F2856296572626F7365206C657665C6
:1018F0006C20696D706C61757369626C652028304D
:101900002D34292E0A005374616E64617264204480
:101910006576696174696F6E3A20002052616E6766
:10192000653A2000204D61783A2000204D696E3ADA
:101930002000205369676D613A20004D65616E3A61
:10194000200020440020204D323030205300202839
:1019500044697361626C6564293A0046696C616D23
:10196000656E742073657474696E67730020204D12
:101970003230312058004D617820416363656C65D9
:10198000726174696F6E2028756E6974732F73327B
:10199000290020204D3230332058004D61782066D8
:1019A00065656472617465732028756E6974732F40
:1019B00073290020520020204D3230342050004145
:1019C0006363656C65726174696F6E2028756E69FA
:1019D00074732F7332292028503C7072696E742DF5
:1019E000616363656C3E20523C726574726163741E
:1019F0002D616363656C3E20543C74726176656C46
:101A00002D616363656C3E2900204A00205400204C
:101A1000530020204D323035204200416476616E03
:101A20006365642028423C6D696E5F7365676D6510
:101A30006E745F74696D655F75733E20533C6D69AC
:101A40006E5F66656564726174653E20543C6D69C5
:101A50006E5F74726176656C5F66656564726174F1
:101A6000653E204A3C6A756E635F6465763E290078
:101A700020440020490020204D33303120500048C0
:101A80006F74656E642050494400203B002055006F
:101A900020204D363033204C0046696C616D656EF8
:101AA00074206C6F61642F756E6C6F6164003B20F5
:101AB0000020496E76616C69642065787472756483
:101AC0006572200047322F473320626164207061C5
:101AD00072616D65746572730A00536C6565702E72
:101AE0002E2E005A2050726F626520506173742050
:101AF00042656400205A3A200020593A200042658D
:101B00006420583A20004D65736820706F696E74C8
:101B1000206F7574206F662072616E67650A004ED3
:101B20006F204D6F76652E00456E642066696C658A
:101B3000206C6973740A00426567696E2066696C7F
:101B400065206C6973740A004E6F206D656469616D
:101B50000A00526573756D696E6720534400286EE4
:101B60006F2066696C65290043757272656E74201A
:101B700066696C653A20002E0A0044656C657469DC
:101B80006F6E206661696C65642C2046696C653AED
:101B9000200046696C652064656C657465643A0074
:101BA00043616E6E6F74206F70656E207375626432
:101BB000697220002569730025696D20256973000D
:101BC0002569682025696D202569730025696420D1
:101BD0002569682025696D202569730025697920AC
:101BE000256964202569682025696D2025697300B1
:101BF0005072696E742074696D653A20006F6B00D5
:101C00006F666600490944093D09360928094445BB
:101C10004255473A004D3131332053004D6F6469CE
:101C2000784269673630204F46462E00434F4E4675
:101C300049475F4558504F5254004D45415450411B
:101C4000434B00434F4F4C45525F54454D50455216
:101C50004154555245004348414D4245525F544519
:101C60004D504552415455524500424142595354FA
:101C7000455050494E470041524353004D4F54493F
:101C80004F4E5F4D4F44455300544845524D414CD3
:101C90005F50524F54454354494F4E0045585445A8
:101CA0004E4445445F4D323000435553544F4D5FD1
:101CB0004649524D574152455F55504C4F414400A3
:101CC0004C464E5F5752495445004C4F4E475F4675
:101CD000494C454E414D45004155544F5245504F9A
:101CE00052545F53445F5354415455530053445F1F
:101CF000575249544500524550454154004D554CAA
:101D000054495F564F4C554D45005344434152444E
:101D10000050524F4D50545F535550504F52540045
:101D2000484F53545F414354494F4E5F434F4D4DCD
:101D3000414E445300454D455247454E43595F502F
:101D4000415253455200434153455F4C4947485423
:101D50005F4252494748544E45535300544F4747FA
:101D60004C455F4C494748545300534F46545741E4
:101D700052455F504F574552004255494C445F50C1
:101D8000455243454E54004C4556454C494E475FDD
:101D900044415441005A5F50524F42450052554E03
:101DA0004F5554004155544F4C4556454C005052E8
:101DB000494E545F4A4F420050524F475245535389
:101DC000004155544F5245504F52545F54454D5069
:101DD000004155544F5245504F52545F504F53009D
:101DE000564F4C554D455452494300454550524F6E
:101DF0004D0042494E4152595F46494C455F54524D
:101E0000414E534645520053455249414C5F584F4D
:101E10004E5F584F4646004649524D574152455F26
:101E20004E414D453A4D61726C696E20322E312E15
:101E3000322E3720284D617920323320323032362D
:101E40002031373A34343A33392920534F555243ED
:101E5000455F434F44455F55524C3A676974687516
:101E6000622E636F6D2F4D61726C696E4669726D83
:101E7000776172652F4D61726C696E2050524F54BC
:101E80004F434F4C5F56455253494F4E3A312E30D7
:101E9000204D414348494E455F545950453A4D6F96
:101EA0006469784269673630204558545255444534
:101EB000525F434F554E543A3120555549443A6389
:101EC000656465326132662D343161322D343734C8
:101ED000382D396231322D6335356336326633360B
:101EE000376666002F2F004D31343520533C696E24
:101EF0006465783E206F7574206F662072616E672E
:101F0000652028302D31290A003F4A206F75742042
:101F10006F662072616E67652028302E3031207424
:101F20006F20302E33290A0020580020204D617880
:101F30003A2000200020204D696E3A2000203B20EE
:101F40000020204D323131205300536F66742065DC
:101F50006E6473746F707300250A0046523A002055
:101F6000466C6F773A200050726F6265204F66664C
:101F7000736574205A0050726F6265204F666673F5
:101F80006574205A0064697300656E0043290A0075
:101F900061626C656420286D696E2074656D7020C7
:101FA00000436F6C6420657874727564657320619A
:101FB000726520004F4646004F4E00203B20486F80
:101FC00073742068616E646C696E6720006D6D00CB
:101FD000203B2044697374616E6365200046696C20
:101FE000616D656E742072756E6F757420004D653D
:101FF000736820706F696E74206F7574206F66202F
:1020000072616E67650A004D34323120696E636F0C
:10201000727265637420706172616D65746572209F
:1020200075736167650A00454550524F4D204F4B0F
:102030000A00290A0020746F20003F5A206F75742F
:10204000206F662072616E6765202800290A0020D3
:10205000746F20003F59206F7574206F6620726185
:102060006E676520282D00290A0020746F20003F2C
:1020700058206F7574206F662072616E6765202826
:102080002D002E0A002028302D31302900207661C5
:102090006C7565206F7574206F662072616E676560
:1020A00000416476616E6365204B3D004D3834001D
:1020B000446F6E65207072696E74696E6720666920
:1020C0006C650A004D3737004D33310020204D320A
:1020D0003036205800486F6D65206F6666736574F2
:1020E000004F666673657473204170706C69656437
:1020F000004D494E2F4D415820546F6F204661725C
:1021000000546F6F206661722066726F6D204D49BA
:102110004E2F4D41580A004361703A0070726F6D46
:1021200070745F00626567696E004D302053746F94
:1021300070004D312053746F7000436C69636B20E5
:10214000746F20526573756D652E2E2E00203B0036
:1021500020204D3835312058005A2D50726F62655D
:10216000204F666673657400436F6F6C696E672EEF
:102170002E2E00453120255300206661696C656470
:102180002120426164206865617465722069640A77
:1021900000504944204175746F74756E6500236466
:1021A0006566696E652044454641554C545F004B59
:1021B0004420004B4920004B5020005049442074DB
:1021C000756E696E6720646F6E65002066696E6962
:1021D00073686564212050757420746865206C6193
:1021E0007374204B702C204B6920616E64204B640B
:1021F00020636F6E7374616E74732066726F6D20EE
:1022000062656C6F7720696E746F20436F6E6669CC
:102210006775726174696F6E2E680A0050494420B8
:102220004175746F74756E6500206661696C6564D4
:10223000212074696D656F75740A0050494420410E
:1022400075746F74756E65004175746F74756E6525
:10225000206661696C6564212054696D656F7574D1
:102260002E00206661696C6564212054656D70657F
:1022700072617475726520746F6F20686967680A8F
:1022800000504944204175746F74756E6500504963
:1022900044204379636C65730025532025692F25FD
:1022A0006900204B643A2000204B693A2000204B03
:1022B000703A200020436C61737369632050494475
:1022C000200A002054753A2000204B753A20002047
:1022D0006D61783A2000206D696E3A200020643AE2
:1022E000200020626961733A200048656174696E5C
:1022F000672E2E2E002073746172740A00504944B8
:10230000204175746F74756E65004175746F7475D6
:102310006E65206661696C6564212054656D706529
:1023200072617475726520746F6F20686967682EBA
:1023300000206661696C6564212054656D7065726A
:10234000617475726520746F6F20686967680A0030
:10235000504944204175746F74756E65005049444E
:10236000204175746F74756E65004572723A207500
:1023700074663820666F6E74206E6F7420696E69A3
:102380007469616C697A65642E004572723A2075D1
:1023900074663820666F6E74206E6F7420696E6983
:1023A0007469616C697A65642E004C6576656C2091
:1023B0004D657368005369646520506F696E74736E
:1023C0000047726964204D657368204C6576656CC2
:1023D000696E6700332D506F696E74204C657665A9
:1023E0006C696E67004732394A30004732395033E2
:1023F00052432E2569004D616E75616C2046696CF3
:102400006C2D696E00473239503242543000536DA2
:102410006172742046696C6C2D696E0047323950C8
:102420003354300046696C6C2D696E20416D6F75B8
:102430006E74004D65736820696E76616C696461C5
:102440007465642E0A00496E666F20536372656579
:102450006E00496E76616C696461746520436C6FCF
:1024600073657374004732394900496E76616C694F
:102470006461746520416C6C00436F6E74696E75A5
:102480006520426564204D657368004732395031DC
:10249000430046696C6C2D696E204D65736800427F
:1024A00075696C6420436F6C64204D6573680047E8
:1024B00032394E5031004275696C64204375737433
:1024C0006F6D204D657368004732380A4D313039E1
:1024D00049310A47323950310A4D31303453300ACC
:1024E0004D3134305330004275696C64204D657352
:1024F0006820282429004732380A4D3130394930C4
:102500000A47323950310A4D31303453300A4D3197
:102510003430533000473239256325690A4D313153
:102520003720004D657368202569204C6F61646514
:1025300064004D65736820256920536176656400E9
:102540005361766520426564204D657368004C6F69
:10255000616420426564204D657368004D656D6F50
:10256000727920536C6F74004E6F2053746F7261D8
:102570006765004732395034582573592573522501
:102580006900202D2D2D2D2D005A3A0029002C00F8
:10259000593A00486F6D696E672058595A004732A2
:1025A00038004F6666205072696E74657220426111
:1025B000636B757000473239532D31004F7574705D
:1025C000757420666F722043535600473239543178
:1025D000004F757470757420666F7220486F737445
:1025E000004732395430004D657368204C6576657C
:1025F0006C696E670045646974204D6573680056A8
:10260000616C6964617465204D657368004D616E2D
:1026100075616C6C79204275696C64204D657368D6
:1026200000473239493939390A4732395032425430
:1026300030004275696C64204D65736800372E2048
:102640005361766520426564204D65736800362EBF
:102650002046696E652054756E6520416C6C00479C
:1026600032395034525400352E2056616C69646101
:102670007465204D65736800342E2046696E6520B0
:1026800054756E6520416C6C004732395034525499
:1026900000332E2056616C6964617465204D65734A
:1026A0006800322E20536D6172742046696C6C2D67
:1026B000696E004732395033543000312E20427554
:1026C000696C6420436F6C64204D65736800473209
:1026D000394E503100556E69666965642042656403
:1026E000204C6576656C696E67004F757470757403
:1026F0002055424C20496E666F00473239570055CD
:10270000424C20546F6F6C73004F75747075742059
:102710004D657368204D6170004D6573682053747A
:102720006F72616765004D65736820456469740068
:10273000537465702D42792D537465702055424C49
:102740000046616465204865696768740041637488
:1027500069766174652055424C0047323941004426
:102760006561637469766174652055424C00473237
:102770003944004D6F74696F6E004732394A2569DC
:1027800000486F6D696E67204661696C6564006F13
:1027900070656E00545249474745524544003A20FF
:1027A0000066696C616D656E74007A5F6D696E00BC
:1027B000795F6D617800785F6D696E005265706F4A
:1027C0007274696E6720656E6473746F70207374C1
:1027D000617475730A0020746F6F206C6F6E6720D0
:1027E000657874727573696F6E2070726576656E48
:1027F0007465640A0020636F6C6420657874727578
:1028000073696F6E2070726576656E7465640A0018
:10281000486F6D652025732046697273740000004F
:10282000000000001644000000005761726E696EDF
:10283000673A20486F6D696E672042756D7020445D
:10284000697669736F72203C20310A00020204002D
:1028500000164400001644000016440000A040008A
:1028600000A0400000004000000001000000010046
:10287000008000555555000000400033333300AA56
:10288000AA2A004992240000002000C7711C009968
:10289000991900D1451700555515003BB113002477
:1028A00049120011111100000010000F0F0F00E37A
:1028B000380E0043790D00CCCC0C00C3300C00E87E
:1028C000A20B0064210B00AAAA0A00703D0A009D19
:1028D000D80900427B090092240900DCD308008853
:1028E0008808001042080000000800F0C1070087B7
:1028F00087070075500700711C07003EEB0600A11A
:10290000BC06006990060066660600703E0600611F
:1029100018060017F4050074D105005BB00500B27D
:10292000900500627205005555050078390500B81C
:102930001E0500050505004EEC040087D40400A127
:10294000BD040090A7040049920400C17D0400EE7C
:10295000690400C7560400444404005C32040008C3
:1029600021040041100400000004003FF00300F8BF
:10297000E0030026D20300C3C30300CCB503003A32
:10298000A803000A9B0300388E0300C08103009F48
:10299000750300D0690300505E03001D530300342B
:1029A000480300913D030033330300162903003828
:1029B0001F030097150300300C0300030303000BF3
:1029C000FA020049F10200BAE802005CE002002DC0
:1029D000D802002DD0020059C80200B0C002003158
:1029E000B90200DAB10200AAAA0200A0A30200BC48
:1029F0009C0200FA9502005C8F0200DF88020082D0
:102A0000820200457C020027760200277002004304
:102A10006A02007C640200D05E02003F590200C8D6
:102A2000530200FFFDFCFAF8F6F4F2F0EEECEAE9EE
:102A3000E7E5E3E1E0DEDCDAD9D7D5D4D2D0CFCDFB
:102A4000CBCAC8C7C5C3C2C0BFBDBCBAB9B7B6B48C
:102A5000B3B2B0AFADACAAA9A8A6A5A4A2A1A09EEE
:102A60009D9C9A99989795949392908F8E8D8B8A2E
:102A70008988878684838281807F7E7D7B7A79784E
:102A800077767574737271706F6E6D6C6B6A69684E
:102A900067666564636261605F5E5D5C5B5A59583E
:102AA000585756555453525150504F4E4D4C4B4A17
:102AB0004A4948474646454443424241403F3E3EDC
:102AC0003D3C3B3B3A393838373635353433323292
:102AD0003130302F2E2E2D2C2B2B2A292928272739
:102AE00026252524232322212120201F1E1E1D1CD4
:102AF0001C1B1B1A19191818171616151514131361
:102B000012121111100F0F0E0E0D0D0C0C0B0A0AE4
:102B1000090908080707060605050404030302025D
:102B20000100000000164400001644000016440096
:102B3000000000000000000000000053657474698C
:102B40006E67732053746F72656400290A002062F7
:102B5000797465733B2063726320005365747469F4
:102B60006E67732053746F7265642028004545506A
:102B7000524F4D20496E697469616C697A65640AC7
:102B8000004D65736820736176656420696E2073FB
:102B90006C6F7420003F556E61626C6520746F200D
:102BA00073617665206D65736820646174612E0AB7
:102BB0000020736C6F743D00206D65736865735FF2
:102BC000656E643D004532454E443D00206D6573A1
:102BD0006820736C6F747320617661696C61626CDC
:102BE000652E0A003F496E76616C696420736C6FD4
:102BF000742E0A004D657368206C6F6164656420F3
:102C000066726F6D20736C6F7420003F556E616249
:102C10006C6520746F206C6F6164206D6573682033
:102C2000646174612E0A0048617264636F64656454
:102C30002044656661756C742053657474696E67B1
:102C400073204C6F616465640020286D6D2900203D
:102C50003B204C6576656C696E67200020204D3402
:102C60003230205300556E696669656420426564A0
:102C7000204C6576656C696E670020460020480030
:102C800020204D3134352053004D617465726961E7
:102C90006C2068656174757020706172616D657417
:102CA00065727300526574726163742028533C6CC2
:102CB000656E6774683E20463C6665656472617443
:102CC000653E205A3C6C6966743E29005265636F0C
:102CD0007665722028533C6C656E6774683E2046AA
:102CE0003C66656564726174653E29004175746F68
:102CF0002D526574726163742028533C656E616265
:102D00006C653E290020204D393030204B004C6945
:102D10006E65617220416476616E636500203B20C0
:102D200053656E736F72200020440020204D3431B3
:102D30003220530046696C616D656E742072756E49
:102D40006F75742073656E736F7200206D657368A4
:102D500065732E0A0A00454550524F4D2063616E3F
:102D600020686F6C642000416374697665204D654E
:102D7000736820536C6F74200020204D313439204B
:102D800043203B20556E69747320696E2043656C47
:102D9000736975730A0054656D706572617475723C
:102DA0006520556E697473002020473231203B0046
:102DB0004C696E65617220556E697473003F4D6594
:102DC000736820746F6F2062696720666F72204598
:102DD0004550524F4D2E0A00454550524F4D2064EC
:102DE00061746173697A65206572726F722E0A0070
:102DF0004572723A20454550524F4D204352430090
:102E0000202863616C63756C6174656429210A0014
:102E100020213D2000454550524F4D204352432034
:102E20006D69736D61746368202D202873746F72EF
:102E30006564292000454550524F4D20436F727202
:102E40007570740A002053697A653A2000496E64EF
:102E500065783A200055424C2072657365740A000B
:102E6000206C6F616465642066726F6D2073746F8F
:102E7000726167652E0A004D657368200053746F98
:102E80007265642073657474696E6773207265740B
:102E900072696576656400290A0020627974657339
:102EA0003B2063726320002073746F72656420732B
:102EB000657474696E67732072657472696576658E
:102EC0006420280000004843000048430000A04060
:102ED00000008C42000048430000C8420000FA4451
:102EE0000040D143D0070000D0070000640000007C
:102EF00010270000204D61726C696E3D56383829EC
:102F00000A00454550524F4D2076657273696F6EC9
:102F1000206D69736D617463682028454550524F78
:102F20004D3D0024F404D9201BC40C5C0E9804C44D
:102F3000095F0265077101F405F900FB04B300485D
:102F4000048700C10369005803550003034500BE10
:102F5000023A008402310053022A002902250004AB
:102F6000022000E4011C00C8011900AF01170098FD
:102F7000011400840113007101100061011000515F
:102F8000010E0043010D0036010B002B010B002048
:102F9000010B00150109000C01090003010800FBE9
:102FA000000800F3000800EB000700E4000600DE64
:102FB000000600D8000600D2000600CC000500C7BD
:102FC000000500C2000500BD000400B9000400B502
:102FD000000400B1000400AD000400A9000400A535
:102FE000000300A20003009F0004009B0003009860
:102FF0000003009500020093000300900003008D81
:103000000002008B0003008800020086000200849A
:10301000000300810002007F0002007D0002007BAF
:1030200000020079000200770001007600020074BF
:1030300000020072000100710002006F0002006DCA
:103040000001006C0002006A0001006900020067D4
:1030500000010066000100650001006400020062DA
:1030600000010061000100600001005F0002005DDE
:103070000001005C0001005B0001005A00010059E2
:1030800000010058000100570001005600010055E2
:1030900000010054000100530000005300010052E1
:1030A00000010051000100500001004F0001004EDE
:1030B0000000004E0001004D0001004C0001004BDB
:1030C0000000004B0001004A0001004900010048D7
:1030D00000000048000100470001004600000046D3
:1030E00000010045000000450001004400010043CC
:1030F00000000043000100420000004200010041C6
:1031000000000041000100400001003F0000003FBE
:103110000001003E0000003E0001003D0000003DB7
:103120000001003C0000003C0000003C0001003BAE
:103130000000003B0001003A0000003A00010039A5
:10314000000000390001003800000038000000389D
:103150000001003700000037000100360000003693
:103160000000003600010035000000350000003589
:10317000000100340000003400000034000100337E
:103180000000003300000033000100320000003274
:103190000000003200010031000000310000003169
:1031A0000001003000000030000000300001002F5E
:1031B0000000002F0000002F0000002F0001002E53
:1031C0000000002E0000002E0001002D0000002D48
:1031D0000000002D0000002D0001002C0000002C3C
:1031E0000000002C0000002C0001002B0000002B30
:1031F0000000002B0000002B0001002A0000002A24
:103200000000002A0000002A000100290000002917
:10321000000000290000002900000029000100280A
:1032200000000028000000280000002800000028FE
:1032300000010027000000270000002700000027F1
:1032400000000027000100260000002600000026E4
:1032500000000026000000260001002500000025D7
:1032600000000025000000250000002500000025CA
:1032700000010024000000240000002400000024BD
:1032800000000024000100230000002300000023B0
:1032900000000023000000230000002300000023A2
:1032A0000001002200000022000000220000002295
:1032B0000000002200000022000100210000002187
:1032C000000000210000002100000021000000217A
:1032D000000000210001002000000020000000206C
:1032E000000000200000002000000020000000205E
:1032F000000000200001001F0000001F0000001F50
:103300000000001F0000001F0000001F0000001F41
:103310000001001E0000001E0000001E0000001E34
:1033200000000024F4D43050C38E20C2A240178283
:103330008B7011127A910D816CD90AA861E108C7CE
:10334000586607615143061E4B5D05C145A7041A27
:10335000411104093D9803713931034036DB0265A0
:10336000339102D4305402802E1D02632CEE01757D
:103370002AC501B028A001102781018F2564012BE7
:10338000244B01E0223401AC211F018D200D01806E
:103390001FFC00841EED00971DDF00B81CD200E664
:1033A0001BC600201BBC00641AB200B219A8000A98
:1033B00019A0006A189900D117910040178B00B529
:1033C00016840031167E00B31579003A157300C7D4
:1033D000146F0058146A00EE13660088136300250A
:1033E000135E00C7125B006C12570015125400C127
:1033F00011510070114F0021114B00D61049008D62
:103400001047004610440002104200C00F400080E8
:103410000F3E00420F3C00060F3B00CB0E380093DE
:103420000E37005C0E3500270E3400F30D3200C15C
:103430000D3100900D3000600D2E00320D2D000575
:103440000D2C00D90C2B00AE0C2900850C29005C3A
:103450000C2700350C27000E0C2600E80B2400C4B6
:103460000B2400A00B23007D0B23005A0B210039F5
:103470000B2100180B2000F80A1F00D90A1E00BB00
:103480000A1E009D0A1D00800A1D00630A1C0047D9
:103490000A1B002C0A1B00110A1A00F7091A00DD8A
:1034A000091900C4091900AB091900920917007B1A
:1034B000091800630917004C091600360916002088
:1034C0000916000A091500F5081500E0081400CCDB
:1034D000081400B8081400A4081400900813007D14
:1034E0000812006B08130058081200460812003436
:1034F000081100230811001208110001081100F042
:10350000071000E0071000D0071000C0071000B03F
:10351000070F00A107100091070E0083070F00742A
:10352000070F0065070E0057070E0049070E003B06
:10353000070D002E070E0020070D0013070D0006D3
:10354000070D00F9060C00ED060D00E0060C00D496
:10355000060C00C8060C00BC060C00B0060C00A44B
:10356000060B0099060C008D060B0082060B0077F7
:10357000060B006C060B0061060A0057060B004C98
:10358000060A0042060A0038060A002E060A00242F
:10359000060A001A060A001006090007060A00FDBE
:1035A000050900F4050900EB050900E2050900D949
:1035B000050900D0050900C7050900BE050900B5C9
:1035C000050800AD050800A50509009C0508009444
:1035D0000508008C050800840508007C05080074B7
:1035E0000508006C050700650508005D0507005625
:1035F0000508004E0507004705070040050800388C
:10360000050700310507002A050700230507001CF0
:10361000050600160507000F05070008050600024D
:10362000050700FB040600F5040700EE040600E8A9
:10363000040600E2040700DB040600D5040600CF00
:10364000040600C9040600C3040600BD040600B752
:10365000040600B1040500AC040600A6040600A0A0
:103660000405009B04060095040500900406008AEA
:1036700004050085040500800406007A0405007531
:10368000040500700405006B040500660405006174
:103690000405005C04050057040500520405004DB4
:1036A00004050048040500430405003E0404003AF4
:1036B00004050035040500300404002C040500272F
:1036C000040400230405001E0404001A0404001668
:1036D000040500110404000D04040009040500049D
:1036E00004040000040400FC030400F8030400F4D4
:1036F000030400F0030400EC030400E8030400E406
:10370000030400E0030400DC030400D8030400D435
:10371000030400D0030400CC030400C8030300C565
:1037200003030020436F756E7420583A0045310042
:1037300045002C2073797374656D2073746F7070FD
:10374000656421204865617465725F49443A2000D0
:10375000544845524D414C2052554E415741590015
:10376000546865726D616C2052756E617761790085
:1037700048656174696E67204661696C65640048DC
:10378000656174696E67206661696C6564004D35BA
:103790003234004D3131322053687574646F776E66
:1037A000004572723A204D415854454D50004D41EC
:1037B0005854454D5020747269676765726564009E
:1037C0004572723A204D494E54454D50004D494E78
:1037D00054454D50207472696767657265640020B6
:1037E0002F0020403A0020573A00496E76616C69FC
:1037F000642065787472756465720A007C3C3E5E74
:103800002B3D3F2F5B5D3B2C2A225C0043616E6E9B
:103810006F74206F70656E2073756264697220002A
:103820004D6564696120496E6974204661696C0068
:1038300053442063617264206F6B0A006F70656E81
:10384000526F6F74206661696C65640A00766F6CF4
:10385000756D652E696E6974206661696C65640AB0
:10386000004E6F20534420636172640A0053442069
:10387000636172642072656C65617365640A000A35
:103880004D3234004D3233202573002E0A006F7004
:10389000656E206661696C65642C2046696C653ACA
:1038A000200046696C652073656C65637465640A05
:1038B000002053697A653A200046696C65206F7074
:1038C000656E65643A2000454E4420535542524F80
:1038D0005554494E450A002220706F730022207013
:1038E0006172656E743A2200535542524F555449E5
:1038F0004E452043414C4C207461726765743A22F6
:103900000053756263616C6C204F766572666C6FF4
:1039100077004578636565646564206D6178205340
:103920005542524F5554494E452064657074683A6B
:103930000057726974696E6720746F2066696C65E0
:103940003A2000554E4C4F41442046494C414D458C
:103950004E54004C4F41442046494C414D454E5435
:103960000046494C414D454E54204348414E474541
:10397000004572723A207574663820666F6E742046
:103980006E6F7420696E697469616C697A65642E02
:103990000020003A003A002568753A2530326875F3
:1039A0000025303268753A2530326875002530328E
:1039B00068752725303268750025687564202530C4
:1039C0003268753A25303268750042656400456E8C
:1039D000636C6F7375726500450020002000200045
:1039E0002000200025002020202020202000202052
:1039F000202000657272001FE0201020102010109F
:103A00002010202010201030300840048003001FB8
:103A1000E03FF03FF03FF01FE01FE03FF03FF03F9E
:103A2000F00FC0078003003FFFF038007030FC301B
:103A300020FC102078102030102C00D02E31D02FF8
:103A40007BD02F7BD02E31D02C00D020301020788E
:103A50001020FC1030FC303800703FFFF03FFFF0CA
:103A60003800703186302387102787902F87D02F1A
:103A700003D02030102078102078102030102F0331
:103A8000D02F87D027879023871031863038007059
:103A90003FFFF04D6F6469784269673630205265A8
:103AA0006164792E005072696E74696E672E2E2ED5
:103AB0000063616E63656C005072696E74204162D0
:103AC0006F727465640055492041626F7274656459
:103AD000004D323520500A4D3234005072696E74F8
:103AE0002050617573656400526573756D6500558E
:103AF000492050617573650050617573696E672E5A
:103B00002E2E00726573756D65004D32340000FE17
:103B10000003FF8007C7C00701E00000E00000F0DD
:103B20000000700400700E00701F00703F80F00EE7
:103B300000E00F01E007C7C003FF8000FE0000FEA9
:103B40000003FF8007C7C00F01E00E00E03F80F0D8
:103B50001F00700E00700400700000700000F00084
:103B600000E00701E007C7C003FF8000FE000E0071
:103B70000E000E000E000E000E000E000E007FC0A4
:103B80003F801F000E00040004000E001F003F8055
:103B90007FC00E000E000E000E000E000E000E0084
:103BA0000E00FFFFFF7F80FFC0FFC0FFC07F807F50
:103BB00080FFC0FFC0FFC03F001E000C0050726FAE
:103BC0006265205A204F66667365740052756E6F89
:103BD00075742044697374206D6D004C6F616420AE
:103BE0006D6D00556E6C6F6164206D6D0046696C83
:103BF0002E204469612E004520696E206D6D5E3374
:103C000000416476616E6365204B004D3330332094
:103C100055312045256920532569004175746F741D
:103C2000756E65202A20504944005049442D442097
:103C30002A005049442D49202A005049442D502043
:103C40002A0020082046616374002008204D617816
:103C5000002008204D696E004F6666004F6E0041DF
:103C600075746F74656D70004D696E205472617665
:103C7000656C205370656564004D696E2056656CF7
:103C80006F63697479004D617820402053706565D9
:103C900064004D6178204520416363656C004D618F
:103CA00078204020416363656C0054726176656CD6
:103CB00020416363656C00526574726163742041D6
:103CC0006363656C00416363656C0050726F62658D
:103CD000205A204F66667365740050726F626520CB
:103CE00059204F66667365740050726F6265205884
:103CF000204F666673657400402073746570732F7F
:103D00006D6D00416476616E636564205365747403
:103D1000696E6773003F0043616E63656C00496EB6
:103D20006974004D34323800496E697469616C6998
:103D30007A6520454550524F4D0046696C616D656E
:103D40006E740054656D70657261747572650053B0
:103D5000746570732F6D6D0050726F6265204F66D1
:103D60006673657473004A756E6374696F6E204480
:103D7000657600416363656C65726174696F6E009E
:103D80004D617820537065656420286D6D2F73290F
:103D90000053657420486F6D65204F6666736574C7
:103DA0007300436F6E66696775726174696F6E0048
:103DB0003F004E65787420506F696E7400446F6EDA
:103DC00065004E65787400556E7265747261637437
:103DD000205600556E726574722E206D6D00486F0E
:103DE00070206D6D005265747261637420560052CC
:103DF000657472616374206D6D004175746F2D522E
:103E0000657472616374004E6F7A7A6C6500466106
:103E10006E20537065656400436F6E6669677572E6
:103E20006174696F6E00526573746F7265204465CA
:103E30006661756C7473004C6F61642053657474B3
:103E4000696E67730053746F72652053657474698B
:103E50006E67730050726568656174202420436F3B
:103E60006E66004F6666004F6E0052756E6F757419
:103E70002053656E736F72005265747261637400D3
:103E800050726F6265205A204F66667365740041F8
:103E90006476616E6365642053657474696E6773DC
:103EA000004D61696E004D37303220542564004D5D
:103EB00036303020423020542564004D37303220D7
:103EC0003B2564004D37303120542564004D373098
:103ED00032004D373031004D363030204230004D09
:103EE00061696E00436F6E74696E7565004F66663A
:103EF000004F6E0052756E6F75742053656E736F50
:103F000072005075726765206D6F7265005245537F
:103F1000554D45204F5054494F4E533A0050524949
:103F20004E5420504155534544002F00200020207E
:103F30004E6F7A7A6C653A20005061726B696E67D9
:103F40002E2E2E0000005761697420666F72006685
:103F5000696C616D656E74206368616E676500747D
:103F60006F207374617274005761697420666F7298
:103F70000066696C616D656E7420756E6C6F61644E
:103F800000004E6F7A7A6C652068656174696E67AF
:103F900000506C6561736520776169742E2E2E0068
:103FA00000507265737320627574746F6E00746F65
:103FB0002068656174206E6F7A7A6C650000496EC6
:103FC000736572742066696C616D656E7400616EF4
:103FD0006420707265737320627574746F6E007400
:103FE0006F20636F6E74696E756500576169742028
:103FF000666F720066696C616D656E74206C6F61CE
:10400000640000507265737320427574746F6E00A3
:10401000746F20726573756D65207072696E7400BF
:10402000005761697420666F72207072696E740047
:10403000746F20726573756D652E2E2E00005761AA
:10404000697420666F720066696C616D656E7420BC
:10405000707572676500003F004261636B005374C6
:104060006F70004368616E67652046696C616D65BD
:104070006E74004E6F204D65646961005072696E08
:10408000742066726F6D204D6564696100436861DC
:104090006E6765204D65646961004D323100436F84
:1040A0006E66696775726174696F6E0054656D70D4
:1040B00065726174757265004D6F74696F6E005240
:1040C0006573756D65205072696E740054756E6508
:1040D0000053746F70205072696E74005061757374
:1040E00065205072696E7400496E666F205363726A
:1040F00065656E003F005374617274205072696E82
:10410000740043616E63656C005072696E740043A5
:10411000616E6E6F7420656E746572207375626473
:1041200069723A200002202E2E004D61696E002136
:1041300000486F74656E6420746F6F20636F6C64E9
:10414000004261636B0050726F63656564004D6F80
:104150007665204578747275646572004D6F746978
:104160006F6E0044697361626C6520537465707092
:10417000657273004D3834004D34382050726F62D0
:10418000652054657374004732384F0A4D34382027
:1041900050313000426564205472616D6D696E6704
:1041A00000556E696669656420426564204C6576D9
:1041B000656C696E67004732385A004732385900DB
:1041C000486F6D6520400047323858004175746F64
:1041D00020486F6D65004D61696E00436F6F6C64C0
:1041E0006F776E00507265686561742024004661C7
:1041F0006E205370656564207E004E6F7A7A6C6520
:10420000004D61696E0050726F6265205A204F66E2
:104210006673657400416476616E6365204B004689
:104220006C6F770046616E205370656564207E0078
:104230004E6F7A7A6C65005370656564004D6169F4
:104240006E005A2056616C7565004732380A4D3150
:104250003039205325690A47323920503100486FE0
:1042600074656E642054656D70002E2569004732B8
:10427000395036432D0048656967687420416D6F79
:10428000756E740041646A757374204D657368209F
:104290004865696768740046696E652054756E6587
:1042A00020436C6F73657374004732395034540087
:1042B00046696E652054756E6520416C6C0047320E
:1042C0003950345254004732380A47323643504846
:1042D00025690056616C6964617465204375737467
:1042E0006F6D204D657368004732380A4732364398
:1042F00050423049310056616C6964617465204DEB
:1043000065736820282429004732380A473236432B
:10431000504230493000000C0F00FE07022503BB5D
:10432000017FFE08FE08FE05080806000040F0C8F0
:104330008888987810050808060000C0F8888888E2
:104340008888F80505050600012030F830200508AA
:10435000080600002070F820202020E0050909064A
:1043600000FF2070A8A8B8888870200705050700FE
:1043700001D86C366CD80509090600FFF8A88888B2
:10438000888888A8F8050A0A0600FE205050505078
:1043900088A8A8887003030306000340A040FFFF1D
:1043A000FFFFFFFFFFFFFFFFFFFFFFFFFFFFFFFF1D
:1043B000FFFFFFFF0000000605FF010707060200E0
:1043C00080808080800080030303060105A0A0A0F8
:1043D00005060606000050F85050F8500509090679
:1043E00000FF2070A8A07028A8702005070706000D
:1043F00000C8C8102040989805070706000040A094
:10440000A040A8906801030306020580808003098C
:10441000090601FF204040808080404020030909B8
:104420000601FF804040202020404080050707060D
:10443000000020A8702070A82005050506000120B6
:1044400020F820200203030601FFC040800501017F
:10445000060003F8020202060100C0C005070706B5
:10446000000008101020404080050707060000707B
:104470008898A8C8887003070706010040C040401C
:104480004040E0050707060000708808102040F84B
:10449000050707060000F8081030088870050707B0
:1044A00006000010305090F81010050707060000B5
:1044B000F880F00808887005070706000030408083
:1044C000F0888870050707060000F8081010202003
:1044D0002005070706000070888870888870050727
:1044E000070600007088887808106002050506013C
:1044F00000C0C000C0C00206060601FFC0C000C068
:10450000408003050506010120408040200503038B
:10451000060002F800F8030505060101804020406E
:10452000800507070600007088102020002005077E
:10453000070600007088B8A8B88070050707060055
:1045400000708888F8888888050707060000F0480A
:1045500048704848F0050707060000708880808092
:104560008870050707060000F04848484848F005ED
:104570000707060000F88080F08080F8050707062E
:104580000000F88080F0808080050707060000703A
:10459000888080988870050707060000888888F85A
:1045A000888888030707060100E04040404040E05B
:1045B0000507070600003810101010906005070767
:1045C0000600008890A0C0A090880507070600009C
:1045D000808080808080F805070706000088D8A8C2
:1045E000888888880507070600008888C8A89888F2
:1045F0008805070706000070888888888870050786
:1046000007060000F08888F0808080050707060014
:104610000070888888A89068050707060000F08861
:1046200088F0A09088050707060000708880700851
:104630008870050707060000F820202020202005AC
:10464000070706000088888888888870050707069D
:1046500000008888888850502005070706000088D9
:10466000888888A8A8500507070600008888502079
:1046700050888805070706000088885020202020E1
:10468000050707060000F80810204080F803090914
:104690000601FFE080808080808080E005070706BB
:1046A0000000804040201010080309090601FFE0C7
:1046B00020202020202020E00503030600052050B4
:1046C000880501010600FEF803030306010580408A
:1046D000200505050600007008788878050707069C
:1046E00000008080F0888888F005050506000070CD
:1046F0008080887005070706000008087888888889
:10470000780505050600007088F08070050707062B
:104710000000304840E04040400507070600FE70BA
:104720008888887808700507070600008080F08870
:104730008888880307070601004000C0404040E029
:104740000409090601FE10003010101010906005D9
:10475000070706000080808890E09088030707061E
:104760000100C04040404040E0050505060000D083
:10477000A8A8A8A8050505060000B0C8888888056F
:10478000050506000070888888700507070600FE8A
:10479000F0888888F080800507070600FE78888802
:1047A00088780808050505060000B0C880808005E7
:1047B000050506000078807008F005070706000070
:1047C0002020F8202020180505050600008888888C
:1047D00098680505050600008888885020050505AD
:1047E0000600008888A8A850050505060000885026
:1047F0002050880507070600FE88888850204080E2
:10480000050505060000F8102040F8030909060117
:10481000FF2040404080404040200109090602FF3F
:104820008080808080808080800309090601FF806D
:10483000404040204040408005030306000248A855
:1048400090FF41425300504C41004E6F742053443E
:10485000207072696E74696E670A0053442070722A
:10486000696E74696E67206279746520006672658E
:10487000736800646F696E67002066696C653A2032
:10488000004E6F7720002F6175746F25632E6700CF
:104890000280000000000000000000000000000096
:1048A0000180000000000000000000000000000087
:1048B0000180000000000000000000000000000077
:1048C0000180000000000000000000000000000067
:1048D0000180000000000000000000000000000057
:1048E0000180000000000000000000000000000047
:1048F0000180000000000000000000000000000037
:104900000180000000000000000000000000000026
:104910000180000000000000000000000000000016
:104920000180000000000000000000000000000006
:1049300001800000000000000000000000000000F6
:1049400001800000000000000000000000000000E6
:1049500001800000000000000000000000000000D6
:1049600001800000000000000000000000000000C6
:1049700001800000000000000000000000000000B6
:1049800001800000000000000000000000000000A6
:104990000180000000000000000000000000000096
:1049A0000180000000000000000000000000000086
:1049B0000180000000000000000000000000000076
:1049C0000180000000000000000000000000000066
:1049D0000180000000000000000000000000000056
:1049E0000180000000000000000000000000000046
:1049F0000180000000000000000000000000000036
:104A00000180000000000000000000000000000025
:104A10000180000000000000000000000000000015
:104A20000180000000000000000000000000000005
:104A30000180000001FFFFFFFFFFFFFFFF8000007C
:104A400001800000000000000000000000000000E5
:104A500001800000000FC7E000000000000000001F
:104A60000180000000084230001E0002100000001B
:104A7000018000000000C210C6210FC2200000000B
:104A80000180000000078210C6210102C000000062
:104A90000180000000078210AA210103000000002D
:104AA00001800000000C0230AA210102C0000000B9
:104AB00001800000000847E0721E00C230000000C4
:104AC00001800000000FC000000000000000000096
:104AD0000180000000000000000000000000000055
:104AE0000180000001FFFFFFFFFFFFFFFF800000CC
:104AF0000180000000000000000000000000000035
:104B00000180000000000000000000000000000024
:104B10000180000000000000000000000000000014
:104B20000180000000000000000000000000000004
:104B300001800000000000000000000000000000F4
:104B400001800000000000000000000000000000E4
:104B500001800000000000000000000000000000D4
:104B600001800000000000000000000000000000C4
:104B700001800000000000000000000000000000B4
:104B800001800000000000000000000000000000A4
:104B90000180000000000000000000000000000094
:104BA0000180000000000000000000000000000084
:104BB0000180000000000000000000000000000074
:104BC0000180000000000000000000000000000064
:104BD0000180000000000000000000000000000054
:104BE0000180000000000000000000000000000044
:104BF0000180000000000000000000000000000034
:104C00000180000000000000000000000000000023
:104C10000180000000000000000000000000000013
:104C20000180000000000000000000000000000003
:104C300001800000000000000000000000000000F3
:104C400001800000000000000000000000000000E3
:104C500001800000000000000000000000000000D3
:104C600001800000000000000000000000000000C3
:104C700001800000000000000000000000000000B3
:104C800001800000000000000000000000000000A3
:104C9000016D61726C696E66772E6F726700322EDD
:104CA000312E322E37001FFFFFFFFFFFFF60000095
:104CB000000001FF400000000000FF800000000035
:104CC000007F83CF00000C303F87FF80000C301F37
:104CD000867980000C000F8C30C7838C30E78C30D5
:104CE000CFC7CC31F38C30DCECEC33B98C30D86CE2
:104CF0006C33198C30D06C0C33198C30D86C0C336D
:104D0000198C30DC6C0E3B198C30CF7C079F198CD2
:104D100030C77C038F1940000000000002600000D3
:104D2000000000061FFFFFFFFFFFF81000C9021080
:104D3000012C014001220170011801B0010E01F0A7
:104D40000104015002FA00B002F0003003E600D086
:104D500003DC009004D2007005C800A006BE00006D
:104D600008B400B009AA00D00BA000600E96006045
:104D7000118C000015820020197800C01D6E00A063
:104D8000226400B0275A00902C500000314600E009
:104D9000343C0010383200903A2800603C1E00A0DD
:104DA0003D1400803E0A00203F00002020506C612E
:104DB0006E6E657242756666657242797465733AA5
:104DC00020002046726565204D656D6F72793A202E
:104DD0000020436F6D70696C65643A204D617920E5
:104DE000323320323032360A00204C617374205541
:104DF0007064617465643A20323032362D30312D62
:104E00003232207C20417574686F723A2028334416
:104E1000776F726B2C2068747470733A0A004D615E
:104E2000726C696E20322E312E322E370A002053DA
:104E30006F6674776172652052657365740A00202D
:104E40005761746368646F672052657365740A0004
:104E50002042726F776E206F75742052657365748F
:104E60000A002045787465726E616C205265736526
:104E7000740A00506F77657255700A00737461721E
:104E8000740A004732385859004D313030310065CE
:104E900072726F722077726974696E6720746F2006
:104EA00066696C650A00446F6E6520736176696E91
:104EB000672066696C652E0A004D323900456E64C4
:104EC00073746F707300255320256320256320259C
:104ED0006320256300656E6473746F707320686966
:104EE000743A200000000A0B02090C0D0E0807039B
:104EF00004010000000000000000000000000000AD
:104F000000000000000000000000000000000000A1
:104F1000121110000000000000000000000000005E
:104F200000000000000000000000702600009B1E32
:104F30000000C3150000C70D0000F40700004F0477
:104F4000000040020000260100004D6F766520241D
:104F50006D6D00302E303235004D6F766520302E6D
:104F6000316D6D004D6F766520316D6D004D6F7642
:104F7000652031306D6D004D6F7665204178697325
:104F8000004D6F7665202A004D6F76652040004603
:104F90004842484368616E67652046696C616D658B
:104FA0006E7400556E6C6F61642046696C616D654E
:104FB0006E74004C6F61642046696C616D656E743F
:104FC000005072656865617420437573746F6D007D
:104FD000507265686561742024004261636B002033
:104FE000005072696E742066726F6D204D65646941
:104FF00061002000200020002000DB0FC93F45BCDD
:10500000DA3F8FB30240FCF0274056946140FE4BDC
:105010009B4084A5D840E0231841346A5641E859A2
:10502000974164DBD5416E271742B4B75542CE1A7B
:105030009742C8AED542B5885A43D40684BFA65F0E
:10504000A7BF7443E0BF10B11AC01C2C58C0E8F6CB
:1050500097C0B849D6C04E4E17C124D355C180243D
:1050600097C1A0B5D5C1121A17C244AE55C2781760
:1050700097C26CACD5C267885AC320746F6F206C1E
:105080006F6E6720657874727573696F6E207072C9
:105090006576656E7465640A0020636F6C642065D4
:1050A0007874727573696F6E2070726576656E7450
:1050B00065640A0044697361626C6552756E6F7550
:1050C000740050757267654D6F726500506175733D
:1050D000656400436F6E74696E7565004C6F616442
:1050E0002046696C616D656E74205400496E73656D
:1050F00072742066696C616D656E7420616E6420E7
:1051000073656E64204D3130380A00726573756DB9
:105110006564004469736D69737300526573756DDE
:10512000696E6700FF01FF204500205A00205900EA
:1051300020204D39322058005374657073207065FB
:105140007220756E697400220A00556E6B6E6F775F
:105150006E20636F6D6D616E643A20220020420004
:105160002050006F6B0020453A00205A3A00205929
:105170003A00583A006F6B0A00526573656E643AE4
:10518000200000002200250028002B002E00310006
:10519000340002010000050108010B01000021009C
:1051A000240027002A002D003000330001010000F8
:1051B000040107010A010505050507050808080897
:1051C000020202020A0A080804040404010101019F
:1051D000010101010303030303030303040707079A
:1051E0000C0C0C0C0C0C0C0C02020202060606063F
:1051F000060606060B0B0B0B0B0B0B0B010210200C
:1052000020080810204010204080020102010804FC
:105210000201010204081020408080402010080490
:1052200002018004020180402010080402010804E9
:10523000020101020408102040800102040810202D
:105240004080C901FF0011241FBECFEFD1E2DEBFB5
:10525000CDBF00E00CBF84B780936F1E14BE0FB6A5
:10526000F894A89580916000886180936000109206
:1052700060000FBE17E0A0E0B2E0ECE7F1E503E06C
:105280000BBF02C007900D92A834B107D9F72EE1E9
:10529000A8E4B7E001C01D92AF36B207E1F719E20A
:1052A000C2E2D9E200E006C021970109802FFE0189
:1052B0000F9410A4C132D10780E00807A9F70F941A
:1052C00011900D94ADA80C940000CF93DF93DB01F7
:1052D000F9019C919130C1F0943080F094509C93EE
:1052E0008830D1F480819181009771F0019791838A
:1052F0008083480F591FEA01188206C08C3539F4A3
:105300009C5F9C93943041F4DF91CF9108958B334F
:1053100039F781E08C93F8CF20813181B9016F5F3B
:105320007F4F71836083420F531FEA01888380811E
:1053300091818F3591056CF7E7CF0F931F9381E033
:105340000091DF1D1091E01D2091E11D3091E21DC3
:105350004091DB1D5091DC1D6091DD1D7091DE1DC3
:10536000041715072607370708F480E01F910F91EF
:10537000089590E080E008952091C81C833021F4C6
:1053800025FD0CC024FD0CC030E0A90102C05595DC
:1053900047958A95E2F7CA018170089581E00895E2
:1053A00080E008958091DF0784FD0BC08091E107C4
:1053B00087FD07C09091E207937081E019F480E0C7
:1053C000089581E008958BE291E308958BE696E5D8
:1053D000089550E0440F551F840F951F21E030E0E1
:1053E00002C0220F331F6A95E2F7FC018081918190
:1053F0002823392381E0232B09F480E00895FC0160
:1054000020812617170611F00CF060830895DB0148
:105410001196EC911197F0E0EE0FFF1FE80FF91FC6
:105420002C9181E090E0AC0102C0440F551F2A95F9
:10543000E2F79A0180819181842B932B9183808361
:105440000895DC01ED91FC91119712968C91808367
:105450000895FC0171836083FB012081FC0122839C
:10546000FB01408308954F925F926F927F928F92DB
:105470009F92AF92BF92CF92DF92EF92FF920F93E3
:105480001F93CF93DF93C82F062F542E622EE62E44
:10549000F12C3FE0732EC82ED12CF701789EE00D41
:1054A000F11D1124EE0FFF1FEE0FFF1FE55FF74FF9
:1054B00060817181828193819B01AC010F943AA735
:1054C000882309F47AC0C50D0C2E000CDD0B060DE7
:1054D000002E000C110B7C9EF0017D9EF00D11241E
:1054E000E00FF11FEE0FFF1FEE0FFF1FE55FF74FFD
:1054F00080809180A280B380A5019401C501B40190
:105500000F943AA7811159C0C50DD11D57FCDA95EA
:105510007C9EF0017D9EF00D1124060D111D67FC8F
:105520001A95E00FF11FEE0FFF1FEE0FFF1FE55F53
:10553000F74F4080518062807380A3019201C301C4
:10554000B2010F943AA7811138C0A3019201C5019D
:10555000B4010F94559D87FD0CC0A5019401C501B0
:10556000B4010F9437A4A30192010F9436A44B0108
:105570005C018FE08C9DF0018D9DF00D1124EE0DEE
:10558000FF1DEE0FFF1FEE0FFF1FE55FF74F80823D
:105590009182A282B38281E0DF91CF911F910F911E
:1055A000FF90EF90DF90CF90BF90AF909F908F9043
:1055B0007F906F905F904F90089580E0EDCF8F9235
:1055C0009F92AF92BF92CF92DF92EF92FF920F9392
:1055D0001F93CF93DF9381E1E82E82E1F82E99E1CA
:1055E000C92E92E1D92EF70185919491FC01A490E6
:1055F0003296B4903197C491329604910496FC018E
:1056000084918823F1F088248A94AC1614F48824B9
:105610008394002E000C110B0C2E000CDD0BB01629
:10562000110669F19A2C9C161D0649F020E0482DC0
:105630006B2D892D18DF811102C0980CF4CFB39423
:10564000EECF88248A94B01614F4882483940C2E08
:10565000000CDD0B002E000C110BAC161D0679F0B2
:105660009B2C9016110649F0282D40E0692D8A2DBB
:10567000FADE811102C0980CF4CFA394EECFF2E0D1
:10568000EF0EF11CCE14DF0409F0ADCFDF91CF9106
:105690001F910F91FF90EF90DF90CF90BF90AF9050
:1056A0009F908F9008954F925F926F927F928F920A
:1056B0009F92AF92BF92CF92DF92EF92FF920F93A1
:1056C0001F93CF93DF9340907D0750907E076090AB
:1056D0007F07709080070BE018E0CFE07801DFE0F3
:1056E000F70181909190A190B1907F01A501940163
:1056F000C501B4010F943AA781110FC06701F4E00E
:10570000CF1AD108A5019401C301B2010F9437A4A7
:10571000F6016083718382839383D15009F7C1506E
:10572000045C1F4FC111DACFDF91CF911F910F9110
:10573000FF90EF90DF90CF90BF90AF909F908F90B1
:105740007F906F905F904F9008958F929F92AF924D
:10575000BF92CF92DF92EF92FF920F931F93CF935E
:10576000DF93EC017B018A016901FB01208131811A
:1057700042815381688179818A819B810F9437A40A
:10578000688379838A839B83F801208131814281F8
:1057900053816C817D818E819F810F9437A46C83AE
:1057A0007D838E839F83F6012081318142815381E5
:1057B000688579858A859B850F9437A46887798762
:1057C0008A879B87F70160817181828193819B0128
:1057D000AC010F94BA9D9B01AC016C857D858E85D3
:1057E0009F850F9437A46C877D878E879F87F801EC
:1057F00060817181828193819B01AC010F94BA9D7C
:105800009B01AC01688979898A899B890F9437A4A7
:10581000688B798B8A8B9B8BF80120813181428147
:105820005381F70160817181828193810F94BA9DC8
:105830009B01AC016C897D898E899F890F9437A467
:105840006C8B7D8B8E8B9F8BF60120813181428109
:105850005381F70160817181828193810F94BA9D98
:105860009B01AC01688D798D8A8D9B8D0F9437A437
:10587000688F798F8A8F9B8FF601208131814281D9
:105880005381F80160817181828193810F94BA9D67
:105890009B01AC016C8D7D8D8E8D9F8D0F9437A4F7
:1058A0006C8F7D8F8E8F9F8F88A099A0AAA0BBA0A0
:1058B000F701C080D180E280F38020E030E0A901D0
:1058C000C701B6010F945EA687FF04C0F7FAF094F3
:1058D000F7F8F094A7019601B401C5010F94559D06
:1058E00087FD02C064017501C8A2D9A2EAA2FBA289
:1058F0008CA09DA0AEA0BFA0F801C080D180E280A6
:10590000F38020E030E0A901C701B6010F945EA644
:1059100087FF04C0F7FAF094F7F8F094A701960116
:10592000B401C5010F94559D87FD02C06401750146
:10593000CCA2DDA2EEA2FFA220E030E040E85FE3CF
:105940006CA97DA98EA99FA90F9437A46CAB7DABE0
:105950008EAB9FABDF91CF911F910F91FF90EF9096
:10596000DF90CF90BF90AF909F908F900895CF928F
:10597000DF92EF92FF926B017C0120E030E0A90101
:105980000F945EA687FF04C0F7FAF094F7F8F0943E
:10599000C701B601FF90EF90DF90CF9008952FEBF5
:1059A000280F2A3108F047C0E22FF0E08091DF078E
:1059B0009091E007A091E107B091E20704C0B6958D
:1059C000A795979587952A95D2F780FD02C081709B
:1059D0000895EB53F84FE081EE2341F180916F166B
:1059E00090917016E80FF92FF11D808190ED980FBE
:1059F0009A3030F08E3251F4818180538A3098F49D
:105A0000F093B407E093B30781E008958D3211F06D
:105A10008B3249F4818190ED980F9A3088F38E3261
:105A200011F48281EACFF0E0E0E0EACF1092B4070F
:105A30001092B307E9CF80E00895B1DF882341F0E9
:105A400081E02091B3073091B407232B09F480E063
:105A50000895CF92DF92EF92FF92E0914D1CF0916A
:105A60004E1C20E030E046E154E46481758186817B
:105A700097810F9437A46B017C0120E030E843E16B
:105A800054E40F945EA618163CF4C12C80E8D82E7E
:105A900083E1E82E84E4F82EC701B601FF90EF9071
:105AA000DF90CF900895CF92DF92EF92FF92E09136
:105AB0004D1CF0914E1C20E030E0A90164817581FD
:105AC000868197810F9437A46B017C0120E030E040
:105AD00040E251E40F94559D87FF06C0C12CD12CA4
