:100000000C94920F0C94D20F0C94D20F0C94D20F2C
:100010000C94D20F0C94D20F0C94D20F0C94D20FDC
:100020000C94D20F0C94D20F0C94D20F0C94D20FCC
:100030000C94D20F0C94D20F0C94D20F0C94D20FBC
:100040000C94D20F0C9482820C94D20F0C94D20F89
:100050000C94D20F0C94A47A0C94D20F0C94CE79F9
:100060000C94D20F0C94CB820C94C1820C94D20FBE
:100070000C94D20F0C94D20F0C94D20F0C94D20F7C
:100080000C94D20F0C94D20F0C94D20F0C94D20F6C
:100090000C94D20F0C94D20F0C94D20F0C94D20F5C
:1000A0000C94D20F0C94D20F0C94D20F0C94D20F4C
:1000B0000C94D20F0C94D20F0C94D20F0C94D20F3C
:1000C0000C94D20F0C94D20F0C94D20F0C94D20F2C
:1000D0000C94D20F0C94D20F0C94D20F0C94D20F1C
:1000E0000C94D20F084AD73B3BCE016E84BCBFFDB7
:1000F000C12F3D6C74319ABD56833DDA3D00C77FF8
:1001000011BED9E4BB4C3E916BAAAABE0000008090
:100110003F05A84CCDB2D44EB93836A9020C50B91F
:10012000918688083CA6AAAA2ABE000000803F004B
:100130004E414E494E495459494E46CDCCCC3D0ACC
:10014000D7233C17B7D13877CC2B329595E6241FAF
:10015000B14F0A000020410000C84200401C462068
:10016000BCBE4CCA1B0E5AAEC59D74434F4D4D5577
:100170004E49434154494F4E0044525952554E0046
:100180004552524F525300494E464F004543484F47
:10019000006563686F3A004572726F723A002044DE
:1001A0000020204D323030205300202844697361F4
:1001B000626C6564293A0046696C616D656E7420F5
:1001C00073657474696E67730020204D323031207E
:1001D00058004D617820416363656C657261746994
:1001E0006F6E2028756E6974732F7332290020207A
:1001F0004D3230332058004D617820666565647259
:10020000617465732028756E6974732F73290020DB
:10021000520020204D323034205000416363656C21
:1002200065726174696F6E2028756E6974732F73BF
:1002300032292028503C7072696E742D61636365A9
:100240006C3E20523C726574726163742D6163630D
:10025000656C3E20543C74726176656C2D616363FD
:10026000656C3E2900204A002054002053002020C5
:100270004D323035204200416476616E6365642002
:1002800028423C6D696E5F7365676D656E745F745F
:10029000696D655F75733E20533C6D696E5F666581
:1002A0006564726174653E20543C6D696E5F747262
:1002B0006176656C5F66656564726174653E204A4F
:1002C0003C6A756E635F6465763E290020440020B9
:1002D000490020204D333031205000486F74656E46
:1002E00064205049440020496E76616C6964206541
:1002F00078747275646572200047322F473320622C
:10030000616420706172616D65746572730A004585
:100310006E642066696C65206C6973740A004265BE
:1003200067696E2066696C65206C6973740A004E9B
:100330006F206D656469610A0053442063617264D3
:100340002072656C65617365640A00286E6F2066B3
:10035000696C65290043757272656E742066696CFC
:10036000653A20004E6F74205344207072696E7499
:10037000696E670A005344207072696E74696E6713
:10038000206279746520002E0A0044656C657469EA
:100390006F6E206661696C65642C2046696C653AF5
:1003A000200046696C652064656C657465643A007C
:1003B0002569730025696D2025697300256968200A
:1003C00025696D20256973002569642025696820E9
:1003D00025696D20256973002569792025696420C8
:1003E0002569682025696D20256973005072696E42
:1003F000742074696D653A20006F6B006F6666004B
:100400008C018701800179016B0144454255473ACF
:10041000004D313133205300434F4E4649475F452D
:1004200058504F5254004D4541545041434B0043A6
:100430004F4F4C45525F54454D50455241545552D3
:1004400045004348414D4245525F54454D50455249
:100450004154555245004241425953544550504928
:100460004E470041524353004D4F54494F4E5F4D4C
:100470004F44455300544845524D414C5F50524FF4
:1004800054454354494F4E00455854454E44454405
:100490005F4D323000435553544F4D5F4649524DE6
:1004A000574152455F55504C4F4144004C464E5FBA
:1004B0005752495445004C4F4E475F46494C454EB4
:1004C000414D45004155544F5245504F52545F5392
:1004D000445F5354415455530053445F5752495459
:1004E0004500524550454154004D554C54495F56C6
:1004F0004F4C554D45005344434152440050524FD8
:100500004D50545F535550504F525400484F535420
:100510005F414354494F4E5F434F4D4D414E44530D
:1005200000454D455247454E43595F504152534552
:100530005200434153455F4C494748545F4252493A
:100540004748544E45535300544F47474C455F4C22
:10055000494748545300534F4654574152455F5002
:100560004F574552004255494C445F504552434510
:100570004E54004C4556454C494E475F444154410A
:10058000005A5F50524F42450052554E4F5554004D
:100590004155544F4C4556454C005052494E545FBE
:1005A0004A4F420050524F47524553530041555411
:1005B0004F5245504F52545F54454D500041555491
:1005C0004F5245504F52545F504F5300564F4C5569
:1005D0004D455452494300454550524F4D00424904
:1005E0004E4152595F46494C455F5452414E534625
:1005F00045520053455249414C5F584F4E5F584F4A
:100600004646004649524D574152455F4E414D4581
:100610003A4D61726C696E20322E312E322E3720A7
:10062000284D617920323820323032362030383A45
:1006300034393A33312920534F555243455F434FA4
:1006400044455F55524C3A6769746875622E636F12
:100650006D2F4D61726C696E4669726D776172655E
:100660002F4D61726C696E2050524F544F434F4C66
:100670005F56455253494F4E3A312E30204D41433B
:1006800048494E455F545950453A5468652053686F
:10069000696E696E672045585452554445525F4310
:1006A0004F554E543A3120555549443A6365646577
:1006B000326132662D343161322D343734382D3980
:1006C0006231322D633535633632663336376666CE
:1006D000002F2F003F4A206F7574206F66207261D3
:1006E0006E67652028302E303120746F20302E3315
:1006F000290A002058004F4646004F4E003B20007C
:1007000020204D61783A2000200020204D696E3A6B
:100710002000203B200020204D3231312053002585
:100720000A0046523A0020466C6F773A200064690E
:100730007300656E0043290A0061626C65642028BD
:100740006D696E2074656D702000436F6C64206568
:10075000787472756465732061726520002066612B
:10076000696C65642120426164206865617465720A
:100770002069640A00504944204175746F74756E95
:10078000650023646566696E652044454641554CA5
:10079000545F004B4420004B4920004B5020002068
:1007A00066696E6973686564212050757420746889
:1007B00065206C617374204B702C204B6920616E36
:1007C00064204B6420636F6E7374616E7473206673
:1007D000726F6D2062656C6F7720696E746F204355
:1007E0006F6E66696775726174696F6E2E680A0054
:1007F000504944204175746F74756E6500206661C0
:10080000696C6564212074696D656F75740A0050A8
:100810004944204175746F74756E65002066616986
:100820006C6564212054656D7065726174757265C4
:1008300020746F6F20686967680A0050494420413E
:1008400075746F74756E6500204B643A2000204B00
:10085000693A2000204B703A200020436C6173738A
:10086000696320504944200A002054753A20002032
:100870004B753A2000206D61783A2000206D696E3A
:100880003A200020643A200020626961733A200017
:100890002073746172740A00504944204175746F6A
:1008A00074756E6500206661696C6564212054650D
:1008B0006D706572617475726520746F6F20686900
:1008C00067680A00504944204175746F74756E65FD
:1008D00000486F6D6520257320466972737400545B
:1008E0006F6F206661722066726F6D204D494E2FCA
:1008F0004D41580A00454550524F4D204F4B0A007C
:100900004D383400446F6E65207072696E74696E84
:10091000672066696C650A004D3737004D3331003A
:10092000496E76616C69642065787472756465726D
:100930000A0020204D323036205800486F6D652067
:100940006F6666736574004361703A0020746F6F60
:10095000206C6F6E6720657874727573696F6E2096
:1009600070726576656E7465640A0020636F6C64EE
:1009700020657874727573696F6E20707265766524
:100980006E7465640A0020573A006F70656E0054FB
:100990005249474745524544003A20007A5F6D610D
:1009A0007800795F6D696E00785F6D696E005265E1
:1009B000706F7274696E6720656E6473746F7020F7
:1009C0007374617475730A00000000000000000079
:1009D000000025435761726E696E673A20486F6D5B
:1009E000696E672042756D702044697669736F7215
:1009F000203C20310A0002020400002043000020B5
:100A000043000025430000A0400000A0400000007B
:100A10004000000001000000010000800055555515
:100A2000000000400033333300AAAA2A0049922470
:100A30000000002000C7711C0099991900D14517CA
:100A400000555515003BB113002449120011111136
:100A500000000010000F0F0F00E3380E0043790D67
:100A600000CCCC0C00C3300C00E8A20B0064210BBE
:100A700000AAAA0A00703D0A009DD80900427B091D
:100A80000092240900DCD30800888808001042087E
:100A90000000000800F0C1070087870700755007B5
:100AA00000711C07003EEB0600A1BC060069900621
:100AB0000066660600703E06006118060017F40521
:100AC0000074D105005BB00500B2900500627205AC
:100AD000005555050078390500B81E0500050505C7
:100AE000004EEC040087D40400A1BD040090A704CC
:100AF0000049920400C17D0400EE690400C7560459
:100B000000444404005C3204000821040041100445
:100B100000000004003FF00300F8E0030026D203C9
:100B200000C3C30300CCB503003AA803000A9B032B
:100B300000388E0300C08103009F750300D0690355
:100B400000505E03001D53030034480300913D0331
:100B5000003333030016290300381F0300971503E1
:100B600000300C0300030303000BFA020049F102FA
:100B700000BAE802005CE002002DD802002DD0028D
:100B80000059C80200B0C0020031B90200DAB10257
:100B900000AAAA0200A0A30200BC9C0200FA9502CF
:100BA000005C8F0200DF88020082820200457C0226
:100BB000002776020027700200436A02007C64026C
:100BC00000D05E02003F590200C8530200FFFDFC46
:100BD000FAF8F6F4F2F0EEECEAE9E7E5E3E1E0DE5C
:100BE000DCDAD9D7D5D4D2D0CFCDCBCAC8C7C5C30C
:100BF000C2C0BFBDBCBAB9B7B6B4B3B2B0AFADAC8A
:100C0000AAA9A8A6A5A4A2A1A09E9D9C9A999897DE
:100C100095949392908F8E8D8B8A89888786848312
:100C20008281807F7E7D7B7A797877767574737226
:100C300071706F6E6D6C6B6A69686766656463621C
:100C400061605F5E5D5C5B5A595858575655545306
:100C5000525150504F4E4D4C4B4A4A4948474646D8
:100C6000454443424241403F3E3E3D3C3B3B3A3996
:100C7000383837363535343332323130302F2E2E46
:100C80002D2C2B2B2A2929282727262525242323E9
:100C900022212120201F1E1E1D1C1C1B1B1A19197E
:100CA0001818171616151514131312121111100F08
:100CB0000F0E0E0D0D0C0C0B0A0A09090808070788
:100CC00006060505040403030202010000000020DB
:100CD0004300002043000025430000000000000006
:100CE0000000000000290A002062797465733B202F
:100CF000637263200053657474696E677320537464
:100D00006F72656420280048617264636F64656473
:100D10002044656661756C742053657474696E67F0
:100D200073204C6F616465640020286D6D2900207C
:100D3000204D3134392043203B20556E6974732097
:100D4000696E2043656C736975730A0054656D7034
:100D50006572617475726520556E69747300202028
:100D6000473231203B004C696E65617220556E69D7
:100D7000747300454550524F4D206461746173692E
:100D80007A65206572726F722E0A00202863616C8A
:100D900063756C6174656429210A0020213D20007F
:100DA000454550524F4D20435243206D69736D614C
:100DB000746368202D202873746F72656429200085
:100DC000454550524F4D20436F72727570740A0042
:100DD0002053697A653A2000496E6465783A2000AC
:100DE000290A002062797465733B206372632000D6
:100DF0002073746F7265642073657474696E6773B1
:100E0000207265747269657665642028000000961A
:100E100043000096430000A0400000C8410000A02D
:100E2000420000A0420000A0429BACC042D007009C
:100E300000D00700006400000010270000204D6172
:100E4000726C696E3D563838290A00454550524F3C
:100E50004D2076657273696F6E206D69736D617474
:100E600063682028454550524F4D3D0020436F7523
:100E70006E7420583A0045002C2073797374656DA8
:100E80002073746F707065642120486561746572A9
:100E90005F49443A2000544845524D414C20525538
:100EA0004E4157415900546865726D616C2052750E
:100EB0006E617761790048656174696E672046618B
:100EC000696C65640048656174696E672066616974
:100ED0006C6564004572723A204D415854454D503E
:100EE000004D415854454D502074726967676572D2
:100EF0006564004572723A204D494E54454D50008C
:100F00004D494E54454D502074726967676572654E
:100F10006400202F0020403A000000210024002718
:100F2000002A002D003000330001010000040107F9
:100F3000010A017C3C3E5E2B3D3F2F5B5D3B2C2A32
:100F4000225C0053442063617264206F6B0A006F5F
:100F500070656E526F6F74206661696C65640A001B
:100F6000766F6C756D652E696E6974206661696C4B
:100F700065640A004E6F20534420636172640A0066
:100F80002E0A006F70656E206661696C65642C20A6
:100F900046696C653A200046696C652073656C652E
:100FA000637465640A002053697A653A20004669D3
:100FB0006C65206F70656E65643A2000454E442074
:100FC000535542524F5554494E450A002220706FE6
:100FD00073002220706172656E743A22005355428C
:100FE000524F5554494E452043414C4C2074617238
:100FF0006765743A220053756263616C6C204F76AA
:101000006572666C6F77004578636565646564201A
:101010006D617820535542524F5554494E452064D6
:10102000657074683A0057726974696E6720746FEE
:101030002066696C653A2000667265736800646FAB
:10104000696E67002066696C653A20004E6F7720F4
:10105000000A4D3234004D3233202573002F617564
:10106000746F25632E670010001A032001200130E1
:1010700002EA004003CF005004BD006005B00070DC
:1010800006A60080079D0090089600A0099000C069
:101090000A8A00D00B8600E00C8100F00D7D000074
:1010A0000F7900101076002011730030127000408C
:1010B000136D0050146A006015670070166500809B
:1010C00017630090186000A0195E00B01A5C00C0A1
:1010D0001B5A00D01C5800E01D5600F01E540000A2
:1010E0002052002021500030224E0040234C00505E
:1010F000244A00602548007026460080274400905E
:10110000284300A0294100B02A3F00C02B3D00D059
:101110002C3B00E02D3900F02E3700003035001058
:101120003133002032310030332F0040342C005056
:10113000352A00703627008037250090382200A01D
:10114000391E00B03A1B00C03B1700D03C1200E033
:101150003D0B00F03E0200F03FE7FF2020506C61A5
:101160006E6E657242756666657242797465733A31
:1011700020002046726565204D656D6F72793A20BA
:101180000020436F6D70696C65643A204D61792071
:10119000323820323032360A00204C6173742055C8
:1011A0007064617465643A20323032362D30312DEE
:1011B0003232207C20417574686F723A20283344A3
:1011C000776F726B2C2068747470733A0A004D61EB
:1011D000726C696E20322E312E322E370A00205367
:1011E0006F6674776172652052657365740A0020BA
:1011F0005761746368646F672052657365740A0091
:101200002042726F776E206F75742052657365741B
:101210000A002045787465726E616C2052657365B2
:10122000740A00506F77657255700A0073746172AA
:10123000740A004732385859004D31303031006F50
:101240006B006572726F722077726974696E6720C5
:10125000746F2066696C650A00446F6E6520736167
:1012600076696E672066696C652E0A00656E647328
:10127000746F7073206869743A20000000220025A2
:101280000028002B002E0031003400020100000570
:101290000108010B010505050507050808080802F6
:1012A0000202020A0A0808040404040101010101FF
:1012B0000101010303030303030303040707070CEE
:1012C0000C0C0C0C0C0C0C020202020606060606A4
:1012D0000606060B0B0B0B0B0B0B0B07070A0A0A78
:1012E0000A0A0A0505050404040808010210202062
:1012F000080810204010204080020102010804026A
:1013000001010204081020408080402010080402DF
:101310000180040201804020100804020108040238
:10132000010102040810204080010204081020403E
:1013300080100804088010204004408010204004E1
:101340008000000A0B02090C0D0E080703040100BF
:10135000000000000000000000000000000000008D
:10136000000000000000000000000000001211104A
:10137000000000000000000000000000000000006D
:10138000000000000000000000000000000000005D
:101390000000000000000024F404D9201BC40C5CF1
:1013A0000E9804C4095F0265077101F405F900FB9A
:1013B00004B30048048700C10369005803550003C3
:1013C000034500BE023A008402310053022A00297C
:1013D00002250004022000E4011C00C8011900AF2E
:1013E00001170098011400840113007101100061BD
:1013F00001100051010E0043010D0036010B002BBE
:10140000010B0020010B00150109000C010900036C
:10141000010800FB000800F3000800EB000700E4EF
:10142000000600DE000600D8000600D2000600CC50
:10143000000500C7000500C2000500BD000400B99A
:10144000000400B5000400B1000400AD000400A9D0
:10145000000400A5000300A20003009F0004009BFD
:101460000003009800030095000200930003009021
:101470000003008D0002008B00030088000200863C
:1014800000020084000300810002007F0002007D52
:101490000002007B00020079000200770001007664
:1014A0000002007400020072000100710002006F6F
:1014B0000002006D0001006C0002006A000100697A
:1014C0000002006700010066000100650001006481
:1014D0000002006200010061000100600001005F85
:1014E0000002005D0001005C0001005B0001005A89
:1014F000000100590001005800010057000100568A
:101500000001005500010054000100530000005389
:101510000001005200010051000100500001004F85
:101520000001004E0000004E0001004D0001004C83
:101530000001004B0000004B0001004A000100497F
:10154000000100480000004800010047000100467B
:101550000000004600010045000000450001004475
:10156000000100430000004300010042000000426F
:101570000001004100000041000100400001003F67
:101580000000003F0001003E0000003E0001003D61
:101590000000003D0001003C0000003C0000003C59
:1015A0000001003B0000003B0001003A0000003A4F
:1015B0000001003900000039000100380000003847
:1015C000000000380001003700000037000100363D
:1015D0000000003600000036000100350000003534
:1015E0000000003500010034000000340000003429
:1015F000000100330000003300000033000100321E
:101600000000003200000032000100310000003113
:101610000000003100010030000000300000003008
:101620000001002F0000002F0000002F0000002FFD
:101630000001002E0000002E0000002E0001002DF1
:101640000000002D0000002D0000002D0001002CE6
:101650000000002C0000002C0000002C0001002BDA
:101660000000002B0000002B0000002B0001002ACE
:101670000000002A0000002A0000002A00010029C2
:1016800000000029000000290000002900000029B6
:1016900000010028000000280000002800000028A9
:1016A000000000280001002700000027000000279C
:1016B000000000270000002700010026000000268F
:1016C0000000002600000026000000260001002582
:1016D0000000002500000025000000250000002576
:1016E0000000002500010024000000240000002468
:1016F000000000240000002400010023000000235B
:10170000000000230000002300000023000000234D
:10171000000000230001002200000022000000223F
:101720000000002200000022000000220001002131
:101730000000002100000021000000210000002125
:101740000000002100000021000100200000002016
:101750000000002000000020000000200000002009
:1017600000000020000000200001001F0000001FFA
:101770000000001F0000001F0000001F0000001FED
:101780000000001F0001001E0000001E0000001EDF
:101790000000001E00000024F4D43050C38E20C28C
:1017A000A24017828B7011127A910D816CD90AA810
:1017B00061E108C7586607615143061E4B5D05C1CC
:1017C00045A7041A411104093D98037139310340BA
:1017D00036DB0265339102D4305402802E1D026341
:1017E0002CEE01752AC501B028A001102781018FB8
:1017F0002564012B244B01E0223401AC211F018D13
:10180000200D01801FFC00841EED00971DDF00B835
:101810001CD200E61BC600201BBC00641AB200B23A
:1018200019A8000A19A0006A189900D11791004060
:10183000178B00B516840031167E00B31579003A77
:10184000157300C7146F0058146A00EE1366008801
:1018500013630025135E00C7125B006C125700155E
:10186000125400C111510070114F0021114B00D6CC
:101870001049008D1047004610440002104200C07D
:101880000F4000800F3E00420F3C00060F3B00CB94
:101890000E3800930E37005C0E3500270E3400F32F
:1018A0000D3200C10D3100900D3000600D2E003260
:1018B0000D2D00050D2C00D90C2B00AE0C29008538
:1018C0000C29005C0C2700350C27000E0C2600E8C4
:1018D0000B2400C40B2400A00B23007D0B23005A13
:1018E0000B2100390B2100180B2000F80A1F00D92A
:1018F0000A1E00BB0A1E009D0A1D00800A1D00630F
:101900000A1C00470A1B002C0A1B00110A1A00F7C8
:10191000091A00DD091900C4091900AB0919009260
:101920000917007B091800630917004C09160036D7
:10193000091600200916000A091500F5081500E02F
:10194000081400CC081400B8081400A4081400906F
:101950000813007D0812006B081300580812004697
:1019600008120034081100230811001208110001A8
:10197000081100F0071000E0071000D0071000C0A9
:10198000071000B0070F00A107100091070E008399
:10199000070F0074070F0065070E0057070E004978
:1019A000070E003B070D002E070E0020070D001349
:1019B000070D0006070D00F9060C00ED060D00E00E
:1019C000060C00D4060C00C8060C00BC060C00B0C7
:1019D000060C00A4060B0099060C008D060B008275
:1019E000060B0077060B006C060B0061060A005719
:1019F000060B004C060A0042060A0038060A002EB2
:101A0000060A0024060A001A060A00100609000742
:101A1000060A00FD050900F4050900EB050900E2CE
:101A2000050900D9050900D0050900C7050900BE50
:101A3000050900B5050800AD050800A50509009CCD
:101A4000050800940508008C050800840508007C42
:101A5000050800740508006C050700650508005DB1
:101A6000050700560508004E05070047050700401A
:101A700005080038050700310507002A050700237F
:101A80000507001C050600160507000F05070008DE
:101A900005060002050700FB040600F5040700EE3A
:101AA000040600E8040600E2040700DB040600D593
:101AB000040600CF040600C9040600C3040600BDE6
:101AC000040600B7040600B1040500AC040600A635
:101AD000040600A00405009B040600950405009080
:101AE0000406008A04050085040500800406007AC7
:101AF00004050075040500700405006B040500660C
:101B0000040500610405005C04050057040500524B
:101B10000405004D04050048040500430405003E8B
:101B20000404003A04050035040500300404002CC8
:101B300004050027040400230405001E0404001A01
:101B400004040016040500110404000D0404000937
:101B50000405000404040000040400FC030400F86D
:101B6000030400F4030400F0030400EC030400E8A1
:101B7000030400E4030400E0030400DC030400D8D1
:101B8000030400D4030400D0030400CC030400C801
:101B9000030300C503030072290000F31F0000EADD
:101BA000150000780D0000990700000F0400001ACE
:101BB00002000012010000486F6D696E67204661E7
:101BC000696C656400FFFF01DB0FC93F45BCDA3F6C
:101BD0008FB30240FCF0274056946140FE4B9B407F
:101BE00084A5D840E0231841346A5641E85997410A
:101BF00064DBD5416E271742B4B75542CE1A9742DF
:101C0000C8AED542B5885A43D40684BFA65FA7BFE5
:101C10007443E0BF10B11AC01C2C58C0E8F697C03E
:101C2000B849D6C04E4E17C124D355C1802497C1A0
:101C3000A0B5D5C1121A17C244AE55C2781797C2C3
:101C40006CACD5C267885AC320746F6F206C6F6EFE
:101C50006720657874727573696F6E20707265762F
:101C6000656E7465640A0020636F6C642065787427
:101C7000727573696F6E2070726576656E746564D7
:101C80000A0043616E6E6F74206F70656E2073750D
:101C9000626469722000220A00556E6B6E6F776E67
:101CA00020636F6D6D616E643A2022002045002034
:101CB0005A0020590020204D3932205800537465B5
:101CC00070732070657220756E69740020453A004B
:101CD000205A3A0020593A00583A004572726F7201
:101CE0002077726974696E6720746F204545505281
:101CF0004F4D210A005072696E7465722068616CE4
:101D00007465642E206B696C6C28292063616C6C8F
:101D10006564210A00627573793A20706175736594
:101D20006420666F7220696E7075740A0062757344
:101D3000793A2070617573656420666F72207573DF
:101D400065720A00627573793A2070726F63657309
:101D500073696E670A004D313132205368757464BF
:101D60006F776E005072696E7465722073746F7055
:101D70007065642064756520746F206572726F727F
:101D8000732E2046697820746865206572726F72C0
:101D900020616E6420757365204D39393920746F68
:101DA00020726573746172742E202854656D70659D
:101DB0007261747572652069732072657365742E23
:101DC00020536574206974206166746572207265A1
:101DD0007374617274696E67290A004E6F204368DC
:101DE00065636B73756D2077697468206C696E65C7
:101DF000206E756D6265722C204C617374204C6985
:101E00006E653A20004D3239004E6F20436865639D
:101E10006B73756D2077697468206C696E65206ED0
:101E2000756D6265722C204C617374204C696E650F
:101E30003A2000636865636B73756D206D69736D1F
:101E4000617463682C204C617374204C696E653A30
:101E500020004C696E65204E756D62657220697355
:101E6000206E6F74204C617374204C696E65204E37
:101E7000756D6265722B312C204C617374204C6936
:101E80006E653A20004D3131300053657269616CE6
:101E900020737461747573206D69736D6174636808
:101EA0000A0053442072656164206572726F720A81
:101EB000004B494C4C20627574746F6E2F70696EC4
:101EC0000A002121204B494C4C20636175736564E5
:101ED0002062792000746F6F206D75636820696ED1
:101EE0006163746976652074696D65202D20637562
:101EF0007272656E7420636F6D6D616E643A20005E
:101F00002121204B494C4C2063617573656420622C
:101F10007920006F6B0A00526573656E643A200089
:101F2000F582CD8A11241FBECFEFD1E2DEBFCDBF37
:101F300000E00CBF84B78093CA1114BE0FB6F894AA
:101F4000A895809160008861809360001092600085
:101F50000FBE13E0A0E0B2E0E6E5FDE201E00BBF5A
:101F600002C007900D92A031B107D9F721E1A0E19D
:101F7000B3E001C01D92AA3CB207E1F71FE0C1E93E
:101F8000DFE000E006C021970109802FFE010E94DA
:101F90004C93C039D10780E00807A9F70E94CD8390
:101FA0000C949A960C940000FC0120818091E00F23
:101FB0009091E10F922728E0AC01880F991F57FDFF
:101FC00007C02150C9F79093E10F8093E00F089567
:101FD000F1E28F27F0E19F27F4CF8091EF0B8F5F25
:101FE000843040F48093EF0B8091ED0B8F5F8093F2
:101FF000ED0B08951092EF0BF7CFCF92DF92EF9297
:10200000FF920F931F9327E93BE141E0F901C5904F
:10201000D590E590F490C616D706E806F90658F470
:102020009695879577956795440F2C5F3F4F5BE1B9
:10203000233B350759F740936204613271058105EE
:10204000910568F4E7E9F7E16591749190E080E02B
:102050001F910F91FF90EF90DF90CF900895DC01DA
:10206000CB018097A109B109811528E09207A1054C
:10207000B105C8F044E0949F9001112429563C4ECC
:10208000F901329645915491F901259134916627D1
:10209000859FF001849F000CE11DF61F11242E1B6B
:1020A0003F0BB901D3CF8C019D013695279517952C
:1020B00007950C7F0956184EF80125913491F801C7
:1020C000329645915491682F6770649FC001659F57
:1020D000900D112443E0969587954A95E1F7281BCA
:1020E000390BDFCF282F30E0F901EF5BFC4E9491E4
:1020F000F901E551FD4E44912B563D4EF9012491D5
:10210000222309F435C0992311F191509231F8F44A
:10211000E92FF0E08827E057FF4E8F4F0C944C9347
:10212000C110C510A210B910BD10A710C810CE1054
:10213000D210D810DC10E010E610EA10A710EE1054
:10214000F410F810809180008F7780938000E22F48
:10215000F0E0EE0FFF1FE558FD4EA591B4918FB74B
:10216000F894EC91611148C040954E234C938FBF79
:102170000895809180008F7DE8CF80918000877FD7
:10218000E4CF84B58F7784BDE2CF84B58F7DFBCF5C
:102190008091B0008F778093B000D9CF8091B0004C
:1021A0008F7DF9CF809190008F7780939000CFCF73
:1021B000809190008F7DF9CF80919000877FF5CF3F
:1021C0008091A0008F778093A000C1CF8091A00064
:1021D0008F7DF9CF8091A000877FF5CF809120017E
:1021E0008F7780932001B3CF809120018F7DF9CF2D
:1021F00080912001877FF5CF4E2BB8CF3FB7F89461
:1022000080915E0490915F04A0916004B09161049C
:1022100026B5A89B05C02F3F19F00196A11DB11D41
:102220003FBFBA2FA92F982F8827BC01CD01620F7D
:10223000711D811D911D42E0660F771F881F991F38
:102240004A95D1F708958F929F92AF92BF92CF9205
:10225000DF92EF92FF926B017C01D0DF4B015C01BA
:10226000C114D104E104F104B1F0C8DF681979099F
:102270008A099B09683E73408105910588F321E036
:10228000C21AD108E108F10888EE880E83E0981E92
:10229000A11CB11CE5CFFF90EF90DF90CF90BF90D5
:1022A000AF909F908F9008952FB7F89460915A0443
:1022B00070915B0480915C0490915D042FBF089540
:1022C0008BE1E6E3F0E1ABE1B0E101900D928A959C
:1022D000E1F78091B91180648093B9111092AE1129
:1022E00008958091B91184FF04C08460877F809332
:1022F000B9110895FC01938591FF02C080E0089513
:10230000987121E0903109F020E08091B91120FB13
:1023100085F98093B911903141F08085873471F748
:1023200081E091859E3751F3089581E0FDCFFC0156
:1023300020E03EE2DB014D91BD01403249F0283002
:1023400011F430833196DB0111974C914083319623
:102350002F5F2B3079F710820895CF938091DD0F96
:10236000C1E08823C9F08091DE0F9091DF0F40918A
:10237000D50F5091D60F6091D70F7091D80FDC0117
:10238000ED91FC910288F389E02D25ED3DE0199552
:10239000C82F811104C0C0E08C2FCF9108954091C7
:1023A000D90F5091DA0F6091DB0F7091DC0F41155E
:1023B000510561057105B9F08091DE0F9091DF0F35
:1023C000DC01ED91FC910288F389E02D25ED3DE0E3
:1023D0001995882301F31092D90F1092DA0F1092F9
:1023E000DB0F1092DC0F1092DD0FD6CFCF92DF9271
:1023F000EF92FF92CF936B017C01C42F8091D50F98
:102400009091D60FA091D70FB091D80F8C159D0544
:10241000AE05BF0519F1A1DF811107C080E0CF91A2
:10242000FF90EF90DF90CF9008958091DE0F909114
:10243000DF0FDC01ED91FC910088F189E02D25EDA5
:102440003DE0B701A6011995882341F3C092D50F4D
:10245000D092D60FE092D70FF092D80F81E0CC2324
:10246000F1F28093DD0FDBCF8F929F92AF92BF92FC
:10247000CF92DF92EF92FF92CF93DF939093DF0F93
:102480008093DE0F1092141082E090E0A0E0B0E0A4
:102490008093FD0F9093FE0FA093FF0FB093001059
:1024A0001092DD0F1092D90F1092DA0F1092DB0FFD
:1024B0001092DC0F8FEF9FEFDC018093D50F90938C
:1024C000D60FA093D70FB093D80F662309F46EC030
:1024D00040E060E070E0CB0189DF81110DC0C0E019
:1024E0008C2FDF91CF91FF90EF90DF90CF90BF9036
:1024F000AF909F908F9008958091930F8F7779F789
:1025000080919F0F9091A00FA091A10FB091A20F69
:1025100084369105A105B10510F3C0909B0FD090B2
:102520009C0FE0909D0FF0909E0FC114D104E10428
:10253000F104A9F240E0C701B60158DFC82F882393
:1025400071F28091E00D9091E10D8115924039F684
:10255000A091E50DAA2319F26091E30D7091E40DAD
:102560006115710509F4BBCF2091E20D222309F416
:10257000B6CFA0930F102093011090E080E030E0E0
:10258000E1E0F0E0D82FAF01082E02C0440F551F44
:102590000A94E2F72417350769F041E0480F0196E5
:1025A0008930910579F740930A1099CFC12CD12C2D
:1025B0007601C0CF80930A102091EB0D3091EC0D85
:1025C00050E040E02115310541F42091F90D3091A2
:1025D000FA0D4091FB0D5091FC0D209302103093A9
:1025E0000310409304105093051046015701860EC6
:1025F000971EA11CB11C8092101090921110A092F5
:102600001210B0921310E091E60DF091E70DF093E7
:102610001610E0931510B0E00E941F93DC01CB016F
:10262000880D991DAA1DBB1D80931710909318103B
:10263000A0931910B0931A1025E0EE0FFF1F2A95F2
:10264000E1F7E150FE4FEF2FFF27E6958E0F9F1F1A
:10265000A11DB11D80930B1090930C10A0930D1031
:10266000B0930E108090E80D9090E90DB12CA12C44
:102670008114910441F48090F50D9090F60DA09096
:10268000F70DB090F80DC81AD90AEA0AFB0AC80C6F
:10269000D91CEA1CFB1C04C0F694E794D794C79499
:1026A000DA95D2F7C0920610D0920710E092081087
:1026B000F092091085EFC8168FE0D806E104F10406
:1026C00020F48CE0809314100ACF80E125EFC2162D
:1026D0002FEFD206E104F10488F08091010E909171
:1026E000020EA091030EB091040E809317109093E8
:1026F0001810A0931910B0931A1080E28093141050
:10270000EFCE4F925F926F927F928F929F92AF9295
:10271000BF92CF92DF92EF92FF920F931F93CF93CE
:10272000DF93EC01423051056105710590F480E0C2
:10273000DF91CF911F910F91FF90EF90DF90CF909D
:10274000BF90AF909F908F907F906F905F904F90D1
:10275000089589859A85AB85BC850196A11DB11D1B
:1027600084179507A607B70710F38F898031C1F545
:10277000852E962EA72EBB248B899C89AD89BE8978
:10278000880E991EAA1EBB1E280139016A017B0111
:1027900041E0C501B4012ADE882349F29F899031C6
:1027A00081F5DD24EE24FF24F601EE0FFF1FEB522E
:1027B000F24F118300839A89923008F4B9CF4D818A
:1027C0005E816F817885840E951EA61EB71E80924D
:1027D000D90F9092DA0FA092DB0FB092DC0FA8CF46
:1027E000803209F0A4CF8B899C89AD89BE894A01CA
:1027F0005B01E7E0B694A79497948794EA95D1F7A4
:10280000BFCFE894C7F8DD24EE24FF24F601EE0FD5
:10281000FF1FEE0FFF1FEB52F24F40825182628288
:102820007382C9CFCF92DF92EF92FF920F931F93E3
:10283000CF93DF93FC0181859285A385B4850196B2
:10284000A11DB11D84179507A607B70750F480E0B6
:10285000DF91CF911F910F91FF90EF90DF90CF907C
:10286000089587898031A9F5BB27A72F962F852F3B
:10287000C388D488E588F6888C0D9D1DAE1DBF1DCC
:10288000E9016A017B018F014091D50F5091D60F6C
:102890006091D70F7091D80F84179507A607B707D7
:1028A00049F5F8018789803161F5B701A6015527FF
:1028B00066277727440F551F4B52524FFA018081EC
:1028C0009181B0E0A0E088839983AA83BB8381E0F3
:1028D000BFCF803209F0BBCFC388D488E588F688A3
:1028E000DB01CA01C7E0B695A79597958795CA956C
:1028F000D1F7C2CF40E0BC01CD0178DD8111D1CF4D
:10290000A6CFB701A6014F77552766277727440F33
:10291000551F440F551F4B52524FFA018081918130
:10292000A281B381BF70CFCF4F925F926F927F929F
:10293000AF92BF92CF92DF92EF92FF920F931F93CD
:10294000CF93DF9300D01F92CDB7DEB78C014983C0
:102950005A836B837C835901C12CD12C7601412C85
:1029600082E0582E612C712C49815A816B817C81C7
:102970009E012F5F3F4FC80155DF882319F1F801F1
:102980008585A301920104C0220F331F441F551FE8
:102990008A95D2F7DA01C901C80ED91EEA1EFB1EBC
:1029A00049815A816B817C8187898031F1F481E092
:1029B000483F5F4F61057105B8F2F501C082D182D1
:1029C000E282F3820F900F900F900F90DF91CF91E2
:1029D0001F910F91FF90EF90DF90CF90BF90AF903D
:1029E0007F906F905F904F90089581E0483F5F4FD8
:1029F0006F4F7F4008F4B8CFE0CF8F929F92AF9295
:102A0000BF92CF92DF92EF92FF920F931F93CF93DB
:102A1000DF93EC018B8181110EC080E0DF91CF91BB
:102A20001F910F91FF90EF90DF90CF90BF90AF90EC
:102A30009F908F90089509891A892B893C890417E2
:102A400015072607370748F34A015B01823031F446
:102A500088869986AA86BB8681E0E0CF811491049E
:102A6000A104B10449F4188619861A861B861C82B3
:102A70001D821E821F82F0CF088519852A853B851D
:102A8000E98DFA8D858590E00996B901A80141503C
:102A9000510961097109082E04C07695679557950B
:102AA00047950A94D2F775016401E1E0CE1AD10886
:102AB000E108F10804C0F694E794D794C7948A9586
:102AC000D2F7C416D506E606F70620F0012B022B36
:102AD000032B09F58D899E89AF89B88D8C839D83E1
:102AE000AE83BF838E010C5F1F4FC114D104E1047C
:102AF000F10409F4ADCF4C815D816E817F81980135
:102B0000898D9A8D8FDE91E0C91AD108E108F1080C
:102B10008111EBCF82CFC41AD50AE60AF70AE2CFB9
:102B20000F931F93CF93DF93FC012381222331F076
:102B300080E0DF91CF911F910F9108958B01EC01FF
:102B4000FB018789803139F582E08B831D8A1E8ADB
:102B50001F8A188E808D918DB0E0A0E025E0880F4F
:102B6000991FAA1FBB1F2A95D1F7898B9A8BAB8B14
:102B7000BC8B1A8F098F81E08983188619861A8683
:102B80001B861C821D821E821F82188A1C861D863F
:102B90001E861F86CECF803259F683E08B83428D0E
:102BA000538D648D758D4D8B5E8B6F8B788F9E01F1
:102BB0002F5E3F4FC801B8DE8111DBCFB9CFCF9375
:102BC000DF93EC01462F41706C857D858E859F8556
:102BD0000DDC882351F0888920E2829FC0011124F6
:102BE0008B52924FDF91CF91089590E080E0FACF21
:102BF000CF93DF93EC018B81882339F1898187FFA3
:102C000021C061E0CE01DBDFFC01892BF1F0808186
:102C1000853ED9F08B81823040F489899A89AB89CD
:102C2000BC89848F958FA68FB78F8D899E89938F4E
:102C3000828F8D899E89AF89B88DB58BA48B898150
:102C40008F778983DF91CF9188CB81E0888380E083
:102C5000DF91CF910895CF93DF93EC01C9DF1B8201
:102C6000DF91CF91089582EE9FE0C2DF82EE9FE078
:102C7000F2DF8091B9118D7F8E7F8093B911109210
:102C8000B5111092B6111092B7111092B8110895A3
:102C9000CF93DF93EB01FC012381211104C080E07D
:102CA000DF91CF9108952250223028F48FE288835B
:102CB000198281E0F5CF60E082DF009781F3DC01CB
:102CC00060E080E09EE22D91203299F0883031F46E
:102CD0009E01260F311DF90190836F5F9E01260F23
:102CE000311DAD0141505109FA014081F901408384
:102CF0006F5F8F5F8B3039F7FE01E60FF11D108299
:102D0000D8CFCF93DF93EC01CB01E881F9816081CB
:102D10007181BEDF28813981D901ED91FC91AA81B1
:102D2000BB818C919081992359F08936C8F4CF01E9
:102D30000196F901918380838C918F5F8C93EACF08
:102D4000893670F48FE28083E881F98180819181F6
:102D5000019691838083EA81FB8180818F5F8083EC
:102D6000DF91CF9108953F924F925F926F927F9241
:102D70008F929F92AF92BF92CF92DF92EF92FF928B
:102D80000F931F93CF93DF93CDB7DEB72C970FB67A
:102D9000F894DEBF0FBECDBF5C01DC0159968D906B
:102DA0009C90F40181859285A385B4859C01AD0139
:102DB0002F5F3F4F4F4F5F4F29873A874B875C8785
:102DC000D50114964D905D906D907C9017974114AD
:102DD00051046104710409F458C0BFEF4B1A5B0A37
:102DE0006B0A7B0A312C730162011D821E821F82D5
:102DF0001886F40181859285A385B4852D813E8155
:102E00004F815885281739074A075B0708F054C0D7
:102E100089859A85AB85BC858C159D05AE05BF055A
:102E200050F482E0C82ED12CE12CF12C92E0492EF6
:102E3000512C612C712C9E012F5F3F4FB701A601D1
:102E4000C401F0DC8823C1F189819A81AB81BC8106
:102E5000892B8A2B8B2B01F1260137019FEF491A11
:102E6000590A690A790A2D813E814F8158852F5F61
:102E70003F4F4F4F5F4F2D833E834F8358873FEF28
:102E8000C31AD30AE30AF30AB4CF408051806280A8
:102E9000738033243394A7CFC414D504E604F70415
:102EA00011F70FEF1FEF2FEF3FE0B701A601C401AD
:102EB00028DC782E81111AC0712C872D2C960FB624
:102EC000F894DEBF0FBECDBFDF91CF911F910F9160
:102ED000FF90EF90DF90CF90BF90AF909F908F903A
:102EE0007F906F905F904F903F900895F5014481DF
:102EF000558166817781411551056105710531F074
:102F000097018601C401FDDB8823B1F2D501149637
:102F1000CD92DD92ED92FC921797332051F0D701BC
:102F2000C6010196A11DB11DF40180839183A28386
:102F3000B383F50185899689A789B08D892B8A2B62
:102F40008B2B09F0BACFC58AD68AE78AF08E8181A9
:102F500080688183B2CFFC01238121117CCE08954A
:102F60000F931F93CF93DF93CDB7DEB760970FB664
:102F7000F894DEBF0FBECDBF8C01DC01ED91FC915A
:102F80000280F381E02DBE016F5F7F4F199588238A
:102F900009F464C08981807CC9F56F81637070E039
:102FA000762F6627770F770F8885B4E08B9FC00157
:102FB0001124682B792B8985829586958695837057
:102FC000682B6F5F7F4F90E080E02A852370220F8F
:102FD0003B8537FB332730F9232B3E813F70230F8E
:102FE0003327331F2750310904C0660F771F881F0E
:102FF000991F2A95D2F760960FB6F894DEBF0FBEE0
:10300000CDBFDF91CF911F910F910895803419F5B5
:1030100068856695669570E090E080E0CB01772743
:1030200066272A85622B098510E0102F0027012EC4
:10303000000C220B330B602B712B822B932B6F5FB9
:103040007F4F8F4F9F4F4AE0660F771F881F991F52
:103050004A95D1F7D0CF8BE0F801848360E070E02F
:10306000CB01C9CF0895FC0182810895CF93DF93EE
:10307000C0916210D0916310209721F160915E1091
:1030800070915F1080916010909161100E94AB94DC
:103090006E5F7F4F24976C177D07A4F47093000434
:1030A0006093FF0301D9605C73468F4F9F4F60931D
:1030B0000104709302048093030490930404DF914D
:1030C000CF9108951092010410920204109203040B
:1030D00010920404F4CFCF93DF9310921105CAE548
:1030E000D0E119861886C2DF1A865E98DF91CF91EB
:1030F0000895FC0190E1AFEDB3E001900D929A9537
:10310000E1F70895BC012091DC033091DD0340918B
:10311000DC035091DD032417350731F481E02617D5
:10312000370709F080E008959A01F1CFEF92FF92FE
:103130000F931F93E0921D03F0921E0300931F0351
:103140001093200360932103709322038093230341
:103150009FEFFF27621B730B840B30F480957095F3
:103160006195790B890B992790931C03A6E06A9FC0
:1031700000921003512DEE277A9F500DE11D8A9F7A
:10318000E00D50931103E0931203AFE06A9F0092A9
:103190001403512DEE277A9F500DE11D8A9FE00DFB
:1031A00050931503E0931603AAE06A9F0092180358
:1031B000512DEE277A9F500DE11D8A9FE00D50930F
:1031C0001903E0931A031F910F91FF90EF90089558
:1031D00000C000C08091090480FF24C080910501D7
:1031E00080958071809303018FEF80939603809187
:1031F000090481FF1EC045988FEF8093970380914B
:10320000090482FF19C0429A8FEF8093980380913E
:10321000090483FF14C040988FEF8093990300C086
:1032200000C008958091050180718093030181E0C1
:10323000DCCF459A81E0E1CF429881E0E6CF409A29
:1032400081E0EBCF80919503877F8093950347982A
:1032500081E00895479A8091950388608093950353
:1032600008958130B1F070F08230C1F021E030E09B
:1032700001C0220F8A95EAF780919503822B8093F3
:10328000950308959091050190959870909303018E
:10329000EDCF9091050190959470F8CF449AE6CFC8
:1032A000CF93DF93EC01C43081E0D8076CF184E068
:1032B00091E09093631080936210C4E0D1E060913C
:1032C0005E1070915F1080916010909161100E946B
:1032D000AB946E5F7F4F24976C177D07DCF470937F
:1032E00000046093FF030E945411605C73468F4F8B
:1032F0009F4F6093010470930204809303049093A2
:103300000404DF91CF910895D0936310C0936210AD
:103310002097A9F61092010410920204109203045F
:1033200010920404EECFCF93DF9380918E0381112E
:1033300019C0C0910A02D0910B02219720E030E021
:1033400040E05FE360915E1070915F1080916010CB
:10335000909161100E9467930E94AB9421E06C17DA
:103360007D070CF020E0822FDF91CF9108959F928E
:10337000AF92BF92CF92DF92EF92FF920F931F9383
:10338000CF93DF9300D01F921F92CDB7DEB7EDEC45
:10339000FBE00027BB27462F572FA82FAA2341F475
:1033A000A52F542FB85FAA2319F4A52F5527B85F6E
:1033B000A03138F45295A295452F4F70507FA42B21
:1033C000BC5FA03428F4550FAA1F550FAA1FBE5F7B
:1033D000A03818F4550FAA1FB395550FAA1FEA0F6E
:1033E000F01F449151E0AA27B85079F1C0F0B0FF26
:1033F00002C0440F551FB1FF04C0440F551F440FB6
:10340000551FB2FF06C052954295142F1F70407F82
:10341000512BB3FF1AC0A52F542F442716C0B195C6
:10342000B0FF02C055954795B1FF04C0559547952B
:1034300055954795B2FF05C05295407F4295452B63
:103440005F70B3FF02C0452F5527DD24CC24BB2479
:10345000B2E0649FD018C108B00AB00B749FC018C6
:10346000B108B00B849FB018B109659FC018B108AE
:10347000B00B759FB018B109859FB0196A9FB0183D
:10348000B1097A9FB0194D9DA12C99243327992712
:1034900022275D9DA00C911C301F901F201FAD9D09
:1034A000900C311D901F201F4C9DA00C911C301FB3
:1034B000901F201F5C9D900C311D901F201FAC9D04
:1034C000300D911D201F4B9D900C311D901F201F12
:1034D0005B9D300D911D201FAB9D900D211D4B9FBD
:1034E000300D911D201F5B9F900D211DAB9F200D66
:1034F000B1E0BB24CC24DD24639FD018C108B00AFE
:10350000B00B739FC018B108B00B839FB018B109FE
:10351000699FC018B108B00B799FB018B109899F95
:10352000B019629FB018B109729FB019D61AC70AB4
:10353000B80A20F0B1E03B0F901F201F1124792F13
:10354000632F90E0822F0F900F900F900F900F90AD
:10355000DF91CF911F910F91FF90EF90DF90CF906F
:10356000BF90AF909F900895AF92BF92CF92DF929D
:10357000EF92FF920F931F93CF93DF93CDEAD4E0A6
:1035800008E714E08DEBA82E84E0B82EC12CD12CD6
:103590007601C39469917991899199910E940B8FD9
:1035A000288939894A895B890E946C8F0E94B0946E
:1035B000F80161937193819391938F01C616D70699
:1035C000E806F90610F46B017C01AC16BD0611F794
:1035D0006FEF7FEFCB01A70196010E94E19220934C
:1035E00088043093890440938A0450938B04DF91BC
:1035F000CF911F910F91FF90EF90DF90CF90BF90F0
:10360000AF900895CF92DF92EF92FF928091930353
:10361000882309F457C0C0908F03D0909003E090A6
:103620009103F090920320E030E0A901C701B601B8
:103630000E94078F882309F445C020E030E040E075
:103640005FE3C701B6010E946C8F9B01AC010E9431
:103650006C8F2BED3FE049E450E40E946C8F9B019E
:10366000AC0160E070E080E89FE30E9443946B014E
:103670007C01C0928A03D0928B03E0928C03F0927B
:103680008D036091080270910902072E000C880BCF
:10369000990B0E940D8F2AE037ED43E25CE30E9414
:1036A0006C8FA70196010E946C8F60933502709316
:1036B00036028093370290933802FF90EF90DF90AC
:1036C000CF900895C12CD12C80E8E82E8FE3F82EFE
:1036D000D0CF90916F0081E091FD02C080E008950D
:1036E00090916F009D7F90936F000895EFE6F0E05A
:1036F0008081826080830895ECDF91E09093DE0307
:103700008111F4CF0895CF92DF92EF92FF92CF9381
:10371000DF93C82FDEDF94E0C99FE0011124FE0192
:10372000E152FC4FC080D180E280F3808111DEDF66
:10373000C357DB4FC701B6010E940D8F2881398125
:103740004A815B810E946C8FDF91CF91FF90EF9057
:10375000DF90CF9008958F3010F48F5F08958F50D1
:103760000895CF93DF9390918A10809189108917E3
:1037700040F0891B41F4D0E0C0E0CE01DF91CF9151
:103780000895805FF6CF90918610992351F0833091
:1037900030F48FEF890F19F080938610ECCF1092E0
:1037A0008610C0918A1087E5C89FE0011124CD568C
:1037B000DA4F888180FDDFCF80918A10CCDF809343
:1037C000871090918A10809188109813D6CF80919D
:1037D000871080938810D1CFFC017081472F50E073
:1037E000062E02C0559547950A94E2F740FF14C093
:1037F00040916D0350E0062E02C0559547950A94FE
:10380000E2F740FF09C021E030E001C0220F6A95D5
:10381000EAF72095272320830895CF93DF931F9203
:10382000CDB7DEB787E0898360E0CE010196D4DFB3
:1038300061E0CE010196D0DF62E0CE010196CCDFDF
:1038400089810F90DF91CF910895CF93DF9324E08A
:10385000829FC0011124EC01CB50DB4FFC01E65FDD
:10386000FB4F82599C4FDC012D913D914D915C9114
:1038700060817181828193810E94679368837983DB
:103880008A839B83DF91CF9108958F929F92AF920D
:10389000BF92CF92DF92EF92FF92CF93DF9320916E
:1038A0000C02222309F48EC0EC0180916D03E82EF6
:1038B00080FF2CC080900E0290900F02A09010020A
:1038C000B0901102288139814A815B81C501B40120
:1038D0000E948D95181624F488829982AA82BB8250
:1038E00080901A0290901B02A0901C02B0901D02C2
:1038F000288139814A815B81C501B4010E94078F0B
:1039000087FF04C088829982AA82BB82E1FE2CC014
:103910008090120290901302A0901402B0901502B1
:103920002C813D814E815F81C501B4010E948D953E
:10393000181624F48C829D82AE82BF8280901E0273
:1039400090901F02A0902002B09021022C813D8116
:103950004E815F81C501B4010E94078F87FF04C0BB
:103960008C829D82AE82BF82E2FE2CC0C090160285
:10397000D0901702E0901802F0901902288539853E
:103980004A855B85C701B6010E948D95181624F4FF
:10399000C886D986EA86FB86C0902202D090230290
:1039A000E0902402F0902502288539854A855B85C0
:1039B000C701B6010E94078F87FF04C0C886D98659
:1039C000EA86FB86DF91CF91FF90EF90DF90CF905A
:1039D000BF90AF909F908F900895CF93DF93909179
:1039E00009018091600395FD4CC081608093600364
:1039F000909109018091600396FD45C0826080939B
:103A00006003909109018091600397FD3EC084603E
:103A100080936003C091CF03C0FF0FC08091090461
:103A200080FF0BC08091600380FF07C0809163041A
:103A300081608093630480E05FDEC1FF0FC08091EE
:103A4000090481FF0BC08091600381FF07C0809152
:103A5000630482608093630481E04EDEC2FF17C07E
:103A60008091090482FD13C08091600382FF0FC022
:103A70008091630484608093630482E0DF91CF913E
:103A80003BCE8E7FB3CF8D7FBACF8B7FC1CFDF91FF
:103A9000CF9108950F931F9380915F03813019F5A3
:103AA0000E9454110091570310915803209159031B
:103AB00030915A03601B710B820B930B28EE33E09D
:103AC00040E050E00E94E1926091530370915403F2
:103AD0008091550390915603620F731F841F951FA9
:103AE0001F910F91089560915B0370915C03809129
:103AF0005D0390915E03D6CF10925F03109257033F
:103B0000109258031092590310925A0310925B03BB
:103B100010925C0310925D0310925E0310925303A7
:103B200010925403109255031092560308958091F9
:103B30005F038130E1F08230C1F4ACDF6093530366
:103B400070935403809355039093560381E08093C0
:103B50005F030E945411609357037093580380933E
:103B6000590390935A0381E00895C6DFEFCF80E0B8
:103B7000089580915F038150823070F410925F034A
:103B80000E94541160935B0370935C0380935D0308
:103B900090935E0381E0089580E00895CF93DF93D2
:103BA000DB01F9019C919130C1F0943080F0945088
:103BB0009C938830D1F480819181009771F00197B6
:103BC00091838083480F591FEA01188206C08C3503
:103BD00039F49C5F9C93943041F4DF91CF91089528
:103BE0008B3339F781E08C93F8CF20813181B90193
:103BF0006F5F7F4F71836083420F531FEA01888399
:103C0000808191818F3591056CF7E7CF0F931F93DA
:103C100081E00091B5111091B6112091B71130914A
:103C2000B8114091B1115091B2116091B3117091DE
:103C3000B411041715072607370708F480E01F9111
:103C40000F91089590E080E0089520919F108330B7
:103C500021F425FD0CC024FD0CC030E0A90102C0F8
:103C6000559547958A95E2F7CA018170089581E0DC
:103C7000089580E0089580914A0384FD0BC08091EF
:103C80004C0387FD07C090914D03937081E019F4B8
:103C900080E0089581E008952FEB280F2A3108F085
:103CA00047C0E22FF0E080914A0390914B03A0912E
:103CB0004C03B0914D0304C0B695A7959795879591
:103CC0002A95D2F780FD02C081700895E05DFC4F17
:103CD000E081EE2341F18091880590918905E80FFC
:103CE000F92FF11D808190ED980F9A3030F08E32CF
:103CF00051F4818180538A3098F4F0932F03E0933C
:103D00002E0381E008958D3211F08B3249F48181C8
:103D100090ED980F9A3088F38E3211F48281EACFB9
:103D2000F0E0E0E0EACF10922F0310922E03E9CFEB
:103D300080E00895B1DF882341F081E020912E03D7
:103D400030912F03232B09F480E008959091B9114D
:103D500094FB882780F994FF06C081E09091E50FDD
:103D6000911101C080E008958091B9118F778093FF
:103D7000B911ECDF882321F082EE9FE00C942B1622
:103D8000089581E00895CF93DF93EC01E62F660F4D
:103D9000FF0BEF5BFC4EE491E250E13108F0B0C064
:103DA000F0E08827E952F14E8F4F0C944C93E81EB7
:103DB000801F801F801F801F121FF41E361F341F9C
:103DC000141F5A1F581F381F801F7E1F7C1F5C1F27
:103DD00082E1E9E5F2E0DE0101900D928A95E1F7DA
:103DE000CE01DF91CF91089581E020EB30E039835F
:103DF000288321EB30E03B832A831D821C8223EB46
:103E000030E03F832E8324EB30E0398728871B8600
:103E10001A861D861C8692E09E878F8781E0888B9C
:103E2000198ADECF80E0E1CF81E08F5F20E930E0CA
:103E30003983288321E930E03B832A8322E930E07B
:103E40003D832C8328E930E03F832E832AE930E04C
:103E5000398728872CE930E03B872A8726E930E03C
:103E60003D872C8793E0D8CF80E0DFCF80E0DECFA6
:103E700081E08F5F20EA30E03983288321EA30E057
:103E80003B832A8322EA30E03D832C8328EA30E01A
:103E90003F832E832AEA30E0398728872CEA30E0F6
:103EA0003B872A8726EA30E03D872C8794E0B4CF11
:103EB00080E0DFCF80E0DECF81E08F5F20E231E085
:103EC0003983288321E231E03B832A8322E231E0F7
:103ED0003D832C8328E231E03F832E832AE231E0C8
:103EE000398728872CE231E03B872A8726E231E0B8
:103EF0003D872C8795E090CF80E0DFCF80E0DECF5C
:103F000082E1FE0111928A95E9F76ACF9091C00093
:103F100095FFFCCF8093C60008958F929F92AF9239
:103F2000BF92EF92FF921F93CF93DF93CDB7DEB78F
:103F3000A0970FB6F894DEBF0FBECDBF6115710517
:103F40008105910589F120E04AE0842E912CA12C75
:103F5000B12C11E0120FEE24E394F12CEC0EFD1EB7
:103F6000E20EF11C27FDFA94A50194010E94E19252
:103F7000F7016083B901CA01212F6115710581051F
:103F8000910539F7115008F1E1E0F0E0EC0FFD1F69
:103F9000E10FF11D17FDFA95908187E39A3008F43F
:103FA00080E3890FB3DFEECF80E3A0960FB6F894DD
:103FB000DEBF0FBECDBFDF91CF911F91FF90EF907D
:103FC000BF90AF909F908F90A1CFA0960FB6F8941E
:103FD000DEBF0FBECDBFDF91CF911F91FF90EF905D
:103FE000BF90AF909F908F900895CF92DF92EF9205
:103FF000FF926B017C01F7FE0AC0F094E094D0942C
:10400000C094C11CD11CE11CF11C8DE27FDFC701F3
:10401000B601FF90EF90DF90CF907FCFBC01990F5A
:10402000880B990BE2CF8F929F92AF92BF92CF9263
:10403000DF92EF92FF926B017C0120E030E0A9015A
:104040000E94078F87FF06C08DE260DFF7FAF094C9
:10405000F7F8F0942BE037ED43EA5BE3C701B601D4
:104060000E9467934B015C010E94B0946B017C013C
:104070000E940B8F9B01AC01C501B4010E946693A5
:104080004B015C01C701B60148DF8EE23FDF20E053
:1040900030E040E251E4C501B4010E946C8F6B0135
:1040A0007C010E94B0944B015C0137DFC501B40173
:1040B0000E940B8F9B01AC01C701B6010E94669361
:1040C00020E030E040E251E40E946C8F0E94B09406
:1040D000FF90EF90DF90CF90BF90AF909F908F9028
:1040E0001CCFCF93DF93EC018991882311F00EDF71
:1040F000FBCFDF91CF910895F4DF8DE007DF8AE0F9
:1041000005CFCF93DF93EC01FE01849121968823A4
:1041100011F0FCDEF9CFDF91CF910895CF92DF92BD
:10412000EF92FF92E4E0FBE080818183C090860BF8
:10413000D090870BE090880BF090890B8FEFC81A16
:10414000D80AE80AF80A87E19FE1DBDFC701B60178
:104150004CDF8AE0DBDE83E19FE1FF90EF90DF90B0
:10416000CF90CFCFCF93DF93EB01CBDFBE0190E0B9
:1041700080E0DF91CF91D1CE8F929F92AF92BF928C
:10418000CF92DF92EF92FF920F931F93CF93DF9323
:10419000C82F0AE510E1F80160857185072E000C33
:1041A000880B990B0E940D8F6B017C01F8018480B4
:1041B0009580A680B78080E2A9DE84E5A7DE8AE349
:1041C000A5DEC501B4012FDF82E19FE09ADFC701C0
:1041D000B60129DF62E070E080E090E00E942311E8
:1041E0008CE2C802F0011124E65AFF4EC285D0E0ED
:1041F00085E19FE086DFCE01DF91CF911F910F9186
:10420000FF90EF90DF90CF90BF90AF909F908F90F6
:1042100005CFCF92DF92EF92FF92CF93DF93EC0125
:10422000C880D980EA80FB808CE69EE06ADFC70107
:10423000B601DBDECC80DD80EE80FF8084ED9CE18A
:1042400060DFC701B601D1DEC884D984EA84FB846B
:1042500080ED9CE156DFC701B601C7DE8AE0DF9141
:10426000CF91FF90EF90DF90CF9050CECF93DF9320
:10427000EB0147DFCE01DF91CF9133CFBC0183E863
:104280009FE0F4DF80E89FE03CCFF0DF8AE03ECEA5
:104290000F931F93CF938C01C62F87E499E031DFF2
:1042A000C8012FDF8AE332DE80E38C0F2FDE8AE045
:1042B000CF911F910F912ACEE091EE0B81E6E89FFE
:1042C000F0011124E05BF34F8081811105C08FE381
:1042D00092E117DF8AE01ACE089587E991E011CFC5
:1042E00081E991E00ECFFCDF60918805709189052E
:1042F00089E99CE1BBDF86E99CE103CF1F93CF9363
:10430000DF93182FEB01ECDF8CE490E1FADE88E319
:1043100090E1113011F48EE390E1F3DEBE0184E40C
:1043200090E1DF91CF911F91B0CFCF93DF93809138
:10433000B9118F7E8093B91180913910882321F0B3
:1043400086E390E10E942B168091C2119091C311D7
:10435000DC01ED91FC910190F081E02D45E360E0FE
:10436000199581110CC0BCDF84E79FE0CADE809103
:10437000B91184FF2DC0DF91CF910C946011C091D1
:10438000C211D091C31161E0CE010E94341281119B
:104390000AC060E0CE010E943412811104C09DDF8A
:1043A00080E69FE0E3CF6DEF7FE086E390E10E943F
:1043B0009015811104C091DF8FE49FE0D7CF8091E9
:1043C000B91180618093B9118BDF83E49FE0CECF78
:1043D000DF91CF9108950F931F93CF93811111C057
:1043E000C42F8B017DDF8DEF96E08BDEC80189DE67
:1043F000CC2339F08AE38ADD8AE0CF911F910F91B7
:1044000085CDCF911F910F910895CF93C82F41E093
:10441000E2DFC11102C0CF9163CFCF910895CF9257
:10442000DF92EF92FF926A017B016BDEC701B6015A
:10443000FF90EF90DF90CF90F6CD4F925F926F920A
:104440007F928F929F92AF92BF92CF92DF92EF9224
:10445000FF920F931F93CF93DF93C9E3D2E04C8475
:104460005D846E847F8405EF14E0F801248135813A
:10447000468157816C817D818E819F810E946793E7
:104480004B015C01F80120853185428553856885A3
:1044900079858A859B850E9467936B017C01F80171
:1044A0002081318142815381688179818A819B8118
:1044B0000E946793AB01BC0188ED9CE1B0DFB501C0
:1044C000A40184ED9CE1ABDFB701A60180ED9CE186
:1044D000A6DFB301A2018CEC9CE1DF91CF911F918B
:1044E0000F91FF90EF90DF90CF90BF90AF909F9093
:1044F0008F907F906F905F904F9091CFCF93DF938D
:10450000CDB7DEB72C970FB6F894DEBF0FBECDBF88
:1045100094DFDFD89CE0EFEDF3E0DE01119601902F
:104520000D929A95E1F78111E1D8CE01019671DEE5
:104530002C960FB6F894DEBF0FBECDBFDF91CF91A2
:104540000895CF93DF936DEB7CE15FDFCDEAD4E09C
:104550004C895D896E897F8985EB9CE160DF488DA0
:10456000598D6A8D7B8D82EB9CE159DF4C8D5D8D81
:104570006E8D7F8D8FEA9CE152DF48A159A16AA11F
:104580007BA18CEA9CE14BDF8AE0DF91CF91BECC2E
:10459000CF93C82F41E06BED72E01DDFC11101C068
:1045A0009FDE40917A1050917B1060917C10709149
:1045B0007D1082ED92E033DF21E732EB47E25EE3EC
:1045C00060917E1070917F10809180109091811089
:1045D0000E944394AB01BC018FEC92E020DF21E705
:1045E00032EB47E25EE3609182107091831080911C
:1045F0008410909185100E946C8FAB01BC018CECF3
:1046000092E00DDF8AE0CF9181CC09DF8AE07ECC99
:10461000CF93DF936BE379E0F8DECAE0D4E0488122
:1046200059816A817B8182E399E0F9DE4C815D8169
:104630006E817F8182EB9CE1F2DE488559856A8537
:104640007B858FEA9CE1DF91CF91DFCFCF93811102
:104650000EC040E067EB71E0BEDE809193038111F4
:1046600003C08AEA91E04DDD8AE050DC39DEC0917A
:10467000930381EA91E045DD6C2F70E090E080E0EB
:10468000B4DC40918F03509190036091910370913D
:1046900092038EE991E0CF91B8CF67E772E0B5DE83
:1046A0006091BD047091BE048091BF049091C004DC
:1046B0000E940B8FAB01BC018EE692E0B0DE409110
:1046C000ED045091EE046091EF047091F0048BE6DC
:1046D00092E0A5DE4091F1045091F2046091F30460
:1046E0007091F40488E692E09ADE4091640450915F
:1046F0006504609166047091670485E692E085CF59
:10470000CF93DF936BE172E080DECDEAD4E04CA979
:104710005DA96EA97FA982E192E081DE48AD59AD25
:104720006AAD7BAD8FE092E07ADE4CAD5DAD6EADF3
:104730007FAD88E692E0DF91CF9167CFCF93DF9393
:1047400067EF71E062DECDEAD4E04CA15DA16EA11D
:104750007FA18EEE91E063DE48A559A56AA57BA5F1
:1047600082EB9CE15CDE4CA55DA56EA57FA58FEA82
:104770009CE155DE48A959A96AA97BA98CEA9CE16C
:104780004EDE8AE0DF91CF91C1CBCF93DF9362ED14
:1047900071E03BDECDEAD4E0688179818A819B813A
:1047A0000E940B8FAB01BC0189EC91E038DE6C817B
:1047B0007D818E819F810E940B8FAB01BC0182EBBA
:1047C0009CE12DDE688579858A859B850E940B8F0B
:1047D000AB01BC018FEA9CE122DE6C857D858E8574
:1047E0009F850E940B8FAB01BC018CEA9CE117DE18
:1047F0008AE0DF91CF918ACB84DC8AE087CBCF93AC
:10480000C82F41E066E67DE0E6DDC11101C068DD4C
:104810008EE59DE076DC89E29DE0EEDF41E06CE430
:104820007DE08C2FD8DDC11101C05ADD8FE29DE003
:1048300068DC8C2F0BDF8C2F84DE8C2F7FDF8C2F9E
:10484000A4DF8C2F5DDF8C2F28DF8C2FE1DE8C2FF7
:10485000CF919ECECF93C82FCB0153DC89E999E04D
:1048600050DC8AE899E0CC2311F08FE899E0CF91F1
:10487000C3CF1F93CF93DF938EEA99E042DCC9E068
:10488000D1E0888111E085FB882780F968EA79E02A
:104890008127E0DF888186FB882780F962EA79E05A
:1048A0008127D8DF888180956CE979E0881F882787
:1048B000881FDF91CF911F91CDCF8091040B9091F4
:1048C000050B2FEF3FEF981751F0E92FF0E0EC5F69
:1048D000F44F228130E09F5F9F779093050BC901D1
:1048E0000895CF92DF92EF92FF920F931F93CF9391
:1048F0008C01C62FF2DCC090860BD090870BE09025
:10490000880BF090890BC801FCDBC701B6016DDB99
:104910008AE0FCDAD2DF0196E9F78C2FFFDB1092F8
:104920008B0B10928A0BCF911F910F91FF90EF90FC
:10493000DF90CF9008958EBD0DB407FEFDCF089592
:1049400061E0FC0183810E9472108FEFF4CF8FEF42
:104950008EBD0DB407FEFDCF8EB50895CF92DF92C8
:10496000EF92FF920E9454116B017C0128E5C20E68
:1049700022E0D21EE11CF11CEADF8F3F71F00E94A1
:1049800054116C197D098E099F0997FDF5CF80E0C0
:10499000FF90EF90DF90CF90089581E0F9CFCF9313
:1049A000DF93EC016EBDFA01CA019E5F0DB407FEF4
:1049B000FDCF20812EBD0DB407FEFDCF21812EBD80
:1049C0003296E817F90791F70DB407FEFDCF8FEF88
:1049D000B2DF8FEFB0DFBBDF8E838F71853041F0A8
:1049E00083E18C83CE01ACDF80E0DF91CF9108952D
:1049F00081E0FBCF8F929F92AF92BF92EF92FF9296
:104A00000F931F93CF93DF938C01EB017A010E94E8
:104A100054114B015C012CE2820E21E0921EA11C7C
:104A2000B11C95DFF80186838F3F69F40E94541111
:104A3000681979098A099B0997FDF3CF81E1F8018B
:104A40008483C0E01FC08E3F59F5F1E0EF1AF108F2
:104A50008FEF8EBDFE012FEF0DB407FEFDCF8EB59B
:104A600081932EBDCF018C1B9D0B8E159F05A0F34E
:104A70000DB407FEFDCF8EB5CE0DDF1D888367DF39
:104A800066DFC1E0C8015CDF8C2FDF91CF911F9101
:104A90000F91FF90EF90BF90AF909F908F900895EF
:104AA0008FE0CDCF909164009B7F90936400982F0E
:104AB000906A96959CBD80FD03C091E0863009F414
:104AC00090E09DBD0895CF93DF93EC018D81EADFE7
:104AD00060E08B81DF91CF910C9472100F931F9344
:104AE000CF938C01F0DF3ADFC82F81110AC082E139
:104AF000F8018483C80124DF8C2FCF911F910F917F
:104B000008958DEF18DF2ADFC82FF4CFEF92FF92C0
:104B10001F93CF93DF93EC017B01D5DF1FDF182FAD
:104B200081110BC085E18C83CE010ADF812FDF91DB
:104B3000CF911F91FF90EF900895A7016CEFCE01E8
:104B40002EDF182FF1CF0F931F93CF93DF93EC013C
:104B50008B01B9DF40E052E0B801CE01DF91CF9187
:104B60001F910F9147CFDF92EF92FF920F931F9308
:104B7000CF93DF938C01C62FD22FF32EE42ED52EA8
:104B8000A2DFECDE8C2F8064D6DE8D2DD4DE8E2D60
:104B9000D2DE8F2DD0DE8D2FCEDE87E8C11101C091
:104BA00085E9C9DECC3009F4D2DEC0E0D0DEF80100
:104BB000868387FF04C0CF3F11F0CF5FF7CFDF912F
:104BC000CF911F910F91FF90EF90DF9008958F92FA
:104BD0009F92AF92BF92CF92DF92EF92FF920F938C
:104BE0001F93CF93DF93EC016A017B01590120E011
:104BF00030E0A90167E3B7DFA501980167E1CE01C5
:104C0000B2DF811125C08F81833039F089E0CC0C6F
:104C1000DD1CEE1CFF1C8A95D1F7A701960169E106
:104C2000CE01A1DF11E0882319F010E087E08C832A
:104C3000CE0186DE812FDF91CF911F910F91FF90E2
:104C4000EF90DF90CF90BF90AF909F908F9008959E
:104C500089E08C8310E0ECCF0F931F93CF93DF9309
:104C6000EC0189018F81833039F089E0440F551FB1
:104C7000661F771F8A95D1F79A01AB0168E1CE01D3
:104C800072DF882321F086E08C8310E007C0A80142
:104C90006EEFCE0184DE811109C011E0CE0150DE3D
:104CA000812FDF91CF911F910F91089557DE182F1B
:104CB000811103C087E18C83F1CF20E030E0A901AE
:104CC0006DE0CE0150DF811103C041DE882329F35E
:104CD00086E1DACF1F93CF93DF93EC01F4DE20E07F
:104CE00030E0A9016CE0CE013EDF11E0882319F02D
:104CF00010E083E08C83CE0123DE812FDF91CF9102
:104D00001F9108951F93CF93DF93EC018F81833020
:104D100039F089E0440F551F661F771F8A95D1F738
:104D20009A01AB0162E1CE011EDF11E0882319F088
:104D300010E085E08C83CE0103DE812FDF91CF91DF
:104D40001F9108950F931F93CF93DF93EC01890177
:104D50008F81833039F089E0440F551F661F771F1C
:104D60008A95D1F79A01AB0161E1CE01FCDE811198
:104D700009C040E052E0B801CE01DF91CF911F9110
:104D80000F9138CE84E08C83CE01DADD80E0DF91B4
:104D9000CF911F910F9108958F929F92AF92BF92E2
:104DA000CF92DF92EF92FF920F931F93CF93DF93F7
:104DB000EC01162F1F821C824B830E9454116B0141
:104DC0007C0120EDC20E27E0D21EE11CF11CA8954B
:104DD00061E08B810E9472108B8190E0FC01E551B3
:104DE000FD4E24918B569D4EFC018491882399F0B1
:104DF00090E0880F991FFC01E75EF04FA591B491F8
:104E0000FC01E558FD4E859194918FB7F894EC9193
:104E10002E2B2C938FBF209A289A219A2398229A7E
:104E200081E040DE85E08D833DDE0AE08FEF83DDAB
:104E30000150E1F7A89520E030E0A90160E0CE0143
:104E400092DE8E83813079F00E9454116C197D09B5
:104E50008E099F0997FDEFCF81E08C83CE0170DD35
:104E60001A8280E060C0A8952AEA31E040E050E074
:104E700068E0CE0178DE853031F581E08F83A8953A
:104E80008F81812C912C5401823029F4812C912C1A
:104E9000A12C80E4B82E20E030E0A90167E3CE0128
:104EA00062DEA501940169E2CE015DDE8E83882376
:104EB000E9F00E9454116C197D098E099F0997FD34
:104EC000EACF8AE0CACF04E042DD8E830150E1F7E9
:104ED0008A3A11F482E0D2CF0E9454116C197D09F4
:104EE0008E099F0997FDC0CF82E0B7CF8F818230B6
:104EF00099F420E030E0A9016AE3CE0134DE882392
:104F000011F088E0AACF23DD807C803C11F483E09F
:104F10008F831DDD1CDD1BDDCE0112DD81E08A8368
:104F2000173070F41D83DF91CF911F910F91FF9087
:104F3000EF90DF90CF90BF90AF909F908F900895AB
:104F400088E18C838ECF0F931F93CF93DF93EC0177
:104F50008B0120E030E0A90169E005DE811109C084
:104F600040E150E0B801CE01DF91CF911F910F9148
:104F700041CD80E18C83CE01E3DC80E0DF91CF91F5
:104F80001F910F9108958F929F92AF92BF92CF92EF
:104F9000DF92EF92FF920F931F93CF93DF9300D096
:104FA0001F92CDB7DEB7FC018381813091F080E0A4
:104FB0000F900F900F900F90DF91CF911F910F9155
:104FC000FF90EF90DF90CF90BF90AF909F908F9029
:104FD0000895818181FFEBCF81899289A389B4896A
:104FE000892B8A2B8B2B09F460C07F0140E050E0B5
:104FF000BA01CF010E94FD148823C9F2F701C18CC8
:10500000D28C85889688A788B08C82E090E0A0E05A
:10501000B0E0F60180839183A283B3839E012F5F6A
:105020003F4FB501A401C6010E941214882309F460
:10503000BECF00E010E09801B501A401C6010E94B6
:105040008113882309F4B3CF89809A80AB80BC8018
:10505000F6018789803101F5F8EF8F16FFEF9F0683
:10506000A104B104D8F2F701158A168A178A108EA6
:10507000118A128A138A148A818180688183C70108
:105080000E94F815882309F492CF40E050E0BA015D
:10509000C7010E94FD148CCF88EF88168FEF980609
:1050A000A8068FE0B806F8F6B9CF81E081CF8F92DD
:1050B0009F92AF92BF92CF92DF92EF92FF920F93A7
:1050C0001F93CF93DF93BDE3A0E06A2F70E0AB01A5
:1050D0004B0F511D55954795411119C0E9E6F0E177
:1050E00065917491072E000C880B990B0E940D8F0F
:1050F000DF91CF911F910F91FF90EF90DF90CF90B4
:10510000BF90AF909F908F900895B42FE0CF4A1733
:1051100011F0B41303C0E9E5F1E1E2CF9A012150A7
:105120003109220F331F220F331FF901E959FF4EB6
:10513000E590F490F901E559FF4EC591D4918E1593
:105140009F0518F3A42FC817D90708F4BECFF9019B
:10515000E759FF4E05911491F901E359FF4EC590AF
:10516000D4908E199F09BC0190E080E00E940B8FC3
:105170004B015C01B601601B710B072E000C880B04
:10518000990B0E940D8F9B01AC01C501B4010E94D7
:105190006C8F4B015C01CE19DF09BE0190E080E00D
:1051A0000E940B8F9B01AC01C501B4010E94439486
:1051B0006B017C01B801110F880B990B0E940D8FB8
:1051C0009B01AC01C701B6010E94679391CF4F923A
:1051D0005F926F927F92AF92BF92CF92DF92EF92E7
:1051E000FF920F931F93CF93DF9310924F03109270
:1051F0004E032FE320935203109251031092500359
:1052000010924A0310924B0310924C0310924D03DC
:105210009C01E90198812F5F3F4F9032D1F39E347A
:10522000C9F4898190ED980F9A3020F08D3211F0F9
:105230008B3281F422969E012F5F3F4F88818053ED
:105240008A3008F46EC09E012F5F3F4F8881803204
:1052500009F469C0D0938905C09388057E012FEFBA
:10526000E21AF20A18816AE270E0C7010E946096B1
:10527000009731F0FC01319780818032E1F3118297
:105280001D3421F0143511F01734E1F5F701808158
:105290009FEFE91AF90A8032C9F380538A3090F5FA
:1052A0001093520390E080E06AE0AF014F5F5F4FE0
:1052B000689F9001699F300D1124C901C09720811A
:1052C000820F911D27FD9A95FA01208120532A30E3
:1052D00060F39093510380935003DF0131962C913A
:1052E0002032D9F31D3459F58E31910539F0E8F4A7
:1052F0008731910519F08C31910509F5B0934F0371
:10530000A0934E03DF91CF911F910F91FF90EF90EB
:10531000DF90CF90BF90AF907F906F905F904F9055
:105320000895E90188CFE9018ECF8537910538F0DE
:105330008737910518F3803AE3E09E07F9F240E0E1
:1053400050E0BA0130E020E0C12CD12C7601C394AA
:10535000FD0131960C91002309F48CC00132F1F467
:105360001D34E1F480329105C9F440934A0350930F
:105370004B0360934C0370934D03F0934F03E09302
:105380004E0363E270E0CF010E946096009709F43B
:10539000B9CFFC011082B6CFDF01DACF01540A3158
:1053A00008F063C0DF01BD90D0E2AD2EBA1499F0D1
:1053B000A0EDAB0DAA3008F1AEE2BA120EC0A18189
:1053C000A053AA30D0F02115310519F49F012150C6
:1053D0003109B12C16C0FD01E5CFADE2AA2EBA14F9
:1053E00019F0ABE2BA12EFCFA181B0EDBA0FBA302B
:1053F00020F0AE3241F7A281E3CFBE2EBC1A309727
:1054000041F3A02FB0E02601370104C0440C551C25
:10541000661C771C0A95D2F74429552966297729F5
:10542000A05DBC4FBC92A081A154AA3108F4B4CFB6
:10543000DF010191002309F48BCFD0EDBD2EB00E1A
:10544000D9E0AD2EAB14A0F7D3EDBD2EB00EAA243B
:10545000A394AB1468F70B3259F3FD0131960C910C
:10546000003209F075CFDF01F8CF21153105D9F6EB
:105470009D01D9CF30934F0320934E0340934A03AD
:1054800050934B0360934C0370934D033BCF80913B
:105490002E0390912F03009731F04AE050E070E026
:1054A00060E00C943C8C60E070E0CB010895EFDF8D
:1054B000CB010895ECDF97FD0AC0E9DF6F3F71056E
:1054C0008105910509F02CF4E2DF862F089580E034
:1054D00008958FEF0895CF9384E50E949A1EC0E04F
:1054E000882301F1E7DFC82F1816E4F40E94702129
:1054F0008DE40E94861F609150037091510390E0EB
:1055000080E00E948D1F86EE92E00E9481206C2F29
:10551000CC0F770B880B990B0E94F51F8AE00E9435
:10552000861FCFEF8C2FCF91089580912E039091FD
:105530002F03892B39F0BEDF91E0811101C090E08B
:10554000892F089591E0FCCFCF93DF93C82FD62FFA
:105550000E949A1E882319F0DF91CF91E6CF8C2FFD
:105560000E944C1E811101C08D2FDF91CF910895B3
:10557000DF92EF92FF920F931F93CF93DF931F92CF
:10558000CDB7DEB78C01D42E7C01E60EF71E8091DC
:105590000105909102050E94BC928983DD2011F0E3
:1055A000F8018083CE0101960E94D40F80910105FD
:1055B00090910205019690930205809301050F5F7B
:1055C0001F4F0E151F0519F780E00F90DF91CF9147
:1055D0001F910F91FF90EF90DF90089540919403F9
:1055E00021E0422764E070E0C3CF4091940321E0C2
:1055F000422761E070E0BCCF4091940321E0422754
:105600006CE070E0B5CF4091940321E0422761E067
:1056100070E0AECF4091940321E0422768E070E053
:10562000A7CF4091940321E042276CE070E0A0CF27
:1056300041E061E070E09CCF41E062E070E098CF33
:105640004091940321E0422793CF2F923F924F92B3
:105650005F926F927F928F929F92AF92BF92CF9202
:10566000DF92EF92FF920F931F93CF93DF93EC01A2
:105670004B017A018B81811115C08FEF9FEFDF9174
:10568000CF911F910F91FF90EF90DF90CF90BF903F
:10569000AF909F908F907F906F905F904F903F90D2
:1056A0002F900895898180FFE8CF89899A89AB89F5
:1056B000BC89488559856A857B85841B950BA60B1B
:1056C000B70BA70170E060E084179507A607B7073E
:1056D00008F47C0167011E0124E0220E311CC11474
:1056E000D10409F4A9C0488559856A857B855A018A
:1056F00081E0B822898D9A8D2A013B0129E07694B8
:105700006794579447942A95D1F72B81FC01223056
:1057100081F5628D738D848D958D640D751D861D4B
:10572000971D00E012E00A191B09C016D10608F403
:1057300086010115E2E01E0771F44090D50F5090EC
:10574000D60F6090D70F7090D80F64157505860539
:10575000970509F04EC040E00E94F611882309F435
:105760008CCFB5016B52724FA801C4010E944496C0
:1057700052C0148111501421A114B10471F41111FB
:105780000CC0452B462B472B51F58D899E89AF893F
:10579000B88D8C839D83AE83BF83E98DFA8D4C8059
:1057A0005D806E807F8022E0421A51086108710896
:1057B000858504C0440C551C661C771C8A95D2F75D
:1057C00086859785A089B189480E591E6A1E7B1E61
:1057D000C301B201610F711D811D911DA2CF4C81CA
:1057E0005D816E817F8191010E9412148111D5CF5C
:1057F00044CFA091DE0FB091DF0FED91FC91119796
:105800000088F189E02D9401AB01BC01CD0119950F
:10581000882309F432CF800E911E88859985AA8548
:10582000BB85800F911FA11DB11D88879987AA870D
:10583000BB87C01AD10A53CFC70121CFBF92CF92E5
:10584000DF92EF92FF920F931F93CF93DF93EB01C1
:10585000FC012381223008F49CC04085518562857B
:1058600073854F71552766277727452B462B472B86
:1058700009F08FC08C011092750D1092740DC12C1F
:10588000DD24DA947E01FBE0EF0EF11C8DE0B82EF2
:1058900040E250E0BE01C801D8DE8032910581F0BF
:1058A00021E0892B09F420E0822F8195DF91CF91AF
:1058B0001F910F91FF90EF90DF90CF90BF900895D0
:1058C0002881222309F467C0253E11F02E3229F4E5
:1058D0001092750D1092740DDBCF3B853F733F30F6
:1058E00009F042C04A8D5B8D452B61F52F713FEF6A
:1058F000320F323038F58D85213041F1C81229C080
:105900002150330BB29EC001B39E900D1124DC01D7
:10591000AC58B24FFE0120E02B30F0F046815781A9
:105920004F3F510519F010F04FE550E04D932F5FB8
:1059300032962D3089F7288126FF04C0FC01EF57ED
:10594000F24F10822B8523FDA3CFB0CFC82ED12CD0
:10595000D7CFDD24D394D4CF253018F0448155819E
:10596000DFCF41815281DCCFD1100EC0FE0120E09B
:1059700020FB279527F93191230FEE16FF06C1F77B
:10598000C21601F3DD24D3941092750D1092740D9C
:10599000D9CF8FEF8BCF80E089CF0F931F93CF9319
:1059A000DF93CDB7DEB7EB970FB6F894DEBF0FBE2F
:1059B000CDBF8C0140E050E0BA018BE190E10E9444
:1059C000FD148BE1EBE1F0E1DE01919601900D9287
:1059D0008A95E1F7BE016F5F7F4FCE0181962EDF82
:1059E0001816A4F4CE0101960E947A11882391F32F
:1059F000BE016F5F7F4F80EA94E00E94971160EADA
:105A000074E0C8010E944D96892B21F7CE01819642
:105A10000E94AB17EB960FB6F894DEBF0FBECDBF5A
:105A2000DF91CF911F910F9108952F923F924F9246
:105A30005F926F927F928F929F92AF92BF92CF921E
:105A4000DF92EF92FF920F931F93CF93DF93CDB727
:105A5000DEB7C454D1090FB6F894DEBF0FBECDBF78
:105A60007C014B015A01222E19821C821C8E1F8E32
:105A70006115710511F410E0B4C1DC0113968C912D
:105A80008111F9CFFA0180818B018F32D1F4DB01D2
:105A900013968C9113978250823060F059966D91D5
:105AA0007C91CE014C960E9490158E01045E1F4F92
:105AB000882309F3C5015C010196F50120812F328D
:105AC000D1F39E012F5F3F4F6901290130E2332E50
:105AD0002496CFAE24972596DFAE25973E013CE174
