:100000000C9446180C9486180C9486180C94861838
:100010000C9486180C9486180C9486180C948618E8
:100020000C9486180C9486180C9486180C948618D8
:100030000C9486180C9493CA0C9486180C94861809
:100040000C9486180C94F5890C9486180C948618D8
:100050000C9486180C9477840C9486180C9449CAD6
:100060000C9486180C94FE510C94F4510C94861840
:100070000C9486180C9486180C9486180C94861888
:100080000C9486180C9486180C9486180C94861878
:100090000C9486180C9486180C9486180C94861868
:1000A0000C9486180C9486180C9486180C94861858
:1000B0000C9486180C9486180C9486180C94861848
:1000C0000C9486180C9486180C9486180C94861838
:1000D0000C9486180C9486180C9486180C94861828
:1000E0000C948618084AD73B3BCE016E84BCBFFDFA
:1000F000C12F3D6C74319ABD56833DDA3D00C77FF8
:1001000011BED9E4BB4C3E916BAAAABE0000008090
:100110003F05A84CCDB2D44EB93836A9020C50B91F
:10012000918688083CA6AAAA2ABE000000803F0744
:10013000634236B79BD8A71A39685618AEBAAB5582
:100140008C1D3CB7CC5763BD6DEDFD753EF6177247
:1001500031BF000000803F08000000BE9224491219
:100160003EABAAAA2ABECDCCCC4C3E00000080BE3D
:10017000ABAAAAAA3E00000000BF000000803F001A
:1001800000000000084178D3BB4387D1133D190E0E
:100190003CC3BD4282AD2B3E68EC8276BED98FE176
:1001A000A93E4C80EFFFBE01C4FF7F3F000000006E
:1001B00000004E414E494E495459494E46CDCCCC93
:1001C0003D0AD7233C17B7D13877CC2B329595E62B
:1001D000241FB14F0A000020410000C84200401C0B
:1001E0004620BCBE4CCA1B0E5AAEC59D74434F4D33
:1001F0004D554E49434154494F4E00445259525572
:100200004E004552524F525300494E464F0045430F
:10021000484F004572726F722077726974696E6719
:1002200020746F20454550524F4D210A00506F7287
:10023000206661766F722C207265696E69636965EC
:1002400000494D505245534F524120444554454E6C
:100250004944410025533A202553004D55455254F9
:1002600041005072696E7465722068616C746564D7
:100270002E206B696C6C28292063616C6C6564218D
:100280000A006563686F3A004572726F723A004205
:10029000696C696E656172204C6576656C696E6724
:1002A00020477269643A0A004F46460A0046616474
:1002B00065204865696768742000426564204C6564
:1002C00076656C696E6720004661696C65642074B0
:1002D0006F20656E61626C6520426564204C6576B6
:1002E000656C696E670A00496E76616C6964206DA1
:1002F0006573682E0A00477269642070726F6269C4
:100300006E6720646F6E652E0A0069646C650A0072
:10031000206F662000706F696E7420004D616E75ED
:10032000616C2047323920004D616E75616C204749
:1003300032392061626F727465640A002028445269
:100340005952554E2900473239204175746F204269
:100350006564204C6576656C696E67003F20284CAB
:100360002C522C462C4229206F7574206F66206217
:100370006F756E64732E0A003F2856296572626F8E
:100380007365206C6576656C20696D706C61757342
:1003900069626C652028302D34292E0A0042616480
:1003A000205A2076616C75650A004E6F2062696C78
:1003B000696E65617220677269640A002058004F97
:1003C0004646004F4E0020204D61783A2000200024
:1003D00020204D696E3A2000203B200020204D3225
:1003E000313120530020496E76616C696420657854
:1003F000747275646572200047322F473320626142
:100400006420706172616D65746572730A00526573
:10041000706F736F2E2E2E005A2050726F626520FF
:1004200050617374204265640A00536F6E646120EA
:100430005A2066756572612063616D61004D657358
:100440006820706F696E74206F7574206F662072FB
:10045000616E67650A0050756C736172207061721D
:1004600061205265616E756461720053696E206D22
:100470006F76696D69656E746F00456E642066699C
:100480006C65206C6973740A00426567696E20664A
:10049000696C65206C6973740A004E6F206D656429
:1004A00069610A00286E6F2066696C6529004375D2
:1004B0007272656E742066696C653A20004E6F74C6
:1004C000205344207072696E74696E670A00534449
:1004D000207072696E74696E67206279746520009D
:1004E0002E0A0044656C6574696F6E206661696CE4
:1004F00065642C2046696C653A200046696C65206D
:1005000064656C657465643A005072696E74207439
:10051000696D653A20000A53746174733A20466924
:100520006C616D656E7420757365643A20002C20D3
:100530004C6F6E67657374206A6F623A2000546F67
:1005400074616C2074696D653A2000537461747332
:100550003A20002C204661696C65643A20002C200A
:1005600046696E69736865643A20005072696E74FA
:10057000733A200053746174733A20006F6B006FFC
:100580006666000E0209020202FB01ED01444542CB
:1005900055473A004D3131332053006933205072B2
:1005A0006F2042204F46462E0020204D39322058E1
:1005B000002F2F004D31343520533C696E6465782F
:1005C0003E206F7574206F662072616E676520280B
:1005D000302D31290A0020440020204D32303020B7
:1005E000530020204D32303120580020450020207B
:1005F0004D32303320580020520020204D3230340C
:10060000205000204A0020540020530020204D326A
:1006100030352042003F4A206F7574206F6620728B
:10062000616E67652028302E303120746F20302EA7
:1006300033290A00205A0020590020204D3230363C
:10064000205800250A0046523A0020466C6F773A3F
:10065000200020440020490020204D33303120501C
:100660000064697300656E0043290A0061626C656D
:100670006420286D696E2074656D702000436F6C76
:1006800064206578747275646573206172652000FA
:100690004D34323120696E636F72726563742070FD
:1006A0006172616D657465722075736167650A00BA
:1006B0004D65736820706F696E74206F7574206F5C
:1006C000662072616E67650A0044657366617365D2
:1006D0002061706C6963616461004D494E2F4D412A
:1006E0005820546F6F2046617200546F6F2066610E
:1006F000722066726F6D204D494E2F4D41580A0091
:10070000454550524F4D204F4B0A00203B20585931
:100710000A0020204D3835322049006D696E5F7324
:100720006B65775F666163746F723A20202D3120AC
:100730006D61785F736B65775F666163746F723A42
:100740002020310A004D383400446F6E65207072ED
:10075000696E74696E672066696C650A004D37378B
:10076000004D333100496E76616C696420657874A0
:1007700072756465720A004361703A00434F4E46D9
:1007800049475F4558504F5254004D4541545041E0
:10079000434B00434F4F4C45525F54454D504552DB
:1007A0004154555245004348414D4245525F5445DE
:1007B0004D504552415455524500424142595354BF
:1007C000455050494E470041524353004D4F544904
:1007D0004F4E5F4D4F44455300544845524D414C98
:1007E0005F50524F54454354494F4E00455854456D
:1007F0004E4445445F4D323000435553544F4D5F96
:100800004649524D574152455F55504C4F41440067
:100810004C464E5F5752495445004C4F4E475F4639
:10082000494C454E414D45004155544F5245504F5E
:1008300052545F53445F5354415455530053445FE3
:10084000575249544500524550454154004D554C6E
:1008500054495F564F4C554D450053444341524413
:100860000050524F4D50545F535550504F5254000A
:10087000484F53545F414354494F4E5F434F4D4D92
:10088000414E445300454D455247454E43595F50F4
:10089000415253455200434153455F4C49474854E8
:1008A0005F4252494748544E45535300544F4747BF
:1008B0004C455F4C494748545300534F46545741A9
:1008C00052455F504F574552004255494C445F5086
:1008D000455243454E54004C4556454C494E475FA2
:1008E00044415441005A5F50524F42450052554EC8
:1008F0004F5554004155544F4C4556454C005052AD
:10090000494E545F4A4F420050524F47524553534D
:10091000004155544F5245504F52545F54454D502D
:10092000004155544F5245504F52545F504F530061
:10093000564F4C554D455452494300454550524F32
:100940004D0042494E4152595F46494C455F545211
:10095000414E534645520053455249414C5F584F12
:100960004E5F584F4646004649524D574152455FEB
:100970004E414D453A4D61726C696E20322E312EDA
:10098000322E3820284A756E2032382032303236E6
:100990002030393A30313A34332920534F555243BD
:1009A000455F434F44455F55524C3A6769746875DB
:1009B000622E636F6D2F4D61726C696E4669726D48
:1009C000776172652F4D61726C696E2050524F5481
:1009D0004F434F4C5F56455253494F4E3A312E309C
:1009E000204D414348494E455F545950453A69337B
:1009F0002050726F20422045585452554445525F52
:100A0000434F554E543A3120555549443A63656435
:100A100065326132662D343161322D343734382DF0
:100A2000396231322D633535633632663336376697
:100A300066002569730025696D20256973002569A5
:100A4000682025696D202569730025696420256962
:100A5000682025696D20256973002569792025693D
:100A600064202569682025696D2025697300205759
:100A70003A00456E667269616E646F2E2E2E0045D7
:100A8000312025530020573A00456E667269616E29
:100A9000646F2043616D612E2E2E0043616C656E84
:100AA00074616E646F2043616D612E2E2E0023648D
:100AB0006566696E652044454641554C545F004B60
:100AC0004420004B4920004B5020002066696E698D
:100AD00073686564212050757420746865206C61AA
:100AE0007374204B702C204B6920616E64204B6422
:100AF00020636F6E7374616E74732066726F6D2005
:100B000062656C6F7720696E746F20436F6E6669E3
:100B10006775726174696F6E2E680A0050494420CF
:100B20004175746F74756E6500206661696C6564EB
:100B3000212074696D656F75740A00504944204125
:100B400075746F74756E6500206661696C656421EB
:100B50002054656D706572617475726520746F6F75
:100B600020686967680A00504944204175746F74B1
:100B7000756E6500504944204379636C65730025A8
:100B8000532025692F256900204B643A2000204B13
:100B9000693A2000204B703A200020436C61737347
:100BA000696320504944200A002054753A200020EF
:100BB0004B753A2000206D61783A2000206D696EF7
:100BC0003A200020643A200020626961733A2000D4
:100BD00043616C656E74616E646F2E2E2E002073FF
:100BE000746172740A00504944204175746F7475C1
:100BF0006E6500206661696C6564212054656D70C6
:100C00006572617475726520746F6F2068696768BA
:100C10000A00504944204175746F74756E65005028
:100C20004944204175746F2D616A75737465003F86
:100C300028432979636C6573206E6F7420706C6132
:100C4000757369626C6520283E3D33292E0A0020A9
:100C50006661696C65642120426164206865617425
:100C600065722069640A00504944204175746F74AC
:100C7000756E6500A10000006900A200000063001D
:100C8000B00000000900C10000004100C2000000E7
:100C90004100C30000004100C40000004100C50045
:100CA00000004100C60000004145C70000004300AD
:100CB000C80000004500C90000004500CD0000004C
:100CC0004900D10000004E00D50000004F00D600C2
:100CD00000004F00D70000007800DC000000550045
:100CE000DD0000005900E00000006100E1000000AC
:100CF0006100E20000006100E30000006100E40028
:100D000000006100E50000006100E6000000616590
:100D1000E70000006300E80000006500E900000053
:100D20006500EA0000006500EB0000006500EC00D3
:100D300000006900ED0000006900EE00000069009D
:100D4000EF0000006900F10000006E00F2000000FA
:100D50006F00F30000006F00F40000006F00F5006A
:100D600000006F00F60000006F00F80000006F0048
:100D7000F90000007500FA0000007500FB0000009B
:100D80007500FC0000007500FD0000007900FF0008
:100D9000000079000401000041000501000061002D
:100DA0000601000043000701000063000C01000081
:100DB00043000D01000063000E01000044000F011C
:100DC00000006400110100006400190100006500CA
:100DD0001A01000045001B01000065001F01000012
:100DE0006700300100004900310100006900410145
:100DF00000004C00420100006C00430100004E0066
:100E0000440100006E00480100006E00580100001F
:100E100052005901000072005A01000053005B01AA
:100E2000000073005F0100007300600100005300C8
:100E30006101000073006501000074006F01000093
:100E400075007C0100007A007D0100005A007E01DF
:100E500000007A00920100006600E30200007800C2
:100E6000222000002E001E210000507822210000C8
:100E7000544D902100003C2D922100002D3EB021C8
:100E800000000300BB21000004003C2200007E00A3
:100E9000482200007E3D60220000213D61220000CA
:100EA0003D00642200003C3D652200003E3DF123F0
:100EB00000000700A03000003D0021F30100020007
:100EC000C2F401000500A2000000EC00B000000028
:100ED000DF00E4000000E100F6000000EF00F70092
:100EE0000000FD00FC000000F500E3020000EB0044
:100EF00087030000A5008F030000F40098030000A2
:100F0000F2009E030000E300A3030000F600A90323
:100F10000000F400AC030000E000AD030000E300BB
:100F2000B1030000E000B2030000E200B5030000DE
:100F3000E300B8030000F200BC030000E400BE03BD
:100F40000000E300C0030000F700C1030000E6005A
:100F5000C3030000E500902100007F009221000003
:100F60007E001A220000E8001E220000F3008825FF
:100F70000000FF0002300000A1000C300000A200C1
:100F80000D300000A3009B300000DE009C3000000C
:100F9000DF00A03000003D00A1300000A700A2301B
:100FA0000000B100A3300000A800A4300000B2008F
:100FB000A5300000A900A6300000B300A730000053
:100FC000AA00A8300000B400A9300000AB00AA308D
:100FD0000000B500AB300000B600AC300000B6DE5B
:100FE000AD300000B700AE300000B7DEAF3000001B
:100FF000B800B0300000B8DEB1300000B900B23047
:101000000000B9DEB3300000BA00B4300000BADE30
:10101000B5300000BB00B6300000BBDEB7300000CA
:10102000BC00B8300000BCDEB9300000BD00BA30F2
:101030000000BDDEBB300000BE00BC300000BEDEE4
:10104000BD300000BF00BE300000BFDEBF3000007A
:10105000C000C0300000C0DEC1300000C100C2309E
:101060000000C1DEC3300000AF00C4300000C20089
:10107000C5300000C2DEC6300000C300C73000002B
:10108000C3DEC8300000C400C9300000C4DECA306E
:101090000000C500CB300000C600CC300000C70007
:1010A000CD300000C800CE300000C900CF300000B5
:1010B000CA00D0300000CADED1300000CADFD23012
:1010C0000000CB00D3300000CBDED4300000CBDFFB
:1010D000D5300000CC00D6300000CCDED730000088
:1010E000CCDFD8300000CD00D9300000CDDEDA30C2
:1010F0000000CDDFDB300000CE00DC300000CEDEB3
:10110000DD300000CEDFDE300000CF00DF30000039
:10111000D000E0300000D100E1300000D200E23029
:101120000000D300E3300000AC00E4300000D40045
:10113000E5300000AD00E6300000D500E7300000EB
:10114000AE00E8300000D600E9300000D700EA30F9
:101150000000D800EB300000D900EC300000DA00CD
:10116000ED300000DB00EF300000DC00F23000006A
:10117000A600F3300000DD00F4300000B3DEF730ED
:101180000000DCDEFA300000A6DEFB300000A50027
:10119000FC300000B000FD300000A400074E00004D
:1011A000FB0086510000FC0043530000FA0064FF7E
:1011B0000000A40065FF0000A50066FF0000A60077
:1011C00067FF0000A70068FF0000A80069FF00009B
:1011D000A9006AFF0000AA006BFF0000AB006CFFD3
:1011E0000000AC006DFF0000AD006EFF0000AE001F
:1011F0006FFF0000AF0070FF0000B00071FF000043
:10120000B10072FF0000B20073FF0000B30074FF72
:101210000000B40075FF0000B50076FF0000B600C6
:1012200077FF0000B70078FF0000B80079FF0000EA
:10123000B9007AFF0000BA007BFF0000BB007CFF12
:101240000000BC007DFF0000BD007EFF0000BE006E
:101250007FFF0000BF0080FF0000C00081FF000092
:10126000C10082FF0000C20083FF0000C30084FFB2
:101270000000C40085FF0000C50086FF0000C60016
:1012800087FF0000C70088FF0000C80089FF00003A
:10129000C9008AFF0000CA008BFF0000CB008CFF52
:1012A0000000CC008DFF0000CD008EFF0000CE00BE
:1012B0008FFF0000CF0090FF0000D00091FF0000E2
:1012C000D10092FF0000D20093FF0000D30094FFF2
:1012D0000000D40095FF0000D50096FF0000D60066
:1012E00097FF0000D70098FF0000D80099FF00008A
:1012F000D9009AFF0000DA009BFF0000DB009CFF92
:101300000000DC009DFF0000DD009EFF0000DE000D
:101310009FFF0000DF00E5FF00005C000000000010
:10132000010204040000001C1C0C0404040201005F
:1013300000000000040810000000000003002D2D34
:101340002D2D2D2D007C4D61726C696E7C0001008D
:101350002D2D2D2D2D2D002500503A002568753A94
:1013600025303268750025303268753A253032688C
:1013700075002530326875272530326875002000E9
:1013800020003A003A00001C1F11111F0000000647
:10139000191803130C00040E1F041C000000000E9B
:1013A0001315110E00001C10181705060500040A7D
:1013B0000A0A0A11110E0C12120C00000000001F84
:1013C0001511151F000043616D6100526563696E60
:1013D000746F0045002000250020202020202020C0
:1013E0000020002020202000200020002F00657217
:1013F0007200496D7072657369C3B36E2063616E6C
:1014000063656C616461004D3235005061757369CC
:101410006E672E2E2E004D3234003F0049676E6FEE
:101420007265005265696E696369617200496E692F
:101430006369616C697A617220454550524F4D0075
:101440004469C3A16D6574726F2046696C2E0045B6
:1014500020656E206D6DC2B300200220466163746A
:101460006F72002002204D6178002002204D696ECD
:101470000041706700456E630054656D702E204119
:1014800075746F6D2E0056656C2E207669616A65E5
:10149000206D696E00566D696E004D6178204020A8
:1014A0005370656564004163656C2E206D617845FD
:1014B000004163656C2E206D617840004163656C6E
:1014C0002E205669616A65004163656C2E20726545
:1014D000747261632E004163656C6572616369C3F8
:1014E000B36E0040207061736F732F6D6D00416AA1
:1014F0007573746573206176616E7A61646F7300D1
:101500003F0043616E63656C617200496E69636997
:101510006172004D34323800496E696369616C69EB
:101520007A617220454550524F4D0046696C616D9D
:10153000656E746F0054656D70657261747572616B
:10154000005061736F732F6D6D0044657376692E63
:1015500020556E69C3B36E00416363656C6572614B
:101560006369C3B36E004D61782056656C6F636923
:1015700064616400416A75737461722064657366A6
:101580006173657300436F6E666967757261636945
:10159000C3B36E00C2A14E6976656C616369C3B363
:1015A0006E206C6973746121004D6F766572205AEC
:1015B000004732395631005369677569656E746545
:1015C0002070756E746F002569202F2025750047E7
:1015D000323956310050756C7361722070617261DE
:1015E00020636F6D656E7A61720047756172646128
:1015F0007220454550524F4D004361726761722021
:10160000454550524F4D005265636F727269646F69
:101610002043616D6100436F6D70656E2E20416CDB
:10162000747572610041706700456E63004E6976A3
:10163000656C616E646F2043616D61004E69766513
:101640006C61722043616D61004D6F76696D6965F3
:101650006E746F0041425300504C41004572723A23
:1016600020454550524F4D20436F72727570740083
:101670004572723A20454550524F4D204352430027
:101680004572723A20454550524F4D2054616D616C
:10169000C3B16F004572723A205665727369C3B365
:1016A0006E20454550524F4D003F005369677565A8
:1016B0006E74652045737175696E61004C69737451
:1016C0006F0053696775696E7465004F726967656D
:1016D0006E2058595A0043616D6100426F717569FF
:1016E0006C6C610056656E74696C61646F72004366
:1016F0006F6E6669677572616369C3B36E00526528
:1017000073742E2066C3A1627269636100436172C3
:1017100067617220454550524F4D004775617264B4
:10172000617220454550524F4D0050726563616CA7
:101730002E202420416A7573746500416A757374A4
:101740006573206176616E7A61646F73004D656EBA
:10175000C3BA207072696E636970616C003F0041AA
:101760007472C3A1730050617261720053442F46BA
:1017700044206E6F2070726573656E746500496DEC
:101780007072696D2E2064657364652053442F4622
:10179000440043616D626961722053442F464400E6
:1017A0004D323100436F6E6669677572616369C35C
:1017B000B36E0054656D7065726174757261004D31
:1017C0006F76696D69656E746F005265616E7564E0
:1017D000617220696D7072657369C3B36E00416A8E
:1017E000757374617200446574656E657220696D0D
:1017F0007072657369C3B36E005061757361722056
:10180000696D7072657369C3B36E0050616E746107
:101810006C6C6120646520496E662E003F00496E45
:10182000696369617220696D7072657369C3B36EB3
:101830000043616E63656C617200496D7072696D21
:1018400069720043616E6E6F7420656E74657220FC
:101850007375626469723A200005202E2E004D6572
:101860006EC3BA207072696E636970616C0021008A
:10187000486F74656E64206D7579206672696F00BB
:10188000417472C3A1730050726F63656465720026
:101890004578747275736F72004D6F76696D696506
:1018A0006E746F00417061676172206D6F746F724A
:1018B0006573004D3834004E6976656C616E646FF7
:1018C0002043616D61004732385A00473238590071
:1018D000486F6D6520400047323858004C6C657683
:1018E000617220616C206F726967656E00473238E3
:1018F000004D656EC3BA207072696E636970616C69
:101900000050726563616C2E20242043616D61007C
:1019100050726563616C2E2024204675736F7200CF
:1019200054656D7065726174757261005816541655
:10193000456E66726961720050726563616C2E203B
:10194000240056656E74696C61646F720043616D4A
:101950006100426F7175696C6C61004D656EC3BA50
:10196000207072696E636970616C00466C756A6F95
:101970000056656E74696C61646F720043616D61DD
:1019800000426F7175696C6C610056656C6F6369BC
:10199000646164004D656EC3BA207072696E6369DC
:1019A00070616C006F70656E005452494747455234
:1019B0004544003A20007A5F6D696E00795F6D6979
:1019C0006E00785F6D696E005265706F7274696E3B
:1019D0006720656E6473746F7020737461747573BF
:1019E0000A0020746F6F206C6F6E672065787472C8
:1019F0007573696F6E2070726576656E7465640AC2
:101A00000020636F6C6420657874727573696F6E03
:101A10002070726576656E7465640A004F7269673E
:101A2000656E202573205072696D2E00486F6D65BC
:101A300020257320466972737400000040C10000C5
:101A400000C1000000005761726E696E673A20485D
:101A50006F6D696E672042756D7020446976697399
:101A60006F72203C20310A00020204000060430033
:101A7000005843000048430000A0400000A0400080
:101A80000000400000544300005043000048430061
:101A90000040C1000000C10000000053657474697B
:101AA0006E67732053746F72656400290A002062A8
:101AB000797465733B2063726320005365747469A5
:101AC0006E67732053746F726564202800204D6127
:101AD000726C696E3D563838290A00454550524FA0
:101AE0004D2076657273696F6E206D69736D6174D8
:101AF00063682028454550524F4D3D00486172644F
:101B0000636F6465642044656661756C7420536519
:101B10007474696E6773204C6F6164656400454539
:101B200050524F4D206461746173697A652065720B
:101B3000726F722E0A00202863616C63756C617489
:101B4000656429210A0020213D2000454550524F5F
:101B50004D20435243206D69736D61746368202D7D
:101B6000202873746F726564292000454550524FD8
:101B70004D20436F72727570740A002053697A6544
:101B80003A2000496E6465783A2000290A002062F4
:101B9000797465733B2063726320002073746F72E5
:101BA00065642073657474696E67732072657472FE
:101BB00069657665642028000000C8430000C843BA
:101BC0000000004000003442E17A9D42E17A9D42EB
:101BD0000000C8430000D2428813000088130000B0
:101BE0004B0000008813000020436F756E7420586E
:101BF0003A0043616D610045310045006265640053
:101C00002C2073797374656D2073746F70706564C4
:101C100021204865617465725F49443A200045722D
:101C2000723A54454D502E204DC38158004D4158B5
:101C300054454D502074726967676572656400434E
:101C4000616C656E742E2066616C6C69646F00480F
:101C5000656174696E67206661696C6564004572D0
:101C6000723A54454D502E204D494E004D494E5428
:101C7000454D50207472696767657265640046550A
:101C800047412054C389524D49434100546865720D
:101C90006D616C2052756E6177617900202F002094
:101CA00042403A0020403A000009121B242D363FE2
:101CB00048415A536C657E7719100B023D342F262C
:101CC0005158434A757C676E323B2029161F040D1C
:101CD0007A7368615E574C452B2239300F061D140C
:101CE000636A7178474E555C646D767F4049525BFC
:101CF0002C253E3708011A137D746F6659504B42EC
:101D0000353C272E1118030A565F444D727B6069DB
:101D10001E170C053A3328214F465D546B627970CB
:101D2000070E151C232A31384148535A656C777EBB
:101D300009001B122D243F3658514A437C756E67AB
:101D40001019020B343D262F737A6168575E454C9B
:101D50003B3229201F160D046A6378714E475C558B
:101D6000222B3039060F141D252C373E0108131A7B
:101D70006D647F7649405B523C352E2718110A036B
:101D8000747D666F5059424B171E050C333A21285B
:101D90005F564D447B7269600E071C152A2338314B
:101DA000464F545D626B7079000021104220633011
:101DB0008440A550C660E770088129914AA16BB1A3
:101DC0008CC1ADD1CEE1EFF131121002733252224B
:101DD000B5529442F772D662399318837BB35AA3F3
:101DE000BDD39CC3FFF3DEE362244334200401141B
:101DF000E664C774A44485546AA54BB52885099543
:101E0000EEE5CFF5ACC58DD55336722611163006EA
:101E1000D776F6669556B4465BB77AA71997388792
:101E2000DFF7FEE79DD7BCC7C448E5588668A778AA
:101E30004008611802282338CCC9EDD98EE9AFF9E2
:101E4000488969990AA92BB9F55AD44AB77A966A8A
:101E5000711A500A333A122AFDDBDCCBBFFB9EEB32
:101E6000799B588B3BBB1AABA66C877CE44CC55C5A
:101E7000222C033C600C411CAEED8FFDECCDCDDD82
:101E80002AAD0BBD688D499D977EB66ED55EF44E2A
:101E9000133E322E511E700E9FFFBEEFDDDFFCCFD2
:101EA0001BBF3AAF599F788F8891A981CAB1EBA126
:101EB0000CD12DC14EF16FE18010A100C230E320A2
:101EC0000450254046706760B9839893FBA3DAB34A
:101ED0003DC31CD37FE35EF3B1029012F322D232F2
:101EE0003542145277625672EAB5CBA5A89589851A
:101EF0006EF54FE52CD50DC5E234C324A014810442
:101F00006674476424540544DBA7FAB79987B897E9
:101F10005FE77EF71DC73CD7D326F2369106B01691
:101F200057667676154634564CD96DC90EF92FE9A9
:101F3000C899E9898AB9ABA94458654806782768E1
:101F4000C018E1088238A3287DCB5CDB3FEB1EFB89
:101F5000F98BD89BBBAB9ABB754A545A376A167A31
:101F6000F10AD01AB32A923A2EFD0FED6CDD4DCD59
:101F7000AABD8BADE89DC98D267C076C645C454C81
:101F8000A23C832CE01CC10C1FEF3EFF5DCF7CDF29
:101F90009BAFBABFD98FF89F176E367E554E745ED1
:101FA000932EB23ED10EF01E7C3C3E5E2B3D3F2F69
:101FB0005B5D3B2C2A225C0046616C6C6F20616C7F
:101FC00020696E69636961722053442F464400534F
:101FD000442063617264206F6B0A006F70656E52FB
:101FE0006F6F74206661696C65640A00766F6C754A
:101FF0006D652E696E6974206661696C65640A009E
:102000004E6F20534420636172640A00534420637E
:102010006172642072656C65617365640A000A4DC3
:102020003234004D3233202573002E0A006F706564
:102030006E206661696C65642C2046696C653A2087
:102040000046696C652073656C65637465640A009D
:102050002053697A653A200046696C65206F706587
:102060006E65643A2000454E4420535542524F5508
:1020700054494E450A002220706F7300222070617F
:1020800072656E743A2200535542524F5554494E70
:10209000452043414C4C207461726765743A2200BC
:1020A000446573626F7264616D69656E746F2064FC
:1020B00065207375626C6C616D6164610045786365
:1020C0006565646564206D617820535542524F55B3
:1020D00054494E452064657074683A0057726974BB
:1020E000696E6720746F2066696C653A20006672BD
:1020F00065736800646F696E67002066696C653A95
:1021000020004E6F7720002F6175746F25632E6756
:1021100000026D61726C696E66772E6F7267006D7A
:1021200061726C696E66772E6F726700322E312E87
:10213000322E3800322E312E322E3800006D617270
:102140006C696E66772E6F7267006D61726C696E76
:1021500066772E6F72670020322E312E322E3800B5
:102160002001400130013B01400136016001310195
:1021700070012C0190012701B0012201C0011D0155
:10218000F00118011002130130020E016002090172
:1021900090020401C002FF000003FA004003F500B2
:1021A0008003F000D003EB002004E6007004E1009F
:1021B000E004DC004005D700C005D2004006CD0099
:1021C000D006C8008007C3003008BE00F008B90080
:1021D000C009B400B00AAF00B00BAA00D00CA50033
:1021E000000EA000500F9B00C010960050129100EE
:1021F00000148C00C0158700B0178200B0197D0054
:10220000D01B7800001E730040206E0090226900F1
:10221000F024640040275F0090295A00E02B55000D
:10222000102E500020304B0010324600E0334100A9
:1022300090353C001037370070383200A0392D003F
:10224000B03A2800A03B2300603C1E00103D19005E
:10225000903D1400103E0F00703E0A00C03E050085
:10226000003F0000403FFBFF803FF6FFC03FF1FF13
:102270002020506C616E6E657242756666657242B2
:10228000797465733A20002046726565204D656D4E
:102290006F72793A200020436F6D70696C65643A03
:1022A000204A756E20323820323032360A00204CF7
:1022B00061737420557064617465643A2032303201
:1022C000362D30362D3234207C20417574686F7283
:1022D0003A20283344776F726B2C206874747073C3
:1022E0003A0A004D61726C696E20322E312E322E08
:1022F000380A0020536F66747761726520526573E7
:1023000065740A00205761746368646F67205265C2
:102310007365740A002042726F776E206F757420A7
:1023200052657365740A002045787465726E616C3D
:102330002052657365740A00506F77657255700A94
:102340000073746172740A004732385859004D3175
:10235000303031006F6B006572726F722077726976
:1023600074696E6720746F2066696C650A00446F3B
:102370006E6520736176696E672066696C652E0AEA
:1023800000456E6473746F707300255320256320BD
:10239000256320256320256300656E6473746F7068
:1023A00073206869743A200000000A0B02090C0DC2
:1023B0000E080703040100000000000000000000F8
:1023C000000000000000000000000000000000000D
:1023D00000000000121110000000000000000000CA
:1023E000000000000000000000000000000024F4D5
:1023F00004D9201BC40C5C0E9804C4095F02650755
:102400007101F405F900FB04B30048048700C1031F
:1024100069005803550003034500BE023A008402D8
:10242000310053022A002902250004022000E401A1
:102430001C00C8011900AF011700980114008401A5
:102440001300710110006101100051010E004301E1
:102450000D0036010B002B010B0020010B001501B4
:1024600009000C01090003010800FB000800F3004B
:102470000800EB000700E4000600DE000600D800BC
:102480000600D2000600CC000500C7000500C2000F
:102490000500BD000400B9000400B5000400B1004F
:1024A0000400AD000400A9000400A5000300A20080
:1024B00003009F0004009B000300980003009500A8
:1024C000020093000300900003008D0002008B00C7
:1024D00003008800020086000200840003008100DF
:1024E00002007F0002007D0002007B0002007900F4
:1024F0000200770001007600020074000200720002
:102500000100710002006F0002006D0001006C000C
:1025100002006A0001006900020067000100660015
:10252000010065000100640002006200010061001A
:102530000100600001005F0002005D0001005C001E
:1025400001005B0001005A00010059000100580021
:102550000100570001005600010055000100540021
:10256000010053000000530001005200010051001F
:102570000100500001004F0001004E0000004E001D
:1025800001004D0001004C0001004B0000004B0019
:1025900001004A0001004900010048000000480015
:1025A0000100470001004600000046000100450010
:1025B000000045000100440001004300000043000A
:1025C0000100420000004200010041000000410003
:1025D0000100400001003F0000003F0001003E00FC
:1025E00000003E0001003D0000003D0001003C00F5
:1025F00000003C0000003C0001003B0000003B00EC
:1026000001003A0000003A000100390000003900E2
:1026100001003800000038000000380001003700D9
:1026200000003700010036000000360000003600D0
:1026300001003500000035000000350001003400C5
:1026400000003400000034000100330000003300BB
:1026500000003300010032000000320000003200B0
:1026600001003100000031000000310001003000A5
:10267000000030000000300001002F0000002F009B
:1026800000002F0000002F0001002E0000002E008F
:1026900000002E0001002D0000002D0000002D0084
:1026A00000002D0001002C0000002C0000002C0078
:1026B00000002C0001002B0000002B0000002B006C
:1026C00000002B0001002A0000002A0000002A0060
:1026D00000002A0001002900000029000000290054
:1026E0000000290000002900010028000000280047
:1026F000000028000000280000002800010027003A
:10270000000027000000270000002700000027002D
:102710000100260000002600000026000000260020
:102720000000260001002500000025000000250013
:102730000000250000002500000025000100240005
:1027400000002400000024000000240000002400F9
:1027500001002300000023000000230000002300EC
:1027600000002300000023000000230001002200DD
:1027700000002200000022000000220000002200D1
:1027800000002200010021000000210000002100C3
:1027900000002100000021000000210000002100B5
:1027A00001002000000020000000200000002000A8
:1027B0000000200000002000000020000000200099
:1027C00001001F0000001F0000001F0000001F008C
:1027D00000001F0000001F0000001F0001001E007D
:1027E00000001E0000001E0000001E00000024F477
:1027F000D43050C38E20C2A24017828B7011127A3F
:10280000910D816CD90AA861E108C758660761512A
:1028100043061E4B5D05C145A7041A411104093D3D
:102820009803713931034036DB0265339102D430AD
:102830005402802E1D02632CEE01752AC501B028BA
:10284000A001102781018F2564012B244B01E02278
:102850003401AC211F018D200D01801FFC00841E5E
:10286000ED00971DDF00B81CD200E61BC600201B40
:10287000BC00641AB200B219A8000A19A0006A18B4
:102880009900D117910040178B00B51684003116BE
:102890007E00B31579003A157300C7146F00581401
:1028A0006A00EE1366008813630025135E00C712EA
:1028B0005B006C12570015125400C11151007011C9
:1028C0004F0021114B00D61049008D1047004610D3
:1028D000440002104200C00F4000800F3E00420F33
:1028E0003C00060F3B00CB0E3800930E37005C0E09
:1028F0003500270E3400F30D3200C10D3100900D6C
:102900003000600D2E00320D2D00050D2C00D90C6D
:102910002B00AE0C2900850C29005C0C2700350C1F
:1029200027000E0C2600E80B2400C40B2400A00B8B
:1029300023007D0B23005A0B2100390B2100180BBB
:102940002000F80A1F00D90A1E00BB0A1E009D0ABB
:102950001D00800A1D00630A1C00470A1B002C0A88
:102960001B00110A1A00F7091A00DD091900C40931
:102970001900AB091900920917007B0918006309B7
:1029800017004C09160036091600200916000A091E
:102990001500F5081500E0081400CC081400B8086C
:1029A0001400A4081400900813007D0812006B089E
:1029B00013005808120046081200340811002308BA
:1029C00011001208110001081100F0071000E007C3
:1029D0001000D0071000C0071000B0070F00A107BB
:1029E000100091070E0083070F0074070F006507A2
:1029F0000E0057070E0049070E003B070D002E077B
:102A00000E0020070D0013070D0006070D00F90644
:102A10000C00ED060D00E0060C00D4060C00C80604
:102A20000C00BC060C00B0060C00A4060B009906B6
:102A30000C008D060B0082060B0077060B006C065F
:102A40000B0061060A0057060B004C060A004206FE
:102A50000A0038060A002E060A0024060A001A0692
:102A60000A001006090007060A00FD050900F40522
:102A70000900EB050900E2050900D9050900D005A8
:102A80000900C7050900BE050900B5050800AD0528
:102A90000800A50509009C050800940508008C05A0
:102AA0000800840508007C050800740508006C0512
:102AB0000700650508005D050700560508004E057E
:102AC00007004705070040050800380507003105E5
:102AD00007002A050700230507001C050600160548
:102AE00007000F0507000805060002050700FB04A4
:102AF0000600F5040700EE040600E8040600E20400
:102B00000700DB040600D5040600CF040600C90454
:102B10000600C3040600BD040600B7040600B104A5
:102B20000500AC040600A6040600A00405009B04F2
:102B3000060095040500900406008A04050085043B
:102B40000500800406007A04050075040500700481
:102B500005006B04050066040500610405005C04C3
:102B6000050057040500520405004D040500480403
:102B70000500430405003E0404003A040500350442
:102B80000500300404002C0405002704040023047D
:102B900005001E0404001A040400160405001104B4
:102BA00004000D04040009040500040404000004EA
:102BB0000400FC030400F8030400F4030400F00321
:102BC0000400EC030400E8030400E4030400E00351
:102BD0000400DC030400D8030400D4030400D00381
:102BE0000400CC030400C8030300C50303005D2EEA
:102BF00000006E23000013180000AF0E00003D0817
:102C000000006304000045020000270100004D6F32
:102C100076657220246D6D00302E303235004D6F98
:102C200076657220302E316D6D004D6F76657220A5
:102C3000316D6D004D6F7665722031306D6D004DD8
:102C40006F76657220656A65730045787472757376
:102C50006F72202A004D6F766572204000496D70BA
:102C600072696D2E2064657364652053442F464459
:102C700000200020002000200020002000497220B9
:102C800061206F726967656E2046616C6C61646F6C
:102C900000FFFFFF43616E6E6F74206F70656E20E2
:102CA0007375626469722000220A00556E6B6E6F44
:102CB000776E20636F6D6D616E643A2022006275DD
:102CC00073793A2070617573656420666F7220694C
:102CD0006E7075740A00627573793A20706175734D
:102CE000656420666F7220757365720A0062757381
:102CF000793A2070726F63657373696E670A005367
:102D0000442F464420726574697261646F005344B5
:102D10002F464420696E7365727461646F00746F2E
:102D20006F206D75636820696E61637469766520D4
:102D300074696D65202D2063757272656E742063F1
:102D40006F6D6D616E643A20002121204B494C4C1F
:102D50002063617573656420627920004D313132E2
:102D60002053687574646F776E00444554454E492E
:102D70004441005072696E7465722073746F707094
:102D800065642064756520746F206572726F72735C
:102D90002E2046697820746865206572726F7220F3
:102DA000616E6420757365204D39393920746F2048
:102DB000726573746172742E202854656D7065722B
:102DC00061747572652069732072657365742E2055
:102DD000536574206974206166746572207265732E
:102DE00074617274696E67290A004E6F20436865CA
:102DF000636B73756D2077697468206C696E6520EC
:102E00006E756D6265722C204C617374204C696E16
:102E1000653A20004D3239004E6F20436865636B80
:102E200073756D2077697468206C696E65206E75A6
:102E30006D6265722C204C617374204C696E653A2A
:102E40002000636865636B73756D206D69736D61D8
:102E50007463682C204C617374204C696E653A2051
:102E6000004C696E65204E756D6265722069732035
:102E70006E6F74204C617374204C696E65204E75C2
:102E80006D6265722B312C204C617374204C696E1D
:102E9000653A20004D3131300053657269616C2014
:102EA000737461747573206D69736D617463680AFE
:102EB0000053442072656164206572726F720A006B
:102EC000DB0FC93F45BCDA3F8FB30240FCF027401F
:102ED00056946140FE4B9B4084A5D840E0231841A6
:102EE000346A5641E859974164DBD5416E27174251
:102EF000B4B75542CE1A9742C8AED542B5885A43A8
:102F0000D40684BFA65FA7BF7443E0BF10B11AC048
:102F10001C2C58C0E8F697C0B849D6C04E4E17C111
:102F200024D355C1802497C1A0B5D5C1121A17C2A8
:102F300044AE55C2781797C26CACD5C267885AC3E5
:102F400020746F6F206C6F6E672065787472757374
:102F5000696F6E2070726576656E7465640A002014
:102F6000636F6C6420657874727573696F6E20701E
:102F7000726576656E7465640A006F6B0A0052654F
:102F800073656E643A200000002200250028002BA3
:102F9000002E003100340002010000050108010B81
:102FA0000100002100240027002A002D00300033FA
:102FB0000001010000040107010A010505050507DC
:102FC0000508080808020202020A0A0808040404A4
:102FD00004010101010101010103030303030303D0
:102FE00003040707070C0C0C0C0C0C0C0C0202025F
:102FF0000206060606060606060B0B0B0B0B0B0B52
:103000000B010210202008081020401020408002F0
:10301000010201080402010102040810204080801E
:1030200040201008040201800402018040201008A2
:10303000040201080402010102040810204080017A
:103040000204081020408020453A00205A3A00200F
:10305000593A00583A0069332050726F2042204C90
:103060006973746100496D7072696D69656E646F32
:103070002E2E2E00496D7072657369C3B36E205099
:103080006175736164610000FBEB3CF511241FBEA8
:10309000CFEFD1E2DEBFCDBF00E00CBF84B780939D
:1030A0001F1414BE0FB6F894A89580916000886133
:1030B00080936000109260000FBE13E0A0E0B2E0C9
:1030C000E6E7F5E002E00BBF02C007900D92AE3AD2
:1030D000B107D9F724E1AEEAB3E001C01D92AF31E8
:1030E000B207E1F718E1C5E4D8E100E006C0219796
:1030F0000109802FFE010E9420FEC434D10780E028
:103100000807A9F70E9459ED0D94AA020C9400003B
:10311000CF93DF93EC01CB01BA010E94BBF9688326
:1031200079838A839B83DF91CF910895CF93DF9337
:10313000EC01CB01BA010E94BBF9688379838A83D1
:103140009B83DF91CF910895CF93DF93EC01CB0167
:10315000BA010E94BBF920E030E048EC52E40E9442
:1031600023FF2FE632E143E85AE30E9447FE6883DB
:1031700079838A839B83DF91CF910895CF93DF93E7
:10318000EC01CB01BA010E94BBF920E030E048EC31
:1031900052E40E9423FF2FE632E143E85AE30E9403
:1031A00047FE688379838A839B83DF91CF9108955B
:1031B000CF93DF93EC01CB01BA010E94B9F92AE069
:1031C00037ED43E25DE30E9423FF0E9490FF688396
:1031D00079838A839B83DF91CF910895CF93DF9387
:1031E000EC01CB01BA010E94BBF92AE037ED43E2C2
:1031F0005DE30E9423FF688379838A839B83DF9149
:10320000CF910895FC01518340830895CF93DF93BC
:10321000EC01CB01BA010E94BBF920E030E04AE7A3
:1032200054E40E9423FF27E137EB41ED58E30E946D
:1032300047FE688379838A839B83DF91CF910895CA
:10324000CF93DF93C0915506D091560681E0CE31E1
:10325000D105E4F020E030E040E05FE3609151060A
:103260007091520680915306909154060E9447FE39
:103270000E948BFF6C1B7D0B77FF03C071956195DE
:10328000710981E0633071050CF080E0DF91CF912E
:10329000089590E080E008952091A011833021F4FA
:1032A00025FD0CC024FD0CC030E0A90102C05595DD
:1032B00047958A95E2F7CA018170089581E00895E3
:1032C00080E008958091730484FD0BC080917504A3
:1032D00087FD07C090917604937081E019F480E037
:1032E000089581E008952FEB280F2A3108F047C098
:1032F000E22FF0E08091730490917404A091750422
:10330000B091760404C0B695A795979587952A95B0
:10331000D2F780FD02C081700895E75AFB4FE0812B
:10332000EE2341F18091B2069091B306E80FF92F98
:10333000F11D808190ED980F9A3030F08E3251F46B
:10334000818180538A3098F4F0935804E0935704B5
:1033500081E008958D3211F08B3249F4818190ED36
:10336000980F9A3088F38E3211F48281EACFF0E020
:10337000E0E0EACF1092580410925704E9CF80E0C1
:103380000895B1DF882341F081E020915704309106
:103390005804232B09F480E0089580E090E0A0E831
:1033A000B0E48093680290936902A0936A02B0939C
:1033B0006B0282ED92E00E94AF9C80E090E0A0EF73
:1033C000B1E48093600290936102A0936202B09393
:1033D00063028093640290936502A0936602B093A7
:1033E0006702E091E304EE0FFF0BEE54FD4F808186
:1033F00091818330910549F184309105D9F102978B
:1034000061F480E090E0AAE2B3E4809360029093DC
:103410006102A0936202B09363028AEB92E00E9481
:10342000AF9C109268021092690210926A02109288
:103430006B0282ED92E00E94AF9C8091E3048F5F6B
:103440008430ECF48093E304089580E090E0AAE2F5
:10345000B3E48093600290936102A0936202B09300
:1034600063028093640290936502A0936602B09316
:103470006702D3CF80E090E0AAE2B3E4F2CF1092EB
:10348000E3040895CF92DF92EF92FF920E94BBF97E
:103490006B017C0120E030E0A9010E94B5F92DEB21
:1034A00037E346E055E387FF04C02DEB37E346E002
:1034B00055EBC701B6010E9447FE6B017C0120E07D
:1034C00030E0A9010E94B5F920E030E040E05FE380
:1034D00087FF04C020E030E040E05FEBC701B601A9
:1034E0000E9447FE0E948BFFCB01FF90EF90DF9080
:1034F000CF900C94F1A2CB010C94F1A280914C02DC
:10350000882341F06091DE047091DF0441E081E0A6
:103510000C94CBC508952F923F924F925F926F9279
:103520007F928F929F92AF92BF92CF92DF92EF9253
:10353000FF920F931F93CF93DF93D62FC72FFC01DA
:1035400080809180A280B380C501B40120E831E57C
:1035500041E050E00E948FFDC9016DE671E00E94DC
:10356000F9FD6B017C01C501B40120E13EE040E0C2
:1035700050E00E948FFDCA01B90128E130E040E02F
:1035800050E00E948FFD362E272E062F172F8CE33A
:10359000482E512C612C712CC501B401A30192015C
:1035A0000E948FFDB62EA72ECA01B901A301920178
:1035B0000E948FFDCB01C114D10479F1AF92BF926B
:1035C0007F936F932F923F92FF92EF92DF92CF9271
:1035D0008AE59AE09F938F93CF93DF930E944EF9F1
:1035E0008DB79EB70E960FB6F8949EBF0FBE8DBFD7
:1035F0008D2F9C2FDF91CF911F910F91FF90EF9016
:10360000DF90CF90BF90AF909F908F907F906F9002
:103610005F904F903F902F900895E114F104C9F00E
:10362000AF92BF927F936F932F923F92FF92EF9250
:103630008AE49AE09F938F93CF93DF930E944EF991
:10364000EDB7FEB73C960FB6F894FEBF0FBEEDBFC8
:10365000CFCF012BB9F0AF92BF927F936F932F9290
:103660003F928EE39AE09F938F93CF93DF930E94D4
:103670004EF98DB79EB70A960FB6F8949EBF0FBE4F
:103680008DBFB6CF892BA9F0AF92BF927F936F9376
:1036900086E39AE09F938F93CF93DF930E944EF936
:1036A000EDB7FEB738960FB6F894FEBF0FBEEDBF6C
:1036B0009FCFAF92BF9282E39AE09F938F93CF9375
:1036C000DF930E944EF90F900F900F900F900F9084
:1036D0000F908ECFCF92DF92EF92FF92CF93DF9336
:1036E00000D01F92CDB7DEB76B017C0120E030E047
:1036F000A9010E94B5F987FD1CC06DEB77E386E058
:1037000095E3A70196010E9447FE69837A838B8324
:103710009C8360E2CE0101960E94F0A60F900F906C
:103720000F900F90DF91CF91FF90EF90DF90CF90AF
:1037300008956DEB77E386E095EBE3CF0E94BBF94C
:1037400020E030E04AE754E40E9423FF27E137EB12
:1037500041ED58E30E9447FEBDCF63E972E084E685
:1037600090E00E9458AE70E060E08AE090E00E9435
:1037700058AE6AEB72E084E690E00C9458AE81118A
:10378000ECCF68E270E080E991E00C9458AE0E94C2
:103790007EBBF5CF0E94C38AF2CFCF93DF9300D0D8
:1037A0001F92CDB7DEB70E94B9F969837A838B8304
:1037B0009C83CE0101960E9483A60F900F900F90DC
:1037C0000F90DF91CF9108950E94B9F92AE037ED6B
:1037D00043E25DE30E9423FF0E9490FFDECFCF9281
:1037E000DF92EF92FF92CF93DF9300D01F92CDB77D
:1037F000DEB76B017C0120E030E0A9010E94B5F941
:1038000087FD1BC06DEB77E386E095E3A70196018A
:103810000E9447FE69837A838B839C83CE01019645
:103820000E9483A60F900F900F900F90DF91CF9181
:10383000FF90EF90DF90CF9008956DEB77E386E0F7
:1038400095EBE4CF0E94BBF92AE037ED43E25DE35C
:103850000E9423FFC4CF0E94BBF9C1CF8F929F92D9
:10386000AF92BF92CF92DF92EF92FF92CF936B0114
:103870007C0120E030E0A9010E94B5F987FDC3C0BA
:103880006DEB77E386E095E3A70196010E9447FE82
:103890006B017C0120E030E0A9010E94B5F987FFAF
:1038A00004C0F7FAF094F7F8F09442E050E0C70152
:1038B000B6010E9435A66B017C0160E280E4C81667
:1038C00082E4D8068FE0E806F1048CF0C701B60167
:1038D00020E432E44FE050E00E94B1FDCA01B9019A
:1038E0002AE030E040E050E00E94B1FD605D60936E
:1038F000E60460E280EAC81686E8D80681E0E806B9
:10390000F1048CF0C701B60120EA36E841E050E04E
:103910000E94B1FDCA01B9012AE030E040E050E068
:103920000E94B1FD605D6093E70460E280E1C8162B
:1039300087E2D806E104F1048CF0C701B60120E16A
:1039400037E240E050E00E94B1FDCA01B9012AE02F
:1039500030E040E050E00E94B1FD605D6093E8041B
:1039600060E288EEC81683E0D806E104F1048CF02A
:10397000C701B60128EE33E040E050E00E94B1FDFF
:10398000CA01B9012AE030E040E050E00E94B1FDF8
:10399000605D6093E904C701B60124E630E040E0D1
:1039A00050E00E94B1FD8AE0882E912CA12CB12C10
:1039B000CA01B901A50194010E94B1FD605D609347
:1039C000EA048EE28093EB04C701B601A5019401DD
:1039D0000E94B1FDC62FCA01B901A50194010E9440
:1039E000B1FD605D6093EC04C05DC093ED0486EEB4
:1039F00094E0CF91FF90EF90DF90CF90BF90AF9089
:103A00009F908F9008956DEB77E386E095EB3CCF28
:103A10000E94BBF920E030E048EC52E40E9423FF12
:103A20002FE632E143E85AE30E9447FE17CFCF92D8
:103A3000DF92EF92FF92CF93DF9300D01F92CDB72A
:103A4000DEB70E94BBF920E030E048EC52E40E946F
:103A500023FF2FE632E143E85AE30E9447FE6B0161
:103A60007C0120E030E0A9010E94B5F92DEB37E39D
:103A700046E055E387FF04C02DEB37E346E055EB06
:103A8000C701B6010E9447FE69837A838B839C83BA
:103A9000CE0101960E9418A80F900F900F900F90E2
:103AA000DF91CF91FF90EF90DF90CF9008950E942B
:103AB00029A053CE0C94138F0C94138F0C94C58EA5
:103AC0000C94C58E0C94C58E0C94C58ECF92DF924B
:103AD000EF92FF920F931F930E941DCA00918504DD
:103AE0001091860420918704309188046B017C0139
:103AF000C01AD10AE20AF30A9701860137FD11C004
:103B0000209184042095209384046A547C4F8F4F25
:103B10009F4F6093850470938604809387049093ED
:103B2000880481E090918404911101C080E01F918C
:103B30000F91FF90EF90DF90CF900895CF93DF9398
:103B4000C0915506D0915606209729F160915106F3
:103B50007091520680915306909154060E948BFFFB
:103B60006E5F7F4F24976C177D07ACF470937805D8
:103B7000609377050E941DCA605A75418F4F9F4F11
:103B80006093790570937A0580937B0590937C050B
:103B9000DF91CF9108951092790510927A051092D5
:103BA0007B0510927C05F4CFCF92DF92EF92FF92CB
:103BB0000F931F93CF93DF9300D000D01F921F92DB
:103BC000CDB7DEB78E010F5F1F4FD80130E020E088
:103BD000FB01E20FF31FE491ED932F5F3F4F28307D
:103BE0003105B1F7877098E0899FB00111246064B6
:103BF00089E891E10E9431CB83E790E00197F1F7EA
:103C00007801E8E0EE0EF11C8BE9C82ED12CF8010A
:103C100061918F0189E891E10E94FCBDC601019785
:103C2000F1F7E016F10699F728960FB6F894DEBF83
:103C30000FBECDBFDF91CF911F910F91FF90EF90FD
:103C4000DF90CF900895CF92DF92EF92FF920F9383
:103C50001F93CF93DF9300D000D0CDB7DEB78A019A
:103C600046E0469F9001479F300D1124BC01620F32
:103C7000731F46E050E0CE0101960E94DEF8C98035
:103C8000DA80EB80FC80F801408151816281738190
:103C90008FEF9FEFC416D506E606F70640F081E0E9
:103CA00090E04C155D056E057F0508F080E02696D6
:103CB0000FB6F894DEBF0FBECDBFDF91CF911F913D
:103CC0000F91FF90EF90DF90CF9008950F931F9387
:103CD000CF93DF93CDB7DEB72E970FB6F894DEBF44
:103CE0000FBECDBF8B011E861D86FC0160817181D8
:103CF000828193816F83788789879A872FEF2B87BB
:103D0000603871058105910538F489E891E10E94D8
:103D1000FCBD81E090E02FC09E01235F3F4FAE01CC
:103D2000495F5F4F69EB70E086EC9EE00E9443C004
:103D300097FD2CC08D859E8526E0289FB001299F88
:103D4000700D11246A53714F46E050E0CE01019688
:103D50000E94DEF86D8189E891E10E94FCBD01308E
:103D60001105B9F26E816623A1F289E891E10E9402
:103D7000FCBD82E090E02E960FB6F894DEBF0FBE39
:103D8000CDBFDF91CF911F910F9108959E01235FC9
:103D90003F4FAE01495F5F4F63E670E084E79CE010
:103DA0000E9443C097FD0BC08D859E8526E0289F0D
:103DB000B001299F700D11246C58734FC5CF6FE36C
:103DC000A4CF8091570490915804009731F04AE0B5
:103DD00050E070E060E00C94D6F760E070E0CB015A
:103DE00008958091570490915804009731F04AE06B
:103DF00050E070E060E00C94ABF660E070E0CB0166
:103E00000895EFDF97FD0AC0ECDF6F3F7105810574
:103E1000910509F02CF4E5DF862F089580E00895E0
:103E20008FEF0895CF93C62FACDA882311F0CF918E
:103E3000E8CF8C2FCF91089580915704909158042A
:103E4000892B39F0DEDF91E0811101C090E0892FEC
:103E5000089591E0FCCFCF93DF93C82FD62F91DA4E
:103E6000882319F0DF91CF91E7CF8C2F3CDA8111B5
:103E700001C08D2FDF91CF910895B3DFCB0108955D
:103E8000CF93DF93EB017DDA882319F0DF91CF9197
:103E9000F4CFCE01DF91CF9108950F931F93CF936D
:103EA0008091570490915804009709F1FC018F010B
:103EB000C1912C2F2F7DA1F0C53431F0C53621F0F2
:103EC000C83511F0C83799F7F801108270E060E04A
:103ED0000E9456F5F801C083CF911F910F9108956C
:103EE00070E060E0CF911F910F910C9456F560E067
:103EF00070E0CB01F1CFCF92DF92EF92FF926A0197
:103F00007B013FDA882329F0FF90EF90DF90CF907C
:103F1000C4CFC701B601FF90EF90DF90CF90089516
:103F20004F925F926F927F92AF92BF92CF92DF9249
:103F3000EF92FF920F931F93CF938EE9A82E82E00A
:103F4000B82E9CEFE92E94E0F92E00E612E022E66E
:103F5000C22E20E1D22EC0E0F50181915F0111DA7D
:103F6000882309F4A2C099DF2B013C018C2F94D93E
:103F7000882309F490C0F801208131814281538166
:103F8000C301B2010E9447FEF701608371838283FF
:103F90009383CF5FF4E0EF0EF11C0C5F1F4F84E0C2
:103FA000C80ED11CC330C1F685E4EBD9882309F4CF
:103FB00087C073DF6B017C0183E06ED9882371F0C9
:103FC00020916C0230916D0240916E0250916F020F
:103FD000C701B6010E9447FE6B017C01C092080533
:103FE000D0920905E0920A05F0920B0540E050E0FE
:103FF000BA0186E480DF20E030E0A9010F946D0073
:1040000018167CF44ADF20E030E040E752E40E94DA
:1040100023FF609310027093110280931202909319
:1040200013028091ED0683FD28C080913806882315
:1040300021F120916C0230916D0240916E025091FD
:104040006F02609108057091090580910A059091B1
:104050000B050E9446FE2091A2063091A3064091D6
:10406000A4065091A5060E9447FE6093A206709395
:10407000A3068093A4069093A506CF911F910F915C
:10408000FF90EF90DF90CF90BF90AF907F906F90B8
:104090005F904F900895F6012081318142815381D4
:1040A000C301B2010E9446FE6FCFF8018081918169
:1040B000A281B381F70180839183A283B38369CF07
:1040C00080916C0290916D02A0916E02B0916F028E
:1040D0008093080590930905A0930A05B0930B05FA
:1040E00085CFE091DD04E63028F581E08E0F8093E6
:1040F000DD044091750650917606609177067091C7
:10410000780620916F06909170068091AB0639E099
:10411000E39FF0011124E955FB4FA0918711B09165
:104120008811B183A083428353836483758326837C
:10413000978380870895CF93DF93CDB7DEB78E81C5
:10414000282F082E000C330B9091C21092171306E3
:1041500009F08CF48093C2109E01275F3F4F4F817E
:10416000588568E270E089E990E10E947DF910923B
:10417000981010929710DF91CF9108950F931F938D
:10418000CF93DF938C016F3F19F41092C21060E05F
:104190002091C210862F062E000C990B28171906A5
:1041A00009F014F56093C210C8010E9404F9800F51
:1041B000911FEC01C01BD10BC932D1053CF0019716
:1041C000FC012491207C2038D1F3F3CFDD27AE0110
:1041D000B80189E990E10E9425F9C756DF4E18829F
:1041E0001092981010929710DF91CF911F910F911C
:1041F00008950F931F930E941DCA00919B04109174
:104200009C0420919D0430919E04601B710B820BD5
:10421000930B97FD0CC0809109018095881F88271A
:10422000881F919B82604A9B846080939A0480914E
:104230009A04817090919A0491FD82609091990402
:10424000981749F0813009F148F0823079F08330D5
:1042500091F0809399041F910F910895913079F016
:104260009230B9F79091980491500CC0992339F08D
:104270009330C1F3EECF9130A9F3923051F7909182
:1042800098049F5F90939804E4CF992359F3933057
:1042900001F7F5CFCF92DF92EF92FF92CF93C82F25
:1042A0000E941DCA6B017C0124EA30E74DE75FE301
:1042B00060910602709107028091080290910902B4
:1042C0000E94B5F987FD18C08AEF90E0A0E0B0E049
:1042D0008C0D9D1DAE1DBF1D80938C0490938D048D
:1042E000A0938E04B0938F04C0930402CF91FF90EB
:1042F000EF90DF90CF90089580E090E0DC01E8CF70
:104300008F3010F48F5F08958F5008956EEB73E136
:1043100080E04ADC66EB73E181E046DC6EEA73E143
:1043200082E042DC66EA73E186E03EDC6EE973E13E
:1043300087E03ADC66E973E183E036DC6EE873E13E
:1043400084E032DC66E873E185E02ECCCF938230E6
:1043500061F4C4E0C15058F088E0C89FB001112456
:10436000645E7C4E8C2F20DCF5CFCF91CFCFCF91E8
:1043700008950F931F93522F209187113091881128
:104380002817390791F110921405909388118093A2
:1043900087118B0130E020E00093750610937606BC
:1043A000209377063093780640936F0650937006FB
:1043B0008952994221F41092AB061092DD0489E8EB
:1043C00091E10E9439CB81E02091871130918811D1
:1043D0002952394209F080E0B9DF82E080934C0233
:1043E00081E0809385061092E2041F910F91089559
:1043F00081E08093AB0610923B061092EF0420E020
:1044000040E070E060E08DE092E2B3DF8DEE98E195
:1044100090934B0680934A06089580914C0288231E
:1044200031F041E06BEC76E181E00E94CBC58091F8
:10443000EF048770873039F420E040E070E060E0FE
:1044400085E392E296CF089520E040E070E060E0DE
:1044500089EA9CE28EDF81E08093E0048FEC95E1B5
:1044600090934B0680934A06089580914C028823CE
:1044700031F041E065ED75E181E00E94CBC58091AE
:10448000640610926406882319F01092E104DCCFD0
:10449000089520E040E070E060E089E299E269CFB1
:1044A0000E9429A00E94C38A6AD9F3CF83E195E1D3
:1044B00090934B0680934A06ECCFCF93DF93C09145
:1044C000DD04CC23B1F0C150C093DD0489E0C89F66
:1044D000E0011124C955DB4F6A817B812F814E8118
:1044E0008881998146DF88858093AB06DF91CF91E3
:1044F0000895DF91CF91CDCF8091E004811104C068
:104500001092AB06DADF29D980914C02882331F072
:1045100041E064E975E181E00E94CBC582E08093CF
:104520004C0208954F925F926F927F928F929F926A
:10453000AF92BF92CF92DF92EF92FF921F93CF93F1
:10454000DF93CDB7DEB760970FB6F894DEBF0FBE2E
:10455000CDBF0E941DCA6B017C01809104028F3F78
:1045600009F443C00E941DCA80908C0490908D0471
:10457000A0908E04B0908F04681979098A099B096C
:1045800097FD33C080915511BBDE9091561189176C
:1045900061F1E0910402E43008F05FC024E0E29FA2
:1045A000F0011124EE55FD4F80819181A281B381EC
:1045B0008D879E87AF87B88B19821A821B821C82D7
:1045C0001D821E821F82188619861A861B861C86EB
:1045D000AE014F5F5F4FBE01635F7F4F80E692E0A9
:1045E0000E9469E88FEF8093040203DE80919A04B1
:1045F00082FF3CC08091970481113AC091E0909372
:1046000097048091B4068927809364061092B406BB
:1046100083E080934C0210929A040E941DCA6C5051
:104620007E4F8F4F9F4F60939B0470939C048093A9
:104630009D0490939E0468E873E182E090E00E94FC
:1046400058AE16E01150A1F00E94C0AA62E070E0DE
:1046500080E090E00E94EAC9F5CF80910A02909133
:104660000B02A0910C02B0910D02A2CF1092970400
:104670008091A7069091A806A091A906B091AA06DC
:10468000A7019601281B390B4A0B5B0BDA01C90104
:10469000B7FD88C1D701C6018C599F4FAF4FBF4F9F
:1046A0008093A7069093A806A093A906B093AA06A4
:1046B00060919804062E000C770B77FF03C071956C
:1046C000619571099091980480919604981398C00F
:1046D000633008F095C010929804809198048093FC
:1046E0009604643008F09CC08091640681111AC160
:1046F00080918711909188118952994241F480915B
:104700000502882309F420C18150809305020E948C
:1047100055918090D6069090D706A090D806B0907C
:10472000D90681110E946291D501C4014AE0B69573
:10473000A795979587954A95D1F78F3F4FEF9407A7
:10474000A105B10520F08FEF9FEFA0E0B0E0209130
:104750004C022223C9F196958795009739F0409134
:104760009004509191044817590770F5223038F0A1
:10477000243008F4FBC0243011F410924C02E09174
:104780008711F09188111995109264068091871114
:104790009091881189529942F9F40E941DCADC0156
:1047A000CB018C199D09AE09BF09809090049090AF
:1047B0009104B12CA12C88169906AA06BB0620F4F8
:1047C0009093910480939004809187119091881127
:1047D0008952994209F4CEC08091AB068111CAC0BA
:1047E0008091920490919304A0919404B0919504C7
:1047F000C81AD90AEA0AFB0AF7FCCAC04ADEC8C0CE
:10480000633009F06ACF8091980487FD07C081E08A
:10481000880F880F8093980464E05FCF8FEFF8CF04
:1048200080918A0621E030E040E050E0882309F4DE
:1048300056C08090860690908706A0908806B0901B
:10484000890681149104A104B104E9F170E090E0BB
:1048500080E00E94B9F920E030E040E85EE30E9489
:104860001AFA2B013C01C701B601681979098A09B6
:104870009B090E94B9F99B01AC01C301B2010E94DE
:1048800023FF20E030E04AE754E40E941AFA4B018B
:104890005C0120E030E040EA52E40F946D0024E631
:1048A00030E040E050E087FF12C020E030E040EF11
:1048B00051E4C501B4010F946D002AE030E040E0FE
:1048C00050E087FF04C021E030E040E050E0C092BB
:1048D0008606D0928706E0928806F0928906A0911B
:1048E00098040A2E000CBB0B0E94D7FD24E030E098
:1048F00040E050E00E94B1FD8091750690917606EF
:10490000A0917706B0917806820F931FA41FB51F60
:104910008093750690937606A0937706B0937806F9
:1049200010929804D701C601805A9541AF4FBF4FEE
:104930008093920490939304A0939404B09395046D
:1049400081E080934C02D4CE89E08093050280916F
:10495000900490919104009729F00197909391040D
:104960008093900481E080934C02D1CE81E08093CB
:104970004C0205CF30E6C30E3AEED31EE11CF11C0B
:10498000C0929204D0929304E0929404F092950421
:1049900080914C028130E1F0833021F489E891E18B
:1049A0000E9439CB60960FB6F894DEBF0FBECDBF24
:1049B000DF91CF911F91FF90EF90DF90CF90BF904C
:1049C000AF909F908F907F906F905F904F900895E1
:1049D00010924C02E7CFCF9380919F04811109C0C0
:1049E0008BE094E19093DF048093DE0481E0809378
:1049F0009F0477DB20E040E070E060E08EE79AE122
:104A0000B8DCC1E0C093AB060E94368F1092AB06B3
:104A100054DDC093AB0660E084E790E3AFDB87E052
:104A200094E190934B0680934A06CF91089520E03D
:104A300044E064E189E891E10E9440CB81E020916B
:104A40008711309188112952394209F080E07EDCCB
:104A500089E891E10C9439CBEADFEAE0F1E080816A
:104A60008F77808380910B018095807880930901F6
:104A70009998A19A52985A9ABCDB109298040C9477
:104A8000BEC06FEF7FEF22C9AF92BF92CF92DF928D
:104A9000EF92FF920F931F93CF93DF9300D01F925B
:104AA000CDB7DEB76C015B017A0110E000E00E15B6
:104AB0001F05C8F4AE014F5F5F4FB501C6010E94EC
:104AC000A0AE6C0189819A81AB81BC81892B8A2B34
:104AD0008B2B49F0B701601B710BCE010196F6D804
:104AE000080F191FE4CFC8010F900F900F900F907F
:104AF000DF91CF911F910F91FF90EF90DF90CF90BA
:104B0000BF90AF9008954FEF5FEF63E274E7BCCFC3
:104B10004FEF5FEF60E274E7B7CF8F929F92AF9253
:104B2000BF92CF92DF92EF92FF920F931F93CF939A
:104B3000DF9300D000D01F921F92CDB7DEB77C016B
:104B4000162F5A014901862F660F990B9C01225698
:104B50003D4F69011016D4F5AE014B5F5F4F60E227
:104B600074E7C7010E94A0AE7C018D819E81AF8158
:104B7000B8850097A105B10549F18B379105A105CD
:104B8000B10509F46EC08E379105A105B10509F490
:104B900068C08A329105A105B10561F517FF0FC004
:104BA0008BEC93E11E3F11F086EC93E1402F002E39
:104BB000000C550B60E274E767DF081B8AC083EDC9
:104BC00093E1A6DF015009F04EC000E0802F289647
:104BD0000FB6F894DEBF0FBECDBFDF91CF911F910E
:104BE0000F91FF90EF90DF90CF90BF90AF909F908C
:104BF0008F90089584329105A105B105C1F4811407
:104C0000910451F0402F002E000C550B60E274E728
:104C1000C4013ADF081B9ECFA114B104E9F0402F74
:104C2000002E000C550B63E274E7C501F2CF80340F
:104C30009105A105B10581F40150F6018081082E8E
:104C4000000C990BAA0BBB0B89839A83AB83BC83A3
:104C5000CE01019616DF7ECFCE01059612DF015000
:104C600079CF17FD9DCF81E04D815E816F81788581
:104C70004B3751056105710509F480E0810F8A30D9
:104C8000C4F001506AE00E94ECFD192F082E000CC0
:104C9000990BC096092E000CAA0BBB0B89839A8333
:104CA000AB83BC83CE010196ECDE002309F48DCFEB
:104CB000812F082E000C990BC096092E000CAA0B10
:104CC000BB0B89839A83AB83BC83CE010196D9DE6B
:104CD0000150002309F479CF402F002E000C550B12
:104CE00060E274E7C701D0DE081B70CF0F931F93FB
:104CF000CF93DF9300D000D01F921F92CDB7DEB7C5
:104D00000091700210917102209172023091730231
:104D10000D831E832F8338870091740210917502D2
:104D2000209176023091770209831A832B833C838A
:104D300090919011691710F06FEF690F262F30E0F6
:104D4000409191112C0F3D1FF901403199F494309D
:104D500089F46181680F606889E891E128960FB64F
:104D6000F894DEBF0FBECDBFDF91CF911F910F91A1
:104D70000C9431CB6581EECFFC01A081B1811C92F6
:104D8000A281B3818C918F5F8C930280F381E02D9F
:104D9000608180E0ABCF4F925F926F927F928F9253
:104DA0009F92AF92BF92CF92DF92EF92FF920F93BA
:104DB0001F93CF93DF9300D000D01F921F92CDB7E7
:104DC000DEB76C017B015A014901FB016081FC01E6
:104DD00080818CDFA114B10409F49DC0DA82C982FC
:104DE000FC82EB82011121C0AE014B5F5F4FB40129
:104DF000C5010E94A0AE5C018D819E81AF81B88506
:104E0000892B8A2B8B2B09F486C0CE01059639DEBF
:104E1000F60180818F5F8083843130F3CE0101966B
:104E2000ABDFE2CF10E075010DC0750110E00AC0E4
:104E3000E114F104B9F38FEFE81AF80A10E0E11475
:104E4000F10489F3AE014B5F5F4FB401C5010E94CD
:104E5000A0AE5C014D805E806F8078844114510467
:104E600061047104E9F0F0E24F1651046104710429
:104E7000A9F0D301C2018D97A109B1090297A1053B
:104E8000B10570F04BE2441651046104710441F025
:104E90005AE04516510461047104D9F5112341F219
:104EA000F6018081482F410F5527551F4531510587
:104EB0002CF0853018F0CE0101965EDF81E04114C0
:104EC00051046104710409F480E0180FF601808137
:104ED000810F8083112369F01150AE014B5F5F4F4A
:104EE000B401C7010E94A0AE7C01CE010596C9DDC8
:104EF000F1CF411451046104710469F0FAE04F16D6
:104F000051046104710409F08DCFCE01019634DFA4
:104F10008ACF1F5F94CF28960FB6F894DEBF0FBEDE
:104F2000CDBFDF91CF911F910F91FF90EF90DF9058
:104F3000CF90BF90AF909F908F907F906F905F9039
:104F40004F9008952F923F924F925F926F927F926F
:104F50008F929F92AF92BF92CF92DF92EF92FF9289
:104F60000F931F93CF93DF9300D000D0CDB7DEB760
:104F70004C013B015A012E83232E280181E08093AE
:104F8000AB06409175065091760660917706709158
:104F90007806411551056105710571F01416150665
:104FA0000CF080E08093E204109275061092760671
:104FB00010927706109278061091E2043090640601
:104FC00010926406311005C080914C02882309F4C8
:104FD000AFC0C2010E9484AE082F80E0C114D1048A
:104FE00019F0C6010E9484AE1D821982E114F104F9
:104FF000B1F4402F50E0282F30E0CA01820F931FF8
:1050000045976CF484E190E0841B950B821B930B15
:1050100097FD0196959587958D8381E0898301E0C1
:1050200020E234E7A201BE016F5F7F4FCE010596FB
:10503000B2DEE114F10489F08D81882321F01D8214
:1050400089818F5F898300E023E234E7A701BE01F5
:105050006F5F7F4FCE0105969EDEC114D10451F0E3
:1050600000E020E234E7A601BE016F5F7F4FCE0172
:10507000059691DE63E080E039DE8BE590E0A0E00C
:10508000B0E0112321F080E290E0A0E0B0E089835D
:105090009A83AB83BC83CE010196F3DCC30138DD78
:1050A0008DE590E0A0E0B0E0112321F080E290E0F7
:1050B000A0E0B0E089839A83AB83BC83CE010196E4
:1050C000E0DCC4010E9484AE63E092E1981B892F6A
:1050D0000DDE80E290E0A0E0B0E0112321F08BE54E
:1050E00090E0A0E0B0E089839A83AB83BC83CE01DB
:1050F0000196C7DCC4010CDD80E290E0A0E0B0E0E6
:10510000112321F08DE590E0A0E0B0E089839A833F
:10511000AB83BC83CE010196B4DC332049F011117E
:1051200002C0AE80B22CA114B104D9F0F5011995DA
:1051300026960FB6F894DEBF0FBECDBFDF91CF919C
:105140001F910F91FF90EF90DF90CF90BF90AF90A5
:105150009F908F907F906F905F904F903F902F9097
:105160000895ABD9E5CFCF92DF92EF92FF920F93E4
:105170001F9380E0C82E85E1D82EF12CE12C08E1A8
:1051800015E130E020E040E552E262E075E18BE0BD
:1051900095E1D8DE1F910F91FF90EF90DF90CF90B7
:1051A0000895AF92BF92CF92DF92EF92FF920F934A
:1051B0001F93CF93DF93CDB7DEB7ADB6BEB68DE20A
:1051C00094E10E9484AE90E001962DB73EB7281B73
:1051D000390B0FB6F8943EBF0FBE2DBF8DB79EB7EB
:1051E00001967C016DE274E10E94FDF8E0916B068E
:1051F000E15010E000E0E43038F4F0E0EE0FFF1F83
:10520000E15CFC4F008111818AE1C82E84E1D82E37
:1052100029E432E240E552E26CE174E183E294E198
:1052200091DE0FB6F894BEBE0FBEADBEDF91CF913A
:105230001F910F91FF90EF90DF90CF90BF90AF90B4
:105240000895CF93DF93EA0151DDCE01DF91CF9135
:1052500018CC8F929F92AF92BF92CF92DF92EF9233
:10526000FF920F931F93CF93DF9300D01F92CDB780
:10527000DEB710928A06E0919710F091981030975F
:1052800021F0199581110E94BEC080916406109290
:1052900064068823C9F020E040E070E060E08AE620
:1052A00093EB67D8C4DB0F900F900F900F90DF91B6
:1052B000CF911F910F91FF90EF90DF90CF90BF9013
:1052C000AF909F908F90089520910E0230910F0221
:1052D0004091750650917606CA01820F931F2436BD
:1052E000310509F0FDC04730510544F006978A307A
:1052F00091050CF004C18AE090E00BC106964A3F8C
:105300005F4FACF30E94661D182F60E080E0EEDC7A
:1053100020E030E040E05FE360912A1170912B11B2
:1053200080912C1190912D110E9447FE0E948BFFBD
:105330004B01E0902E11F0902F1182E090E0A0E060
:10534000B0E089839A83AB83BC83CE01019699DB5D
:1053500097FCEFC0C4010E9407A6D5DB8CEE93E159
:10536000D7DBC7010E94C6A2CEDB81E090E0A0E0BF
:10537000B0E089839A83AB83BC83CE01019681DB45
:105380008AEE93E1C5DBFAE0EF16F1041CF488EE37
:1053900093E1BEDB60E08AE0A9DC112329F0809173
:1053A000CF0C0FE5811101C000E020E030E040E0CB
:1053B0005FE360915106709152068091530690917F
:1053C00054060E9447FE0E948BFF4B01E090550659
:1053D000F0905606802F000F990BAA0BBB0B898308
:1053E0009A83AB83BC83CE0101964BDB97FCA5C0AF
:1053F000C4010E9407A687DB8CEE93E189DBC7011D
:105400000E94C6A280DB81E090E0A0E0B0E089834A
:105410009A83AB83BC83CE01019633DB8AEE93E1A2
:1054200077DB4AE0E416F1041CF488EE93E170DBCC
:1054300061E080E05BDC209162103091631040916C
:1054400064105091651060916002709161028091CA
:105450006202909163020E9447FE6B017C012091E1
:1054600066103091671040916810509169106091FA
:1054700064027091650280916602909167020E94B9
:1054800047FE4B015C0120E030E0A901C701B601F5
:105490000E94B5F920E030E040E05FEB87FD04C0FA
:1054A00020E030E040E05FE3C701B6010E9447FE24
:1054B0000E948BFFCB010E9447A2D82E092F88E5BE
:1054C00090E0A0E0B0E089839A83AB83BC83CE01F7
:1054D0000196D7DA1123A9F18D2D902F14DB54C03A
:1054E000243631054CF48536910504F58A30910552
:1054F00034F48AE090E009C084369105BCF0883E1F
:10550000E3E09E0714F087EE93E02817390709F4CB
:10551000F9CE90930F0280930E02109275061092AE
:1055200076061092770610927806ECCE84E690E02C
:10553000F0CF8EEE93E1ECDA11CF8EEE93E1E8DA64
:105540005BCF87E00E94109980FF17C0ED2CF02EF2
:10555000F70181917F018823B9F08F320CF08FE33E
:10556000082E000C990BAA0BBB0B89839A83AB8383
:10557000BC83CE01019685DAEBCF80913B0680FD9E
:10558000ABCF83EE93E1C4DA81EE93E1C1DA20E0A0
:1055900030E0A901C501B4010E94B5F920E030E076
:1055A00040E05FEB87FD04C020E030E040E05FE3D7
:1055B000C501B4010E9447FE0E948BFFCB010E94EF
:1055C00047A2D82E092F89E590E0A0E0B0E08983BA
:1055D0009A83AB83BC83CE01019653DA112321F069
:1055E0008D2D902F90DA23C087E00E94109981FFC3
:1055F00017C0ED2CF02EF70181917F018823B9F0BF
:105600008F320CF08FE3082E000C990BAA0BBB0B0A
:1056100089839A83AB83BC83CE01019632DAEBCFC8
:1056200080913B0681FDDCCF83EE93E171DA61E08E
:105630008CE05CDB20916A1030916B1040916C1013
:1056400050916D10609168027091690280916A02B8
:1056500090916B020E9447FE42E050E00E9435A606
:105660006B017C0180E2F7FE09C0F094E094D094D5
:10567000C094C11CD11CE11CF11C8DE28093E70495
:1056800060E2F0E1CF16F7E2DF06E104F1048CF00E
:10569000C701B60120E137E240E050E00E94B1FDD1
:1056A000CA01B9012AE030E040E050E00E94B1FDBB
:1056B000605D6093E80460E248EEC41643E0D406FF
:1056C000E104F1048CF0C701B60128EE33E040E0BC
:1056D00050E00E94B1FDCA01B9012AE030E040E08B
:1056E00050E00E94B1FD605D6093E904C701B6011E
:1056F00024E630E040E050E00E94B1FD9AE0892EBF
:10570000912CA12CB12CCA01B901A50194010E94D0
:10571000B1FD605D6093EA04C701B601A501940183
:105720000E94B1FD062FCA01B901A50194010E9492
:10573000B1FD002309F47CC08EE28093EB04605D30
:105740006093EC04005D0093ED048AE590E0A0E036
:10575000B0E089839A83AB83BC83CE01019691D953
:10576000112309F477C087EE94E0CDD986E090E06C
:10577000A0E0B0E089839A83AB83BC83AE014F5F26
:105780005F4F62E080E05DDD80910E0290910F023C
:105790000E94F1A2B8D987ED93E1BAD986E080934F
:1057A0008B0482E0809303028091780290917902C9
:1057B000A0917A02B0917B0289839A83AB83BC83E8
:1057C0000E94661D90918A048917D9F00E94661D77
:1057D00080938A04809189048F5F823008F05FC0D3
:1057E00080938904E0918904F0E0EE0FFF1F81E0CF
:1057F00090E08C0F9D1FE80FF91F0190F081E02DC4
:10580000199563E080E072DA89E990E10E9492AE36
:10581000182F44E150E063E274E789E990E134D95C
:10582000143108F040CD85ED93E172D91F5FF8CFB8
:10583000662351F08EE28093EB04605D6093EC048C
:1058400080E28093ED0481CF80E28093EC0480932A
:10585000EB04F6CF87E00E94109982FF18C007EE94
:1058600014E0F80181918F01882309F47FCF8F32F2
:105870000CF08FE3082E000C990BAA0BBB0B89834D
:105880009A83AB83BC83CE010196FBD8EACF80918B
:105890003B0682FD68CF89ED93E13AD967CF10923C
:1058A0008904A0CF8F929F92AF92BF92CF92DF9246
:1058B000EF92FF920F931F93CF93DF9300D01F922D
:1058C000CDB7DEB76C017B0180908E0690908F067D
:1058D000A0908C06B0908D0610918B0661E080E060
:1058E00005DA03E19401A501612FC60116D9182F2D
:1058F000E114F104E9F084E893E10AD9C7010E94B8
:1059000092AE8F5F115061E0181708F462E000E278
:1059100010E020E030E009831A832B833C83AE0142
:105920004F5F5F4F94E1981B892F8BDCC701EBD849
:105930000F900F900F900F90DF91CF911F910F91CB
:10594000FF90EF90DF90CF90BF90AF909F908F909F
:1059500008950F931F93CF93DF9300D000D000D012
:105960001F92CDB7DEB780914C028823E9F01F92D9
:1059700080E18F938091E10490E001969F938F9353
:1059800087EC95E19F938F938E010F5F1F4F1F93BD
:105990000F930E944EF9B80187EB95E183DF0FB6B4
:1059A000F894DEBF0FBECDBF84E080934C0280919F
:1059B000E004811108C020E040E070E060E08EEE7D
:1059C0009CE20E94B9212A960FB6F894DEBF0FBE62
:1059D000CDBFDF91CF911F910F910895CF92DF92AC
:1059E000EF92FF92CF93DF9300D01F92CDB7DEB737
:1059F0008091640610926406882331F18091E1045D
:105A00008F5F8093E1048031E0F081E08093E004D7
:105A100020E040E070E060E08CE792E20E94B92173
:105A200081EB95E190934B0680934A060F900F907F
:105A30000F900F90DF91CF91FF90EF90DF90CF907C
:105A400008950E942422F2CF609175067091760627
:105A50008091770690917806611571058105910511
:105A600009F43EC00E94BBF92DEC3CEC4CEC5CE32D
:105A70000E941AFA209168023091690240916A02EC
:105A800050916B020E9447FE6B017C0120E030E0E8
:105A900040E050EC0E94B5F987FD52C020E030E0B4
:105AA00040E050E4C701B6010F946D0018160CF4E5
:105AB0004DC0C0926802D0926902E0926A02F092F0
:105AC0006B0282ED92E00E94AF9C82E080934C02D8
:105AD000109275061092760610927706109278064C
