:100000000C941E1E0C945E1E0C945E1E0C945E1EC0
:100010000C945E1E0C945E1E0C945E1E0C945E1E70
:100020000C945E1E0C945E1E0C945E1E0C945E1E60
:100030000C945E1E0C94ABE50C945E1E0C945E1E3C
:100040000C945E1E0C9463940C945E1E0C945E1EC5
:100050000C945E1E0C94E4930C945E1E0C9461E56B
:100060000C945E1E0C94AF620C94A5620C945E1E00
:100070000C945E1E0C945E1E0C945E1E0C945E1E10
:100080000C945E1E0C945E1E0C945E1E0C945E1E00
:100090000C945E1E0C945E1E0C945E1E0C945E1EF0
:1000A0000C945E1E0C945E1E0C945E1E0C945E1EE0
:1000B0000C945E1E0C945E1E0C945E1E0C945E1ED0
:1000C0000C945E1E0C945E1E0C945E1E0C945E1EC0
:1000D0000C945E1E0C945E1E0C945E1E0C945E1EB0
:1000E0000C945E1E084AD73B3BCE016E84BCBFFD1C
:1000F000C12F3D6C74319ABD56833DDA3D00C77FF8
:1001000011BED9E4BB4C3E916BAAAABE0000008090
:100110003F05A84CCDB2D44EB93836A9020C50B91F
:10012000918688083CA6AAAA2ABE000000803F0744
:10013000634236B79BD8A71A39685618AEBAAB5582
:100140008C1D3CB7CC5763BD6DEDFD753EF6177247
:1001500031BF000000803F08000000BE9224491219
:100160003EABAAAA2ABECDCCCC4C3E00000080BE3D
:10017000ABAAAAAA3E00000000BF000000803F001A
:1001800000000000084178D3BB4387D1133D190E0E
:100190003CC3BD4282AD2B3E68EC8276BED98FE176
:1001A000A93E4C80EFFFBE01C4FF7F3F000000006E
:1001B00000004E414E494E495459494E46CDCCCC93
:1001C0003D0AD7233C17B7D13877CC2B329595E62B
:1001D000241FB14F0A000020410000C84200401C0B
:1001E0004620BCBE4CCA1B0E5AAEC59D74434F4D33
:1001F0004D554E49434154494F4E00445259525572
:100200004E004552524F525300494E464F0045430F
:10021000484F004445534341524741522046494CC0
:10022000414D454E544F00434152474152204649AB
:100230004C414D454E544F0043414D42494152209F
:1002400046494C414D454E544F00444554454E4956
:100250004441005072696E7465722073746F7070DF
:1002600065642064756520746F206572726F7273A7
:100270002E2046697820746865206572726F72203E
:10028000616E6420757365204D39393920746F2093
:10029000726573746172742E202854656D70657276
:1002A00061747572652069732072657365742E20A0
:1002B0005365742069742061667465722072657379
:1002C00074617274696E67290A004E6F2043686515
:1002D000636B73756D2077697468206C696E652037
:1002E0006E756D6265722C204C617374204C696E62
:1002F000653A20004E6F20436865636B73756D200F
:1003000077697468206C696E65206E756D626572C0
:100310002C204C617374204C696E653A2000636830
:1003200065636B73756D206D69736D617463682CA3
:10033000204C617374204C696E653A20004C696EE4
:1003400065204E756D626572206973206E6F742032
:100350004C617374204C696E65204E756D626572D8
:100360002B312C204C617374204C696E653A20004F
:100370004D3131300053657269616C207374617462
:100380007573206D69736D617463680A005344204E
:1003900072656164206572726F720A004B494C4C41
:1003A00020627574746F6E2F70696E0A00212120AF
:1003B0004B494C4C20636175736564206279200061
:1003C000746F6F206D75636820696E616374697600
:1003D000652074696D65202D2063757272656E7479
:1003E00020636F6D6D616E643A20002121204B49BE
:1003F0004C4C2063617573656420627920006275DE
:1004000073793A2070617573656420666F72206934
:100410006E7075740A00627573793A207061757335
:10042000656420666F7220757365720A0062757369
:10043000793A2070726F63657373696E670A00534F
:10044000442F464420726574697261646F0053449E
:100450002F464420696E7365727461646F00506F3B
:1004600072206661766F722C207265696E696369AD
:100470006500494D505245534F5241204445544523
:100480004E4944410025533A202553004D554552CD
:100490005441005072696E7465722068616C7465B5
:1004A000642E206B696C6C28292063616C6C656418
:1004B000210A00006563686F3A004572726F723AF4
:1004C00000486F74656E6420746F6F20636F6C6496
:1004D0000A0020440020204D3230302053002028D4
:1004E00044697361626C6564293A0046696C616DA8
:1004F000656E742073657474696E67730020204D97
:100500003230312058004D617820416363656C655D
:10051000726174696F6E2028756E6974732F7332FF
:10052000290020204D3230332058004D617820665C
:1005300065656472617465732028756E6974732FC4
:1005400073290020520020204D32303420500041C9
:100550006363656C65726174696F6E2028756E697E
:1005600074732F7332292028503C7072696E742D79
:10057000616363656C3E20523C72657472616374A2
:100580002D616363656C3E20543C74726176656CCA
:100590002D616363656C3E2900204A0020540020D1
:1005A000530020204D323035204200416476616E88
:1005B0006365642028423C6D696E5F7365676D6595
:1005C0006E745F74696D655F75733E20533C6D6931
:1005D0006E5F66656564726174653E20543C6D694A
:1005E0006E5F74726176656C5F6665656472617476
:1005F000653E204A3C6A756E635F6465763E2900FD
:1006000020440020490020204D3330312050004844
:100610006F74656E642050494400486561642063CE
:10062000616E6E6F74206265207061726B6564002C
:10063000496E736572742066696C616D656E7420B5
:10064000616E6420707265737320627574746F6E6E
:100650000A0052656865617420446F6E65005265DA
:1006600063616C656E74616E646F2E2E2E00507225
:1006700065737320627574746F6E20746F20686583
:100680006174206E6F7A7A6C650A00203B002055F9
:100690000020204D363033204C0046696C616D657A
:1006A0006E74206C6F61642F756E6C6F61640020D6
:1006B000496E76616C6964206578747275646572E0
:1006C000200047322F4733206261642070617261DD
:1006D0006D65746572730A005265706F736F2E2EAC
:1006E0002E0050756C7361722070617261205265CA
:1006F000616E756461720053696E206D6F76696D0D
:1007000069656E746F00456E642066696C65206C67
:100710006973740A00426567696E2066696C6520BA
:100720006C6973740A004E6F206D656469610A001C
:10073000286E6F2066696C65290043757272656E5C
:10074000742066696C653A20004E6F742053442013
:100750007072696E74696E670A0053442070726922
:100760006E74696E67206279746520002E0A0044F9
:10077000656C6574696F6E206661696C65642028BC
:10078000726561642D6F6E6C79292C2046696C65E9
:100790003A200043616E6E6F74206F70656E207337
:1007A000756264697220002569730025696D2025D2
:1007B0006973002569682025696D20256973002506
:1007C0006964202569682025696D202569730025E5
:1007D000697920256964202569682025696D2025AF
:1007E0006973005072696E742074696D653A2000F7
:1007F0006D3B00204368616E67653A20006D3B00E9
:100800002054696D65206C6566743A2000253B00B4
:100810002050726F67726573733A2000204D373332
:10082000006F6B006F6666000E0209020202FB0198
:10083000ED0144454255473A004D3131322053686D
:100840007574646F776E004D313133205300446905
:1008500074746F2050726F204F46462E002F2F0069
:100860004D31343520533C696E6465783E206F7598
:1008700074206F662072616E67652028302D3129E3
:100880000A003F4A206F7574206F662072616E67A0
:10089000652028302E303120746F20302E33290A05
:1008A000002058004F4646004F4E003B20002020BD
:1008B0004D61783A2000200020204D696E3A2000DA
:1008C000203B200020204D323131205300250A00EA
:1008D00046523A0020466C6F773A200064697300F4
:1008E000656E0043290A0061626C656420286D69A9
:1008F0006E2074656D702000436F6C6420657874A1
:100900007275646573206172652000446573666169
:1009100073652061706C6963616461004D494E2F9D
:100920004D415820546F6F2046617200546F6F2004
:100930006661722066726F6D204D494E2F4D415891
:100940000A00454550524F4D204F4B0A004D383458
:1009500000446F6E65207072696E74696E67206600
:10096000696C650A004D3737004D333100496E76AA
:10097000616C69642065787472756465720A002020
:10098000204D323036205800486F6D65206F666606
:10099000736574004361703A00434F4E4649475FA8
:1009A0004558504F5254004D4541545041434B001F
:1009B000434F4F4C45525F54454D5045524154555D
:1009C0005245004348414D4245525F54454D5045C4
:1009D000524154555245004241425953544550509A
:1009E000494E470041524353004D4F54494F4E5FCB
:1009F0004D4F44455300544845524D414C5F505271
:100A00004F54454354494F4E00455854454E444574
:100A1000445F4D323000435553544F4D5F46495269
:100A20004D574152455F55504C4F4144004C464E46
:100A30005F5752495445004C4F4E475F46494C451D
:100A40004E414D45004155544F5245504F52545F11
:100A500053445F5354415455530053445F575249D4
:100A6000544500524550454154004D554C54495F42
:100A7000564F4C554D45005344434152440050524B
:100A80004F4D50545F535550504F525400484F53A0
:100A9000545F414354494F4E5F434F4D4D414E4487
:100AA0005300454D455247454E43595F50415253BF
:100AB000455200434153455F4C494748545F4252B9
:100AC000494748544E45535300544F47474C455FA0
:100AD0004C494748545300534F4654574152455F81
:100AE000504F574552004255494C445F5045524380
:100AF000454E54004C4556454C494E475F44415481
:100B000041005A5F50524F42450052554E4F555486
:100B1000004155544F4C4556454C005052494E5497
:100B20005F4A4F420050524F475245535300415580
:100B3000544F5245504F52545F54454D500041550B
:100B4000544F5245504F52545F504F5300564F4CE4
:100B5000554D455452494300454550524F4D004272
:100B6000494E4152595F46494C455F5452414E539C
:100B70004645520053455249414C5F584F4E5F58CD
:100B80004F4646004649524D574152455F4E414DF2
:100B9000453A4D61726C696E20322E312E322E37FD
:100BA00020284D61792032382032303236203039D9
:100BB0003A31353A34352920534F555243455F4336
:100BC0004F44455F55524C3A6769746875622E63AD
:100BD0006F6D2F4D61726C696E4669726D776172CF
:100BE000652F4D61726C696E2050524F544F434FC8
:100BF0004C5F56455253494F4E3A312E30204D41AD
:100C00004348494E455F545950453A446974746F9E
:100C10002050726F2045585452554445525F434FFF
:100C2000554E543A3120555549443A63656465320E
:100C30006132662D343161322D343734382D3962CA
:100C400031322D63353563363266333637666600AA
:100C5000456E667269616E646F2E2E2E00453120DE
:100C6000255300206661696C65642120426164201F
:100C70006865617465722069640A005049442041C6
:100C800075746F74756E650023646566696E6520A2
:100C900044454641554C545F004B4420004B49208D
:100CA000004B5020002066696E69736865642120DE
:100CB00050757420746865206C617374204B702CBF
:100CC000204B6920616E64204B6420636F6E7374E7
:100CD000616E74732066726F6D2062656C6F772031
:100CE000696E746F20436F6E6669677572617469AF
:100CF0006F6E2E680A00504944204175746F7475F8
:100D00006E6500206661696C6564212074696D659B
:100D10006F75740A00504944204175746F74756E84
:100D20006500206661696C6564212054656D70659D
:100D300072617475726520746F6F20686967680AE4
:100D400000504944204175746F74756E65005049B8
:100D500044204379636C65730025532025692F2552
:100D60006900204B643A2000204B693A2000204B58
:100D7000703A200020436C617373696320504944CA
:100D8000200A002054753A2000204B753A2000209C
:100D90006D61783A2000206D696E3A200020643A37
:100DA000200020626961733A200043616C656E74B3
:100DB000616E646F2E2E2E002073746172740A00AF
:100DC000504944204175746F74756E6500206661EA
:100DD000696C6564212054656D706572617475720B
:100DE0006520746F6F20686967680A005049442065
:100DF0004175746F74756E65005049442041757477
:100E00006F2D616A75737465004572723A2075744E
:100E1000663820666F6E74206E6F7420696E697418
:100E200069616C697A65642E004572723A20757446
:100E3000663820666F6E74206E6F7420696E6974F8
:100E400069616C697A65642E004572723A20757426
:100E5000663820666F6E74206E6F7420696E6974D8
:100E600069616C697A65642E002000200020003AD8
:100E7000003A002568753A25303268750025303211
:100E800068753A2530326875002530326875272537
:100E90003032687500256875642025303268753AEF
:100EA00025303268750043616D6100526563696E7B
:100EB000746F004500200020002000200020002545
:100EC00000202020202020200020202020006572EB
:100ED00072001FE020102010201010201020201081
:100EE000201030300840048003001FE03FF03FF046
:100EF0003FF01FE01FE03FF03FF03FF00FC00780E2
:100F000003003FFFF038007030FC3020FC102078E8
:100F1000102030102C00D02E31D02F7BD02F7BD042
:100F20002E31D02C00D020301020781020FC103032
:100F3000FC303800703FFFF03FFFF0380070318622
:100F4000302387102787902F87D02F03D020301091
:100F50002078102078102030102F03D02F87D02732
:100F600087902387103186303800703FFFF0496D3D
:100F70007072657369C3B36E2063616E63656C6183
:100F80006461004D32350050617573696E672E2EB5
:100F90002E004D3234003F0049676E6F726500527B
:100FA00065696E696369617200496E696369616C44
:100FB000697A617220454550524F4D004361726716
:100FC00061206D6D004465736361726761206D6DB2
:100FD000004469C3A16D6574726F2046696C2E0070
:100FE0004520656E206D6DC2B3004D333033205502
:100FF0003120452569205325690050494420417519
:10100000746F2D616A75737465202A00200820466C
:101010006163746F72002008204D61780020082001
:101020004D696E0041706700456E630054656D70D8
:101030002E204175746F6D2E0056656C2E207669DA
:10104000616A65206D696E00566D696E004D61784C
:101050002040205370656564004163656C2E206DEF
:10106000617845004163656C2E206D6178400041D8
:1010700063656C2E205669616A65004163656C2E5C
:10108000207265747261632E004163656C657261E4
:101090006369C3B36E0040207061736F732F6D6D11
:1010A00000416A7573746573206176616E7A61645C
:1010B0006F73003F0043616E63656C617200496E3F
:1010C0006963696172004D34323800496E69636941
:1010D000616C697A617220454550524F4D004669F6
:1010E0006C616D656E746F0054656D7065726174CE
:1010F000757261005061736F732F6D6D004465737D
:1011000076692E20556E69C3B36E00416363656CCA
:101110006572616369C3B36E004D61782056656C7A
:101120006F636964616400416A75737461722064FD
:101130006573666173657300436F6E666967757288
:10114000616369C3B36E003F005369677569656E7B
:1011500074652070756E746F004C6973746F005302
:10116000696775696E7465004F726967656E2058AE
:10117000595A00426F7175696C6C610056656E74E6
:10118000696C61646F7200436F6E66696775726146
:101190006369C3B36E00526573742E2066C3A16287
:1011A0007269636100436172676172204545505204
:1011B0004F4D004775617264617220454550524F32
:1011C0004D0050726563616C2E202420416A757356
:1011D000746500416A7573746573206176616E7A17
:1011E00061646F73004D656EC3BA207072696E637F
:1011F0006970616C004D37303220542564004D36E3
:10120000303020423020542564004D373032203BAE
:101210002564004D37303120542564004D3730327D
:10122000004D373031004D363030204230004D65B2
:101230006EC3BA207072696E636970616C00436F2F
:101240006E74696E75617220696D702E00507572D2
:10125000676172206DC3A173004F50432E20524529
:10126000494E4943494F3A00494D5052455349C3AD
:10127000934E2050415553414441002F00200020FF
:1012800020426F7175696C6C613A20004170617227
:1012900063616E646F2E2E2E0000004573706572C0
:1012A000616E646F207061726100696E696369616B
:1012B0007220656C2063616D62696F0064652066F1
:1012C000696C616D656E746F004573706572652041
:1012D00070617261006C69626572617220656C2078
:1012E00066696C616D656E746F000043616C656E5C
:1012F00074616E646F20626F7175696C6C6100451A
:10130000737065726520706F72206661766F722EE1
:101310002E2E000050756C736520656C20626F7412
:10132000C3B36E20706172610063616C656E74613D
:1013300072206C6120626F7175696C6C610000498C
:101340006E736572746520656C2066696C616D658D
:101350006E746F00792070756C736520656C206207
:101360006F74C3B36E007061726120636F6E7469D5
:101370006E7561722E2E2E00457370657265207039
:101380006172610063617267617220656C206669D9
:101390006C616D656E746F000050756C73617220C6
:1013A000656C20626F74C3B36E20706172610072ED
:1013B00065616E7564617220696D7072657369C371
:1013C000B36E00004573706572616E646F20696D65
:1013D000707265736F726100706172612072656115
:1013E0006E756461722E2E2E0000457370657265F5
:1013F00020706172610070757267617220656C2087
:1014000066696C616D656E746F00005669672E20A9
:10141000467567612054C3A9726D2E3A204F4E0065
:1014200054656D702E204DC3A178696D610032370F
:10143000350054656D702E204DC3AD6E696D610031
:10144000350045313A204550434F53203130304B21
:1014500000462E20416C696D656E742E0047656EE6
:10146000657269630050726F746F636F6C6F0031E7
:101470002E300042617564696F7300323530303050
:10148000300052414D505320312E34004578747253
:1014900075736F7265730031006D61726C696E6691
:1014A000772E6F726700446974746F2050726F00FA
:1014B000323032362D30312D323200322E312E3252
:1014C0002E37004D61726C696E005465726D6973E0
:1014D000746F72657300496E666F2E20436F6E7471
:1014E000726F6C61646F7200496E666F2E20496D79
:1014F000707265736F7261004D656EC3BA20707251
:10150000696E636970616C003F00417472C3A173BE
:101510000050617261720043616D626961722066A0
:10152000696C616D656E746F0053442F4644206E84
:101530006F2070726573656E746500496D707269B5
:101540006D2E2064657364652053442F4644004328
:10155000616D626961722053442F4644004D3231FF
:1015600000496E666F2E20496D707265736F7261EF
:1015700000436F6E6669677572616369C3B36E001D
:1015800054656D7065726174757261004D6F766936
:101590006D69656E746F005265616E75646172206D
:1015A000696D7072657369C3B36E00416A75737457
:1015B000617200446574656E657220696D70726554
:1015C0007369C3B36E0050617573617220696D7089
:1015D00072657369C3B36E0050616E74616C6C6147
:1015E00020646520496E662E003F00496E6963697C
:1015F000617220696D7072657369C3B36E00436177
:101600006E63656C617200496D7072696D6972001C
:1016100043616E6E6F7420656E74657220737562BF
:101620006469723A200002202E2E004D656EC3BA06
:10163000207072696E636970616C00000C0F00FEAF
:1016400007022503BB01FFFE0AFE08FE0508080687
:10165000000040F0C8888898781005080806000047
:10166000C0F88888888888F80505050600012030BC
:10167000F830200508080600002070F820202020FF
:10168000E00509090600FF2070A8A8B88888702026
:10169000070505070001D86C366CD8050909060056
:1016A000FFF8A88888888888A8F8050A0A0600FE36
:1016B000205050505088A8A88870030303060003E8
:1016C00040A040FFFFFFFFFFFFFFFFFFFFFFFFFF07
:1016D000FFFFFFFFFFFFFFFFFF0000000605FF0108
:1016E00007070602008080808080008003030306D5
:1016F0000105A0A0A005060606000050F85050F80D
:10170000500509090600FF2070A8A07028A87020C5
:10171000050707060000C8C810204098980507076D
:1017200006000040A0A040A890680103030602053F
:101730008080800309090601FF20404080808040AE
:1017400040200309090601FF80404020202040403E
:101750008005070706000020A8702070A820050556
:10176000050600012020F820200203030601FFC027
:101770004080050101060003F8020202060100C0D4
:10178000C00507070600000810102040408005072C
:1017900007060000708898A8C8887003070706012C
:1017A0000040C040404040E0050707060000708848
:1017B00008102040F8050707060000F80810300858
:1017C000887005070706000010305090F8101005CB
:1017D0000707060000F880F008088870050707066C
:1017E0000000304080F0888870050707060000F888
:1017F0000810102020200507070600007088887058
:1018000088887005070706000070888878081060CF
:10181000020505060100C0C000C0C00206060601A0
:10182000FFC0C000C04080030505060101204080C4
:101830004020050303060002F800F8030505060131
:1018400001804020408005070706000070881020B6
:101850002000200507070600007088B8A8B880702F
:10186000050707060000708888F88888880507073C
:10187000060000F04848704848F0050707060000D9
:1018800070888080808870050707060000F048484F
:10189000484848F0050707060000F88080F080807F
:1018A000F8050707060000F88080F08080800507B3
:1018B000070600007088808098887005070706007A
:1018C00000888888F8888888030707060100E040B8
:1018D00040404040E0050707060000381010101097
:1018E00090600507070600008890A0C0A0908805BA
:1018F0000707060000808080808080F805070706C3
:10190000000088D8A888888888050707060000880E
:1019100088C8A89888880507070600007088888806
:10192000888870050707060000F08888F0808080AE
:1019300005070706000070888888A89068050707D3
:10194000060000F08888F0A09088050707060000D0
:1019500070888070088870050707060000F820204E
:1019600020202020050707060000888888888888AE
:1019700070050707060000888888885050200507F2
:101980000706000088888888A8A850050707060071
:10199000008888502050888805070706000088883E
:1019A0005020202020050707060000F808102040DE
:1019B00080F80309090601FFE08080808080808034
:1019C000E0050707060000804040201010080309CA
:1019D000090601FFE020202020202020E00503034D
:1019E0000600052050880501010600FEF8030303E8
:1019F000060105804020050505060000700878886E
:101A0000780507070600008080F0888888F00505C3
:101A10000506000070808088700507070600000832
:101A20000878888888780505050600007088F080A9
:101A300070050707060000304840E04040400507B9
:101A4000070600FE7088888878087005070706007A
:101A5000008080F08888888803070706010040001E
:101A6000C0404040E00409090601FE10003010109B
:101A70001010906005070706000080808890E090B5
:101A800088030707060100C04040404040E00505CC
:101A900005060000D0A8A8A8A8050505060000B006
:101AA000C888888805050506000070888888700544
:101AB00007070600FEF0888888F080800507070683
:101AC00000FE78888888780808050505060000B0BB
:101AD000C880808005050506000078807008F00544
:101AE00007070600002020F820202018050505061D
:101AF00000008888889868050505060000888888A1
:101B000050200505050600008888A8A85005050591
:101B100006000088502050880507070600FE8888C8
:101B20008850204080050505060000F8102040F888
:101B30000309090601FF2040404080404040200149
:101B400009090602FF8080808080808080800309F0
:101B5000090601FF804040402040404080050303CB
:101B600006000248A890FFFFFFFFFFFFFFFFFFFFF7
:101B7000FFFFFFFFFFFFFFFFFFFFFFFFFFFFFFFF75
:101B8000FFFFFFFFFFFFFF0000000605FF01070743
:101B9000060200800080808080800507070600FF25
:101BA0002070A8A0A8702005070706000030484054
:101BB000E04048B0050505060000A8508850A8057B
:101BC00007070600008850F820F8202001070706C4
:101BD0000200808080008080800408080601007078
:101BE000806090906010E0030101060107A00607E5
:101BF000070600007884B4A4B484780305050601C0
:101C00000460A06000E00505050600002850A05013
:101C100028050303060001F8080803010106010373
:101C2000E00607070600007884B4A4A484780501C0
:101C300001060007F80404040601056090906005A1
:101C400007070600002020F8202000F803050506FD
:101C5000010440A02040E0030505060104C0204027
:101C600020C0030303060105204080050707060086
:101C7000FE88888898E8808005080806000078E8D3
:101C8000E8E868282828020202060203C0C003020E
:101C9000020601FE20C003050506010440C04040C5
:101CA000E003050506010540A04000E00505050626
:101CB0000000A0502850A0050A0A06000040C048B5
:101CC000506050B0507810050A0A06000040C04825
:101CD000506050A8081038050A0A060000C02048C5
:101CE00030E050B0507810050707060000200020B3
:101CF00020408870050A0A0600004020007088888D
:101D0000F8888888050A0A06000010200070888874
:101D1000F8888888050A0A06000020500070888824
:101D2000F8888888050A0A06000068B0007088886C
:101D3000F88888880509090600005000708888F82E
:101D4000888888050A0A060000205020708888F8D4
:101D500088888805070706000078A0A0F0A0A0B832
:101D60000509090600FE7088808080887010600573
:101D70000A0A060000402000F88080F08080F80504
:101D80000A0A060000102000F88080F08080F80524
:101D90000A0A060000205000F88080F08080F805D4
:101DA00009090600005000F88080F08080F8030ADE
:101DB0000A060100804000E04040404040E0030A45
:101DC0000A060100204000E04040404040E0030A95
:101DD0000A06010040A000E04040404040E0030906
:101DE00009060100A000E04040404040E005070730
:101DF000060000704848E8484870050A0A060000D6
:101E000068B0008888C8A8988888050A0A06000073
:101E100040200070888888888870050A0A060000BB
:101E200010200070888888888870050A0A060000DB
:101E300020500070888888888870050A0A0600008B
:101E400068B00070888888888870050909060000D5
:101E5000500070888888888870050505060001880C
:101E6000502050880509090600FF087098A8A8A806
:101E7000C87080050A0A060000402000888888880B
:101E8000888870050A0A0600001020008888888863
:101E9000888870050A0A0600002050008888888813
:101EA000888870050909060000500088888888889D
:101EB0008870050A0A06000010200088885020203B
:101EC000202004070706010080E0909090E0800544
:101ED0000707060000708890A09088B005080806E3
:101EE0000000402000700878887805080806000087
:101EF0001020007008788878050808060000205037
:101F000000700878887805080806000068B000703E
:101F10000878887805070706000050007008788860
:101F20007805080806000020502070087888780599
:101F30000505060000702870A0780507070600FE5A
:101F40007088808870106005080806000040200036
:101F50007088F08070050808060000102000708866
:101F6000F080700508080600002050007088F0809E
:101F70007005070706000050007088F080700308A5
:101F800008060100804000C0404040E00308080609
:101F90000100204000C0404040E003080806010066
:101FA00040A000C0404040E0030707060100A00039
:101FB000C0404040E0050909060000502050087864
:101FC0008888887005080806000068B000B0C888D6
:101FD00088880508080600004020007088888870FE
:101FE0000508080600001020007088888870050821
:101FF00008060000205000708888887005080806D0
:10200000000068B000708888887005070706000027
:10201000500070888888700505050600012000F8CA
:1020200000200505050600007898A8C8F0050808F6
:10203000060000402000888888887005080806008F
:102040000010200088888888700508080600002095
:1020500050008888888870050707060000500088AF
:1020600088888870050A0A0600FE10200088888883
:10207000502040800509090600FE8080F08888888D
:10208000F080800509090600FE50008888885020ED
:1020900040804572723A20454550524F4D20436F63
:1020A0007272757074004572723A20454550524FF5
:1020B0004D20435243004572723A20454550524FDD
:1020C0004D2054616D61C3B16F004572723A205664
:1020D00065727369C3B36E20454550524F4D002160
:1020E00000486F74656E64206D7579206672696F43
:1020F00000417472C3A1730050726F6365646572AE
:10210000004578747275736F72004D6F76696D69F2
:10211000656E746F00417061676172206D6F746FDE
:10212000726573004D3834005265636F7272696472
:102130006F2043616D61004732385A004732385989
:1021400000486F6D6520400047323858004C6C6580
:1021500076617220616C206F726967656E0047322C
:1021600038004D656EC3BA207072696E6369706124
:102170006C00456E66726961720050726563616CD5
:102180002E20240056656E74696C61646F72004283
:102190006F7175696C6C61004D656EC3BA207072A9
:1021A000696E636970616C00466C756A6F00566594
:1021B0006E74696C61646F7200426F7175696C6CEA
:1021C000610056656C6F6369646164004D656EC340
:1021D000BA207072696E636970616C004972206127
:1021E000206F726967656E2046616C6C61646F0078
:1021F0006F70656E00545249474745524544003A56
:1022000020007A5F6D696E00795F6D696E00785F9E
:102210006D696E005265706F7274696E6720656ECD
:102220006473746F70207374617475730A00207422
:102230006F6F206C6F6E6720657874727573696F4D
:102240006E2070726576656E7465640A0020636F37
:102250006C6420657874727573696F6E2070726536
:1022600076656E7465640A000000000000000000DE
:10227000000000005761726E696E673A20486F6D0A
:10228000696E672042756D702044697669736F725C
:10229000203C20310A0002020400006143000025B6
:1022A0004300004D430000A0400000A0400000009B
:1022B00040000061430000254300004D4300000042
:1022C00000000000000000000053657474696E6730
:1022D000732053746F72656400290A002062797458
:1022E00065733B20637263200053657474696E6785
:1022F000732053746F7265642028004861726463B0
:102300006F6465642044656661756C742053657400
:1023100074696E6773204C6F616465640020286D7A
:102320006D290020460020480020204D3134352002
:1023300053004D6174657269616C206865617475E4
:102340007020706172616D65746572730020204D3C
:102350003134392043203B20556E69747320696EF7
:102360002043656C736975730A0054656D706572FE
:10237000617475726520556E697473002020473250
:1023800031203B004C696E65617220556E69747333
:1023900000454550524F4D206461746173697A6500
:1023A000206572726F722E0A00202863616C63755B
:1023B0006C6174656429210A0020213D2000454597
:1023C00050524F4D20435243206D69736D617463C9
:1023D00068202D202873746F72656429200045459C
:1023E00050524F4D20436F72727570740A00205323
:1023F000697A653A2000496E6465783A2000290AB6
:10240000002062797465733B20637263200020733F
:10241000746F7265642073657474696E677320727B
:1024200065747269657665642028000000FA4300CF
:1024300000FA430000A0400000C8410000B4420080
:1024400000B4420000C8430000BE42F4010000F4A2
:102450000100006400000088130000204D61726CD0
:10246000696E3D563838290A00454550524F4D2077
:1024700076657273696F6E206D69736D61746368E0
:102480002028454550524F4D3D0020436F756E74D6
:1024900020583A0045310045002C2073797374654B
:1024A0006D2073746F707065642120486561746578
:1024B000725F49443A2000465547412054C389522F
:1024C0004D49434100546865726D616C2052756ED0
:1024D000617761790043616C656E742E2066616C72
:1024E0006C69646F0048656174696E672066616934
:1024F0006C6564004572723A54454D502E204DC3B0
:102500008158004D415854454D5020747269676799
:1025100065726564004572723A54454D502E204DE7
:10252000494E004D494E54454D50207472696767BD
:102530006572656400202F0020403A0020573A0061
:102540000009121B242D363F48415A536C657E7793
:1025500019100B023D342F265158434A757C676E83
:10256000323B2029161F040D7A7368615E574C4573
:102570002B2239300F061D14636A7178474E555C63
:10258000646D767F4049525B2C253E3708011A1353
:102590007D746F6659504B42353C272E1118030A43
:1025A000565F444D727B60691E170C053A33282133
:1025B0004F465D546B627970070E151C232A313823
:1025C0004148535A656C777E09001B122D243F3613
:1025D00058514A437C756E671019020B343D262F03
:1025E000737A6168575E454C3B3229201F160D04F3
:1025F0006A6378714E475C55222B3039060F141DE3
:10260000252C373E0108131A6D647F7649405B52D2
:102610003C352E2718110A03747D666F5059424BC2
:10262000171E050C333A21285F564D447B726960B2
:102630000E071C152A233831464F545D626B7079A2
:1026400000002110422063308440A550C660E7702E
:10265000088129914AA16BB18CC1ADD1CEE1EFF1D6
:102660003112100273325222B5529442F772D6627E
:10267000399318837BB35AA3BDD39CC3FFF3DEE326
:102680006224433420040114E664C774A4448554CE
:102690006AA54BB528850995EEE5CFF5ACC58DD576
:1026A0005336722611163006D776F6669556B4461E
:1026B0005BB77AA719973887DFF7FEE79DD7BCC7C6
:1026C000C448E5588668A77840086118022823386E
:1026D000CCC9EDD98EE9AFF9488969990AA92BB916
:1026E000F55AD44AB77A966A711A500A333A122ABE
:1026F000FDDBDCCBBFFB9EEB799B588B3BBB1AAB66
:10270000A66C877CE44CC55C222C033C600C411C0D
:10271000AEED8FFDECCDCDDD2AAD0BBD688D499DB5
:10272000977EB66ED55EF44E133E322E511E700E5D
:102730009FFFBEEFDDDFFCCF1BBF3AAF599F788F05
:102740008891A981CAB1EBA10CD12DC14EF16FE1E5
:102750008010A100C230E32004502540467067601D
:10276000B9839893FBA3DAB33DC31CD37FE35EF335
:10277000B1029012F322D23235421452776256726D
:10278000EAB5CBA5A89589856EF54FE52CD50DC585
:10279000E234C324A01481046674476424540544BD
:1027A000DBA7FAB79987B8975FE77EF71DC73CD7D5
:1027B000D326F2369106B01657667676154634560D
:1027C0004CD96DC90EF92FE9C899E9898AB9ABA925
:1027D0004458654806782768C018E1088238A3285D
:1027E0007DCB5CDB3FEB1EFBF98BD89BBBAB9ABB75
:1027F000754A545A376A167AF10AD01AB32A923AAD
:102800002EFD0FED6CDD4DCDAABD8BADE89DC98DC4
:10281000267C076C645C454CA23C832CE01CC10CFC
:102820001FEF3EFF5DCF7CDF9BAFBABFD98FF89F14
:10283000176E367E554E745E932EB23ED10EF01E4C
:1028400043616E6E6F74206F70656E207375626485
:102850006972200046616C6C6F20616C20696E6942
:10286000636961722053442F4644005344206361DE
:102870007264206F6B0A006F70656E526F6F742008
:102880006661696C65640A00766F6C756D652E69AA
:102890006E6974206661696C65640A004E6F20532E
:1028A0004420636172640A005344206361726420AF
:1028B00072656C65617365640A0041425300504C57
:1028C00041000A4D3234004D3233202573002E0A68
:1028D000006F70656E206661696C65642C204669C6
:1028E0006C653A200046696C652073656C6563749D
:1028F00065640A002053697A653A200046696C6570
:10290000206F70656E65643A2000454E4420535533
:1029100042524F5554494E450A002220706F7300B1
:102920002220706172656E743A2200535542524FF4
:102930005554494E452043414C4C207461726765A3
:10294000743A2200446573626F7264616D69656EEA
:10295000746F206465207375626C6C616D61646175
:10296000004578636565646564206D617820535522
:1029700042524F5554494E452064657074683A0080
:10298000667265736800646F696E67002066696CC3
:10299000653A20004E6F7720002F6175746F2563B4
:1029A0002E67000280000000000000000000000010
:1029B0000000000180000000000000000000000096
:1029C0000000000180000000000000000000000086
:1029D0000000000180000000000000000000000076
:1029E0000000000180000000000000000000000066
:1029F0000000000180000000000000000000000056
:102A00000000000180000000000000000000000045
:102A10000000000180000000000000000000000035
:102A20000000000180000000000000000000000025
:102A30000000000180000000000000000000000015
:102A40000000000180000000000000000000000005
:102A500000000001800000000000000000000000F5
:102A600000000001800000000000000000000000E5
:102A700000000001800000000000000000000000D5
:102A800000000001800000000000000000000000C5
:102A900000000001800000000000000000000000B5
:102AA00000000001800000000000000000000000A5
:102AB0000000000180000000000000000000000095
:102AC0000000000180000000000000000000000085
:102AD0000000000180000000000000000000000075
:102AE0000000000180000000000000000000000065
:102AF0000000000180000000000000000000000055
:102B00000000000180000000000000000000000044
:102B10000000000180000000000000000000000034
:102B20000000000180000000000000000000000024
:102B30000000000180000000000000000000000014
:102B40000000000180000001FFFFFFFFFFFFFFFF0B
:102B50008000000180000000000000000000000074
:102B600000000001800000000FC7E000000000002E
:102B70000000000180000000084230001E0002102A
:102B8000000000018000000000C210C6210FC2201A
:102B90000000000180000000078210C6210102C071
:102BA0000000000180000000078210AA210103003C
:102BB00000000001800000000C0230AA210102C0C8
:102BC00000000001800000000847E0721E00C230D3
:102BD00000000001800000000FC0000000000000A5
:102BE0000000000180000000000000000000000064
:102BF0000000000180000001FFFFFFFFFFFFFFFF5B
:102C000080000001800000000000000000000000C3
:102C10000000000180000000000000000000000033
:102C20000000000180000000000000000000000023
:102C30000000000180000000000000000000000013
:102C40000000000180000000000000000000000003
:102C500000000001800000000000000000000000F3
:102C600000000001800000000000000000000000E3
:102C700000000001800000000000000000000000D3
:102C800000000001800000000000000000000000C3
:102C900000000001800000000000000000000000B3
:102CA00000000001800000000000000000000000A3
:102CB0000000000180000000000000000000000093
:102CC0000000000180000000000000000000000083
:102CD0000000000180000000000000000000000073
:102CE0000000000180000000000000000000000063
:102CF0000000000180000000000000000000000053
:102D00000000000180000000000000000000000042
:102D10000000000180000000000000000000000032
:102D20000000000180000000000000000000000022
:102D30000000000180000000000000000000000012
:102D40000000000180000000000000000000000002
:102D500000000001800000000000000000000000F2
:102D600000000001800000000000000000000000E2
:102D700000000001800000000000000000000000D2
:102D800000000001800000000000000000000000C2
:102D900000000001800000000000000000000000B2
:102DA000000000016D61726C696E66772E6F72674C
:102DB00000322E312E322E37001FFFFFFFFFFFFFA4
:102DC000600000000001FF400000000000FF8000E4
:102DD000000000007F83CF00000C303F87FF8000A1
:102DE0000C301F867980000C000F8C30C7838C302C
:102DF000E78C30CFC7CC31F38C30DCECEC33B98CC2
:102E000030D86C6C33198C30D06C0C33198C30D8B2
:102E10006C0C33198C30DC6C0E3B198C30CF7C077A
:102E20009F198C30C77C038F1940000000000002FE
:102E3000600000000000061FFFFFFFFFFFF82001F9
:102E4000400130013B014001360160013101700158
:102E50002C0190012701B0012201C0011D01F001E8
:102E600018011002130130020E01600209019002E4
:102E70000401C002FF000003FA004003F5008003D4
:102E8000F000D003EB002004E6007004E100E00451
:102E9000DC004005D700C005D2004006CD00D006BA
:102EA000C8008007C3003008BE00F008B900C009A0
:102EB000B400B00AAF00B00BAA00D00CA500000E01
:102EC000A000500F9B00C0109600501291000014FB
:102ED0008C00C0158700B0178200B0197D00D01B90
:102EE0007800001E730040206E0090226900F024DC
:102EF000640040275F0090295A00E02B5500102EF7
:102F0000500020304B0010324600E0334100903535
:102F10003C001037370070383200A0392D00B03A2D
:102F20002800A03B2300603C1E00103D1900903D8E
:102F30001400103E0F00703E0A00C03E0500003F26
:102F40000000403FFBFF803FF6FFC03FF1FF202025
:102F5000506C616E6E657242756666657242797418
:102F600065733A20002046726565204D656D6F726D
:102F7000793A200020436F6D70696C65643A204D8A
:102F8000617920323820323032360A00204C6173A9
:102F90007420557064617465643A20323032362D85
:102FA00030312D3232207C20417574686F723A20A6
:102FB000283344776F726B2C2068747470733A0AEC
:102FC000004D61726C696E20322E312E322E370A1E
:102FD0000020536F66747761726520526573657463
:102FE0000A00205761746368646F672052657365D7
:102FF000740A002042726F776E206F7574205265DC
:103000007365740A002045787465726E616C205295
:10301000657365740A00506F77657255700A0073A6
:10302000746172740A004732385859004D3130309B
:1030300031006572726F722077726974696E6720F1
:10304000746F2066696C650A00446F6E6520736159
:1030500076696E672066696C652E0A004D3239000C
:10306000456E6473746F70730025532025632025AB
:103070006320256320256300656E6473746F70732D
:10308000206869743A200000000A0B02090C0D0E3A
:103090000807030401000000000000000000000019
:1030A0000000000000000000000000000000000020
:1030B00000000012111000000000000000000000DD
:1030C0000000000000000000000000000024F404E4
:1030D000D9201BC40C5C0E9804C4095F02650771FB
:1030E00001F405F900FB04B30048048700C103693B
:1030F000005803550003034500BE023A0084023124
:103100000053022A002902250004022000E4011CC9
:1031100000C8011900AF01170098011400840113C1
:1031200000710110006101100051010E0043010DFA
:103130000036010B002B010B0020010B00150109CB
:10314000000C01090003010800FB000800F300085F
:1031500000EB000700E4000600DE000600D80006D1
:1031600000D2000600CC000500C7000500C2000523
:1031700000BD000400B9000400B5000400B1000463
:1031800000AD000400A9000400A5000300A2000394
:10319000009F0004009B00030098000300950002BC
:1031A0000093000300900003008D0002008B0003D9
:1031B00000880002008600020084000300810002F3
:1031C000007F0002007D0002007B00020079000207
:1031D0000077000100760002007400020072000116
:1031E00000710002006F0002006D0001006C00021F
:1031F000006A00010069000200670001006600012A
:10320000006500010064000200620001006100012D
:1032100000600001005F0002005D0001005C000131
:10322000005B0001005A0001005900010058000134
:103230000057000100560001005500010054000134
:103240000053000000530001005200010051000132
:1032500000500001004F0001004E0000004E000130
:10326000004D0001004C0001004B0000004B00012C
:10327000004A000100490001004800000048000128
:103280000047000100460000004600010045000024
:10329000004500010044000100430000004300011C
:1032A0000042000000420001004100000041000116
:1032B00000400001003F0000003F0001003E000010
:1032C000003E0001003D0000003D0001003C000008
:1032D000003C0000003C0001003B0000003B0001FE
:1032E000003A0000003A00010039000000390001F6
:1032F00000380000003800000038000100370000EE
:1033000000370001003600000036000000360001E2
:1033100000350000003500000035000100340000D9
:1033200000340000003400010033000000330000CE
:1033300000330001003200000032000000320001C2
:1033400000310000003100000031000100300000B9
:103350000030000000300001002F0000002F0000AE
:10336000002F0000002F0001002E0000002E0000A2
:10337000002E0001002D0000002D0000002D000097
:10338000002D0001002C0000002C0000002C00008B
:10339000002C0001002B0000002B0000002B00007F
:1033A000002B0001002A0000002A0000002A000073
:1033B000002A000100290000002900000029000067
:1033C000002900000029000100280000002800005A
:1033D000002800000028000000280001002700004D
:1033E0000027000000270000002700000027000140
:1033F0000026000000260000002600000026000035
:103400000026000100250000002500000025000026
:103410000025000000250000002500010024000018
:10342000002400000024000000240000002400010B
:103430000023000000230000002300000023000000
:1034400000230000002300000023000100220000F0
:1034500000220000002200000022000000220000E4
:1034600000220001002100000021000000210000D6
:1034700000210000002100000021000000210001C7
:1034800000200000002000000020000000200000BC
:1034900000200000002000000020000000200001AB
:1034A000001F0000001F0000001F0000001F0000A0
:1034B000001F0000001F0000001F0001001E000090
:1034C000001E0000001E0000001E00000024F4D4B6
:1034D0003050C38E20C2A24017828B7011127A9195
:1034E0000D816CD90AA861E108C75866076151438C
:1034F000061E4B5D05C145A7041A411104093D98FC
:1035000003713931034036DB0265339102D4305404
:1035100002802E1D02632CEE01752AC501B028A081
:1035200001102781018F2564012B244B01E02234F7
:1035300001AC211F018D200D01801FFC00841EEDB8
:1035400000971DDF00B81CD200E61BC600201BBC84
:1035500000641AB200B219A8000A19A0006A1899EA
:1035600000D117910040178B00B516840031167EEC
:1035700000B31579003A157300C7146F0058146A28
:1035800000EE1366008813630025135E00C7125B0C
:10359000006C12570015125400C111510070114FE8
:1035A0000021114B00D61049008D104700461044F1
:1035B0000002104200C00F4000800F3E00420F3C4E
:1035C00000060F3B00CB0E3800930E37005C0E3523
:1035D00000270E3400F30D3200C10D3100900D3084
:1035E00000600D2E00320D2D00050D2C00D90C2B86
:1035F00000AE0C2900850C29005C0C2700350C2737
:10360000000E0C2600E80B2400C40B2400A00B23A2
:10361000007D0B23005A0B2100390B2100180B20D1
:1036200000F80A1F00D90A1E00BB0A1E009D0A1DD1
:1036300000800A1D00630A1C00470A1B002C0A1B9D
:1036400000110A1A00F7091A00DD091900C4091946
:1036500000AB091900920917007B091800630917CC
:10366000004C09160036091600200916000A091533
:1036700000F5081500E0081400CC081400B8081480
:1036800000A4081400900813007D0812006B0813B2
:1036900000580812004608120034081100230811CF
:1036A000001208110001081100F0071000E00710D7
:1036B00000D0071000C0071000B0070F00A10710CE
:1036C0000091070E0083070F0074070F0065070EB7
:1036D0000057070E0049070E003B070D002E070E8E
:1036E0000020070D0013070D0006070D00F9060C5A
:1036F00000ED060D00E0060C00D4060C00C8060C18
:1037000000BC060C00B0060C00A4060B0099060CC9
:10371000008D060B0082060B0077060B006C060B73
:103720000061060A0057060B004C060A0042060A12
:103730000038060A002E060A0024060A001A060AA5
:10374000001006090007060A00FD050900F4050936
:1037500000EB050900E2050900D9050900D00509BB
:1037600000C7050900BE050900B5050800AD05083C
:1037700000A50509009C050800940508008C0508B3
:1037800000840508007C050800740508006C050726
:1037900000650508005D050700560508004E050791
:1037A00000470507004005080038050700310507F8
:1037B000002A050700230507001C0506001605075B
:1037C000000F0507000805060002050700FB0406B8
:1037D00000F5040700EE040600E8040600E2040712
:1037E00000DB040600D5040600CF040600C9040669
:1037F00000C3040600BD040600B7040600B10405BA
:1038000000AC040600A6040600A00405009B040604
:103810000095040500900406008A0405008504054F
:1038200000800406007A0405007504050070040594
:10383000006B04050066040500610405005C0405D6
:103840000057040500520405004D04050048040516
:1038500000430405003E0404003A04050035040555
:1038600000300404002C0405002704040023040590
:10387000001E0404001A04040016040500110404C8
:10388000000D0404000904050004040400000404FD
:1038900000FC030400F8030400F4030400F0030434
:1038A00000EC030400E8030400E4030400E0030464
:1038B00000DC030400D8030400D4030400D0030494
:1038C00000CC030400C8030300C50303005D2E0001
:1038D000006E23000013180000AF0E00003D08002A
:1038E000006304000045020000270100004D6F76D0
:1038F000657220246D6D00302E303235004D6F76AC
:10390000657220302E316D6D004D6F7665722031FD
:103910006D6D004D6F7665722031306D6D004D6FAD
:1039200076657220656A6573004578747275736F89
:1039300072202A004D6F766572204000BE28BA289A
:1039400043616D626961722066696C616D656E7458
:103950006F004465736361726761722066696C61B0
:103960006D656E746F004361726761722066696C89
:10397000616D656E746F0050726563616C2E206DB1
:10398000616E75616C0050726563616C2E2024005D
:10399000417472C3A173002000496D7072696D2E6D
:1039A0002064657364652053442F46440020002042
:1039B00000FFFFFF496E736572742066696C616D6C
:1039C000656E7420616E6420707265737320627519
:1039D00074746F6E0A00220A00556E6B6E6F776EFC
:1039E00020636F6D6D616E643A20220020420020DA
:1039F00050006F6B00204500205A00205900202005
:103A00004D393220580053746570732070657220F0
:103A1000756E6974004572726F722077726974698D
:103A20006E6720746F20454550524F4D210A00DBD0
:103A30000FC93F45BCDA3F8FB30240FCF027405628
:103A4000946140FE4B9B4084A5D840E0231841344C
:103A50006A5641E859974164DBD5416E271742B455
:103A6000B75542CE1A9742C8AED542B5885A43D40C
:103A70000684BFA65FA7BF7443E0BF10B11AC01C85
:103A80002C58C0E8F697C0B849D6C04E4E17C1248E
:103A9000D355C1802497C1A0B5D5C1121A17C2440D
:103AA000AE55C2781797C26CACD5C267885AC3208E
:103AB000746F6F206C6F6E672065787472757369B0
:103AC0006F6E2070726576656E7465640A0020639F
:103AD0006F6C6420657874727573696F6E20707294
:103AE0006576656E7465640A004F726967656E205D
:103AF0002573205072696D2E00486F6D6520257307
:103B00002046697273740020453A00205A3A00201A
:103B1000593A00583A006F6B0A00526573656E643B
:103B20003A200000002200250028002B002E003142
:103B300000340002010000050108010B0100002112
:103B400000240027002A002D00300033000101006E
:103B500000040107010A0105050505070508080815
:103B600008020202020A0A0808040404040101010E
:103B70000101010101030303030303030304070716
:103B8000070C0C0C0C0C0C0C0C02020202060606B4
:103B900006060606060B0B0B0B0B0B0B0B0102109C
:103BA0002020080810204010204080020102010857
:103BB0000402010102040810204080804020100807
:103BC0000402018004020180402010080402010860
:103BD00004020101020408102040800102040810C0
:103BE0002040807C3C3E5E2B3D3F2F5B5D3B3A2C72
:103BF0002A225C007C3C3E5E2B3D3F2F5B5D3B3AC6
:103C00002C2A225C00446974746F2050726F204C1F
:103C10006973746100496D7072696D69656E646F76
:103C20002E2E2E00496D7072657369C3B36E2050DD
:103C3000617573616461000044EF5CF611241FBE7E
:103C4000CFEFD1E2DEBFCDBF00E00CBF84B78093E1
:103C5000101514BE0FB6F894A89580916000886185
:103C600080936000109260000FBE13E0A0E0B2E00D
:103C7000E4E3F9E002E00BBF02C007900D92A23A24
:103C8000B107D9F725E1A2EAB3E001C01D92A03146
:103C9000B207E1F71EE1CDE1DEE100E006C02197C9
:103CA0000109802FFE010E94E4FFCC31D10780E0A2
:103CB0000807A9F70E9440F00D9489040C940000B5
:103CC00080918C148823F1F02FEF3FEF3093540252
:103CD00020935302815080938C14E4ECF2E188230A
:103CE00051F08150990B2BE1289FF001299FF00D95
:103CF0001124E258FC4E8BE1A9EAB2E101900D9249
:103D00008A95E1F720918C14211105C080919714B8
:103D100080648093971481E090E0A0E0B0E02111EE
:103D200003C080E090E0DC0180936F079093700700
:103D3000A0937107B09372071092650781E080939A
:103D40007F0783E080935F02089581E0809390076E
:103D5000089582E0809390070895CF93DF93EC015C
:103D6000642F70E090E080E00E947FFB29EC38EC4B
:103D700048EC5EE30F94E70020E030E040E05FE3D2
:103D80000F940B000F9454016883DF91CF91089535
:103D9000E091880784E0E802F0011124E253FA4F31
:103DA0008091680790E0938382830895CF93DF9397
:103DB000EC01CB01BA010E947FFB20E030E048EC2F
:103DC00052E40F94E7002FE632E143E85AE30F9400
:103DD0000B00688379838A839B83DF91CF91089559
:103DE000CF93DF93EC01CB01BA010E947FFB20E06F
:103DF00030E048EC52E40F94E7002FE632E143E86C
:103E00005AE30F940B00688379838A839B83DF9145
:103E1000CF910895CF93DF93EC01CB01BA010E94BB
:103E20007DFB2AE037ED43E25DE30F94E7000F945A
:103E30005401688379838A839B83DF91CF910895AE
:103E4000CF93DF93EC01CB01BA010E947FFB2AE004
:103E500037ED43E25DE30F94E700688379838A835B
:103E60009B83DF91CF910895CF93DF93EC01CB013A
:103E7000BA010E947FFB688379838A839B83DF91E9
:103E8000CF910895CF93DF93EC01CB01BA010E944B
:103E90007FFB688379838A839B83DF91CF91089529
:103EA000FC01518340830895CF93DF93EC01CB0154
:103EB000BA010E947FFB20E030E04AE754E40F940F
:103EC000E70027E137EB41ED58E30F940B006883DF
:103ED00079838A839B83DF91CF910895FC01A08130
:103EE000B1811C92A281B3818C918F5F8C930280EF
:103EF000F381E02D90818CE0989F800D1124EFE3F9
:103F0000F3E113AE84AF0895119800C090910201BF
:103F100087FD9095917090930001119A00C000C0A8
:103F2000119800C09091020186FD90959170909338
:103F30000001119A00C000C0119800C090910201C8
:103F400085FD9095917090930001119A00C000C07A
:103F5000119800C09091020184FD9095917090930A
:103F60000001119A00C000C0119800C09091020198
:103F700083FD9095917090930001119A00C000C04C
:103F8000119800C09091020182FD909591709093DC
:103F90000001119A00C000C0119800C09091020168
:103FA00081FD9095917090930001119A00C000C01E
:103FB000119800C080910201817080930001119AD4
:103FC00000C000C0089590E080E00895CF93DF9393
:103FD000DB01F9019C919130C1F0943080F0945054
:103FE0009C938830D1F480819181009771F0019782
:103FF00091838083480F591FEA01188206C08C35CF
:1040000039F49C5F9C93943041F4DF91CF910895F3
:104010008B3339F781E08C93F8CF20813181B9015E
:104020006F5F7F4F71836083420F531FEA01888364
:10403000808191818F3591056CF7E7CF0F931F93A6
:1040400081E0009193141091941420919514309173
:10405000961440918F145091901460919114709126
:104060009214041715072607370708F480E01F91FC
:104070000F91089590E080E0089520917D138330A2
:1040800021F425FD0CC024FD0CC030E0A90102C0C4
:10409000559547958A95E2F7CA018170089581E0A8
:1040A000089580E008958091F60484FD0BC080910E
:1040B000F80487FD07C09091F904937081E019F42A
:1040C00080E0089581E008952FEB280F2A3108F051
:1040D00047C0E22FF0E08091F6049091F704A091A0
:1040E000F804B091F90404C0B695A7959795879503
:1040F0002A95D2F780FD02C081700895E452FB4FEB
:10410000E081EE2341F18091930790919407E80FAD
:10411000F92FF11D808190ED980F9A3030F08E329A
:1041200051F4818180538A3098F4F093D104E09364
:10413000D00481E008958D3211F08B3249F48181F1
:1041400090ED980F9A3088F38E3211F48281EACF85
:10415000F0E0E0E0EACF1092D1041092D004E9CF71
:1041600080E008958091E111813069F09091971479
:1041700092FB882780F992FF07C097FB882780F978
:1041800091E08927089581E0089580918806811142
:1041900001C0E8CF80E00895909118138091171323
:1041A000891718F0891B19F4F0CF805FFBCF81E0ED
:1041B00008958F929F92AF92BF92CF92DF92EF922B
:1041C000FF92CF936B017C0120E030E0A9010E94B7
:1041D00079FB87FDC3C06DEB77E386E095E3A7012C
:1041E00096010F940B006B017C0120E030E0A901E7
:1041F0000E9479FB87FF04C0F7FAF094F7F8F09477
:1042000042E050E0C701B6010E945FAB6B017C0148
:1042100060E280E4C81682E4D8068FE0E806F10484
:104220008CF0C701B60120E432E44FE050E00E9478
:1042300075FFCA01B9012AE030E040E050E00E9479
:1042400075FF605D6093970560E280EAC81686E8B6
:10425000D80681E0E806F1048CF0C701B60120EA37
:1042600036E841E050E00E9475FFCA01B9012AE03A
:1042700030E040E050E00E9475FF605D609398057B
:1042800060E280E1C81687E2D806E104F1048CF010
:10429000C701B60120E137E240E050E00E9475FF1F
:1042A000CA01B9012AE030E040E050E00E9475FF09
:1042B000605D6093990560E288EEC81683E0D806D9
:1042C000E104F1048CF0C701B60128EE33E040E0D0
:1042D00050E00E9475FFCA01B9012AE030E040E0D9
:1042E00050E00E9475FF605D60939A05C701B601BA
:1042F00024E630E040E050E00E9475FF8AE0882E1E
:10430000912CA12CB12CCA01B901A50194010E94E4
:1043100075FF605D60939B058EE280939C05C701ED
:10432000B601A50194010E9475FFC62FCA01B9010B
:10433000A50194010E9475FF605D60939D05C05DBD
:10434000C0939E0587E995E0CF91FF90EF90DF90B5
:10435000CF90BF90AF909F908F9008956DEB77E3D3
:1043600086E095EB3CCF0E947FFB20E030E048ECFC
:1043700052E40F94E7002FE632E143E85AE30F944A
:104380000B0017CF8F929F92AF92BF92CF92DF9286
:10439000EF92FF92CF936B017C0120E030E0A90106
:1043A0000E9479FB87FD6AC06DEB77E386E095E3B9
:1043B000A70196010F940B0043E050E00E945FAB11
:1043C0006B017C01C114D104E104F10409F45BC068
:1043D000F7FE59C0F094E094D094C094C11CD11C55
:1043E000E11CF11C8DE280939905C701B60128EE0E
:1043F00033E040E050E00E9475FF8AE0882E912C67
:10440000A12CB12CCA01B901A50194010E9475FF2C
:10441000605D60939A058EE280939B05C701B601AB
:1044200024E630E040E050E00E9475FFCA01B90187
:10443000A50194010E9475FF605D60939C05C70112
:10444000B601A50194010E9475FFC62FCA01B901EA
:10445000A50194010E9475FF605D60939D05C05D9C
:10446000C0939E0589E995E0CF91FF90EF90DF9092
:10447000CF90BF90AF909F908F9008956DEB77E3B2
:1044800086E095EB95CF80E2AECF0E947FFB20E0E7
:1044900030E04AE754E40F94E70027E137EB41EDC1
:1044A00058E30F940B006ECFCB010C94BFA984E0AE
:1044B0000C94F9DF83E00C94F9DF82E00C94F9DFCF
:1044C00070E090E080E00E947FFB29EC38EC48EC43
:1044D0005EE30F94E70020E030E040E05FE30F94FC
:1044E0000B000F945401862F0C94F3A980E090E008
:1044F000A0E8B0E48093C70C9093C80CA093C90CBB
:10450000B093CA0C82ED92E00E94D6A480919105EE
:10451000843014F010929105E0919105E23009F495
:1045200074C0DCF4E7FF2CC08AEB92E00E94D6A4B2
:104530001092C70C1092C80C1092C90C1092CA0CA1
:1045400082ED92E00E94D6A4809191058F5F843025
:104550000CF070C0809391050895E33029F780E056
:1045600090E0A0EEB2E48093BF0C9093C00CA093B7
:10457000C10CB093C20C80E090E0A4EAB2E43CC06D
:104580001092BF0C1092C00C1092C10C1092C20C71
:104590001092C30C1092C40C1092C50C1092C60C51
:1045A000EE0FFF0BEA54FD4F80819181833091051E
:1045B00099F084309105E1F0029709F0B5CF80E0E1
:1045C00090E0A1E6B3E48093BF0C9093C00CA0935D
:1045D000C10CB093C20CA8CF80E090E0A1E6B3E498
:1045E0008093BF0C9093C00CA093C10CB093C20CED
:1045F00080E090E0A5E2B3E48093C30C9093C40CF8
:10460000A093C50CB093C60C8FCF80E090E0A1EED4
:10461000B2E48093BF0C9093C00CA093C10CB093F4
:10462000C20C1092C30C1092C40C1092C50C1092C4
:10463000C60C7ACF109291050895CF93DF9300D0E6
:104640001F92CDB7DEB70E947DFB69837A838B838F
:104650009C83CE0101960E94ADAB0F900F900F90FE
:104660000F90DF91CF9108950E947DFB2AE037EDF6
:1046700043E25DE30F94E7000F945401DECFCF9245
:10468000DF92EF92FF92CF93DF9300D01F92CDB7CE
:10469000DEB76B017C0120E030E0A9010E9479FBCC
:1046A00087FD1BC06DEB77E386E095E3A7019601DC
:1046B0000F940B0069837A838B839C83CE010196D0
:1046C0000E94ADAB0F900F900F900F90DF91CF91A4
:1046D000FF90EF90DF90CF9008956DEB77E386E049
:1046E00095EBE4CF0E947FFB2AE037ED43E25DE3E8
:1046F0000F94E700C4CF0E947FFBC1CFCF92DF921F
:10470000EF92FF926B017C0120E030E0A9010E9452
:1047100079FB87FD26C06DEB77E386E095E3A70183
:1047200096010F940B006B017C0120E030E0A901A1
:104730000E9479FB20E030E040E05FE387FF04C0A7
:1047400020E030E040E05FEBC701B6010F940B00C2
:104750000F944F01CB01FF90EF90DF90CF900C941E
:1047600040A96DEB77E386E095EBD9CF0E947FFB04
:10477000C5CFCF92DF92EF92FF92CF93DF9300D01D
:104780001F92CDB7DEB70E947FFB20E030E048ECFF
:1047900052E40F94E7002FE632E143E85AE30F9426
:1047A0000B006B017C0120E030E0A9010E9479FB45
:1047B0002DEB37E346E055E387FF04C02DEB37E3ED
:1047C00046E055EBC701B6010F940B0069837A836D
:1047D0008B839C83CE0101960E94D0AC0F900F90EA
:1047E0000F900F90DF91CF91FF90EF90DF90CF90DF
:1047F00008950C94AE980C94AE980C9460980C9418
:1048000060980C9460980C94609863E972E084E678
:1048100090E00E949DB570E060E08AE090E00E9428
:104820009DB56AEB72E084E690E00C949DB50E9421
:10483000AAA7EBCF8111E9CF68E270E080E991E0AF
:104840000C949DB50E94AB95F5CF0E9428C0F2CF85
:10485000CF92DF92EF92FF920F931F930E94CDE2CF
:1048600000910C0510910D0520910E0530910F055A
:104870006B017C01C01AD10AE20AF30A9701860192
:1048800037FD11C020910B05209520930B056A542C
:104890007C4F8F4F9F4F60930C0570930D05809355
:1048A0000E0590930F0581E090910B05911101C0C9
:1048B00080E01F910F91FF90EF90DF90CF900895CF
:1048C000BF92CF92DF92EF92FF920F931F93CF93FD
:1048D000DF936B01E9014A3009F4DFC0453109F08B
:1048E0008AC0DB011296ED91FC911281C681D781BD
:1048F00080910201809582708093000100C00000C9
:1049000086E290E00197F0F7012F0295007F20E109
:10491000B22EB10E88EFF8DA00C0000086E290E017
:104920000197F0F7103208F0A5C0812F80778068DA
:10493000EBDA802FE9DA00C0000086E290E0019710
:10494000F0F780E8E1DA80E0DFDA00C0000086E21C
:1049500090E00197F0F78AEFD7DA00C0000086E216
:1049600090E00197F0F77E01B0E1EB0EF11C888139
:10497000807FCADA89918295807FC6DACE15DF05FD
:10498000B1F700C0000086E290E00197F0F71F5FEA
:10499000005F1B11BFCF80910201827080930001E4
:1049A000D6011296ED91FC9180819281980F9283AD
:1049B0002181921708F0EDC194819F5F94839381C8
:1049C000890F821710F08FEF820F8383458150E0AB
:1049D000440F551F70E060E0868197810F941D049D
:1049E00081E0DF91CF911F910F91FF90EF90DF90C9
:1049F000CF90BF900895FB0102811381423309F4E7
:104A0000CAC108F4D2C1463409F4BFC1473409F41D
:104A1000C7C14B3329F789812B81D80112966C913C
:104A2000129713964C91213009F404C2233009F0F7
:104A3000E5C138EF380F582F91E0431708F490E0A4
:104A400041E0531708F040E031E0561708F430E039
:104A5000592F542B352319F4942309F4C1CFFA802C
:104A600030E0F901EE55FD4FD08022563D4FF9015F
:104A7000E080DDC180EE810F8068807F45DA812F84
:104A80008295807F41DA00C0000086E290E00197C5
:104A9000F0F780E839DA80E857CF80910101826031
:104AA00080930101809102018270809300018091C6
:104AB00001018160809301018091020181708093E6
:104AC0000001099A119A8091020180958270809369
:104AD000000100C0000086E290E00197F0F788E74F
:104AE00090E0CEE9DFE0FE013197F1F70197D9F7C9
:104AF00088EF0ADA00C0000086E290E00197F0F744
:104B000080E202DA80E000DA00C0000086E290E095
:104B10000197F0F780E0F8D980E8F6D900C00000EE
:104B200086E290E00197F0F780E0EED980E1ECD9E1
:104B300000C0000086E290E00197F0F7CE010197F7
:104B4000F1F7CE010197F1F7CE010197F1F7CE0110
:104B50000197F1F7CE010197F1F7CE010197F1F737
:104B6000CE010197F1F7CE010197F1F7CE01019740
:104B7000F1F7CE010197F1F7CE010197F1F7CE01E0
:104B80000197F1F7CE010197F1F7CE010197F1F707
:104B90002197F1F780E2B8D980E4B6D900C00000CF
:104BA00086E290E00197F0F780E2AED980E6ACD9DA
:104BB00000C0000086E290E00197F0F7D0E0C0E08E
:104BC0008C2F80778068A0D98D2F9ED900C00000DF
:104BD00086E290E00197F0F780E896D980E094D9DA
:104BE00000C0000086E290E00197F0F78AEF8CD9D0
:104BF00000C0000086E290E00197F0F790E2119883
:104C000000C080910201817080930001119A00C060
:104C100000C0119800C08091020181708093000152
:104C2000119A00C000C0119800C0809102018170EB
:104C300080930001119A00C000C0119800C08091BB
:104C40000201817080930001119A00C000C0119888
:104C500000C080910201817080930001119A00C010
:104C600000C0119800C08091020181708093000102
:104C7000119A00C000C0119800C08091020181709B
:104C800080930001119A00C000C0119800C080916B
:104C90000201817080930001119A00C000C0119838
:104CA00000C080910201817080930001119A00C0C0
:104CB00000C0119800C080910201817080930001B2
:104CC000119A00C000C0119800C08091020181704B
:104CD00080930001119A00C000C0119800C080911B
:104CE0000201817080930001119A00C000C01198E8
:104CF00000C080910201817080930001119A00C070
:104D000000C0119800C08091020181708093000161
:104D1000119A00C000C0119800C0809102018170FA
:104D200080930001119A00C000C0119800C08091CA
:104D30000201817080930001119A00C000C000C080
:104D40000000E6E2F0E03197F0F7915009F057CF1C
:104D500088EFDAD800C0000086E290E00197F0F713
:104D6000CF5FD05FC03209F02BCF80E0CDD880EC90
:104D7000CBD800C0000086E290E00197F0F7809168
:104D800002018270809300012BCEF8018581888317
:104D900027CE80E026CEB901C8010E9449E620CE88
:104DA000D80111968C9188831BCE443191F0473104
:104DB00009F016CE1882D80112968C911297898329
:104DC00015968C91159781508A8313968C918B83BD
:104DD00007CED80115964C91159750E0440F551FFA
:104DE00070E060E016968D919C910F941D04F8017F
:104DF00012828081815083831482F2CD481708F497
:104E0000EFCD861708F4ECCDFA80E12CD12C2430BC
:104E100070F426CEBE01C8010E9449E689819881BE
:104E20009D0D98838E0D8983FF0C09F4D9CDF7FE73
:104E3000F6CFF0CF58E0580F382FFECDEF92FF920B
:104E40000F931F93CF93DF93EC018B017A018A8537
:104E50009B858617970731F0888199810E947EE8AB
:104E60001B870A87B701888199810E9405DE2E8100
:104E70003F81820F932F911D9F838E8390E080E06E
:104E8000DF91CF911F910F91FF90EF9008959F9226
:104E9000AF92BF92CF92DF92EF92FF920F931F9348
:104EA000CF93DF93EC018B01942EA52E8A859B85F1
:104EB0008617970731F0888199810E947EE81B87C9
:104EC0000A8788859985019649F5BC800A818E817B
:104ED000080FC880D980D6015596ED91FC91C60186
:104EE0001995B80EE92CFA2C10E0F70121917F01F9
:104EF000211127C08E819F81810F911D9F838E83F9
:104F000090E080E0DF91CF911F910F91FF90EF90A3
:104F1000DF90CF90BF90AF909F9008950E811F813A
:104F2000692D7A2D888199810E9405DE800F912F4D
:104F3000911D288539852817390738F681E090E0DA
:104F4000E1CF4B2D602FC6010E94D6E8080F180F45
:104F5000CCCFDF92EF92FF920F931F93CF93DF930B
:104F6000EC01D62E1CAD0BAD7C0184E0E80EF11CEB
:104F7000E98DFA8DC7011995412F480F2D2D602F0E
:104F8000C7010E94D6E89BAD890F8BAF81E090E00E
:104F9000DF91CF911F910F91FF90EF90DF900895D7
:104FA000CF93DF93C0912105D0912205209709F47A
:104FB0003FC04CE050E060E270E083E195E00F9488
:104FC0001D04E4E6F0E0CE01BF010E94BDFF462FC4
:104FD0009B01332760E2443628F0C901BF010E94DB
:104FE000D1FF605D60939C0580E24A3058F0EAE0B2
:104FF000F0E0C901BF010E94D1FFCB01BF010E94B7
:10500000D1FF805D80939D05C9016AE070E00E9438
:10501000D1FF805D80939E0583E0ECE9F5E0A7E198
:10502000B5E001900D928A95E1F785E280931A052B
:10503000DF91CF9108952F923F924F925F926F929E
:105040007F928F929F92AF92BF92CF92DF92EF9218
:10505000FF920F931F93CF93DF93CDB7DEB72D97BA
:105060000FB6F894DEBF0FBECDBF8C01F62E45E023
:1050700050E060E270E085E195E00F941D04F0924D
:1050800013058AE380931405F80180809180A28043
:10509000B380C501B40120E13EE040E050E00E9451
:1050A00053FFD22EC32E022F132F8CE3282E312C28
:1050B000412C512CC501B401A20191010E9453FF62
:1050C000762E672ECA01B901A20191010E9453FFF9
:1050D0009E012F5F3F4F790130E8831631E593063B
:1050E00031E0A306B10408F447C07F936F93C80171
:1050F00068E170E00E94BDFF9F938F93C501B401EA
:1051000020E831E541E050E00E9453FF3F932F93A8
:1051100085E99EE09F938F93FF92EF920E9412FB8E
:10512000C7010E94C8FA0FB6F894DEBF0FBECDBF0C
:105130002CE030E0A901481B5109CA01B7018D5E7E
:105140009A4F0F9442042D960FB6F894DEBF0FBE0F
:10515000CDBFDF91CF911F910F91FF90EF90DF9026
:10516000CF90BF90AF909F908F907F906F905F9007
:105170004F903F902F9008950115110599F46F926B
:105180007F927F936F9389E89EE09F938F93FF9226
:10519000EF920E9412FB0FB6F894DEBF0FBECDBF98
:1051A00085E0C6CF0436110538F47F936F93CF9214
:1051B000DF928DE79EE0E9CF7F936F93CF92DF92EE
:1051C00083E79EE09F938F93FF92EF920E9412FBE2
:1051D0000FB6F894DEBF0FBECDBF86E0A9CFCF9348
:1051E000DF9300D01F92CDB7DEB70E94B220882394
:1051F00051F00E94A7A869837A838B839C8365E41E
:10520000CE01019618DF0F900F900F900F90DF9155
:10521000CF910895CF93DF9300D01F92CDB7DEB723
:105220000E94C5208823A1F0809107059091080570
:10523000A0910905B0910A050097A105B10541F0BB
:1052400089839A83AB83BC8363E4CE010196F3DE4A
:105250000F900F900F900F90DF91CF910895CF9303
:1052600080910005811154C010927A1310927B1323
:1052700010927C13109248131092471310924A1305
:105280001092491310924C1381E080934B1382E2E9
:1052900080934D131092521310925113E6E6F3E1EE
:1052A00024E733E18FEF81932E173F07E1F7C1E049
:1052B000C093631325E031EC3093591320935813B6
:1052C000C0935A1310925B1310925C1390E4909366
:1052D0005D1310925E1324E031EC3093751320932C
:1052E000741323E132E0309346132093451397E182
:1052F00090936A1391E190936B1390E190936813EC
:1053000080936713809366130E9487E6C09300051D
:1053100081E08093020589E69EE090936B12809372
:105320006A1210926D1210926C12CF910895CF9262
:10533000DF92EF92FF920F931F93CF93DF93CDB73E
:10534000DEB72C970FB6F894DEBF0FBECDBFF0903E
:105350007A13E0907B132091020521111DC049E2D0
:105360005EE06E2D8F2D0E9441E990E080E0F80E06
:10537000F0927A13E0927B1399272C960FB6F8944B
:10538000DEBF0FBECDBFDF91CF911F910F91FF9078
:10539000EF90DF90CF900895C0904713D0904813BE
:1053A00023E433E13A8329832F2D30E03C832B83A0
:1053B0002E2D30E03E832D8318861F827A876987E1
:1053C0001C861B8607E417E29E012F5F3F4F40E4D7
:1053D00059E8BC01C6010E9418D4B60183E493E1E8
:1053E0000E947EE88F819885C2CFEF92FF920F9343
:1053F0001F93CF93DF9300D000D000D01F921F9255
:10540000CDB7DEB77C0120916607422F022E000C3B
:10541000550B80916707833099F1843051F18EEFFD
:1054200091E15F932F939F938F938E010F5F1F4F97
:105430001F930F930E9412FBC7010E94CCB64FE34B
:1054400050E0B80189E197E00F946F040F900F903E
:105450000F900F900F900F902B960FB6F894DEBF21
:105460000FBECDBFDF91CF911F910F91FF90EF90B5
:1054700008958AE092E127FDD4CF85EF91E1D1CF65
:1054800083E192E1CECF8091F0129091F112ADCFF5
:10549000E091880784E0E802F0011124E253FA4F1A
:1054A00080819181A2CF8091D0049091D104009706
:1054B00031F04AE050E070E060E00C949AF960E06E
:1054C00070E0CB0108958091D0049091D1040097B1
:1054D00031F04AE050E070E060E00C946FF860E07A
:1054E00070E0CB010895EFDFCB010895ECDF97FD6D
:1054F0000AC0E9DF6F3F71058105910509F02CF4C1
:10550000E2DF862F089580E008958FEF089580915F
:10551000D0049091D104892B39F0E8DF91E081111A
:1055200001C090E0892F089591E0FCCFCF93DF93E5
:10553000CDB7DEB720E2488559856F818E810E9404
:1055400026DDDF91CF910895282F10928407809156
:105550006F0790917007A0917107B0917207B7FF24
:1055600008C010926F071092700710927107109286
:10557000720780919505882331F080916F078093A1
:10558000640710927F07809162071816FCF4082EBA
:10559000000C990B821B910920916407022E000CCC
:1055A000330B2817390794F097FF02C090E080E092
:1055B00080936407092E000CAA0BBB0B80936F0726
:1055C00090937007A0937107B0937207809164075E
:1055D0006623A9F090916507891714F480936507F5
:1055E00020916507022E000C330B2C5F3F4F482F94
:1055F000082E000C550B241735071CF4845080939B
:10560000650708950F931F93522F20913D133091FA
:105610003E132817390781F11092960520918B05CA
:1056200030918C0537FF04C010928C0510928B05C9
:1056300090933E1380933D138B0130E020E0009364
:105640006F07109370072093710730937207409390
:105650006507509362078357904521F410928F0796
:1056600010928D0582E080935F0281E080937F0736
:1056700010929205109290051F910F910895CF936B
:10568000C1E0C0938F07FC0180819181A281B38129
:105690008093250290932602A0932702B0932802BC
:1056A00020E040E070E060E0809160079091610749
:1056B000A9DFC0939605CF91089581E080938F076D
:1056C000809108078770873051F010920807109278
:1056D000A0058EE591E2909318078093170720E0CC
:1056E00040E070E060E08BE49AE38CCF20E040E0A3
:1056F00070E060E083E790E585CF81E591E10E946D
:1057000069EAF4DF0C947ED46111609361024093E6
:105710009107EFEFE80FEA3008F034C00E2E000CCE
:10572000FF0B8827E956F44D8F4F0C94E4FFC32BF1
:10573000C62BAB2BAE2BA12BB12BBD2BB42BB72B78
:10574000BA2B86EB9BE321E020938F0720E040E01B
:1057500070E060E057CF8CEB9BE3F5CF8FEB9BE3E2
:10576000F2CF82EC9BE3EFCF85EC9BE3ECCF88ECB0
:105770009BE3E9CF8BEC9BE3E6CF1092900787EA9F
:1057800099E3E1CFB3CF83EB9BE3DDCF89EB9BE3E1
:10579000DACFCF930E94AAA70E94AB95C82F882387
:1057A00019F080E00E9439958C2F44D8CF919ECF7C
:1057B00086EC90E1909318078093170797CF0F938B
:1057C0001F93CF93DF93CDB7DEB76E970FB6F894E4
:1057D000DEBF0FBECDBF80918807282F082E000C9A
:1057E000330BF901EE0FFF1FE55EFD4F91819F9393
:1057F00090819F933F938F938AEE9FE09F938F9327
:105800008E010F5F1F4F1F930F930E9412FB4FE3F8
:1058100050E0B80189E197E00F946F0467DF0FB69D
:10582000F894DEBF0FBECDBF6E960FB6F894DEBF04
:105830000FBECDBFDF91CF911F910F910895CF93F0
:10584000DF93C0918D05CC23B1F0C150C0938D057D
:1058500089E0C89FE0011124CB5ADA4F6A817B812D
:105860002F814E8188819981CDDE888580938F0735
:10587000DF91CF910895DF91CF9138CF2F923F9252
:105880004F925F926F927F928F929F92AF92BF9250
:10589000CF92DF92EF92FF920F931F93CF93DF93FC
:1058A00000D000D01F921F92CDB7DEB70E94CC204F
:1058B000282E61E081E048DE50906507352C25E018
:1058C000250D298381E085198C83352D31953D8304
:1058D00032E2632E34E2732E03EB11E184E085198A
:1058E0008E8347E1E42E44E2F42E56E9C52E51E1C1
:1058F000D52E65E2A62E64E2B62E75EA872E71E1FA
:10590000972E5110E0C080916407882309F4B5C038
:1059100080915F02882359F081E090916407911192
:1059200080E024E045EE51E16D810E9426DD2CE30C
:1059300039E338872F8322E0422E3EEF350D3A833C
:10594000852D83198B83541023C0EF81F8858591B1
:1059500094912A812093880790938C0780938B07DA
:1059600010928A071092890780916407851509F4BF
:10597000D0C080915F02882359F081E09091640744
:10598000941180E023E042EC51E16B810E9426DD1E
:10599000842D2F8138852E5F3F4F38872F8393E0EA
:1059A000492E833081F634E053121DC08091640784
:1059B000843009F4BFC080915F028823A1F07F92F8
:1059C0006F921F930F938E818F9381E09091640764
:1059D000943009F080E08F93A9DD0F900F900F9025
:1059E0000F900F900F9085E0211040C085111DC0D1
:1059F00080916407853009F4ACC080915F028823F0
:105A0000A1F0BF92AF929F928F92852D83198F93B1
:105A100081E090916407951180E08F9387DD0F906E
:105A20000F900F900F900F900F9096E059121DC09D
:105A300080916407863009F49BC080915F028823BF
:105A4000A1F0FF92EF92DF92CF92852D83198F9371
:105A500081E090916407951180E08F9367DD0F904E
:105A60000F900F900F900F900F9087E05394298123
:105A7000521247CF809362070DC080916307109246
:105A80006307882309F444CFDADE80917F078823F7
:105A900009F43ECF28960FB6F894DEBF0FBECDBFF7
:105AA000DF91CF911F910F91FF90EF90DF90CF90FA
:105AB000BF90AF909F908F907F906F905F904F902E
:105AC0003F902F90089581E0581231CF8091640764
:105AD000813081F080915F02882309F428CF81E032
