:100000000C94161B0C94561B0C94561B0C94561BEC
:100010000C94561B0C94561B0C94561B0C94561B9C
:100020000C94561B0C94561B0C94561B0C94561B8C
:100030000C94561B0C94561B0C94561B0C94561B7C
:100040000C94561B0C94CAA70C94561B0C94561B6C
:100050000C94561B0C949DA40C94561B0C94B6F057
:100060000C94561B0C9430720C94FA710C94561B21
:100070000C94561B0C94561B0C94561B0C94561B3C
:100080000C94561B0C94561B0C94561B0C94561B2C
:100090000C94561B0C94561B0C94561B0C94561B1C
:1000A0000C94561B0C94561B0C94561B0C94561B0C
:1000B0000C94561B0C94561B0C94561B0C94561BFC
:1000C0000C94561B0C94561B0C94561B0C94561BEC
:1000D0000C94561B0C94561B0C94561B0C94561BDC
:1000E0000C94561B084AD73B3BCE016E84BCBFFD27
:1000F000C12F3D6C74319ABD56833DDA3D00C77FF8
:1001000011BED9E4BB4C3E916BAAAABE0000008090
:100110003F05A84CCDB2D44EB93836A9020C50B91F
:10012000918688083CA6AAAA2ABE000000803F0744
:10013000634236B79BD8A71A39685618AEBAAB5582
:100140008C1D3CB7CC5763BD6DEDFD753EF6177247
:1001500031BF000000803F08000000BE9224491219
:100160003EABAAAA2ABECDCCCC4C3E00000080BE3D
:10017000ABAAAAAA3E00000000BF000000803F001A
:1001800000000000084178D3BB4387D1133D190E0E
:100190003CC3BD4282AD2B3E68EC8276BED98FE176
:1001A000A93E4C80EFFFBE01C4FF7F3F000000006E
:1001B00000000D9428130D940D0C4E414E494E49EC
:1001C0005459494E46CDCCCC3D0AD7233C17B7D124
:1001D0003877CC2B329595E6241FB14F0A000020CA
:1001E000410000C84200401C4620BCBE4CCA1B0E49
:1001F0005AAEC59D74434F4D4D554E4943415449E8
:100200004F4E0044525952554E004552524F525390
:1002100000494E464F004543484F00506C6561739E
:1002200065205265736574005052494E5445522002
:1002300048414C5445440025533A20255300706FE3
:100240007765726F6666004B494C4C45442E200022
:100250005072696E7465722068616C7465642E20DA
:100260006B696C6C28292063616C6C6564210A00E1
:100270006563686F3A004572726F723A004F464686
:10028000004F4E000A4D6561737572656420706F92
:10029000696E74733A0A00337833206D6573682E83
:1002A000205A206F66667365743A20005072696E3A
:1002B00074696E67204F626A656374002553202558
:1002C00069002F2F616374696F6E3A0073746172F5
:1002D00074006E6F74696669636174696F6E200083
:1002E00070726F6D70745F00627574746F6E004F22
:1002F00046460A004661646520486569676874205F
:1003000000426564204C6576656C696E6720004626
:1003100061696C656420746F20656E61626C652034
:10032000426564204C6576656C696E670A004D65B0
:10033000736820426564204C6576656C2064617446
:10034000613A0A00496E76616C6964206D65736874
:100350002E0A00206E6F7420656E74657265642EBF
:100360000A0050726F62696E6720506F696E740088
:1003700025532025692F256900206F6620004D42F6
:100380004C2047323920706F696E742000290A00B2
:100390004A206F7574206F662072616E6765202831
:1003A000302D00290A0049206F7574206F66207275
:1003B000616E67652028302D004D6573682070726E
:1003C0006F62696E6720646F6E65004D65736820AB
:1003D00070726F62696E6720646F6E652E0A0053DB
:1003E00074617274206D6573682070726F62696EDB
:1003F00067207769746820224732392053312220E0
:1004000066697273742E0A0047323953320068618C
:1004100073206E6F20646174612E0A004D657368ED
:1004200020426564204C6576656C696E67200053D8
:10043000206F7574206F662072616E6765202830AA
:100440002D35292E0A0020440020204D3230302046
:100450005300202844697361626C6564293A004640
:10046000696C616D656E742073657474696E677311
:100470000020204D3230312058004D6178204163FA
:1004800063656C65726174696F6E2028756E69743E
:10049000732F7332290020204D3230332058004D05
:1004A0006178206665656472617465732028756E75
:1004B0006974732F73290020520020204D3230348C
:1004C000205000416363656C65726174696F6E20D2
:1004D00028756E6974732F7332292028503C70720E
:1004E000696E742D616363656C3E20523C72657465
:1004F000726163742D616363656C3E20543C747259
:100500006176656C2D616363656C3E290020540043
:1005100020530020204D3230352042004164766166
:100520006E6365642028423C6D696E5F7365676D1C
:10053000656E745F74696D655F75733E20533C6DC5
:10054000696E5F66656564726174653E20543C6DDA
:10055000696E5F74726176656C5F66656564726111
:1005600074653E20583C6D61785F6A65726B3E2011
:10057000593C6D61785F6A65726B3E205A3C6D61D3
:10058000785F6A65726B3E20453C6D61785F6A6595
:10059000726B3E290020440020490020204D33305A
:1005A00031205000486F74656E642050494400202B
:1005B000440020490020204D333034205000426553
:1005C00064205049440020204D39303720580053D2
:1005D000746570706572206D6F746F7220637572D0
:1005E00072656E7473003B200020496E76616C6901
:1005F000642065787472756465722000536C65655B
:10060000702E2E2E004D65736820706F696E7420F9
:100610006F7574206F662072616E67650A0062658F
:1006200067696E00436F6E74696E7565004D3020AA
:1006300053746F70004D312053746F7000436C69B8
:10064000636B20746F20526573756D652E2E2E00BE
:100650004E6F204D6F76652E00456E642066696C86
:1006600065206C6973740A00426567696E2066696B
:100670006C65206C6973740A004E6F206D65646947
:10068000610A00526573756D696E6720534400708E
:100690006175736500526573756D650050617573A2
:1006A0006520534400286E6F2066696C65290043FD
:1006B000757272656E742066696C653A20005377B6
:1006C00069746368696E6720746F2042696E617235
:1006D000792050726F746F636F6C0A0043616E6EA5
:1006E0006F74206F70656E2073756264697220008C
:1006F0002569730025696D202569730025696820C7
:1007000025696D20256973002569642025696820A5
:1007100025696D2025697300256979202569642084
:100720002569682025696D20256973005072696EFE
:10073000742074696D653A20006F6B006F66660007
:10074000160211020A020302F50144454255473AD6
:10075000004D313133205300556C74696D616B6508
:1007600072204F726967696E616C2B204F46462E6E
:1007700000434F4E4649475F4558504F5254004D35
:100780004541545041434B00434F4F4C45525F54F9
:10079000454D5045524154555245004348414D4204
:1007A00045525F54454D50455241545552450042C3
:1007B0004142595354455050494E470041524353CA
:1007C000004D4F54494F4E5F4D4F444553005448E0
:1007D00045524D414C5F50524F54454354494F4E42
:1007E00000455854454E4445445F4D323000435512
:1007F00053544F4D5F4649524D574152455F5550F6
:100800004C4F4144004C464E5F5752495445004CB2
:100810004F4E475F46494C454E414D45004155546A
:100820004F5245504F52545F53445F5354415455B7
:10083000530053445F575249544500524550454177
:1008400054004D554C54495F564F4C554D4500533F
:1008500044434152440050524F4D50545F53555001
:10086000504F525400484F53545F414354494F4EE8
:100870005F434F4D4D414E445300454D4552474512
:100880004E43595F50415253455200434153455FD7
:100890004C494748545F4252494748544E45535388
:1008A00000544F47474C455F4C4947485453005309
:1008B0004F4654574152455F504F5745520042559D
:1008C000494C445F50455243454E54004C455645B3
:1008D0004C494E475F44415441005A5F50524F4289
:1008E000450052554E4F5554004155544F4C4556B6
:1008F000454C005052494E545F4A4F420050524FAF
:100900004752455353004155544F5245504F52544E
:100910005F54454D50004155544F5245504F52542D
:100920005F504F5300564F4C554D4554524943006C
:10093000454550524F4D0042494E4152595F46493C
:100940004C455F5452414E5346455200534552491F
:10095000414C5F584F4E5F584F4646004649524DF6
:10096000574152455F4E414D453A4D61726C696E3B
:1009700020322E312E322E3720284D61792032330D
:1009800020323032362031373A33313A303629206E
:10099000534F555243455F434F44455F55524C3A80
:1009A0006769746875622E636F6D2F556C74696D1D
:1009B000616B65722F4D61726C696E2050524F549D
:1009C0004F434F4C5F56455253494F4E3A312E30AC
:1009D000204D414348494E455F545950453A556C66
:1009E00074696D616B6572204F726967696E616CC5
:1009F0002B2045585452554445525F434F554E5451
:100A00003A3120555549443A63656465326132662E
:100A10002D343161322D343734382D396231322D55
:100A2000633535633632663336376666002F2F00FE
:100A30004D31343520533C696E6465783E206F75C6
:100A400074206F662072616E67652028302D312911
:100A50000A005741524E494E4721204C6F77205A89
:100A6000204A65726B206D6179206C656164207429
:100A70006F20756E77616E74656420706175736543
:100A8000732E0A0020580020204D61783A20002063
:100A90000020204D696E3A2000203B200020204D90
:100AA000323131205300536F667420656E64737465
:100AB0006F707300250A0046523A0020466C6F772B
:100AC0003A20004D424C2041646A757374205A00EC
:100AD00064697300656E0043290A0061626C656495
:100AE00020286D696E2074656D702000436F6C6402
:100AF0002065787472756465732061726520004D9D
:100B000065736820706F696E74206F7574206F66EE
:100B10002072616E67650A004D34323120696E6360
:100B20006F727265637420706172616D6574657255
:100B30002075736167650A00454550524F4D204F3F
:100B40004B0A003F28422961756420726174652058
:100B5000696D706C61757369626C652E0A00206244
:100B600061756420726174652073657420746F20F0
:100B7000002053657269616C20004F46460A0043AD
:100B8000617365206C696768743A20004D383400E1
:100B9000446F6E65207072696E74696E6720666955
:100BA0006C650A004D3737004D333100496E766170
:100BB0006C69642065787472756465720A0020201F
:100BC0004D323036205800486F6D65206F66667371
:100BD000657400486F6D65202573204669727374D3
:100BE000004F666673657473204170706C6965644C
:100BF000004D494E2F4D415820546F6F2046617271
:100C000000546F6F206661722066726F6D204D49CF
:100C10004E2F4D41580A004361703A0047322F472A
:100C2000332062616420706172616D6574657273F6
:100C30000A0020573A00436F6F6C696E672E2E2EA4
:100C40000045312025530020573A00426564204377
:100C50006F6F6C696E672E2E2E00426564204865AA
:100C60006174696E672E2E2E0023646566696E6559
:100C70002044454641554C545F004245445F004B7B
:100C80004420004B4920004B502000504944207420
:100C9000756E696E6720646F6E65002066696E69A7
:100CA00073686564212050757420746865206C61D8
:100CB0007374204B702C204B6920616E64204B6450
:100CC00020636F6E7374616E74732066726F6D2033
:100CD00062656C6F7720696E746F20436F6E666912
:100CE0006775726174696F6E2E680A0050494420FE
:100CF0004175746F74756E6500206661696C65641A
:100D0000212074696D656F75740A00504944204153
:100D100075746F74756E65004175746F74756E656A
:100D2000206661696C6564212054696D656F757416
:100D30002E00206661696C6564212054656D7065C4
:100D400072617475726520746F6F20686967680AD4
:100D500000504944204175746F74756E65005049A8
:100D600044204379636C65730025532025692F2542
:100D70006900204B643A2000204B693A2000204B48
:100D8000703A200020436C617373696320504944BA
:100D9000200A00204E6F206F76657273686F6F7443
:100DA0000A002054753A2000204B753A2000206D2F
:100DB00061783A2000206D696E3A200020643A2064
:100DC0000020626961733A200048656174696E674A
:100DD0002E2E2E002073746172740A005049442034
:100DE0004175746F74756E65004175746F74756EBE
:100DF00065206661696C6564212054656D7065725B
:100E0000617475726520746F6F20686967682E0061
:100E1000206661696C6564212054656D706572613E
:100E20007475726520746F6F20686967680A005076
:100E30004944204175746F74756E650050494420B3
:100E40004175746F74756E6500206661696C6564C8
:100E50002120426164206865617465722069640ABA
:100E600000504944204175746F74756E6500A1008F
:100E700000006900A20000006300B000000009004B
:100E8000C10000004100C20000004100C30000009A
:100E90004100C40000004100C50000004100C60040
:100EA00000004145C70000004300C80000004500A5
:100EB000C90000004500CD0000004900D10000003D
:100EC0004E00D50000004F00D60000004F00D700B4
:100ED00000007800DC0000005500DD000000590033
:100EE000E00000006100E10000006100E20000009D
:100EF0006100E30000006100E40000006100E50023
:100F000000006100E60000006165E700000063008A
:100F1000E80000006500E90000006500EA0000004C
:100F20006500EB0000006500EC0000006900ED00CA
:100F300000006900EE0000006900EF000000690099
:100F4000F10000006E00F20000006F00F3000000EE
:100F50006F00F40000006F00F50000006F00F60065
:100F600000006F00F80000006F00F900000075003D
:100F7000FA0000007500FB0000007500FC00000096
:100F80007500FD0000007900FF00000079000401F9
:100F9000000041000501000061000601000043005F
:100FA0000701000063000C01000043000D01000078
:100FB00063000E01000044000F01000064001101F5
:100FC000000064001901000065001A0100004500DE
:100FD0001B01000065001F010000670030010000D8
:100FE0004900310100006900410100004C0042014C
:100FF00000006C00430100004E00440100006E0040
:10100000480100006E005801000052005901000024
:1010100072005A01000053005B01000073005F0181
:1010200000007300600100005300610100007300C4
:101030006501000074006F01000075007C01000074
:101040007A007D0100005A007E0100007A009201C2
:1010500000006600E30200007800222000002E005D
:101060001E210000507822210000544D90210000E4
:101070003C2D922100002D3EB02100000300BB2139
:10108000000004003C2200007E00482200007E3D5B
:1010900060220000213D612200003D00642200002A
:1010A0003C3D652200003E3DF12300000700A030DA
:1010B00000003D0021F301000200C2F40100050020
:1010C000A2000000EC00B0000000DF00E40000001F
:1010D000E100F6000000EF00F7000000FD00FC005A
:1010E0000000F500E3020000EB0087030000A5000C
:1010F0008F030000F40098030000F2009E0300003C
:10110000E300A3030000F600A9030000F400AC0311
:101110000000E000AD030000E300B1030000E000C8
:10112000B2030000E200B5030000E300B8030000D2
:10113000F200BC030000E400BE030000E300C003B3
:101140000000F700C1030000E600C3030000E50053
:10115000902100007F00922100007E001A220000F2
:10116000E8001E220000F30088250000FF00023086
:101170000000A1000C300000A2000D300000A30010
:101180009B300000DE009C300000DF00A03000003B
:101190003D00A1300000A700A2300000B100A33044
:1011A0000000A800A4300000B200A5300000A90093
:1011B000A6300000B300A7300000AA00A83000004D
:1011C000B400A9300000AB00AA300000B500AB307D
:1011D0000000B600AC300000B6DEAD300000B70055
:1011E000AE300000B7DEAF300000B800B030000015
:1011F000B8DEB1300000B900B2300000B9DEB33063
:101200000000BA00B4300000BADEB5300000BB0008
:10121000B6300000BBDEB7300000BC00B8300000C4
:10122000BCDEB9300000BD00BA300000BDDEBB300E
:101230000000BE00BC300000BEDEBD300000BF00BC
:10124000BE300000BFDEBF300000C000C030000074
:10125000C0DEC1300000C100C2300000C1DEC330BA
:101260000000AF00C4300000C200C5300000C2DE84
:10127000C6300000C300C7300000C3DEC830000025
:10128000C400C9300000C4DECA300000C500CB3045
:101290000000C600CC300000C700CD300000C80000
:1012A000CE300000C900CF300000CA00D0300000AE
:1012B000CADED1300000CADFD2300000CB00D3300C
:1012C0000000CBDED4300000CBDFD5300000CC00F6
:1012D000D6300000CCDED7300000CCDFD8300000A4
:1012E000CD00D9300000CDDEDA300000CDDFDB30BC
:1012F0000000CE00DC300000CEDEDD300000CEDFAE
:10130000DE300000CF00DF300000D000E030000011
:10131000D100E1300000D200E2300000D300E33021
:101320000000AC00E4300000D400E5300000AD0067
:10133000E6300000D500E7300000AE00E8300000E5
:10134000D600E9300000D700EA300000D800EB30CA
:101350000000D900EC300000DA00ED300000DB00C6
:10136000EF300000DC00F2300000A600F330000097
:10137000DD00F4300000B3DEF7300000DCDEFA30D0
:101380000000A6DEFB300000A500FC300000B0002D
:10139000FD300000A400074E0000FB008651000055
:1013A000FC0043530000FA0064FF0000A40065FF46
:1013B0000000A50066FF0000A60067FF0000A70070
:1013C00068FF0000A80069FF0000A9006AFF000094
:1013D000AA006BFF0000AB006CFF0000AC006DFFCB
:1013E0000000AD006EFF0000AE006FFF0000AF0018
:1013F00070FF0000B00071FF0000B10072FF00003C
:10140000B20073FF0000B30074FF0000B40075FF6A
:101410000000B50076FF0000B60077FF0000B700BF
:1014200078FF0000B80079FF0000B9007AFF0000E3
:10143000BA007BFF0000BB007CFF0000BC007DFF0A
:101440000000BD007EFF0000BE007FFF0000BF0067
:1014500080FF0000C00081FF0000C10082FF00008B
:10146000C20083FF0000C30084FF0000C40085FFAA
:101470000000C50086FF0000C60087FF0000C7000F
:1014800088FF0000C80089FF0000C9008AFF000033
:10149000CA008BFF0000CB008CFF0000CC008DFF4A
:1014A0000000CD008EFF0000CE008FFF0000CF00B7
:1014B00090FF0000D00091FF0000D10092FF0000DB
:1014C000D20093FF0000D30094FF0000D40095FFEA
:1014D0000000D50096FF0000D60097FF0000D7005F
:1014E00098FF0000D80099FF0000D9009AFF000083
:1014F000DA009BFF0000DB009CFF0000DC009DFF8A
:101500000000DD009EFF0000DE009FFF0000DF0006
:10151000E5FF00005C000000000001020404000080
:10152000001C1C0C0404040201000000000004085C
:1015300010000000000003002D2D2D2D2D2D007C0E
:101540004D61726C696E7C0001002D2D2D2D2D2DAD
:10155000002500503A0020002000200020003A0022
:101560003A00001C1F11111F000000061918031378
:101570000C00040E1F041C000000000E1315110EB9
:1015800000001C10181705060500040A0A0A0A11B3
:10159000110E0C12120C00000000001F1511151F77
:1015A000000042656400456E636C6F737572650080
:1015B00045002000200020002000250020202020C1
:1015C00020202000200020202020004520256C64C1
:1015D00025636D2020202020202000200020002FC7
:1015E000006572720063616E63656C005072696EB3
:1015F000742041626F72746564004469736D69732D
:10160000730055492041626F72746564004D323534
:1016100000526573756D650055492050617573659D
:101620000050617573696E672E2E2E00726573759A
:101630006D65004D3234003F0049676E6F72650082
:10164000526573657400496E697469616C697A6585
:1016500020454550524F4D0045005A00585900460C
:10166000696C2E204469612E004520696E206D6DE5
:101670005E330020022046616374002002204D6129
:1016800078002002204D696E004F6666004F6E00A4
:101690004175746F74656D70004D696E2054726190
:1016A00076656C205370656564004D696E205665E3
:1016B0006C6F63697479004D6178204020537065C8
:1016C0006564004D6178204520416363656C004D81
:1016D0006178204020416363656C005472617665D7
:1016E0006C20416363656C005265747261637420A1
:1016F000416363656C00416363656C004D617820F4
:1017000040204A65726B00402073746570732F6DC2
:101710006D00416476616E6365642053657474691D
:101720006E6773003F0043616E63656C00496E69CC
:1017300074004D34323800496E697469616C697A9D
:101740006520454550524F4D0046696C616D656E90
:10175000740054656D7065726174757265004472D1
:1017600069766520537472656E677468005374659A
:1017700070732F6D6D004A65726B00416363656C19
:1017800065726174696F6E004D6178205370656594
:101790006420286D6D2F73290053657420486F6D88
:1017A00065204F66667365747300436F6E66696784
:1017B00075726174696F6E004C6576656C696E67F1
:1017C00020446F6E6521004D6F7665205A004732C8
:1017D000395332004E65787420506F696E7400255D
:1017E00069202F202575004732395331004732399F
:1017F000533200436C69636B20746F2042656769E4
:101800006E005A2056616C756500496E64657820DB
:101810005900496E64657820580053746F726520D2
:1018200053657474696E6773004C6F61642053650F
:101830007474696E677300426564205472616D6DE3
:10184000696E6700426564205A00466164652048FD
:101850006569676874004F6666004F6E0042656494
:10186000204C6576656C696E670045646974204D2F
:10187000657368004C6576656C20426564004D6F49
:1018800074696F6E003F004E65787420436F726E0E
:10189000657200446F6E65004E65787400486F6D28
:1018A000696E672058595A003F0043616E63656C4A
:1018B000204F626A656374004E4F005945530043E0
:1018C000616E63656C204F626A656374207B004DB6
:1018D00061696E00426564004E6F7A7A6C650046FD
:1018E000616E20537065656400436F6E666967754D
:1018F000726174696F6E00526573746F7265204413
:10190000656661756C7473004C6F61642053657417
:1019100074696E67730053746F72652053657474D5
:10192000696E677300507265686561742024204396
:101930006F6E6600416476616E6365642053657402
:1019400074696E6773004D61696E00313530003522
:10195000004245443A20507431303020556C74694F
:101960004D422035760052756E617761792057615E
:101970007463683A204F4E004D61782054656D7055
:1019800000323430004D696E2054656D70003500B2
:1019900045313A20507431303020556C74694D42D5
:1019A000203576005053550047656E6572696300B7
:1019B00050726F746F636F6C00312E30004261752E
:1019C000640032353030303000556C74696D616BB5
:1019D000657220322E78004D657368204C657665FF
:1019E0006C696E6700457874727564657273003156
:1019F000006D61726C696E66772E6F726700556C50
:101A000074696D616B6572204F726967696E616C94
:101A10002B00323032362D30312D323200322E3121
:101A20002E322E37004D61726C696E0054686572FB
:101A30006D6973746F727300426F61726420496ED6
:101A4000666F005072696E74657220496E666F0031
:101A50004D61696E004F6666004F6E004C696768A5
:101A600074204272696768746E65737300436F6EA9
:101A700066696775726174696F6E00436173652092
:101A80004C69676874004D61696E003F0042616394
:101A90006B0053746F700073687574646F776E00B9
:101AA0003F0043616E63656C0050726F63656564EF
:101AB00000486F73742053687574646F776E004EBE
:101AC0006F204D65646961005072696E74206672A2
:101AD0006F6D204D65646961004368616E676520C4
:101AE0004D65646961004D3231004C6967687473FB
:101AF0000041626F7574205072696E7465720043A4
:101B00006F6E66696775726174696F6E0054656D9A
:101B10007065726174757265004D6F74696F6E00E7
:101B20005072656865617420437573746F6D0053FE
:101B30007461727420486F7374205072696E7400FF
:101B4000526573756D65205072696E740043616EE5
:101B500063656C204F626A6563740054756E65003E
:101B600053746F70205072696E74005061757365A4
:101B7000205072696E7400496E666F2053637265FF
:101B8000656E003F005374617274205072696E7408
:101B90000043616E63656C005072696E740043614E
:101BA0006E6E6F7420656E74657220737562646901
:101BB000723A200005202E2E004261636B004D61B9
:101BC000696E00504C41004572723A2045455052B2
:101BD0004F4D20436F7272757074004572723A20D7
:101BE000454550524F4D20435243004572723A20B2
:101BF000454550524F4D2053697A65004572723AFF
:101C000020454550524F4D2056657273696F6E00E6
:101C10002100486F74656E6420746F6F20636F6C71
:101C200064004261636B0050726F63656564004DD0
:101C30006F7665204578747275646572004D6F74B7
:101C4000696F6E0044697361626C652053746570DE
:101C500070657273004D383400426564204C6576BF
:101C6000656C696E67004732385A00473238590050
:101C7000486F6D6520400047323858004175746FD9
:101C800020486F6D6500473238004D61696E005025
:101C90007265686561742024204265640050726535
:101CA00068656174202420456E640054656D70651C
:101CB00072617475726500436F6F6C646F776E004C
:101CC00046616E20537065656400426564004E6F26
:101CD0007A7A6C6500C31B50726568656174202454
:101CE000004D61696E004261627973746570205ABB
:101CF000004261627973746570204000466C6F77B2
:101D00000046616E20537065656400426564004E54
:101D10006F7A7A6C6500426564205A00537065657D
:101D200064004D61696E006F70656E0054524947E2
:101D30004745524544003A20007A5F6D696E00794C
:101D40005F6D696E00785F6D696E005265706F72CD
:101D500074696E6720656E6473746F70207374614C
:101D60007475730A0020746F6F206C6F6E67206546
:101D70007874727573696F6E2070726576656E74B3
:101D800065640A0020636F6C6420657874727573F3
:101D9000696F6E2070726576656E7465640A000006
:101DA00000000000000000000000005761726E6932
:101DB0006E673A20486F6D696E672042756D7020BE
:101DC00044697669736F72203C20310A0002020474
:101DD000000052430000524300004D430000A04069
:101DE0000000A040000000400000000100000001D1
:101DF000000080005555550000004000333333008B
:101E0000AAAA2A004992240000002000C7711C00E1
:101E100099991900D1451700555515003BB113008C
:101E20002449120011111100000010000F0F0F00C3
:101E3000E3380E0043790D00CCCC0C00C3300C000D
:101E4000E8A20B0064210B00AAAA0A00703D0A0058
:101E50009DD80900427B090092240900DCD30800C8
:101E6000888808001042080000000800F0C1070040
:101E70008787070075500700711C07003EEB0600BE
:101E8000A1BC06006990060066660600703E06006A
:101E90006118060017F4050074D105005BB0050059
:101EA000B2900500627205005555050078390500AD
:101EB000B81E0500050505004EEC040087D404009B
:101EC000A1BD040090A7040049920400C17D040054
:101ED000EE690400C7560400444404005C32040068
:101EE0000821040041100400000004003FF003003A
:101EF000F8E0030026D20300C3C30300CCB50300FF
:101F00003AA803000A9B0300388E0300C081030037
:101F10009F750300D0690300505E03001D5303004A
:101F200034480300913D03003333030016290300B6
:101F3000381F030097150300300C03000303030050
:101F40000BFA020049F10200BAE802005CE002006C
:101F50002DD802002DD0020059C80200B0C00200E6
:101F600031B90200DAB10200AAAA0200A0A302005D
:101F7000BC9C0200FA9502005C8F0200DF88020020
:101F800082820200457C0200277602002770020050
:101F9000436A02007C640200D05E02003F590200E6
:101FA000C8530200FFFDFCFAF8F6F4F2F0EEECEA9A
:101FB000E9E7E5E3E1E0DEDCDAD9D7D5D4D2D0CF6A
:101FC000CDCBCAC8C7C5C3C2C0BFBDBCBAB9B7B6FE
:101FD000B4B3B2B0AFADACAAA9A8A6A5A4A2A1A063
:101FE0009E9D9C9A99989795949392908F8E8D8BA5
:101FF0008A8988878684838281807F7E7D7B7A79C7
:102000007877767574737271706F6E6D6C6B6A69C8
:102010006867666564636261605F5E5D5C5B5A59B8
:1020200058585756555453525150504F4E4D4C4B93
:102030004A4A4948474646454443424241403F3E5A
:102040003E3D3C3B3B3A3938383736353534333210
:10205000323130302F2E2E2D2C2B2B2A29292827B8
:102060002726252524232322212120201F1E1E1D53
:102070001C1C1B1B1A1919181817161615151413E2
:102080001312121111100F0F0E0E0D0D0C0C0B0A66
:102090000A090908080707060605050404030302E0
:1020A00002010000000052430000524300004D4373
:1020B0000000000000000000000000005365747480
:1020C000696E67732053746F72656400290A00207B
:1020D00062797465733B2063726320005365747486
:1020E000696E67732053746F7265642028004861BD
:1020F0007264636F6465642044656661756C742006
:1021000053657474696E6773204C6F616465640015
:1021100020286D6D2900203B204C6576656C696E2A
:1021200067200020204D3432302053004D65736805
:1021300020426564204C6576656C696E67002046B8
:102140000020480020204D3134352053004D61746B
:10215000657269616C206865617475702070617268
:10216000616D6574657273002020473239205334E5
:10217000205A00204A00202047323920533320497A
:102180000020204D3134392043203B20556E6974A6
:102190007320696E2043656C736975730A0054651A
:1021A0006D706572617475726520556E6974730027
:1021B0002020473231203B004C696E65617220550A
:1021C0006E69747300454550524F4D2064617461CF
:1021D00073697A65206572726F722E0A0045727299
:1021E0003A20454550524F4D20435243002028632A
:1021F000616C63756C6174656429210A0020213D5E
:102200002000454550524F4D20435243206D697385
:102210006D61746368202D202873746F7265642962
:102220002000454550524F4D20436F7272757074B7
:102230000A002053697A653A2000496E6465783A4D
:10224000200053746F7265642073657474696E67DF
:10225000732072657472696576656400290A0020CE
:1022600062797465733B2063726320002073746F1E
:102270007265642073657474696E67732072657427
:102280007269657665642028000000FA430000FA50
:10229000430000F0410000C841FB7A9D42FB7A9D5B
:1022A0004200004843000051442823000028230036
:1022B000006400000010270000204D61726C696E00
:1022C0003D563838290A00454550524F4D20766515
:1022D0007273696F6E206D69736D61746368202815
:1022E000454550524F4D3D0020436F756E74205848
:1022F0003A000042656400453100450062656400B3
:102300002C2073797374656D2073746F70706564BD
:1023100021204865617465725F49443A2000457226
:10232000723A204D415854454D50004D4158544546
:102330004D50207472696767657265640048656115
:1023400074696E67204661696C65640048656174F4
:10235000696E67206661696C6564004D35323400D2
:102360004D3131322053687574646F776E00457259
:10237000723A204D494E54454D50004D494E5445FA
:102380004D502074726967676572656400544845F2
:10239000524D414C2052554E4157415900546865A9
:1023A000726D616C2052756E617761790020280032
:1023B000202F002042403A0020403A007C3C3E5E04
:1023C0002B3D3F2F5B5D3B2C2A225C0043616E6EF0
:1023D0006F74206F70656E2073756264697220007F
:1023E0004D6564696120496E6974204661696C00BD
:1023F00053442063617264206F6B0A006F70656ED6
:10240000526F6F74206661696C65640A00766F6C48
:10241000756D652E696E6974206661696C65640A04
:10242000004E6F20534420636172640A00534420BD
:10243000636172642072656C65617365640A000A89
:102440004D3234004D3233202573002E0A006F7058
:10245000656E206661696C65642C2046696C653A1E
:10246000200046696C652073656C65637465640A59
:10247000002053697A653A200046696C65206F70C8
:10248000656E65643A2000454E4420535542524FD4
:102490005554494E450A002220706F730022207067
:1024A0006172656E743A2200535542524F55544939
:1024B0004E452043414C4C207461726765743A224A
:1024C0000053756263616C6C204F766572666C6F49
:1024D00077004578636565646564206D6178205395
:1024E0005542524F5554494E452064657074683AC0
:1024F0000057726974696E6720746F2066696C6535
:102500003A20002E0A0044656C6574696F6E20667F
:1025100061696C65642C2046696C653A20004669E7
:102520006C652064656C657465643A004E6F742058
:102530005344207072696E74696E670A00534420B8
:102540007072696E74696E672062797465200066C6
:102550007265736800646F696E67002066696C65F8
:102560003A20004E6F7720002F6175746F25632E1F
:1025700067006D61726C696E66772E6F7267006DB1
:1025800061726C696E66772E6F726700322E312E23
:10259000322E3700322E312E322E3700006D61720E
:1025A0006C696E66772E6F7267006D61726C696E12
:1025B00066772E6F72670020322E312E322E370052
:1025C00000000000300E0100C00E0A00500F140081
:1025D000D00F1E0060102800E010320070113C0087
:1025E000F01146007012500000135A00801364006E
:1025F00000146E00901478001015820090158C0065
:10260000101696009016A0001017AA009017B4009C
:102610001018BE009018C8001019D2009019DC00E4
:10262000101AE600801AF000001BFA00801B04015B
:10263000F01B0E01701C1801F01C2201601D2C0102
:10264000E01D3601501E4001D01E4A01401F5401BA
:10265000B01F5E0130206801A020720110217C01B2
:1026600090218601002290016026F401902A5802F0
:10267000802EBC0250322003E03584035039E80339
:10268000803C4C042020506C616E6E657242756611
:1026900066657242797465733A20002046726565FA
:1026A000204D656D6F72793A200020436F6D70691F
:1026B0006C65643A204D61792032332032303236F5
:1026C0000A00204C61737420557064617465643A2B
:1026D00020323032362D30312D3232207C2041757F
:1026E00074686F723A20283344776F726B2C2068BD
:1026F000747470733A0A004D61726C696E20322EE8
:10270000312E322E370A0020536F6674776172655E
:102710002052657365740A00205761746368646FA2
:10272000672052657365740A002042726F776E20CD
:102730006F75742052657365740A0020457874655E
:10274000726E616C2052657365740A00506F776514
:102750007255700A0073746172740A00473932202E
:1027600045300A473120452D330A47323858590041
:102770004D31303031006572726F7220777269743A
:10278000696E6720746F2066696C650A00446F6E1D
:102790006520736176696E672066696C652E0A0034
:1027A000456E6473746F7073002553202563202574
:1027B0006320256320256300656E6473746F7073F6
:1027C000206869743A200000000A0B02090C0D0E03
:1027D00008070304010000000000000000000000E2
:1027E00000000000000000000000000000000000E9
:1027F00000000012111000000000000000000000A6
:1028000000000000000000000000000000000000C8
:102810000000000000000000000000000024F4049C
:10282000D9201BC40C5C0E9804C4095F02650771B3
:1028300001F405F900FB04B30048048700C10369F3
:10284000005803550003034500BE023A00840231DC
:102850000053022A002902250004022000E4011C82
:1028600000C8011900AF011700980114008401137A
:1028700000710110006101100051010E0043010DB3
:102880000036010B002B010B0020010B0015010984
:10289000000C01090003010800FB000800F3000818
:1028A00000EB000700E4000600DE000600D800068A
:1028B00000D2000600CC000500C7000500C20005DC
:1028C00000BD000400B9000400B5000400B100041C
:1028D00000AD000400A9000400A5000300A200034D
:1028E000009F0004009B0003009800030095000275
:1028F0000093000300900003008D0002008B000392
:1029000000880002008600020084000300810002AB
:10291000007F0002007D0002007B000200790002BF
:1029200000770001007600020074000200720001CE
:1029300000710002006F0002006D0001006C0002D7
:10294000006A0001006900020067000100660001E2
:1029500000650001006400020062000100610001E6
:1029600000600001005F0002005D0001005C0001EA
:10297000005B0001005A00010059000100580001ED
:1029800000570001005600010055000100540001ED
:1029900000530000005300010052000100510001EB
:1029A00000500001004F0001004E0000004E0001E9
:1029B000004D0001004C0001004B0000004B0001E5
:1029C000004A0001004900010048000000480001E1
:1029D00000470001004600000046000100450000DD
:1029E00000450001004400010043000000430001D5
:1029F00000420000004200010041000000410001CF
:102A000000400001003F0000003F0001003E0000C8
:102A1000003E0001003D0000003D0001003C0000C0
:102A2000003C0000003C0001003B0000003B0001B6
:102A3000003A0000003A00010039000000390001AE
:102A400000380000003800000038000100370000A6
:102A5000003700010036000000360000003600019B
:102A60000035000000350000003500010034000092
:102A70000034000000340001003300000033000087
:102A8000003300010032000000320000003200017B
:102A90000031000000310000003100010030000072
:102AA0000030000000300001002F0000002F000067
:102AB000002F0000002F0001002E0000002E00005B
:102AC000002E0001002D0000002D0000002D000050
:102AD000002D0001002C0000002C0000002C000044
:102AE000002C0001002B0000002B0000002B000038
:102AF000002B0001002A0000002A0000002A00002C
:102B0000002A00010029000000290000002900001F
:102B10000029000000290001002800000028000012
:102B20000028000000280000002800010027000005
:102B300000270000002700000027000000270001F8
:102B400000260000002600000026000000260000ED
:102B500000260001002500000025000000250000DF
:102B600000250000002500000025000100240000D1
:102B700000240000002400000024000000240001C4
:102B800000230000002300000023000000230000B9
:102B900000230000002300000023000100220000A9
:102BA000002200000022000000220000002200009D
:102BB000002200010021000000210000002100008F
:102BC0000021000000210000002100000021000180
:102BD0000020000000200000002000000020000075
:102BE0000020000000200000002000000020000164
:102BF000001F0000001F0000001F0000001F000059
:102C0000001F0000001F0000001F0001001E000048
:102C1000001E0000001E0000001E00000024F4D46E
:102C20003050C38E20C2A24017828B7011127A914D
:102C30000D816CD90AA861E108C758660761514344
:102C4000061E4B5D05C145A7041A411104093D98B4
:102C500003713931034036DB0265339102D43054BD
:102C600002802E1D02632CEE01752AC501B028A03A
:102C700001102781018F2564012B244B01E02234B0
:102C800001AC211F018D200D01801FFC00841EED71
:102C900000971DDF00B81CD200E61BC600201BBC3D
:102CA00000641AB200B219A8000A19A0006A1899A3
:102CB00000D117910040178B00B516840031167EA5
:102CC00000B31579003A157300C7146F0058146AE1
:102CD00000EE1366008813630025135E00C7125BC5
:102CE000006C12570015125400C111510070114FA1
:102CF0000021114B00D61049008D104700461044AA
:102D00000002104200C00F4000800F3E00420F3C06
:102D100000060F3B00CB0E3800930E37005C0E35DB
:102D200000270E3400F30D3200C10D3100900D303C
:102D300000600D2E00320D2D00050D2C00D90C2B3E
:102D400000AE0C2900850C29005C0C2700350C27EF
:102D5000000E0C2600E80B2400C40B2400A00B235B
:102D6000007D0B23005A0B2100390B2100180B208A
:102D700000F80A1F00D90A1E00BB0A1E009D0A1D8A
:102D800000800A1D00630A1C00470A1B002C0A1B56
:102D900000110A1A00F7091A00DD091900C40919FF
:102DA00000AB091900920917007B09180063091785
:102DB000004C09160036091600200916000A0915EC
:102DC00000F5081500E0081400CC081400B8081439
:102DD00000A4081400900813007D0812006B08136B
:102DE0000058081200460812003408110023081188
:102DF000001208110001081100F0071000E0071090
:102E000000D0071000C0071000B0070F00A1071086
:102E10000091070E0083070F0074070F0065070E6F
:102E20000057070E0049070E003B070D002E070E46
:102E30000020070D0013070D0006070D00F9060C12
:102E400000ED060D00E0060C00D4060C00C8060CD0
:102E500000BC060C00B0060C00A4060B0099060C82
:102E6000008D060B0082060B0077060B006C060B2C
:102E70000061060A0057060B004C060A0042060ACB
:102E80000038060A002E060A0024060A001A060A5E
:102E9000001006090007060A00FD050900F40509EF
:102EA00000EB050900E2050900D9050900D0050974
:102EB00000C7050900BE050900B5050800AD0508F5
:102EC00000A50509009C050800940508008C05086C
:102ED00000840508007C050800740508006C0507DF
:102EE00000650508005D050700560508004E05074A
:102EF00000470507004005080038050700310507B1
:102F0000002A050700230507001C05060016050713
:102F1000000F0507000805060002050700FB040670
:102F200000F5040700EE040600E8040600E20407CA
:102F300000DB040600D5040600CF040600C9040621
:102F400000C3040600BD040600B7040600B1040572
:102F500000AC040600A6040600A00405009B0406BD
:102F60000095040500900406008A04050085040508
:102F700000800406007A040500750405007004054D
:102F8000006B04050066040500610405005C04058F
:102F90000057040500520405004D040500480405CF
:102FA00000430405003E0404003A0405003504050E
:102FB00000300404002C0405002704040023040549
:102FC000001E0404001A0404001604050011040481
:102FD000000D0404000904050004040400000404B6
:102FE00000FC030400F8030400F4030400F00304ED
:102FF00000EC030400E8030400E4030400E003041D
:1030000000DC030400D8030400D4030400D003044C
:1030100000CC030400C8030300C5030300722900A9
:10302000007C200000AD160000270E0000120800F2
:10303000005704000041020000260100004D6F7699
:103040006520246D6D00302E303235004D6F766571
:1030500020302E316D6D004D6F766520316D6D0025
:103060004D6F76652031306D6D004D6F7665204176
:10307000786973004D6F7665202A004D6F76652064
:1030800040005072696E742066726F6D204D6564E9
:1030900069610020002568753A2530326875002581
:1030A000303268753A2530326875002530326875DF
:1030B0002725303268750000002200250028002BEB
:1030C000002E003100340002010000050108010B50
:1030D0000100002100240027002A002D00300033C9
:1030E0000001010000040107010A010505050507AB
:1030F0000508080808020202020A0A080804040473
:10310000040101010101010101030303030303039E
:1031100003040707070C0C0C0C0C0C0C0C0202022D
:103120000206060606060606060B0B0B0B0B0B0B20
:103130000B07070A0A0A0A0A0A0505050404040817
:1031400008010210202008081020401020408002B2
:1031500001020108040201010204081020408080DD
:103160004020100804020180040201804020100861
:103170000402010804020101020408102040800139
:103180000204081020408010080408801020400429
:1031900040801020400480200020002000457272F2
:1031A0006F722077726974696E6720746F2045456D
:1031B00050524F4D210A00627573793A2070617543
:1031C00073656420666F7220696E7075740A0062A0
:1031D0007573793A2070617573656420666F72202B
:1031E000757365720A00627573793A2070726F6345
:1031F000657373696E670A004D6564696120526585
:103200006D6F76656400746F6F206D7563682069FB
:103210006E6163746976652074696D65202D206325
:10322000757272656E7420636F6D6D616E643A20A5
:10323000002121204B494C4C20636175736564204B
:10324000627920005046543A696F6572726F720A53
:10325000005046543A737563636573730A005054A3
:10326000463A696E76616C69640A005046543A7356
:103270007563636573730A005046543A696F6572EB
:10328000726F720A005046543A696E76616C6964D6
:103290000A005046543A696E76616C69640A0050BF
:1032A00046543A6661696C0A005046543A73756335
:1032B000636573730A005046543A627573790A0065
:1032C0002C003A636F6D7072657373696F6E3A6844
:1032D000656174736872696E6B2C002E002E00504D
:1032E00046543A76657273696F6E3A00556E73751F
:1032F00070706F727465642042696E6172792050DB
:10330000726F746F636F6C0A00556E6B6E6F776EC1
:103310002042696E61727950726F746F636F6C4393
:103320006F6E74726F6C205061636B65740A006617
:1033300065004461746173747265616D2074696DB8
:10334000656F75740A00727300526573656E642050
:103350007265717565737420006F6B002920706150
:10336000796C6F616420636F72727570740A0050BB
:1033700061636B6574280044617461737472656184
:103380006D207061636B6574206461746120627587
:1033900066666572206F76657272756E0A003F29E7
:1033A00020636F72727570740A005061636B65748C
:1033B0002068656164657228004461746173747289
:1033C00065616D207061636B6574206F7574206F2B
:1033D00066206F726465720A006F6B002E002E000B
:1033E0002C002C0073730053544F505045442E2032
:1033F000005072696E7465722073746F70706564CA
:103400002064756520746F206572726F72732E2050
:1034100046697820746865206572726F7220616EEB
:103420006420757365204D39393920746F207265B9
:1034300073746172742E202854656D7065726174A6
:103440007572652069732072657365742E205365EB
:10345000742069742061667465722072657374618A
:103460007274696E67290A004E6F20436865636B4A
:1034700073756D2077697468206C696E65206E7550
:103480006D6265722C204C617374204C696E653AD4
:1034900020004D3239004E6F20436865636B7375B1
:1034A0006D2077697468206C696E65206E756D6239
:1034B00065722C204C617374204C696E653A200053
:1034C000636865636B73756D206D69736D6174639B
:1034D000682C204C617374204C696E653A20004C56
:1034E000696E65204E756D626572206973206E6F1E
:1034F00074204C617374204C696E65204E756D624A
:1035000065722B312C204C617374204C696E653AC6
:1035100020004D3131300053657269616C20737445
:1035200061747573206D69736D617463680A00530B
:10353000442072656164206572726F720A002074A3
:103540006F6F206C6F6E6720657874727573696F2A
:103550006E2070726576656E7465640A0020636F14
:103560006C6420657874727573696F6E2070726513
:1035700076656E7465640A00486F6D696E672046F3
:1035800061696C656400FFFFFF73686F7700656EAB
:103590006400626567696E00204500205A0020596A
:1035A0000020204D3932205800537465707320700C
:1035B000657220756E6974006F6B0A0052657365E1
:1035C0006E643A200020453A00205A3A0020593AC9
:1035D00000583A00220A00556E6B6E6F776E2063BA
:1035E0006F6D6D616E643A20220020420020500011
:1035F0006F6B00556C74696D616B6572204F7269F9
:1036000067696E616C2B2052656164792E0050727F
:10361000696E74696E672E2E2E005072696E74206A
:103620005061757365640000DB00D90011241FBE72
:10363000CFEFD1E2DEBFCDBF00E00CBF84B78093F7
:103640007A1D14BE0FB6F894A89580916000886129
:1036500080936000109260000FBE13E0A0E0B2E023
:10366000E6E3F1E402E00BBF02C007900D92AC3A32
:10367000B107D9F72DE1ACEAB3E001C01D92AA373A
:10368000B207E1F71BE1C5E1DBE100E006C02197ED
:103690000109802FFE010F940C1CC431D10780E07A
:1036A0000807A9F70F94100E0D948A200C940000BF
:1036B0008091AC1A8823F1F02FEF3FEF30933D0259
:1036C00020933C0281508093AC1AEDEAF8E1882304
:1036D00051F08150990B2BE1289FF001299FF00DAB
:1036E0001124E256F64E8BE1A2E9B8E101900D9269
:1036F0008A95E1F72091AC1A211105C08091B71A83
:1037000080648093B71A81E090E0A0E0B0E02111DE
:1037100003C080E090E0DC01809371069093720614
:10372000A0937306B093740610927B0681E0809399
:103730006B0683E0809359020895CF93DF93EC01E9
:10374000642F70E090E080E00F94A71729EC38EC2C
:1037500048EC5EE30F94031D20E030E040E05FE3BF
:103760000F94271C0F94701D6883DF91CF910895EB
:10377000E0917A0686E0E802F0011124EC59F94F55
:103780008091240590E0958384830895FC01408313
:103790000895CF93DF93EC01CB01BA010F94A717E3
:1037A00020E030E048EC52E40F94031D2FE632E1B4
:1037B00043E85AE30F94271C688379838A839B83A9
:1037C000DF91CF910895CF93DF93EC01CB01BA0144
:1037D0000F94A71720E030E048EC52E40F94031D4B
:1037E0002FE632E143E85AE30F94271C688379837C
:1037F0008A839B83DF91CF910895CF93DF93EC0170
:10380000CB01BA010F94A717688379838A839B83BE
:10381000DF91CF910895CF93DF93EC01CB01BA01F3
:103820000F94A717688379838A839B83DF91CF9155
:103830000895CF93DF93EC01CB01BA010F94A71742
:1038400020E030E048EC52E40F94031D2FE632E113
:1038500043E85AE30F94271C688379838A839B8308
:10386000DF91CF910895CF93DF93EC01CB01BA01A3
:103870000F94A5172AE037ED43E25DE30F94031D93
:103880000F94701D688379838A839B83DF91CF9126
:103890000895CF93DF93EC01CB01BA010F94A717E2
:1038A0002AE037ED43E25DE30F94031D68837983DB
:1038B0008A839B83DF91CF910895FC0151834083DC
:1038C0000895CF93DF93EC01CB01BA010F94A717B2
:1038D00020E030E04AE754E40F94031D27E137EB82
:1038E00041ED58E30F94271C688379838A839B8377
:1038F000DF91CF910895CF93DF93EC01CB01BA0113
:103900000F94A5172AE037ED43E25CE30F94031D03
:103910000F94701D688379838A839B83DF91CF9195
:103920000895CF93DF93C091E218D091E31881E01E
:10393000CE31D105E4F020E030E040E05FE360917B
:10394000DE187091DF188091E0189091E1180F94C3
:10395000271C0F946B1D6C1B7D0B77FF03C07195AB
:103960006195710981E0633071050CF080E0DF91B1
:10397000CF91089590E080E00895209184198330DC
:1039800021F425FD0CC024FD0CC030E0A90102C0CB
:10399000559547958A95E2F7CA018170089581E0AF
:1039A000089580E008958091630484FD0BC08091A8
:1039B000650487FD07C090916604937081E019F457
:1039C00080E0089581E008952FEB280F2A3108F058
:1039D00047C0E22FF0E08091630490916404A091CD
:1039E0006504B091660404C0B695A7959795879530
:1039F0002A95D2F780FD02C081700895E75BFB4FE6
:103A0000E081EE2341F180919D1190919E11E80F8C
:103A1000F92FF11D808190ED980F9A3030F08E32A1
:103A200051F4818180538A3098F4F0934804E093F4
:103A3000470481E008958D3211F08B3249F4818181
:103A400090ED980F9A3088F38E3211F48281EACF8C
:103A5000F0E0E0E0EACF1092480410924704E9CF8A
:103A600080E00895B1DF882341F081E02091470490
:103A700030914804232B09F480E008950F931F939D
:103A800041E050E0082E02C0440F551F0A94E2F7AF
:103A9000052E000C660B770B0091E4041091E504F1
:103AA0002091E6043091E704402B512B622B732BBD
:103AB0004093E4045093E5046093E6047093E704B4
:103AC00090910702891303C081E080935E071F91E4
:103AD0000F91089580910118813069F09091B71A83
:103AE00092FB882780F992FF07C097FB882780F90F
:103AF00091E08927089581E0089590913619809189
:103B00003519891718F0891B19F4E4CF805FFBCFB2
:103B100081E008958F929F92AF92BF92CF92DF92F1
:103B2000EF92FF92CF936B017C0120E030E0A9017E
:103B30000F94A11787FF8BC06DEB77E386E095EBC1
:103B4000A70196010F94271C4B015C0142E050E055
:103B50000E94F8C66B017C0120E030E040E251ECAD
:103B6000C501B4010F94A117181654F420E030E0F9
:103B700048EC52E4C501B4010F944D1E87FD6CC0A2
:103B8000C701B60120E137E240E050E00F949D1BF1
:103B9000CA01B9012AE030E040E050E00F949D1BDB
:103BA000605DF7FE09C0F094E094D094C094C11C0D
:103BB000D11CE11CF11C6DE26093EE04C701B6015B
:103BC00028EE33E040E050E00F949D1B9AE0892EF0
:103BD000912CA12CB12CCA01B901A50194010F941B
:103BE0009D1B605D6093EF04C701B60124E630E0E1
:103BF00040E050E00F949D1BCA01B901A50194015A
:103C00000F949D1B605D6093F0048EE28093F1043D
:103C1000C701B601A50194010F949D1BC62FCA01CF
:103C2000B901A50194010F949D1B605D6093F2049E
:103C3000C05DC093F3048EEE94E0CF91FF90EF90BF
:103C4000DF90CF90BF90AF909F908F9008956DEBD5
:103C500077E386E095E374CF20E030E0A901C50169
:103C6000B4010F944D1E87FD0BC020E030E040E210
:103C700051E4C501B4010F94A11760E287FD1CC097
:103C8000C701B60128EE33E040E050E00F949D1BE1
:103C9000CA01B9012AE030E040E050E00F949D1BDA
:103CA000605DF7FE09C0F094E094D094C094C11C0C
:103CB000D11CE11CF11C6DE26093EF04C701B60159
:103CC00024E630E040E050E00F949D1B8AE0882E0F
:103CD000912CA12CB12CCA01B901A50194010F941A
:103CE0009D1B605D6093F0048EE28093F104C70138
:103CF000B601A50194010F949D1BC62FCA01B901FD
:103D0000A50194010F949D1B605D6093F204C05D5A
:103D1000C093F3048FEE94E090CF0F94A71720E0A8
:103D200030E048EC52E40F94031D2FE632E143E803
:103D30005AE30F94271CEECE8F929F92AF92BF92C0
:103D4000CF92DF92EF92FF92CF936B017C0120E044
:103D500030E0A9010F94A11787FDC3C06DEB77E395
:103D600086E095E3A70196010F94271C6B017C0167
:103D700020E030E0A9010F94A11787FF04C0F7FAF3
:103D8000F094F7F8F09442E050E0C701B6010E94C9
:103D9000F8C66B017C0160E280E4C81682E4D806B4
:103DA0008FE0E806F1048CF0C701B60120E432E4AC
:103DB0004FE050E00F949D1BCA01B9012AE030E0AA
:103DC00040E050E00F949D1B605D6093EC0460E266
:103DD00080EAC81686E8D80681E0E806F1048CF08F
:103DE000C701B60120EA36E841E050E00F949D1B80
:103DF000CA01B9012AE030E040E050E00F949D1B79
:103E0000605D6093ED0460E280E1C81687E2D80649
:103E1000E104F1048CF0C701B60120E137E240E093
:103E200050E00F949D1BCA01B9012AE030E040E048
:103E300050E00F949D1B605D6093EE0460E288EE9D
:103E4000C81683E0D806E104F1048CF0C701B6017E
:103E500028EE33E040E050E00F949D1BCA01B90109
:103E60002AE030E040E050E00F949D1B605D6093DD
:103E7000EF04C701B60124E630E040E050E00F94C3
:103E80009D1B8AE0882E912CA12CB12CCA01B9016E
:103E9000A50194010F949D1B605D6093F0048EE278
:103EA0008093F104C701B601A50194010F949D1BF5
:103EB000C62FCA01B901A50194010F949D1B605D35
:103EC0006093F204C05DC093F3048CEE94E0CF9154
:103ED000FF90EF90DF90CF90BF90AF909F908F902A
:103EE00008956DEB77E386E095EB3CCF0F94A71731
:103EF00020E030E048EC52E40F94031D2FE632E15D
:103F000043E85AE30F94271C17CF70E090E080E05D
:103F10000F94A71729EC38EC48EC5EE30F94031DCF
:103F200020E030E040E05FE30F94271C0F94701D09
:103F3000862F0C94C4C6CF92DF92EF92FF926B0152
:103F40007C0120E030E0A9010F94A11787FD26C075
:103F50006DEB77E386E095E3A70196010F94271CAC
:103F60006B017C0120E030E0A9010F94A11720E053
:103F700030E040E05FE387FF04C020E030E040E055
:103F80005FEBC701B6010F94271C0F946B1DCB018B
:103F9000FF90EF90DF90CF900C9439C66DEB77E3F4
:103FA00086E095EBD9CF0F94A717C5CFCB010C9422
:103FB00039C663E972E084E690E00E945BCB70E072
:103FC00060E08AE090E00E945BCB6AEB72E084E6FE
:103FD00090E00C945BCB0E94FBC3EBCF8111E9CF47
:103FE00068E270E080E991E00C945BCB0E9487A9C5
:103FF000F5CF0E947DD9F2CF80E090E0A0E8B0E458
:1040000080937D0F90937E0FA0937F0FB093800FCE
:104010008CED92E00E9487BC8091E204833014F022
:104020001092E204E091E204E7FD05C0E230E4F022
:10403000E23009F45DC084EC92E00E9487BC1092EB
:104040007D0F10927E0F10927F0F1092800F8CEDDB
:1040500092E00E9487BC8091E2048F5F83300CF075
:1040600058C08093E204089580E090E0A0EFB1E4AE
:104070008093750F9093760FA093770FB093780F7E
:104080008093790F90937A0FA0937B0FB0937C0F5E
:10409000EE0FFF0BE054FD4F80819181833091053D
:1040A00091F08430910581F1029729F680E090E04B
:1040B000A4E3B3E48093750F9093760FA093770FEA
:1040C000B093780FB8CF80E090E0A4E3B3E480939E
:1040D000750F9093760FA093770FB093780F80931E
:1040E000790F90937A0FA0937B0FB0937C0FA3CF9F
:1040F00080E090E0A2EDB2E48093750F9093760F8C
:10410000A093770FB093780F80E090E0A4E3B3E43E
:10411000E6CF1092E2040895862F0C949BC60E946D
:10412000CEE90C9488BDCF93DF9300D01F92CDB71A
:10413000DEB70F94A51769837A838B839C83CE01A6
:1041400001960E94C1C70F900F900F900F90DF91C2
:10415000CF9108950F94A5172AE037ED43E25DE370
:104160000F94031D0F94701DDECF0F94A5172AE046
:1041700037ED43E25CE30F94031D0F94701DD3CF22
:10418000CF92DF92EF92FF92CF93DF9300D01F92F6
:10419000CDB7DEB76B017C0120E030E0A9010F94C0
:1041A000A11787FD1BC06DEB77E386E095E3A701C0
:1041B00096010F94271C69837A838B839C83CE019D
:1041C00001960E94C1C70F900F900F900F90DF9142
:1041D000CF91FF90EF90DF90CF9008956DEB77E354
:1041E00086E095EBE4CF0F94A7172AE037ED43E282
:1041F0005DE30F94031DC4CF0F94A717C1CFCF92D7
:10420000DF92EF92FF92CF93DF9300D01F92CDB752
:10421000DEB70F94A71720E030E048EC52E40F948B
:10422000031D2FE632E143E85AE30F94271C6B018C
:104230007C0120E030E0A9010F94A1172DEB37E3BA
:1042400046E055E387FF04C02DEB37E346E055EB2E
:10425000C701B6010F94271C69837A838B839C83E3
:10426000CE0101960E9446C70F900F900F900F90BD
:10427000DF91CF91FF90EF90DF90CF9008950F9452
:10428000A71720E030E04AE754E40F94031D27E12C
:1042900037EB41ED58E30F94271C0C9454CC0C944D
:1042A00092AD0C9492AD0C9444AD0C9444AD0C942E
:1042B00044AD0C9444ADCF92DF92EF92FF920F93F6
:1042C0001F930E9401F000917104109172042091DB
:1042D0007304309174046B017C01C01AD10AE20AA4
:1042E000F30A9701860137FD11C0209170042095D3
:1042F000209370046A547C4F8F4F9F4F60937104DA
:1043000070937204809373049093740481E090918D
:104310007004911101C080E01F910F91FF90EF9008
:10432000DF90CF900895CF93DF93C091E218D091A2
:10433000E318209729F16091DE187091DF188091C1
:10434000E0189091E1180F946B1D6E5F7F4F2497DA
:104350006C177D07ACF470936E0560936D050E9439
:1043600001F0605A75418F4F9F4F60936F057093B6
:1043700070058093710590937205DF91CF91089538
:1043800010926F05109270051092710510927205CF
:10439000F4CFCF92DF92EF92FF920F931F93CF93C0
:1043A000DF9300D000D01F921F92CDB7DEB78E01F1
:1043B0000F5F1F4FD80130E020E0FB01E20FF31F39
:1043C000E491ED932F5F3F4F28303105B1F78770AF
:1043D00098E0899FB001112460648DE699E10E9404
:1043E00000F183E790E00197F1F77801E8E0EE0E45
:1043F000F11C8BE9C82ED12CF80161918F018DE65B
:1044000099E10E9407DAC6010197F1F7E016F1067B
:1044100099F728960FB6F894DEBF0FBECDBFDF9197
:10442000CF911F910F91FF90EF90DF90CF90089563
:10443000CF92DF92EF92FF920F931F93CF93DF9370
:1044400000D000D0CDB7DEB78A0146E0469F90018C
:10445000479F300D1124BC01620F731F46E050E0EE
:10446000CE0101960F94CA16C980DA80EB80FC80D9
:10447000F80140815181628173818FEF9FEFC416F3
:10448000D506E606F70640F081E090E04C155D05A4
:104490006E057F0508F080E026960FB6F894DEBF23
:1044A0000FBECDBFDF91CF911F910F91FF90EF9085
:1044B000DF90CF9008950F931F93CF93DF93CDB7E5
:1044C000DEB72E970FB6F894DEBF0FBECDBF8B01BF
:1044D0001E861D86FC0160817181828193816F83BC
:1044E000788789879A872FEF2B8760387105810538
:1044F000910538F48DE699E10E9407DA81E090E0B9
:104500002FC09E01235F3F4FAE01495F5F4F69EBB4
:1045100070E080EC90E10E942BE197FD2CC08D852E
:104520009E8526E0289FB001299F700D11246054BC
:104530007F4E46E050E0CE0101960F94CA166D8181
:104540008DE699E10E9407DA01301105B9F26E811A
:104550006623A1F28DE699E10E9407DA82E090E0FD
:104560002E960FB6F894DEBF0FBECDBFDF91CF9170
:104570001F910F9108959E01235F3F4FAE01495F48
:104580005F4F63E670E08EE69EE00E942BE197FDB0
:104590000BC08D859E8526E0289FB001299F700D58
:1045A00011246259714FC5CF6FE3A4CF80914704A6
:1045B00090914804009731F04AE050E070E060E0EC
:1045C0000D94C21560E070E0CB010895809147041E
:1045D00090914804009731F04AE050E070E060E0CC
:1045E0000D94971460E070E0CB010895EFDF97FD24
:1045F0000AC0ECDF6F3F71058105910509F02CF4CD
:10460000E5DF862F089580E008958FEF089580916B
:10461000470490914804892B39F0E8DF91E081113B
:1046200001C090E0892F089591E0FCCFCF93DF93F4
:10463000C82FD62F17DA882319F0DF91CF91E7CF53
:104640008C2FC2D9811101C08D2FDF91CF91089598
:10465000BDDFCB010895CF93DF93EB0103DA88230D
:1046600019F0DF91CF91F4CFCE01DF91CF91089572
:104670000F931F93CF938091470490914804009724
:1046800009F1FC018F01C1912C2F2F7DA1F0C534C0
:1046900031F0C53621F0C83511F0C83799F7F80167
:1046A000108270E060E00F944213F801C083CF9154
:1046B0001F910F91089570E060E0CF911F910F91CD
:1046C0000D94421360E070E0CB01F1CF4F925F9206
:1046D0006F927F92AF92BF92CF92DF92EF92FF9252
:1046E0000F931F93CF93DF938CEAA82E82E0B82E0E
:1046F00005E71FE0C6E0D5E095E8C92E9FE0D92E7A
:10470000F12CF50181915F01ADD9882339F0B0DF3B
:104710002B013C0180915E07882351F0F8018081D4
:104720009181A281B38188839983AA83BB8312C0BC
:104730008F2D23D9882309F463C0F80120813181AA
:1047400042815381C301B2010F94271C688379838E
:104750008A839B83F3940C5F1F4F2496F4E0CF0E63
:10476000D11C83E0F812CDCF85E47CD9882309F4ED
:1047700051C07EDF6B017C0183E0FFD8882371F09C
:104780002091810F3091820F4091830F5091840FBF
:10479000C701B6010F94271C6B017C01C092120562
:1047A000D0921305E0921405F092150586E45AD9CB
:1047B0008823B9F05DDF20E030E0A9010F944D1EA1
:1047C00018167CF455DF20E030E040E752E40F9407
:1047D000031D60930E0270930F028093100290935A
:1047E0001102DF91CF911F910F91FF90EF90DF9019
:1047F000CF90BF90AF907F906F905F904F90089553
:10480000F6012081318142815381C301B2010F94AD
:10481000261C9CCF8091810F9091820FA091830FD5
:10482000B091840F8093120590931305A093140503
:10483000B0931505BBCF9091E904911107C088236F
:1048400029F060E070E088E00C944BEE6091340257
:10485000609340049111F6CFF4CF80E0ECCF81E07B
:10486000EACF382F109282068091710690917206DD
:10487000A0917306B0917406B7FF08C0109271063C
:1048800010927206109273061092740620917106AF
:104890002093750610926B0680916A061816ECF448
:1048A000082E000C990B831B9109022E000C330B70
:1048B0002817390794F097FF02C090E080E08093BA
:1048C0007506092E000CAA0BBB0B80937106909302
:1048D0007206A0937306B0937406809175066623E2
:1048E000A9F090917B06891714F480937B062091A0
:1048F0007B06022E000C330B2D5F3F4F482F082EF6
:10490000000C550B241735071CF4835080937B064D
:104910000895E091A206E63028F581E08E0F80939D
:10492000A2064091710650917206609173067091D3
:10493000740620917B0690916A068091A10639E069
:10494000E39FF0011124EC56FB4FA0916B19B0913D
:104950006C19B183A0834283538364837583268358
:104960009783808708952F923F924F925F926F9224
:104970007F928F929F92AF92BF92CF92DF92EF92EF
:10498000FF920F931F93CF93DF9300D000D0CDB74A
:10499000DEB71C017A8369832B833C834D835E835E
:1049A0002701380181E080936B06B3DF83E08093B9
:1049B00059023092D8042092D70489819A81909329
:1049C000D6048093D5048B819C81AD81BE81809378
:1049D000D1049093D204A093D304B093D404409212
:1049E000CD045092CE046092CF047092D004A09275
:1049F0007106B0927206C0927306D09274069092BD
:104A00006C1980926B198C8D9D8D9093CC04809342
:104A1000CB048E8D8093CA0426960FB6F894DEBF21
:104A20000FBECDBFDF91CF911F910F91FF90EF90FF
:104A3000DF90CF90BF90AF909F908F907F906F90BE
:104A40005F904F903F902F900895CF93DF93CDB715
:104A5000DEB78E81282F082E000C330B909156184C
:104A60009217130609F09CF4809356189E01275F55
:104A70003F4F4F81588560E570E085E098E10F94E5
:104A80006917109204181092031810920218DF91FF
:104A9000CF9108950F931F9380930702803208F0FF
:104AA00045C09091E804891724F091E0980F909305
:104AB000E80441E050E0082E02C0440F551F0A945C
:104AC000E2F7052E000C660B770B0091E4041091C1
:104AD000E5042091E6043091E7044023512362234A
:104AE000732391E0452B462B472B09F490E09093DC
:104AF0005E0787FD1EC0282F082E000C330B3F9346
:104B00008F938CEA92E09F938F938CEB92E09F932C
:104B10008F931F929ADF8DB79EB707960FB6F894C2
:104B20009EBF0FBE8DBF1F910F91089510925E071B
:104B3000E0CF1F910F910C94A8E10F931F93CF9397
:104B4000DF938C016F3F19F41092561860E02091AA
:104B50005618862F062E000C990B2817190609F0F7
:104B600024F560935618C8010F94F016800F911F1A
:104B7000EC01C01BD10BC135D1053CF00197FC0104
:104B80002491207C2038D1F3F3CFDD27AE01B8018A
:104B900085E098E10F941117CB5FD74E18821092E1
:104BA00004181092031810920218DF91CF911F91F0
:104BB0000F9108950F931F930E9401F000911C071D
:104BC00010911D0720911E0730911F07601B710B6C
:104BD000820B930B97FD0BC082B38695817091E099
:104BE0008927909B82604A9B8460809320078091F4
:104BF000200781709091200791FD826090918A0436
:104C0000981749F0813009F148F0823079F083300B
:104C100091F080938A041F910F910895913079F05B
:104C20009230B9F79091890491500CC0992339F0D2
:104C30009330C1F3EECF9130A9F3923051F79091B8
:104C400089049F5F90938904E4CF992359F39330AB
:104C500001F7F5CFCF92DF92EF92FF92CF93C82F5B
:104C60000E9401F06B017C0124EA30E74DE75FE32D
:104C7000609108027091090280910A0290910B02E2
:104C80000F94A11787FD18C08AEF90E0A0E0B0E074
:104C90008C0D9D1DAE1DBF1D80937D0490937E04E1
:104CA000A0937F04B0938004C0930602CF91FF903D
:104CB000EF90DF90CF90089580E090E0DC01E8CFA6
:104CC0008F3010F48F5F08958F5008956AE975E171
:104CD00080E05FDB62E975E181E05BDB6AE875E15A
:104CE00082E057DB62E875E186E053DB6AE775E155
:104CF00087E04FDB62E775E183E04BDB6AE675E155
:104D000084E047DB62E675E185E043CBCF938230F8
:104D100061F4C4E0C15058F088E0C89FB00111248C
:104D20006A5E7A4E8C2F35DBF5CFCF91CFCFCF9106
:104D300008950F931F93522F20916B1930916C1986
:104D40002817390709F43CC010921E052091D90498
:104D50003091DA0437FF04C01092DA041092D904BB
:104D600090936C1980936B198B0130E020E00093D5
:104D70007106109372062093730630937406409365
:104D80007B0650936A06825A914321F41092A10641
:104D90001092A2068DE699E10E9408F181E020912F
:104DA0006B1930916C19225A314309F080E0AEDF63
:104DB00082E08093590281E080936B061092E104B7
:104DC0001F910F910895CF93C1E0C093A106FC01FC
:104DD00080819181A281B38180930802909309021E
:104DE000A0930A02B0930B0220E040E070E060E084
:104DF00080917C0690917D069CDFC0931E05CF912B
:104E000008958FEF8093240520E040E070E060E09B
:104E100082E39BE38ECF81E08093A106109212067D
:104E20001092F90420E040E070E060E08CE591E34E
:104E300080DF86E89CE19093220680932106089506
:104E400020E040E070E060E085E897E372DF81E019
:104E50008093DD048091DE04811107C087EE97E125
:104E6000909322068093210608958DEE97E1F8CF66
:104E700020E040E070E060E082EA91E35ACF82EB0C
:104E800097E10E949398F4DF0C94A8E1CF930E94DD
:104E9000FBC30E9487A9C82F882319F080E00E94D5
:104EA00098A88C2F9BD8CF91E3CF82E397E1909382
:104EB000220680932106DCCFCF93DF93E091A206F8
:104EC000EE2329F1E150E093A206AE2FB0E099E085
:104ED000E99FF0011124EC56FB4F278140E070E080
:104EE00060E0811103C046816281738189E08A9FFD
:104EF000E0018B9FD00D1124CC56DB4F8881998126
:104F000018DF88858093A106DF91CF910895DF9106
:104F1000CF91AECF80917A06803210F40E943E1D70
:104F200048D880E0C9CF81E0C7CF1092A10680E0C9
:104F3000C3CF4F925F926F927F928F929F92AF9268
:104F4000BF92CF92DF92EF92FF92CF93DF93CDB7D4
:104F5000DEB760970FB6F894DEBF0FBECDBF0E94DC
:104F600001F06B017C01809106028F3F09F446C07D
:104F70000E9401F080907D0490907E04A0907F04B8
:104F8000B0908004681979098A099B0997FD36C099
:104F90008091351995DE90913619891779F1E09154
:104FA000060280E090E0A5E0B3E4E43050F424E0B1
:104FB000E29FF0011124E055FD4F80819181A28193
:104FC000B3818D879E87AF87B88B19821A821B8227
:104FD0001C821D821E821F82188619861A861B86D5
:104FE0001C86AE014F5F5F4FBE01635F7F4F85E759
:104FF0009FE00F94130A8FEF80930602DBDD809110
:10500000200782FFDAC08091880481110CC091E0F2
:105010009093880480918B04892780936C0610926A
:105020008B040E9470F080919D0690919E06A09145
:105030009F06B091A006A7019601281B390B4A0BC9
:105040005B0BDA01C901B7FDBEC1D701C6018C599E
:105050009F4FAF4FBF4F80939D0690939E06A093A6
:105060009F06B093A00660918904062E000C770B72
:1050700077FF03C0719561957109909189048091C2
:10508000870498139DC0633008F09AC01092890479
:105090008091890480938704653008F0A3C08091D3
:1050A0006C06811121C180916B1990916C1931E3CB
:1050B000823A930709F03CC180914902882309F4A0
:1050C00025C18150809349020E94CAB08090450753
:1050D00090904607A0904707B090480781110E9422
:1050E000D7B0D501C4014AE0B695A79597958795A5
:1050F0004A95D1F78F3F5FEF9507A105B10520F0E5
:105100008FEF9FEFA0E0B0E0209159022223C9F178
:1051100096958795009739F04091810450918204CB
:105120004817590770F5223038F0243008F42FC1A1
:10513000243011F410925902E0916B19F0916C191E
:10514000199510926C0680916B1990916C19825A86
:105150009143F9F40E9401F0DC01CB018C199D0907
:10516000AE09BF098090810490908204B12CA12CDB
:1051700088169906AA06BB0620F4909382048093B1
:10518000810480916B1990916C19825A914309F4B2
:1051900002C18091A1068111FEC08091830490918B
:1051A0008404A0918504B0918604C81AD90AEA0A39
:1051B000FB0AF7FCFEC05CDEFCC01092880433CF13
:1051C0008DEF860F823008F063CF8091890491E0E3
:1051D00087FD9FEF892F880F880F890F809389049F
:1051E00065E056CF8091820621E030E040E050E05B
:1051F000882309F456C080907E0690907F06A09088
:105200008006B090810681149104A104B104E9F1F3
:1052100070E090E080E00F94A51720E030E040EAD5
:1052200050E40F94031D2B013C01C701B60168191E
:1052300079098A099B090F94A5179B01AC01C30149
:10524000B2010F94031D20E030E04AE754E40F94CC
:1052500006184B015C0120E030E040EA52E40F9474
:105260004D1E24E630E040E050E087FF12C020E011
:1052700030E040EF51E4C501B4010F944D1E2AE027
:1052800030E040E050E087FF04C021E030E040E043
:1052900050E0C0927E06D0927F06E0928006F092A7
:1052A0008106A09189040A2E000CBB0B0F94C31B2E
:1052B00025E030E040E050E00F949D1B80917106A6
:1052C00090917206A0917306B0917406820F931F9D
:1052D000A41FB51F8093710690937206A093730666
:1052E000B093740610928904D701C601805E914B79
:1052F000AF4FBF4F8093830490938404A0938504A1
:10530000B093860481E080935902CDCE89E08093EA
:1053100049028091810490918204009729F00197BD
:10532000909382048093810481E080935902CCCED3
:105330008F58944709F0C8CE809149029FEF980F8B
:10534000909349028111C0CE809183068F5F809334
:1053500083069091840624E0891708F02CE02093BE
:105360004902981710F41092830681E08093590245
:10537000D701C601805E914BAF4FBF4F809383042E
:1053800090938404A0938504B09386049DCE81E01D
:1053900080935902D1CE40E2C40E4EE4D41EE11CEB
:1053A000F11CC0928304D0928404E0928504F092B0
:1053B0008604809159028130D9F0833021F48DE642
:1053C00099E10E9408F160960FB6F894DEBF0FBE17
:1053D000CDBFDF91CF91FF90EF90DF90CF90BF9046
:1053E000AF909F908F907F906F905F904F900895B7
:1053F00010925902E8CFCF9380918C04811109C09B
:1054000081E296E19093DC048093DB0481E0809359
:105410008C047FDA20E040E070E060E08CE891E30B
:1054200088DCC1E0C093A1060E94B5AD7EDDC093CB
:10543000A10641E156E168E176E184E00E94C8E915
:1054400060E08AE196E379DB8DE096E190932206B5
:1054500080932106CF91089520E044E064E18DE639
:1054600099E10E940FF181E020916B1930916C1944
:10547000225A314309F080E049DC8DE699E10C9431
:1054800008F1EADF9998A19A9898A09A52985A9AA6
:1054900091DB109289040C94A8E16FEF7FEF0BC8A9
:1054A000AF92BF92CF92DF92EF92FF920F931F9332
:1054B000CF93DF9300D01F92CDB7DEB76C015B01B5
:1054C0007A0110E000E00E151F05D0F4AE014F5F29
:1054D0005F4FB501C6010E94A3CB6C0189819A81FF
:1054E000AB81BC81892B8A2B8B2B51F0B701601BC0
:1054F000710BCE0101960E945B22080F191FE3CFAA
:10550000C8010F900F900F900F90DF91CF911F91D6
:105510000F91FF90EF90DF90CF90BF90AF900895E4
:105520004FEF5FEF68E972E9BBCF4FEF5FEF65E9DF
:1055300072E9B6CF8F929F92AF92BF92CF92DF92D5
:10554000EF92FF920F931F93CF93DF9300D000D081
:105550001F921F92CDB7DEB77C01162F5A01490169
:10556000862F660F990B9C0124553D4F690110163B
:10557000D4F5AE014B5F5F4F65E972E9C7010E9448
:10558000A3CB7C018D819E81AF81B8850097A10559
:10559000B10549F18B379105A105B10509F46EC03C
:1055A0008E379105A105B10509F468C08A329105CD
:1055B000A105B10561F517FF0FC086EA95E11E3F11
:1055C00011F082EA95E1402F002E000C550B65E9A1
:1055D00072E966DF081B8AC080EB95E1A6DF015007
:1055E00009F04EC000E0802F28960FB6F894DEBF79
:1055F0000FBECDBFDF91CF911F910F91FF90EF9024
:10560000DF90CF90BF90AF909F908F90089584329D
:105610009105A105B105C1F48114910451F0402F09
:10562000002E000C550B65E972E9C40139DF081B37
:105630009ECFA114B104E9F0402F002E000C550BB1
:1056400068E972E9C501F2CF80349105A105B10581
:1056500081F40150F6018081082E000C990BAA0BF1
:10566000BB0B89839A83AB83BC83CE01019615DF84
:105670007ECFCE01059611DF015079CF17FD9DCF6A
:1056800081E04D815E816F8178854B3751056105E1
:10569000710509F480E0810F8A30C4F001506AE09E
:1056A0000F94D81B192F082E000C990BC096092EA9
:1056B000000CAA0BBB0B89839A83AB83BC83CE01FE
:1056C0000196EBDE002309F48DCF812F082E000C0C
:1056D000990BC096092E000CAA0BBB0B89839A83E9
:1056E000AB83BC83CE010196D8DE0150002309F4C0
:1056F00079CF402F002E000C550B65E972E9C701E8
:10570000CFDE081B70CF0F931F93CF93DF9300D092
:1057100000D01F921F92CDB7DEB700915E021091AC
:105720005F0220916002309161020D831E832F83FE
:1057300038870091620210916302209164023091D7
:10574000650209831A832B833C839091741969172E
:1057500010F06FEF690F262F30E0409175192C0F74
:105760003D1FF901403199F4943089F46181680F4B
:1057700060688DE699E128960FB6F894DEBF0FBEFB
:10578000CDBFDF91CF911F910F910C9400F16581F6
:10579000EECFFC01A081B1811C92A281B3818C91DA
:1057A0008F5F8C930280F381E02D608180E0ABCF2E
:1057B0004F925F926F927F928F929F92AF92BF9221
:1057C000CF92DF92EF92FF920F931F93CF93DF93CD
:1057D00000D000D01F921F92CDB7DEB76C017B01C5
:1057E0005A014901FB016081FC0180818CDFA11419
:1057F000B10409F49DC0DA82C982FC82EB820111F6
:1058000021C0AE014B5F5F4FB401C5010E94A3CB25
:105810005C018D819E81AF81B885892B8A2B8B2B72
:1058200009F486C0CE01059638DEF60180818F5FCF
:105830008083843130F3CE010196ABDFE2CF10E0FC
:1058400075010DC0750110E00AC0E114F104B9F34F
:105850008FEFE81AF80A10E0E114F10489F3AE01C1
:105860004B5F5F4FB401C5010E94A3CB5C014D802B
:105870005E806F8078844114510461047104E9F002
:10588000F0E24F16510461047104A9F0D301C20182
:105890008D97A109B1090297A105B10570F04BE2FE
:1058A000441651046104710441F05AE04516510454
:1058B00061047104D9F5112341F2F6018081482F6A
:1058C000410F5527551F453151052CF0853018F0F3
:1058D000CE0101965EDF81E0411451046104710440
:1058E00009F480E0180FF6018081810F8083112375
:1058F00069F01150AE014B5F5F4FB401C7010E94C8
:10590000A3CB7C01CE010596C8DDF1CF4114510433
:105910006104710469F0FAE04F16510461047104E6
:1059200009F08DCFCE01019634DF8ACF1F5F94CF6F
:1059300028960FB6F894DEBF0FBECDBFDF91CF9192
:105940001F910F91FF90EF90DF90CF90BF90AF909D
:105950009F908F907F906F905F904F9008952F92BF
:105960003F924F925F926F927F928F929F92AF92EF
:10597000BF92CF92DF92EF92FF920F931F93CF933C
:10598000DF9300D000D0CDB7DEB74C013B015A0108
:105990002E83232E280181E08093A1064091710679
:1059A000509172066091730670917406411551050D
:1059B0006105710571F0141615060CF080E08093F6
:1059C000E104109271061092720610927306109202
:1059D00074061091E10430906C0610926C06311040
:1059E00005C080915902882309F4AFC0C2010E940A
:1059F00087CB082F80E0C114D10419F0C6010E94A2
:105A000087CB1D821982E114F104B1F4402F50E0DC
:105A1000282F30E0CA01820F931F45976CF484E170
:105A200090E0841B950B821B930B97FD0196959537
:105A300087958D8381E0898301E025E932E9A20120
:105A4000BE016F5F7F4FCE010596B2DEE114F10417
:105A500089F08D81882321F01D8289818F5F898360
:105A600000E028E932E9A701BE016F5F7F4FCE0158
:105A700005969EDEC114D10451F000E025E932E91B
:105A8000A601BE016F5F7F4FCE01059691DE63E0F8
:105A900080E039DE8BE590E0A0E0B0E0112321F05A
:105AA00080E290E0A0E0B0E089839A83AB83BC837E
:105AB000CE010196F2DCC30138DD8DE590E0A0E077
:105AC000B0E0112321F080E290E0A0E0B0E0898313
:105AD0009A83AB83BC83CE010196DFDCC4010E94B4
