:100000000C9470140C94B0140C94B0140C94B014A0
:100010000C94B0140C94B0140C94B0140C94B01450
:100020000C94B0140C94B0140C94B0140C94B01440
:100030000C94B0140C94B0140C94B0140C94B01430
:100040000C94B0140C94E02A0C94B0140C94B014DA
:100050000C94B0140C94862A0C94B0140C94129640
:100060000C94B0140C94996C0C948F6C0C94B01488
:100070000C94B0140C94B0140C94B0140C94B014F0
:100080000C94B0140C94B0140C94B0140C94B014E0
:100090000C94B0140C94B0140C94B0140C94B014D0
:1000A0000C94B0140C94B0140C94B0140C94B014C0
:1000B0000C94B0140C94B0140C94B0140C94B014B0
:1000C0000C94B0140C94B0140C94B0140C94B014A0
:1000D0000C94B0140C94B0140C94B0140C94B01490
:1000E0000C94B014084AD73B3BCE016E84BCBFFDD4
:1000F000C12F3D6C74319ABD56833DDA3D00C77FF8
:1001000011BED9E4BB4C3E916BAAAABE0000008090
:100110003F05A84CCDB2D44EB93836A9020C50B91F
:10012000918688083CA6AAAA2ABE000000803F0744
:10013000634236B79BD8A71A39685618AEBAAB5582
:100140008C1D3CB7CC5763BD6DEDFD753EF6177247
:1001500031BF000000803F08000000BE9224491219
:100160003EABAAAA2ABECDCCCC4C3E00000080BE3D
:10017000ABAAAAAA3E00000000BF000000803F001A
:1001800000000000084178D3BB4387D1133D190E0E
:100190003CC3BD4282AD2B3E68EC8276BED98FE176
:1001A000A93E4C80EFFFBE01C4FF7F3F000000006E
:1001B00000004E414E494E495459494E46CDCCCC93
:1001C0003D0AD7233C17B7D13877CC2B329595E62B
:1001D000241FB14F0A000020410000C84200401C0B
:1001E0004620BCBE4CCA1B0E5AAEC59D74434F4D33
:1001F0004D554E49434154494F4E00445259525572
:100200004E004552524F525300494E464F0045430F
:10021000484F0041425300504C4100506C6561739F
:1002200065205265736574005052494E5445522002
:1002300048414C5445440025533A202553004B492E
:100240004C4C45442E20005072696E7465722068D3
:10025000616C7465642E206B696C6C282920636165
:100260006C6C6564210A006563686F3A00457272C0
:100270006F723A00506F7765724F66660A002044CD
:100280000020204D32303020530020284469736113
:10029000626C6564293A0046696C616D656E742014
:1002A00073657474696E67730020204D323031209D
:1002B00058004D617820416363656C6572617469B3
:1002C0006F6E2028756E6974732F73322900202099
:1002D0004D3230332058004D617820666565647278
:1002E000617465732028756E6974732F73290020FB
:1002F000520020204D323034205000416363656C41
:1003000065726174696F6E2028756E6974732F73DE
:1003100032292028503C7072696E742D61636365C8
:100320006C3E20523C726574726163742D6163632C
:10033000656C3E20543C74726176656C2D6163631C
:10034000656C3E2900204A002054002053002020E4
:100350004D323035204200416476616E6365642021
:1003600028423C6D696E5F7365676D656E745F747E
:10037000696D655F75733E20533C6D696E5F6665A0
:100380006564726174653E20543C6D696E5F747281
:100390006176656C5F66656564726174653E204A6E
:1003A0003C6A756E635F6465763E290020440020D8
:1003B000490020204D333031205000486F74656E65
:1003C00064205049440020496E76616C6964206560
:1003D00078747275646572200047322F473320624B
:1003E000616420706172616D65746572730A005397
:1003F0006C6565702E2E2E00436C69636B20746FE4
:1004000020526573756D652E2E2E004E6F204D6F38
:1004100076652E00456E642066696C65206C697394
:10042000740A00426567696E2066696C65206C69B4
:1004300073740A004E6F206D656469610A00286E4E
:100440006F2066696C65290043757272656E742051
:1004500066696C653A20004E6F74205344207072B8
:10046000696E74696E670A005344207072696E7415
:10047000696E67206279746520002E0A0044656CFD
:100480006574696F6E206661696C65642C204669CD
:100490006C653A200046696C652064656C6574651E
:1004A000643A002569730025696D2025697300256C
:1004B00069682025696D20256973002569642025F8
:1004C00069682025696D20256973002569792025D3
:1004D0006964202569682025696D202569730050AD
:1004E00072696E742074696D653A20006F6B006FDD
:1004F0006666000E0209020202FB01ED014445425C
:1005000055473A004D31313320530050533A300AA9
:100510000050533A310A00484550484553544F5310
:10052000204F46462E00434F4E4649475F455850A0
:100530004F5254004D4541545041434B00434F4F9F
:100540004C45525F54454D5045524154555245001B
:100550004348414D4245525F54454D5045524154E8
:1005600055524500424142595354455050494E4717
:100570000041524353004D4F54494F4E5F4D4F443D
:10058000455300544845524D414C5F50524F5445DD
:100590004354494F4E00455854454E4445445F4DE1
:1005A000323000435553544F4D5F4649524D5741E9
:1005B00052455F55504C4F4144004C464E5F575298
:1005C000495445004C4F4E475F46494C454E414DBE
:1005D00045004155544F5245504F52545F53445F6C
:1005E0005354415455530053445F575249544500A6
:1005F000524550454154004D554C54495F564F4C5F
:10060000554D45005344434152440050524F4D50C4
:10061000545F535550504F525400484F53545F410C
:100620004354494F4E5F434F4D4D414E4453004557
:100630004D455247454E43595F5041525345520034
:10064000434153455F4C494748545F4252494748EC
:10065000544E45535300544F47474C455F4C494710
:1006600048545300534F4654574152455F504F57DB
:100670004552004255494C445F50455243454E5403
:10068000004C4556454C494E475F44415441005A41
:100690005F50524F42450052554E4F555400415500
:1006A000544F4C4556454C005052494E545F4A4FAA
:1006B000420050524F4752455353004155544F52F8
:1006C00045504F52545F54454D50004155544F5280
:1006D00045504F52545F504F5300564F4C554D4567
:1006E0005452494300454550524F4D0042494E41F6
:1006F00052595F46494C455F5452414E534645520C
:100700000053455249414C5F584F4E5F584F464643
:10071000004649524D574152455F4E414D453A4D75
:1007200061726C696E20322E312E322E3720284DA8
:10073000617920323420323032362031353A323845
:100740003A35352920534F555243455F434F444571
:100750005F55524C3A6769746875622E636F6D2FEE
:100760004D61726C696E4669726D776172652F4D6D
:1007700061726C696E2050524F544F434F4C5F561C
:10078000455253494F4E3A312E30204D414348494E
:100790004E455F545950453A484550484553544F8B
:1007A000532045585452554445525F434F554E547B
:1007B0003A3120555549443A636564653261326681
:1007C0002D343161322D343734382D396231322DA8
:1007D000633535633632663336376666002F2F0051
:1007E0004D31343520533C696E6465783E206F7519
:1007F00074206F662072616E67652028302D312964
:100800000A003F4A206F7574206F662072616E6720
:10081000652028302E303120746F20302E33290A85
:10082000002058004F4646004F4E003B200020203D
:100830004D61783A2000200020204D696E3A20005A
:10084000203B200020204D323131205300250A006A
:1008500046523A0020466C6F773A20006469730074
:10086000656E0043290A0061626C656420286D6929
:100870006E2074656D702000436F6C642065787421
:100880007275646573206172652000486F6D652024
:100890002573204669727374004F666673657473BE
:1008A000204170706C696564004D494E2F4D415870
:1008B00020546F6F2046617200546F6F2066617222
:1008C0002066726F6D204D494E2F4D41580A0045EC
:1008D0004550524F4D2064697361626C65640A0033
:1008E0004D383400446F6E65207072696E74696EA5
:1008F000672066696C650A004D3737004D3331005B
:10090000496E76616C69642065787472756465728D
:100910000A0020204D323036205800486F6D652087
:100920006F6666736574004361703A0020746F6F80
:10093000206C6F6E6720657874727573696F6E20B6
:1009400070726576656E7465640A0020636F6C640E
:1009500020657874727573696F6E20707265766544
:100960006E7465640A0020573A00436F6F6C696EBD
:10097000672E2E2E00453120255300206661696CBC
:100980006564212042616420686561746572206934
:10099000640A00504944204175746F74756E650097
:1009A00023646566696E652044454641554C545F35
:1009B000004B4420004B4920004B5020002066692A
:1009C0006E697368656421205075742074686520B1
:1009D0006C617374204B702C204B6920616E642015
:1009E0004B6420636F6E7374616E74732066726FF4
:1009F0006D2062656C6F7720696E746F20436F6E37
:100A000066696775726174696F6E2E680A00504975
:100A100044204175746F74756E6500206661696C61
:100A20006564212074696D656F75740A00504944CE
:100A3000204175746F74756E6500206661696C6520
:100A400064212054656D70657261747572652074DF
:100A50006F6F20686967680A0050494420417574C7
:100A60006F74756E6500504944204379636C6573FB
:100A70000025532025692F256900204B643A20006A
:100A8000204B693A2000204B703A200020436C61D3
:100A90007373696320504944200A002054753A203A
:100AA00000204B753A2000206D61783A2000206DBF
:100AB000696E3A200020643A200020626961733A2E
:100AC000200048656174696E672E2E2E00207374B5
:100AD0006172740A00504944204175746F74756ED8
:100AE0006500206661696C6564212054656D7065E0
:100AF00072617475726520746F6F20686967680A27
:100B000000504944204175746F74756E65005049FA
:100B100044204175746F74756E6500A10000006912
:100B200000A20000006300B00000000900C1000046
:100B3000004100C20000004100C30000004100C4A9
:100B40000000004100C50000004100C60000004157
:100B500045C70000004300C80000004500C9000070
:100B6000004500CD0000004900D10000004E00D536
:100B70000000004F00D60000004F00D700000078B2
:100B800000DC0000005500DD0000005900E000001E
:100B9000006100E10000006100E20000006100E38C
:100BA0000000006100E40000006100E50000006159
:100BB00000E60000006165E70000006300E8000057
:100BC000006500E90000006500EA0000006500EB38
:100BD0000000006500EC0000006900ED0000006905
:100BE00000EE0000006900EF0000006900F1000065
:100BF000006E00F20000006F00F30000006F00F4D0
:100C00000000006F00F50000006F00F60000006FAC
:100C100000F80000006F00F90000007500FA000005
:100C2000007500FB0000007500FC0000007500FD71
:100C30000000007900FF000000790004010000417D
:100C400000050100006100060100004300070100EB
:100C50000063000C01000043000D01000063000E62
:100C600001000044000F0100006400110100006455
:100C7000001901000065001A01000045001B010079
:100C80000065001F010000670030010000490031CD
:100C90000100006900410100004C00420100006CAD
:100CA00000430100004E00440100006E00480100B6
:100CB000006E005801000052005901000072005AF5
:100CC00001000053005B01000073005F010000732E
:100CD0000060010000530061010000730065010025
:100CE0000074006F01000075007C0100007A007D37
:100CF0000100005A007E0100007A009201000066A7
:100D000000E30200007800222000002E001E2100D7
:100D100000507822210000544D902100003C2D927B
:100D20002100002D3EB02100000300BB2100000483
:100D3000003C2200007E00482200007E3D60220030
:100D400000213D612200003D00642200003C3D6521
:100D50002200003E3DF12300000700A03000003DCE
:100D60000021F301000200C2F401000500A200000E
:100D700000EC00B0000000DF00E4000000E100F63D
:100D8000000000EF00F7000000FD00FC000000F58F
:100D900000E3020000EB0087030000A5008F0300C2
:100DA00000F40098030000F2009E030000E300A39B
:100DB000030000F600A9030000F400AC030000E00B
:100DC00000AD030000E300B1030000E000B2030047
:100DD00000E200B5030000E300B8030000F200BC2D
:100DE000030000E400BE030000E300C0030000F7BE
:100DF00000C1030000E600C3030000E500902100ED
:100E0000007F00922100007E001A220000E8001EF0
:100E1000220000F30088250000FF0002300000A13E
:100E2000000C300000A2000D300000A3009B300039
:100E300000DE009C300000DF00A03000003D00A17B
:100E4000300000A700A2300000B100A3300000A8CD
:100E500000A4300000B200A5300000A900A63000B8
:100E600000B300A7300000AA00A8300000B400A919
:100E7000300000AB00AA300000B500AB300000B677
:100E800000AC300000B6DEAD300000B700AE300080
:100E900000B7DEAF300000B800B0300000B8DEB1FF
:100EA000300000B900B2300000B9DEB3300000BA43
:100EB00000B4300000BADEB5300000BB00B6300030
:100EC00000BBDEB7300000BC00B8300000BCDEB9AB
:100ED000300000BD00BA300000BDDEBB300000BEF7
:100EE00000BC300000BEDEBD300000BF00BE3000E0
:100EF00000BFDEBF300000C000C0300000C0DEC157
:100F0000300000C100C2300000C1DEC3300000AFBD
:100F100000C4300000C200C5300000C2DEC6300090
:100F200000C300C7300000C3DEC8300000C400C9E1
:100F3000300000C4DECA300000C500CB300000C65F
:100F400000CC300000C700CD300000C800CE30001B
:100F500000C900CF300000CA00D0300000CADED186
:100F6000300000CADFD2300000CB00D3300000CB0D
:100F7000DED4300000CBDFD5300000CC00D630000E
:100F800000CCDED7300000CCDFD8300000CD00D957
:100F9000300000CDDEDA300000CDDFDB300000CEE7
:100FA00000DC300000CEDEDD300000CEDFDE3000C1
:100FB00000CF00DF300000D000E0300000D100E1C1
:100FC000300000D200E2300000D300E3300000AC7B
:100FD00000E4300000D400E5300000AD00E6300051
:100FE00000D500E7300000AE00E8300000D600E990
:100FF000300000D700EA300000D800EB300000D904
:1010000000EC300000DA00ED300000DB00EF3000D3
:1010100000DC00F2300000A600F3300000DD00F438
:10102000300000B3DEF7300000DCDEFA300000A64E
:10103000DEFB300000A500FC300000B000FD3000F9
:1010400000A400074E0000FB0086510000FC004396
:10105000530000FA0064FF0000A40065FF0000A533
:101060000066FF0000A60067FF0000A70068FF0001
:1010700000A80069FF0000A9006AFF0000AA006B39
:10108000FF0000AB006CFF0000AC006DFF0000AD86
:10109000006EFF0000AE006FFF0000AF0070FF00A9
:1010A00000B00071FF0000B10072FF0000B20073D9
:1010B000FF0000B30074FF0000B40075FF0000B52E
:1010C0000076FF0000B60077FF0000B70078FF0051
:1010D00000B80079FF0000B9007AFF0000BA007B79
:1010E000FF0000BB007CFF0000BC007DFF0000BDD6
:1010F000007EFF0000BE007FFF0000BF0080FF00F9
:1011000000C00081FF0000C10082FF0000C2008318
:10111000FF0000C30084FF0000C40085FF0000C57D
:101120000086FF0000C60087FF0000C70088FF00A0
:1011300000C80089FF0000C9008AFF0000CA008BB8
:10114000FF0000CB008CFF0000CC008DFF0000CD25
:10115000008EFF0000CE008FFF0000CF0090FF0048
:1011600000D00091FF0000D10092FF0000D2009358
:10117000FF0000D30094FF0000D40095FF0000D5CD
:101180000096FF0000D60097FF0000D70098FF00F0
:1011900000D80099FF0000D9009AFF0000DA009BF8
:1011A000FF0000DB009CFF0000DC009DFF0000DD75
:1011B000009EFF0000DE009FFF0000DF00E5FF0053
:1011C000005C0000000000010204040000001C1C80
:1011D0000C040404020100000000000408100000D8
:1011E00000000003002D2D2D2D2D2D007C4D617252
:1011F0006C696E7C0001002D2D2D2D2D2D002500FC
:10120000503A002568753A2530326875002530322D
:1012100068753A25303268750025303268752725A3
:101220003032687500200020003A003A00001C1F90
:1012300011111F00000006191803130C00040E1FE3
:10124000041C000000000E1315110E00001C1018E5
:101250001705060500040A0A0A0A11110E0C1212DB
:101260000C00000000001F1511151F0000426564EE
:1012700000456E636C6F7375726500450020002534
:1012800000202020202020200020002020202000DE
:10129000200020002F00657272005072696E742069
:1012A00041626F72746564004D3831004D32350013
:1012B00050617573696E672E2E2E004D32340046D4
:1012C000696C2E204469612E004520696E206D6D89
:1012D0005E330020022046616374002002204D61CD
:1012E00078002002204D696E004F6666004F6E0048
:1012F0004175746F74656D70004D696E2054726134
:1013000076656C205370656564004D696E20566586
:101310006C6F63697479004D61782040205370656B
:101320006564004D6178204520416363656C004D24
:101330006178204020416363656C0054726176657A
:101340006C20416363656C00526574726163742044
:10135000416363656C00416363656C004020737496
:101360006570732F6D6D00416476616E63656420F6
:1013700053657474696E6773004D34323800466982
:101380006C616D656E740054656D70657261747525
:1013900072650053746570732F6D6D004A756E63CE
:1013A00074696F6E2044657600416363656C657295
:1013B0006174696F6E004D617820537065656420BB
:1013C000286D6D2F73290053657420486F6D65205B
:1013D0004F66667365747300436F6E6669677572F6
:1013E0006174696F6E004E6F7A7A6C650046616E4B
:1013F00020537065656400436F6E6669677572613E
:1014000074696F6E00526573746F7265204465660F
:1014100061756C7473005072656865617420242076
:10142000436F6E6600416476616E63656420536548
:101430007474696E6773004D61696E003F004261AC
:10144000636B0053746F70004E6F204D656469616B
:10145000005072696E742066726F6D204D6564690C
:1014600061004368616E6765204D65646961004D88
:1014700032310053776974636820506F776572204A
:101480004F6E004D38300053776974636820506F99
:10149000776572204F666600436F6E666967757286
:1014A0006174696F6E0054656D70657261747572F8
:1014B00065004D6F74696F6E00526573756D6520C0
:1014C0005072696E740054756E650053746F7020AD
:1014D0005072696E74005061757365205072696E48
:1014E0007400496E666F2053637265656E003F003D
:1014F0005374617274205072696E740043616E633C
:10150000656C005072696E740043616E6E6F74207A
:10151000656E746572207375626469723A200005A5
:10152000202E2E004D61696E002100486F74656E9B
:101530006420746F6F20636F6C64004261636B00A2
:1015400050726F63656564004D6F766520457874F1
:101550007275646572004D6F74696F6E00446973D3
:1015600061626C65205374657070657273004D38EC
:1015700034004175746F20486F6D65004732380044
:101580004D61696E0017021302436F6F6C646F77D1
:101590006E005072656865617420240046616E209B
:1015A0005370656564004E6F7A7A6C65004D6169B1
:1015B0006E00466C6F770046616E205370656564FF
:1015C000004E6F7A7A6C65005370656564004D61FA
:1015D000696E006F70656E00545249474745524529
:1015E00044003A20007A5F6D696E00795F6D696E24
:1015F00000785F6D696E005265706F7274696E6716
:1016000020656E6473746F70207374617475730AEF
:1016100000000000000000000000000000576172A0
:101620006E696E673A20486F6D696E672042756D0E
:10163000702044697669736F72203C20310A000281
:1016400002040000574300005243000034430000EE
:10165000A0400000A04000000040000057430000F0
:10166000524300003443000000000000000000006E
:10167000000048617264636F64656420446566615C
:10168000756C742053657474696E6773204C6F6158
:10169000646564000000484300004843333353400E
:1016A0000000C8410000A0420000A04200007A45AE
:1016B00021F1C8424C0400004C040000640000000A
:1016C0001027000020286D6D2900204600204800CA
:1016D00020204D3134352053004D617465726961AD
:1016E0006C2068656174757020706172616D6574DD
:1016F0006572730020204D3134392043203B205542
:101700006E69747320696E2043656C736975730A22
:101710000054656D706572617475726520556E69EF
:101720007473002020473231203B004C696E6561A4
:101730007220556E6974730020436F756E74205863
:101740003A0045310045002C2073797374656D2093
:1017500073746F7070656421204865617465725F91
:1017600049443A2000544845524D414C2052554E70
:101770004157415900546865726D616C2052756E15
:10178000617761790048656174696E6720466169B7
:101790006C65640048656174696E67206661696C98
:1017A0006564004572723A204D415854454D5000D1
:1017B0004D415854454D5020747269676765726594
:1017C00064004572723A204D494E54454D50004DCB
:1017D000494E54454D50207472696767657265645F
:1017E00000202F0020403A007C3C3E5E2B3D3F2FE6
:1017F0005B5D3B2C2A225C004D6564696120496E6B
:101800006974204661696C005344206361726420EE
:101810006F6B0A006F70656E526F6F74206661693E
:101820006C65640A00766F6C756D652E696E6974FF
:10183000206661696C65640A004E6F205344206322
:101840006172640A00534420636172642072656CA3
:1018500065617365640A000A4D3234004D323320ED
:101860002573002E0A006F70656E206661696C65D5
:10187000642C2046696C653A200046696C652073CB
:10188000656C65637465640A002053697A653A2063
:101890000046696C65206F70656E65643A2000458E
:1018A0004E4420535542524F5554494E450A00224A
:1018B00020706F73002220706172656E743A22008E
:1018C000535542524F5554494E452043414C4C20AC
:1018D0007461726765743A220053756263616C6C5F
:1018E000204F766572666C6F770045786365656436
:1018F0006564206D617820535542524F5554494ECE
:10190000452064657074683A0057726974696E673F
:1019100020746F2066696C653A2000667265736892
:1019200000646F696E67002066696C653A20004E3E
:101930006F7720002F6175746F25632E67006D61CE
:10194000726C696E66772E6F7267006D61726C697A
:101950006E66772E6F726700322E312E322E370070
:10196000322E312E322E3700006D61726C696E6638
:10197000772E6F7267006D61726C696E66772E6F7D
:1019800072670020322E312E322E370020014001A6
:1019900030013B01400136016001310170012C0131
:1019A00090012701B0012201C0011D01F0011801C1
:1019B0001002130130020E016002090190020401BD
:1019C000C002FF000003FA004003F5008003F000AE
:1019D000D003EB002004E6007004E100E004DC002A
:1019E0004005D700C005D2004006CD00D006C80093
:1019F0008007C3003008BE00F008B900C009B40079
:101A0000B00AAF00B00BAA00D00CA500000EA000D9
:101A1000500F9B00C01096005012910000148C00D3
:101A2000C0158700B0178200B0197D00D01B780068
:101A3000001E730040206E0090226900F0246400B4
:101A400040275F0090295A00E02B5500102E5000CF
:101A500020304B0010324600E033410090353C000E
:101A60001037370070383200A0392D00B03A280006
:101A7000A03B2300603C1E00103D1900903D140067
:101A8000103E0F00703E0A00C03E0500003F0000FF
:101A9000403FFBFF803FF6FFC03FF1FF2020506C2E
:101AA000616E6E65724275666665724279746573C1
:101AB0003A20002046726565204D656D6F72793A57
:101AC000200020436F6D70696C65643A204D617928
:101AD00020323420323032360A00204C61737420B8
:101AE000557064617465643A20323032362D30317D
:101AF0002D3232207C20417574686F723A20283371
:101B000044776F726B2C2068747470733A0A004DBE
:101B100061726C696E20322E312E322E370A00200F
:101B2000536F6674776172652052657365740A003D
:101B3000205761746368646F672052657365740A27
:101B4000002042726F776E206F7574205265736546
:101B5000740A002045787465726E616C205265735A
:101B600065740A00506F77657255700A007374616E
:101B700072740A004732385859004D313030310004
:101B80006F6B006572726F722077726974696E672D
:101B900020746F2066696C650A00446F6E6520735F
:101BA0006176696E672066696C652E0A00456E6411
:101BB00073746F70730025532025632025632025DF
:101BC0006320256300656E6473746F7073206869A9
:101BD000743A200000000A0B02090C0D0E080703DE
:101BE00004010000000000000000000000000000F0
:101BF00000000000000000000000000000000000E5
:101C000012111000000000000000000000000000A1
:101C10000000000000000000000024F404D9201B94
:101C2000C40C5C0E9804C4095F0265077101F405D9
:101C3000F900FB04B30048048700C103690058039E
:101C4000550003034500BE023A00840231005302EE
:101C50002A002902250004022000E4011C00C8011A
:101C60001900AF01170098011400840113007101DD
:101C700010006101100051010E0043010D003601FA
:101C80000B002B010B0020010B00150109000C01BA
:101C9000090003010800FB000800F3000800EB0046
:101CA0000700E4000600DE000600D8000600D200AF
:101CB0000600CC000500C7000500C2000500BD00FD
:101CC0000400B9000400B5000400B1000400AD0038
:101CD0000400A9000400A5000300A20003009F0067
:101CE00004009B000300980003009500020093008D
:101CF0000300900003008D0002008B0003008800A9
:101D000002008600020084000300810002007F00C0
:101D100002007D0002007B000200790002007700D3
:101D200001007600020074000200720001007100E0
:101D300002006F0002006D0001006C0002006A00EA
:101D400001006900020067000100660001006500F3
:101D500001006400020062000100610001006000F7
:101D600001005F0002005D0001005C0001005B00FB
:101D700001005A00010059000100580001005700FD
:101D800001005600010055000100540001005300FD
:101D900000005300010052000100510001005000FA
:101DA00001004F0001004E0000004E0001004D00F8
:101DB00001004C0001004B0000004B0001004A00F4
:101DC00001004900010048000000480001004700F0
:101DD00001004600000046000100450000004500EB
:101DE00001004400010043000000430001004200E4
:101DF00000004200010041000000410001004000DD
:101E000001003F0000003F0001003E0000003E00D6
:101E100001003D0000003D0001003C0000003C00CE
:101E200000003C0001003B0000003B0001003A00C4
:101E300000003A00010039000000390001003800BC
:101E400000003800000038000100370000003700B3
:101E500001003600000036000000360001003500A9
:101E6000000035000000350001003400000034009F
:101E70000000340001003300000033000000330094
:101E80000100320000003200000032000100310089
:101E9000000031000000310001003000000030007F
:101EA0000000300001002F0000002F0000002F0074
:101EB00000002F0001002E0000002E0000002E0068
:101EC00001002D0000002D0000002D0000002D005D
:101ED00001002C0000002C0000002C0000002C0051
:101EE00001002B0000002B0000002B0000002B0045
:101EF00001002A0000002A0000002A0000002A0039
:101F0000010029000000290000002900000029002C
:101F1000000029000100280000002800000028001F
:101F20000000280000002800010027000000270012
:101F30000000270000002700000027000100260005
:101F400000002600000026000000260000002600F9
:101F500001002500000025000000250000002500EC
:101F600000002500000025000100240000002400DE
:101F700000002400000024000000240001002300D1
:101F800000002300000023000000230000002300C5
:101F900000002300000023000100220000002200B6
:101FA00000002200000022000000220000002200A9
:101FB000010021000000210000002100000021009C
:101FC000000021000000210000002100010020008D
:101FD0000000200000002000000020000000200081
:101FE00000002000000020000000200001001F0071
:101FF00000001F0000001F0000001F0000001F0065
:1020000000001F0000001F0001001E0000001E0055
:1020100000001E0000001E00000024F4D43050C355
:102020008E20C2A24017828B7011127A910D816CA2
:10203000D90AA861E108C7586607615143061E4BDB
:102040005D05C145A7041A411104093D9803713982
:1020500031034036DB0265339102D4305402802EC6
:102060001D02632CEE01752AC501B028A0011027BE
:1020700081018F2564012B244B01E0223401AC2126
:102080001F018D200D01801FFC00841EED00971D97
:10209000DF00B81CD200E61BC600201BBC00641A7F
:1020A000B200B219A8000A19A0006A189900D11745
:1020B000910040178B00B516840031167E00B315D1
:1020C00079003A157300C7146F0058146A00EE13B4
:1020D00066008813630025135E00C7125B006C1254
:1020E000570015125400C111510070114F002111F9
:1020F0004B00D61049008D104700461044000210D6
:102100004200C00F4000800F3E00420F3C00060F0F
:102110003B00CB0E3800930E37005C0E3500270EC7
:102120003400F30D3200C10D3100900D3000600D10
:102130002E00320D2D00050D2C00D90C2B00AE0CFD
:102140002900850C29005C0C2700350C27000E0C9B
:102150002600E80B2400C40B2400A00B23007D0BF9
:1021600023005A0B2100390B2100180B2000F80A1C
:102170001F00D90A1E00BB0A1E009D0A1D00800A0E
:102180001D00630A1C00470A1B002C0A1B00110AD1
:102190001A00F7091A00DD091900C4091900AB0972
:1021A0001900920917007B091800630917004C09F0
:1021B000160036091600200916000A091500F50850
:1021C0001500E0081400CC081400B8081400A40896
:1021D0001400900813007D0812006B0813005808C3
:1021E00012004608120034081100230811001208DA
:1021F000110001081100F0071000E0071000D007DF
:102200001000C0071000B0070F00A10710009107D1
:102210000E0083070F0074070F0065070E005707B5
:102220000E0049070E003B070D002E070E00200789
:102230000D0013070D0006070D00F9060C00ED0652
:102240000D00E0060C00D4060C00C8060C00BC060D
:102250000C00B0060C00A4060B0099060C008D06BD
:102260000B0082060B0077060B006C060B00610664
:102270000A0057060B004C060A0042060A00380600
:102280000A002E060A0024060A001A060A00100692
:10229000090007060A00FD050900F4050900EB0521
:1022A0000900E2050900D9050900D0050900C705A4
:1022B0000900BE050900B5050800AD050800A50523
:1022C00009009C050800940508008C050800840599
:1022D00008007C050800740508006C05070065050A
:1022E00008005D050700560508004E050700470574
:1022F00007004005080038050700310507002A05DA
:102300000700230507001C050600160507000F053A
:1023100007000805060002050700FB040600F50497
:102320000700EE040600E8040600E2040700DB04F0
:102330000600D5040600CF040600C9040600C30445
:102340000600BD040600B7040600B1040500AC0495
:102350000600A6040600A00405009B0406009504E0
:102360000500900406008A04050085040500800429
:1023700006007A04050075040500700405006B046E
:10238000050066040500610405005C0405005704AF
:102390000500520405004D040500480405004304EF
:1023A00005003E0404003A0405003504050030042D
:1023B00004002C04050027040400230405001E0467
:1023C00004001A04040016040500110404000D049E
:1023D0000400090405000404040000040400FC03D4
:1023E0000400F8030400F4030400F0030400EC0309
:1023F0000400E8030400E4030400E0030400DC0339
:102400000400D8030400D4030400D0030400CC0368
:102410000400C8030300C50303005D2E00006E2303
:10242000000013180000AF0E00003D080000630418
:10243000000045020000270100004D6F7665202452
:102440006D6D00302E303235004D6F766520302EA8
:10245000316D6D004D6F766520316D6D004D6F767D
:10246000652031306D6D004D6F7665204178697360
:10247000004D6F7665202A004D6F76652040005034
:1024800072696E742066726F6D204D6564696100BB
:1024900020002000200000002200250028002B0042
:1024A0002E003100340002010000050108010B017B
:1024B00000002100240027002A002D0030003300F6
:1024C00001010000040107010A01050505050705D2
:1024D00008080808020202020A0A080804040404A0
:1024E00001010101010101010303030303030303CC
:1024F000040707070C0C0C0C0C0C0C0C020202025B
:1025000006060606060606060B0B0B0B0B0B0B0B43
:1025100001021020200808102040102040800201F5
:1025200002010804020101020408102040808040DA
:1025300020100804020180040201804020100804D9
:102540000201080402010102040810204080010277
:10255000040810204080200020002000486F6D6992
:102560006E67204661696C656400FFFFFF43616E22
:102570006E6F74206F70656E20737562646972206F
:102580000020453A00205A3A0020593A00583A00B3
:10259000204500205A0020590020204D3932205873
:1025A0000053746570732070657220756E697400D5
:1025B000220A00556E6B6E6F776E20636F6D6D61D2
:1025C0006E643A202200627573793A2070617573E7
:1025D000656420666F7220696E7075740A0062759A
:1025E00073793A2070617573656420666F72207527
:1025F0007365720A00627573793A2070726F636551
:102600007373696E670A004D656469612052656D78
:102610006F766564004D6564696120496E7365720B
:10262000746564004D3131322053687574646F777E
:102630006E0053544F505045442E20005072696E26
:102640007465722073746F707065642064756520A2
:10265000746F206572726F72732E204669782074D1
:102660006865206572726F7220616E642075736593
:10267000204D39393920746F20726573746172741A
:102680002E202854656D70657261747572652069BD
:10269000732072657365742E2053657420697420ED
:1026A00061667465722072657374617274696E67B5
:1026B000290A004E6F20436865636B73756D207740
:1026C000697468206C696E65206E756D6265722C28
:1026D000204C617374204C696E653A20004D32398C
:1026E000004E6F20436865636B73756D2077697466
:1026F00068206C696E65206E756D6265722C204C69
:10270000617374204C696E653A2000636865636B81
:1027100073756D206D69736D617463682C204C61F5
:102720007374204C696E653A20004C696E65204ECA
:10273000756D626572206973206E6F74204C6173D1
:1027400074204C696E65204E756D6265722B312C5C
:10275000204C617374204C696E653A20004D313114
:10276000300053657269616C2073746174757320F5
:102770006D69736D617463680A005344207265610A
:1027800064206572726F720A004B494C4C2062756E
:1027900074746F6E2F70696E0A002121204B494CB2
:1027A0004C206361757365642062792000746F6FDB
:1027B000206D75636820696E616374697665207445
:1027C000696D65202D2063757272656E7420636F6C
:1027D0006D6D616E643A20002121204B494C4C20E4
:1027E0006361757365642062792000DB0FC93F4522
:1027F000BCDA3F8FB30240FCF0274056946140FEA4
:102800004B9B4084A5D840E0231841346A5641E8E8
:1028100059974164DBD5416E271742B4B75542CE74
:102820001A9742C8AED542B5885A43D40684BFA68B
:102830005FA7BF7443E0BF10B11AC01C2C58C0E89A
:10284000F697C0B849D6C04E4E17C124D355C180A3
:102850002497C1A0B5D5C1121A17C244AE55C2788B
:102860001797C26CACD5C267885AC320746F6F20AB
:102870006C6F6E6720657874727573696F6E207007
:10288000726576656E7465640A0020636F6C6420FF
:10289000657874727573696F6E2070726576656E97
:1028A0007465640A006F6B0A00526573656E643A62
:1028B0002000484550484553544F532052656164A9
:1028C000792E005072696E74696E672E2E2E00503C
:1028D00072696E742050617573656400BFB5A9BEDE
:1028E00011241FBECFEFD1E2DEBFCDBF00E00CBF91
:1028F00084B78093FA1114BE0FB6F894A89580910E
:102900006000886180936000109260000FBE12E04A
:10291000A0E0B2E0E2EFF7E901E00BBF02C00790F0
:102920000D92A63FB107D9F721E1A6EFB2E001C0B1
:102930001D92AA3FB207E1F714E1CFE6D4E100E02F
:1029400006C021970109802FFE010E9470C7CE3674
:10295000D10780E00807A9F70E9411B70C94E8CBD3
:102960000C9400000F931F93CF93DF93CDB7DEB786
:1029700060970FB6F894DEBF0FBECDBF8C01DC01AF
:10298000ED91FC910280F381E02DBE016F5F7F4FDE
:102990001995882309F464C08981807CC9F56F8109
:1029A000637070E0762F6627770F770F8885B4E025
:1029B0008B9FC0011124682B792B89858295869580
:1029C00086958370682B6F5F7F4F90E080E02A854B
:1029D0002370220F3B8537FB332730F9232B3E81B1
:1029E0003F70230F3327331F2750310904C0660F70
:1029F000771F881F991F2A95D2F760960FB6F89413
:102A0000DEBF0FBECDBFDF91CF911F910F91089513
:102A1000803419F568856695669570E090E080E0F1
:102A2000CB01772766272A85622B098510E0102FB6
:102A30000027012E000C220B330B602B712B822BF5
:102A4000932B6F5F7F4F8F4F9F4F4AE0660F771F2B
:102A5000881F991F4A95D1F7D0CF8BE0F801848366
:102A600060E070E0CB01C9CFFC0182810895CF9373
:102A7000DF93C091280FD091290F81E0CE31D1058D
:102A8000E4F020E030E040E05FE36091240F7091DB
:102A9000250F8091260F9091270F0E9497C70E94C3
:102AA000DBC86C1B7D0B77FF03C0719561957109C5
:102AB00081E0633071050CF080E0DF91CF910895E3
:102AC000FC0190E1A7E2B4E001900D929A95E1F744
:102AD0000895AF92BF92CF92DF92EF92FF920F9341
:102AE0001F93CF93DF93CDEFD4E001ED14E08DE0A1
:102AF000A82E85E0B82EC12CD12C7601C394699103
:102B00007991899199910E941FC3288939894A89AD
:102B10005B890E9480C30E94E0C8F80161937193B1
:102B2000819391938F01C616D706E806F90610F433
:102B30006B017C01AC16BD0611F76FEF7FEFCB0187
:102B4000A70196010E94DFC62093E1043093E204BE
:102B50004093E3045093E404DF91CF911F910F91D0
:102B6000FF90EF90DF90CF90BF90AF900895CF92FD
:102B7000DF92EF92FF928091D103882309F457C02E
:102B8000C090CD03D090CE03E090CF03F090D0035F
:102B900020E030E0A901C701B6010E941BC38823D1
:102BA00009F445C020E030E040E05FE3C701B60132
:102BB0000E9480C39B01AC010E9480C32BED3FE0CB
:102BC00049E450E40E9480C39B01AC0160E070E0E6
:102BD00080E89FE30E9473C86B017C01C092C70329
:102BE000D092C803E092C903F092CA036091100228
:102BF00070911102072E000C880B990B0E9421C3C3
:102C00002AE037ED43E25CE30E9480C3A70196010E
:102C10000E9480C3609350027093510280935202CD
:102C200090935302FF90EF90DF90CF900895C12CC6
:102C3000D12C80E8E82E8FE3F82ED0CFCF93DF930E
:102C400024E0829FC0011124EC01C856DB4FFC0137
:102C5000E55AFB4F85559C4FDC012D913D914D91DF
:102C60005C9160817181828193810E9497C76883A2
:102C700079838A839B83DF91CF9108958F929F926E
:102C8000AF92BF92CF92DF92EF92FF92CF93DF93FA
:102C900020911402222309F48EC0EC018091AA0332
:102CA000E82E80FF2CC08090160290901702A09012
:102CB0001802B0901902288139814A815B81C501CF
:102CC000B4010E94BDC9181624F488829982AA8290
:102CD000BB828090220290902302A0902402B090A8
:102CE0002502288139814A815B81C501B4010E9496
:102CF0001BC387FF04C088829982AA82BB82E1FE3F
:102D00002CC080901A0290901B02A0901C02B090E0
:102D10001D022C813D814E815F81C501B4010E945D
:102D2000BDC9181624F48C829D82AE82BF82809029
:102D3000260290902702A0902802B09029022C81B0
:102D40003D814E815F81C501B4010E941BC387FF95
:102D500004C08C829D82AE82BF82E2FE2CC0C090F5
:102D60001E02D0901F02E0902002F09021022885E0
:102D700039854A855B85C701B6010E94BDC9181611
:102D800024F4C886D986EA86FB86C0902A02D090B1
:102D90002B02E0902C02F0902D02288539854A857F
:102DA0005B85C701B6010E941BC387FF04C0C886AC
:102DB000D986EA86FB86DF91CF91FF90EF90DF9076
:102DC000CF90BF90AF909F908F9008959C0197FFF8
:102DD00026C0EE27FF27E81BF90B2D398FEF3807A8
:102DE0000CF05DC08DE280938C03CF0164E670E04F
:102DF0000E945DC7CB012AE030E0B9010E945DC7A7
:102E0000805D80938D03CF01B9010E945DC7CB0126
:102E1000B9010E945DC7805D80938E032AC0283E61
:102E200083E03807B4F1C90168EE73E00E945DC722
:102E3000CB01EAE0F0E0BF010E945DC7805D8093B6
:102E40008C03C90164E670E00E945DC7CB01BF013D
:102E50000E945DC7805D80938D03C901BF010E9400
:102E60005DC7CB01BF010E945DC7805D80938E036B
:102E7000F901CF016AE070E00E945DC7805D809338
:102E80008F038CE893E008958DE237FDC5CF80E293
:102E9000C3CFF90180E2243631050CF0A4CF80E2E3
:102EA00080938C0380938D03EA30F1056CF38DE2FF
:102EB00037FF80E280938D03CF016AE070E00E94CB
:102EC0005DC7605D60938E03D4CF9C01843691050D
:102ED00044F164E670E00E945DC7CB016AE070E0F7
:102EE0000E945DC7805D80938D0380E22A303105AA
:102EF0005CF0EAE0F0E0C901BF010E945DC7CB01D0
:102F0000BF010E945DC7805D80938E03C9016AE0A6
:102F100070E00E945DC7805D80938F038DE893E031
:102F2000089580E237FFDFCF3195219531098DE299
:102F3000DACF94E6899F9001112421583F4FC901AF
:102F40006FEF70E00E945DC7462FE72F862F91E359
:102F5000643609F090E290938C038A30E0F0C90166
:102F600066EF79E00E945DC7CB016AE070E00E94E5
:102F70005DC7805D80938D03842F9E2F6AE070E093
:102F80000E945DC7805D80938E0385E280938F03EE
:102F90008CE893E0089580E2EDCFFC0184910895E0
:102FA000FC0180810895AF92BF92CF92DF92EF92A1
:102FB000FF920F931F93CF93DF93EC015B018A0184
:102FC000FB01199587FD16C0C82ED12CF12CE12CE0
:102FD0002196F801C082D182E282F382CE01DF9194
:102FE000CF911F910F91FF90EF90DF90CF90BF9006
:102FF000AF900895982F907E903CA9F48F7190E047
:10300000B0E0A0E06C017D0156E0CC0CDD1CEE1CB4
:10301000FF1C5A95D1F7CE010196F50119958F73D2
:10302000C82A2296D6CF982F907F903E11F58F70A8
:1030300090E0B0E0A0E06C017D0136E0CC0CDD1C3E
:10304000EE1CFF1C3A95D1F7CE010196F5011995BA
:103050008F73C82A46E0CC0CDD1CEE1CFF1C4A9581
:10306000D1F7CE010296F50119958F73C82A2396E0
:10307000B0CF982F987F903F79F5877090E0B0E0BF
:10308000A0E06C017D0186E0CC0CDD1CEE1CFF1C79
:103090008A95D1F7CE010196F50119958F73C82A4B
:1030A00096E0CC0CDD1CEE1CFF1C9A95D1F7CE01EE
:1030B0000296F50119958F73C82A26E0CC0CDD1C09
:1030C000EE1CFF1C2A95D1F7CE010396F501199548
:1030D0008F73C82A24967DCF982F907C903841F426
:1030E000807C803869F42196CE01F5011995F8CFDE
:1030F0008E7F8D3F28F02196CE01F5011995F8CFEE
:10310000C12CD12C760165CF609110027091110213
:10311000072E000C880B990B0E9421C32AE037ED83
:1031200043E25CE30E9480C32091C7033091C8034F
:103130004091C9035091CA030E9480C3609350021A
:10314000709351028093520290935302089580919C
:103150009204811104C0809170048093E904089561
:1031600080919D108823F1F02FEF3FEF30933602CE
:1031700020933502815080939D10ECEFFEE0882370
:1031800051F08150990B2BE1289FF001299FF00D00
:103190001124E157F04F8BE1A1EEBEE001900D92BA
:1031A0008A95E1F720919D10211105C08091A7100B
:1031B00080648093A71081E090E0A0E0B0E021114E
:1031C00003C080E090E0DC018093890490938A043E
:1031D000A0938B04B0938C041092850481E08093BB
:1031E000870483E0809340020895CF93DF93EC013E
:1031F000642F70E090E080E00E9421C329EC38EC5D
:1032000048EC5EE30E9473C820E030E040E05FE3FA
:103210000E9497C70E94E0C86883DF91CF9108950C
:1032200070E090E080E00E9421C329EC38EC48EC8B
:103230005EE30E9473C820E030E040E05FE30E945C
:1032400097C70E94E0C8862F74CEE091920484E074
:10325000E802F0011124EE52FC4F8091700490E0DE
:10326000938382830895CF93DF93EC01CB01BA015E
:103270000E9421C320E030E048EC52E40E9473C871
:103280002FE632E143E85AE30E9497C768837983C7
:103290008A839B83DF91CF910895CF93DF93EC01D5
:1032A000CB01BA010E9421C320E030E048EC52E497
:1032B0000E9473C82FE632E143E85AE30E9497C7A1
:1032C000688379838A839B83DF91CF910895CF931D
:1032D000DF93EC01CB01BA010E941FC32AE037ED56
:1032E00043E25DE30E9473C80E94E0C8688379836B
:1032F0008A839B83DF91CF910895CF93DF93EC0175
:10330000CB01BA010E9421C32AE037ED43E25DE31D
:103310000E9473C8688379838A839B83DF91CF91EE
:103320000895CF93DF93EC01CB01BA010E9421C332
:10333000688379838A839B83DF91CF910895FC0111
:10334000518340830895CB01C0CDCF93DF93EC012F
:10335000CB01BA010E9421C320E030E04AE754E4E7
:103360000E9473C827E137EB41ED58E30E9497C7ED
:10337000688379838A839B83DF91CF910895A9CB5A
:10338000A8CBA7CBA6CB90E080E0089520918E0F2C
:10339000833021F425FD0CC024FD0CC030E0A901D0
:1033A00002C0559547958A95E2F7CA018170089544
:1033B00081E0089580E0089580911B0384FD0BC097
:1033C00080911D0387FD07C090911E03937081E0DB
:1033D00019F480E0089581E008952FEB280F2A3139
:1033E00008F047C0E22FF0E080911B0390911C038E
:1033F000A0911D03B0911E0304C0B695A7959795A3
:1034000087952A95D2F780FD02C081700895EF5FFD
:10341000FC4FE081EE2341F18091C2049091C304FE
:10342000E80FF92FF11D808190ED980F9A3030F060
:103430008E3251F4818180538A3098F4F0930003E6
:10344000E093FF0281E008958D3211F08B3249F450
:10345000818190ED980F9A3088F38E3211F4828139
:10346000EACFF0E0E0E0EACF109200031092FF0212
:10347000E9CF80E00895B1DF882341F081E0209119
:10348000FF0230910003232B09F480E0089580911E
:103490008E0C813069F09091A71092FB882780F9FB
:1034A00092FF07C097FB882780F991E0892708954C
:1034B00081E008959091500F80914F0F891718F077
:1034C000891B19F4E4CF805FFBCF81E008958EBDA6
:1034D0000DB407FEFDCF0895909164009B7F9093FB
:1034E0006400982F906A96959CBD80FD03C091E082
:1034F000863009F490E09DBD0895CF93DF93C0918D
:10350000280FD091290F209729F16091240F7091F5
:10351000250F8091260F9091270F0E94DBC86E5FC8
:103520007F4F24976C177D07ACF470934804609329
:1035300047040E94E695605C73468F4F9F4F6093EF
:10354000490470934A0480934B0490934C04DF9198
:10355000CF9108951092490410924A0410924B049E
:1035600010924C04F4CF0F931F9380918E0C8130F6
:1035700019F50E94E695009195031091960320910C
:10358000970330919803601B710B820B930B28EE0D
:1035900033E040E050E00E94DFC6609191037091FB
:1035A00092038091930390919403620F731F841F81
:1035B000951F1F910F9108956091990370919A033F
:1035C00080919B0390919C03D6CFCF93DF93C091C2
:1035D000280FD091290F209729F16091240F709125
:1035E000250F8091260F9091270F0E94DBC86E5FF8
:1035F0007F4F24976C177D07ACF470934804609359
:1036000047040E94E695605C73468F4F9F4F60931E
:10361000490470934A0480934B0490934C04DF91C7
:10362000CF9108951092490410924A0410924B04CD
:1036300010924C04F4CFC9CF0F931F930E94E695CC
:1036400000914303109144032091450330914603B8
:10365000601B710B820B930B97FD0CC086B186FB30
:10366000882780F991E08927349B8260329B8460AF
:10367000809342038091420381709091420391FDB7
:10368000826090914103981749F0813009F148F028
:10369000823079F0833091F0809341031F910F9134
:1036A0000895913079F09230B9F79091400391509C
:1036B0000CC0992339F09330C1F3EECF9130A9F3C8
:1036C000923051F7909140039F5F90934003E4CF75
:1036D000992359F3933001F7F5CFCF92DF92EF9210
:1036E000FF92CF93C82F0E94E6956B017C0124EADC
:1036F00030E74DE75FE360910A0270910B02809121
:103700000C0290910D020E941BC387FD18C08AEF26
:1037100090E0A0E0B0E08C0D9D1DAE1DBF1D80931C
:10372000340390933503A0933603B0933703C093CB
:103730000802CF91FF90EF90DF90CF90089580E046
:1037400090E0DC01E8CFCF92DF92EF92FF920F93EF
:103750001F930E94E69500912D0310912E03209156
:103760002F03309130036B017C01C01AD10AE20AA9
:10377000F30A9701860137FD11C020912C03209593
:1037800020932C036A547C4F8F4F9F4F60932D03DF
:1037900070932E0380932F039093300381E09091D8
:1037A0002C03911101C080E01F910F91FF90EF90C9
:1037B000DF90CF900895CF93DF93EC018D818CDE65
:1037C00060E08B81DF91CF910C94B89461E0FC01B3
:1037D00083810E94B8948FEF7ACE0F931F93CF937B
:1037E0008C01E9DF0E94F295C82F81110AC082E1A5
:1037F000F8018483C801EADF8C2FCF911F910F91CC
:1038000008958DEF64DE0E94F295C82FF3CF0F93D9
:103810001F93CF93DF9301E115E0CAEED4E0F801E6
:1038200021913191419151918F0160E070E080E8E8
:103830009FE30E9473C86993799389939993F4E005
:10384000CA3FDF0761F70E94C18EDF91CF911F91C0
:103850000F913FC9DCCFDBCFCF93DF93CDB7DEB77E
:103860002C970FB6F894DEBF0FBECDBF19821A8217
:103870001B821C821D821E821F82188619861A8650
:103880001B861C86AE014F5F5F4FBC0185EA94E04A
:103890000E94FFB22C960FB6F894DEBF0FBECDBFCC
:1038A000DF91CF9108958F929F92AF92BF92CF9266
:1038B000DF92EF92FF926B017C01BA01550F880BEA
:1038C000990B0E9421C39B01AC0160E070E080E293
:1038D00091E40E94F8C94B015C0120E030E040E235
:1038E00051E4C701B6010E9480C3A50194010E9462
:1038F00080C34B015C0120E030E0A901C701B601A3
:103900000E941BC320E030E040EA50E487FF04C07F
:1039100020E030E040EA50ECC501B4010E9497C7B6
:1039200020E030E040E251E40E9473C80E94DBC80E
:10393000FF90EF90DF90CF90BF90AF909F908F90CF
:1039400008958F929F92AF92BF92CF92DF92EF92A3
:10395000FF92CF936B017C0120E030E0A9010E942F
:103960001BC387FDC2C06DEB77E386E095E3A7013B
:1039700096010E9497C76B017C0120E030E0A9010D
:103980000E941BC387FF04C0F7FAF094F7F8F09485
:1039900042E050E0C701B60186DF6B017C0160E2C6
:1039A00080E4C81682E4D8068FE0E806F1048CF0C3
:1039B000C701B60120E432E44FE050E00E9401C7A5
:1039C000CA01B9012AE030E040E050E00E9401C79E
:1039D000605D6093880360E280EAC81686E8D806D6
:1039E00081E0E806F1048CF0C701B60120EA36E870
:1039F00041E050E00E9401C7CA01B9012AE030E06D
:103A000040E050E00E9401C7605D6093890360E27E
:103A100080E1C81687E2D806E104F1048CF0C70102
:103A2000B60120E137E240E050E00E9401C7CA0140
:103A3000B9012AE030E040E050E00E9401C7605D3B
:103A400060938A0360E288EEC81683E0D806E1043A
:103A5000F1048CF0C701B60128EE33E040E050E0FD
:103A60000E9401C7CA01B9012AE030E040E050E0FD
:103A70000E9401C7605D60938B03C701B60124E615
:103A800030E040E050E00E9401C78AE0882E912C8F
:103A9000A12CB12CCA01B901A50194010E9401C752
:103AA000605D60938C038EE280938D03C701B60145
:103AB000A50194010E9401C7C62FCA01B901A50141
:103AC00094010E9401C7605D60938E03C05DC09346
:103AD0008F0388E893E0CF91FF90EF90DF90CF9035
:103AE000BF90AF909F908F9008956DEB77E386E045
:103AF00095EB3DCF0E9421C320E030E048EC52E43A
:103B00000E9473C82FE632E143E85AE30E9497C748
:103B100018CFCF92DF92EF92FF92FC01C080D1804C
:103B2000E280F38020E030E0A901C701B6010E94E5
:103B30001BC387FF04C0F7FAF094F7F8F09450E045
:103B400040E0C701B601AFDE9B0160E22031F7E241
:103B50003F0730F0C90160E177E20E9449C7605D2C
:103B600060938B03283E83E03807F0F1C90168EECB
:103B700073E00E9449C7CB016AE070E00E9449C728
:103B8000805D80938C0380E22436310558F0C901B2
:103B900064E670E00E9449C7CB016AE070E00E94D1
:103BA00049C7805D80938D0380E22A30310558F04B
:103BB000EAE0F0E0C901BF010E9449C7CB01BF01A3
:103BC0000E9449C7805D80938E03C9016AE070E05E
:103BD0000E9449C7805D80938F038BE893E0FF903C
:103BE000EF90DF90CF90089580E2CBCFCF93DF931B
:103BF00000D01F92CDB7DEB70E941FC369837A83BE
:103C00008B839C83CE01019684DF0F900F900F90E1
:103C10000F90DF91CF9108950E941FC32AE037EDE6
:103C200043E25DE30E9473C80E94E0C8DFCFCF92F9
:103C3000DF92EF92FF92CF93DF9300D01F92CDB728
:103C4000DEB76B017C0120E030E0A9010E941BC3BC
:103C500087FD1AC06DEB77E386E095E3A701960137
:103C60000E9497C769837A838B839C83CE010196D8
:103C700050DF0F900F900F900F90DF91CF91FF903A
:103C8000EF90DF90CF9008956DEB77E386E095EBB2
:103C9000E5CF0E9421C32AE037ED43E25DE30E94B5
:103CA00073C8C5CF0E9421C3C2CFFC01608171815E
:103CB0008281938141E050E0F6DD9B018BE237FF8A
:103CC00005C022273327261B370B8DE280938A03FA
:103CD000C90168EE73E00E945DC7CB01EAE0F0E045
:103CE000BF010E945DC7805D80938B03C90164E6BC
:103CF00070E00E945DC7CB01BF010E945DC7805D7F
:103D000080938C03C901BF010E945DC7282FCB019E
:103D1000BF010E945DC7805D80938D038EE280931A
:103D20008E03205D20938F038AE893E008958F929D
:103D30009F92AF92BF92CF92DF92EF92FF92CF937A
:103D4000FC0180809180A280B38042E050E0C501F8
:103D5000B401A9DD6B017C0120E030E040E251ECD0
:103D6000C501B4010E941BC3181654F420E030E0D2
:103D700048EC52E4C501B4010E94BDC987FD67C08B
:103D8000C701B60120E137E240E050E00E9401C7E0
:103D9000CA01B9012AE030E040E050E00E9401C7CA
:103DA000605DF7FE09C0F094E094D094C094C11C0B
:103DB000D11CE11CF11C6DE260938A03C701B601BE
:103DC00028EE33E040E050E00E9401C79AE0892EDF
:103DD000912CA12CB12CCA01B901A50194010E941A
:103DE00001C7605D60938B03C701B60124E630E034
:103DF00040E050E00E9401C7CA01B901A501940149
:103E00000E9401C7605D60938C038EE280938D03F6
:103E1000C701B601A50194010E9401C7C62FCA01BE
:103E2000B901A50194010E9401C7605D60938E03F2
:103E3000C05DC0938F038AE893E0CF91FF90EF902D
:103E4000DF90CF90BF90AF909F908F90089520E02B
:103E500030E0A901C501B4010E94BDC987FD0BC0B6
:103E600020E030E040E251E4C501B4010E941BC3F0
:103E700060E287FD1CC0C701B60128EE33E040E0D8
:103E800050E00E9401C7CA01B9012AE030E040E0D9
:103E900050E00E9401C7605DF7FE09C0F094E09415
:103EA000D094C094C11CD11CE11CF11C6DE2609344
:103EB0008B03C701B60124E630E040E050E00E94E9
:103EC00001C78AE0882E912CA12CB12CCA01B9011E
:103ED000A50194010E9401C7605D60938C038EE28E
:103EE00080938D03C701B601A50194010E9401C70B
:103EF000C62FCA01B901A50194010E9401C7605DE6
:103F000060938E03C05DC0938F038BE893E095CFE1
:103F1000CF92DF92EF92FF92CF93DF9300D01F9268
:103F2000CDB7DEB70E9421C320E030E048EC52E478
:103F30000E9473C82FE632E143E85AE30E9497C714
:103F40006B017C0120E030E0A9010E941BC32DEB36
:103F500037E346E055E387FF04C02DEB37E346E047
:103F600055EBC701B6010E9497C769837A838B839B
:103F70009C83CE010196DBDE0F900F900F900F9087
:103F8000DF91CF91FF90EF90DF90CF9008958F92C7
:103F90009F92AF92BF92CF92DF92EF92FF92CF9318
:103FA0006B017C0120E030E0A9010E941BC387FD6A
:103FB00069C06DEB77E386E095E3A70196010E9467
:103FC00097C743E050E06FDC6B017C01C114D10462
:103FD000E104F10409F45BC0F7FE59C0F094E094E9
:103FE000D094C094C11CD11CE11CF11C8DE28093C3
:103FF0008A03C701B60128EE33E040E050E00E949A
:1040000001C78AE0882E912CA12CB12CCA01B901DC
:10401000A50194010E9401C7605D60938B038EE24D
:1040200080938C03C701B60124E630E040E050E005
:104030000E9401C7CA01B901A50194010E9401C7EC
:10404000605D60938D03C701B601A50194010E94D4
:1040500001C7C62FCA01B901A50194010E9401C779
:10406000605D60938E03C05DC0938F038AE893E028
:10407000CF91FF90EF90DF90CF90BF90AF909F9047
:104080008F9008956DEB77E386E095EB96CF80E215
:10409000AECF0E9421C320E030E04AE754E40E9402
:1040A00073C827E137EB41ED58E30E9497C76FCF04
:1040B0006AE970E482E00C944BB46CE970E481E04E
:1040C0000C944BB46EE970E480E00C944BB466E75A
:1040D0007EE383E00C944BB4EF92FF920F931F9317
:1040E00089E2E82E85E1F82E10E000E02BE235E1D0
:1040F00042E457E36BE375E180E495E10E94E490CC
:104100001F910F91FF90EF900895EF92FF920F9300
:104110001F938091730C06E61CE0882311F003E7DF
:104120001CE08EEEE82E84E1F82E20EF34E147E02B
:1041300058E36CEF74E183E095E10E94E4901F91F5
:104140000F91FF90EF900895EF92FF920F931F93BE
:104150008CE3E82E84E1F82E10E000E02BEC34E153
:104160004AE154E56EE374E183E494E10E94E49053
:104170001F910F91FF90EF90089580914002882346
:1041800041F0609186037091870341E081E00C94D7
:10419000E98F0895CF92DF92EF92FF920F931F93D2
:1041A000CF93DF9300D000D01F921F92CDB7DEB720
:1041B0008E010F5F1F4FD80130E020E0FB01E20FBE
:1041C000F31FE491ED932F5F3F4F28303105B1F796
:1041D000877098E0899FB0011124606487E79FE0B1
:1041E0000E945C9683E790E00197F1F77801E8E0A0
:1041F000EE0EF11C8BE9C82ED12CF80161918F01D4
:1042000087E79FE00E947589C6010197F1F7E016E4
:10421000F10699F728960FB6F894DEBF0FBECDBF12
:10422000DF91CF911F910F91FF90EF90DF90CF9092
:104230000895CF92DF92EF92FF920F931F93CF9347
:10424000DF9300D000D0CDB7DEB78A0146E0469FAD
:104250009001479F300D1124BC01620F731F46E08F
:1042600050E0CE0101960E944BC2C980DA80EB80FB
:10427000FC80F80140815181628173818FEF9FEF53
:10428000C416D506E606F70640F081E090E04C152E
:104290005D056E057F0508F080E026960FB6F89460
:1042A000DEBF0FBECDBFDF91CF911F910F91FF9069
:1042B000EF90DF90CF9008950F931F93CF93DF93EC
:1042C000CDB7DEB72E970FB6F894DEBF0FBECDBFC9
:1042D0008B011E861D86FC01608171818281938124
:1042E0006F83788789879A872FEF2B8760387105CE
:1042F0008105910538F487E79FE00E94758981E088
:1043000090E02FC09E01235F3F4FAE01495F5F4F9A
:1043100069EB70E08DE69DE00E948A8C97FD2CC0D1
:104320008D859E8526E0289FB001299F700D112460
:104330006359724F46E050E0CE0101960E944BC295
:104340006D8187E79FE00E94758901301105B9F200
:104350006E816623A1F287E79FE00E94758982E063
:1043600090E02E960FB6F894DEBF0FBECDBFDF9162
:10437000CF911F910F9108959E01235F3F4FAE0192
:10438000495F5F4F63E670E08BE19BE00E948A8C9F
:1043900097FD0BC08D859E8526E0289FB001299F43
:1043A000700D1124655E744FC5CF6FE3A4CF80916B
:1043B000FF0290910003009731F04AE050E070E076
:1043C00060E00C9443C160E070E0CB0108958091FF
:1043D000FF0290910003009731F04AE050E070E056
:1043E00060E00C9418C060E070E0CB010895EFDF4E
:1043F000CB010895ECDF97FD0AC0E9DF6F3F71053F
:104400008105910509F02CF4E2DF862F089580E004
:1044100008958FEF08958091FF0290910003892BFA
:1044200039F0E8DF91E0811101C090E0892F089513
:1044300091E0FCCFCF93DF93C82FD62F1CD88823D1
:1044400019F0DF91CF91E7CF8C2F0E94ED198111E8
:1044500001C08D2FDF91CF9108950F931F93CF93BC
:104460008091FF0290910003009709F1FC018F01F8
:10447000C1912C2F2F7DA1F0C53431F0C53621F02C
:10448000C83511F0C83799F7F801108270E060E084
:104490000E94C3BEF801C083CF911F910F91089570
:1044A00070E060E0CF911F910F910C94C3BE60E06B
:1044B00070E0CB01F1CF4F925F926F927F92AF92FB
:1044C000BF92CF92DF92EF92FF920F931F93CF9301
:1044D00082E8A82E82E0B82E97EBE92E93E0F92E21
:1044E00005EA14E028E9C22E24E0D22EC0E0F5014E
:1044F00081915F010E943B1A882309F47AC0ADDFE5
:104500002B013C018C2F0E94C619882309F467C037
:10451000F8012081318142815381C301B2010E949F
:1045200097C7F7016083718382839383CF5FF4E041
:10453000EF0EF11C0C5F1F4F84E0C80ED11CC3307E
:10454000B1F685E40E943B1A882309F45DC085DF3B
:104550006B017C0183E00E94C619882371F02091D1
:10456000B1043091B2044091B3045091B404C70136
:10457000B6010E9497C76B017C01C092C303D09221
:10458000C403E092C503F092C60386E40E943B1A7E
:104590008823B9F062DF20E030E0A9010E94BDC9A4
:1045A00018167CF45ADF20E030E040E752E40E9425
:1045B00073C8609302027093030280930402909385
:1045C0000502CF911F910F91FF90EF90DF90CF9058
:1045D000BF90AF907F906F905F904F900895F601DD
:1045E0002081318142815381C301B2010E9496C76B
:1045F00098CFF80180819181A281B381F7018083F6
:104600009183A283B38392CF8091B1049091B2043D
:10461000A091B304B091B4048093C3039093C403F6
:10462000A093C503B093C603B0CFCF938091C30EC0
:10463000C1E08823C9F08091C40E9091C50E4091CD
:10464000BB0E5091BC0E6091BD0E7091BE0EDC0190
:10465000ED91FC910288F389E02D2BEB3CE019955C
:10466000C82F811104C0C0E08C2FCF9108954091D4
:10467000BF0E5091C00E6091C10E7091C20E4115D7
:10468000510561057105B9F08091C40E9091C50E78
:10469000DC01ED91FC910288F389E02D2BEB3CE0ED
:1046A0001995882301F31092BF0E1092C00E10923C
:1046B000C10E1092C20E1092C30ED6CFCF92DF92CF
:1046C000EF92FF92CF936B017C01C42F8091BB0EC0
:1046D0009091BC0EA091BD0EB091BE0E8C159D05A3
:1046E000AE05BF0519F1A1DF811107C080E0CF91B0
:1046F000FF90EF90DF90CF9008958091C40E90913D
:10470000C50EDC01ED91FC910088F189E02D2BEBC9
:104710003CE0B701A6011995882341F3C092BB0E76
:10472000D092BC0EE092BD0EF092BE0E81E0CC2382
:10473000F1F28093C30EDBCFCF92DF92EF92FF9224
:104740000F931F93CF93DF93FC0181859285A385FF
:10475000B4850196A11DB11D84179507A607B7075B
:1047600050F480E0DF91CF911F910F91FF90EF9077
:10477000DF90CF90089587898031A9F5BB27A72FB7
:10478000962F852FC388D488E588F6888C0D9D1DCB
:10479000AE1DBF1DE9016A017B018F014091BB0E77
:1047A0005091BC0E6091BD0E7091BE0E841795079E
:1047B000A607B70749F5F8018789803161F5B70188
:1047C000A601552766277727440F551F4554534F99
:1047D000FA0180819181B0E0A0E088839983AA8367
:1047E000BB8381E0BFCF803209F0BBCFC388D488C0
:1047F000E588F688DB01CA01C7E0B695A7959795CD
:104800008795CA95D1F7C2CF40E0BC01CD0156DFF4
:104810008111D1CFA6CFB701A6014F7755276627C3
:104820007727440F551F440F551F4554534FFA0126
:1048300080819181A281B381BF70CFCF4F925F926F
:104840006F927F92AF92BF92CF92DF92EF92FF92E0
:104850000F931F93CF93DF9300D01F92CDB7DEB796
:104860008C0149835A836B837C835901C12CD12CE1
:104870007601412C82E0582E612C712C49815A819D
:104880006B817C819E012F5F3F4FC80155DF8823DC
:1048900019F1F8018585A301920104C0220F331F8D
:1048A000441F551F8A95D2F7DA01C901C80ED91ED7
:1048B000EA1EFB1E49815A816B817C818789803188
:1048C000F1F481E0483F5F4F61057105B8F2F501F1
:1048D000C082D182E282F3820F900F900F900F90EE
:1048E000DF91CF911F910F91FF90EF90DF90CF90CC
:1048F000BF90AF907F906F905F904F90089581E050
:10490000483F5F4F6F4F7F4008F4B8CFE0CFCF9361
:10491000DF93EC01462F41706C857D858E859F85E8
:10492000CDDE882351F0888920E2829FC0011124C6
:104930008554934FDF91CF91089590E080E0FACFB6
:10494000CF93DF93EC018B81882339F1898187FF35
:1049500021C061E0CE01DBDFFC01892BF1F0808119
:10496000853ED9F08B81823040F489899A89AB8960
:10497000BC89848F958FA68FB78F8D899E89938FE1
:10498000828F8D899E89AF89B88DB58BA48B8981E3
:104990008F778983DF91CF9148CE81E0888380E053
:1049A000DF91CF9108958F929F92AF92BF92CF9255
:1049B000DF92EF92FF920F931F93CF93DF93EC015F
:1049C0008B8181110EC080E0DF91CF911F910F91FB
:1049D000FF90EF90DF90CF90BF90AF909F908F901F
:1049E000089509891A892B893C8904171507260718
:1049F000370748F34A015B01823031F48886998693
:104A0000AA86BB8681E0E0CF81149104A104B104A1
:104A100049F4188619861A861B861C821D821E82FE
:104A20001F82F0CF088519852A853B85E98DFA8D8F
:104A3000858590E00996B901A801415051096109A5
:104A40007109082E04C076956795579547950A9485
:104A5000D2F775016401E1E0CE1AD108E108F1084E
:104A600004C0F694E794D794C7948A95D2F7C416F5
:104A7000D506E606F70620F0012B022B032B09F5DD
:104A80008D899E89AF89B88D8C839D83AE83BF83CA
:104A90008E010C5F1F4FC114D104E104F10409F42D
:104AA000ADCF4C815D816E817F819801898D9A8D1A
:104AB00043DE91E0C91AD108E108F1088111EBCF7A
:104AC00082CFC41AD50AE60AF70AE2CF2F923F92A4
:104AD0004F925F926F927F928F929F92AF92BF920E
:104AE000CF92DF92EF92FF920F931F93CF93DF93BA
:104AF000EC014B017A018B81811115C08FEF9FEF83
:104B0000DF91CF911F910F91FF90EF90DF90CF90A9
:104B1000BF90AF909F908F907F906F905F904F90DD
:104B20003F902F900895898180FFE8CF89899A89E5
:104B3000AB89BC89488559856A857B85841B950B23
:104B4000A60BB70BA70170E060E084179507A607D6
:104B5000B70708F47C0167011E0124E0220E311C16
:104B6000C114D10409F4A7C0488559856A857B859D
:104B70005A0181E0B822898D9A8D2A013B0129E0F2
:104B800076946794579447942A95D1F72B81FC012A
:104B9000223079F5628D738D848D958D640D751D30
:104BA000861D971D00E012E00A191B09C016D106E8
:104BB00008F486010115E2E01E0771F44090BB0E77
:104BC0005090BC0E6090BD0E7090BE0E64157505C1
:104BD0008605970509F04CC040E070DD882309F494
:104BE0008DCFB5016554734FA801C4010E94A0CBBD
:104BF00051C0148111501421A114B10471F4111188
:104C00000CC0452B462B472B51F58D899E89AF89CA
:104C1000B88D8C839D83AE83BF83E98DFA8D4C80E4
:104C20005D806E807F8022E0421A51086108710821
:104C3000858504C0440C551C661C771C8A95D2F7E8
:104C400086859785A089B189480E591E6A1E7B1EEC
:104C5000C301B201610F711D811D911DA3CF4C8154
:104C60005D816E817F81910167DD8111D6CF46CF55
:104C7000A091C40EB091C50EED91FC9111970088E2
:104C8000F189E02D9401AB01BC01CD011995882378
:104C900009F434CF800E911E88859985AA85BB853D
:104CA000800F911FA11DB11D88879987AA87BB8797
:104CB000C01AD10A55CFC70123CF0F931F93CF93AB
:104CC000DF93FC012381222331F080E0DF91CF913B
:104CD0001F910F9108958B01EC01FB0187898031B1
:104CE00039F582E08B831D8A1E8A1F8A188E808D7B
:104CF000918DB0E0A0E025E0880F991FAA1FBB1F8F
:104D00002A95D1F7898B9A8BAB8BBC8B1A8F098F25
:104D100081E08983188619861A861B861C821D826B
:104D20001E821F82188A1C861D861E861F86CECF75
:104D3000803259F683E08B83428D538D648D758D5F
:104D40004D8B5E8B6F8B788F9E012F5E3F4FC8011E
:104D500075DD8111DBCFB9CFCF93DF93EB01FC0180
:104D60002381211104C080E0DF91CF91089522506A
:104D7000223028F48FE28883198281E0F5CF60E049
:104D8000C6DD009781F3DC0160E080E09EE22D91BA
:104D9000203299F0883031F49E01260F311DF9013F
:104DA00090836F5F9E01260F311DAD014150510967
:104DB000FA014081F90140836F5F8F5F8B3039F7D3
:104DC000FE01E60FF11D1082D8CFCF93DF93EC01E7
:104DD000B7DD1B82DF91CF9108953F924F925F9292
:104DE0006F927F928F929F92AF92BF92CF92DF92FB
:104DF000EF92FF920F931F93CF93DF93CDB7DEB760
:104E00002C970FB6F894DEBF0FBECDBF5C01DC015E
:104E100059968D909C90F40181859285A385B485E7
:104E20009C01AD012F5F3F4F4F4F5F4F29873A875E
:104E30004B875C87D50114964D905D906D907C906A
:104E40001797411451046104710409F458C0BFEF6D
:104E50004B1A5B0A6B0A7B0A312C730162011D82BB
:104E60001E821F821886F40181859285A385B485F0
:104E70002D813E814F815885281739074A075B07E6
:104E800008F055C089859A85AB85BC858C159D0534
:104E9000AE05BF0550F482E0C82ED12CE12CF12CD8
:104EA00092E0492E512C612C712C9E012F5F3F4FB7
:104EB000B701A601C40140DC8823C9F189819A8128
:104EC000AB81BC81892B8A2B8B2B01F12601370109
:104ED0009FEF491A590A690A790A2D813E814F814B
:104EE00058852F5F3F4F4F4F5F4F2D833E834F833A
:104EF00058873FEFC31AD30AE30AF30AB4CF4080BE
:104F000051806280738033243394A7CFC414D504B6
:104F1000E604F70411F70FEF1FEF2FEF3FE0B701A3
:104F2000A601C4010E9426B3782E81111AC0712CEB
:104F3000872D2C960FB6F894DEBF0FBECDBFDF9144
:104F4000CF911F910F91FF90EF90DF90CF90BF9086
:104F5000AF909F908F907F906F905F904F903F9019
:104F60000895F50144815581668177814115510588
:104F70006105710539F097018601C4010E9426B3CD
:104F80008823A9F2D5011496CD92DD92ED92FC9280
:104F90001797332051F0D701C6010196A11DB11D0D
:104FA000F40180839183A283B383F5018589968977
:104FB000A789B08D892B8A2B8B2B09F0B9CFC58A95
:104FC000D68AE78AF08E818180688183B1CF40E004
:104FD00050E0BA01E8CCFC0123812111F6CE0895FE
:104FE0002F923F924F925F926F927F928F929F92F9
:104FF000AF92BF92CF92DF92EF92FF920F931F93E7
:10500000CF93DF93CDB7DEB7C454D1090FB6F89470
:10501000DEBF0FBECDBF7C014B015A01222E19828B
:105020001C821C8E1F8E6115710511F410E0ADC13C
:10503000DC0113968C918111F9CFFA0180818B01EB
:105040008F32C9F4DB0113968C9113978250823012
:1050500058F059966D917C91CE014C962EDE8E01C2
:10506000045E1F4F882311F3C5015C010196F50111
:1050700020812F32D1F39E012F5F3F4F690129011B
:1050800030E2332E2496CFAE24972596DFAE2597B7
:105090003E013CE1630E711C22963FAE22972196A1
:1050A0003FAE21973FAE3EAE3DAE3CAE3BAE3AAEDC
:1050B00039AE38AE3FAA950190E047E0D9018D9115
:1050C000882361F18F3251F18E3239F44A3009F47C
:1050D000ADCF98E04AE09D01F1CFE8EEF7E12491F1
:1050E000222321F031968213FACFA0CF491708F47A
:1050F0009DCF813208F49ACF8F3709F497CF3FE9DB
:10510000380F3A3108F420EEE7E3F0E0EC0FFD1F32
:10511000E90FF11D820F80839F5FDDCF8FA9803261
:1051200009F484CF5901D9018C912F5F3F4F8F3201
:10513000C9F38823A1F00815190511F0C80145DE4F
:1051400024969FAD249725968FAD25974C145D042A
:1051500011F4962D872D8601C92ED82E9DCFF801EA
:10516000818D928DD7015A969C938E935997C80141
:105170002EDFC12CF80180859185A285B3854189F8
:1051800052896389748984179507A607B70708F0C1
:1051900052C025E0B695A795979587952A95D1F7A2
:1051A000F82FFF70DF2ED80113968C91823008F40F
:1051B0003DCF41E050E0BE016E5B7F4FC80186DC11
:1051C000019709F033CFF80180859185A285B385D9
:1051D0004F96A11DB11D80879187A287B387F0E20A
:1051E000DF9EB00111246554734F6115710509F4F8
:1051F0001DCFDB018C91882341F0853E09F04BC027
:10520000CC2029F0CC24C394B5CFC1100EC080911E
:10521000BB0E9091BC0EA091BD0EB091BE0EF701D9
:1052200084879587A687B787D08ADB018C91811107
:10523000E9CFCC24C394822D8274823409F0F6CE57
:10524000CC2009F4C3C0F701D08861E0C7015FDB5F
:10525000009709F4EBCE20E2DC011D922A95E9F7D4
:105260002BE0FE01F796DC0101900D922A95E1F703
:1052700021E238E2FC01318B208B40E058E0578777
:105280004687338B228B318F208F578B468BCDD91E
:1052900081110AC0CBCE4BE050E0CE01C7960E94F0
:1052A00093CB892B09F066CF2D2D30E0F901B5E0C5
:1052B000EE0FFF1FBA95E1F7DF01A554B34F1B9620
:1052C0008C91817121F0822D827109F01BC1D7016F
:1052D00059968D919C915A974091BB0E5091BC0E5E
:1052E0006091BD0E7091BE0E1C964D935D936D93B3
:1052F0007C931F975096DC925097E554F34F848827
:105300009588B12CA12C54019924882455968D920E
:105310009D92AD92BC925897428D538D70E060E0A3
:10532000482959296A297B2955964D935D936D9398
:105330007C935897A5E0220F331FAA95E1F7D90176
:10534000A554B34F1B962C91287109F0CEC0848DC3
:10535000958DA68DB78DF701818B928BA38BB48B26
:1053600081E08383822D8F70F701818314821582FF
:1053700016821782108611861286138611E024FE8B
:1053800004C0C7010E94B8B3182FCE014C9623DE8B
:10539000CE01019620DE812FCC5BDF4F0FB6F89453
:1053A000DEBF0FBECDBFDF91CF911F910F91FF9058
:1053B000EF90DF90CF90BF90AF909F908F907F90B5
:1053C0006F905F904F903F902F900895D801139663
:1053D0008C911397823009F429CE51968D919D912D
:1053E0000D90BC91A02D803E9F4FAF41B10508F0BC
:1053F0001DCEC801F2DC882309F418CE16D9882303
:1054000009F414CED8015996ED91FC915A9714964F
:105410008D909D90AD90BC901797B2E08B1A91083B
:10542000A108B108858504C0880C991CAA1CBB1C66
:105430008A95D2F786859785A089B189880E991EAD
:10544000AA1EBB1E81E08093C30E8092BB0E909279
:10545000BC0EA092BD0EB092BE0EEBEBFCE080E065
:1054600092E0DF019C011D9221503040E1F7DD24E4
:10547000D394D8015996ED91FC918481D816C0F44B
:105480008091C40E9091C50EDC01ED91FC910288D3
:10549000F389E02D2BEB3CE0B501A4014D0D511D2E
:1054A000611D711D1995882309F4C0CDD394E1CFF6
:1054B000258580E092E0A0E0B0E004C0880F991F4D
:1054C000AA1FBB1F2A95D2F7F80141895289638927
:1054D0007489840F951FA61FB71F818B928BA38B96
:1054E000B48B8BEB9CE0D12CB6CE203159F49701D4
:1054F0002F5E3F4FA3D9882329F084E0D70113966C
:105500008C9330CFD70113961C9290CD0F930FB789
:105510000F9300916E000D7F00936E0078940F93AF
:105520000BB70F930CB70F921F922F933F934F938C
:105530005F936F937F938F939F93AF93BF93EF93FB
:10554000FF9311243AD3FF91EF91BF91AF919F91B7
:105550008F917F916F915F914F913F912F911F900C
:105560000F900CBF0F910BBF0F910260F894009346
:105570006E000F910FBF0F911895CF93DF9310928C
:10558000C004C0E2DFE0198618860E947D1A1A86E0
:105590002C98DF91CF910895BC0120912404309183
:1055A000250440912404509125042417350731F433
:1055B00081E02617370709F080E008959A01F1CFBE
:1055C0000F930FB70F9300916E000F930D7F009311
:1055D0006E0000916F000D7F00936F000F930BB76B
:1055E0000F930CB70F921F922F933F934F935F939C
:1055F0006F937F938F939F93AF93BF93EF93FF939B
:105600001124D2D6FF91EF91BF91AF919F918F91CD
:105610007F916F915F914F913F912F911F900F90CC
:105620000CBF0F910BBF0F910260F89400936F00B5
:105630000F9100936E000F910FBF0F91189500C04E
:1056400000C080915A0480FF24C0899A8FEF809314
:10565000DB0380915A0481FF1FC08F988FEF8093E6
:10566000DC0380915A0482FF1AC080910B0180955F
:105670008270809309018FEF8093DD0380915A043B
:1056800083FF14C016988FEF8093DE0300C000C024
:105690000895899881E0DBCF8F9A81E0E0CF8091F7
:1056A0000B0182708093090181E0E6CF169A81E0B8
:1056B000EBCF8091DA03877F8093DA03129A81E03F
:1056C000089512988091DA0388608093DA03089530
:1056D00021E030E0082E02C0220F331F0A94E2F7C7
:1056E000209530959091DA0329232093DA038130B5
:1056F00061F020F0823071F081E008955F9A80912E
:1057000059048E7F80935904F7CF8A9A8091590467
:105710008D7FF8CF8091080180958170809306017C
:10572000809159048B7FEECF80E0D2DF81E0D0DF23
:1057300082E0CEDFBECF90914F0F8091500F981333
:1057400007C08091FA049091FB04892B09F4ECCFF7
:105750000E94A79CF0CF813089F070F0823081F0F8
:1057600021E030E001C0220F8A95EAF78091DA0348
:10577000822B8093DA0308955F98F2CF8A98F0CF56
:1057800090910801917090930601EACF853F9105B1
:1057900014F085EF90E09093290F8093280F0C94DC
:1057A000E51A8091700490917104F0CFCF93DF934C
:1057B0002091CC0321111DC09091CB0391111AC0EF
:1057C000C0911202D0911302219720E030E040E016
:1057D0005FE36091240F7091250F8091260F9091C7
:1057E000270F0E9497C70E94DBC821E06C177D0736
:1057F0000CF020E0822FDF91CF91089590914F0F10
:105800008091500F981306C08091FA049091FB0488
:10581000892B19F00E94A79CF1CF08954F925F92B7
:105820006F927F928F929F92AF92BF92CF92DF92B0
:10583000EF92FF920F931F93CF93DF93CDB7DEB715
:105840002E970FB6F894DEBF0FBECDBF9E878D8713
:105850005B018A01DC01D6966D917D918D919C91C1
:10586000D9970E941FC36B017C01F5012081318112
:10587000428153810E9480C30E945DC84B015C013C
:10588000D8012D913D914D915C91C701B6010E94C7
:1058900080C30E945DC82B013C01C501B4010E9478
:1058A000E0C86D837E838F83988768377105810593
:1058B000910540F408E710E020E030E00D831E83FE
:1058C0002F833887C301B2010E94E0C869837A83BD
:1058D0008B839C83683771058105910540F428E727
:1058E00030E040E050E029833A834B835C83AD8510
:1058F000BE8595968D909D90AD90BC909897FD013A
:10590000EE5BFF4F6081718182819381611571052A
:105910008105910509F4D7C00E9421C39B01AC0108
:1059200060E070E080E89FE30E9473C820E030E010
:1059300040E05FE30E9480C32B013C01A701960178
:10594000C701B6010E9480C36B017C0169817A8125
:105950008B819C810E941FC39B01AC010E9480C36C
:105960009B01AC01C701B6010E9496C7A301920139
:105970000E9480C369877A878B879C876D817E812F
:105980008F8198850E941FC39B01AC010E9480C338
:105990009B01AC01C701B6010E9496C7A301920109
:1059A0000E9480C32B013C010E945DC80E94E0C898
:1059B0006B017C0169857A858B859C850E940CC969
:1059C0000E94E0C8DC01CB01B701A601480F591FB6
:1059D0006A1F7B1F95018401041B150B260B370BD7
:1059E000B901A80177FF35C0C501B4010E941FC3EA
:1059F000A30192010E9497C729853A854B855C8552
:105A00000E9496C720E030E040E05FE30E9480C340
:105A10000E945DC86B017C0120E030E0A9010E947A
:105A2000BDC918161CF0C12CD12C7601C701B601D6
:105A30000E94E0C86B017C018C149D04AE04BF047D
:105A400010F475016401D501C4018C199D09AE09DA
:105A5000BF09ED85FE85C1A6D2A6E3A6F4A69501F1
:105A60008401081B190B2A0B3B0BD901C80185A720
:105A700096A7A7A7B0AB0D811E812F81388502AFF5
:105A800013AF24AF35AFFE9609811A812B813C817B
:105A900000831183228333832E960FB6F894DEBFE2
:105AA0000FBECDBFDF91CF911F910F91FF90EF906F
:105AB000DF90CF90BF90AF909F908F907F906F902E
:105AC0005F904F90089580E090E0DC01C12CD12CD4
:105AD0007601BFCF90916F0081E091FD02C080E020
